{
	"contracts/first_contract.sol": {
		"BankContract": {
			"abi": [
				{
					"inputs": [],
					"stateMutability": "nonpayable",
					"type": "constructor"
				},
				{
					"inputs": [],
					"name": "deposit",
					"outputs": [],
					"stateMutability": "payable",
					"type": "function"
				},
				{
					"inputs": [],
					"name": "getContractBalance",
					"outputs": [
						{
							"internalType": "uint256",
							"name": "",
							"type": "uint256"
						}
					],
					"stateMutability": "view",
					"type": "function"
				},
				{
					"inputs": [
						{
							"internalType": "address",
							"name": "",
							"type": "address"
						}
					],
					"name": "interestDate",
					"outputs": [
						{
							"internalType": "uint256",
							"name": "",
							"type": "uint256"
						}
					],
					"stateMutability": "view",
					"type": "function"
				},
				{
					"inputs": [],
					"name": "joinAsClient",
					"outputs": [
						{
							"internalType": "string",
							"name": "",
							"type": "string"
						}
					],
					"stateMutability": "payable",
					"type": "function"
				},
				{
					"inputs": [],
					"name": "sendInterest",
					"outputs": [],
					"stateMutability": "payable",
					"type": "function"
				},
				{
					"inputs": [
						{
							"internalType": "address",
							"name": "managerAddress",
							"type": "address"
						}
					],
					"name": "setManager",
					"outputs": [
						{
							"internalType": "string",
							"name": "",
							"type": "string"
						}
					],
					"stateMutability": "nonpayable",
					"type": "function"
				},
				{
					"inputs": [
						{
							"internalType": "uint256",
							"name": "amount",
							"type": "uint256"
						}
					],
					"name": "withdraw",
					"outputs": [],
					"stateMutability": "payable",
					"type": "function"
				},
				{
					"stateMutability": "payable",
					"type": "receive"
				}
			],
			"devdoc": {
				"kind": "dev",
				"methods": {},
				"version": 1
			},
			"evm": {
				"assembly": "    /* \"contracts/first_contract.sol\":35:2273  contract BankContract { \r... */\n  mstore(0x40, 0x80)\n    /* \"contracts/first_contract.sol\":342:398  constructor() public{\r... */\n  callvalue\n  dup1\n  iszero\n  tag_1\n  jumpi\n  0x00\n  dup1\n  revert\ntag_1:\n  pop\n    /* \"contracts/first_contract.sol\":389:390  0 */\n  0x00\n    /* \"contracts/first_contract.sol\":373:386  clientCounter */\n  0x01\n    /* \"contracts/first_contract.sol\":373:390  clientCounter = 0 */\n  dup2\n  swap1\n  sstore\n  pop\n    /* \"contracts/first_contract.sol\":35:2273  contract BankContract { \r... */\n  dataSize(sub_0)\n  dup1\n  dataOffset(sub_0)\n  0x00\n  codecopy\n  0x00\n  return\nstop\n\nsub_0: assembly {\n        /* \"contracts/first_contract.sol\":35:2273  contract BankContract { \r... */\n      mstore(0x40, 0x80)\n      jumpi(tag_1, lt(calldatasize, 0x04))\n      shr(0xe0, calldataload(0x00))\n      dup1\n      0xa4092174\n      gt\n      tag_10\n      jumpi\n      dup1\n      0xa4092174\n      eq\n      tag_6\n      jumpi\n      dup1\n      0xd0e30db0\n      eq\n      tag_7\n      jumpi\n      dup1\n      0xd0ebdbe7\n      eq\n      tag_8\n      jumpi\n      dup1\n      0xd9dca6c5\n      eq\n      tag_9\n      jumpi\n      jump(tag_2)\n    tag_10:\n      dup1\n      0x2e1a7d4d\n      eq\n      tag_3\n      jumpi\n      dup1\n      0x6f9fb98a\n      eq\n      tag_4\n      jumpi\n      dup1\n      0x9e0a5d68\n      eq\n      tag_5\n      jumpi\n      jump(tag_2)\n    tag_1:\n      jumpi(tag_2, calldatasize)\n      stop\n    tag_2:\n      0x00\n      dup1\n      revert\n        /* \"contracts/first_contract.sol\":1390:1575  function withdraw(uint amount) public payable onlyClients{\r... */\n    tag_3:\n      tag_13\n      0x04\n      dup1\n      calldatasize\n      sub\n      dup2\n      add\n      swap1\n      tag_14\n      swap2\n      swap1\n      tag_15\n      jump\t// in\n    tag_14:\n      tag_16\n      jump\t// in\n    tag_13:\n      stop\n        /* \"contracts/first_contract.sol\":2083:2182  function getContractBalance() public view returns(uint){\r... */\n    tag_4:\n      callvalue\n      dup1\n      iszero\n      tag_17\n      jumpi\n      0x00\n      dup1\n      revert\n    tag_17:\n      pop\n      tag_18\n      tag_19\n      jump\t// in\n    tag_18:\n      mload(0x40)\n      tag_20\n      swap2\n      swap1\n      tag_21\n      jump\t// in\n    tag_20:\n      mload(0x40)\n      dup1\n      swap2\n      sub\n      swap1\n      return\n        /* \"contracts/first_contract.sol\":1583:2073  function sendInterest() public payable onlyManager{\r... */\n    tag_5:\n      tag_22\n      tag_23\n      jump\t// in\n    tag_22:\n      stop\n        /* \"contracts/first_contract.sol\":1039:1269  function joinAsClient() public payable returns(string memory){\r... */\n    tag_6:\n      tag_24\n      tag_25\n      jump\t// in\n    tag_24:\n      mload(0x40)\n      tag_26\n      swap2\n      swap1\n      tag_27\n      jump\t// in\n    tag_26:\n      mload(0x40)\n      dup1\n      swap2\n      sub\n      swap1\n      return\n        /* \"contracts/first_contract.sol\":1279:1382  function deposit() public payable onlyClients{\r... */\n    tag_7:\n      tag_28\n      tag_29\n      jump\t// in\n    tag_28:\n      stop\n        /* \"contracts/first_contract.sol\":892:1031  function setManager(address managerAddress) public returns(string memory){\r... */\n    tag_8:\n      callvalue\n      dup1\n      iszero\n      tag_30\n      jumpi\n      0x00\n      dup1\n      revert\n    tag_30:\n      pop\n      tag_31\n      0x04\n      dup1\n      calldatasize\n      sub\n      dup2\n      add\n      swap1\n      tag_32\n      swap2\n      swap1\n      tag_33\n      jump\t// in\n    tag_32:\n      tag_34\n      jump\t// in\n    tag_31:\n      mload(0x40)\n      tag_35\n      swap2\n      swap1\n      tag_27\n      jump\t// in\n    tag_35:\n      mload(0x40)\n      dup1\n      swap2\n      sub\n      swap1\n      return\n        /* \"contracts/first_contract.sol\":289:333  mapping(address => uint) public interestDate */\n    tag_9:\n      callvalue\n      dup1\n      iszero\n      tag_36\n      jumpi\n      0x00\n      dup1\n      revert\n    tag_36:\n      pop\n      tag_37\n      0x04\n      dup1\n      calldatasize\n      sub\n      dup2\n      add\n      swap1\n      tag_38\n      swap2\n      swap1\n      tag_33\n      jump\t// in\n    tag_38:\n      tag_39\n      jump\t// in\n    tag_37:\n      mload(0x40)\n      tag_40\n      swap2\n      swap1\n      tag_21\n      jump\t// in\n    tag_40:\n      mload(0x40)\n      dup1\n      swap2\n      sub\n      swap1\n      return\n        /* \"contracts/first_contract.sol\":1390:1575  function withdraw(uint amount) public payable onlyClients{\r... */\n    tag_16:\n        /* \"contracts/first_contract.sol\":558:571  bool isClient */\n      0x00\n        /* \"contracts/first_contract.sol\":594:600  uint i */\n      dup1\n        /* \"contracts/first_contract.sol\":590:767  for(uint i=0;i<clients.length;i++){\r... */\n    tag_42:\n        /* \"contracts/first_contract.sol\":605:612  clients */\n      0x00\n        /* \"contracts/first_contract.sol\":605:619  clients.length */\n      dup1\n      sload\n      swap1\n      pop\n        /* \"contracts/first_contract.sol\":603:604  i */\n      dup2\n        /* \"contracts/first_contract.sol\":603:619  i<clients.length */\n      lt\n        /* \"contracts/first_contract.sol\":590:767  for(uint i=0;i<clients.length;i++){\r... */\n      iszero\n      tag_43\n      jumpi\n        /* \"contracts/first_contract.sol\":671:681  msg.sender */\n      caller\n        /* \"contracts/first_contract.sol\":642:681  clients[i].client_address == msg.sender */\n      0xffffffffffffffffffffffffffffffffffffffff\n      and\n        /* \"contracts/first_contract.sol\":642:649  clients */\n      0x00\n        /* \"contracts/first_contract.sol\":650:651  i */\n      dup3\n        /* \"contracts/first_contract.sol\":642:652  clients[i] */\n      dup2\n      sload\n      dup2\n      lt\n      tag_45\n      jumpi\n      tag_46\n      tag_47\n      jump\t// in\n    tag_46:\n    tag_45:\n      swap1\n      0x00\n      mstore\n      keccak256(0x00, 0x20)\n      swap1\n      0x03\n      mul\n      add\n        /* \"contracts/first_contract.sol\":642:667  clients[i].client_address */\n      0x01\n      add\n      0x00\n      swap1\n      sload\n      swap1\n      0x0100\n      exp\n      swap1\n      div\n      0xffffffffffffffffffffffffffffffffffffffff\n      and\n        /* \"contracts/first_contract.sol\":642:681  clients[i].client_address == msg.sender */\n      0xffffffffffffffffffffffffffffffffffffffff\n      and\n      eq\n        /* \"contracts/first_contract.sol\":639:756  if(clients[i].client_address == msg.sender){\r... */\n      iszero\n      tag_49\n      jumpi\n        /* \"contracts/first_contract.sol\":712:716  true */\n      0x01\n        /* \"contracts/first_contract.sol\":701:716  isClient = true */\n      swap2\n      pop\n        /* \"contracts/first_contract.sol\":735:740  break */\n      jump(tag_43)\n        /* \"contracts/first_contract.sol\":639:756  if(clients[i].client_address == msg.sender){\r... */\n    tag_49:\n        /* \"contracts/first_contract.sol\":620:623  i++ */\n      dup1\n      dup1\n      tag_50\n      swap1\n      tag_51\n      jump\t// in\n    tag_50:\n      swap2\n      pop\n      pop\n        /* \"contracts/first_contract.sol\":590:767  for(uint i=0;i<clients.length;i++){\r... */\n      jump(tag_42)\n    tag_43:\n      pop\n        /* \"contracts/first_contract.sol\":785:793  isClient */\n      dup1\n        /* \"contracts/first_contract.sol\":777:820  require(isClient, \"Only clients can call!\") */\n      tag_52\n      jumpi\n      mload(0x40)\n      0x08c379a000000000000000000000000000000000000000000000000000000000\n      dup2\n      mstore\n      0x04\n      add\n      tag_53\n      swap1\n      tag_54\n      jump\t// in\n    tag_53:\n      mload(0x40)\n      dup1\n      swap2\n      sub\n      swap1\n      revert\n    tag_52:\n        /* \"contracts/first_contract.sol\":1458:1477  address sender_temp */\n      0x00\n        /* \"contracts/first_contract.sol\":1502:1512  msg.sender */\n      caller\n        /* \"contracts/first_contract.sol\":1488:1512  sender_temp = msg.sender */\n      swap1\n      pop\n        /* \"contracts/first_contract.sol\":1528:1539  sender_temp */\n      dup1\n        /* \"contracts/first_contract.sol\":1520:1549  payable(sender_temp).transfer */\n      0xffffffffffffffffffffffffffffffffffffffff\n      and\n        /* \"contracts/first_contract.sol\":1520:1567  payable(sender_temp).transfer(amount * 1 ether) */\n      0x08fc\n        /* \"contracts/first_contract.sol\":1559:1566  1 ether */\n      0x0de0b6b3a7640000\n        /* \"contracts/first_contract.sol\":1550:1556  amount */\n      dup6\n        /* \"contracts/first_contract.sol\":1550:1566  amount * 1 ether */\n      tag_56\n      swap2\n      swap1\n      tag_57\n      jump\t// in\n    tag_56:\n        /* \"contracts/first_contract.sol\":1520:1567  payable(sender_temp).transfer(amount * 1 ether) */\n      swap1\n      dup2\n      iszero\n      mul\n      swap1\n      mload(0x40)\n      0x00\n      mload(0x40)\n      dup1\n      dup4\n      sub\n      dup2\n      dup6\n      dup9\n      dup9\n      call\n      swap4\n      pop\n      pop\n      pop\n      pop\n      iszero\n      dup1\n      iszero\n      tag_59\n      jumpi\n      returndatasize\n      0x00\n      dup1\n      returndatacopy\n      revert(0x00, returndatasize)\n    tag_59:\n      pop\n        /* \"contracts/first_contract.sol\":1447:1575  {\r... */\n      pop\n        /* \"contracts/first_contract.sol\":547:840  {\r... */\n      pop\n        /* \"contracts/first_contract.sol\":1390:1575  function withdraw(uint amount) public payable onlyClients{\r... */\n      pop\n      jump\t// out\n        /* \"contracts/first_contract.sol\":2083:2182  function getContractBalance() public view returns(uint){\r... */\n    tag_19:\n        /* \"contracts/first_contract.sol\":2133:2137  uint */\n      0x00\n        /* \"contracts/first_contract.sol\":2153:2174  address(this).balance */\n      selfbalance\n        /* \"contracts/first_contract.sol\":2146:2174  return address(this).balance */\n      swap1\n      pop\n        /* \"contracts/first_contract.sol\":2083:2182  function getContractBalance() public view returns(uint){\r... */\n      swap1\n      jump\t// out\n        /* \"contracts/first_contract.sol\":1583:2073  function sendInterest() public payable onlyManager{\r... */\n    tag_23:\n        /* \"contracts/first_contract.sol\":464:471  manager */\n      0x02\n      0x00\n      swap1\n      sload\n      swap1\n      0x0100\n      exp\n      swap1\n      div\n      0xffffffffffffffffffffffffffffffffffffffff\n      and\n        /* \"contracts/first_contract.sol\":450:471  msg.sender == manager */\n      0xffffffffffffffffffffffffffffffffffffffff\n      and\n        /* \"contracts/first_contract.sol\":450:460  msg.sender */\n      caller\n        /* \"contracts/first_contract.sol\":450:471  msg.sender == manager */\n      0xffffffffffffffffffffffffffffffffffffffff\n      and\n      eq\n        /* \"contracts/first_contract.sol\":442:498  require(msg.sender == manager, \"Only manager can call!\") */\n      tag_62\n      jumpi\n      mload(0x40)\n      0x08c379a000000000000000000000000000000000000000000000000000000000\n      dup2\n      mstore\n      0x04\n      add\n      tag_63\n      swap1\n      tag_64\n      jump\t// in\n    tag_63:\n      mload(0x40)\n      dup1\n      swap2\n      sub\n      swap1\n      revert\n    tag_62:\n        /* \"contracts/first_contract.sol\":1645:1651  uint i */\n      0x00\n        /* \"contracts/first_contract.sol\":1641:2066  for(uint i=0;i<clients.length;i++){\r... */\n    tag_66:\n        /* \"contracts/first_contract.sol\":1656:1663  clients */\n      0x00\n        /* \"contracts/first_contract.sol\":1656:1670  clients.length */\n      dup1\n      sload\n      swap1\n      pop\n        /* \"contracts/first_contract.sol\":1654:1655  i */\n      dup2\n        /* \"contracts/first_contract.sol\":1654:1670  i<clients.length */\n      lt\n        /* \"contracts/first_contract.sol\":1641:2066  for(uint i=0;i<clients.length;i++){\r... */\n      iszero\n      tag_67\n      jumpi\n        /* \"contracts/first_contract.sol\":1688:1710  address initialAddress */\n      0x00\n        /* \"contracts/first_contract.sol\":1713:1720  clients */\n      dup1\n        /* \"contracts/first_contract.sol\":1721:1722  i */\n      dup3\n        /* \"contracts/first_contract.sol\":1713:1723  clients[i] */\n      dup2\n      sload\n      dup2\n      lt\n      tag_69\n      jumpi\n      tag_70\n      tag_47\n      jump\t// in\n    tag_70:\n    tag_69:\n      swap1\n      0x00\n      mstore\n      keccak256(0x00, 0x20)\n      swap1\n      0x03\n      mul\n      add\n        /* \"contracts/first_contract.sol\":1713:1738  clients[i].client_address */\n      0x01\n      add\n      0x00\n      swap1\n      sload\n      swap1\n      0x0100\n      exp\n      swap1\n      div\n      0xffffffffffffffffffffffffffffffffffffffff\n      and\n        /* \"contracts/first_contract.sol\":1688:1738  address initialAddress = clients[i].client_address */\n      swap1\n      pop\n        /* \"contracts/first_contract.sol\":1751:1772  uint lastInterestDate */\n      0x00\n        /* \"contracts/first_contract.sol\":1775:1787  interestDate */\n      0x03\n        /* \"contracts/first_contract.sol\":1775:1803  interestDate[initialAddress] */\n      0x00\n        /* \"contracts/first_contract.sol\":1788:1802  initialAddress */\n      dup4\n        /* \"contracts/first_contract.sol\":1775:1803  interestDate[initialAddress] */\n      0xffffffffffffffffffffffffffffffffffffffff\n      and\n      0xffffffffffffffffffffffffffffffffffffffff\n      and\n      dup2\n      mstore\n      0x20\n      add\n      swap1\n      dup2\n      mstore\n      0x20\n      add\n      0x00\n      keccak256\n      sload\n        /* \"contracts/first_contract.sol\":1751:1803  uint lastInterestDate = interestDate[initialAddress] */\n      swap1\n      pop\n        /* \"contracts/first_contract.sol\":1856:1866  10 seconds */\n      0x0a\n        /* \"contracts/first_contract.sol\":1837:1853  lastInterestDate */\n      dup2\n        /* \"contracts/first_contract.sol\":1837:1866  lastInterestDate + 10 seconds */\n      tag_72\n      swap2\n      swap1\n      tag_73\n      jump\t// in\n    tag_72:\n        /* \"contracts/first_contract.sol\":1819:1834  block.timestamp */\n      timestamp\n        /* \"contracts/first_contract.sol\":1819:1866  block.timestamp < lastInterestDate + 10 seconds */\n      lt\n        /* \"contracts/first_contract.sol\":1816:1945  if(block.timestamp < lastInterestDate + 10 seconds){\r... */\n      iszero\n      tag_74\n      jumpi\n        /* \"contracts/first_contract.sol\":1885:1931  revert(\"It's just been less than 10 seconds!\") */\n      mload(0x40)\n      0x08c379a000000000000000000000000000000000000000000000000000000000\n      dup2\n      mstore\n      0x04\n      add\n      tag_75\n      swap1\n      tag_76\n      jump\t// in\n    tag_75:\n      mload(0x40)\n      dup1\n      swap2\n      sub\n      swap1\n      revert\n        /* \"contracts/first_contract.sol\":1816:1945  if(block.timestamp < lastInterestDate + 10 seconds){\r... */\n    tag_74:\n        /* \"contracts/first_contract.sol\":1965:1979  initialAddress */\n      dup2\n        /* \"contracts/first_contract.sol\":1957:1989  payable(initialAddress).transfer */\n      0xffffffffffffffffffffffffffffffffffffffff\n      and\n        /* \"contracts/first_contract.sol\":1957:1998  payable(initialAddress).transfer(1 ether) */\n      0x08fc\n        /* \"contracts/first_contract.sol\":1990:1997  1 ether */\n      0x0de0b6b3a7640000\n        /* \"contracts/first_contract.sol\":1957:1998  payable(initialAddress).transfer(1 ether) */\n      swap1\n      dup2\n      iszero\n      mul\n      swap1\n      mload(0x40)\n      0x00\n      mload(0x40)\n      dup1\n      dup4\n      sub\n      dup2\n      dup6\n      dup9\n      dup9\n      call\n      swap4\n      pop\n      pop\n      pop\n      pop\n      iszero\n      dup1\n      iszero\n      tag_78\n      jumpi\n      returndatasize\n      0x00\n      dup1\n      returndatacopy\n      revert(0x00, returndatasize)\n    tag_78:\n      pop\n        /* \"contracts/first_contract.sol\":2042:2057  block.timestamp */\n      timestamp\n        /* \"contracts/first_contract.sol\":2011:2023  interestDate */\n      0x03\n        /* \"contracts/first_contract.sol\":2011:2039  interestDate[initialAddress] */\n      0x00\n        /* \"contracts/first_contract.sol\":2024:2038  initialAddress */\n      dup5\n        /* \"contracts/first_contract.sol\":2011:2039  interestDate[initialAddress] */\n      0xffffffffffffffffffffffffffffffffffffffff\n      and\n      0xffffffffffffffffffffffffffffffffffffffff\n      and\n      dup2\n      mstore\n      0x20\n      add\n      swap1\n      dup2\n      mstore\n      0x20\n      add\n      0x00\n      keccak256\n        /* \"contracts/first_contract.sol\":2011:2057  interestDate[initialAddress] = block.timestamp */\n      dup2\n      swap1\n      sstore\n      pop\n        /* \"contracts/first_contract.sol\":1675:2066  {\r... */\n      pop\n      pop\n        /* \"contracts/first_contract.sol\":1671:1674  i++ */\n      dup1\n      dup1\n      tag_79\n      swap1\n      tag_51\n      jump\t// in\n    tag_79:\n      swap2\n      pop\n      pop\n        /* \"contracts/first_contract.sol\":1641:2066  for(uint i=0;i<clients.length;i++){\r... */\n      jump(tag_66)\n    tag_67:\n      pop\n        /* \"contracts/first_contract.sol\":1583:2073  function sendInterest() public payable onlyManager{\r... */\n      jump\t// out\n        /* \"contracts/first_contract.sol\":1039:1269  function joinAsClient() public payable returns(string memory){\r... */\n    tag_25:\n        /* \"contracts/first_contract.sol\":1086:1099  string memory */\n      0x60\n        /* \"contracts/first_contract.sol\":1135:1150  block.timestamp */\n      timestamp\n        /* \"contracts/first_contract.sol\":1108:1120  interestDate */\n      0x03\n        /* \"contracts/first_contract.sol\":1108:1132  interestDate[msg.sender] */\n      0x00\n        /* \"contracts/first_contract.sol\":1121:1131  msg.sender */\n      caller\n        /* \"contracts/first_contract.sol\":1108:1132  interestDate[msg.sender] */\n      0xffffffffffffffffffffffffffffffffffffffff\n      and\n      0xffffffffffffffffffffffffffffffffffffffff\n      and\n      dup2\n      mstore\n      0x20\n      add\n      swap1\n      dup2\n      mstore\n      0x20\n      add\n      0x00\n      keccak256\n        /* \"contracts/first_contract.sol\":1108:1150  interestDate[msg.sender] = block.timestamp */\n      dup2\n      swap1\n      sstore\n      pop\n        /* \"contracts/first_contract.sol\":1158:1165  clients */\n      0x00\n        /* \"contracts/first_contract.sol\":1171:1243  client_account(clientCounter++, msg.sender, address(msg.sender).balance) */\n      mload(0x40)\n      dup1\n      0x60\n      add\n      0x40\n      mstore\n      dup1\n        /* \"contracts/first_contract.sol\":1186:1199  clientCounter */\n      0x01\n      0x00\n        /* \"contracts/first_contract.sol\":1186:1201  clientCounter++ */\n      dup2\n      sload\n      dup1\n      swap3\n      swap2\n      swap1\n      tag_81\n      swap1\n      tag_82\n      jump\t// in\n    tag_81:\n      swap2\n      swap1\n      pop\n      sstore\n        /* \"contracts/first_contract.sol\":1171:1243  client_account(clientCounter++, msg.sender, address(msg.sender).balance) */\n      dup2\n      mstore\n      0x20\n      add\n        /* \"contracts/first_contract.sol\":1203:1213  msg.sender */\n      caller\n        /* \"contracts/first_contract.sol\":1171:1243  client_account(clientCounter++, msg.sender, address(msg.sender).balance) */\n      0xffffffffffffffffffffffffffffffffffffffff\n      and\n      dup2\n      mstore\n      0x20\n      add\n        /* \"contracts/first_contract.sol\":1223:1233  msg.sender */\n      caller\n        /* \"contracts/first_contract.sol\":1215:1242  address(msg.sender).balance */\n      0xffffffffffffffffffffffffffffffffffffffff\n      and\n      balance\n        /* \"contracts/first_contract.sol\":1171:1243  client_account(clientCounter++, msg.sender, address(msg.sender).balance) */\n      dup2\n      mstore\n      pop\n        /* \"contracts/first_contract.sol\":1158:1244  clients.push(client_account(clientCounter++, msg.sender, address(msg.sender).balance)) */\n      swap1\n      dup1\n      0x01\n      dup2\n      sload\n      add\n      dup1\n      dup3\n      sstore\n      dup1\n      swap2\n      pop\n      pop\n      0x01\n      swap1\n      sub\n      swap1\n      0x00\n      mstore\n      keccak256(0x00, 0x20)\n      swap1\n      0x03\n      mul\n      add\n      0x00\n      swap1\n      swap2\n      swap1\n      swap2\n      swap1\n      swap2\n      pop\n      0x00\n      dup3\n      add\n      mload\n      dup2\n      0x00\n      add\n      sstore\n      0x20\n      dup3\n      add\n      mload\n      dup2\n      0x01\n      add\n      exp(0x0100, 0x00)\n      dup2\n      sload\n      dup2\n      0xffffffffffffffffffffffffffffffffffffffff\n      mul\n      not\n      and\n      swap1\n      dup4\n      0xffffffffffffffffffffffffffffffffffffffff\n      and\n      mul\n      or\n      swap1\n      sstore\n      pop\n      0x40\n      dup3\n      add\n      mload\n      dup2\n      0x02\n      add\n      sstore\n      pop\n      pop\n        /* \"contracts/first_contract.sol\":1252:1261  return \"\" */\n      mload(0x40)\n      dup1\n      0x20\n      add\n      0x40\n      mstore\n      dup1\n      0x00\n      dup2\n      mstore\n      pop\n      swap1\n      pop\n        /* \"contracts/first_contract.sol\":1039:1269  function joinAsClient() public payable returns(string memory){\r... */\n      swap1\n      jump\t// out\n        /* \"contracts/first_contract.sol\":1279:1382  function deposit() public payable onlyClients{\r... */\n    tag_29:\n        /* \"contracts/first_contract.sol\":558:571  bool isClient */\n      0x00\n        /* \"contracts/first_contract.sol\":594:600  uint i */\n      dup1\n        /* \"contracts/first_contract.sol\":590:767  for(uint i=0;i<clients.length;i++){\r... */\n    tag_85:\n        /* \"contracts/first_contract.sol\":605:612  clients */\n      0x00\n        /* \"contracts/first_contract.sol\":605:619  clients.length */\n      dup1\n      sload\n      swap1\n      pop\n        /* \"contracts/first_contract.sol\":603:604  i */\n      dup2\n        /* \"contracts/first_contract.sol\":603:619  i<clients.length */\n      lt\n        /* \"contracts/first_contract.sol\":590:767  for(uint i=0;i<clients.length;i++){\r... */\n      iszero\n      tag_86\n      jumpi\n        /* \"contracts/first_contract.sol\":671:681  msg.sender */\n      caller\n        /* \"contracts/first_contract.sol\":642:681  clients[i].client_address == msg.sender */\n      0xffffffffffffffffffffffffffffffffffffffff\n      and\n        /* \"contracts/first_contract.sol\":642:649  clients */\n      0x00\n        /* \"contracts/first_contract.sol\":650:651  i */\n      dup3\n        /* \"contracts/first_contract.sol\":642:652  clients[i] */\n      dup2\n      sload\n      dup2\n      lt\n      tag_88\n      jumpi\n      tag_89\n      tag_47\n      jump\t// in\n    tag_89:\n    tag_88:\n      swap1\n      0x00\n      mstore\n      keccak256(0x00, 0x20)\n      swap1\n      0x03\n      mul\n      add\n        /* \"contracts/first_contract.sol\":642:667  clients[i].client_address */\n      0x01\n      add\n      0x00\n      swap1\n      sload\n      swap1\n      0x0100\n      exp\n      swap1\n      div\n      0xffffffffffffffffffffffffffffffffffffffff\n      and\n        /* \"contracts/first_contract.sol\":642:681  clients[i].client_address == msg.sender */\n      0xffffffffffffffffffffffffffffffffffffffff\n      and\n      eq\n        /* \"contracts/first_contract.sol\":639:756  if(clients[i].client_address == msg.sender){\r... */\n      iszero\n      tag_91\n      jumpi\n        /* \"contracts/first_contract.sol\":712:716  true */\n      0x01\n        /* \"contracts/first_contract.sol\":701:716  isClient = true */\n      swap2\n      pop\n        /* \"contracts/first_contract.sol\":735:740  break */\n      jump(tag_86)\n        /* \"contracts/first_contract.sol\":639:756  if(clients[i].client_address == msg.sender){\r... */\n    tag_91:\n        /* \"contracts/first_contract.sol\":620:623  i++ */\n      dup1\n      dup1\n      tag_92\n      swap1\n      tag_51\n      jump\t// in\n    tag_92:\n      swap2\n      pop\n      pop\n        /* \"contracts/first_contract.sol\":590:767  for(uint i=0;i<clients.length;i++){\r... */\n      jump(tag_85)\n    tag_86:\n      pop\n        /* \"contracts/first_contract.sol\":785:793  isClient */\n      dup1\n        /* \"contracts/first_contract.sol\":777:820  require(isClient, \"Only clients can call!\") */\n      tag_93\n      jumpi\n      mload(0x40)\n      0x08c379a000000000000000000000000000000000000000000000000000000000\n      dup2\n      mstore\n      0x04\n      add\n      tag_94\n      swap1\n      tag_54\n      jump\t// in\n    tag_94:\n      mload(0x40)\n      dup1\n      swap2\n      sub\n      swap1\n      revert\n    tag_93:\n        /* \"contracts/first_contract.sol\":1348:1352  this */\n      address\n        /* \"contracts/first_contract.sol\":1332:1363  payable(address(this)).transfer */\n      0xffffffffffffffffffffffffffffffffffffffff\n      and\n        /* \"contracts/first_contract.sol\":1332:1374  payable(address(this)).transfer(msg.value) */\n      0x08fc\n        /* \"contracts/first_contract.sol\":1364:1373  msg.value */\n      callvalue\n        /* \"contracts/first_contract.sol\":1332:1374  payable(address(this)).transfer(msg.value) */\n      swap1\n      dup2\n      iszero\n      mul\n      swap1\n      mload(0x40)\n      0x00\n      mload(0x40)\n      dup1\n      dup4\n      sub\n      dup2\n      dup6\n      dup9\n      dup9\n      call\n      swap4\n      pop\n      pop\n      pop\n      pop\n      iszero\n      dup1\n      iszero\n      tag_97\n      jumpi\n      returndatasize\n      0x00\n      dup1\n      returndatacopy\n      revert(0x00, returndatasize)\n    tag_97:\n      pop\n        /* \"contracts/first_contract.sol\":547:840  {\r... */\n      pop\n        /* \"contracts/first_contract.sol\":1279:1382  function deposit() public payable onlyClients{\r... */\n      jump\t// out\n        /* \"contracts/first_contract.sol\":892:1031  function setManager(address managerAddress) public returns(string memory){\r... */\n    tag_34:\n        /* \"contracts/first_contract.sol\":951:964  string memory */\n      0x60\n        /* \"contracts/first_contract.sol\":991:1005  managerAddress */\n      dup2\n        /* \"contracts/first_contract.sol\":973:980  manager */\n      0x02\n      0x00\n        /* \"contracts/first_contract.sol\":973:1006  manager = payable(managerAddress) */\n      0x0100\n      exp\n      dup2\n      sload\n      dup2\n      0xffffffffffffffffffffffffffffffffffffffff\n      mul\n      not\n      and\n      swap1\n      dup4\n      0xffffffffffffffffffffffffffffffffffffffff\n      and\n      mul\n      or\n      swap1\n      sstore\n      pop\n        /* \"contracts/first_contract.sol\":1014:1023  return \"\" */\n      mload(0x40)\n      dup1\n      0x20\n      add\n      0x40\n      mstore\n      dup1\n      0x00\n      dup2\n      mstore\n      pop\n      swap1\n      pop\n        /* \"contracts/first_contract.sol\":892:1031  function setManager(address managerAddress) public returns(string memory){\r... */\n      swap2\n      swap1\n      pop\n      jump\t// out\n        /* \"contracts/first_contract.sol\":289:333  mapping(address => uint) public interestDate */\n    tag_39:\n      mstore(0x20, 0x03)\n      dup1\n      0x00\n      mstore\n      keccak256(0x00, 0x40)\n      0x00\n      swap2\n      pop\n      swap1\n      pop\n      sload\n      dup2\n      jump\t// out\n        /* \"#utility.yul\":7:146   */\n    tag_100:\n        /* \"#utility.yul\":53:58   */\n      0x00\n        /* \"#utility.yul\":91:97   */\n      dup2\n        /* \"#utility.yul\":78:98   */\n      calldataload\n        /* \"#utility.yul\":69:98   */\n      swap1\n      pop\n        /* \"#utility.yul\":107:140   */\n      tag_102\n        /* \"#utility.yul\":134:139   */\n      dup2\n        /* \"#utility.yul\":107:140   */\n      tag_103\n      jump\t// in\n    tag_102:\n        /* \"#utility.yul\":7:146   */\n      swap3\n      swap2\n      pop\n      pop\n      jump\t// out\n        /* \"#utility.yul\":152:291   */\n    tag_104:\n        /* \"#utility.yul\":198:203   */\n      0x00\n        /* \"#utility.yul\":236:242   */\n      dup2\n        /* \"#utility.yul\":223:243   */\n      calldataload\n        /* \"#utility.yul\":214:243   */\n      swap1\n      pop\n        /* \"#utility.yul\":252:285   */\n      tag_106\n        /* \"#utility.yul\":279:284   */\n      dup2\n        /* \"#utility.yul\":252:285   */\n      tag_107\n      jump\t// in\n    tag_106:\n        /* \"#utility.yul\":152:291   */\n      swap3\n      swap2\n      pop\n      pop\n      jump\t// out\n        /* \"#utility.yul\":297:626   */\n    tag_33:\n        /* \"#utility.yul\":356:362   */\n      0x00\n        /* \"#utility.yul\":405:407   */\n      0x20\n        /* \"#utility.yul\":393:402   */\n      dup3\n        /* \"#utility.yul\":384:391   */\n      dup5\n        /* \"#utility.yul\":380:403   */\n      sub\n        /* \"#utility.yul\":376:408   */\n      slt\n        /* \"#utility.yul\":373:492   */\n      iszero\n      tag_109\n      jumpi\n        /* \"#utility.yul\":411:490   */\n      tag_110\n      tag_111\n      jump\t// in\n    tag_110:\n        /* \"#utility.yul\":373:492   */\n    tag_109:\n        /* \"#utility.yul\":531:532   */\n      0x00\n        /* \"#utility.yul\":556:609   */\n      tag_112\n        /* \"#utility.yul\":601:608   */\n      dup5\n        /* \"#utility.yul\":592:598   */\n      dup3\n        /* \"#utility.yul\":581:590   */\n      dup6\n        /* \"#utility.yul\":577:599   */\n      add\n        /* \"#utility.yul\":556:609   */\n      tag_100\n      jump\t// in\n    tag_112:\n        /* \"#utility.yul\":546:609   */\n      swap2\n      pop\n        /* \"#utility.yul\":502:619   */\n      pop\n        /* \"#utility.yul\":297:626   */\n      swap3\n      swap2\n      pop\n      pop\n      jump\t// out\n        /* \"#utility.yul\":632:961   */\n    tag_15:\n        /* \"#utility.yul\":691:697   */\n      0x00\n        /* \"#utility.yul\":740:742   */\n      0x20\n        /* \"#utility.yul\":728:737   */\n      dup3\n        /* \"#utility.yul\":719:726   */\n      dup5\n        /* \"#utility.yul\":715:738   */\n      sub\n        /* \"#utility.yul\":711:743   */\n      slt\n        /* \"#utility.yul\":708:827   */\n      iszero\n      tag_114\n      jumpi\n        /* \"#utility.yul\":746:825   */\n      tag_115\n      tag_111\n      jump\t// in\n    tag_115:\n        /* \"#utility.yul\":708:827   */\n    tag_114:\n        /* \"#utility.yul\":866:867   */\n      0x00\n        /* \"#utility.yul\":891:944   */\n      tag_116\n        /* \"#utility.yul\":936:943   */\n      dup5\n        /* \"#utility.yul\":927:933   */\n      dup3\n        /* \"#utility.yul\":916:925   */\n      dup6\n        /* \"#utility.yul\":912:934   */\n      add\n        /* \"#utility.yul\":891:944   */\n      tag_104\n      jump\t// in\n    tag_116:\n        /* \"#utility.yul\":881:944   */\n      swap2\n      pop\n        /* \"#utility.yul\":837:954   */\n      pop\n        /* \"#utility.yul\":632:961   */\n      swap3\n      swap2\n      pop\n      pop\n      jump\t// out\n        /* \"#utility.yul\":967:1331   */\n    tag_117:\n        /* \"#utility.yul\":1055:1058   */\n      0x00\n        /* \"#utility.yul\":1083:1122   */\n      tag_119\n        /* \"#utility.yul\":1116:1121   */\n      dup3\n        /* \"#utility.yul\":1083:1122   */\n      tag_120\n      jump\t// in\n    tag_119:\n        /* \"#utility.yul\":1138:1209   */\n      tag_121\n        /* \"#utility.yul\":1202:1208   */\n      dup2\n        /* \"#utility.yul\":1197:1200   */\n      dup6\n        /* \"#utility.yul\":1138:1209   */\n      tag_122\n      jump\t// in\n    tag_121:\n        /* \"#utility.yul\":1131:1209   */\n      swap4\n      pop\n        /* \"#utility.yul\":1218:1270   */\n      tag_123\n        /* \"#utility.yul\":1263:1269   */\n      dup2\n        /* \"#utility.yul\":1258:1261   */\n      dup6\n        /* \"#utility.yul\":1251:1255   */\n      0x20\n        /* \"#utility.yul\":1244:1249   */\n      dup7\n        /* \"#utility.yul\":1240:1256   */\n      add\n        /* \"#utility.yul\":1218:1270   */\n      tag_124\n      jump\t// in\n    tag_123:\n        /* \"#utility.yul\":1295:1324   */\n      tag_125\n        /* \"#utility.yul\":1317:1323   */\n      dup2\n        /* \"#utility.yul\":1295:1324   */\n      tag_126\n      jump\t// in\n    tag_125:\n        /* \"#utility.yul\":1290:1293   */\n      dup5\n        /* \"#utility.yul\":1286:1325   */\n      add\n        /* \"#utility.yul\":1279:1325   */\n      swap2\n      pop\n        /* \"#utility.yul\":1059:1331   */\n      pop\n        /* \"#utility.yul\":967:1331   */\n      swap3\n      swap2\n      pop\n      pop\n      jump\t// out\n        /* \"#utility.yul\":1337:1703   */\n    tag_127:\n        /* \"#utility.yul\":1479:1482   */\n      0x00\n        /* \"#utility.yul\":1500:1567   */\n      tag_129\n        /* \"#utility.yul\":1564:1566   */\n      0x16\n        /* \"#utility.yul\":1559:1562   */\n      dup4\n        /* \"#utility.yul\":1500:1567   */\n      tag_122\n      jump\t// in\n    tag_129:\n        /* \"#utility.yul\":1493:1567   */\n      swap2\n      pop\n        /* \"#utility.yul\":1576:1669   */\n      tag_130\n        /* \"#utility.yul\":1665:1668   */\n      dup3\n        /* \"#utility.yul\":1576:1669   */\n      tag_131\n      jump\t// in\n    tag_130:\n        /* \"#utility.yul\":1694:1696   */\n      0x20\n        /* \"#utility.yul\":1689:1692   */\n      dup3\n        /* \"#utility.yul\":1685:1697   */\n      add\n        /* \"#utility.yul\":1678:1697   */\n      swap1\n      pop\n        /* \"#utility.yul\":1337:1703   */\n      swap2\n      swap1\n      pop\n      jump\t// out\n        /* \"#utility.yul\":1709:2075   */\n    tag_132:\n        /* \"#utility.yul\":1851:1854   */\n      0x00\n        /* \"#utility.yul\":1872:1939   */\n      tag_134\n        /* \"#utility.yul\":1936:1938   */\n      0x24\n        /* \"#utility.yul\":1931:1934   */\n      dup4\n        /* \"#utility.yul\":1872:1939   */\n      tag_122\n      jump\t// in\n    tag_134:\n        /* \"#utility.yul\":1865:1939   */\n      swap2\n      pop\n        /* \"#utility.yul\":1948:2041   */\n      tag_135\n        /* \"#utility.yul\":2037:2040   */\n      dup3\n        /* \"#utility.yul\":1948:2041   */\n      tag_136\n      jump\t// in\n    tag_135:\n        /* \"#utility.yul\":2066:2068   */\n      0x40\n        /* \"#utility.yul\":2061:2064   */\n      dup3\n        /* \"#utility.yul\":2057:2069   */\n      add\n        /* \"#utility.yul\":2050:2069   */\n      swap1\n      pop\n        /* \"#utility.yul\":1709:2075   */\n      swap2\n      swap1\n      pop\n      jump\t// out\n        /* \"#utility.yul\":2081:2447   */\n    tag_137:\n        /* \"#utility.yul\":2223:2226   */\n      0x00\n        /* \"#utility.yul\":2244:2311   */\n      tag_139\n        /* \"#utility.yul\":2308:2310   */\n      0x16\n        /* \"#utility.yul\":2303:2306   */\n      dup4\n        /* \"#utility.yul\":2244:2311   */\n      tag_122\n      jump\t// in\n    tag_139:\n        /* \"#utility.yul\":2237:2311   */\n      swap2\n      pop\n        /* \"#utility.yul\":2320:2413   */\n      tag_140\n        /* \"#utility.yul\":2409:2412   */\n      dup3\n        /* \"#utility.yul\":2320:2413   */\n      tag_141\n      jump\t// in\n    tag_140:\n        /* \"#utility.yul\":2438:2440   */\n      0x20\n        /* \"#utility.yul\":2433:2436   */\n      dup3\n        /* \"#utility.yul\":2429:2441   */\n      add\n        /* \"#utility.yul\":2422:2441   */\n      swap1\n      pop\n        /* \"#utility.yul\":2081:2447   */\n      swap2\n      swap1\n      pop\n      jump\t// out\n        /* \"#utility.yul\":2453:2571   */\n    tag_142:\n        /* \"#utility.yul\":2540:2564   */\n      tag_144\n        /* \"#utility.yul\":2558:2563   */\n      dup2\n        /* \"#utility.yul\":2540:2564   */\n      tag_145\n      jump\t// in\n    tag_144:\n        /* \"#utility.yul\":2535:2538   */\n      dup3\n        /* \"#utility.yul\":2528:2565   */\n      mstore\n        /* \"#utility.yul\":2453:2571   */\n      pop\n      pop\n      jump\t// out\n        /* \"#utility.yul\":2577:2890   */\n    tag_27:\n        /* \"#utility.yul\":2690:2694   */\n      0x00\n        /* \"#utility.yul\":2728:2730   */\n      0x20\n        /* \"#utility.yul\":2717:2726   */\n      dup3\n        /* \"#utility.yul\":2713:2731   */\n      add\n        /* \"#utility.yul\":2705:2731   */\n      swap1\n      pop\n        /* \"#utility.yul\":2777:2786   */\n      dup2\n        /* \"#utility.yul\":2771:2775   */\n      dup2\n        /* \"#utility.yul\":2767:2787   */\n      sub\n        /* \"#utility.yul\":2763:2764   */\n      0x00\n        /* \"#utility.yul\":2752:2761   */\n      dup4\n        /* \"#utility.yul\":2748:2765   */\n      add\n        /* \"#utility.yul\":2741:2788   */\n      mstore\n        /* \"#utility.yul\":2805:2883   */\n      tag_147\n        /* \"#utility.yul\":2878:2882   */\n      dup2\n        /* \"#utility.yul\":2869:2875   */\n      dup5\n        /* \"#utility.yul\":2805:2883   */\n      tag_117\n      jump\t// in\n    tag_147:\n        /* \"#utility.yul\":2797:2883   */\n      swap1\n      pop\n        /* \"#utility.yul\":2577:2890   */\n      swap3\n      swap2\n      pop\n      pop\n      jump\t// out\n        /* \"#utility.yul\":2896:3315   */\n    tag_64:\n        /* \"#utility.yul\":3062:3066   */\n      0x00\n        /* \"#utility.yul\":3100:3102   */\n      0x20\n        /* \"#utility.yul\":3089:3098   */\n      dup3\n        /* \"#utility.yul\":3085:3103   */\n      add\n        /* \"#utility.yul\":3077:3103   */\n      swap1\n      pop\n        /* \"#utility.yul\":3149:3158   */\n      dup2\n        /* \"#utility.yul\":3143:3147   */\n      dup2\n        /* \"#utility.yul\":3139:3159   */\n      sub\n        /* \"#utility.yul\":3135:3136   */\n      0x00\n        /* \"#utility.yul\":3124:3133   */\n      dup4\n        /* \"#utility.yul\":3120:3137   */\n      add\n        /* \"#utility.yul\":3113:3160   */\n      mstore\n        /* \"#utility.yul\":3177:3308   */\n      tag_149\n        /* \"#utility.yul\":3303:3307   */\n      dup2\n        /* \"#utility.yul\":3177:3308   */\n      tag_127\n      jump\t// in\n    tag_149:\n        /* \"#utility.yul\":3169:3308   */\n      swap1\n      pop\n        /* \"#utility.yul\":2896:3315   */\n      swap2\n      swap1\n      pop\n      jump\t// out\n        /* \"#utility.yul\":3321:3740   */\n    tag_76:\n        /* \"#utility.yul\":3487:3491   */\n      0x00\n        /* \"#utility.yul\":3525:3527   */\n      0x20\n        /* \"#utility.yul\":3514:3523   */\n      dup3\n        /* \"#utility.yul\":3510:3528   */\n      add\n        /* \"#utility.yul\":3502:3528   */\n      swap1\n      pop\n        /* \"#utility.yul\":3574:3583   */\n      dup2\n        /* \"#utility.yul\":3568:3572   */\n      dup2\n        /* \"#utility.yul\":3564:3584   */\n      sub\n        /* \"#utility.yul\":3560:3561   */\n      0x00\n        /* \"#utility.yul\":3549:3558   */\n      dup4\n        /* \"#utility.yul\":3545:3562   */\n      add\n        /* \"#utility.yul\":3538:3585   */\n      mstore\n        /* \"#utility.yul\":3602:3733   */\n      tag_151\n        /* \"#utility.yul\":3728:3732   */\n      dup2\n        /* \"#utility.yul\":3602:3733   */\n      tag_132\n      jump\t// in\n    tag_151:\n        /* \"#utility.yul\":3594:3733   */\n      swap1\n      pop\n        /* \"#utility.yul\":3321:3740   */\n      swap2\n      swap1\n      pop\n      jump\t// out\n        /* \"#utility.yul\":3746:4165   */\n    tag_54:\n        /* \"#utility.yul\":3912:3916   */\n      0x00\n        /* \"#utility.yul\":3950:3952   */\n      0x20\n        /* \"#utility.yul\":3939:3948   */\n      dup3\n        /* \"#utility.yul\":3935:3953   */\n      add\n        /* \"#utility.yul\":3927:3953   */\n      swap1\n      pop\n        /* \"#utility.yul\":3999:4008   */\n      dup2\n        /* \"#utility.yul\":3993:3997   */\n      dup2\n        /* \"#utility.yul\":3989:4009   */\n      sub\n        /* \"#utility.yul\":3985:3986   */\n      0x00\n        /* \"#utility.yul\":3974:3983   */\n      dup4\n        /* \"#utility.yul\":3970:3987   */\n      add\n        /* \"#utility.yul\":3963:4010   */\n      mstore\n        /* \"#utility.yul\":4027:4158   */\n      tag_153\n        /* \"#utility.yul\":4153:4157   */\n      dup2\n        /* \"#utility.yul\":4027:4158   */\n      tag_137\n      jump\t// in\n    tag_153:\n        /* \"#utility.yul\":4019:4158   */\n      swap1\n      pop\n        /* \"#utility.yul\":3746:4165   */\n      swap2\n      swap1\n      pop\n      jump\t// out\n        /* \"#utility.yul\":4171:4393   */\n    tag_21:\n        /* \"#utility.yul\":4264:4268   */\n      0x00\n        /* \"#utility.yul\":4302:4304   */\n      0x20\n        /* \"#utility.yul\":4291:4300   */\n      dup3\n        /* \"#utility.yul\":4287:4305   */\n      add\n        /* \"#utility.yul\":4279:4305   */\n      swap1\n      pop\n        /* \"#utility.yul\":4315:4386   */\n      tag_155\n        /* \"#utility.yul\":4383:4384   */\n      0x00\n        /* \"#utility.yul\":4372:4381   */\n      dup4\n        /* \"#utility.yul\":4368:4385   */\n      add\n        /* \"#utility.yul\":4359:4365   */\n      dup5\n        /* \"#utility.yul\":4315:4386   */\n      tag_142\n      jump\t// in\n    tag_155:\n        /* \"#utility.yul\":4171:4393   */\n      swap3\n      swap2\n      pop\n      pop\n      jump\t// out\n        /* \"#utility.yul\":4480:4579   */\n    tag_120:\n        /* \"#utility.yul\":4532:4538   */\n      0x00\n        /* \"#utility.yul\":4566:4571   */\n      dup2\n        /* \"#utility.yul\":4560:4572   */\n      mload\n        /* \"#utility.yul\":4550:4572   */\n      swap1\n      pop\n        /* \"#utility.yul\":4480:4579   */\n      swap2\n      swap1\n      pop\n      jump\t// out\n        /* \"#utility.yul\":4585:4754   */\n    tag_122:\n        /* \"#utility.yul\":4669:4680   */\n      0x00\n        /* \"#utility.yul\":4703:4709   */\n      dup3\n        /* \"#utility.yul\":4698:4701   */\n      dup3\n        /* \"#utility.yul\":4691:4710   */\n      mstore\n        /* \"#utility.yul\":4743:4747   */\n      0x20\n        /* \"#utility.yul\":4738:4741   */\n      dup3\n        /* \"#utility.yul\":4734:4748   */\n      add\n        /* \"#utility.yul\":4719:4748   */\n      swap1\n      pop\n        /* \"#utility.yul\":4585:4754   */\n      swap3\n      swap2\n      pop\n      pop\n      jump\t// out\n        /* \"#utility.yul\":4760:5065   */\n    tag_73:\n        /* \"#utility.yul\":4800:4803   */\n      0x00\n        /* \"#utility.yul\":4819:4839   */\n      tag_161\n        /* \"#utility.yul\":4837:4838   */\n      dup3\n        /* \"#utility.yul\":4819:4839   */\n      tag_145\n      jump\t// in\n    tag_161:\n        /* \"#utility.yul\":4814:4839   */\n      swap2\n      pop\n        /* \"#utility.yul\":4853:4873   */\n      tag_162\n        /* \"#utility.yul\":4871:4872   */\n      dup4\n        /* \"#utility.yul\":4853:4873   */\n      tag_145\n      jump\t// in\n    tag_162:\n        /* \"#utility.yul\":4848:4873   */\n      swap3\n      pop\n        /* \"#utility.yul\":5007:5008   */\n      dup3\n        /* \"#utility.yul\":4939:5005   */\n      0xffffffffffffffffffffffffffffffffffffffffffffffffffffffffffffffff\n        /* \"#utility.yul\":4935:5009   */\n      sub\n        /* \"#utility.yul\":4932:4933   */\n      dup3\n        /* \"#utility.yul\":4929:5010   */\n      gt\n        /* \"#utility.yul\":4926:5033   */\n      iszero\n      tag_163\n      jumpi\n        /* \"#utility.yul\":5013:5031   */\n      tag_164\n      tag_165\n      jump\t// in\n    tag_164:\n        /* \"#utility.yul\":4926:5033   */\n    tag_163:\n        /* \"#utility.yul\":5057:5058   */\n      dup3\n        /* \"#utility.yul\":5054:5055   */\n      dup3\n        /* \"#utility.yul\":5050:5059   */\n      add\n        /* \"#utility.yul\":5043:5059   */\n      swap1\n      pop\n        /* \"#utility.yul\":4760:5065   */\n      swap3\n      swap2\n      pop\n      pop\n      jump\t// out\n        /* \"#utility.yul\":5071:5419   */\n    tag_57:\n        /* \"#utility.yul\":5111:5118   */\n      0x00\n        /* \"#utility.yul\":5134:5154   */\n      tag_167\n        /* \"#utility.yul\":5152:5153   */\n      dup3\n        /* \"#utility.yul\":5134:5154   */\n      tag_145\n      jump\t// in\n    tag_167:\n        /* \"#utility.yul\":5129:5154   */\n      swap2\n      pop\n        /* \"#utility.yul\":5168:5188   */\n      tag_168\n        /* \"#utility.yul\":5186:5187   */\n      dup4\n        /* \"#utility.yul\":5168:5188   */\n      tag_145\n      jump\t// in\n    tag_168:\n        /* \"#utility.yul\":5163:5188   */\n      swap3\n      pop\n        /* \"#utility.yul\":5356:5357   */\n      dup2\n        /* \"#utility.yul\":5288:5354   */\n      0xffffffffffffffffffffffffffffffffffffffffffffffffffffffffffffffff\n        /* \"#utility.yul\":5284:5358   */\n      div\n        /* \"#utility.yul\":5281:5282   */\n      dup4\n        /* \"#utility.yul\":5278:5359   */\n      gt\n        /* \"#utility.yul\":5273:5274   */\n      dup3\n        /* \"#utility.yul\":5266:5275   */\n      iszero\n        /* \"#utility.yul\":5259:5276   */\n      iszero\n        /* \"#utility.yul\":5255:5360   */\n      and\n        /* \"#utility.yul\":5252:5383   */\n      iszero\n      tag_169\n      jumpi\n        /* \"#utility.yul\":5363:5381   */\n      tag_170\n      tag_165\n      jump\t// in\n    tag_170:\n        /* \"#utility.yul\":5252:5383   */\n    tag_169:\n        /* \"#utility.yul\":5411:5412   */\n      dup3\n        /* \"#utility.yul\":5408:5409   */\n      dup3\n        /* \"#utility.yul\":5404:5413   */\n      mul\n        /* \"#utility.yul\":5393:5413   */\n      swap1\n      pop\n        /* \"#utility.yul\":5071:5419   */\n      swap3\n      swap2\n      pop\n      pop\n      jump\t// out\n        /* \"#utility.yul\":5425:5521   */\n    tag_171:\n        /* \"#utility.yul\":5462:5469   */\n      0x00\n        /* \"#utility.yul\":5491:5515   */\n      tag_173\n        /* \"#utility.yul\":5509:5514   */\n      dup3\n        /* \"#utility.yul\":5491:5515   */\n      tag_174\n      jump\t// in\n    tag_173:\n        /* \"#utility.yul\":5480:5515   */\n      swap1\n      pop\n        /* \"#utility.yul\":5425:5521   */\n      swap2\n      swap1\n      pop\n      jump\t// out\n        /* \"#utility.yul\":5527:5603   */\n    tag_175:\n        /* \"#utility.yul\":5563:5570   */\n      0x00\n        /* \"#utility.yul\":5592:5597   */\n      dup2\n        /* \"#utility.yul\":5581:5597   */\n      swap1\n      pop\n        /* \"#utility.yul\":5527:5603   */\n      swap2\n      swap1\n      pop\n      jump\t// out\n        /* \"#utility.yul\":5609:5735   */\n    tag_174:\n        /* \"#utility.yul\":5646:5653   */\n      0x00\n        /* \"#utility.yul\":5686:5728   */\n      0xffffffffffffffffffffffffffffffffffffffff\n        /* \"#utility.yul\":5679:5684   */\n      dup3\n        /* \"#utility.yul\":5675:5729   */\n      and\n        /* \"#utility.yul\":5664:5729   */\n      swap1\n      pop\n        /* \"#utility.yul\":5609:5735   */\n      swap2\n      swap1\n      pop\n      jump\t// out\n        /* \"#utility.yul\":5741:5818   */\n    tag_145:\n        /* \"#utility.yul\":5778:5785   */\n      0x00\n        /* \"#utility.yul\":5807:5812   */\n      dup2\n        /* \"#utility.yul\":5796:5812   */\n      swap1\n      pop\n        /* \"#utility.yul\":5741:5818   */\n      swap2\n      swap1\n      pop\n      jump\t// out\n        /* \"#utility.yul\":5824:6131   */\n    tag_124:\n        /* \"#utility.yul\":5892:5893   */\n      0x00\n        /* \"#utility.yul\":5902:6015   */\n    tag_180:\n        /* \"#utility.yul\":5916:5922   */\n      dup4\n        /* \"#utility.yul\":5913:5914   */\n      dup2\n        /* \"#utility.yul\":5910:5923   */\n      lt\n        /* \"#utility.yul\":5902:6015   */\n      iszero\n      tag_182\n      jumpi\n        /* \"#utility.yul\":6001:6002   */\n      dup1\n        /* \"#utility.yul\":5996:5999   */\n      dup3\n        /* \"#utility.yul\":5992:6003   */\n      add\n        /* \"#utility.yul\":5986:6004   */\n      mload\n        /* \"#utility.yul\":5982:5983   */\n      dup2\n        /* \"#utility.yul\":5977:5980   */\n      dup5\n        /* \"#utility.yul\":5973:5984   */\n      add\n        /* \"#utility.yul\":5966:6005   */\n      mstore\n        /* \"#utility.yul\":5938:5940   */\n      0x20\n        /* \"#utility.yul\":5935:5936   */\n      dup2\n        /* \"#utility.yul\":5931:5941   */\n      add\n        /* \"#utility.yul\":5926:5941   */\n      swap1\n      pop\n        /* \"#utility.yul\":5902:6015   */\n      jump(tag_180)\n    tag_182:\n        /* \"#utility.yul\":6033:6039   */\n      dup4\n        /* \"#utility.yul\":6030:6031   */\n      dup2\n        /* \"#utility.yul\":6027:6040   */\n      gt\n        /* \"#utility.yul\":6024:6125   */\n      iszero\n      tag_183\n      jumpi\n        /* \"#utility.yul\":6113:6114   */\n      0x00\n        /* \"#utility.yul\":6104:6110   */\n      dup5\n        /* \"#utility.yul\":6099:6102   */\n      dup5\n        /* \"#utility.yul\":6095:6111   */\n      add\n        /* \"#utility.yul\":6088:6115   */\n      mstore\n        /* \"#utility.yul\":6024:6125   */\n    tag_183:\n        /* \"#utility.yul\":5873:6131   */\n      pop\n        /* \"#utility.yul\":5824:6131   */\n      pop\n      pop\n      pop\n      jump\t// out\n        /* \"#utility.yul\":6137:6368   */\n    tag_82:\n        /* \"#utility.yul\":6175:6178   */\n      0x00\n        /* \"#utility.yul\":6198:6221   */\n      tag_185\n        /* \"#utility.yul\":6215:6220   */\n      dup3\n        /* \"#utility.yul\":6198:6221   */\n      tag_175\n      jump\t// in\n    tag_185:\n        /* \"#utility.yul\":6189:6221   */\n      swap2\n      pop\n        /* \"#utility.yul\":6243:6309   */\n      0x7fffffffffffffffffffffffffffffffffffffffffffffffffffffffffffffff\n        /* \"#utility.yul\":6236:6241   */\n      dup3\n        /* \"#utility.yul\":6233:6310   */\n      eq\n        /* \"#utility.yul\":6230:6333   */\n      iszero\n      tag_186\n      jumpi\n        /* \"#utility.yul\":6313:6331   */\n      tag_187\n      tag_165\n      jump\t// in\n    tag_187:\n        /* \"#utility.yul\":6230:6333   */\n    tag_186:\n        /* \"#utility.yul\":6360:6361   */\n      0x01\n        /* \"#utility.yul\":6353:6358   */\n      dup3\n        /* \"#utility.yul\":6349:6362   */\n      add\n        /* \"#utility.yul\":6342:6362   */\n      swap1\n      pop\n        /* \"#utility.yul\":6137:6368   */\n      swap2\n      swap1\n      pop\n      jump\t// out\n        /* \"#utility.yul\":6374:6607   */\n    tag_51:\n        /* \"#utility.yul\":6413:6416   */\n      0x00\n        /* \"#utility.yul\":6436:6460   */\n      tag_189\n        /* \"#utility.yul\":6454:6459   */\n      dup3\n        /* \"#utility.yul\":6436:6460   */\n      tag_145\n      jump\t// in\n    tag_189:\n        /* \"#utility.yul\":6427:6460   */\n      swap2\n      pop\n        /* \"#utility.yul\":6482:6548   */\n      0xffffffffffffffffffffffffffffffffffffffffffffffffffffffffffffffff\n        /* \"#utility.yul\":6475:6480   */\n      dup3\n        /* \"#utility.yul\":6472:6549   */\n      eq\n        /* \"#utility.yul\":6469:6572   */\n      iszero\n      tag_190\n      jumpi\n        /* \"#utility.yul\":6552:6570   */\n      tag_191\n      tag_165\n      jump\t// in\n    tag_191:\n        /* \"#utility.yul\":6469:6572   */\n    tag_190:\n        /* \"#utility.yul\":6599:6600   */\n      0x01\n        /* \"#utility.yul\":6592:6597   */\n      dup3\n        /* \"#utility.yul\":6588:6601   */\n      add\n        /* \"#utility.yul\":6581:6601   */\n      swap1\n      pop\n        /* \"#utility.yul\":6374:6607   */\n      swap2\n      swap1\n      pop\n      jump\t// out\n        /* \"#utility.yul\":6613:6793   */\n    tag_165:\n        /* \"#utility.yul\":6661:6738   */\n      0x4e487b7100000000000000000000000000000000000000000000000000000000\n        /* \"#utility.yul\":6658:6659   */\n      0x00\n        /* \"#utility.yul\":6651:6739   */\n      mstore\n        /* \"#utility.yul\":6758:6762   */\n      0x11\n        /* \"#utility.yul\":6755:6756   */\n      0x04\n        /* \"#utility.yul\":6748:6763   */\n      mstore\n        /* \"#utility.yul\":6782:6786   */\n      0x24\n        /* \"#utility.yul\":6779:6780   */\n      0x00\n        /* \"#utility.yul\":6772:6787   */\n      revert\n        /* \"#utility.yul\":6799:6979   */\n    tag_47:\n        /* \"#utility.yul\":6847:6924   */\n      0x4e487b7100000000000000000000000000000000000000000000000000000000\n        /* \"#utility.yul\":6844:6845   */\n      0x00\n        /* \"#utility.yul\":6837:6925   */\n      mstore\n        /* \"#utility.yul\":6944:6948   */\n      0x32\n        /* \"#utility.yul\":6941:6942   */\n      0x04\n        /* \"#utility.yul\":6934:6949   */\n      mstore\n        /* \"#utility.yul\":6968:6972   */\n      0x24\n        /* \"#utility.yul\":6965:6966   */\n      0x00\n        /* \"#utility.yul\":6958:6973   */\n      revert\n        /* \"#utility.yul\":7108:7225   */\n    tag_111:\n        /* \"#utility.yul\":7217:7218   */\n      0x00\n        /* \"#utility.yul\":7214:7215   */\n      dup1\n        /* \"#utility.yul\":7207:7219   */\n      revert\n        /* \"#utility.yul\":7231:7333   */\n    tag_126:\n        /* \"#utility.yul\":7272:7278   */\n      0x00\n        /* \"#utility.yul\":7323:7325   */\n      0x1f\n        /* \"#utility.yul\":7319:7326   */\n      not\n        /* \"#utility.yul\":7314:7316   */\n      0x1f\n        /* \"#utility.yul\":7307:7312   */\n      dup4\n        /* \"#utility.yul\":7303:7317   */\n      add\n        /* \"#utility.yul\":7299:7327   */\n      and\n        /* \"#utility.yul\":7289:7327   */\n      swap1\n      pop\n        /* \"#utility.yul\":7231:7333   */\n      swap2\n      swap1\n      pop\n      jump\t// out\n        /* \"#utility.yul\":7339:7511   */\n    tag_131:\n        /* \"#utility.yul\":7479:7503   */\n      0x4f6e6c79206d616e616765722063616e2063616c6c2100000000000000000000\n        /* \"#utility.yul\":7475:7476   */\n      0x00\n        /* \"#utility.yul\":7467:7473   */\n      dup3\n        /* \"#utility.yul\":7463:7477   */\n      add\n        /* \"#utility.yul\":7456:7504   */\n      mstore\n        /* \"#utility.yul\":7339:7511   */\n      pop\n      jump\t// out\n        /* \"#utility.yul\":7517:7740   */\n    tag_136:\n        /* \"#utility.yul\":7657:7691   */\n      0x49742773206a757374206265656e206c657373207468616e203130207365636f\n        /* \"#utility.yul\":7653:7654   */\n      0x00\n        /* \"#utility.yul\":7645:7651   */\n      dup3\n        /* \"#utility.yul\":7641:7655   */\n      add\n        /* \"#utility.yul\":7634:7692   */\n      mstore\n        /* \"#utility.yul\":7726:7732   */\n      0x6e64732100000000000000000000000000000000000000000000000000000000\n        /* \"#utility.yul\":7721:7723   */\n      0x20\n        /* \"#utility.yul\":7713:7719   */\n      dup3\n        /* \"#utility.yul\":7709:7724   */\n      add\n        /* \"#utility.yul\":7702:7733   */\n      mstore\n        /* \"#utility.yul\":7517:7740   */\n      pop\n      jump\t// out\n        /* \"#utility.yul\":7746:7918   */\n    tag_141:\n        /* \"#utility.yul\":7886:7910   */\n      0x4f6e6c7920636c69656e74732063616e2063616c6c2100000000000000000000\n        /* \"#utility.yul\":7882:7883   */\n      0x00\n        /* \"#utility.yul\":7874:7880   */\n      dup3\n        /* \"#utility.yul\":7870:7884   */\n      add\n        /* \"#utility.yul\":7863:7911   */\n      mstore\n        /* \"#utility.yul\":7746:7918   */\n      pop\n      jump\t// out\n        /* \"#utility.yul\":7924:8046   */\n    tag_103:\n        /* \"#utility.yul\":7997:8021   */\n      tag_202\n        /* \"#utility.yul\":8015:8020   */\n      dup2\n        /* \"#utility.yul\":7997:8021   */\n      tag_171\n      jump\t// in\n    tag_202:\n        /* \"#utility.yul\":7990:7995   */\n      dup2\n        /* \"#utility.yul\":7987:8022   */\n      eq\n        /* \"#utility.yul\":7977:8040   */\n      tag_203\n      jumpi\n        /* \"#utility.yul\":8036:8037   */\n      0x00\n        /* \"#utility.yul\":8033:8034   */\n      dup1\n        /* \"#utility.yul\":8026:8038   */\n      revert\n        /* \"#utility.yul\":7977:8040   */\n    tag_203:\n        /* \"#utility.yul\":7924:8046   */\n      pop\n      jump\t// out\n        /* \"#utility.yul\":8052:8174   */\n    tag_107:\n        /* \"#utility.yul\":8125:8149   */\n      tag_205\n        /* \"#utility.yul\":8143:8148   */\n      dup2\n        /* \"#utility.yul\":8125:8149   */\n      tag_145\n      jump\t// in\n    tag_205:\n        /* \"#utility.yul\":8118:8123   */\n      dup2\n        /* \"#utility.yul\":8115:8150   */\n      eq\n        /* \"#utility.yul\":8105:8168   */\n      tag_206\n      jumpi\n        /* \"#utility.yul\":8164:8165   */\n      0x00\n        /* \"#utility.yul\":8161:8162   */\n      dup1\n        /* \"#utility.yul\":8154:8166   */\n      revert\n        /* \"#utility.yul\":8105:8168   */\n    tag_206:\n        /* \"#utility.yul\":8052:8174   */\n      pop\n      jump\t// out\n\n    auxdata: 0xa2646970667358221220aa9b20f2f81e8668f8aeae72e8c23968be3aa403e0cc34886ef15765dd33d11d64736f6c63430008070033\n}\n",
				"bytecode": {
					"linkReferences": {},
					"object": "608060405234801561001057600080fd5b506000600181905550610cf3806100286000396000f3fe6080604052600436106100745760003560e01c8063a40921741161004e578063a4092174146100d1578063d0e30db0146100ef578063d0ebdbe7146100f9578063d9dca6c5146101365761007b565b80632e1a7d4d146100805780636f9fb98a1461009c5780639e0a5d68146100c75761007b565b3661007b57005b600080fd5b61009a60048036038101906100959190610828565b610173565b005b3480156100a857600080fd5b506100b16102be565b6040516100be9190610988565b60405180910390f35b6100cf6102c6565b005b6100d96104ed565b6040516100e69190610906565b60405180910390f35b6100f761062e565b005b34801561010557600080fd5b50610120600480360381019061011b91906107fb565b61075f565b60405161012d9190610906565b60405180910390f35b34801561014257600080fd5b5061015d600480360381019061015891906107fb565b6107b9565b60405161016a9190610988565b60405180910390f35b6000805b600080549050811015610219573373ffffffffffffffffffffffffffffffffffffffff16600082815481106101af576101ae610ba9565b5b906000526020600020906003020160010160009054906101000a900473ffffffffffffffffffffffffffffffffffffffff1673ffffffffffffffffffffffffffffffffffffffff1614156102065760019150610219565b808061021190610b31565b915050610177565b508061025a576040517f08c379a000000000000000000000000000000000000000000000000000000000815260040161025190610968565b60405180910390fd5b60003390508073ffffffffffffffffffffffffffffffffffffffff166108fc670de0b6b3a76400008561028d9190610a15565b9081150290604051600060405180830381858888f193505050501580156102b8573d6000803e3d6000fd5b50505050565b600047905090565b600260009054906101000a900473ffffffffffffffffffffffffffffffffffffffff1673ffffffffffffffffffffffffffffffffffffffff163373ffffffffffffffffffffffffffffffffffffffff1614610356576040517f08c379a000000000000000000000000000000000000000000000000000000000815260040161034d90610928565b60405180910390fd5b60005b6000805490508110156104ea57600080828154811061037b5761037a610ba9565b5b906000526020600020906003020160010160009054906101000a900473ffffffffffffffffffffffffffffffffffffffff1690506000600360008373ffffffffffffffffffffffffffffffffffffffff1673ffffffffffffffffffffffffffffffffffffffff168152602001908152602001600020549050600a8161040091906109bf565b421015610442576040517f08c379a000000000000000000000000000000000000000000000000000000000815260040161043990610948565b60405180910390fd5b8173ffffffffffffffffffffffffffffffffffffffff166108fc670de0b6b3a76400009081150290604051600060405180830381858888f19350505050158015610490573d6000803e3d6000fd5b5042600360008473ffffffffffffffffffffffffffffffffffffffff1673ffffffffffffffffffffffffffffffffffffffff16815260200190815260200160002081905550505080806104e290610b31565b915050610359565b50565b606042600360003373ffffffffffffffffffffffffffffffffffffffff1673ffffffffffffffffffffffffffffffffffffffff16815260200190815260200160002081905550600060405180606001604052806001600081548092919061055390610ae8565b9190505581526020013373ffffffffffffffffffffffffffffffffffffffff1681526020013373ffffffffffffffffffffffffffffffffffffffff163181525090806001815401808255809150506001900390600052602060002090600302016000909190919091506000820151816000015560208201518160010160006101000a81548173ffffffffffffffffffffffffffffffffffffffff021916908373ffffffffffffffffffffffffffffffffffffffff16021790555060408201518160020155505060405180602001604052806000815250905090565b6000805b6000805490508110156106d4573373ffffffffffffffffffffffffffffffffffffffff166000828154811061066a57610669610ba9565b5b906000526020600020906003020160010160009054906101000a900473ffffffffffffffffffffffffffffffffffffffff1673ffffffffffffffffffffffffffffffffffffffff1614156106c157600191506106d4565b80806106cc90610b31565b915050610632565b5080610715576040517f08c379a000000000000000000000000000000000000000000000000000000000815260040161070c90610968565b60405180910390fd5b3073ffffffffffffffffffffffffffffffffffffffff166108fc349081150290604051600060405180830381858888f1935050505015801561075b573d6000803e3d6000fd5b5050565b606081600260006101000a81548173ffffffffffffffffffffffffffffffffffffffff021916908373ffffffffffffffffffffffffffffffffffffffff160217905550604051806020016040528060008152509050919050565b60036020528060005260406000206000915090505481565b6000813590506107e081610c8f565b92915050565b6000813590506107f581610ca6565b92915050565b60006020828403121561081157610810610bd8565b5b600061081f848285016107d1565b91505092915050565b60006020828403121561083e5761083d610bd8565b5b600061084c848285016107e6565b91505092915050565b6000610860826109a3565b61086a81856109ae565b935061087a818560208601610ab5565b61088381610bdd565b840191505092915050565b600061089b6016836109ae565b91506108a682610bee565b602082019050919050565b60006108be6024836109ae565b91506108c982610c17565b604082019050919050565b60006108e16016836109ae565b91506108ec82610c66565b602082019050919050565b61090081610aab565b82525050565b600060208201905081810360008301526109208184610855565b905092915050565b600060208201905081810360008301526109418161088e565b9050919050565b60006020820190508181036000830152610961816108b1565b9050919050565b60006020820190508181036000830152610981816108d4565b9050919050565b600060208201905061099d60008301846108f7565b92915050565b600081519050919050565b600082825260208201905092915050565b60006109ca82610aab565b91506109d583610aab565b9250827fffffffffffffffffffffffffffffffffffffffffffffffffffffffffffffffff03821115610a0a57610a09610b7a565b5b828201905092915050565b6000610a2082610aab565b9150610a2b83610aab565b9250817fffffffffffffffffffffffffffffffffffffffffffffffffffffffffffffffff0483118215151615610a6457610a63610b7a565b5b828202905092915050565b6000610a7a82610a8b565b9050919050565b6000819050919050565b600073ffffffffffffffffffffffffffffffffffffffff82169050919050565b6000819050919050565b60005b83811015610ad3578082015181840152602081019050610ab8565b83811115610ae2576000848401525b50505050565b6000610af382610a81565b91507f7fffffffffffffffffffffffffffffffffffffffffffffffffffffffffffffff821415610b2657610b25610b7a565b5b600182019050919050565b6000610b3c82610aab565b91507fffffffffffffffffffffffffffffffffffffffffffffffffffffffffffffffff821415610b6f57610b6e610b7a565b5b600182019050919050565b7f4e487b7100000000000000000000000000000000000000000000000000000000600052601160045260246000fd5b7f4e487b7100000000000000000000000000000000000000000000000000000000600052603260045260246000fd5b600080fd5b6000601f19601f8301169050919050565b7f4f6e6c79206d616e616765722063616e2063616c6c2100000000000000000000600082015250565b7f49742773206a757374206265656e206c657373207468616e203130207365636f60008201527f6e64732100000000000000000000000000000000000000000000000000000000602082015250565b7f4f6e6c7920636c69656e74732063616e2063616c6c2100000000000000000000600082015250565b610c9881610a6f565b8114610ca357600080fd5b50565b610caf81610aab565b8114610cba57600080fd5b5056fea2646970667358221220aa9b20f2f81e8668f8aeae72e8c23968be3aa403e0cc34886ef15765dd33d11d64736f6c63430008070033",
					"opcodes": "PUSH1 0x80 PUSH1 0x40 MSTORE CALLVALUE DUP1 ISZERO PUSH2 0x10 JUMPI PUSH1 0x0 DUP1 REVERT JUMPDEST POP PUSH1 0x0 PUSH1 0x1 DUP2 SWAP1 SSTORE POP PUSH2 0xCF3 DUP1 PUSH2 0x28 PUSH1 0x0 CODECOPY PUSH1 0x0 RETURN INVALID PUSH1 0x80 PUSH1 0x40 MSTORE PUSH1 0x4 CALLDATASIZE LT PUSH2 0x74 JUMPI PUSH1 0x0 CALLDATALOAD PUSH1 0xE0 SHR DUP1 PUSH4 0xA4092174 GT PUSH2 0x4E JUMPI DUP1 PUSH4 0xA4092174 EQ PUSH2 0xD1 JUMPI DUP1 PUSH4 0xD0E30DB0 EQ PUSH2 0xEF JUMPI DUP1 PUSH4 0xD0EBDBE7 EQ PUSH2 0xF9 JUMPI DUP1 PUSH4 0xD9DCA6C5 EQ PUSH2 0x136 JUMPI PUSH2 0x7B JUMP JUMPDEST DUP1 PUSH4 0x2E1A7D4D EQ PUSH2 0x80 JUMPI DUP1 PUSH4 0x6F9FB98A EQ PUSH2 0x9C JUMPI DUP1 PUSH4 0x9E0A5D68 EQ PUSH2 0xC7 JUMPI PUSH2 0x7B JUMP JUMPDEST CALLDATASIZE PUSH2 0x7B JUMPI STOP JUMPDEST PUSH1 0x0 DUP1 REVERT JUMPDEST PUSH2 0x9A PUSH1 0x4 DUP1 CALLDATASIZE SUB DUP2 ADD SWAP1 PUSH2 0x95 SWAP2 SWAP1 PUSH2 0x828 JUMP JUMPDEST PUSH2 0x173 JUMP JUMPDEST STOP JUMPDEST CALLVALUE DUP1 ISZERO PUSH2 0xA8 JUMPI PUSH1 0x0 DUP1 REVERT JUMPDEST POP PUSH2 0xB1 PUSH2 0x2BE JUMP JUMPDEST PUSH1 0x40 MLOAD PUSH2 0xBE SWAP2 SWAP1 PUSH2 0x988 JUMP JUMPDEST PUSH1 0x40 MLOAD DUP1 SWAP2 SUB SWAP1 RETURN JUMPDEST PUSH2 0xCF PUSH2 0x2C6 JUMP JUMPDEST STOP JUMPDEST PUSH2 0xD9 PUSH2 0x4ED JUMP JUMPDEST PUSH1 0x40 MLOAD PUSH2 0xE6 SWAP2 SWAP1 PUSH2 0x906 JUMP JUMPDEST PUSH1 0x40 MLOAD DUP1 SWAP2 SUB SWAP1 RETURN JUMPDEST PUSH2 0xF7 PUSH2 0x62E JUMP JUMPDEST STOP JUMPDEST CALLVALUE DUP1 ISZERO PUSH2 0x105 JUMPI PUSH1 0x0 DUP1 REVERT JUMPDEST POP PUSH2 0x120 PUSH1 0x4 DUP1 CALLDATASIZE SUB DUP2 ADD SWAP1 PUSH2 0x11B SWAP2 SWAP1 PUSH2 0x7FB JUMP JUMPDEST PUSH2 0x75F JUMP JUMPDEST PUSH1 0x40 MLOAD PUSH2 0x12D SWAP2 SWAP1 PUSH2 0x906 JUMP JUMPDEST PUSH1 0x40 MLOAD DUP1 SWAP2 SUB SWAP1 RETURN JUMPDEST CALLVALUE DUP1 ISZERO PUSH2 0x142 JUMPI PUSH1 0x0 DUP1 REVERT JUMPDEST POP PUSH2 0x15D PUSH1 0x4 DUP1 CALLDATASIZE SUB DUP2 ADD SWAP1 PUSH2 0x158 SWAP2 SWAP1 PUSH2 0x7FB JUMP JUMPDEST PUSH2 0x7B9 JUMP JUMPDEST PUSH1 0x40 MLOAD PUSH2 0x16A SWAP2 SWAP1 PUSH2 0x988 JUMP JUMPDEST PUSH1 0x40 MLOAD DUP1 SWAP2 SUB SWAP1 RETURN JUMPDEST PUSH1 0x0 DUP1 JUMPDEST PUSH1 0x0 DUP1 SLOAD SWAP1 POP DUP2 LT ISZERO PUSH2 0x219 JUMPI CALLER PUSH20 0xFFFFFFFFFFFFFFFFFFFFFFFFFFFFFFFFFFFFFFFF AND PUSH1 0x0 DUP3 DUP2 SLOAD DUP2 LT PUSH2 0x1AF JUMPI PUSH2 0x1AE PUSH2 0xBA9 JUMP JUMPDEST JUMPDEST SWAP1 PUSH1 0x0 MSTORE PUSH1 0x20 PUSH1 0x0 KECCAK256 SWAP1 PUSH1 0x3 MUL ADD PUSH1 0x1 ADD PUSH1 0x0 SWAP1 SLOAD SWAP1 PUSH2 0x100 EXP SWAP1 DIV PUSH20 0xFFFFFFFFFFFFFFFFFFFFFFFFFFFFFFFFFFFFFFFF AND PUSH20 0xFFFFFFFFFFFFFFFFFFFFFFFFFFFFFFFFFFFFFFFF AND EQ ISZERO PUSH2 0x206 JUMPI PUSH1 0x1 SWAP2 POP PUSH2 0x219 JUMP JUMPDEST DUP1 DUP1 PUSH2 0x211 SWAP1 PUSH2 0xB31 JUMP JUMPDEST SWAP2 POP POP PUSH2 0x177 JUMP JUMPDEST POP DUP1 PUSH2 0x25A JUMPI PUSH1 0x40 MLOAD PUSH32 0x8C379A000000000000000000000000000000000000000000000000000000000 DUP2 MSTORE PUSH1 0x4 ADD PUSH2 0x251 SWAP1 PUSH2 0x968 JUMP JUMPDEST PUSH1 0x40 MLOAD DUP1 SWAP2 SUB SWAP1 REVERT JUMPDEST PUSH1 0x0 CALLER SWAP1 POP DUP1 PUSH20 0xFFFFFFFFFFFFFFFFFFFFFFFFFFFFFFFFFFFFFFFF AND PUSH2 0x8FC PUSH8 0xDE0B6B3A7640000 DUP6 PUSH2 0x28D SWAP2 SWAP1 PUSH2 0xA15 JUMP JUMPDEST SWAP1 DUP2 ISZERO MUL SWAP1 PUSH1 0x40 MLOAD PUSH1 0x0 PUSH1 0x40 MLOAD DUP1 DUP4 SUB DUP2 DUP6 DUP9 DUP9 CALL SWAP4 POP POP POP POP ISZERO DUP1 ISZERO PUSH2 0x2B8 JUMPI RETURNDATASIZE PUSH1 0x0 DUP1 RETURNDATACOPY RETURNDATASIZE PUSH1 0x0 REVERT JUMPDEST POP POP POP POP JUMP JUMPDEST PUSH1 0x0 SELFBALANCE SWAP1 POP SWAP1 JUMP JUMPDEST PUSH1 0x2 PUSH1 0x0 SWAP1 SLOAD SWAP1 PUSH2 0x100 EXP SWAP1 DIV PUSH20 0xFFFFFFFFFFFFFFFFFFFFFFFFFFFFFFFFFFFFFFFF AND PUSH20 0xFFFFFFFFFFFFFFFFFFFFFFFFFFFFFFFFFFFFFFFF AND CALLER PUSH20 0xFFFFFFFFFFFFFFFFFFFFFFFFFFFFFFFFFFFFFFFF AND EQ PUSH2 0x356 JUMPI PUSH1 0x40 MLOAD PUSH32 0x8C379A000000000000000000000000000000000000000000000000000000000 DUP2 MSTORE PUSH1 0x4 ADD PUSH2 0x34D SWAP1 PUSH2 0x928 JUMP JUMPDEST PUSH1 0x40 MLOAD DUP1 SWAP2 SUB SWAP1 REVERT JUMPDEST PUSH1 0x0 JUMPDEST PUSH1 0x0 DUP1 SLOAD SWAP1 POP DUP2 LT ISZERO PUSH2 0x4EA JUMPI PUSH1 0x0 DUP1 DUP3 DUP2 SLOAD DUP2 LT PUSH2 0x37B JUMPI PUSH2 0x37A PUSH2 0xBA9 JUMP JUMPDEST JUMPDEST SWAP1 PUSH1 0x0 MSTORE PUSH1 0x20 PUSH1 0x0 KECCAK256 SWAP1 PUSH1 0x3 MUL ADD PUSH1 0x1 ADD PUSH1 0x0 SWAP1 SLOAD SWAP1 PUSH2 0x100 EXP SWAP1 DIV PUSH20 0xFFFFFFFFFFFFFFFFFFFFFFFFFFFFFFFFFFFFFFFF AND SWAP1 POP PUSH1 0x0 PUSH1 0x3 PUSH1 0x0 DUP4 PUSH20 0xFFFFFFFFFFFFFFFFFFFFFFFFFFFFFFFFFFFFFFFF AND PUSH20 0xFFFFFFFFFFFFFFFFFFFFFFFFFFFFFFFFFFFFFFFF AND DUP2 MSTORE PUSH1 0x20 ADD SWAP1 DUP2 MSTORE PUSH1 0x20 ADD PUSH1 0x0 KECCAK256 SLOAD SWAP1 POP PUSH1 0xA DUP2 PUSH2 0x400 SWAP2 SWAP1 PUSH2 0x9BF JUMP JUMPDEST TIMESTAMP LT ISZERO PUSH2 0x442 JUMPI PUSH1 0x40 MLOAD PUSH32 0x8C379A000000000000000000000000000000000000000000000000000000000 DUP2 MSTORE PUSH1 0x4 ADD PUSH2 0x439 SWAP1 PUSH2 0x948 JUMP JUMPDEST PUSH1 0x40 MLOAD DUP1 SWAP2 SUB SWAP1 REVERT JUMPDEST DUP2 PUSH20 0xFFFFFFFFFFFFFFFFFFFFFFFFFFFFFFFFFFFFFFFF AND PUSH2 0x8FC PUSH8 0xDE0B6B3A7640000 SWAP1 DUP2 ISZERO MUL SWAP1 PUSH1 0x40 MLOAD PUSH1 0x0 PUSH1 0x40 MLOAD DUP1 DUP4 SUB DUP2 DUP6 DUP9 DUP9 CALL SWAP4 POP POP POP POP ISZERO DUP1 ISZERO PUSH2 0x490 JUMPI RETURNDATASIZE PUSH1 0x0 DUP1 RETURNDATACOPY RETURNDATASIZE PUSH1 0x0 REVERT JUMPDEST POP TIMESTAMP PUSH1 0x3 PUSH1 0x0 DUP5 PUSH20 0xFFFFFFFFFFFFFFFFFFFFFFFFFFFFFFFFFFFFFFFF AND PUSH20 0xFFFFFFFFFFFFFFFFFFFFFFFFFFFFFFFFFFFFFFFF AND DUP2 MSTORE PUSH1 0x20 ADD SWAP1 DUP2 MSTORE PUSH1 0x20 ADD PUSH1 0x0 KECCAK256 DUP2 SWAP1 SSTORE POP POP POP DUP1 DUP1 PUSH2 0x4E2 SWAP1 PUSH2 0xB31 JUMP JUMPDEST SWAP2 POP POP PUSH2 0x359 JUMP JUMPDEST POP JUMP JUMPDEST PUSH1 0x60 TIMESTAMP PUSH1 0x3 PUSH1 0x0 CALLER PUSH20 0xFFFFFFFFFFFFFFFFFFFFFFFFFFFFFFFFFFFFFFFF AND PUSH20 0xFFFFFFFFFFFFFFFFFFFFFFFFFFFFFFFFFFFFFFFF AND DUP2 MSTORE PUSH1 0x20 ADD SWAP1 DUP2 MSTORE PUSH1 0x20 ADD PUSH1 0x0 KECCAK256 DUP2 SWAP1 SSTORE POP PUSH1 0x0 PUSH1 0x40 MLOAD DUP1 PUSH1 0x60 ADD PUSH1 0x40 MSTORE DUP1 PUSH1 0x1 PUSH1 0x0 DUP2 SLOAD DUP1 SWAP3 SWAP2 SWAP1 PUSH2 0x553 SWAP1 PUSH2 0xAE8 JUMP JUMPDEST SWAP2 SWAP1 POP SSTORE DUP2 MSTORE PUSH1 0x20 ADD CALLER PUSH20 0xFFFFFFFFFFFFFFFFFFFFFFFFFFFFFFFFFFFFFFFF AND DUP2 MSTORE PUSH1 0x20 ADD CALLER PUSH20 0xFFFFFFFFFFFFFFFFFFFFFFFFFFFFFFFFFFFFFFFF AND BALANCE DUP2 MSTORE POP SWAP1 DUP1 PUSH1 0x1 DUP2 SLOAD ADD DUP1 DUP3 SSTORE DUP1 SWAP2 POP POP PUSH1 0x1 SWAP1 SUB SWAP1 PUSH1 0x0 MSTORE PUSH1 0x20 PUSH1 0x0 KECCAK256 SWAP1 PUSH1 0x3 MUL ADD PUSH1 0x0 SWAP1 SWAP2 SWAP1 SWAP2 SWAP1 SWAP2 POP PUSH1 0x0 DUP3 ADD MLOAD DUP2 PUSH1 0x0 ADD SSTORE PUSH1 0x20 DUP3 ADD MLOAD DUP2 PUSH1 0x1 ADD PUSH1 0x0 PUSH2 0x100 EXP DUP2 SLOAD DUP2 PUSH20 0xFFFFFFFFFFFFFFFFFFFFFFFFFFFFFFFFFFFFFFFF MUL NOT AND SWAP1 DUP4 PUSH20 0xFFFFFFFFFFFFFFFFFFFFFFFFFFFFFFFFFFFFFFFF AND MUL OR SWAP1 SSTORE POP PUSH1 0x40 DUP3 ADD MLOAD DUP2 PUSH1 0x2 ADD SSTORE POP POP PUSH1 0x40 MLOAD DUP1 PUSH1 0x20 ADD PUSH1 0x40 MSTORE DUP1 PUSH1 0x0 DUP2 MSTORE POP SWAP1 POP SWAP1 JUMP JUMPDEST PUSH1 0x0 DUP1 JUMPDEST PUSH1 0x0 DUP1 SLOAD SWAP1 POP DUP2 LT ISZERO PUSH2 0x6D4 JUMPI CALLER PUSH20 0xFFFFFFFFFFFFFFFFFFFFFFFFFFFFFFFFFFFFFFFF AND PUSH1 0x0 DUP3 DUP2 SLOAD DUP2 LT PUSH2 0x66A JUMPI PUSH2 0x669 PUSH2 0xBA9 JUMP JUMPDEST JUMPDEST SWAP1 PUSH1 0x0 MSTORE PUSH1 0x20 PUSH1 0x0 KECCAK256 SWAP1 PUSH1 0x3 MUL ADD PUSH1 0x1 ADD PUSH1 0x0 SWAP1 SLOAD SWAP1 PUSH2 0x100 EXP SWAP1 DIV PUSH20 0xFFFFFFFFFFFFFFFFFFFFFFFFFFFFFFFFFFFFFFFF AND PUSH20 0xFFFFFFFFFFFFFFFFFFFFFFFFFFFFFFFFFFFFFFFF AND EQ ISZERO PUSH2 0x6C1 JUMPI PUSH1 0x1 SWAP2 POP PUSH2 0x6D4 JUMP JUMPDEST DUP1 DUP1 PUSH2 0x6CC SWAP1 PUSH2 0xB31 JUMP JUMPDEST SWAP2 POP POP PUSH2 0x632 JUMP JUMPDEST POP DUP1 PUSH2 0x715 JUMPI PUSH1 0x40 MLOAD PUSH32 0x8C379A000000000000000000000000000000000000000000000000000000000 DUP2 MSTORE PUSH1 0x4 ADD PUSH2 0x70C SWAP1 PUSH2 0x968 JUMP JUMPDEST PUSH1 0x40 MLOAD DUP1 SWAP2 SUB SWAP1 REVERT JUMPDEST ADDRESS PUSH20 0xFFFFFFFFFFFFFFFFFFFFFFFFFFFFFFFFFFFFFFFF AND PUSH2 0x8FC CALLVALUE SWAP1 DUP2 ISZERO MUL SWAP1 PUSH1 0x40 MLOAD PUSH1 0x0 PUSH1 0x40 MLOAD DUP1 DUP4 SUB DUP2 DUP6 DUP9 DUP9 CALL SWAP4 POP POP POP POP ISZERO DUP1 ISZERO PUSH2 0x75B JUMPI RETURNDATASIZE PUSH1 0x0 DUP1 RETURNDATACOPY RETURNDATASIZE PUSH1 0x0 REVERT JUMPDEST POP POP JUMP JUMPDEST PUSH1 0x60 DUP2 PUSH1 0x2 PUSH1 0x0 PUSH2 0x100 EXP DUP2 SLOAD DUP2 PUSH20 0xFFFFFFFFFFFFFFFFFFFFFFFFFFFFFFFFFFFFFFFF MUL NOT AND SWAP1 DUP4 PUSH20 0xFFFFFFFFFFFFFFFFFFFFFFFFFFFFFFFFFFFFFFFF AND MUL OR SWAP1 SSTORE POP PUSH1 0x40 MLOAD DUP1 PUSH1 0x20 ADD PUSH1 0x40 MSTORE DUP1 PUSH1 0x0 DUP2 MSTORE POP SWAP1 POP SWAP2 SWAP1 POP JUMP JUMPDEST PUSH1 0x3 PUSH1 0x20 MSTORE DUP1 PUSH1 0x0 MSTORE PUSH1 0x40 PUSH1 0x0 KECCAK256 PUSH1 0x0 SWAP2 POP SWAP1 POP SLOAD DUP2 JUMP JUMPDEST PUSH1 0x0 DUP2 CALLDATALOAD SWAP1 POP PUSH2 0x7E0 DUP2 PUSH2 0xC8F JUMP JUMPDEST SWAP3 SWAP2 POP POP JUMP JUMPDEST PUSH1 0x0 DUP2 CALLDATALOAD SWAP1 POP PUSH2 0x7F5 DUP2 PUSH2 0xCA6 JUMP JUMPDEST SWAP3 SWAP2 POP POP JUMP JUMPDEST PUSH1 0x0 PUSH1 0x20 DUP3 DUP5 SUB SLT ISZERO PUSH2 0x811 JUMPI PUSH2 0x810 PUSH2 0xBD8 JUMP JUMPDEST JUMPDEST PUSH1 0x0 PUSH2 0x81F DUP5 DUP3 DUP6 ADD PUSH2 0x7D1 JUMP JUMPDEST SWAP2 POP POP SWAP3 SWAP2 POP POP JUMP JUMPDEST PUSH1 0x0 PUSH1 0x20 DUP3 DUP5 SUB SLT ISZERO PUSH2 0x83E JUMPI PUSH2 0x83D PUSH2 0xBD8 JUMP JUMPDEST JUMPDEST PUSH1 0x0 PUSH2 0x84C DUP5 DUP3 DUP6 ADD PUSH2 0x7E6 JUMP JUMPDEST SWAP2 POP POP SWAP3 SWAP2 POP POP JUMP JUMPDEST PUSH1 0x0 PUSH2 0x860 DUP3 PUSH2 0x9A3 JUMP JUMPDEST PUSH2 0x86A DUP2 DUP6 PUSH2 0x9AE JUMP JUMPDEST SWAP4 POP PUSH2 0x87A DUP2 DUP6 PUSH1 0x20 DUP7 ADD PUSH2 0xAB5 JUMP JUMPDEST PUSH2 0x883 DUP2 PUSH2 0xBDD JUMP JUMPDEST DUP5 ADD SWAP2 POP POP SWAP3 SWAP2 POP POP JUMP JUMPDEST PUSH1 0x0 PUSH2 0x89B PUSH1 0x16 DUP4 PUSH2 0x9AE JUMP JUMPDEST SWAP2 POP PUSH2 0x8A6 DUP3 PUSH2 0xBEE JUMP JUMPDEST PUSH1 0x20 DUP3 ADD SWAP1 POP SWAP2 SWAP1 POP JUMP JUMPDEST PUSH1 0x0 PUSH2 0x8BE PUSH1 0x24 DUP4 PUSH2 0x9AE JUMP JUMPDEST SWAP2 POP PUSH2 0x8C9 DUP3 PUSH2 0xC17 JUMP JUMPDEST PUSH1 0x40 DUP3 ADD SWAP1 POP SWAP2 SWAP1 POP JUMP JUMPDEST PUSH1 0x0 PUSH2 0x8E1 PUSH1 0x16 DUP4 PUSH2 0x9AE JUMP JUMPDEST SWAP2 POP PUSH2 0x8EC DUP3 PUSH2 0xC66 JUMP JUMPDEST PUSH1 0x20 DUP3 ADD SWAP1 POP SWAP2 SWAP1 POP JUMP JUMPDEST PUSH2 0x900 DUP2 PUSH2 0xAAB JUMP JUMPDEST DUP3 MSTORE POP POP JUMP JUMPDEST PUSH1 0x0 PUSH1 0x20 DUP3 ADD SWAP1 POP DUP2 DUP2 SUB PUSH1 0x0 DUP4 ADD MSTORE PUSH2 0x920 DUP2 DUP5 PUSH2 0x855 JUMP JUMPDEST SWAP1 POP SWAP3 SWAP2 POP POP JUMP JUMPDEST PUSH1 0x0 PUSH1 0x20 DUP3 ADD SWAP1 POP DUP2 DUP2 SUB PUSH1 0x0 DUP4 ADD MSTORE PUSH2 0x941 DUP2 PUSH2 0x88E JUMP JUMPDEST SWAP1 POP SWAP2 SWAP1 POP JUMP JUMPDEST PUSH1 0x0 PUSH1 0x20 DUP3 ADD SWAP1 POP DUP2 DUP2 SUB PUSH1 0x0 DUP4 ADD MSTORE PUSH2 0x961 DUP2 PUSH2 0x8B1 JUMP JUMPDEST SWAP1 POP SWAP2 SWAP1 POP JUMP JUMPDEST PUSH1 0x0 PUSH1 0x20 DUP3 ADD SWAP1 POP DUP2 DUP2 SUB PUSH1 0x0 DUP4 ADD MSTORE PUSH2 0x981 DUP2 PUSH2 0x8D4 JUMP JUMPDEST SWAP1 POP SWAP2 SWAP1 POP JUMP JUMPDEST PUSH1 0x0 PUSH1 0x20 DUP3 ADD SWAP1 POP PUSH2 0x99D PUSH1 0x0 DUP4 ADD DUP5 PUSH2 0x8F7 JUMP JUMPDEST SWAP3 SWAP2 POP POP JUMP JUMPDEST PUSH1 0x0 DUP2 MLOAD SWAP1 POP SWAP2 SWAP1 POP JUMP JUMPDEST PUSH1 0x0 DUP3 DUP3 MSTORE PUSH1 0x20 DUP3 ADD SWAP1 POP SWAP3 SWAP2 POP POP JUMP JUMPDEST PUSH1 0x0 PUSH2 0x9CA DUP3 PUSH2 0xAAB JUMP JUMPDEST SWAP2 POP PUSH2 0x9D5 DUP4 PUSH2 0xAAB JUMP JUMPDEST SWAP3 POP DUP3 PUSH32 0xFFFFFFFFFFFFFFFFFFFFFFFFFFFFFFFFFFFFFFFFFFFFFFFFFFFFFFFFFFFFFFFF SUB DUP3 GT ISZERO PUSH2 0xA0A JUMPI PUSH2 0xA09 PUSH2 0xB7A JUMP JUMPDEST JUMPDEST DUP3 DUP3 ADD SWAP1 POP SWAP3 SWAP2 POP POP JUMP JUMPDEST PUSH1 0x0 PUSH2 0xA20 DUP3 PUSH2 0xAAB JUMP JUMPDEST SWAP2 POP PUSH2 0xA2B DUP4 PUSH2 0xAAB JUMP JUMPDEST SWAP3 POP DUP2 PUSH32 0xFFFFFFFFFFFFFFFFFFFFFFFFFFFFFFFFFFFFFFFFFFFFFFFFFFFFFFFFFFFFFFFF DIV DUP4 GT DUP3 ISZERO ISZERO AND ISZERO PUSH2 0xA64 JUMPI PUSH2 0xA63 PUSH2 0xB7A JUMP JUMPDEST JUMPDEST DUP3 DUP3 MUL SWAP1 POP SWAP3 SWAP2 POP POP JUMP JUMPDEST PUSH1 0x0 PUSH2 0xA7A DUP3 PUSH2 0xA8B JUMP JUMPDEST SWAP1 POP SWAP2 SWAP1 POP JUMP JUMPDEST PUSH1 0x0 DUP2 SWAP1 POP SWAP2 SWAP1 POP JUMP JUMPDEST PUSH1 0x0 PUSH20 0xFFFFFFFFFFFFFFFFFFFFFFFFFFFFFFFFFFFFFFFF DUP3 AND SWAP1 POP SWAP2 SWAP1 POP JUMP JUMPDEST PUSH1 0x0 DUP2 SWAP1 POP SWAP2 SWAP1 POP JUMP JUMPDEST PUSH1 0x0 JUMPDEST DUP4 DUP2 LT ISZERO PUSH2 0xAD3 JUMPI DUP1 DUP3 ADD MLOAD DUP2 DUP5 ADD MSTORE PUSH1 0x20 DUP2 ADD SWAP1 POP PUSH2 0xAB8 JUMP JUMPDEST DUP4 DUP2 GT ISZERO PUSH2 0xAE2 JUMPI PUSH1 0x0 DUP5 DUP5 ADD MSTORE JUMPDEST POP POP POP POP JUMP JUMPDEST PUSH1 0x0 PUSH2 0xAF3 DUP3 PUSH2 0xA81 JUMP JUMPDEST SWAP2 POP PUSH32 0x7FFFFFFFFFFFFFFFFFFFFFFFFFFFFFFFFFFFFFFFFFFFFFFFFFFFFFFFFFFFFFFF DUP3 EQ ISZERO PUSH2 0xB26 JUMPI PUSH2 0xB25 PUSH2 0xB7A JUMP JUMPDEST JUMPDEST PUSH1 0x1 DUP3 ADD SWAP1 POP SWAP2 SWAP1 POP JUMP JUMPDEST PUSH1 0x0 PUSH2 0xB3C DUP3 PUSH2 0xAAB JUMP JUMPDEST SWAP2 POP PUSH32 0xFFFFFFFFFFFFFFFFFFFFFFFFFFFFFFFFFFFFFFFFFFFFFFFFFFFFFFFFFFFFFFFF DUP3 EQ ISZERO PUSH2 0xB6F JUMPI PUSH2 0xB6E PUSH2 0xB7A JUMP JUMPDEST JUMPDEST PUSH1 0x1 DUP3 ADD SWAP1 POP SWAP2 SWAP1 POP JUMP JUMPDEST PUSH32 0x4E487B7100000000000000000000000000000000000000000000000000000000 PUSH1 0x0 MSTORE PUSH1 0x11 PUSH1 0x4 MSTORE PUSH1 0x24 PUSH1 0x0 REVERT JUMPDEST PUSH32 0x4E487B7100000000000000000000000000000000000000000000000000000000 PUSH1 0x0 MSTORE PUSH1 0x32 PUSH1 0x4 MSTORE PUSH1 0x24 PUSH1 0x0 REVERT JUMPDEST PUSH1 0x0 DUP1 REVERT JUMPDEST PUSH1 0x0 PUSH1 0x1F NOT PUSH1 0x1F DUP4 ADD AND SWAP1 POP SWAP2 SWAP1 POP JUMP JUMPDEST PUSH32 0x4F6E6C79206D616E616765722063616E2063616C6C2100000000000000000000 PUSH1 0x0 DUP3 ADD MSTORE POP JUMP JUMPDEST PUSH32 0x49742773206A757374206265656E206C657373207468616E203130207365636F PUSH1 0x0 DUP3 ADD MSTORE PUSH32 0x6E64732100000000000000000000000000000000000000000000000000000000 PUSH1 0x20 DUP3 ADD MSTORE POP JUMP JUMPDEST PUSH32 0x4F6E6C7920636C69656E74732063616E2063616C6C2100000000000000000000 PUSH1 0x0 DUP3 ADD MSTORE POP JUMP JUMPDEST PUSH2 0xC98 DUP2 PUSH2 0xA6F JUMP JUMPDEST DUP2 EQ PUSH2 0xCA3 JUMPI PUSH1 0x0 DUP1 REVERT JUMPDEST POP JUMP JUMPDEST PUSH2 0xCAF DUP2 PUSH2 0xAAB JUMP JUMPDEST DUP2 EQ PUSH2 0xCBA JUMPI PUSH1 0x0 DUP1 REVERT JUMPDEST POP JUMP INVALID LOG2 PUSH5 0x6970667358 0x22 SLT KECCAK256 0xAA SWAP12 KECCAK256 CALLCODE 0xF8 0x1E DUP7 PUSH9 0xF8AEAE72E8C23968BE GASPRICE LOG4 SUB 0xE0 0xCC CALLVALUE DUP9 PUSH15 0xF15765DD33D11D64736F6C63430008 SMOD STOP CALLER "
				},
				"gasEstimates": {
					"creation": {
						"codeDepositCost": "663000",
						"executionCost": "5710",
						"totalCost": "668710"
					},
					"external": {
						"deposit()": "infinite",
						"getContractBalance()": "362",
						"interestDate(address)": "2880",
						"joinAsClient()": "142725",
						"sendInterest()": "infinite",
						"setManager(address)": "25274",
						"withdraw(uint256)": "infinite"
					}
				},
				"methodIdentifiers": {
					"deposit()": "d0e30db0",
					"getContractBalance()": "6f9fb98a",
					"interestDate(address)": "d9dca6c5",
					"joinAsClient()": "a4092174",
					"sendInterest()": "9e0a5d68",
					"setManager(address)": "d0ebdbe7",
					"withdraw(uint256)": "2e1a7d4d"
				}
			},
			"storageLayout": {
				"storage": [
					{
						"astId": 12,
						"contract": "contracts/first_contract.sol:BankContract",
						"label": "clients",
						"offset": 0,
						"slot": "0",
						"type": "t_array(t_struct(client_account)8_storage)dyn_storage"
					},
					{
						"astId": 14,
						"contract": "contracts/first_contract.sol:BankContract",
						"label": "clientCounter",
						"offset": 0,
						"slot": "1",
						"type": "t_int256"
					},
					{
						"astId": 16,
						"contract": "contracts/first_contract.sol:BankContract",
						"label": "manager",
						"offset": 0,
						"slot": "2",
						"type": "t_address_payable"
					},
					{
						"astId": 20,
						"contract": "contracts/first_contract.sol:BankContract",
						"label": "interestDate",
						"offset": 0,
						"slot": "3",
						"type": "t_mapping(t_address,t_uint256)"
					}
				],
				"types": {
					"t_address": {
						"encoding": "inplace",
						"label": "address",
						"numberOfBytes": "20"
					},
					"t_address_payable": {
						"encoding": "inplace",
						"label": "address payable",
						"numberOfBytes": "20"
					},
					"t_array(t_struct(client_account)8_storage)dyn_storage": {
						"base": "t_struct(client_account)8_storage",
						"encoding": "dynamic_array",
						"label": "struct BankContract.client_account[]",
						"numberOfBytes": "32"
					},
					"t_int256": {
						"encoding": "inplace",
						"label": "int256",
						"numberOfBytes": "32"
					},
					"t_mapping(t_address,t_uint256)": {
						"encoding": "mapping",
						"key": "t_address",
						"label": "mapping(address => uint256)",
						"numberOfBytes": "32",
						"value": "t_uint256"
					},
					"t_struct(client_account)8_storage": {
						"encoding": "inplace",
						"label": "struct BankContract.client_account",
						"members": [
							{
								"astId": 3,
								"contract": "contracts/first_contract.sol:BankContract",
								"label": "client_id",
								"offset": 0,
								"slot": "0",
								"type": "t_int256"
							},
							{
								"astId": 5,
								"contract": "contracts/first_contract.sol:BankContract",
								"label": "client_address",
								"offset": 0,
								"slot": "1",
								"type": "t_address"
							},
							{
								"astId": 7,
								"contract": "contracts/first_contract.sol:BankContract",
								"label": "client_balance_in_ether",
								"offset": 0,
								"slot": "2",
								"type": "t_uint256"
							}
						],
						"numberOfBytes": "96"
					},
					"t_uint256": {
						"encoding": "inplace",
						"label": "uint256",
						"numberOfBytes": "32"
					}
				}
			},
			"userdoc": {
				"kind": "user",
				"methods": {},
				"version": 1
			}
		}
	}
}