{
	"contracts/first_contract.sol": {
		"BankContract": {
			"abi": [
				{
					"inputs": [],
					"stateMutability": "nonpayable",
					"type": "constructor"
				},
				{
					"inputs": [],
					"name": "deposit",
					"outputs": [],
					"stateMutability": "payable",
					"type": "function"
				},
				{
					"inputs": [],
					"name": "getClients",
					"outputs": [
						{
							"internalType": "address[]",
							"name": "",
							"type": "address[]"
						},
						{
							"internalType": "uint256[]",
							"name": "",
							"type": "uint256[]"
						}
					],
					"stateMutability": "view",
					"type": "function"
				},
				{
					"inputs": [],
					"name": "getContractBalance",
					"outputs": [
						{
							"internalType": "uint256",
							"name": "",
							"type": "uint256"
						}
					],
					"stateMutability": "view",
					"type": "function"
				},
				{
					"inputs": [],
					"name": "getCountClient",
					"outputs": [
						{
							"internalType": "uint256",
							"name": "",
							"type": "uint256"
						}
					],
					"stateMutability": "view",
					"type": "function"
				},
				{
					"inputs": [
						{
							"internalType": "address",
							"name": "",
							"type": "address"
						}
					],
					"name": "interestDate",
					"outputs": [
						{
							"internalType": "uint256",
							"name": "",
							"type": "uint256"
						}
					],
					"stateMutability": "view",
					"type": "function"
				},
				{
					"inputs": [],
					"name": "joinAsClient",
					"outputs": [
						{
							"internalType": "string",
							"name": "",
							"type": "string"
						}
					],
					"stateMutability": "payable",
					"type": "function"
				},
				{
					"inputs": [
						{
							"internalType": "address",
							"name": "_to",
							"type": "address"
						},
						{
							"internalType": "uint256",
							"name": "_amount",
							"type": "uint256"
						}
					],
					"name": "sendCoke",
					"outputs": [],
					"stateMutability": "nonpayable",
					"type": "function"
				},
				{
					"inputs": [],
					"name": "sendInterest",
					"outputs": [],
					"stateMutability": "payable",
					"type": "function"
				},
				{
					"inputs": [
						{
							"internalType": "address",
							"name": "managerAddress",
							"type": "address"
						}
					],
					"name": "setManager",
					"outputs": [
						{
							"internalType": "string",
							"name": "",
							"type": "string"
						}
					],
					"stateMutability": "nonpayable",
					"type": "function"
				},
				{
					"inputs": [
						{
							"internalType": "uint256",
							"name": "amount",
							"type": "uint256"
						}
					],
					"name": "withdraw",
					"outputs": [],
					"stateMutability": "payable",
					"type": "function"
				},
				{
					"stateMutability": "payable",
					"type": "receive"
				}
			],
			"devdoc": {
				"kind": "dev",
				"methods": {},
				"version": 1
			},
			"evm": {
				"assembly": "    /* \"contracts/first_contract.sol\":320:3658  contract BankContract { \r... */\n  mstore(0x40, 0x80)\n    /* \"contracts/first_contract.sol\":627:683  constructor() public{\r... */\n  callvalue\n  dup1\n  iszero\n  tag_1\n  jumpi\n  0x00\n  dup1\n  revert\ntag_1:\n  pop\n    /* \"contracts/first_contract.sol\":674:675  0 */\n  0x00\n    /* \"contracts/first_contract.sol\":658:671  clientCounter */\n  0x01\n    /* \"contracts/first_contract.sol\":658:675  clientCounter = 0 */\n  dup2\n  swap1\n  sstore\n  pop\n    /* \"contracts/first_contract.sol\":320:3658  contract BankContract { \r... */\n  dataSize(sub_0)\n  dup1\n  dataOffset(sub_0)\n  0x00\n  codecopy\n  0x00\n  return\nstop\n\nsub_0: assembly {\n        /* \"contracts/first_contract.sol\":320:3658  contract BankContract { \r... */\n      mstore(0x40, 0x80)\n      jumpi(tag_1, lt(calldatasize, 0x04))\n      shr(0xe0, calldataload(0x00))\n      dup1\n      0xd0e30db0\n      gt\n      tag_13\n      jumpi\n      dup1\n      0xd0e30db0\n      eq\n      tag_8\n      jumpi\n      dup1\n      0xd0ebdbe7\n      eq\n      tag_9\n      jumpi\n      dup1\n      0xd9dca6c5\n      eq\n      tag_10\n      jumpi\n      dup1\n      0xf5d51c06\n      eq\n      tag_11\n      jumpi\n      dup1\n      0xfef75470\n      eq\n      tag_12\n      jumpi\n      jump(tag_2)\n    tag_13:\n      dup1\n      0x2e1a7d4d\n      eq\n      tag_3\n      jumpi\n      dup1\n      0x6db80995\n      eq\n      tag_4\n      jumpi\n      dup1\n      0x6f9fb98a\n      eq\n      tag_5\n      jumpi\n      dup1\n      0x9e0a5d68\n      eq\n      tag_6\n      jumpi\n      dup1\n      0xa4092174\n      eq\n      tag_7\n      jumpi\n      jump(tag_2)\n    tag_1:\n      jumpi(tag_2, calldatasize)\n      stop\n    tag_2:\n      0x00\n      dup1\n      revert\n        /* \"contracts/first_contract.sol\":1675:1858  function withdraw(uint amount) public payable onlyClients{\r... */\n    tag_3:\n      tag_16\n      0x04\n      dup1\n      calldatasize\n      sub\n      dup2\n      add\n      swap1\n      tag_17\n      swap2\n      swap1\n      tag_18\n      jump\t// in\n    tag_17:\n      tag_19\n      jump\t// in\n    tag_16:\n      stop\n        /* \"contracts/first_contract.sol\":2497:3067  function getClients() public view returns (address[] memory,uint[] memory) {\r... */\n    tag_4:\n      callvalue\n      dup1\n      iszero\n      tag_20\n      jumpi\n      0x00\n      dup1\n      revert\n    tag_20:\n      pop\n      tag_21\n      tag_22\n      jump\t// in\n    tag_21:\n      mload(0x40)\n      tag_23\n      swap3\n      swap2\n      swap1\n      tag_24\n      jump\t// in\n    tag_23:\n      mload(0x40)\n      dup1\n      swap2\n      sub\n      swap1\n      return\n        /* \"contracts/first_contract.sol\":3074:3176  function getContractBalance() public view returns(uint){\r... */\n    tag_5:\n      callvalue\n      dup1\n      iszero\n      tag_25\n      jumpi\n      0x00\n      dup1\n      revert\n    tag_25:\n      pop\n      tag_26\n      tag_27\n      jump\t// in\n    tag_26:\n      mload(0x40)\n      tag_28\n      swap2\n      swap1\n      tag_29\n      jump\t// in\n    tag_28:\n      mload(0x40)\n      dup1\n      swap2\n      sub\n      swap1\n      return\n        /* \"contracts/first_contract.sol\":1866:2356  function sendInterest() public payable onlyManager{\r... */\n    tag_6:\n      tag_30\n      tag_31\n      jump\t// in\n    tag_30:\n      stop\n        /* \"contracts/first_contract.sol\":1324:1554  function joinAsClient() public payable returns(string memory){\r... */\n    tag_7:\n      tag_32\n      tag_33\n      jump\t// in\n    tag_32:\n      mload(0x40)\n      tag_34\n      swap2\n      swap1\n      tag_35\n      jump\t// in\n    tag_34:\n      mload(0x40)\n      dup1\n      swap2\n      sub\n      swap1\n      return\n        /* \"contracts/first_contract.sol\":1564:1667  function deposit() public payable onlyClients{\r... */\n    tag_8:\n      tag_36\n      tag_37\n      jump\t// in\n    tag_36:\n      stop\n        /* \"contracts/first_contract.sol\":1177:1316  function setManager(address managerAddress) public returns(string memory){\r... */\n    tag_9:\n      callvalue\n      dup1\n      iszero\n      tag_38\n      jumpi\n      0x00\n      dup1\n      revert\n    tag_38:\n      pop\n      tag_39\n      0x04\n      dup1\n      calldatasize\n      sub\n      dup2\n      add\n      swap1\n      tag_40\n      swap2\n      swap1\n      tag_41\n      jump\t// in\n    tag_40:\n      tag_42\n      jump\t// in\n    tag_39:\n      mload(0x40)\n      tag_43\n      swap2\n      swap1\n      tag_35\n      jump\t// in\n    tag_43:\n      mload(0x40)\n      dup1\n      swap2\n      sub\n      swap1\n      return\n        /* \"contracts/first_contract.sol\":574:618  mapping(address => uint) public interestDate */\n    tag_10:\n      callvalue\n      dup1\n      iszero\n      tag_44\n      jumpi\n      0x00\n      dup1\n      revert\n    tag_44:\n      pop\n      tag_45\n      0x04\n      dup1\n      calldatasize\n      sub\n      dup2\n      add\n      swap1\n      tag_46\n      swap2\n      swap1\n      tag_41\n      jump\t// in\n    tag_46:\n      tag_47\n      jump\t// in\n    tag_45:\n      mload(0x40)\n      tag_48\n      swap2\n      swap1\n      tag_29\n      jump\t// in\n    tag_48:\n      mload(0x40)\n      dup1\n      swap2\n      sub\n      swap1\n      return\n        /* \"contracts/first_contract.sol\":3184:3655  function sendCoke(address _to, uint256 _amount) external {\r... */\n    tag_11:\n      callvalue\n      dup1\n      iszero\n      tag_49\n      jumpi\n      0x00\n      dup1\n      revert\n    tag_49:\n      pop\n      tag_50\n      0x04\n      dup1\n      calldatasize\n      sub\n      dup2\n      add\n      swap1\n      tag_51\n      swap2\n      swap1\n      tag_52\n      jump\t// in\n    tag_51:\n      tag_53\n      jump\t// in\n    tag_50:\n      stop\n        /* \"contracts/first_contract.sol\":2372:2489  function getCountClient() public view returns(uint){\r... */\n    tag_12:\n      callvalue\n      dup1\n      iszero\n      tag_54\n      jumpi\n      0x00\n      dup1\n      revert\n    tag_54:\n      pop\n      tag_55\n      tag_56\n      jump\t// in\n    tag_55:\n      mload(0x40)\n      tag_57\n      swap2\n      swap1\n      tag_29\n      jump\t// in\n    tag_57:\n      mload(0x40)\n      dup1\n      swap2\n      sub\n      swap1\n      return\n        /* \"contracts/first_contract.sol\":1675:1858  function withdraw(uint amount) public payable onlyClients{\r... */\n    tag_19:\n        /* \"contracts/first_contract.sol\":843:856  bool isClient */\n      0x00\n        /* \"contracts/first_contract.sol\":879:885  uint i */\n      dup1\n        /* \"contracts/first_contract.sol\":875:1052  for(uint i=0;i<clients.length;i++){\r... */\n    tag_59:\n        /* \"contracts/first_contract.sol\":890:897  clients */\n      0x00\n        /* \"contracts/first_contract.sol\":890:904  clients.length */\n      dup1\n      sload\n      swap1\n      pop\n        /* \"contracts/first_contract.sol\":888:889  i */\n      dup2\n        /* \"contracts/first_contract.sol\":888:904  i<clients.length */\n      lt\n        /* \"contracts/first_contract.sol\":875:1052  for(uint i=0;i<clients.length;i++){\r... */\n      iszero\n      tag_60\n      jumpi\n        /* \"contracts/first_contract.sol\":956:966  msg.sender */\n      caller\n        /* \"contracts/first_contract.sol\":927:966  clients[i].client_address == msg.sender */\n      0xffffffffffffffffffffffffffffffffffffffff\n      and\n        /* \"contracts/first_contract.sol\":927:934  clients */\n      0x00\n        /* \"contracts/first_contract.sol\":935:936  i */\n      dup3\n        /* \"contracts/first_contract.sol\":927:937  clients[i] */\n      dup2\n      sload\n      dup2\n      lt\n      tag_62\n      jumpi\n      tag_63\n      tag_64\n      jump\t// in\n    tag_63:\n    tag_62:\n      swap1\n      0x00\n      mstore\n      keccak256(0x00, 0x20)\n      swap1\n      0x03\n      mul\n      add\n        /* \"contracts/first_contract.sol\":927:952  clients[i].client_address */\n      0x01\n      add\n      0x00\n      swap1\n      sload\n      swap1\n      0x0100\n      exp\n      swap1\n      div\n      0xffffffffffffffffffffffffffffffffffffffff\n      and\n        /* \"contracts/first_contract.sol\":927:966  clients[i].client_address == msg.sender */\n      0xffffffffffffffffffffffffffffffffffffffff\n      and\n      eq\n        /* \"contracts/first_contract.sol\":924:1041  if(clients[i].client_address == msg.sender){\r... */\n      iszero\n      tag_66\n      jumpi\n        /* \"contracts/first_contract.sol\":997:1001  true */\n      0x01\n        /* \"contracts/first_contract.sol\":986:1001  isClient = true */\n      swap2\n      pop\n        /* \"contracts/first_contract.sol\":1020:1025  break */\n      jump(tag_60)\n        /* \"contracts/first_contract.sol\":924:1041  if(clients[i].client_address == msg.sender){\r... */\n    tag_66:\n        /* \"contracts/first_contract.sol\":905:908  i++ */\n      dup1\n      dup1\n      tag_67\n      swap1\n      tag_68\n      jump\t// in\n    tag_67:\n      swap2\n      pop\n      pop\n        /* \"contracts/first_contract.sol\":875:1052  for(uint i=0;i<clients.length;i++){\r... */\n      jump(tag_59)\n    tag_60:\n      pop\n        /* \"contracts/first_contract.sol\":1070:1078  isClient */\n      dup1\n        /* \"contracts/first_contract.sol\":1062:1105  require(isClient, \"Only clients can call!\") */\n      tag_69\n      jumpi\n      mload(0x40)\n      0x08c379a000000000000000000000000000000000000000000000000000000000\n      dup2\n      mstore\n      0x04\n      add\n      tag_70\n      swap1\n      tag_71\n      jump\t// in\n    tag_70:\n      mload(0x40)\n      dup1\n      swap2\n      sub\n      swap1\n      revert\n    tag_69:\n        /* \"contracts/first_contract.sol\":1743:1762  address sender_temp */\n      0x00\n        /* \"contracts/first_contract.sol\":1787:1797  msg.sender */\n      caller\n        /* \"contracts/first_contract.sol\":1773:1797  sender_temp = msg.sender */\n      swap1\n      pop\n        /* \"contracts/first_contract.sol\":1813:1824  sender_temp */\n      dup1\n        /* \"contracts/first_contract.sol\":1805:1834  payable(sender_temp).transfer */\n      0xffffffffffffffffffffffffffffffffffffffff\n      and\n        /* \"contracts/first_contract.sol\":1805:1850  payable(sender_temp).transfer(amount * 1 wei) */\n      0x08fc\n        /* \"contracts/first_contract.sol\":1844:1849  1 wei */\n      0x01\n        /* \"contracts/first_contract.sol\":1835:1841  amount */\n      dup6\n        /* \"contracts/first_contract.sol\":1835:1849  amount * 1 wei */\n      tag_73\n      swap2\n      swap1\n      tag_74\n      jump\t// in\n    tag_73:\n        /* \"contracts/first_contract.sol\":1805:1850  payable(sender_temp).transfer(amount * 1 wei) */\n      swap1\n      dup2\n      iszero\n      mul\n      swap1\n      mload(0x40)\n      0x00\n      mload(0x40)\n      dup1\n      dup4\n      sub\n      dup2\n      dup6\n      dup9\n      dup9\n      call\n      swap4\n      pop\n      pop\n      pop\n      pop\n      iszero\n      dup1\n      iszero\n      tag_76\n      jumpi\n      returndatasize\n      0x00\n      dup1\n      returndatacopy\n      revert(0x00, returndatasize)\n    tag_76:\n      pop\n        /* \"contracts/first_contract.sol\":1732:1858  {\r... */\n      pop\n        /* \"contracts/first_contract.sol\":832:1125  {\r... */\n      pop\n        /* \"contracts/first_contract.sol\":1675:1858  function withdraw(uint amount) public payable onlyClients{\r... */\n      pop\n      jump\t// out\n        /* \"contracts/first_contract.sol\":2497:3067  function getClients() public view returns (address[] memory,uint[] memory) {\r... */\n    tag_22:\n        /* \"contracts/first_contract.sol\":2540:2556  address[] memory */\n      0x60\n        /* \"contracts/first_contract.sol\":2557:2570  uint[] memory */\n      dup1\n        /* \"contracts/first_contract.sol\":2585:2616  address[] memory client_address */\n      0x00\n        /* \"contracts/first_contract.sol\":2633:2640  clients */\n      dup1\n        /* \"contracts/first_contract.sol\":2633:2647  clients.length */\n      dup1\n      sload\n      swap1\n      pop\n        /* \"contracts/first_contract.sol\":2619:2648  new address[](clients.length) */\n      0xffffffffffffffff\n      dup2\n      gt\n      iszero\n      tag_78\n      jumpi\n      tag_79\n      tag_80\n      jump\t// in\n    tag_79:\n    tag_78:\n      mload(0x40)\n      swap1\n      dup1\n      dup3\n      mstore\n      dup1\n      0x20\n      mul\n      0x20\n      add\n      dup3\n      add\n      0x40\n      mstore\n      dup1\n      iszero\n      tag_81\n      jumpi\n      dup2\n      0x20\n      add\n      0x20\n      dup3\n      mul\n      dup1\n      calldatasize\n      dup4\n      calldatacopy\n      dup1\n      dup3\n      add\n      swap2\n      pop\n      pop\n      swap1\n      pop\n    tag_81:\n      pop\n        /* \"contracts/first_contract.sol\":2585:2648  address[] memory client_address = new address[](clients.length) */\n      swap1\n      pop\n        /* \"contracts/first_contract.sol\":2657:2697  uint[]    memory client_balance_in_ether */\n      0x00\n        /* \"contracts/first_contract.sol\":2711:2718  clients */\n      dup1\n        /* \"contracts/first_contract.sol\":2711:2725  clients.length */\n      dup1\n      sload\n      swap1\n      pop\n        /* \"contracts/first_contract.sol\":2700:2726  new uint[](clients.length) */\n      0xffffffffffffffff\n      dup2\n      gt\n      iszero\n      tag_82\n      jumpi\n      tag_83\n      tag_80\n      jump\t// in\n    tag_83:\n    tag_82:\n      mload(0x40)\n      swap1\n      dup1\n      dup3\n      mstore\n      dup1\n      0x20\n      mul\n      0x20\n      add\n      dup3\n      add\n      0x40\n      mstore\n      dup1\n      iszero\n      tag_84\n      jumpi\n      dup2\n      0x20\n      add\n      0x20\n      dup3\n      mul\n      dup1\n      calldatasize\n      dup4\n      calldatacopy\n      dup1\n      dup3\n      add\n      swap2\n      pop\n      pop\n      swap1\n      pop\n    tag_84:\n      pop\n        /* \"contracts/first_contract.sol\":2657:2726  uint[]    memory client_balance_in_ether = new uint[](clients.length) */\n      swap1\n      pop\n        /* \"contracts/first_contract.sol\":2744:2750  uint i */\n      0x00\n        /* \"contracts/first_contract.sol\":2739:2990  for (uint i = 0; i < clients.length; i++) {\r... */\n    tag_85:\n        /* \"contracts/first_contract.sol\":2760:2767  clients */\n      0x00\n        /* \"contracts/first_contract.sol\":2760:2774  clients.length */\n      dup1\n      sload\n      swap1\n      pop\n        /* \"contracts/first_contract.sol\":2756:2757  i */\n      dup2\n        /* \"contracts/first_contract.sol\":2756:2774  i < clients.length */\n      lt\n        /* \"contracts/first_contract.sol\":2739:2990  for (uint i = 0; i < clients.length; i++) {\r... */\n      iszero\n      tag_86\n      jumpi\n        /* \"contracts/first_contract.sol\":2875:2882  clients */\n      0x00\n        /* \"contracts/first_contract.sol\":2883:2884  i */\n      dup2\n        /* \"contracts/first_contract.sol\":2875:2885  clients[i] */\n      dup2\n      sload\n      dup2\n      lt\n      tag_88\n      jumpi\n      tag_89\n      tag_64\n      jump\t// in\n    tag_89:\n    tag_88:\n      swap1\n      0x00\n      mstore\n      keccak256(0x00, 0x20)\n      swap1\n      0x03\n      mul\n      add\n        /* \"contracts/first_contract.sol\":2875:2900  clients[i].client_address */\n      0x01\n      add\n      0x00\n      swap1\n      sload\n      swap1\n      0x0100\n      exp\n      swap1\n      div\n      0xffffffffffffffffffffffffffffffffffffffff\n      and\n        /* \"contracts/first_contract.sol\":2855:2869  client_address */\n      dup4\n        /* \"contracts/first_contract.sol\":2870:2871  i */\n      dup3\n        /* \"contracts/first_contract.sol\":2855:2872  client_address[i] */\n      dup2\n      mload\n      dup2\n      lt\n      tag_91\n      jumpi\n      tag_92\n      tag_64\n      jump\t// in\n    tag_92:\n    tag_91:\n      0x20\n      mul\n      0x20\n      add\n      add\n        /* \"contracts/first_contract.sol\":2855:2900  client_address[i] = clients[i].client_address */\n      swap1\n      0xffffffffffffffffffffffffffffffffffffffff\n      and\n      swap1\n      dup2\n      0xffffffffffffffffffffffffffffffffffffffff\n      and\n      dup2\n      mstore\n      pop\n      pop\n        /* \"contracts/first_contract.sol\":2944:2951  clients */\n      0x00\n        /* \"contracts/first_contract.sol\":2952:2953  i */\n      dup2\n        /* \"contracts/first_contract.sol\":2944:2954  clients[i] */\n      dup2\n      sload\n      dup2\n      lt\n      tag_93\n      jumpi\n      tag_94\n      tag_64\n      jump\t// in\n    tag_94:\n    tag_93:\n      swap1\n      0x00\n      mstore\n      keccak256(0x00, 0x20)\n      swap1\n      0x03\n      mul\n      add\n        /* \"contracts/first_contract.sol\":2944:2978  clients[i].client_balance_in_ether */\n      0x02\n      add\n      sload\n        /* \"contracts/first_contract.sol\":2915:2938  client_balance_in_ether */\n      dup3\n        /* \"contracts/first_contract.sol\":2939:2940  i */\n      dup3\n        /* \"contracts/first_contract.sol\":2915:2941  client_balance_in_ether[i] */\n      dup2\n      mload\n      dup2\n      lt\n      tag_96\n      jumpi\n      tag_97\n      tag_64\n      jump\t// in\n    tag_97:\n    tag_96:\n      0x20\n      mul\n      0x20\n      add\n      add\n        /* \"contracts/first_contract.sol\":2915:2978  client_balance_in_ether[i] = clients[i].client_balance_in_ether */\n      dup2\n      dup2\n      mstore\n      pop\n      pop\n        /* \"contracts/first_contract.sol\":2776:2779  i++ */\n      dup1\n      dup1\n      tag_98\n      swap1\n      tag_68\n      jump\t// in\n    tag_98:\n      swap2\n      pop\n      pop\n        /* \"contracts/first_contract.sol\":2739:2990  for (uint i = 0; i < clients.length; i++) {\r... */\n      jump(tag_85)\n    tag_86:\n      pop\n        /* \"contracts/first_contract.sol\":3018:3032  client_address */\n      dup2\n        /* \"contracts/first_contract.sol\":3034:3057  client_balance_in_ether */\n      dup2\n        /* \"contracts/first_contract.sol\":3010:3058  return (client_address, client_balance_in_ether) */\n      swap4\n      pop\n      swap4\n      pop\n      pop\n      pop\n        /* \"contracts/first_contract.sol\":2497:3067  function getClients() public view returns (address[] memory,uint[] memory) {\r... */\n      swap1\n      swap2\n      jump\t// out\n        /* \"contracts/first_contract.sol\":3074:3176  function getContractBalance() public view returns(uint){\r... */\n    tag_27:\n        /* \"contracts/first_contract.sol\":3124:3128  uint */\n      0x00\n        /* \"contracts/first_contract.sol\":3147:3168  address(this).balance */\n      selfbalance\n        /* \"contracts/first_contract.sol\":3140:3168  return address(this).balance */\n      swap1\n      pop\n        /* \"contracts/first_contract.sol\":3074:3176  function getContractBalance() public view returns(uint){\r... */\n      swap1\n      jump\t// out\n        /* \"contracts/first_contract.sol\":1866:2356  function sendInterest() public payable onlyManager{\r... */\n    tag_31:\n        /* \"contracts/first_contract.sol\":749:756  manager */\n      0x02\n      0x00\n      swap1\n      sload\n      swap1\n      0x0100\n      exp\n      swap1\n      div\n      0xffffffffffffffffffffffffffffffffffffffff\n      and\n        /* \"contracts/first_contract.sol\":735:756  msg.sender == manager */\n      0xffffffffffffffffffffffffffffffffffffffff\n      and\n        /* \"contracts/first_contract.sol\":735:745  msg.sender */\n      caller\n        /* \"contracts/first_contract.sol\":735:756  msg.sender == manager */\n      0xffffffffffffffffffffffffffffffffffffffff\n      and\n      eq\n        /* \"contracts/first_contract.sol\":727:783  require(msg.sender == manager, \"Only manager can call!\") */\n      tag_101\n      jumpi\n      mload(0x40)\n      0x08c379a000000000000000000000000000000000000000000000000000000000\n      dup2\n      mstore\n      0x04\n      add\n      tag_102\n      swap1\n      tag_103\n      jump\t// in\n    tag_102:\n      mload(0x40)\n      dup1\n      swap2\n      sub\n      swap1\n      revert\n    tag_101:\n        /* \"contracts/first_contract.sol\":1928:1934  uint i */\n      0x00\n        /* \"contracts/first_contract.sol\":1924:2349  for(uint i=0;i<clients.length;i++){\r... */\n    tag_105:\n        /* \"contracts/first_contract.sol\":1939:1946  clients */\n      0x00\n        /* \"contracts/first_contract.sol\":1939:1953  clients.length */\n      dup1\n      sload\n      swap1\n      pop\n        /* \"contracts/first_contract.sol\":1937:1938  i */\n      dup2\n        /* \"contracts/first_contract.sol\":1937:1953  i<clients.length */\n      lt\n        /* \"contracts/first_contract.sol\":1924:2349  for(uint i=0;i<clients.length;i++){\r... */\n      iszero\n      tag_106\n      jumpi\n        /* \"contracts/first_contract.sol\":1971:1993  address initialAddress */\n      0x00\n        /* \"contracts/first_contract.sol\":1996:2003  clients */\n      dup1\n        /* \"contracts/first_contract.sol\":2004:2005  i */\n      dup3\n        /* \"contracts/first_contract.sol\":1996:2006  clients[i] */\n      dup2\n      sload\n      dup2\n      lt\n      tag_108\n      jumpi\n      tag_109\n      tag_64\n      jump\t// in\n    tag_109:\n    tag_108:\n      swap1\n      0x00\n      mstore\n      keccak256(0x00, 0x20)\n      swap1\n      0x03\n      mul\n      add\n        /* \"contracts/first_contract.sol\":1996:2021  clients[i].client_address */\n      0x01\n      add\n      0x00\n      swap1\n      sload\n      swap1\n      0x0100\n      exp\n      swap1\n      div\n      0xffffffffffffffffffffffffffffffffffffffff\n      and\n        /* \"contracts/first_contract.sol\":1971:2021  address initialAddress = clients[i].client_address */\n      swap1\n      pop\n        /* \"contracts/first_contract.sol\":2034:2055  uint lastInterestDate */\n      0x00\n        /* \"contracts/first_contract.sol\":2058:2070  interestDate */\n      0x03\n        /* \"contracts/first_contract.sol\":2058:2086  interestDate[initialAddress] */\n      0x00\n        /* \"contracts/first_contract.sol\":2071:2085  initialAddress */\n      dup4\n        /* \"contracts/first_contract.sol\":2058:2086  interestDate[initialAddress] */\n      0xffffffffffffffffffffffffffffffffffffffff\n      and\n      0xffffffffffffffffffffffffffffffffffffffff\n      and\n      dup2\n      mstore\n      0x20\n      add\n      swap1\n      dup2\n      mstore\n      0x20\n      add\n      0x00\n      keccak256\n      sload\n        /* \"contracts/first_contract.sol\":2034:2086  uint lastInterestDate = interestDate[initialAddress] */\n      swap1\n      pop\n        /* \"contracts/first_contract.sol\":2139:2149  10 seconds */\n      0x0a\n        /* \"contracts/first_contract.sol\":2120:2136  lastInterestDate */\n      dup2\n        /* \"contracts/first_contract.sol\":2120:2149  lastInterestDate + 10 seconds */\n      tag_111\n      swap2\n      swap1\n      tag_112\n      jump\t// in\n    tag_111:\n        /* \"contracts/first_contract.sol\":2102:2117  block.timestamp */\n      timestamp\n        /* \"contracts/first_contract.sol\":2102:2149  block.timestamp < lastInterestDate + 10 seconds */\n      lt\n        /* \"contracts/first_contract.sol\":2099:2228  if(block.timestamp < lastInterestDate + 10 seconds){\r... */\n      iszero\n      tag_113\n      jumpi\n        /* \"contracts/first_contract.sol\":2168:2214  revert(\"It's just been less than 10 seconds!\") */\n      mload(0x40)\n      0x08c379a000000000000000000000000000000000000000000000000000000000\n      dup2\n      mstore\n      0x04\n      add\n      tag_114\n      swap1\n      tag_115\n      jump\t// in\n    tag_114:\n      mload(0x40)\n      dup1\n      swap2\n      sub\n      swap1\n      revert\n        /* \"contracts/first_contract.sol\":2099:2228  if(block.timestamp < lastInterestDate + 10 seconds){\r... */\n    tag_113:\n        /* \"contracts/first_contract.sol\":2248:2262  initialAddress */\n      dup2\n        /* \"contracts/first_contract.sol\":2240:2272  payable(initialAddress).transfer */\n      0xffffffffffffffffffffffffffffffffffffffff\n      and\n        /* \"contracts/first_contract.sol\":2240:2281  payable(initialAddress).transfer(1 ether) */\n      0x08fc\n        /* \"contracts/first_contract.sol\":2273:2280  1 ether */\n      0x0de0b6b3a7640000\n        /* \"contracts/first_contract.sol\":2240:2281  payable(initialAddress).transfer(1 ether) */\n      swap1\n      dup2\n      iszero\n      mul\n      swap1\n      mload(0x40)\n      0x00\n      mload(0x40)\n      dup1\n      dup4\n      sub\n      dup2\n      dup6\n      dup9\n      dup9\n      call\n      swap4\n      pop\n      pop\n      pop\n      pop\n      iszero\n      dup1\n      iszero\n      tag_117\n      jumpi\n      returndatasize\n      0x00\n      dup1\n      returndatacopy\n      revert(0x00, returndatasize)\n    tag_117:\n      pop\n        /* \"contracts/first_contract.sol\":2325:2340  block.timestamp */\n      timestamp\n        /* \"contracts/first_contract.sol\":2294:2306  interestDate */\n      0x03\n        /* \"contracts/first_contract.sol\":2294:2322  interestDate[initialAddress] */\n      0x00\n        /* \"contracts/first_contract.sol\":2307:2321  initialAddress */\n      dup5\n        /* \"contracts/first_contract.sol\":2294:2322  interestDate[initialAddress] */\n      0xffffffffffffffffffffffffffffffffffffffff\n      and\n      0xffffffffffffffffffffffffffffffffffffffff\n      and\n      dup2\n      mstore\n      0x20\n      add\n      swap1\n      dup2\n      mstore\n      0x20\n      add\n      0x00\n      keccak256\n        /* \"contracts/first_contract.sol\":2294:2340  interestDate[initialAddress] = block.timestamp */\n      dup2\n      swap1\n      sstore\n      pop\n        /* \"contracts/first_contract.sol\":1958:2349  {\r... */\n      pop\n      pop\n        /* \"contracts/first_contract.sol\":1954:1957  i++ */\n      dup1\n      dup1\n      tag_118\n      swap1\n      tag_68\n      jump\t// in\n    tag_118:\n      swap2\n      pop\n      pop\n        /* \"contracts/first_contract.sol\":1924:2349  for(uint i=0;i<clients.length;i++){\r... */\n      jump(tag_105)\n    tag_106:\n      pop\n        /* \"contracts/first_contract.sol\":1866:2356  function sendInterest() public payable onlyManager{\r... */\n      jump\t// out\n        /* \"contracts/first_contract.sol\":1324:1554  function joinAsClient() public payable returns(string memory){\r... */\n    tag_33:\n        /* \"contracts/first_contract.sol\":1371:1384  string memory */\n      0x60\n        /* \"contracts/first_contract.sol\":1420:1435  block.timestamp */\n      timestamp\n        /* \"contracts/first_contract.sol\":1393:1405  interestDate */\n      0x03\n        /* \"contracts/first_contract.sol\":1393:1417  interestDate[msg.sender] */\n      0x00\n        /* \"contracts/first_contract.sol\":1406:1416  msg.sender */\n      caller\n        /* \"contracts/first_contract.sol\":1393:1417  interestDate[msg.sender] */\n      0xffffffffffffffffffffffffffffffffffffffff\n      and\n      0xffffffffffffffffffffffffffffffffffffffff\n      and\n      dup2\n      mstore\n      0x20\n      add\n      swap1\n      dup2\n      mstore\n      0x20\n      add\n      0x00\n      keccak256\n        /* \"contracts/first_contract.sol\":1393:1435  interestDate[msg.sender] = block.timestamp */\n      dup2\n      swap1\n      sstore\n      pop\n        /* \"contracts/first_contract.sol\":1443:1450  clients */\n      0x00\n        /* \"contracts/first_contract.sol\":1456:1528  client_account(clientCounter++, msg.sender, address(msg.sender).balance) */\n      mload(0x40)\n      dup1\n      0x60\n      add\n      0x40\n      mstore\n      dup1\n        /* \"contracts/first_contract.sol\":1471:1484  clientCounter */\n      0x01\n      0x00\n        /* \"contracts/first_contract.sol\":1471:1486  clientCounter++ */\n      dup2\n      sload\n      dup1\n      swap3\n      swap2\n      swap1\n      tag_120\n      swap1\n      tag_121\n      jump\t// in\n    tag_120:\n      swap2\n      swap1\n      pop\n      sstore\n        /* \"contracts/first_contract.sol\":1456:1528  client_account(clientCounter++, msg.sender, address(msg.sender).balance) */\n      dup2\n      mstore\n      0x20\n      add\n        /* \"contracts/first_contract.sol\":1488:1498  msg.sender */\n      caller\n        /* \"contracts/first_contract.sol\":1456:1528  client_account(clientCounter++, msg.sender, address(msg.sender).balance) */\n      0xffffffffffffffffffffffffffffffffffffffff\n      and\n      dup2\n      mstore\n      0x20\n      add\n        /* \"contracts/first_contract.sol\":1508:1518  msg.sender */\n      caller\n        /* \"contracts/first_contract.sol\":1500:1527  address(msg.sender).balance */\n      0xffffffffffffffffffffffffffffffffffffffff\n      and\n      balance\n        /* \"contracts/first_contract.sol\":1456:1528  client_account(clientCounter++, msg.sender, address(msg.sender).balance) */\n      dup2\n      mstore\n      pop\n        /* \"contracts/first_contract.sol\":1443:1529  clients.push(client_account(clientCounter++, msg.sender, address(msg.sender).balance)) */\n      swap1\n      dup1\n      0x01\n      dup2\n      sload\n      add\n      dup1\n      dup3\n      sstore\n      dup1\n      swap2\n      pop\n      pop\n      0x01\n      swap1\n      sub\n      swap1\n      0x00\n      mstore\n      keccak256(0x00, 0x20)\n      swap1\n      0x03\n      mul\n      add\n      0x00\n      swap1\n      swap2\n      swap1\n      swap2\n      swap1\n      swap2\n      pop\n      0x00\n      dup3\n      add\n      mload\n      dup2\n      0x00\n      add\n      sstore\n      0x20\n      dup3\n      add\n      mload\n      dup2\n      0x01\n      add\n      exp(0x0100, 0x00)\n      dup2\n      sload\n      dup2\n      0xffffffffffffffffffffffffffffffffffffffff\n      mul\n      not\n      and\n      swap1\n      dup4\n      0xffffffffffffffffffffffffffffffffffffffff\n      and\n      mul\n      or\n      swap1\n      sstore\n      pop\n      0x40\n      dup3\n      add\n      mload\n      dup2\n      0x02\n      add\n      sstore\n      pop\n      pop\n        /* \"contracts/first_contract.sol\":1537:1546  return \"\" */\n      mload(0x40)\n      dup1\n      0x20\n      add\n      0x40\n      mstore\n      dup1\n      0x00\n      dup2\n      mstore\n      pop\n      swap1\n      pop\n        /* \"contracts/first_contract.sol\":1324:1554  function joinAsClient() public payable returns(string memory){\r... */\n      swap1\n      jump\t// out\n        /* \"contracts/first_contract.sol\":1564:1667  function deposit() public payable onlyClients{\r... */\n    tag_37:\n        /* \"contracts/first_contract.sol\":843:856  bool isClient */\n      0x00\n        /* \"contracts/first_contract.sol\":879:885  uint i */\n      dup1\n        /* \"contracts/first_contract.sol\":875:1052  for(uint i=0;i<clients.length;i++){\r... */\n    tag_124:\n        /* \"contracts/first_contract.sol\":890:897  clients */\n      0x00\n        /* \"contracts/first_contract.sol\":890:904  clients.length */\n      dup1\n      sload\n      swap1\n      pop\n        /* \"contracts/first_contract.sol\":888:889  i */\n      dup2\n        /* \"contracts/first_contract.sol\":888:904  i<clients.length */\n      lt\n        /* \"contracts/first_contract.sol\":875:1052  for(uint i=0;i<clients.length;i++){\r... */\n      iszero\n      tag_125\n      jumpi\n        /* \"contracts/first_contract.sol\":956:966  msg.sender */\n      caller\n        /* \"contracts/first_contract.sol\":927:966  clients[i].client_address == msg.sender */\n      0xffffffffffffffffffffffffffffffffffffffff\n      and\n        /* \"contracts/first_contract.sol\":927:934  clients */\n      0x00\n        /* \"contracts/first_contract.sol\":935:936  i */\n      dup3\n        /* \"contracts/first_contract.sol\":927:937  clients[i] */\n      dup2\n      sload\n      dup2\n      lt\n      tag_127\n      jumpi\n      tag_128\n      tag_64\n      jump\t// in\n    tag_128:\n    tag_127:\n      swap1\n      0x00\n      mstore\n      keccak256(0x00, 0x20)\n      swap1\n      0x03\n      mul\n      add\n        /* \"contracts/first_contract.sol\":927:952  clients[i].client_address */\n      0x01\n      add\n      0x00\n      swap1\n      sload\n      swap1\n      0x0100\n      exp\n      swap1\n      div\n      0xffffffffffffffffffffffffffffffffffffffff\n      and\n        /* \"contracts/first_contract.sol\":927:966  clients[i].client_address == msg.sender */\n      0xffffffffffffffffffffffffffffffffffffffff\n      and\n      eq\n        /* \"contracts/first_contract.sol\":924:1041  if(clients[i].client_address == msg.sender){\r... */\n      iszero\n      tag_130\n      jumpi\n        /* \"contracts/first_contract.sol\":997:1001  true */\n      0x01\n        /* \"contracts/first_contract.sol\":986:1001  isClient = true */\n      swap2\n      pop\n        /* \"contracts/first_contract.sol\":1020:1025  break */\n      jump(tag_125)\n        /* \"contracts/first_contract.sol\":924:1041  if(clients[i].client_address == msg.sender){\r... */\n    tag_130:\n        /* \"contracts/first_contract.sol\":905:908  i++ */\n      dup1\n      dup1\n      tag_131\n      swap1\n      tag_68\n      jump\t// in\n    tag_131:\n      swap2\n      pop\n      pop\n        /* \"contracts/first_contract.sol\":875:1052  for(uint i=0;i<clients.length;i++){\r... */\n      jump(tag_124)\n    tag_125:\n      pop\n        /* \"contracts/first_contract.sol\":1070:1078  isClient */\n      dup1\n        /* \"contracts/first_contract.sol\":1062:1105  require(isClient, \"Only clients can call!\") */\n      tag_132\n      jumpi\n      mload(0x40)\n      0x08c379a000000000000000000000000000000000000000000000000000000000\n      dup2\n      mstore\n      0x04\n      add\n      tag_133\n      swap1\n      tag_71\n      jump\t// in\n    tag_133:\n      mload(0x40)\n      dup1\n      swap2\n      sub\n      swap1\n      revert\n    tag_132:\n        /* \"contracts/first_contract.sol\":1633:1637  this */\n      address\n        /* \"contracts/first_contract.sol\":1617:1648  payable(address(this)).transfer */\n      0xffffffffffffffffffffffffffffffffffffffff\n      and\n        /* \"contracts/first_contract.sol\":1617:1659  payable(address(this)).transfer(msg.value) */\n      0x08fc\n        /* \"contracts/first_contract.sol\":1649:1658  msg.value */\n      callvalue\n        /* \"contracts/first_contract.sol\":1617:1659  payable(address(this)).transfer(msg.value) */\n      swap1\n      dup2\n      iszero\n      mul\n      swap1\n      mload(0x40)\n      0x00\n      mload(0x40)\n      dup1\n      dup4\n      sub\n      dup2\n      dup6\n      dup9\n      dup9\n      call\n      swap4\n      pop\n      pop\n      pop\n      pop\n      iszero\n      dup1\n      iszero\n      tag_136\n      jumpi\n      returndatasize\n      0x00\n      dup1\n      returndatacopy\n      revert(0x00, returndatasize)\n    tag_136:\n      pop\n        /* \"contracts/first_contract.sol\":832:1125  {\r... */\n      pop\n        /* \"contracts/first_contract.sol\":1564:1667  function deposit() public payable onlyClients{\r... */\n      jump\t// out\n        /* \"contracts/first_contract.sol\":1177:1316  function setManager(address managerAddress) public returns(string memory){\r... */\n    tag_42:\n        /* \"contracts/first_contract.sol\":1236:1249  string memory */\n      0x60\n        /* \"contracts/first_contract.sol\":1276:1290  managerAddress */\n      dup2\n        /* \"contracts/first_contract.sol\":1258:1265  manager */\n      0x02\n      0x00\n        /* \"contracts/first_contract.sol\":1258:1291  manager = payable(managerAddress) */\n      0x0100\n      exp\n      dup2\n      sload\n      dup2\n      0xffffffffffffffffffffffffffffffffffffffff\n      mul\n      not\n      and\n      swap1\n      dup4\n      0xffffffffffffffffffffffffffffffffffffffff\n      and\n      mul\n      or\n      swap1\n      sstore\n      pop\n        /* \"contracts/first_contract.sol\":1299:1308  return \"\" */\n      mload(0x40)\n      dup1\n      0x20\n      add\n      0x40\n      mstore\n      dup1\n      0x00\n      dup2\n      mstore\n      pop\n      swap1\n      pop\n        /* \"contracts/first_contract.sol\":1177:1316  function setManager(address managerAddress) public returns(string memory){\r... */\n      swap2\n      swap1\n      pop\n      jump\t// out\n        /* \"contracts/first_contract.sol\":574:618  mapping(address => uint) public interestDate */\n    tag_47:\n      mstore(0x20, 0x03)\n      dup1\n      0x00\n      mstore\n      keccak256(0x00, 0x40)\n      0x00\n      swap2\n      pop\n      swap1\n      pop\n      sload\n      dup2\n      jump\t// out\n        /* \"contracts/first_contract.sol\":3184:3655  function sendCoke(address _to, uint256 _amount) external {\r... */\n    tag_53:\n        /* \"contracts/first_contract.sol\":3447:3457  ERC20 coke */\n      0x00\n        /* \"contracts/first_contract.sol\":3474:3516  0xd9145CCE52D386f254917e481eB44e9943F39138 */\n      0xd9145cce52d386f254917e481eb44e9943f39138\n        /* \"contracts/first_contract.sol\":3447:3518  ERC20 coke = ERC20(address(0xd9145CCE52D386f254917e481eB44e9943F39138)) */\n      swap1\n      pop\n        /* \"contracts/first_contract.sol\":3620:3624  coke */\n      dup1\n        /* \"contracts/first_contract.sol\":3620:3633  coke.transfer */\n      0xffffffffffffffffffffffffffffffffffffffff\n      and\n      0xa9059cbb\n        /* \"contracts/first_contract.sol\":3634:3637  _to */\n      dup5\n        /* \"contracts/first_contract.sol\":3639:3646  _amount */\n      dup5\n        /* \"contracts/first_contract.sol\":3620:3647  coke.transfer(_to, _amount) */\n      mload(0x40)\n      dup4\n      0xffffffff\n      and\n      0xe0\n      shl\n      dup2\n      mstore\n      0x04\n      add\n      tag_139\n      swap3\n      swap2\n      swap1\n      tag_140\n      jump\t// in\n    tag_139:\n      0x20\n      mload(0x40)\n      dup1\n      dup4\n      sub\n      dup2\n      0x00\n      dup8\n      dup1\n      extcodesize\n      iszero\n      dup1\n      iszero\n      tag_141\n      jumpi\n      0x00\n      dup1\n      revert\n    tag_141:\n      pop\n      gas\n      call\n      iszero\n      dup1\n      iszero\n      tag_143\n      jumpi\n      returndatasize\n      0x00\n      dup1\n      returndatacopy\n      revert(0x00, returndatasize)\n    tag_143:\n      pop\n      pop\n      pop\n      pop\n      mload(0x40)\n      returndatasize\n      not(0x1f)\n      0x1f\n      dup3\n      add\n      and\n      dup3\n      add\n      dup1\n      0x40\n      mstore\n      pop\n      dup2\n      add\n      swap1\n      tag_144\n      swap2\n      swap1\n      tag_145\n      jump\t// in\n    tag_144:\n      pop\n        /* \"contracts/first_contract.sol\":3241:3655  {\r... */\n      pop\n        /* \"contracts/first_contract.sol\":3184:3655  function sendCoke(address _to, uint256 _amount) external {\r... */\n      pop\n      pop\n      jump\t// out\n        /* \"contracts/first_contract.sol\":2372:2489  function getCountClient() public view returns(uint){\r... */\n    tag_56:\n        /* \"contracts/first_contract.sol\":2418:2422  uint */\n      0x00\n        /* \"contracts/first_contract.sol\":2434:2444  uint count */\n      dup1\n        /* \"contracts/first_contract.sol\":2447:2454  clients */\n      0x00\n        /* \"contracts/first_contract.sol\":2447:2461  clients.length */\n      dup1\n      sload\n      swap1\n      pop\n        /* \"contracts/first_contract.sol\":2434:2461  uint count = clients.length */\n      swap1\n      pop\n        /* \"contracts/first_contract.sol\":2476:2481  count */\n      dup1\n        /* \"contracts/first_contract.sol\":2469:2481  return count */\n      swap2\n      pop\n      pop\n        /* \"contracts/first_contract.sol\":2372:2489  function getCountClient() public view returns(uint){\r... */\n      swap1\n      jump\t// out\n        /* \"#utility.yul\":7:146   */\n    tag_148:\n        /* \"#utility.yul\":53:58   */\n      0x00\n        /* \"#utility.yul\":91:97   */\n      dup2\n        /* \"#utility.yul\":78:98   */\n      calldataload\n        /* \"#utility.yul\":69:98   */\n      swap1\n      pop\n        /* \"#utility.yul\":107:140   */\n      tag_150\n        /* \"#utility.yul\":134:139   */\n      dup2\n        /* \"#utility.yul\":107:140   */\n      tag_151\n      jump\t// in\n    tag_150:\n        /* \"#utility.yul\":7:146   */\n      swap3\n      swap2\n      pop\n      pop\n      jump\t// out\n        /* \"#utility.yul\":152:289   */\n    tag_152:\n        /* \"#utility.yul\":206:211   */\n      0x00\n        /* \"#utility.yul\":237:243   */\n      dup2\n        /* \"#utility.yul\":231:244   */\n      mload\n        /* \"#utility.yul\":222:244   */\n      swap1\n      pop\n        /* \"#utility.yul\":253:283   */\n      tag_154\n        /* \"#utility.yul\":277:282   */\n      dup2\n        /* \"#utility.yul\":253:283   */\n      tag_155\n      jump\t// in\n    tag_154:\n        /* \"#utility.yul\":152:289   */\n      swap3\n      swap2\n      pop\n      pop\n      jump\t// out\n        /* \"#utility.yul\":295:434   */\n    tag_156:\n        /* \"#utility.yul\":341:346   */\n      0x00\n        /* \"#utility.yul\":379:385   */\n      dup2\n        /* \"#utility.yul\":366:386   */\n      calldataload\n        /* \"#utility.yul\":357:386   */\n      swap1\n      pop\n        /* \"#utility.yul\":395:428   */\n      tag_158\n        /* \"#utility.yul\":422:427   */\n      dup2\n        /* \"#utility.yul\":395:428   */\n      tag_159\n      jump\t// in\n    tag_158:\n        /* \"#utility.yul\":295:434   */\n      swap3\n      swap2\n      pop\n      pop\n      jump\t// out\n        /* \"#utility.yul\":440:769   */\n    tag_41:\n        /* \"#utility.yul\":499:505   */\n      0x00\n        /* \"#utility.yul\":548:550   */\n      0x20\n        /* \"#utility.yul\":536:545   */\n      dup3\n        /* \"#utility.yul\":527:534   */\n      dup5\n        /* \"#utility.yul\":523:546   */\n      sub\n        /* \"#utility.yul\":519:551   */\n      slt\n        /* \"#utility.yul\":516:635   */\n      iszero\n      tag_161\n      jumpi\n        /* \"#utility.yul\":554:633   */\n      tag_162\n      tag_163\n      jump\t// in\n    tag_162:\n        /* \"#utility.yul\":516:635   */\n    tag_161:\n        /* \"#utility.yul\":674:675   */\n      0x00\n        /* \"#utility.yul\":699:752   */\n      tag_164\n        /* \"#utility.yul\":744:751   */\n      dup5\n        /* \"#utility.yul\":735:741   */\n      dup3\n        /* \"#utility.yul\":724:733   */\n      dup6\n        /* \"#utility.yul\":720:742   */\n      add\n        /* \"#utility.yul\":699:752   */\n      tag_148\n      jump\t// in\n    tag_164:\n        /* \"#utility.yul\":689:752   */\n      swap2\n      pop\n        /* \"#utility.yul\":645:762   */\n      pop\n        /* \"#utility.yul\":440:769   */\n      swap3\n      swap2\n      pop\n      pop\n      jump\t// out\n        /* \"#utility.yul\":775:1249   */\n    tag_52:\n        /* \"#utility.yul\":843:849   */\n      0x00\n        /* \"#utility.yul\":851:857   */\n      dup1\n        /* \"#utility.yul\":900:902   */\n      0x40\n        /* \"#utility.yul\":888:897   */\n      dup4\n        /* \"#utility.yul\":879:886   */\n      dup6\n        /* \"#utility.yul\":875:898   */\n      sub\n        /* \"#utility.yul\":871:903   */\n      slt\n        /* \"#utility.yul\":868:987   */\n      iszero\n      tag_166\n      jumpi\n        /* \"#utility.yul\":906:985   */\n      tag_167\n      tag_163\n      jump\t// in\n    tag_167:\n        /* \"#utility.yul\":868:987   */\n    tag_166:\n        /* \"#utility.yul\":1026:1027   */\n      0x00\n        /* \"#utility.yul\":1051:1104   */\n      tag_168\n        /* \"#utility.yul\":1096:1103   */\n      dup6\n        /* \"#utility.yul\":1087:1093   */\n      dup3\n        /* \"#utility.yul\":1076:1085   */\n      dup7\n        /* \"#utility.yul\":1072:1094   */\n      add\n        /* \"#utility.yul\":1051:1104   */\n      tag_148\n      jump\t// in\n    tag_168:\n        /* \"#utility.yul\":1041:1104   */\n      swap3\n      pop\n        /* \"#utility.yul\":997:1114   */\n      pop\n        /* \"#utility.yul\":1153:1155   */\n      0x20\n        /* \"#utility.yul\":1179:1232   */\n      tag_169\n        /* \"#utility.yul\":1224:1231   */\n      dup6\n        /* \"#utility.yul\":1215:1221   */\n      dup3\n        /* \"#utility.yul\":1204:1213   */\n      dup7\n        /* \"#utility.yul\":1200:1222   */\n      add\n        /* \"#utility.yul\":1179:1232   */\n      tag_156\n      jump\t// in\n    tag_169:\n        /* \"#utility.yul\":1169:1232   */\n      swap2\n      pop\n        /* \"#utility.yul\":1124:1242   */\n      pop\n        /* \"#utility.yul\":775:1249   */\n      swap3\n      pop\n      swap3\n      swap1\n      pop\n      jump\t// out\n        /* \"#utility.yul\":1255:1600   */\n    tag_145:\n        /* \"#utility.yul\":1322:1328   */\n      0x00\n        /* \"#utility.yul\":1371:1373   */\n      0x20\n        /* \"#utility.yul\":1359:1368   */\n      dup3\n        /* \"#utility.yul\":1350:1357   */\n      dup5\n        /* \"#utility.yul\":1346:1369   */\n      sub\n        /* \"#utility.yul\":1342:1374   */\n      slt\n        /* \"#utility.yul\":1339:1458   */\n      iszero\n      tag_171\n      jumpi\n        /* \"#utility.yul\":1377:1456   */\n      tag_172\n      tag_163\n      jump\t// in\n    tag_172:\n        /* \"#utility.yul\":1339:1458   */\n    tag_171:\n        /* \"#utility.yul\":1497:1498   */\n      0x00\n        /* \"#utility.yul\":1522:1583   */\n      tag_173\n        /* \"#utility.yul\":1575:1582   */\n      dup5\n        /* \"#utility.yul\":1566:1572   */\n      dup3\n        /* \"#utility.yul\":1555:1564   */\n      dup6\n        /* \"#utility.yul\":1551:1573   */\n      add\n        /* \"#utility.yul\":1522:1583   */\n      tag_152\n      jump\t// in\n    tag_173:\n        /* \"#utility.yul\":1512:1583   */\n      swap2\n      pop\n        /* \"#utility.yul\":1468:1593   */\n      pop\n        /* \"#utility.yul\":1255:1600   */\n      swap3\n      swap2\n      pop\n      pop\n      jump\t// out\n        /* \"#utility.yul\":1606:1935   */\n    tag_18:\n        /* \"#utility.yul\":1665:1671   */\n      0x00\n        /* \"#utility.yul\":1714:1716   */\n      0x20\n        /* \"#utility.yul\":1702:1711   */\n      dup3\n        /* \"#utility.yul\":1693:1700   */\n      dup5\n        /* \"#utility.yul\":1689:1712   */\n      sub\n        /* \"#utility.yul\":1685:1717   */\n      slt\n        /* \"#utility.yul\":1682:1801   */\n      iszero\n      tag_175\n      jumpi\n        /* \"#utility.yul\":1720:1799   */\n      tag_176\n      tag_163\n      jump\t// in\n    tag_176:\n        /* \"#utility.yul\":1682:1801   */\n    tag_175:\n        /* \"#utility.yul\":1840:1841   */\n      0x00\n        /* \"#utility.yul\":1865:1918   */\n      tag_177\n        /* \"#utility.yul\":1910:1917   */\n      dup5\n        /* \"#utility.yul\":1901:1907   */\n      dup3\n        /* \"#utility.yul\":1890:1899   */\n      dup6\n        /* \"#utility.yul\":1886:1908   */\n      add\n        /* \"#utility.yul\":1865:1918   */\n      tag_156\n      jump\t// in\n    tag_177:\n        /* \"#utility.yul\":1855:1918   */\n      swap2\n      pop\n        /* \"#utility.yul\":1811:1928   */\n      pop\n        /* \"#utility.yul\":1606:1935   */\n      swap3\n      swap2\n      pop\n      pop\n      jump\t// out\n        /* \"#utility.yul\":1941:2120   */\n    tag_178:\n        /* \"#utility.yul\":2010:2020   */\n      0x00\n        /* \"#utility.yul\":2031:2077   */\n      tag_180\n        /* \"#utility.yul\":2073:2076   */\n      dup4\n        /* \"#utility.yul\":2065:2071   */\n      dup4\n        /* \"#utility.yul\":2031:2077   */\n      tag_181\n      jump\t// in\n    tag_180:\n        /* \"#utility.yul\":2109:2113   */\n      0x20\n        /* \"#utility.yul\":2104:2107   */\n      dup4\n        /* \"#utility.yul\":2100:2114   */\n      add\n        /* \"#utility.yul\":2086:2114   */\n      swap1\n      pop\n        /* \"#utility.yul\":1941:2120   */\n      swap3\n      swap2\n      pop\n      pop\n      jump\t// out\n        /* \"#utility.yul\":2126:2305   */\n    tag_182:\n        /* \"#utility.yul\":2195:2205   */\n      0x00\n        /* \"#utility.yul\":2216:2262   */\n      tag_184\n        /* \"#utility.yul\":2258:2261   */\n      dup4\n        /* \"#utility.yul\":2250:2256   */\n      dup4\n        /* \"#utility.yul\":2216:2262   */\n      tag_185\n      jump\t// in\n    tag_184:\n        /* \"#utility.yul\":2294:2298   */\n      0x20\n        /* \"#utility.yul\":2289:2292   */\n      dup4\n        /* \"#utility.yul\":2285:2299   */\n      add\n        /* \"#utility.yul\":2271:2299   */\n      swap1\n      pop\n        /* \"#utility.yul\":2126:2305   */\n      swap3\n      swap2\n      pop\n      pop\n      jump\t// out\n        /* \"#utility.yul\":2311:2419   */\n    tag_181:\n        /* \"#utility.yul\":2388:2412   */\n      tag_187\n        /* \"#utility.yul\":2406:2411   */\n      dup2\n        /* \"#utility.yul\":2388:2412   */\n      tag_188\n      jump\t// in\n    tag_187:\n        /* \"#utility.yul\":2383:2386   */\n      dup3\n        /* \"#utility.yul\":2376:2413   */\n      mstore\n        /* \"#utility.yul\":2311:2419   */\n      pop\n      pop\n      jump\t// out\n        /* \"#utility.yul\":2425:2543   */\n    tag_189:\n        /* \"#utility.yul\":2512:2536   */\n      tag_191\n        /* \"#utility.yul\":2530:2535   */\n      dup2\n        /* \"#utility.yul\":2512:2536   */\n      tag_188\n      jump\t// in\n    tag_191:\n        /* \"#utility.yul\":2507:2510   */\n      dup3\n        /* \"#utility.yul\":2500:2537   */\n      mstore\n        /* \"#utility.yul\":2425:2543   */\n      pop\n      pop\n      jump\t// out\n        /* \"#utility.yul\":2579:3311   */\n    tag_192:\n        /* \"#utility.yul\":2698:2701   */\n      0x00\n        /* \"#utility.yul\":2727:2781   */\n      tag_194\n        /* \"#utility.yul\":2775:2780   */\n      dup3\n        /* \"#utility.yul\":2727:2781   */\n      tag_195\n      jump\t// in\n    tag_194:\n        /* \"#utility.yul\":2797:2883   */\n      tag_196\n        /* \"#utility.yul\":2876:2882   */\n      dup2\n        /* \"#utility.yul\":2871:2874   */\n      dup6\n        /* \"#utility.yul\":2797:2883   */\n      tag_197\n      jump\t// in\n    tag_196:\n        /* \"#utility.yul\":2790:2883   */\n      swap4\n      pop\n        /* \"#utility.yul\":2907:2963   */\n      tag_198\n        /* \"#utility.yul\":2957:2962   */\n      dup4\n        /* \"#utility.yul\":2907:2963   */\n      tag_199\n      jump\t// in\n    tag_198:\n        /* \"#utility.yul\":2986:2993   */\n      dup1\n        /* \"#utility.yul\":3017:3018   */\n      0x00\n        /* \"#utility.yul\":3002:3286   */\n    tag_200:\n        /* \"#utility.yul\":3027:3033   */\n      dup4\n        /* \"#utility.yul\":3024:3025   */\n      dup2\n        /* \"#utility.yul\":3021:3034   */\n      lt\n        /* \"#utility.yul\":3002:3286   */\n      iszero\n      tag_202\n      jumpi\n        /* \"#utility.yul\":3103:3109   */\n      dup2\n        /* \"#utility.yul\":3097:3110   */\n      mload\n        /* \"#utility.yul\":3130:3193   */\n      tag_203\n        /* \"#utility.yul\":3189:3192   */\n      dup9\n        /* \"#utility.yul\":3174:3187   */\n      dup3\n        /* \"#utility.yul\":3130:3193   */\n      tag_178\n      jump\t// in\n    tag_203:\n        /* \"#utility.yul\":3123:3193   */\n      swap8\n      pop\n        /* \"#utility.yul\":3216:3276   */\n      tag_204\n        /* \"#utility.yul\":3269:3275   */\n      dup4\n        /* \"#utility.yul\":3216:3276   */\n      tag_205\n      jump\t// in\n    tag_204:\n        /* \"#utility.yul\":3206:3276   */\n      swap3\n      pop\n        /* \"#utility.yul\":3062:3286   */\n      pop\n        /* \"#utility.yul\":3049:3050   */\n      0x01\n        /* \"#utility.yul\":3046:3047   */\n      dup2\n        /* \"#utility.yul\":3042:3051   */\n      add\n        /* \"#utility.yul\":3037:3051   */\n      swap1\n      pop\n        /* \"#utility.yul\":3002:3286   */\n      jump(tag_200)\n    tag_202:\n        /* \"#utility.yul\":3006:3020   */\n      pop\n        /* \"#utility.yul\":3302:3305   */\n      dup6\n        /* \"#utility.yul\":3295:3305   */\n      swap4\n      pop\n        /* \"#utility.yul\":2703:3311   */\n      pop\n      pop\n      pop\n        /* \"#utility.yul\":2579:3311   */\n      swap3\n      swap2\n      pop\n      pop\n      jump\t// out\n        /* \"#utility.yul\":3347:4079   */\n    tag_206:\n        /* \"#utility.yul\":3466:3469   */\n      0x00\n        /* \"#utility.yul\":3495:3549   */\n      tag_208\n        /* \"#utility.yul\":3543:3548   */\n      dup3\n        /* \"#utility.yul\":3495:3549   */\n      tag_209\n      jump\t// in\n    tag_208:\n        /* \"#utility.yul\":3565:3651   */\n      tag_210\n        /* \"#utility.yul\":3644:3650   */\n      dup2\n        /* \"#utility.yul\":3639:3642   */\n      dup6\n        /* \"#utility.yul\":3565:3651   */\n      tag_211\n      jump\t// in\n    tag_210:\n        /* \"#utility.yul\":3558:3651   */\n      swap4\n      pop\n        /* \"#utility.yul\":3675:3731   */\n      tag_212\n        /* \"#utility.yul\":3725:3730   */\n      dup4\n        /* \"#utility.yul\":3675:3731   */\n      tag_213\n      jump\t// in\n    tag_212:\n        /* \"#utility.yul\":3754:3761   */\n      dup1\n        /* \"#utility.yul\":3785:3786   */\n      0x00\n        /* \"#utility.yul\":3770:4054   */\n    tag_214:\n        /* \"#utility.yul\":3795:3801   */\n      dup4\n        /* \"#utility.yul\":3792:3793   */\n      dup2\n        /* \"#utility.yul\":3789:3802   */\n      lt\n        /* \"#utility.yul\":3770:4054   */\n      iszero\n      tag_216\n      jumpi\n        /* \"#utility.yul\":3871:3877   */\n      dup2\n        /* \"#utility.yul\":3865:3878   */\n      mload\n        /* \"#utility.yul\":3898:3961   */\n      tag_217\n        /* \"#utility.yul\":3957:3960   */\n      dup9\n        /* \"#utility.yul\":3942:3955   */\n      dup3\n        /* \"#utility.yul\":3898:3961   */\n      tag_182\n      jump\t// in\n    tag_217:\n        /* \"#utility.yul\":3891:3961   */\n      swap8\n      pop\n        /* \"#utility.yul\":3984:4044   */\n      tag_218\n        /* \"#utility.yul\":4037:4043   */\n      dup4\n        /* \"#utility.yul\":3984:4044   */\n      tag_219\n      jump\t// in\n    tag_218:\n        /* \"#utility.yul\":3974:4044   */\n      swap3\n      pop\n        /* \"#utility.yul\":3830:4054   */\n      pop\n        /* \"#utility.yul\":3817:3818   */\n      0x01\n        /* \"#utility.yul\":3814:3815   */\n      dup2\n        /* \"#utility.yul\":3810:3819   */\n      add\n        /* \"#utility.yul\":3805:3819   */\n      swap1\n      pop\n        /* \"#utility.yul\":3770:4054   */\n      jump(tag_214)\n    tag_216:\n        /* \"#utility.yul\":3774:3788   */\n      pop\n        /* \"#utility.yul\":4070:4073   */\n      dup6\n        /* \"#utility.yul\":4063:4073   */\n      swap4\n      pop\n        /* \"#utility.yul\":3471:4079   */\n      pop\n      pop\n      pop\n        /* \"#utility.yul\":3347:4079   */\n      swap3\n      swap2\n      pop\n      pop\n      jump\t// out\n        /* \"#utility.yul\":4085:4449   */\n    tag_220:\n        /* \"#utility.yul\":4173:4176   */\n      0x00\n        /* \"#utility.yul\":4201:4240   */\n      tag_222\n        /* \"#utility.yul\":4234:4239   */\n      dup3\n        /* \"#utility.yul\":4201:4240   */\n      tag_223\n      jump\t// in\n    tag_222:\n        /* \"#utility.yul\":4256:4327   */\n      tag_224\n        /* \"#utility.yul\":4320:4326   */\n      dup2\n        /* \"#utility.yul\":4315:4318   */\n      dup6\n        /* \"#utility.yul\":4256:4327   */\n      tag_225\n      jump\t// in\n    tag_224:\n        /* \"#utility.yul\":4249:4327   */\n      swap4\n      pop\n        /* \"#utility.yul\":4336:4388   */\n      tag_226\n        /* \"#utility.yul\":4381:4387   */\n      dup2\n        /* \"#utility.yul\":4376:4379   */\n      dup6\n        /* \"#utility.yul\":4369:4373   */\n      0x20\n        /* \"#utility.yul\":4362:4367   */\n      dup7\n        /* \"#utility.yul\":4358:4374   */\n      add\n        /* \"#utility.yul\":4336:4388   */\n      tag_227\n      jump\t// in\n    tag_226:\n        /* \"#utility.yul\":4413:4442   */\n      tag_228\n        /* \"#utility.yul\":4435:4441   */\n      dup2\n        /* \"#utility.yul\":4413:4442   */\n      tag_229\n      jump\t// in\n    tag_228:\n        /* \"#utility.yul\":4408:4411   */\n      dup5\n        /* \"#utility.yul\":4404:4443   */\n      add\n        /* \"#utility.yul\":4397:4443   */\n      swap2\n      pop\n        /* \"#utility.yul\":4177:4449   */\n      pop\n        /* \"#utility.yul\":4085:4449   */\n      swap3\n      swap2\n      pop\n      pop\n      jump\t// out\n        /* \"#utility.yul\":4455:4821   */\n    tag_230:\n        /* \"#utility.yul\":4597:4600   */\n      0x00\n        /* \"#utility.yul\":4618:4685   */\n      tag_232\n        /* \"#utility.yul\":4682:4684   */\n      0x16\n        /* \"#utility.yul\":4677:4680   */\n      dup4\n        /* \"#utility.yul\":4618:4685   */\n      tag_225\n      jump\t// in\n    tag_232:\n        /* \"#utility.yul\":4611:4685   */\n      swap2\n      pop\n        /* \"#utility.yul\":4694:4787   */\n      tag_233\n        /* \"#utility.yul\":4783:4786   */\n      dup3\n        /* \"#utility.yul\":4694:4787   */\n      tag_234\n      jump\t// in\n    tag_233:\n        /* \"#utility.yul\":4812:4814   */\n      0x20\n        /* \"#utility.yul\":4807:4810   */\n      dup3\n        /* \"#utility.yul\":4803:4815   */\n      add\n        /* \"#utility.yul\":4796:4815   */\n      swap1\n      pop\n        /* \"#utility.yul\":4455:4821   */\n      swap2\n      swap1\n      pop\n      jump\t// out\n        /* \"#utility.yul\":4827:5193   */\n    tag_235:\n        /* \"#utility.yul\":4969:4972   */\n      0x00\n        /* \"#utility.yul\":4990:5057   */\n      tag_237\n        /* \"#utility.yul\":5054:5056   */\n      0x24\n        /* \"#utility.yul\":5049:5052   */\n      dup4\n        /* \"#utility.yul\":4990:5057   */\n      tag_225\n      jump\t// in\n    tag_237:\n        /* \"#utility.yul\":4983:5057   */\n      swap2\n      pop\n        /* \"#utility.yul\":5066:5159   */\n      tag_238\n        /* \"#utility.yul\":5155:5158   */\n      dup3\n        /* \"#utility.yul\":5066:5159   */\n      tag_239\n      jump\t// in\n    tag_238:\n        /* \"#utility.yul\":5184:5186   */\n      0x40\n        /* \"#utility.yul\":5179:5182   */\n      dup3\n        /* \"#utility.yul\":5175:5187   */\n      add\n        /* \"#utility.yul\":5168:5187   */\n      swap1\n      pop\n        /* \"#utility.yul\":4827:5193   */\n      swap2\n      swap1\n      pop\n      jump\t// out\n        /* \"#utility.yul\":5199:5565   */\n    tag_240:\n        /* \"#utility.yul\":5341:5344   */\n      0x00\n        /* \"#utility.yul\":5362:5429   */\n      tag_242\n        /* \"#utility.yul\":5426:5428   */\n      0x16\n        /* \"#utility.yul\":5421:5424   */\n      dup4\n        /* \"#utility.yul\":5362:5429   */\n      tag_225\n      jump\t// in\n    tag_242:\n        /* \"#utility.yul\":5355:5429   */\n      swap2\n      pop\n        /* \"#utility.yul\":5438:5531   */\n      tag_243\n        /* \"#utility.yul\":5527:5530   */\n      dup3\n        /* \"#utility.yul\":5438:5531   */\n      tag_244\n      jump\t// in\n    tag_243:\n        /* \"#utility.yul\":5556:5558   */\n      0x20\n        /* \"#utility.yul\":5551:5554   */\n      dup3\n        /* \"#utility.yul\":5547:5559   */\n      add\n        /* \"#utility.yul\":5540:5559   */\n      swap1\n      pop\n        /* \"#utility.yul\":5199:5565   */\n      swap2\n      swap1\n      pop\n      jump\t// out\n        /* \"#utility.yul\":5571:5679   */\n    tag_185:\n        /* \"#utility.yul\":5648:5672   */\n      tag_246\n        /* \"#utility.yul\":5666:5671   */\n      dup2\n        /* \"#utility.yul\":5648:5672   */\n      tag_247\n      jump\t// in\n    tag_246:\n        /* \"#utility.yul\":5643:5646   */\n      dup3\n        /* \"#utility.yul\":5636:5673   */\n      mstore\n        /* \"#utility.yul\":5571:5679   */\n      pop\n      pop\n      jump\t// out\n        /* \"#utility.yul\":5685:5803   */\n    tag_248:\n        /* \"#utility.yul\":5772:5796   */\n      tag_250\n        /* \"#utility.yul\":5790:5795   */\n      dup2\n        /* \"#utility.yul\":5772:5796   */\n      tag_247\n      jump\t// in\n    tag_250:\n        /* \"#utility.yul\":5767:5770   */\n      dup3\n        /* \"#utility.yul\":5760:5797   */\n      mstore\n        /* \"#utility.yul\":5685:5803   */\n      pop\n      pop\n      jump\t// out\n        /* \"#utility.yul\":5809:6141   */\n    tag_140:\n        /* \"#utility.yul\":5930:5934   */\n      0x00\n        /* \"#utility.yul\":5968:5970   */\n      0x40\n        /* \"#utility.yul\":5957:5966   */\n      dup3\n        /* \"#utility.yul\":5953:5971   */\n      add\n        /* \"#utility.yul\":5945:5971   */\n      swap1\n      pop\n        /* \"#utility.yul\":5981:6052   */\n      tag_252\n        /* \"#utility.yul\":6049:6050   */\n      0x00\n        /* \"#utility.yul\":6038:6047   */\n      dup4\n        /* \"#utility.yul\":6034:6051   */\n      add\n        /* \"#utility.yul\":6025:6031   */\n      dup6\n        /* \"#utility.yul\":5981:6052   */\n      tag_189\n      jump\t// in\n    tag_252:\n        /* \"#utility.yul\":6062:6134   */\n      tag_253\n        /* \"#utility.yul\":6130:6132   */\n      0x20\n        /* \"#utility.yul\":6119:6128   */\n      dup4\n        /* \"#utility.yul\":6115:6133   */\n      add\n        /* \"#utility.yul\":6106:6112   */\n      dup5\n        /* \"#utility.yul\":6062:6134   */\n      tag_248\n      jump\t// in\n    tag_253:\n        /* \"#utility.yul\":5809:6141   */\n      swap4\n      swap3\n      pop\n      pop\n      pop\n      jump\t// out\n        /* \"#utility.yul\":6147:6781   */\n    tag_24:\n        /* \"#utility.yul\":6368:6372   */\n      0x00\n        /* \"#utility.yul\":6406:6408   */\n      0x40\n        /* \"#utility.yul\":6395:6404   */\n      dup3\n        /* \"#utility.yul\":6391:6409   */\n      add\n        /* \"#utility.yul\":6383:6409   */\n      swap1\n      pop\n        /* \"#utility.yul\":6455:6464   */\n      dup2\n        /* \"#utility.yul\":6449:6453   */\n      dup2\n        /* \"#utility.yul\":6445:6465   */\n      sub\n        /* \"#utility.yul\":6441:6442   */\n      0x00\n        /* \"#utility.yul\":6430:6439   */\n      dup4\n        /* \"#utility.yul\":6426:6443   */\n      add\n        /* \"#utility.yul\":6419:6466   */\n      mstore\n        /* \"#utility.yul\":6483:6591   */\n      tag_255\n        /* \"#utility.yul\":6586:6590   */\n      dup2\n        /* \"#utility.yul\":6577:6583   */\n      dup6\n        /* \"#utility.yul\":6483:6591   */\n      tag_192\n      jump\t// in\n    tag_255:\n        /* \"#utility.yul\":6475:6591   */\n      swap1\n      pop\n        /* \"#utility.yul\":6638:6647   */\n      dup2\n        /* \"#utility.yul\":6632:6636   */\n      dup2\n        /* \"#utility.yul\":6628:6648   */\n      sub\n        /* \"#utility.yul\":6623:6625   */\n      0x20\n        /* \"#utility.yul\":6612:6621   */\n      dup4\n        /* \"#utility.yul\":6608:6626   */\n      add\n        /* \"#utility.yul\":6601:6649   */\n      mstore\n        /* \"#utility.yul\":6666:6774   */\n      tag_256\n        /* \"#utility.yul\":6769:6773   */\n      dup2\n        /* \"#utility.yul\":6760:6766   */\n      dup5\n        /* \"#utility.yul\":6666:6774   */\n      tag_206\n      jump\t// in\n    tag_256:\n        /* \"#utility.yul\":6658:6774   */\n      swap1\n      pop\n        /* \"#utility.yul\":6147:6781   */\n      swap4\n      swap3\n      pop\n      pop\n      pop\n      jump\t// out\n        /* \"#utility.yul\":6787:7100   */\n    tag_35:\n        /* \"#utility.yul\":6900:6904   */\n      0x00\n        /* \"#utility.yul\":6938:6940   */\n      0x20\n        /* \"#utility.yul\":6927:6936   */\n      dup3\n        /* \"#utility.yul\":6923:6941   */\n      add\n        /* \"#utility.yul\":6915:6941   */\n      swap1\n      pop\n        /* \"#utility.yul\":6987:6996   */\n      dup2\n        /* \"#utility.yul\":6981:6985   */\n      dup2\n        /* \"#utility.yul\":6977:6997   */\n      sub\n        /* \"#utility.yul\":6973:6974   */\n      0x00\n        /* \"#utility.yul\":6962:6971   */\n      dup4\n        /* \"#utility.yul\":6958:6975   */\n      add\n        /* \"#utility.yul\":6951:6998   */\n      mstore\n        /* \"#utility.yul\":7015:7093   */\n      tag_258\n        /* \"#utility.yul\":7088:7092   */\n      dup2\n        /* \"#utility.yul\":7079:7085   */\n      dup5\n        /* \"#utility.yul\":7015:7093   */\n      tag_220\n      jump\t// in\n    tag_258:\n        /* \"#utility.yul\":7007:7093   */\n      swap1\n      pop\n        /* \"#utility.yul\":6787:7100   */\n      swap3\n      swap2\n      pop\n      pop\n      jump\t// out\n        /* \"#utility.yul\":7106:7525   */\n    tag_103:\n        /* \"#utility.yul\":7272:7276   */\n      0x00\n        /* \"#utility.yul\":7310:7312   */\n      0x20\n        /* \"#utility.yul\":7299:7308   */\n      dup3\n        /* \"#utility.yul\":7295:7313   */\n      add\n        /* \"#utility.yul\":7287:7313   */\n      swap1\n      pop\n        /* \"#utility.yul\":7359:7368   */\n      dup2\n        /* \"#utility.yul\":7353:7357   */\n      dup2\n        /* \"#utility.yul\":7349:7369   */\n      sub\n        /* \"#utility.yul\":7345:7346   */\n      0x00\n        /* \"#utility.yul\":7334:7343   */\n      dup4\n        /* \"#utility.yul\":7330:7347   */\n      add\n        /* \"#utility.yul\":7323:7370   */\n      mstore\n        /* \"#utility.yul\":7387:7518   */\n      tag_260\n        /* \"#utility.yul\":7513:7517   */\n      dup2\n        /* \"#utility.yul\":7387:7518   */\n      tag_230\n      jump\t// in\n    tag_260:\n        /* \"#utility.yul\":7379:7518   */\n      swap1\n      pop\n        /* \"#utility.yul\":7106:7525   */\n      swap2\n      swap1\n      pop\n      jump\t// out\n        /* \"#utility.yul\":7531:7950   */\n    tag_115:\n        /* \"#utility.yul\":7697:7701   */\n      0x00\n        /* \"#utility.yul\":7735:7737   */\n      0x20\n        /* \"#utility.yul\":7724:7733   */\n      dup3\n        /* \"#utility.yul\":7720:7738   */\n      add\n        /* \"#utility.yul\":7712:7738   */\n      swap1\n      pop\n        /* \"#utility.yul\":7784:7793   */\n      dup2\n        /* \"#utility.yul\":7778:7782   */\n      dup2\n        /* \"#utility.yul\":7774:7794   */\n      sub\n        /* \"#utility.yul\":7770:7771   */\n      0x00\n        /* \"#utility.yul\":7759:7768   */\n      dup4\n        /* \"#utility.yul\":7755:7772   */\n      add\n        /* \"#utility.yul\":7748:7795   */\n      mstore\n        /* \"#utility.yul\":7812:7943   */\n      tag_262\n        /* \"#utility.yul\":7938:7942   */\n      dup2\n        /* \"#utility.yul\":7812:7943   */\n      tag_235\n      jump\t// in\n    tag_262:\n        /* \"#utility.yul\":7804:7943   */\n      swap1\n      pop\n        /* \"#utility.yul\":7531:7950   */\n      swap2\n      swap1\n      pop\n      jump\t// out\n        /* \"#utility.yul\":7956:8375   */\n    tag_71:\n        /* \"#utility.yul\":8122:8126   */\n      0x00\n        /* \"#utility.yul\":8160:8162   */\n      0x20\n        /* \"#utility.yul\":8149:8158   */\n      dup3\n        /* \"#utility.yul\":8145:8163   */\n      add\n        /* \"#utility.yul\":8137:8163   */\n      swap1\n      pop\n        /* \"#utility.yul\":8209:8218   */\n      dup2\n        /* \"#utility.yul\":8203:8207   */\n      dup2\n        /* \"#utility.yul\":8199:8219   */\n      sub\n        /* \"#utility.yul\":8195:8196   */\n      0x00\n        /* \"#utility.yul\":8184:8193   */\n      dup4\n        /* \"#utility.yul\":8180:8197   */\n      add\n        /* \"#utility.yul\":8173:8220   */\n      mstore\n        /* \"#utility.yul\":8237:8368   */\n      tag_264\n        /* \"#utility.yul\":8363:8367   */\n      dup2\n        /* \"#utility.yul\":8237:8368   */\n      tag_240\n      jump\t// in\n    tag_264:\n        /* \"#utility.yul\":8229:8368   */\n      swap1\n      pop\n        /* \"#utility.yul\":7956:8375   */\n      swap2\n      swap1\n      pop\n      jump\t// out\n        /* \"#utility.yul\":8381:8603   */\n    tag_29:\n        /* \"#utility.yul\":8474:8478   */\n      0x00\n        /* \"#utility.yul\":8512:8514   */\n      0x20\n        /* \"#utility.yul\":8501:8510   */\n      dup3\n        /* \"#utility.yul\":8497:8515   */\n      add\n        /* \"#utility.yul\":8489:8515   */\n      swap1\n      pop\n        /* \"#utility.yul\":8525:8596   */\n      tag_266\n        /* \"#utility.yul\":8593:8594   */\n      0x00\n        /* \"#utility.yul\":8582:8591   */\n      dup4\n        /* \"#utility.yul\":8578:8595   */\n      add\n        /* \"#utility.yul\":8569:8575   */\n      dup5\n        /* \"#utility.yul\":8525:8596   */\n      tag_248\n      jump\t// in\n    tag_266:\n        /* \"#utility.yul\":8381:8603   */\n      swap3\n      swap2\n      pop\n      pop\n      jump\t// out\n        /* \"#utility.yul\":8690:8822   */\n    tag_199:\n        /* \"#utility.yul\":8757:8761   */\n      0x00\n        /* \"#utility.yul\":8780:8783   */\n      dup2\n        /* \"#utility.yul\":8772:8783   */\n      swap1\n      pop\n        /* \"#utility.yul\":8810:8814   */\n      0x20\n        /* \"#utility.yul\":8805:8808   */\n      dup3\n        /* \"#utility.yul\":8801:8815   */\n      add\n        /* \"#utility.yul\":8793:8815   */\n      swap1\n      pop\n        /* \"#utility.yul\":8690:8822   */\n      swap2\n      swap1\n      pop\n      jump\t// out\n        /* \"#utility.yul\":8828:8960   */\n    tag_213:\n        /* \"#utility.yul\":8895:8899   */\n      0x00\n        /* \"#utility.yul\":8918:8921   */\n      dup2\n        /* \"#utility.yul\":8910:8921   */\n      swap1\n      pop\n        /* \"#utility.yul\":8948:8952   */\n      0x20\n        /* \"#utility.yul\":8943:8946   */\n      dup3\n        /* \"#utility.yul\":8939:8953   */\n      add\n        /* \"#utility.yul\":8931:8953   */\n      swap1\n      pop\n        /* \"#utility.yul\":8828:8960   */\n      swap2\n      swap1\n      pop\n      jump\t// out\n        /* \"#utility.yul\":8966:9080   */\n    tag_195:\n        /* \"#utility.yul\":9033:9039   */\n      0x00\n        /* \"#utility.yul\":9067:9072   */\n      dup2\n        /* \"#utility.yul\":9061:9073   */\n      mload\n        /* \"#utility.yul\":9051:9073   */\n      swap1\n      pop\n        /* \"#utility.yul\":8966:9080   */\n      swap2\n      swap1\n      pop\n      jump\t// out\n        /* \"#utility.yul\":9086:9200   */\n    tag_209:\n        /* \"#utility.yul\":9153:9159   */\n      0x00\n        /* \"#utility.yul\":9187:9192   */\n      dup2\n        /* \"#utility.yul\":9181:9193   */\n      mload\n        /* \"#utility.yul\":9171:9193   */\n      swap1\n      pop\n        /* \"#utility.yul\":9086:9200   */\n      swap2\n      swap1\n      pop\n      jump\t// out\n        /* \"#utility.yul\":9206:9305   */\n    tag_223:\n        /* \"#utility.yul\":9258:9264   */\n      0x00\n        /* \"#utility.yul\":9292:9297   */\n      dup2\n        /* \"#utility.yul\":9286:9298   */\n      mload\n        /* \"#utility.yul\":9276:9298   */\n      swap1\n      pop\n        /* \"#utility.yul\":9206:9305   */\n      swap2\n      swap1\n      pop\n      jump\t// out\n        /* \"#utility.yul\":9311:9424   */\n    tag_205:\n        /* \"#utility.yul\":9381:9385   */\n      0x00\n        /* \"#utility.yul\":9413:9417   */\n      0x20\n        /* \"#utility.yul\":9408:9411   */\n      dup3\n        /* \"#utility.yul\":9404:9418   */\n      add\n        /* \"#utility.yul\":9396:9418   */\n      swap1\n      pop\n        /* \"#utility.yul\":9311:9424   */\n      swap2\n      swap1\n      pop\n      jump\t// out\n        /* \"#utility.yul\":9430:9543   */\n    tag_219:\n        /* \"#utility.yul\":9500:9504   */\n      0x00\n        /* \"#utility.yul\":9532:9536   */\n      0x20\n        /* \"#utility.yul\":9527:9530   */\n      dup3\n        /* \"#utility.yul\":9523:9537   */\n      add\n        /* \"#utility.yul\":9515:9537   */\n      swap1\n      pop\n        /* \"#utility.yul\":9430:9543   */\n      swap2\n      swap1\n      pop\n      jump\t// out\n        /* \"#utility.yul\":9549:9733   */\n    tag_197:\n        /* \"#utility.yul\":9648:9659   */\n      0x00\n        /* \"#utility.yul\":9682:9688   */\n      dup3\n        /* \"#utility.yul\":9677:9680   */\n      dup3\n        /* \"#utility.yul\":9670:9689   */\n      mstore\n        /* \"#utility.yul\":9722:9726   */\n      0x20\n        /* \"#utility.yul\":9717:9720   */\n      dup3\n        /* \"#utility.yul\":9713:9727   */\n      add\n        /* \"#utility.yul\":9698:9727   */\n      swap1\n      pop\n        /* \"#utility.yul\":9549:9733   */\n      swap3\n      swap2\n      pop\n      pop\n      jump\t// out\n        /* \"#utility.yul\":9739:9923   */\n    tag_211:\n        /* \"#utility.yul\":9838:9849   */\n      0x00\n        /* \"#utility.yul\":9872:9878   */\n      dup3\n        /* \"#utility.yul\":9867:9870   */\n      dup3\n        /* \"#utility.yul\":9860:9879   */\n      mstore\n        /* \"#utility.yul\":9912:9916   */\n      0x20\n        /* \"#utility.yul\":9907:9910   */\n      dup3\n        /* \"#utility.yul\":9903:9917   */\n      add\n        /* \"#utility.yul\":9888:9917   */\n      swap1\n      pop\n        /* \"#utility.yul\":9739:9923   */\n      swap3\n      swap2\n      pop\n      pop\n      jump\t// out\n        /* \"#utility.yul\":9929:10098   */\n    tag_225:\n        /* \"#utility.yul\":10013:10024   */\n      0x00\n        /* \"#utility.yul\":10047:10053   */\n      dup3\n        /* \"#utility.yul\":10042:10045   */\n      dup3\n        /* \"#utility.yul\":10035:10054   */\n      mstore\n        /* \"#utility.yul\":10087:10091   */\n      0x20\n        /* \"#utility.yul\":10082:10085   */\n      dup3\n        /* \"#utility.yul\":10078:10092   */\n      add\n        /* \"#utility.yul\":10063:10092   */\n      swap1\n      pop\n        /* \"#utility.yul\":9929:10098   */\n      swap3\n      swap2\n      pop\n      pop\n      jump\t// out\n        /* \"#utility.yul\":10104:10409   */\n    tag_112:\n        /* \"#utility.yul\":10144:10147   */\n      0x00\n        /* \"#utility.yul\":10163:10183   */\n      tag_280\n        /* \"#utility.yul\":10181:10182   */\n      dup3\n        /* \"#utility.yul\":10163:10183   */\n      tag_247\n      jump\t// in\n    tag_280:\n        /* \"#utility.yul\":10158:10183   */\n      swap2\n      pop\n        /* \"#utility.yul\":10197:10217   */\n      tag_281\n        /* \"#utility.yul\":10215:10216   */\n      dup4\n        /* \"#utility.yul\":10197:10217   */\n      tag_247\n      jump\t// in\n    tag_281:\n        /* \"#utility.yul\":10192:10217   */\n      swap3\n      pop\n        /* \"#utility.yul\":10351:10352   */\n      dup3\n        /* \"#utility.yul\":10283:10349   */\n      0xffffffffffffffffffffffffffffffffffffffffffffffffffffffffffffffff\n        /* \"#utility.yul\":10279:10353   */\n      sub\n        /* \"#utility.yul\":10276:10277   */\n      dup3\n        /* \"#utility.yul\":10273:10354   */\n      gt\n        /* \"#utility.yul\":10270:10377   */\n      iszero\n      tag_282\n      jumpi\n        /* \"#utility.yul\":10357:10375   */\n      tag_283\n      tag_284\n      jump\t// in\n    tag_283:\n        /* \"#utility.yul\":10270:10377   */\n    tag_282:\n        /* \"#utility.yul\":10401:10402   */\n      dup3\n        /* \"#utility.yul\":10398:10399   */\n      dup3\n        /* \"#utility.yul\":10394:10403   */\n      add\n        /* \"#utility.yul\":10387:10403   */\n      swap1\n      pop\n        /* \"#utility.yul\":10104:10409   */\n      swap3\n      swap2\n      pop\n      pop\n      jump\t// out\n        /* \"#utility.yul\":10415:10763   */\n    tag_74:\n        /* \"#utility.yul\":10455:10462   */\n      0x00\n        /* \"#utility.yul\":10478:10498   */\n      tag_286\n        /* \"#utility.yul\":10496:10497   */\n      dup3\n        /* \"#utility.yul\":10478:10498   */\n      tag_247\n      jump\t// in\n    tag_286:\n        /* \"#utility.yul\":10473:10498   */\n      swap2\n      pop\n        /* \"#utility.yul\":10512:10532   */\n      tag_287\n        /* \"#utility.yul\":10530:10531   */\n      dup4\n        /* \"#utility.yul\":10512:10532   */\n      tag_247\n      jump\t// in\n    tag_287:\n        /* \"#utility.yul\":10507:10532   */\n      swap3\n      pop\n        /* \"#utility.yul\":10700:10701   */\n      dup2\n        /* \"#utility.yul\":10632:10698   */\n      0xffffffffffffffffffffffffffffffffffffffffffffffffffffffffffffffff\n        /* \"#utility.yul\":10628:10702   */\n      div\n        /* \"#utility.yul\":10625:10626   */\n      dup4\n        /* \"#utility.yul\":10622:10703   */\n      gt\n        /* \"#utility.yul\":10617:10618   */\n      dup3\n        /* \"#utility.yul\":10610:10619   */\n      iszero\n        /* \"#utility.yul\":10603:10620   */\n      iszero\n        /* \"#utility.yul\":10599:10704   */\n      and\n        /* \"#utility.yul\":10596:10727   */\n      iszero\n      tag_288\n      jumpi\n        /* \"#utility.yul\":10707:10725   */\n      tag_289\n      tag_284\n      jump\t// in\n    tag_289:\n        /* \"#utility.yul\":10596:10727   */\n    tag_288:\n        /* \"#utility.yul\":10755:10756   */\n      dup3\n        /* \"#utility.yul\":10752:10753   */\n      dup3\n        /* \"#utility.yul\":10748:10757   */\n      mul\n        /* \"#utility.yul\":10737:10757   */\n      swap1\n      pop\n        /* \"#utility.yul\":10415:10763   */\n      swap3\n      swap2\n      pop\n      pop\n      jump\t// out\n        /* \"#utility.yul\":10769:10865   */\n    tag_188:\n        /* \"#utility.yul\":10806:10813   */\n      0x00\n        /* \"#utility.yul\":10835:10859   */\n      tag_291\n        /* \"#utility.yul\":10853:10858   */\n      dup3\n        /* \"#utility.yul\":10835:10859   */\n      tag_292\n      jump\t// in\n    tag_291:\n        /* \"#utility.yul\":10824:10859   */\n      swap1\n      pop\n        /* \"#utility.yul\":10769:10865   */\n      swap2\n      swap1\n      pop\n      jump\t// out\n        /* \"#utility.yul\":10871:10961   */\n    tag_293:\n        /* \"#utility.yul\":10905:10912   */\n      0x00\n        /* \"#utility.yul\":10948:10953   */\n      dup2\n        /* \"#utility.yul\":10941:10954   */\n      iszero\n        /* \"#utility.yul\":10934:10955   */\n      iszero\n        /* \"#utility.yul\":10923:10955   */\n      swap1\n      pop\n        /* \"#utility.yul\":10871:10961   */\n      swap2\n      swap1\n      pop\n      jump\t// out\n        /* \"#utility.yul\":10967:11043   */\n    tag_295:\n        /* \"#utility.yul\":11003:11010   */\n      0x00\n        /* \"#utility.yul\":11032:11037   */\n      dup2\n        /* \"#utility.yul\":11021:11037   */\n      swap1\n      pop\n        /* \"#utility.yul\":10967:11043   */\n      swap2\n      swap1\n      pop\n      jump\t// out\n        /* \"#utility.yul\":11049:11175   */\n    tag_292:\n        /* \"#utility.yul\":11086:11093   */\n      0x00\n        /* \"#utility.yul\":11126:11168   */\n      0xffffffffffffffffffffffffffffffffffffffff\n        /* \"#utility.yul\":11119:11124   */\n      dup3\n        /* \"#utility.yul\":11115:11169   */\n      and\n        /* \"#utility.yul\":11104:11169   */\n      swap1\n      pop\n        /* \"#utility.yul\":11049:11175   */\n      swap2\n      swap1\n      pop\n      jump\t// out\n        /* \"#utility.yul\":11181:11258   */\n    tag_247:\n        /* \"#utility.yul\":11218:11225   */\n      0x00\n        /* \"#utility.yul\":11247:11252   */\n      dup2\n        /* \"#utility.yul\":11236:11252   */\n      swap1\n      pop\n        /* \"#utility.yul\":11181:11258   */\n      swap2\n      swap1\n      pop\n      jump\t// out\n        /* \"#utility.yul\":11264:11571   */\n    tag_227:\n        /* \"#utility.yul\":11332:11333   */\n      0x00\n        /* \"#utility.yul\":11342:11455   */\n    tag_300:\n        /* \"#utility.yul\":11356:11362   */\n      dup4\n        /* \"#utility.yul\":11353:11354   */\n      dup2\n        /* \"#utility.yul\":11350:11363   */\n      lt\n        /* \"#utility.yul\":11342:11455   */\n      iszero\n      tag_302\n      jumpi\n        /* \"#utility.yul\":11441:11442   */\n      dup1\n        /* \"#utility.yul\":11436:11439   */\n      dup3\n        /* \"#utility.yul\":11432:11443   */\n      add\n        /* \"#utility.yul\":11426:11444   */\n      mload\n        /* \"#utility.yul\":11422:11423   */\n      dup2\n        /* \"#utility.yul\":11417:11420   */\n      dup5\n        /* \"#utility.yul\":11413:11424   */\n      add\n        /* \"#utility.yul\":11406:11445   */\n      mstore\n        /* \"#utility.yul\":11378:11380   */\n      0x20\n        /* \"#utility.yul\":11375:11376   */\n      dup2\n        /* \"#utility.yul\":11371:11381   */\n      add\n        /* \"#utility.yul\":11366:11381   */\n      swap1\n      pop\n        /* \"#utility.yul\":11342:11455   */\n      jump(tag_300)\n    tag_302:\n        /* \"#utility.yul\":11473:11479   */\n      dup4\n        /* \"#utility.yul\":11470:11471   */\n      dup2\n        /* \"#utility.yul\":11467:11480   */\n      gt\n        /* \"#utility.yul\":11464:11565   */\n      iszero\n      tag_303\n      jumpi\n        /* \"#utility.yul\":11553:11554   */\n      0x00\n        /* \"#utility.yul\":11544:11550   */\n      dup5\n        /* \"#utility.yul\":11539:11542   */\n      dup5\n        /* \"#utility.yul\":11535:11551   */\n      add\n        /* \"#utility.yul\":11528:11555   */\n      mstore\n        /* \"#utility.yul\":11464:11565   */\n    tag_303:\n        /* \"#utility.yul\":11313:11571   */\n      pop\n        /* \"#utility.yul\":11264:11571   */\n      pop\n      pop\n      pop\n      jump\t// out\n        /* \"#utility.yul\":11577:11808   */\n    tag_121:\n        /* \"#utility.yul\":11615:11618   */\n      0x00\n        /* \"#utility.yul\":11638:11661   */\n      tag_305\n        /* \"#utility.yul\":11655:11660   */\n      dup3\n        /* \"#utility.yul\":11638:11661   */\n      tag_295\n      jump\t// in\n    tag_305:\n        /* \"#utility.yul\":11629:11661   */\n      swap2\n      pop\n        /* \"#utility.yul\":11683:11749   */\n      0x7fffffffffffffffffffffffffffffffffffffffffffffffffffffffffffffff\n        /* \"#utility.yul\":11676:11681   */\n      dup3\n        /* \"#utility.yul\":11673:11750   */\n      eq\n        /* \"#utility.yul\":11670:11773   */\n      iszero\n      tag_306\n      jumpi\n        /* \"#utility.yul\":11753:11771   */\n      tag_307\n      tag_284\n      jump\t// in\n    tag_307:\n        /* \"#utility.yul\":11670:11773   */\n    tag_306:\n        /* \"#utility.yul\":11800:11801   */\n      0x01\n        /* \"#utility.yul\":11793:11798   */\n      dup3\n        /* \"#utility.yul\":11789:11802   */\n      add\n        /* \"#utility.yul\":11782:11802   */\n      swap1\n      pop\n        /* \"#utility.yul\":11577:11808   */\n      swap2\n      swap1\n      pop\n      jump\t// out\n        /* \"#utility.yul\":11814:12047   */\n    tag_68:\n        /* \"#utility.yul\":11853:11856   */\n      0x00\n        /* \"#utility.yul\":11876:11900   */\n      tag_309\n        /* \"#utility.yul\":11894:11899   */\n      dup3\n        /* \"#utility.yul\":11876:11900   */\n      tag_247\n      jump\t// in\n    tag_309:\n        /* \"#utility.yul\":11867:11900   */\n      swap2\n      pop\n        /* \"#utility.yul\":11922:11988   */\n      0xffffffffffffffffffffffffffffffffffffffffffffffffffffffffffffffff\n        /* \"#utility.yul\":11915:11920   */\n      dup3\n        /* \"#utility.yul\":11912:11989   */\n      eq\n        /* \"#utility.yul\":11909:12012   */\n      iszero\n      tag_310\n      jumpi\n        /* \"#utility.yul\":11992:12010   */\n      tag_311\n      tag_284\n      jump\t// in\n    tag_311:\n        /* \"#utility.yul\":11909:12012   */\n    tag_310:\n        /* \"#utility.yul\":12039:12040   */\n      0x01\n        /* \"#utility.yul\":12032:12037   */\n      dup3\n        /* \"#utility.yul\":12028:12041   */\n      add\n        /* \"#utility.yul\":12021:12041   */\n      swap1\n      pop\n        /* \"#utility.yul\":11814:12047   */\n      swap2\n      swap1\n      pop\n      jump\t// out\n        /* \"#utility.yul\":12053:12233   */\n    tag_284:\n        /* \"#utility.yul\":12101:12178   */\n      0x4e487b7100000000000000000000000000000000000000000000000000000000\n        /* \"#utility.yul\":12098:12099   */\n      0x00\n        /* \"#utility.yul\":12091:12179   */\n      mstore\n        /* \"#utility.yul\":12198:12202   */\n      0x11\n        /* \"#utility.yul\":12195:12196   */\n      0x04\n        /* \"#utility.yul\":12188:12203   */\n      mstore\n        /* \"#utility.yul\":12222:12226   */\n      0x24\n        /* \"#utility.yul\":12219:12220   */\n      0x00\n        /* \"#utility.yul\":12212:12227   */\n      revert\n        /* \"#utility.yul\":12239:12419   */\n    tag_64:\n        /* \"#utility.yul\":12287:12364   */\n      0x4e487b7100000000000000000000000000000000000000000000000000000000\n        /* \"#utility.yul\":12284:12285   */\n      0x00\n        /* \"#utility.yul\":12277:12365   */\n      mstore\n        /* \"#utility.yul\":12384:12388   */\n      0x32\n        /* \"#utility.yul\":12381:12382   */\n      0x04\n        /* \"#utility.yul\":12374:12389   */\n      mstore\n        /* \"#utility.yul\":12408:12412   */\n      0x24\n        /* \"#utility.yul\":12405:12406   */\n      0x00\n        /* \"#utility.yul\":12398:12413   */\n      revert\n        /* \"#utility.yul\":12425:12605   */\n    tag_80:\n        /* \"#utility.yul\":12473:12550   */\n      0x4e487b7100000000000000000000000000000000000000000000000000000000\n        /* \"#utility.yul\":12470:12471   */\n      0x00\n        /* \"#utility.yul\":12463:12551   */\n      mstore\n        /* \"#utility.yul\":12570:12574   */\n      0x41\n        /* \"#utility.yul\":12567:12568   */\n      0x04\n        /* \"#utility.yul\":12560:12575   */\n      mstore\n        /* \"#utility.yul\":12594:12598   */\n      0x24\n        /* \"#utility.yul\":12591:12592   */\n      0x00\n        /* \"#utility.yul\":12584:12599   */\n      revert\n        /* \"#utility.yul\":12734:12851   */\n    tag_163:\n        /* \"#utility.yul\":12843:12844   */\n      0x00\n        /* \"#utility.yul\":12840:12841   */\n      dup1\n        /* \"#utility.yul\":12833:12845   */\n      revert\n        /* \"#utility.yul\":12857:12959   */\n    tag_229:\n        /* \"#utility.yul\":12898:12904   */\n      0x00\n        /* \"#utility.yul\":12949:12951   */\n      0x1f\n        /* \"#utility.yul\":12945:12952   */\n      not\n        /* \"#utility.yul\":12940:12942   */\n      0x1f\n        /* \"#utility.yul\":12933:12938   */\n      dup4\n        /* \"#utility.yul\":12929:12943   */\n      add\n        /* \"#utility.yul\":12925:12953   */\n      and\n        /* \"#utility.yul\":12915:12953   */\n      swap1\n      pop\n        /* \"#utility.yul\":12857:12959   */\n      swap2\n      swap1\n      pop\n      jump\t// out\n        /* \"#utility.yul\":12965:13137   */\n    tag_234:\n        /* \"#utility.yul\":13105:13129   */\n      0x4f6e6c79206d616e616765722063616e2063616c6c2100000000000000000000\n        /* \"#utility.yul\":13101:13102   */\n      0x00\n        /* \"#utility.yul\":13093:13099   */\n      dup3\n        /* \"#utility.yul\":13089:13103   */\n      add\n        /* \"#utility.yul\":13082:13130   */\n      mstore\n        /* \"#utility.yul\":12965:13137   */\n      pop\n      jump\t// out\n        /* \"#utility.yul\":13143:13366   */\n    tag_239:\n        /* \"#utility.yul\":13283:13317   */\n      0x49742773206a757374206265656e206c657373207468616e203130207365636f\n        /* \"#utility.yul\":13279:13280   */\n      0x00\n        /* \"#utility.yul\":13271:13277   */\n      dup3\n        /* \"#utility.yul\":13267:13281   */\n      add\n        /* \"#utility.yul\":13260:13318   */\n      mstore\n        /* \"#utility.yul\":13352:13358   */\n      0x6e64732100000000000000000000000000000000000000000000000000000000\n        /* \"#utility.yul\":13347:13349   */\n      0x20\n        /* \"#utility.yul\":13339:13345   */\n      dup3\n        /* \"#utility.yul\":13335:13350   */\n      add\n        /* \"#utility.yul\":13328:13359   */\n      mstore\n        /* \"#utility.yul\":13143:13366   */\n      pop\n      jump\t// out\n        /* \"#utility.yul\":13372:13544   */\n    tag_244:\n        /* \"#utility.yul\":13512:13536   */\n      0x4f6e6c7920636c69656e74732063616e2063616c6c2100000000000000000000\n        /* \"#utility.yul\":13508:13509   */\n      0x00\n        /* \"#utility.yul\":13500:13506   */\n      dup3\n        /* \"#utility.yul\":13496:13510   */\n      add\n        /* \"#utility.yul\":13489:13537   */\n      mstore\n        /* \"#utility.yul\":13372:13544   */\n      pop\n      jump\t// out\n        /* \"#utility.yul\":13550:13672   */\n    tag_151:\n        /* \"#utility.yul\":13623:13647   */\n      tag_323\n        /* \"#utility.yul\":13641:13646   */\n      dup2\n        /* \"#utility.yul\":13623:13647   */\n      tag_188\n      jump\t// in\n    tag_323:\n        /* \"#utility.yul\":13616:13621   */\n      dup2\n        /* \"#utility.yul\":13613:13648   */\n      eq\n        /* \"#utility.yul\":13603:13666   */\n      tag_324\n      jumpi\n        /* \"#utility.yul\":13662:13663   */\n      0x00\n        /* \"#utility.yul\":13659:13660   */\n      dup1\n        /* \"#utility.yul\":13652:13664   */\n      revert\n        /* \"#utility.yul\":13603:13666   */\n    tag_324:\n        /* \"#utility.yul\":13550:13672   */\n      pop\n      jump\t// out\n        /* \"#utility.yul\":13678:13794   */\n    tag_155:\n        /* \"#utility.yul\":13748:13769   */\n      tag_326\n        /* \"#utility.yul\":13763:13768   */\n      dup2\n        /* \"#utility.yul\":13748:13769   */\n      tag_293\n      jump\t// in\n    tag_326:\n        /* \"#utility.yul\":13741:13746   */\n      dup2\n        /* \"#utility.yul\":13738:13770   */\n      eq\n        /* \"#utility.yul\":13728:13788   */\n      tag_327\n      jumpi\n        /* \"#utility.yul\":13784:13785   */\n      0x00\n        /* \"#utility.yul\":13781:13782   */\n      dup1\n        /* \"#utility.yul\":13774:13786   */\n      revert\n        /* \"#utility.yul\":13728:13788   */\n    tag_327:\n        /* \"#utility.yul\":13678:13794   */\n      pop\n      jump\t// out\n        /* \"#utility.yul\":13800:13922   */\n    tag_159:\n        /* \"#utility.yul\":13873:13897   */\n      tag_329\n        /* \"#utility.yul\":13891:13896   */\n      dup2\n        /* \"#utility.yul\":13873:13897   */\n      tag_247\n      jump\t// in\n    tag_329:\n        /* \"#utility.yul\":13866:13871   */\n      dup2\n        /* \"#utility.yul\":13863:13898   */\n      eq\n        /* \"#utility.yul\":13853:13916   */\n      tag_330\n      jumpi\n        /* \"#utility.yul\":13912:13913   */\n      0x00\n        /* \"#utility.yul\":13909:13910   */\n      dup1\n        /* \"#utility.yul\":13902:13914   */\n      revert\n        /* \"#utility.yul\":13853:13916   */\n    tag_330:\n        /* \"#utility.yul\":13800:13922   */\n      pop\n      jump\t// out\n\n    auxdata: 0xa2646970667358221220f34f9245fd05fb4ee90503c48a7dd12a0224b1ad2c34691b52f1a6da4ba2e6f064736f6c63430008070033\n}\n",
				"bytecode": {
					"linkReferences": {},
					"object": "608060405234801561001057600080fd5b5060006001819055506112b7806100286000396000f3fe6080604052600436106100955760003560e01c8063d0e30db011610059578063d0e30db01461013c578063d0ebdbe714610146578063d9dca6c514610183578063f5d51c06146101c0578063fef75470146101e95761009c565b80632e1a7d4d146100a15780636db80995146100bd5780636f9fb98a146100e95780639e0a5d6814610114578063a40921741461011e5761009c565b3661009c57005b600080fd5b6100bb60048036038101906100b69190610baf565b610214565b005b3480156100c957600080fd5b506100d2610358565b6040516100e0929190610dcf565b60405180910390f35b3480156100f557600080fd5b506100fe610505565b60405161010b9190610e88565b60405180910390f35b61011c61050d565b005b610126610734565b6040516101339190610e06565b60405180910390f35b610144610875565b005b34801561015257600080fd5b5061016d60048036038101906101689190610b15565b6109a6565b60405161017a9190610e06565b60405180910390f35b34801561018f57600080fd5b506101aa60048036038101906101a59190610b15565b610a00565b6040516101b79190610e88565b60405180910390f35b3480156101cc57600080fd5b506101e760048036038101906101e29190610b42565b610a18565b005b3480156101f557600080fd5b506101fe610ac4565b60405161020b9190610e88565b60405180910390f35b6000805b6000805490508110156102ba573373ffffffffffffffffffffffffffffffffffffffff16600082815481106102505761024f611127565b5b906000526020600020906003020160010160009054906101000a900473ffffffffffffffffffffffffffffffffffffffff1673ffffffffffffffffffffffffffffffffffffffff1614156102a757600191506102ba565b80806102b2906110af565b915050610218565b50806102fb576040517f08c379a00000000000000000000000000000000000000000000000000000000081526004016102f290610e68565b60405180910390fd5b60003390508073ffffffffffffffffffffffffffffffffffffffff166108fc6001856103279190610f87565b9081150290604051600060405180830381858888f19350505050158015610352573d6000803e3d6000fd5b50505050565b6060806000808054905067ffffffffffffffff81111561037b5761037a611156565b5b6040519080825280602002602001820160405280156103a95781602001602082028036833780820191505090505b5090506000808054905067ffffffffffffffff8111156103cc576103cb611156565b5b6040519080825280602002602001820160405280156103fa5781602001602082028036833780820191505090505b50905060005b6000805490508110156104f8576000818154811061042157610420611127565b5b906000526020600020906003020160010160009054906101000a900473ffffffffffffffffffffffffffffffffffffffff1683828151811061046657610465611127565b5b602002602001019073ffffffffffffffffffffffffffffffffffffffff16908173ffffffffffffffffffffffffffffffffffffffff1681525050600081815481106104b4576104b3611127565b5b9060005260206000209060030201600201548282815181106104d9576104d8611127565b5b60200260200101818152505080806104f0906110af565b915050610400565b5081819350935050509091565b600047905090565b600260009054906101000a900473ffffffffffffffffffffffffffffffffffffffff1673ffffffffffffffffffffffffffffffffffffffff163373ffffffffffffffffffffffffffffffffffffffff161461059d576040517f08c379a000000000000000000000000000000000000000000000000000000000815260040161059490610e28565b60405180910390fd5b60005b6000805490508110156107315760008082815481106105c2576105c1611127565b5b906000526020600020906003020160010160009054906101000a900473ffffffffffffffffffffffffffffffffffffffff1690506000600360008373ffffffffffffffffffffffffffffffffffffffff1673ffffffffffffffffffffffffffffffffffffffff168152602001908152602001600020549050600a816106479190610f31565b421015610689576040517f08c379a000000000000000000000000000000000000000000000000000000000815260040161068090610e48565b60405180910390fd5b8173ffffffffffffffffffffffffffffffffffffffff166108fc670de0b6b3a76400009081150290604051600060405180830381858888f193505050501580156106d7573d6000803e3d6000fd5b5042600360008473ffffffffffffffffffffffffffffffffffffffff1673ffffffffffffffffffffffffffffffffffffffff1681526020019081526020016000208190555050508080610729906110af565b9150506105a0565b50565b606042600360003373ffffffffffffffffffffffffffffffffffffffff1673ffffffffffffffffffffffffffffffffffffffff16815260200190815260200160002081905550600060405180606001604052806001600081548092919061079a90611066565b9190505581526020013373ffffffffffffffffffffffffffffffffffffffff1681526020013373ffffffffffffffffffffffffffffffffffffffff163181525090806001815401808255809150506001900390600052602060002090600302016000909190919091506000820151816000015560208201518160010160006101000a81548173ffffffffffffffffffffffffffffffffffffffff021916908373ffffffffffffffffffffffffffffffffffffffff16021790555060408201518160020155505060405180602001604052806000815250905090565b6000805b60008054905081101561091b573373ffffffffffffffffffffffffffffffffffffffff16600082815481106108b1576108b0611127565b5b906000526020600020906003020160010160009054906101000a900473ffffffffffffffffffffffffffffffffffffffff1673ffffffffffffffffffffffffffffffffffffffff161415610908576001915061091b565b8080610913906110af565b915050610879565b508061095c576040517f08c379a000000000000000000000000000000000000000000000000000000000815260040161095390610e68565b60405180910390fd5b3073ffffffffffffffffffffffffffffffffffffffff166108fc349081150290604051600060405180830381858888f193505050501580156109a2573d6000803e3d6000fd5b5050565b606081600260006101000a81548173ffffffffffffffffffffffffffffffffffffffff021916908373ffffffffffffffffffffffffffffffffffffffff160217905550604051806020016040528060008152509050919050565b60036020528060005260406000206000915090505481565b600073d9145cce52d386f254917e481eb44e9943f3913890508073ffffffffffffffffffffffffffffffffffffffff1663a9059cbb84846040518363ffffffff1660e01b8152600401610a6c929190610da6565b602060405180830381600087803b158015610a8657600080fd5b505af1158015610a9a573d6000803e3d6000fd5b505050506040513d601f19601f82011682018060405250810190610abe9190610b82565b50505050565b60008060008054905090508091505090565b600081359050610ae58161123c565b92915050565b600081519050610afa81611253565b92915050565b600081359050610b0f8161126a565b92915050565b600060208284031215610b2b57610b2a611185565b5b6000610b3984828501610ad6565b91505092915050565b60008060408385031215610b5957610b58611185565b5b6000610b6785828601610ad6565b9250506020610b7885828601610b00565b9150509250929050565b600060208284031215610b9857610b97611185565b5b6000610ba684828501610aeb565b91505092915050565b600060208284031215610bc557610bc4611185565b5b6000610bd384828501610b00565b91505092915050565b6000610be88383610c0c565b60208301905092915050565b6000610c008383610d88565b60208301905092915050565b610c1581610fe1565b82525050565b610c2481610fe1565b82525050565b6000610c3582610ec3565b610c3f8185610efe565b9350610c4a83610ea3565b8060005b83811015610c7b578151610c628882610bdc565b9750610c6d83610ee4565b925050600181019050610c4e565b5085935050505092915050565b6000610c9382610ece565b610c9d8185610f0f565b9350610ca883610eb3565b8060005b83811015610cd9578151610cc08882610bf4565b9750610ccb83610ef1565b925050600181019050610cac565b5085935050505092915050565b6000610cf182610ed9565b610cfb8185610f20565b9350610d0b818560208601611033565b610d148161118a565b840191505092915050565b6000610d2c601683610f20565b9150610d378261119b565b602082019050919050565b6000610d4f602483610f20565b9150610d5a826111c4565b604082019050919050565b6000610d72601683610f20565b9150610d7d82611213565b602082019050919050565b610d9181611029565b82525050565b610da081611029565b82525050565b6000604082019050610dbb6000830185610c1b565b610dc86020830184610d97565b9392505050565b60006040820190508181036000830152610de98185610c2a565b90508181036020830152610dfd8184610c88565b90509392505050565b60006020820190508181036000830152610e208184610ce6565b905092915050565b60006020820190508181036000830152610e4181610d1f565b9050919050565b60006020820190508181036000830152610e6181610d42565b9050919050565b60006020820190508181036000830152610e8181610d65565b9050919050565b6000602082019050610e9d6000830184610d97565b92915050565b6000819050602082019050919050565b6000819050602082019050919050565b600081519050919050565b600081519050919050565b600081519050919050565b6000602082019050919050565b6000602082019050919050565b600082825260208201905092915050565b600082825260208201905092915050565b600082825260208201905092915050565b6000610f3c82611029565b9150610f4783611029565b9250827fffffffffffffffffffffffffffffffffffffffffffffffffffffffffffffffff03821115610f7c57610f7b6110f8565b5b828201905092915050565b6000610f9282611029565b9150610f9d83611029565b9250817fffffffffffffffffffffffffffffffffffffffffffffffffffffffffffffffff0483118215151615610fd657610fd56110f8565b5b828202905092915050565b6000610fec82611009565b9050919050565b60008115159050919050565b6000819050919050565b600073ffffffffffffffffffffffffffffffffffffffff82169050919050565b6000819050919050565b60005b83811015611051578082015181840152602081019050611036565b83811115611060576000848401525b50505050565b600061107182610fff565b91507f7fffffffffffffffffffffffffffffffffffffffffffffffffffffffffffffff8214156110a4576110a36110f8565b5b600182019050919050565b60006110ba82611029565b91507fffffffffffffffffffffffffffffffffffffffffffffffffffffffffffffffff8214156110ed576110ec6110f8565b5b600182019050919050565b7f4e487b7100000000000000000000000000000000000000000000000000000000600052601160045260246000fd5b7f4e487b7100000000000000000000000000000000000000000000000000000000600052603260045260246000fd5b7f4e487b7100000000000000000000000000000000000000000000000000000000600052604160045260246000fd5b600080fd5b6000601f19601f8301169050919050565b7f4f6e6c79206d616e616765722063616e2063616c6c2100000000000000000000600082015250565b7f49742773206a757374206265656e206c657373207468616e203130207365636f60008201527f6e64732100000000000000000000000000000000000000000000000000000000602082015250565b7f4f6e6c7920636c69656e74732063616e2063616c6c2100000000000000000000600082015250565b61124581610fe1565b811461125057600080fd5b50565b61125c81610ff3565b811461126757600080fd5b50565b61127381611029565b811461127e57600080fd5b5056fea2646970667358221220f34f9245fd05fb4ee90503c48a7dd12a0224b1ad2c34691b52f1a6da4ba2e6f064736f6c63430008070033",
					"opcodes": "PUSH1 0x80 PUSH1 0x40 MSTORE CALLVALUE DUP1 ISZERO PUSH2 0x10 JUMPI PUSH1 0x0 DUP1 REVERT JUMPDEST POP PUSH1 0x0 PUSH1 0x1 DUP2 SWAP1 SSTORE POP PUSH2 0x12B7 DUP1 PUSH2 0x28 PUSH1 0x0 CODECOPY PUSH1 0x0 RETURN INVALID PUSH1 0x80 PUSH1 0x40 MSTORE PUSH1 0x4 CALLDATASIZE LT PUSH2 0x95 JUMPI PUSH1 0x0 CALLDATALOAD PUSH1 0xE0 SHR DUP1 PUSH4 0xD0E30DB0 GT PUSH2 0x59 JUMPI DUP1 PUSH4 0xD0E30DB0 EQ PUSH2 0x13C JUMPI DUP1 PUSH4 0xD0EBDBE7 EQ PUSH2 0x146 JUMPI DUP1 PUSH4 0xD9DCA6C5 EQ PUSH2 0x183 JUMPI DUP1 PUSH4 0xF5D51C06 EQ PUSH2 0x1C0 JUMPI DUP1 PUSH4 0xFEF75470 EQ PUSH2 0x1E9 JUMPI PUSH2 0x9C JUMP JUMPDEST DUP1 PUSH4 0x2E1A7D4D EQ PUSH2 0xA1 JUMPI DUP1 PUSH4 0x6DB80995 EQ PUSH2 0xBD JUMPI DUP1 PUSH4 0x6F9FB98A EQ PUSH2 0xE9 JUMPI DUP1 PUSH4 0x9E0A5D68 EQ PUSH2 0x114 JUMPI DUP1 PUSH4 0xA4092174 EQ PUSH2 0x11E JUMPI PUSH2 0x9C JUMP JUMPDEST CALLDATASIZE PUSH2 0x9C JUMPI STOP JUMPDEST PUSH1 0x0 DUP1 REVERT JUMPDEST PUSH2 0xBB PUSH1 0x4 DUP1 CALLDATASIZE SUB DUP2 ADD SWAP1 PUSH2 0xB6 SWAP2 SWAP1 PUSH2 0xBAF JUMP JUMPDEST PUSH2 0x214 JUMP JUMPDEST STOP JUMPDEST CALLVALUE DUP1 ISZERO PUSH2 0xC9 JUMPI PUSH1 0x0 DUP1 REVERT JUMPDEST POP PUSH2 0xD2 PUSH2 0x358 JUMP JUMPDEST PUSH1 0x40 MLOAD PUSH2 0xE0 SWAP3 SWAP2 SWAP1 PUSH2 0xDCF JUMP JUMPDEST PUSH1 0x40 MLOAD DUP1 SWAP2 SUB SWAP1 RETURN JUMPDEST CALLVALUE DUP1 ISZERO PUSH2 0xF5 JUMPI PUSH1 0x0 DUP1 REVERT JUMPDEST POP PUSH2 0xFE PUSH2 0x505 JUMP JUMPDEST PUSH1 0x40 MLOAD PUSH2 0x10B SWAP2 SWAP1 PUSH2 0xE88 JUMP JUMPDEST PUSH1 0x40 MLOAD DUP1 SWAP2 SUB SWAP1 RETURN JUMPDEST PUSH2 0x11C PUSH2 0x50D JUMP JUMPDEST STOP JUMPDEST PUSH2 0x126 PUSH2 0x734 JUMP JUMPDEST PUSH1 0x40 MLOAD PUSH2 0x133 SWAP2 SWAP1 PUSH2 0xE06 JUMP JUMPDEST PUSH1 0x40 MLOAD DUP1 SWAP2 SUB SWAP1 RETURN JUMPDEST PUSH2 0x144 PUSH2 0x875 JUMP JUMPDEST STOP JUMPDEST CALLVALUE DUP1 ISZERO PUSH2 0x152 JUMPI PUSH1 0x0 DUP1 REVERT JUMPDEST POP PUSH2 0x16D PUSH1 0x4 DUP1 CALLDATASIZE SUB DUP2 ADD SWAP1 PUSH2 0x168 SWAP2 SWAP1 PUSH2 0xB15 JUMP JUMPDEST PUSH2 0x9A6 JUMP JUMPDEST PUSH1 0x40 MLOAD PUSH2 0x17A SWAP2 SWAP1 PUSH2 0xE06 JUMP JUMPDEST PUSH1 0x40 MLOAD DUP1 SWAP2 SUB SWAP1 RETURN JUMPDEST CALLVALUE DUP1 ISZERO PUSH2 0x18F JUMPI PUSH1 0x0 DUP1 REVERT JUMPDEST POP PUSH2 0x1AA PUSH1 0x4 DUP1 CALLDATASIZE SUB DUP2 ADD SWAP1 PUSH2 0x1A5 SWAP2 SWAP1 PUSH2 0xB15 JUMP JUMPDEST PUSH2 0xA00 JUMP JUMPDEST PUSH1 0x40 MLOAD PUSH2 0x1B7 SWAP2 SWAP1 PUSH2 0xE88 JUMP JUMPDEST PUSH1 0x40 MLOAD DUP1 SWAP2 SUB SWAP1 RETURN JUMPDEST CALLVALUE DUP1 ISZERO PUSH2 0x1CC JUMPI PUSH1 0x0 DUP1 REVERT JUMPDEST POP PUSH2 0x1E7 PUSH1 0x4 DUP1 CALLDATASIZE SUB DUP2 ADD SWAP1 PUSH2 0x1E2 SWAP2 SWAP1 PUSH2 0xB42 JUMP JUMPDEST PUSH2 0xA18 JUMP JUMPDEST STOP JUMPDEST CALLVALUE DUP1 ISZERO PUSH2 0x1F5 JUMPI PUSH1 0x0 DUP1 REVERT JUMPDEST POP PUSH2 0x1FE PUSH2 0xAC4 JUMP JUMPDEST PUSH1 0x40 MLOAD PUSH2 0x20B SWAP2 SWAP1 PUSH2 0xE88 JUMP JUMPDEST PUSH1 0x40 MLOAD DUP1 SWAP2 SUB SWAP1 RETURN JUMPDEST PUSH1 0x0 DUP1 JUMPDEST PUSH1 0x0 DUP1 SLOAD SWAP1 POP DUP2 LT ISZERO PUSH2 0x2BA JUMPI CALLER PUSH20 0xFFFFFFFFFFFFFFFFFFFFFFFFFFFFFFFFFFFFFFFF AND PUSH1 0x0 DUP3 DUP2 SLOAD DUP2 LT PUSH2 0x250 JUMPI PUSH2 0x24F PUSH2 0x1127 JUMP JUMPDEST JUMPDEST SWAP1 PUSH1 0x0 MSTORE PUSH1 0x20 PUSH1 0x0 KECCAK256 SWAP1 PUSH1 0x3 MUL ADD PUSH1 0x1 ADD PUSH1 0x0 SWAP1 SLOAD SWAP1 PUSH2 0x100 EXP SWAP1 DIV PUSH20 0xFFFFFFFFFFFFFFFFFFFFFFFFFFFFFFFFFFFFFFFF AND PUSH20 0xFFFFFFFFFFFFFFFFFFFFFFFFFFFFFFFFFFFFFFFF AND EQ ISZERO PUSH2 0x2A7 JUMPI PUSH1 0x1 SWAP2 POP PUSH2 0x2BA JUMP JUMPDEST DUP1 DUP1 PUSH2 0x2B2 SWAP1 PUSH2 0x10AF JUMP JUMPDEST SWAP2 POP POP PUSH2 0x218 JUMP JUMPDEST POP DUP1 PUSH2 0x2FB JUMPI PUSH1 0x40 MLOAD PUSH32 0x8C379A000000000000000000000000000000000000000000000000000000000 DUP2 MSTORE PUSH1 0x4 ADD PUSH2 0x2F2 SWAP1 PUSH2 0xE68 JUMP JUMPDEST PUSH1 0x40 MLOAD DUP1 SWAP2 SUB SWAP1 REVERT JUMPDEST PUSH1 0x0 CALLER SWAP1 POP DUP1 PUSH20 0xFFFFFFFFFFFFFFFFFFFFFFFFFFFFFFFFFFFFFFFF AND PUSH2 0x8FC PUSH1 0x1 DUP6 PUSH2 0x327 SWAP2 SWAP1 PUSH2 0xF87 JUMP JUMPDEST SWAP1 DUP2 ISZERO MUL SWAP1 PUSH1 0x40 MLOAD PUSH1 0x0 PUSH1 0x40 MLOAD DUP1 DUP4 SUB DUP2 DUP6 DUP9 DUP9 CALL SWAP4 POP POP POP POP ISZERO DUP1 ISZERO PUSH2 0x352 JUMPI RETURNDATASIZE PUSH1 0x0 DUP1 RETURNDATACOPY RETURNDATASIZE PUSH1 0x0 REVERT JUMPDEST POP POP POP POP JUMP JUMPDEST PUSH1 0x60 DUP1 PUSH1 0x0 DUP1 DUP1 SLOAD SWAP1 POP PUSH8 0xFFFFFFFFFFFFFFFF DUP2 GT ISZERO PUSH2 0x37B JUMPI PUSH2 0x37A PUSH2 0x1156 JUMP JUMPDEST JUMPDEST PUSH1 0x40 MLOAD SWAP1 DUP1 DUP3 MSTORE DUP1 PUSH1 0x20 MUL PUSH1 0x20 ADD DUP3 ADD PUSH1 0x40 MSTORE DUP1 ISZERO PUSH2 0x3A9 JUMPI DUP2 PUSH1 0x20 ADD PUSH1 0x20 DUP3 MUL DUP1 CALLDATASIZE DUP4 CALLDATACOPY DUP1 DUP3 ADD SWAP2 POP POP SWAP1 POP JUMPDEST POP SWAP1 POP PUSH1 0x0 DUP1 DUP1 SLOAD SWAP1 POP PUSH8 0xFFFFFFFFFFFFFFFF DUP2 GT ISZERO PUSH2 0x3CC JUMPI PUSH2 0x3CB PUSH2 0x1156 JUMP JUMPDEST JUMPDEST PUSH1 0x40 MLOAD SWAP1 DUP1 DUP3 MSTORE DUP1 PUSH1 0x20 MUL PUSH1 0x20 ADD DUP3 ADD PUSH1 0x40 MSTORE DUP1 ISZERO PUSH2 0x3FA JUMPI DUP2 PUSH1 0x20 ADD PUSH1 0x20 DUP3 MUL DUP1 CALLDATASIZE DUP4 CALLDATACOPY DUP1 DUP3 ADD SWAP2 POP POP SWAP1 POP JUMPDEST POP SWAP1 POP PUSH1 0x0 JUMPDEST PUSH1 0x0 DUP1 SLOAD SWAP1 POP DUP2 LT ISZERO PUSH2 0x4F8 JUMPI PUSH1 0x0 DUP2 DUP2 SLOAD DUP2 LT PUSH2 0x421 JUMPI PUSH2 0x420 PUSH2 0x1127 JUMP JUMPDEST JUMPDEST SWAP1 PUSH1 0x0 MSTORE PUSH1 0x20 PUSH1 0x0 KECCAK256 SWAP1 PUSH1 0x3 MUL ADD PUSH1 0x1 ADD PUSH1 0x0 SWAP1 SLOAD SWAP1 PUSH2 0x100 EXP SWAP1 DIV PUSH20 0xFFFFFFFFFFFFFFFFFFFFFFFFFFFFFFFFFFFFFFFF AND DUP4 DUP3 DUP2 MLOAD DUP2 LT PUSH2 0x466 JUMPI PUSH2 0x465 PUSH2 0x1127 JUMP JUMPDEST JUMPDEST PUSH1 0x20 MUL PUSH1 0x20 ADD ADD SWAP1 PUSH20 0xFFFFFFFFFFFFFFFFFFFFFFFFFFFFFFFFFFFFFFFF AND SWAP1 DUP2 PUSH20 0xFFFFFFFFFFFFFFFFFFFFFFFFFFFFFFFFFFFFFFFF AND DUP2 MSTORE POP POP PUSH1 0x0 DUP2 DUP2 SLOAD DUP2 LT PUSH2 0x4B4 JUMPI PUSH2 0x4B3 PUSH2 0x1127 JUMP JUMPDEST JUMPDEST SWAP1 PUSH1 0x0 MSTORE PUSH1 0x20 PUSH1 0x0 KECCAK256 SWAP1 PUSH1 0x3 MUL ADD PUSH1 0x2 ADD SLOAD DUP3 DUP3 DUP2 MLOAD DUP2 LT PUSH2 0x4D9 JUMPI PUSH2 0x4D8 PUSH2 0x1127 JUMP JUMPDEST JUMPDEST PUSH1 0x20 MUL PUSH1 0x20 ADD ADD DUP2 DUP2 MSTORE POP POP DUP1 DUP1 PUSH2 0x4F0 SWAP1 PUSH2 0x10AF JUMP JUMPDEST SWAP2 POP POP PUSH2 0x400 JUMP JUMPDEST POP DUP2 DUP2 SWAP4 POP SWAP4 POP POP POP SWAP1 SWAP2 JUMP JUMPDEST PUSH1 0x0 SELFBALANCE SWAP1 POP SWAP1 JUMP JUMPDEST PUSH1 0x2 PUSH1 0x0 SWAP1 SLOAD SWAP1 PUSH2 0x100 EXP SWAP1 DIV PUSH20 0xFFFFFFFFFFFFFFFFFFFFFFFFFFFFFFFFFFFFFFFF AND PUSH20 0xFFFFFFFFFFFFFFFFFFFFFFFFFFFFFFFFFFFFFFFF AND CALLER PUSH20 0xFFFFFFFFFFFFFFFFFFFFFFFFFFFFFFFFFFFFFFFF AND EQ PUSH2 0x59D JUMPI PUSH1 0x40 MLOAD PUSH32 0x8C379A000000000000000000000000000000000000000000000000000000000 DUP2 MSTORE PUSH1 0x4 ADD PUSH2 0x594 SWAP1 PUSH2 0xE28 JUMP JUMPDEST PUSH1 0x40 MLOAD DUP1 SWAP2 SUB SWAP1 REVERT JUMPDEST PUSH1 0x0 JUMPDEST PUSH1 0x0 DUP1 SLOAD SWAP1 POP DUP2 LT ISZERO PUSH2 0x731 JUMPI PUSH1 0x0 DUP1 DUP3 DUP2 SLOAD DUP2 LT PUSH2 0x5C2 JUMPI PUSH2 0x5C1 PUSH2 0x1127 JUMP JUMPDEST JUMPDEST SWAP1 PUSH1 0x0 MSTORE PUSH1 0x20 PUSH1 0x0 KECCAK256 SWAP1 PUSH1 0x3 MUL ADD PUSH1 0x1 ADD PUSH1 0x0 SWAP1 SLOAD SWAP1 PUSH2 0x100 EXP SWAP1 DIV PUSH20 0xFFFFFFFFFFFFFFFFFFFFFFFFFFFFFFFFFFFFFFFF AND SWAP1 POP PUSH1 0x0 PUSH1 0x3 PUSH1 0x0 DUP4 PUSH20 0xFFFFFFFFFFFFFFFFFFFFFFFFFFFFFFFFFFFFFFFF AND PUSH20 0xFFFFFFFFFFFFFFFFFFFFFFFFFFFFFFFFFFFFFFFF AND DUP2 MSTORE PUSH1 0x20 ADD SWAP1 DUP2 MSTORE PUSH1 0x20 ADD PUSH1 0x0 KECCAK256 SLOAD SWAP1 POP PUSH1 0xA DUP2 PUSH2 0x647 SWAP2 SWAP1 PUSH2 0xF31 JUMP JUMPDEST TIMESTAMP LT ISZERO PUSH2 0x689 JUMPI PUSH1 0x40 MLOAD PUSH32 0x8C379A000000000000000000000000000000000000000000000000000000000 DUP2 MSTORE PUSH1 0x4 ADD PUSH2 0x680 SWAP1 PUSH2 0xE48 JUMP JUMPDEST PUSH1 0x40 MLOAD DUP1 SWAP2 SUB SWAP1 REVERT JUMPDEST DUP2 PUSH20 0xFFFFFFFFFFFFFFFFFFFFFFFFFFFFFFFFFFFFFFFF AND PUSH2 0x8FC PUSH8 0xDE0B6B3A7640000 SWAP1 DUP2 ISZERO MUL SWAP1 PUSH1 0x40 MLOAD PUSH1 0x0 PUSH1 0x40 MLOAD DUP1 DUP4 SUB DUP2 DUP6 DUP9 DUP9 CALL SWAP4 POP POP POP POP ISZERO DUP1 ISZERO PUSH2 0x6D7 JUMPI RETURNDATASIZE PUSH1 0x0 DUP1 RETURNDATACOPY RETURNDATASIZE PUSH1 0x0 REVERT JUMPDEST POP TIMESTAMP PUSH1 0x3 PUSH1 0x0 DUP5 PUSH20 0xFFFFFFFFFFFFFFFFFFFFFFFFFFFFFFFFFFFFFFFF AND PUSH20 0xFFFFFFFFFFFFFFFFFFFFFFFFFFFFFFFFFFFFFFFF AND DUP2 MSTORE PUSH1 0x20 ADD SWAP1 DUP2 MSTORE PUSH1 0x20 ADD PUSH1 0x0 KECCAK256 DUP2 SWAP1 SSTORE POP POP POP DUP1 DUP1 PUSH2 0x729 SWAP1 PUSH2 0x10AF JUMP JUMPDEST SWAP2 POP POP PUSH2 0x5A0 JUMP JUMPDEST POP JUMP JUMPDEST PUSH1 0x60 TIMESTAMP PUSH1 0x3 PUSH1 0x0 CALLER PUSH20 0xFFFFFFFFFFFFFFFFFFFFFFFFFFFFFFFFFFFFFFFF AND PUSH20 0xFFFFFFFFFFFFFFFFFFFFFFFFFFFFFFFFFFFFFFFF AND DUP2 MSTORE PUSH1 0x20 ADD SWAP1 DUP2 MSTORE PUSH1 0x20 ADD PUSH1 0x0 KECCAK256 DUP2 SWAP1 SSTORE POP PUSH1 0x0 PUSH1 0x40 MLOAD DUP1 PUSH1 0x60 ADD PUSH1 0x40 MSTORE DUP1 PUSH1 0x1 PUSH1 0x0 DUP2 SLOAD DUP1 SWAP3 SWAP2 SWAP1 PUSH2 0x79A SWAP1 PUSH2 0x1066 JUMP JUMPDEST SWAP2 SWAP1 POP SSTORE DUP2 MSTORE PUSH1 0x20 ADD CALLER PUSH20 0xFFFFFFFFFFFFFFFFFFFFFFFFFFFFFFFFFFFFFFFF AND DUP2 MSTORE PUSH1 0x20 ADD CALLER PUSH20 0xFFFFFFFFFFFFFFFFFFFFFFFFFFFFFFFFFFFFFFFF AND BALANCE DUP2 MSTORE POP SWAP1 DUP1 PUSH1 0x1 DUP2 SLOAD ADD DUP1 DUP3 SSTORE DUP1 SWAP2 POP POP PUSH1 0x1 SWAP1 SUB SWAP1 PUSH1 0x0 MSTORE PUSH1 0x20 PUSH1 0x0 KECCAK256 SWAP1 PUSH1 0x3 MUL ADD PUSH1 0x0 SWAP1 SWAP2 SWAP1 SWAP2 SWAP1 SWAP2 POP PUSH1 0x0 DUP3 ADD MLOAD DUP2 PUSH1 0x0 ADD SSTORE PUSH1 0x20 DUP3 ADD MLOAD DUP2 PUSH1 0x1 ADD PUSH1 0x0 PUSH2 0x100 EXP DUP2 SLOAD DUP2 PUSH20 0xFFFFFFFFFFFFFFFFFFFFFFFFFFFFFFFFFFFFFFFF MUL NOT AND SWAP1 DUP4 PUSH20 0xFFFFFFFFFFFFFFFFFFFFFFFFFFFFFFFFFFFFFFFF AND MUL OR SWAP1 SSTORE POP PUSH1 0x40 DUP3 ADD MLOAD DUP2 PUSH1 0x2 ADD SSTORE POP POP PUSH1 0x40 MLOAD DUP1 PUSH1 0x20 ADD PUSH1 0x40 MSTORE DUP1 PUSH1 0x0 DUP2 MSTORE POP SWAP1 POP SWAP1 JUMP JUMPDEST PUSH1 0x0 DUP1 JUMPDEST PUSH1 0x0 DUP1 SLOAD SWAP1 POP DUP2 LT ISZERO PUSH2 0x91B JUMPI CALLER PUSH20 0xFFFFFFFFFFFFFFFFFFFFFFFFFFFFFFFFFFFFFFFF AND PUSH1 0x0 DUP3 DUP2 SLOAD DUP2 LT PUSH2 0x8B1 JUMPI PUSH2 0x8B0 PUSH2 0x1127 JUMP JUMPDEST JUMPDEST SWAP1 PUSH1 0x0 MSTORE PUSH1 0x20 PUSH1 0x0 KECCAK256 SWAP1 PUSH1 0x3 MUL ADD PUSH1 0x1 ADD PUSH1 0x0 SWAP1 SLOAD SWAP1 PUSH2 0x100 EXP SWAP1 DIV PUSH20 0xFFFFFFFFFFFFFFFFFFFFFFFFFFFFFFFFFFFFFFFF AND PUSH20 0xFFFFFFFFFFFFFFFFFFFFFFFFFFFFFFFFFFFFFFFF AND EQ ISZERO PUSH2 0x908 JUMPI PUSH1 0x1 SWAP2 POP PUSH2 0x91B JUMP JUMPDEST DUP1 DUP1 PUSH2 0x913 SWAP1 PUSH2 0x10AF JUMP JUMPDEST SWAP2 POP POP PUSH2 0x879 JUMP JUMPDEST POP DUP1 PUSH2 0x95C JUMPI PUSH1 0x40 MLOAD PUSH32 0x8C379A000000000000000000000000000000000000000000000000000000000 DUP2 MSTORE PUSH1 0x4 ADD PUSH2 0x953 SWAP1 PUSH2 0xE68 JUMP JUMPDEST PUSH1 0x40 MLOAD DUP1 SWAP2 SUB SWAP1 REVERT JUMPDEST ADDRESS PUSH20 0xFFFFFFFFFFFFFFFFFFFFFFFFFFFFFFFFFFFFFFFF AND PUSH2 0x8FC CALLVALUE SWAP1 DUP2 ISZERO MUL SWAP1 PUSH1 0x40 MLOAD PUSH1 0x0 PUSH1 0x40 MLOAD DUP1 DUP4 SUB DUP2 DUP6 DUP9 DUP9 CALL SWAP4 POP POP POP POP ISZERO DUP1 ISZERO PUSH2 0x9A2 JUMPI RETURNDATASIZE PUSH1 0x0 DUP1 RETURNDATACOPY RETURNDATASIZE PUSH1 0x0 REVERT JUMPDEST POP POP JUMP JUMPDEST PUSH1 0x60 DUP2 PUSH1 0x2 PUSH1 0x0 PUSH2 0x100 EXP DUP2 SLOAD DUP2 PUSH20 0xFFFFFFFFFFFFFFFFFFFFFFFFFFFFFFFFFFFFFFFF MUL NOT AND SWAP1 DUP4 PUSH20 0xFFFFFFFFFFFFFFFFFFFFFFFFFFFFFFFFFFFFFFFF AND MUL OR SWAP1 SSTORE POP PUSH1 0x40 MLOAD DUP1 PUSH1 0x20 ADD PUSH1 0x40 MSTORE DUP1 PUSH1 0x0 DUP2 MSTORE POP SWAP1 POP SWAP2 SWAP1 POP JUMP JUMPDEST PUSH1 0x3 PUSH1 0x20 MSTORE DUP1 PUSH1 0x0 MSTORE PUSH1 0x40 PUSH1 0x0 KECCAK256 PUSH1 0x0 SWAP2 POP SWAP1 POP SLOAD DUP2 JUMP JUMPDEST PUSH1 0x0 PUSH20 0xD9145CCE52D386F254917E481EB44E9943F39138 SWAP1 POP DUP1 PUSH20 0xFFFFFFFFFFFFFFFFFFFFFFFFFFFFFFFFFFFFFFFF AND PUSH4 0xA9059CBB DUP5 DUP5 PUSH1 0x40 MLOAD DUP4 PUSH4 0xFFFFFFFF AND PUSH1 0xE0 SHL DUP2 MSTORE PUSH1 0x4 ADD PUSH2 0xA6C SWAP3 SWAP2 SWAP1 PUSH2 0xDA6 JUMP JUMPDEST PUSH1 0x20 PUSH1 0x40 MLOAD DUP1 DUP4 SUB DUP2 PUSH1 0x0 DUP8 DUP1 EXTCODESIZE ISZERO DUP1 ISZERO PUSH2 0xA86 JUMPI PUSH1 0x0 DUP1 REVERT JUMPDEST POP GAS CALL ISZERO DUP1 ISZERO PUSH2 0xA9A JUMPI RETURNDATASIZE PUSH1 0x0 DUP1 RETURNDATACOPY RETURNDATASIZE PUSH1 0x0 REVERT JUMPDEST POP POP POP POP PUSH1 0x40 MLOAD RETURNDATASIZE PUSH1 0x1F NOT PUSH1 0x1F DUP3 ADD AND DUP3 ADD DUP1 PUSH1 0x40 MSTORE POP DUP2 ADD SWAP1 PUSH2 0xABE SWAP2 SWAP1 PUSH2 0xB82 JUMP JUMPDEST POP POP POP POP JUMP JUMPDEST PUSH1 0x0 DUP1 PUSH1 0x0 DUP1 SLOAD SWAP1 POP SWAP1 POP DUP1 SWAP2 POP POP SWAP1 JUMP JUMPDEST PUSH1 0x0 DUP2 CALLDATALOAD SWAP1 POP PUSH2 0xAE5 DUP2 PUSH2 0x123C JUMP JUMPDEST SWAP3 SWAP2 POP POP JUMP JUMPDEST PUSH1 0x0 DUP2 MLOAD SWAP1 POP PUSH2 0xAFA DUP2 PUSH2 0x1253 JUMP JUMPDEST SWAP3 SWAP2 POP POP JUMP JUMPDEST PUSH1 0x0 DUP2 CALLDATALOAD SWAP1 POP PUSH2 0xB0F DUP2 PUSH2 0x126A JUMP JUMPDEST SWAP3 SWAP2 POP POP JUMP JUMPDEST PUSH1 0x0 PUSH1 0x20 DUP3 DUP5 SUB SLT ISZERO PUSH2 0xB2B JUMPI PUSH2 0xB2A PUSH2 0x1185 JUMP JUMPDEST JUMPDEST PUSH1 0x0 PUSH2 0xB39 DUP5 DUP3 DUP6 ADD PUSH2 0xAD6 JUMP JUMPDEST SWAP2 POP POP SWAP3 SWAP2 POP POP JUMP JUMPDEST PUSH1 0x0 DUP1 PUSH1 0x40 DUP4 DUP6 SUB SLT ISZERO PUSH2 0xB59 JUMPI PUSH2 0xB58 PUSH2 0x1185 JUMP JUMPDEST JUMPDEST PUSH1 0x0 PUSH2 0xB67 DUP6 DUP3 DUP7 ADD PUSH2 0xAD6 JUMP JUMPDEST SWAP3 POP POP PUSH1 0x20 PUSH2 0xB78 DUP6 DUP3 DUP7 ADD PUSH2 0xB00 JUMP JUMPDEST SWAP2 POP POP SWAP3 POP SWAP3 SWAP1 POP JUMP JUMPDEST PUSH1 0x0 PUSH1 0x20 DUP3 DUP5 SUB SLT ISZERO PUSH2 0xB98 JUMPI PUSH2 0xB97 PUSH2 0x1185 JUMP JUMPDEST JUMPDEST PUSH1 0x0 PUSH2 0xBA6 DUP5 DUP3 DUP6 ADD PUSH2 0xAEB JUMP JUMPDEST SWAP2 POP POP SWAP3 SWAP2 POP POP JUMP JUMPDEST PUSH1 0x0 PUSH1 0x20 DUP3 DUP5 SUB SLT ISZERO PUSH2 0xBC5 JUMPI PUSH2 0xBC4 PUSH2 0x1185 JUMP JUMPDEST JUMPDEST PUSH1 0x0 PUSH2 0xBD3 DUP5 DUP3 DUP6 ADD PUSH2 0xB00 JUMP JUMPDEST SWAP2 POP POP SWAP3 SWAP2 POP POP JUMP JUMPDEST PUSH1 0x0 PUSH2 0xBE8 DUP4 DUP4 PUSH2 0xC0C JUMP JUMPDEST PUSH1 0x20 DUP4 ADD SWAP1 POP SWAP3 SWAP2 POP POP JUMP JUMPDEST PUSH1 0x0 PUSH2 0xC00 DUP4 DUP4 PUSH2 0xD88 JUMP JUMPDEST PUSH1 0x20 DUP4 ADD SWAP1 POP SWAP3 SWAP2 POP POP JUMP JUMPDEST PUSH2 0xC15 DUP2 PUSH2 0xFE1 JUMP JUMPDEST DUP3 MSTORE POP POP JUMP JUMPDEST PUSH2 0xC24 DUP2 PUSH2 0xFE1 JUMP JUMPDEST DUP3 MSTORE POP POP JUMP JUMPDEST PUSH1 0x0 PUSH2 0xC35 DUP3 PUSH2 0xEC3 JUMP JUMPDEST PUSH2 0xC3F DUP2 DUP6 PUSH2 0xEFE JUMP JUMPDEST SWAP4 POP PUSH2 0xC4A DUP4 PUSH2 0xEA3 JUMP JUMPDEST DUP1 PUSH1 0x0 JUMPDEST DUP4 DUP2 LT ISZERO PUSH2 0xC7B JUMPI DUP2 MLOAD PUSH2 0xC62 DUP9 DUP3 PUSH2 0xBDC JUMP JUMPDEST SWAP8 POP PUSH2 0xC6D DUP4 PUSH2 0xEE4 JUMP JUMPDEST SWAP3 POP POP PUSH1 0x1 DUP2 ADD SWAP1 POP PUSH2 0xC4E JUMP JUMPDEST POP DUP6 SWAP4 POP POP POP POP SWAP3 SWAP2 POP POP JUMP JUMPDEST PUSH1 0x0 PUSH2 0xC93 DUP3 PUSH2 0xECE JUMP JUMPDEST PUSH2 0xC9D DUP2 DUP6 PUSH2 0xF0F JUMP JUMPDEST SWAP4 POP PUSH2 0xCA8 DUP4 PUSH2 0xEB3 JUMP JUMPDEST DUP1 PUSH1 0x0 JUMPDEST DUP4 DUP2 LT ISZERO PUSH2 0xCD9 JUMPI DUP2 MLOAD PUSH2 0xCC0 DUP9 DUP3 PUSH2 0xBF4 JUMP JUMPDEST SWAP8 POP PUSH2 0xCCB DUP4 PUSH2 0xEF1 JUMP JUMPDEST SWAP3 POP POP PUSH1 0x1 DUP2 ADD SWAP1 POP PUSH2 0xCAC JUMP JUMPDEST POP DUP6 SWAP4 POP POP POP POP SWAP3 SWAP2 POP POP JUMP JUMPDEST PUSH1 0x0 PUSH2 0xCF1 DUP3 PUSH2 0xED9 JUMP JUMPDEST PUSH2 0xCFB DUP2 DUP6 PUSH2 0xF20 JUMP JUMPDEST SWAP4 POP PUSH2 0xD0B DUP2 DUP6 PUSH1 0x20 DUP7 ADD PUSH2 0x1033 JUMP JUMPDEST PUSH2 0xD14 DUP2 PUSH2 0x118A JUMP JUMPDEST DUP5 ADD SWAP2 POP POP SWAP3 SWAP2 POP POP JUMP JUMPDEST PUSH1 0x0 PUSH2 0xD2C PUSH1 0x16 DUP4 PUSH2 0xF20 JUMP JUMPDEST SWAP2 POP PUSH2 0xD37 DUP3 PUSH2 0x119B JUMP JUMPDEST PUSH1 0x20 DUP3 ADD SWAP1 POP SWAP2 SWAP1 POP JUMP JUMPDEST PUSH1 0x0 PUSH2 0xD4F PUSH1 0x24 DUP4 PUSH2 0xF20 JUMP JUMPDEST SWAP2 POP PUSH2 0xD5A DUP3 PUSH2 0x11C4 JUMP JUMPDEST PUSH1 0x40 DUP3 ADD SWAP1 POP SWAP2 SWAP1 POP JUMP JUMPDEST PUSH1 0x0 PUSH2 0xD72 PUSH1 0x16 DUP4 PUSH2 0xF20 JUMP JUMPDEST SWAP2 POP PUSH2 0xD7D DUP3 PUSH2 0x1213 JUMP JUMPDEST PUSH1 0x20 DUP3 ADD SWAP1 POP SWAP2 SWAP1 POP JUMP JUMPDEST PUSH2 0xD91 DUP2 PUSH2 0x1029 JUMP JUMPDEST DUP3 MSTORE POP POP JUMP JUMPDEST PUSH2 0xDA0 DUP2 PUSH2 0x1029 JUMP JUMPDEST DUP3 MSTORE POP POP JUMP JUMPDEST PUSH1 0x0 PUSH1 0x40 DUP3 ADD SWAP1 POP PUSH2 0xDBB PUSH1 0x0 DUP4 ADD DUP6 PUSH2 0xC1B JUMP JUMPDEST PUSH2 0xDC8 PUSH1 0x20 DUP4 ADD DUP5 PUSH2 0xD97 JUMP JUMPDEST SWAP4 SWAP3 POP POP POP JUMP JUMPDEST PUSH1 0x0 PUSH1 0x40 DUP3 ADD SWAP1 POP DUP2 DUP2 SUB PUSH1 0x0 DUP4 ADD MSTORE PUSH2 0xDE9 DUP2 DUP6 PUSH2 0xC2A JUMP JUMPDEST SWAP1 POP DUP2 DUP2 SUB PUSH1 0x20 DUP4 ADD MSTORE PUSH2 0xDFD DUP2 DUP5 PUSH2 0xC88 JUMP JUMPDEST SWAP1 POP SWAP4 SWAP3 POP POP POP JUMP JUMPDEST PUSH1 0x0 PUSH1 0x20 DUP3 ADD SWAP1 POP DUP2 DUP2 SUB PUSH1 0x0 DUP4 ADD MSTORE PUSH2 0xE20 DUP2 DUP5 PUSH2 0xCE6 JUMP JUMPDEST SWAP1 POP SWAP3 SWAP2 POP POP JUMP JUMPDEST PUSH1 0x0 PUSH1 0x20 DUP3 ADD SWAP1 POP DUP2 DUP2 SUB PUSH1 0x0 DUP4 ADD MSTORE PUSH2 0xE41 DUP2 PUSH2 0xD1F JUMP JUMPDEST SWAP1 POP SWAP2 SWAP1 POP JUMP JUMPDEST PUSH1 0x0 PUSH1 0x20 DUP3 ADD SWAP1 POP DUP2 DUP2 SUB PUSH1 0x0 DUP4 ADD MSTORE PUSH2 0xE61 DUP2 PUSH2 0xD42 JUMP JUMPDEST SWAP1 POP SWAP2 SWAP1 POP JUMP JUMPDEST PUSH1 0x0 PUSH1 0x20 DUP3 ADD SWAP1 POP DUP2 DUP2 SUB PUSH1 0x0 DUP4 ADD MSTORE PUSH2 0xE81 DUP2 PUSH2 0xD65 JUMP JUMPDEST SWAP1 POP SWAP2 SWAP1 POP JUMP JUMPDEST PUSH1 0x0 PUSH1 0x20 DUP3 ADD SWAP1 POP PUSH2 0xE9D PUSH1 0x0 DUP4 ADD DUP5 PUSH2 0xD97 JUMP JUMPDEST SWAP3 SWAP2 POP POP JUMP JUMPDEST PUSH1 0x0 DUP2 SWAP1 POP PUSH1 0x20 DUP3 ADD SWAP1 POP SWAP2 SWAP1 POP JUMP JUMPDEST PUSH1 0x0 DUP2 SWAP1 POP PUSH1 0x20 DUP3 ADD SWAP1 POP SWAP2 SWAP1 POP JUMP JUMPDEST PUSH1 0x0 DUP2 MLOAD SWAP1 POP SWAP2 SWAP1 POP JUMP JUMPDEST PUSH1 0x0 DUP2 MLOAD SWAP1 POP SWAP2 SWAP1 POP JUMP JUMPDEST PUSH1 0x0 DUP2 MLOAD SWAP1 POP SWAP2 SWAP1 POP JUMP JUMPDEST PUSH1 0x0 PUSH1 0x20 DUP3 ADD SWAP1 POP SWAP2 SWAP1 POP JUMP JUMPDEST PUSH1 0x0 PUSH1 0x20 DUP3 ADD SWAP1 POP SWAP2 SWAP1 POP JUMP JUMPDEST PUSH1 0x0 DUP3 DUP3 MSTORE PUSH1 0x20 DUP3 ADD SWAP1 POP SWAP3 SWAP2 POP POP JUMP JUMPDEST PUSH1 0x0 DUP3 DUP3 MSTORE PUSH1 0x20 DUP3 ADD SWAP1 POP SWAP3 SWAP2 POP POP JUMP JUMPDEST PUSH1 0x0 DUP3 DUP3 MSTORE PUSH1 0x20 DUP3 ADD SWAP1 POP SWAP3 SWAP2 POP POP JUMP JUMPDEST PUSH1 0x0 PUSH2 0xF3C DUP3 PUSH2 0x1029 JUMP JUMPDEST SWAP2 POP PUSH2 0xF47 DUP4 PUSH2 0x1029 JUMP JUMPDEST SWAP3 POP DUP3 PUSH32 0xFFFFFFFFFFFFFFFFFFFFFFFFFFFFFFFFFFFFFFFFFFFFFFFFFFFFFFFFFFFFFFFF SUB DUP3 GT ISZERO PUSH2 0xF7C JUMPI PUSH2 0xF7B PUSH2 0x10F8 JUMP JUMPDEST JUMPDEST DUP3 DUP3 ADD SWAP1 POP SWAP3 SWAP2 POP POP JUMP JUMPDEST PUSH1 0x0 PUSH2 0xF92 DUP3 PUSH2 0x1029 JUMP JUMPDEST SWAP2 POP PUSH2 0xF9D DUP4 PUSH2 0x1029 JUMP JUMPDEST SWAP3 POP DUP2 PUSH32 0xFFFFFFFFFFFFFFFFFFFFFFFFFFFFFFFFFFFFFFFFFFFFFFFFFFFFFFFFFFFFFFFF DIV DUP4 GT DUP3 ISZERO ISZERO AND ISZERO PUSH2 0xFD6 JUMPI PUSH2 0xFD5 PUSH2 0x10F8 JUMP JUMPDEST JUMPDEST DUP3 DUP3 MUL SWAP1 POP SWAP3 SWAP2 POP POP JUMP JUMPDEST PUSH1 0x0 PUSH2 0xFEC DUP3 PUSH2 0x1009 JUMP JUMPDEST SWAP1 POP SWAP2 SWAP1 POP JUMP JUMPDEST PUSH1 0x0 DUP2 ISZERO ISZERO SWAP1 POP SWAP2 SWAP1 POP JUMP JUMPDEST PUSH1 0x0 DUP2 SWAP1 POP SWAP2 SWAP1 POP JUMP JUMPDEST PUSH1 0x0 PUSH20 0xFFFFFFFFFFFFFFFFFFFFFFFFFFFFFFFFFFFFFFFF DUP3 AND SWAP1 POP SWAP2 SWAP1 POP JUMP JUMPDEST PUSH1 0x0 DUP2 SWAP1 POP SWAP2 SWAP1 POP JUMP JUMPDEST PUSH1 0x0 JUMPDEST DUP4 DUP2 LT ISZERO PUSH2 0x1051 JUMPI DUP1 DUP3 ADD MLOAD DUP2 DUP5 ADD MSTORE PUSH1 0x20 DUP2 ADD SWAP1 POP PUSH2 0x1036 JUMP JUMPDEST DUP4 DUP2 GT ISZERO PUSH2 0x1060 JUMPI PUSH1 0x0 DUP5 DUP5 ADD MSTORE JUMPDEST POP POP POP POP JUMP JUMPDEST PUSH1 0x0 PUSH2 0x1071 DUP3 PUSH2 0xFFF JUMP JUMPDEST SWAP2 POP PUSH32 0x7FFFFFFFFFFFFFFFFFFFFFFFFFFFFFFFFFFFFFFFFFFFFFFFFFFFFFFFFFFFFFFF DUP3 EQ ISZERO PUSH2 0x10A4 JUMPI PUSH2 0x10A3 PUSH2 0x10F8 JUMP JUMPDEST JUMPDEST PUSH1 0x1 DUP3 ADD SWAP1 POP SWAP2 SWAP1 POP JUMP JUMPDEST PUSH1 0x0 PUSH2 0x10BA DUP3 PUSH2 0x1029 JUMP JUMPDEST SWAP2 POP PUSH32 0xFFFFFFFFFFFFFFFFFFFFFFFFFFFFFFFFFFFFFFFFFFFFFFFFFFFFFFFFFFFFFFFF DUP3 EQ ISZERO PUSH2 0x10ED JUMPI PUSH2 0x10EC PUSH2 0x10F8 JUMP JUMPDEST JUMPDEST PUSH1 0x1 DUP3 ADD SWAP1 POP SWAP2 SWAP1 POP JUMP JUMPDEST PUSH32 0x4E487B7100000000000000000000000000000000000000000000000000000000 PUSH1 0x0 MSTORE PUSH1 0x11 PUSH1 0x4 MSTORE PUSH1 0x24 PUSH1 0x0 REVERT JUMPDEST PUSH32 0x4E487B7100000000000000000000000000000000000000000000000000000000 PUSH1 0x0 MSTORE PUSH1 0x32 PUSH1 0x4 MSTORE PUSH1 0x24 PUSH1 0x0 REVERT JUMPDEST PUSH32 0x4E487B7100000000000000000000000000000000000000000000000000000000 PUSH1 0x0 MSTORE PUSH1 0x41 PUSH1 0x4 MSTORE PUSH1 0x24 PUSH1 0x0 REVERT JUMPDEST PUSH1 0x0 DUP1 REVERT JUMPDEST PUSH1 0x0 PUSH1 0x1F NOT PUSH1 0x1F DUP4 ADD AND SWAP1 POP SWAP2 SWAP1 POP JUMP JUMPDEST PUSH32 0x4F6E6C79206D616E616765722063616E2063616C6C2100000000000000000000 PUSH1 0x0 DUP3 ADD MSTORE POP JUMP JUMPDEST PUSH32 0x49742773206A757374206265656E206C657373207468616E203130207365636F PUSH1 0x0 DUP3 ADD MSTORE PUSH32 0x6E64732100000000000000000000000000000000000000000000000000000000 PUSH1 0x20 DUP3 ADD MSTORE POP JUMP JUMPDEST PUSH32 0x4F6E6C7920636C69656E74732063616E2063616C6C2100000000000000000000 PUSH1 0x0 DUP3 ADD MSTORE POP JUMP JUMPDEST PUSH2 0x1245 DUP2 PUSH2 0xFE1 JUMP JUMPDEST DUP2 EQ PUSH2 0x1250 JUMPI PUSH1 0x0 DUP1 REVERT JUMPDEST POP JUMP JUMPDEST PUSH2 0x125C DUP2 PUSH2 0xFF3 JUMP JUMPDEST DUP2 EQ PUSH2 0x1267 JUMPI PUSH1 0x0 DUP1 REVERT JUMPDEST POP JUMP JUMPDEST PUSH2 0x1273 DUP2 PUSH2 0x1029 JUMP JUMPDEST DUP2 EQ PUSH2 0x127E JUMPI PUSH1 0x0 DUP1 REVERT JUMPDEST POP JUMP INVALID LOG2 PUSH5 0x6970667358 0x22 SLT KECCAK256 RETURN 0x4F SWAP3 GASLIMIT REVERT SDIV 0xFB 0x4E 0xE9 SDIV SUB 0xC4 DUP11 PUSH30 0xD12A0224B1AD2C34691B52F1A6DA4BA2E6F064736F6C6343000807003300 "
				},
				"gasEstimates": {
					"creation": {
						"codeDepositCost": "958200",
						"executionCost": "6008",
						"totalCost": "964208"
					},
					"external": {
						"deposit()": "infinite",
						"getClients()": "infinite",
						"getContractBalance()": "384",
						"getCountClient()": "2546",
						"interestDate(address)": "2858",
						"joinAsClient()": "142814",
						"sendCoke(address,uint256)": "infinite",
						"sendInterest()": "infinite",
						"setManager(address)": "25252",
						"withdraw(uint256)": "infinite"
					}
				},
				"methodIdentifiers": {
					"deposit()": "d0e30db0",
					"getClients()": "6db80995",
					"getContractBalance()": "6f9fb98a",
					"getCountClient()": "fef75470",
					"interestDate(address)": "d9dca6c5",
					"joinAsClient()": "a4092174",
					"sendCoke(address,uint256)": "f5d51c06",
					"sendInterest()": "9e0a5d68",
					"setManager(address)": "d0ebdbe7",
					"withdraw(uint256)": "2e1a7d4d"
				}
			},
			"storageLayout": {
				"storage": [
					{
						"astId": 33,
						"contract": "contracts/first_contract.sol:BankContract",
						"label": "clients",
						"offset": 0,
						"slot": "0",
						"type": "t_array(t_struct(client_account)29_storage)dyn_storage"
					},
					{
						"astId": 35,
						"contract": "contracts/first_contract.sol:BankContract",
						"label": "clientCounter",
						"offset": 0,
						"slot": "1",
						"type": "t_int256"
					},
					{
						"astId": 37,
						"contract": "contracts/first_contract.sol:BankContract",
						"label": "manager",
						"offset": 0,
						"slot": "2",
						"type": "t_address_payable"
					},
					{
						"astId": 41,
						"contract": "contracts/first_contract.sol:BankContract",
						"label": "interestDate",
						"offset": 0,
						"slot": "3",
						"type": "t_mapping(t_address,t_uint256)"
					}
				],
				"types": {
					"t_address": {
						"encoding": "inplace",
						"label": "address",
						"numberOfBytes": "20"
					},
					"t_address_payable": {
						"encoding": "inplace",
						"label": "address payable",
						"numberOfBytes": "20"
					},
					"t_array(t_struct(client_account)29_storage)dyn_storage": {
						"base": "t_struct(client_account)29_storage",
						"encoding": "dynamic_array",
						"label": "struct BankContract.client_account[]",
						"numberOfBytes": "32"
					},
					"t_int256": {
						"encoding": "inplace",
						"label": "int256",
						"numberOfBytes": "32"
					},
					"t_mapping(t_address,t_uint256)": {
						"encoding": "mapping",
						"key": "t_address",
						"label": "mapping(address => uint256)",
						"numberOfBytes": "32",
						"value": "t_uint256"
					},
					"t_struct(client_account)29_storage": {
						"encoding": "inplace",
						"label": "struct BankContract.client_account",
						"members": [
							{
								"astId": 24,
								"contract": "contracts/first_contract.sol:BankContract",
								"label": "client_id",
								"offset": 0,
								"slot": "0",
								"type": "t_int256"
							},
							{
								"astId": 26,
								"contract": "contracts/first_contract.sol:BankContract",
								"label": "client_address",
								"offset": 0,
								"slot": "1",
								"type": "t_address"
							},
							{
								"astId": 28,
								"contract": "contracts/first_contract.sol:BankContract",
								"label": "client_balance_in_ether",
								"offset": 0,
								"slot": "2",
								"type": "t_uint256"
							}
						],
						"numberOfBytes": "96"
					},
					"t_uint256": {
						"encoding": "inplace",
						"label": "uint256",
						"numberOfBytes": "32"
					}
				}
			},
			"userdoc": {
				"kind": "user",
				"methods": {},
				"version": 1
			}
		}
	}
}