{
	"contracts/first_contract.sol": {
		"BankContract": {
			"abi": [
				{
					"inputs": [],
					"stateMutability": "nonpayable",
					"type": "constructor"
				},
				{
					"inputs": [],
					"name": "approveToken",
					"outputs": [],
					"stateMutability": "payable",
					"type": "function"
				},
				{
					"inputs": [],
					"name": "deposit",
					"outputs": [],
					"stateMutability": "payable",
					"type": "function"
				},
				{
					"inputs": [],
					"name": "getClients",
					"outputs": [
						{
							"internalType": "address[]",
							"name": "",
							"type": "address[]"
						},
						{
							"internalType": "uint256[]",
							"name": "",
							"type": "uint256[]"
						}
					],
					"stateMutability": "view",
					"type": "function"
				},
				{
					"inputs": [],
					"name": "getContractBalance",
					"outputs": [
						{
							"internalType": "uint256",
							"name": "",
							"type": "uint256"
						}
					],
					"stateMutability": "view",
					"type": "function"
				},
				{
					"inputs": [],
					"name": "getCountClient",
					"outputs": [
						{
							"internalType": "uint256",
							"name": "",
							"type": "uint256"
						}
					],
					"stateMutability": "view",
					"type": "function"
				},
				{
					"inputs": [
						{
							"internalType": "address",
							"name": "",
							"type": "address"
						}
					],
					"name": "interestDate",
					"outputs": [
						{
							"internalType": "uint256",
							"name": "",
							"type": "uint256"
						}
					],
					"stateMutability": "view",
					"type": "function"
				},
				{
					"inputs": [],
					"name": "joinAsClient",
					"outputs": [
						{
							"internalType": "string",
							"name": "",
							"type": "string"
						}
					],
					"stateMutability": "payable",
					"type": "function"
				},
				{
					"inputs": [],
					"name": "mintcoke",
					"outputs": [],
					"stateMutability": "payable",
					"type": "function"
				},
				{
					"inputs": [
						{
							"internalType": "address",
							"name": "_from",
							"type": "address"
						},
						{
							"internalType": "address",
							"name": "_to",
							"type": "address"
						},
						{
							"internalType": "uint256",
							"name": "_value",
							"type": "uint256"
						}
					],
					"name": "sendCoke",
					"outputs": [],
					"stateMutability": "nonpayable",
					"type": "function"
				},
				{
					"inputs": [],
					"name": "sendInterest",
					"outputs": [],
					"stateMutability": "payable",
					"type": "function"
				},
				{
					"inputs": [
						{
							"internalType": "address",
							"name": "managerAddress",
							"type": "address"
						}
					],
					"name": "setManager",
					"outputs": [
						{
							"internalType": "string",
							"name": "",
							"type": "string"
						}
					],
					"stateMutability": "nonpayable",
					"type": "function"
				},
				{
					"inputs": [
						{
							"internalType": "uint256",
							"name": "amount",
							"type": "uint256"
						}
					],
					"name": "withdraw",
					"outputs": [],
					"stateMutability": "payable",
					"type": "function"
				},
				{
					"stateMutability": "payable",
					"type": "receive"
				}
			],
			"devdoc": {
				"kind": "dev",
				"methods": {},
				"version": 1
			},
			"evm": {
				"assembly": "    /* \"contracts/first_contract.sol\":707:4777  contract BankContract { \r... */\n  mstore(0x40, 0x80)\n    /* \"contracts/first_contract.sol\":1014:1064  constructor() {\r... */\n  callvalue\n  dup1\n  iszero\n  tag_1\n  jumpi\n  0x00\n  dup1\n  revert\ntag_1:\n  pop\n    /* \"contracts/first_contract.sol\":1055:1056  0 */\n  0x00\n    /* \"contracts/first_contract.sol\":1039:1052  clientCounter */\n  0x01\n    /* \"contracts/first_contract.sol\":1039:1056  clientCounter = 0 */\n  dup2\n  swap1\n  sstore\n  pop\n    /* \"contracts/first_contract.sol\":707:4777  contract BankContract { \r... */\n  dataSize(sub_0)\n  dup1\n  dataOffset(sub_0)\n  0x00\n  codecopy\n  0x00\n  return\nstop\n\nsub_0: assembly {\n        /* \"contracts/first_contract.sol\":707:4777  contract BankContract { \r... */\n      mstore(0x40, 0x80)\n      jumpi(tag_1, lt(calldatasize, 0x04))\n      shr(0xe0, calldataload(0x00))\n      dup1\n      0x9e0a5d68\n      gt\n      tag_15\n      jumpi\n      dup1\n      0x9e0a5d68\n      eq\n      tag_9\n      jumpi\n      dup1\n      0xa4092174\n      eq\n      tag_10\n      jumpi\n      dup1\n      0xd0e30db0\n      eq\n      tag_11\n      jumpi\n      dup1\n      0xd0ebdbe7\n      eq\n      tag_12\n      jumpi\n      dup1\n      0xd9dca6c5\n      eq\n      tag_13\n      jumpi\n      dup1\n      0xfef75470\n      eq\n      tag_14\n      jumpi\n      jump(tag_2)\n    tag_15:\n      dup1\n      0x2855bd92\n      eq\n      tag_3\n      jumpi\n      dup1\n      0x2bbc7cac\n      eq\n      tag_4\n      jumpi\n      dup1\n      0x2e1a7d4d\n      eq\n      tag_5\n      jumpi\n      dup1\n      0x6db80995\n      eq\n      tag_6\n      jumpi\n      dup1\n      0x6f9fb98a\n      eq\n      tag_7\n      jumpi\n      dup1\n      0x99b71d5c\n      eq\n      tag_8\n      jumpi\n      jump(tag_2)\n    tag_1:\n      jumpi(tag_2, calldatasize)\n      stop\n    tag_2:\n      0x00\n      dup1\n      revert\n        /* \"contracts/first_contract.sol\":3564:4054  function sendCoke(address _from, address _to, uint _value) external {\r... */\n    tag_3:\n      callvalue\n      dup1\n      iszero\n      tag_18\n      jumpi\n      0x00\n      dup1\n      revert\n    tag_18:\n      pop\n      tag_19\n      0x04\n      dup1\n      calldatasize\n      sub\n      dup2\n      add\n      swap1\n      tag_20\n      swap2\n      swap1\n      tag_21\n      jump\t// in\n    tag_20:\n      tag_22\n      jump\t// in\n    tag_19:\n      stop\n        /* \"contracts/first_contract.sol\":4062:4543  function mintcoke() public payable {\r... */\n    tag_4:\n      tag_23\n      tag_24\n      jump\t// in\n    tag_23:\n      stop\n        /* \"contracts/first_contract.sol\":2056:2239  function withdraw(uint amount) public payable onlyClients{\r... */\n    tag_5:\n      tag_25\n      0x04\n      dup1\n      calldatasize\n      sub\n      dup2\n      add\n      swap1\n      tag_26\n      swap2\n      swap1\n      tag_27\n      jump\t// in\n    tag_26:\n      tag_28\n      jump\t// in\n    tag_25:\n      stop\n        /* \"contracts/first_contract.sol\":2878:3448  function getClients() public view returns (address[] memory,uint[] memory) {\r... */\n    tag_6:\n      callvalue\n      dup1\n      iszero\n      tag_29\n      jumpi\n      0x00\n      dup1\n      revert\n    tag_29:\n      pop\n      tag_30\n      tag_31\n      jump\t// in\n    tag_30:\n      mload(0x40)\n      tag_32\n      swap3\n      swap2\n      swap1\n      tag_33\n      jump\t// in\n    tag_32:\n      mload(0x40)\n      dup1\n      swap2\n      sub\n      swap1\n      return\n        /* \"contracts/first_contract.sol\":3455:3557  function getContractBalance() public view returns(uint){\r... */\n    tag_7:\n      callvalue\n      dup1\n      iszero\n      tag_34\n      jumpi\n      0x00\n      dup1\n      revert\n    tag_34:\n      pop\n      tag_35\n      tag_36\n      jump\t// in\n    tag_35:\n      mload(0x40)\n      tag_37\n      swap2\n      swap1\n      tag_38\n      jump\t// in\n    tag_37:\n      mload(0x40)\n      dup1\n      swap2\n      sub\n      swap1\n      return\n        /* \"contracts/first_contract.sol\":4551:4774  function approveToken() public payable{\r... */\n    tag_8:\n      tag_39\n      tag_40\n      jump\t// in\n    tag_39:\n      stop\n        /* \"contracts/first_contract.sol\":2247:2737  function sendInterest() public payable onlyManager{\r... */\n    tag_9:\n      tag_41\n      tag_42\n      jump\t// in\n    tag_41:\n      stop\n        /* \"contracts/first_contract.sol\":1705:1935  function joinAsClient() public payable returns(string memory){\r... */\n    tag_10:\n      tag_43\n      tag_44\n      jump\t// in\n    tag_43:\n      mload(0x40)\n      tag_45\n      swap2\n      swap1\n      tag_46\n      jump\t// in\n    tag_45:\n      mload(0x40)\n      dup1\n      swap2\n      sub\n      swap1\n      return\n        /* \"contracts/first_contract.sol\":1945:2048  function deposit() public payable onlyClients{\r... */\n    tag_11:\n      tag_47\n      tag_48\n      jump\t// in\n    tag_47:\n      stop\n        /* \"contracts/first_contract.sol\":1558:1697  function setManager(address managerAddress) public returns(string memory){\r... */\n    tag_12:\n      callvalue\n      dup1\n      iszero\n      tag_49\n      jumpi\n      0x00\n      dup1\n      revert\n    tag_49:\n      pop\n      tag_50\n      0x04\n      dup1\n      calldatasize\n      sub\n      dup2\n      add\n      swap1\n      tag_51\n      swap2\n      swap1\n      tag_52\n      jump\t// in\n    tag_51:\n      tag_53\n      jump\t// in\n    tag_50:\n      mload(0x40)\n      tag_54\n      swap2\n      swap1\n      tag_46\n      jump\t// in\n    tag_54:\n      mload(0x40)\n      dup1\n      swap2\n      sub\n      swap1\n      return\n        /* \"contracts/first_contract.sol\":961:1005  mapping(address => uint) public interestDate */\n    tag_13:\n      callvalue\n      dup1\n      iszero\n      tag_55\n      jumpi\n      0x00\n      dup1\n      revert\n    tag_55:\n      pop\n      tag_56\n      0x04\n      dup1\n      calldatasize\n      sub\n      dup2\n      add\n      swap1\n      tag_57\n      swap2\n      swap1\n      tag_52\n      jump\t// in\n    tag_57:\n      tag_58\n      jump\t// in\n    tag_56:\n      mload(0x40)\n      tag_59\n      swap2\n      swap1\n      tag_38\n      jump\t// in\n    tag_59:\n      mload(0x40)\n      dup1\n      swap2\n      sub\n      swap1\n      return\n        /* \"contracts/first_contract.sol\":2753:2870  function getCountClient() public view returns(uint){\r... */\n    tag_14:\n      callvalue\n      dup1\n      iszero\n      tag_60\n      jumpi\n      0x00\n      dup1\n      revert\n    tag_60:\n      pop\n      tag_61\n      tag_62\n      jump\t// in\n    tag_61:\n      mload(0x40)\n      tag_63\n      swap2\n      swap1\n      tag_38\n      jump\t// in\n    tag_63:\n      mload(0x40)\n      dup1\n      swap2\n      sub\n      swap1\n      return\n        /* \"contracts/first_contract.sol\":3564:4054  function sendCoke(address _from, address _to, uint _value) external {\r... */\n    tag_22:\n        /* \"contracts/first_contract.sol\":3838:3848  ERC20 coke */\n      0x00\n        /* \"contracts/first_contract.sol\":3865:3907  0xD0bc7118d59fEFBBc05784cb2e543f8d1955435e */\n      0xd0bc7118d59fefbbc05784cb2e543f8d1955435e\n        /* \"contracts/first_contract.sol\":3838:3909  ERC20 coke = ERC20(address(0xD0bc7118d59fEFBBc05784cb2e543f8d1955435e)) */\n      swap1\n      pop\n        /* \"contracts/first_contract.sol\":4011:4015  coke */\n      dup1\n        /* \"contracts/first_contract.sol\":4011:4028  coke.transferFrom */\n      0xffffffffffffffffffffffffffffffffffffffff\n      and\n      0x23b872dd\n        /* \"contracts/first_contract.sol\":4029:4034  _from */\n      dup6\n        /* \"contracts/first_contract.sol\":4035:4038  _to */\n      dup6\n        /* \"contracts/first_contract.sol\":4039:4045  _value */\n      dup6\n        /* \"contracts/first_contract.sol\":4011:4046  coke.transferFrom(_from,_to,_value) */\n      mload(0x40)\n      dup5\n      0xffffffff\n      and\n      0xe0\n      shl\n      dup2\n      mstore\n      0x04\n      add\n      tag_65\n      swap4\n      swap3\n      swap2\n      swap1\n      tag_66\n      jump\t// in\n    tag_65:\n      0x20\n      mload(0x40)\n      dup1\n      dup4\n      sub\n      dup2\n      0x00\n      dup8\n      dup1\n      extcodesize\n      iszero\n      dup1\n      iszero\n      tag_67\n      jumpi\n      0x00\n      dup1\n      revert\n    tag_67:\n      pop\n      gas\n      call\n      iszero\n      dup1\n      iszero\n      tag_69\n      jumpi\n      returndatasize\n      0x00\n      dup1\n      returndatacopy\n      revert(0x00, returndatasize)\n    tag_69:\n      pop\n      pop\n      pop\n      pop\n      mload(0x40)\n      returndatasize\n      not(0x1f)\n      0x1f\n      dup3\n      add\n      and\n      dup3\n      add\n      dup1\n      0x40\n      mstore\n      pop\n      dup2\n      add\n      swap1\n      tag_70\n      swap2\n      swap1\n      tag_71\n      jump\t// in\n    tag_70:\n      pop\n        /* \"contracts/first_contract.sol\":3632:4054  {\r... */\n      pop\n        /* \"contracts/first_contract.sol\":3564:4054  function sendCoke(address _from, address _to, uint _value) external {\r... */\n      pop\n      pop\n      pop\n      jump\t// out\n        /* \"contracts/first_contract.sol\":4062:4543  function mintcoke() public payable {\r... */\n    tag_24:\n        /* \"contracts/first_contract.sol\":4108:4119  ERC721 coke */\n      0x00\n        /* \"contracts/first_contract.sol\":4137:4179  0x213a28D18ea24De4725A1EB927f05Ce9beB4da13 */\n      0x213a28d18ea24de4725a1eb927f05ce9beb4da13\n        /* \"contracts/first_contract.sol\":4108:4181  ERC721 coke = ERC721(address(0x213a28D18ea24De4725A1EB927f05Ce9beB4da13)) */\n      swap1\n      pop\n        /* \"contracts/first_contract.sol\":4192:4207  ERC20 cokeToken */\n      0x00\n        /* \"contracts/first_contract.sol\":4224:4266  0xD0bc7118d59fEFBBc05784cb2e543f8d1955435e */\n      0xd0bc7118d59fefbbc05784cb2e543f8d1955435e\n        /* \"contracts/first_contract.sol\":4192:4268  ERC20 cokeToken = ERC20(address(0xD0bc7118d59fEFBBc05784cb2e543f8d1955435e)) */\n      swap1\n      pop\n        /* \"contracts/first_contract.sol\":4281:4291  uint allow */\n      0x00\n        /* \"contracts/first_contract.sol\":4294:4303  cokeToken */\n      dup2\n        /* \"contracts/first_contract.sol\":4294:4313  cokeToken.allowance */\n      0xffffffffffffffffffffffffffffffffffffffff\n      and\n      0xdd62ed3e\n        /* \"contracts/first_contract.sol\":4314:4324  msg.sender */\n      caller\n        /* \"contracts/first_contract.sol\":4333:4337  this */\n      address\n        /* \"contracts/first_contract.sol\":4294:4339  cokeToken.allowance(msg.sender,address(this)) */\n      mload(0x40)\n      dup4\n      0xffffffff\n      and\n      0xe0\n      shl\n      dup2\n      mstore\n      0x04\n      add\n      tag_73\n      swap3\n      swap2\n      swap1\n      tag_74\n      jump\t// in\n    tag_73:\n      0x20\n      mload(0x40)\n      dup1\n      dup4\n      sub\n      dup2\n      dup7\n      dup1\n      extcodesize\n      iszero\n      dup1\n      iszero\n      tag_75\n      jumpi\n      0x00\n      dup1\n      revert\n    tag_75:\n      pop\n      gas\n      staticcall\n      iszero\n      dup1\n      iszero\n      tag_77\n      jumpi\n      returndatasize\n      0x00\n      dup1\n      returndatacopy\n      revert(0x00, returndatasize)\n    tag_77:\n      pop\n      pop\n      pop\n      pop\n      mload(0x40)\n      returndatasize\n      not(0x1f)\n      0x1f\n      dup3\n      add\n      and\n      dup3\n      add\n      dup1\n      0x40\n      mstore\n      pop\n      dup2\n      add\n      swap1\n      tag_78\n      swap2\n      swap1\n      tag_79\n      jump\t// in\n    tag_78:\n        /* \"contracts/first_contract.sol\":4281:4339  uint allow = cokeToken.allowance(msg.sender,address(this)) */\n      swap1\n      pop\n        /* \"contracts/first_contract.sol\":4363:4364  0 */\n      0x00\n        /* \"contracts/first_contract.sol\":4355:4360  allow */\n      dup2\n        /* \"contracts/first_contract.sol\":4355:4364  allow > 0 */\n      gt\n        /* \"contracts/first_contract.sol\":4352:4536  if(allow > 0){\r... */\n      iszero\n      tag_80\n      jumpi\n        /* \"contracts/first_contract.sol\":4382:4391  cokeToken */\n      dup2\n        /* \"contracts/first_contract.sol\":4382:4404  cokeToken.transferFrom */\n      0xffffffffffffffffffffffffffffffffffffffff\n      and\n      0x23b872dd\n        /* \"contracts/first_contract.sol\":4405:4415  msg.sender */\n      caller\n        /* \"contracts/first_contract.sol\":4424:4428  this */\n      address\n        /* \"contracts/first_contract.sol\":4430:4438  5*10**18 */\n      0x4563918244f40000\n        /* \"contracts/first_contract.sol\":4382:4439  cokeToken.transferFrom(msg.sender,address(this),5*10**18) */\n      mload(0x40)\n      dup5\n      0xffffffff\n      and\n      0xe0\n      shl\n      dup2\n      mstore\n      0x04\n      add\n      tag_81\n      swap4\n      swap3\n      swap2\n      swap1\n      tag_82\n      jump\t// in\n    tag_81:\n      0x20\n      mload(0x40)\n      dup1\n      dup4\n      sub\n      dup2\n      0x00\n      dup8\n      dup1\n      extcodesize\n      iszero\n      dup1\n      iszero\n      tag_83\n      jumpi\n      0x00\n      dup1\n      revert\n    tag_83:\n      pop\n      gas\n      call\n      iszero\n      dup1\n      iszero\n      tag_85\n      jumpi\n      returndatasize\n      0x00\n      dup1\n      returndatacopy\n      revert(0x00, returndatasize)\n    tag_85:\n      pop\n      pop\n      pop\n      pop\n      mload(0x40)\n      returndatasize\n      not(0x1f)\n      0x1f\n      dup3\n      add\n      and\n      dup3\n      add\n      dup1\n      0x40\n      mstore\n      pop\n      dup2\n      add\n      swap1\n      tag_86\n      swap2\n      swap1\n      tag_71\n      jump\t// in\n    tag_86:\n      pop\n        /* \"contracts/first_contract.sol\":4456:4460  coke */\n      dup3\n        /* \"contracts/first_contract.sol\":4456:4465  coke.mint */\n      0xffffffffffffffffffffffffffffffffffffffff\n      and\n      0x94bf804d\n        /* \"contracts/first_contract.sol\":4466:4467  1 */\n      0x01\n        /* \"contracts/first_contract.sol\":4468:4478  msg.sender */\n      caller\n        /* \"contracts/first_contract.sol\":4456:4479  coke.mint(1,msg.sender) */\n      mload(0x40)\n      dup4\n      0xffffffff\n      and\n      0xe0\n      shl\n      dup2\n      mstore\n      0x04\n      add\n      tag_87\n      swap3\n      swap2\n      swap1\n      tag_88\n      jump\t// in\n    tag_87:\n      0x00\n      mload(0x40)\n      dup1\n      dup4\n      sub\n      dup2\n      0x00\n      dup8\n      dup1\n      extcodesize\n      iszero\n      dup1\n      iszero\n      tag_89\n      jumpi\n      0x00\n      dup1\n      revert\n    tag_89:\n      pop\n      gas\n      call\n      iszero\n      dup1\n      iszero\n      tag_91\n      jumpi\n      returndatasize\n      0x00\n      dup1\n      returndatacopy\n      revert(0x00, returndatasize)\n    tag_91:\n      pop\n      pop\n      pop\n      pop\n        /* \"contracts/first_contract.sol\":4352:4536  if(allow > 0){\r... */\n      jump(tag_92)\n    tag_80:\n        /* \"contracts/first_contract.sol\":4510:4524  approveToken() */\n      tag_93\n        /* \"contracts/first_contract.sol\":4510:4522  approveToken */\n      tag_40\n        /* \"contracts/first_contract.sol\":4510:4524  approveToken() */\n      jump\t// in\n    tag_93:\n        /* \"contracts/first_contract.sol\":4352:4536  if(allow > 0){\r... */\n    tag_92:\n        /* \"contracts/first_contract.sol\":4097:4543  {\r... */\n      pop\n      pop\n      pop\n        /* \"contracts/first_contract.sol\":4062:4543  function mintcoke() public payable {\r... */\n      jump\t// out\n        /* \"contracts/first_contract.sol\":2056:2239  function withdraw(uint amount) public payable onlyClients{\r... */\n    tag_28:\n        /* \"contracts/first_contract.sol\":1224:1237  bool isClient */\n      0x00\n        /* \"contracts/first_contract.sol\":1260:1266  uint i */\n      dup1\n        /* \"contracts/first_contract.sol\":1256:1433  for(uint i=0;i<clients.length;i++){\r... */\n    tag_95:\n        /* \"contracts/first_contract.sol\":1271:1278  clients */\n      0x00\n        /* \"contracts/first_contract.sol\":1271:1285  clients.length */\n      dup1\n      sload\n      swap1\n      pop\n        /* \"contracts/first_contract.sol\":1269:1270  i */\n      dup2\n        /* \"contracts/first_contract.sol\":1269:1285  i<clients.length */\n      lt\n        /* \"contracts/first_contract.sol\":1256:1433  for(uint i=0;i<clients.length;i++){\r... */\n      iszero\n      tag_96\n      jumpi\n        /* \"contracts/first_contract.sol\":1337:1347  msg.sender */\n      caller\n        /* \"contracts/first_contract.sol\":1308:1347  clients[i].client_address == msg.sender */\n      0xffffffffffffffffffffffffffffffffffffffff\n      and\n        /* \"contracts/first_contract.sol\":1308:1315  clients */\n      0x00\n        /* \"contracts/first_contract.sol\":1316:1317  i */\n      dup3\n        /* \"contracts/first_contract.sol\":1308:1318  clients[i] */\n      dup2\n      sload\n      dup2\n      lt\n      tag_98\n      jumpi\n      tag_99\n      tag_100\n      jump\t// in\n    tag_99:\n    tag_98:\n      swap1\n      0x00\n      mstore\n      keccak256(0x00, 0x20)\n      swap1\n      0x03\n      mul\n      add\n        /* \"contracts/first_contract.sol\":1308:1333  clients[i].client_address */\n      0x01\n      add\n      0x00\n      swap1\n      sload\n      swap1\n      0x0100\n      exp\n      swap1\n      div\n      0xffffffffffffffffffffffffffffffffffffffff\n      and\n        /* \"contracts/first_contract.sol\":1308:1347  clients[i].client_address == msg.sender */\n      0xffffffffffffffffffffffffffffffffffffffff\n      and\n      eq\n        /* \"contracts/first_contract.sol\":1305:1422  if(clients[i].client_address == msg.sender){\r... */\n      iszero\n      tag_102\n      jumpi\n        /* \"contracts/first_contract.sol\":1378:1382  true */\n      0x01\n        /* \"contracts/first_contract.sol\":1367:1382  isClient = true */\n      swap2\n      pop\n        /* \"contracts/first_contract.sol\":1401:1406  break */\n      jump(tag_96)\n        /* \"contracts/first_contract.sol\":1305:1422  if(clients[i].client_address == msg.sender){\r... */\n    tag_102:\n        /* \"contracts/first_contract.sol\":1286:1289  i++ */\n      dup1\n      dup1\n      tag_103\n      swap1\n      tag_104\n      jump\t// in\n    tag_103:\n      swap2\n      pop\n      pop\n        /* \"contracts/first_contract.sol\":1256:1433  for(uint i=0;i<clients.length;i++){\r... */\n      jump(tag_95)\n    tag_96:\n      pop\n        /* \"contracts/first_contract.sol\":1451:1459  isClient */\n      dup1\n        /* \"contracts/first_contract.sol\":1443:1486  require(isClient, \"Only clients can call!\") */\n      tag_105\n      jumpi\n      mload(0x40)\n      0x08c379a000000000000000000000000000000000000000000000000000000000\n      dup2\n      mstore\n      0x04\n      add\n      tag_106\n      swap1\n      tag_107\n      jump\t// in\n    tag_106:\n      mload(0x40)\n      dup1\n      swap2\n      sub\n      swap1\n      revert\n    tag_105:\n        /* \"contracts/first_contract.sol\":2124:2143  address sender_temp */\n      0x00\n        /* \"contracts/first_contract.sol\":2168:2178  msg.sender */\n      caller\n        /* \"contracts/first_contract.sol\":2154:2178  sender_temp = msg.sender */\n      swap1\n      pop\n        /* \"contracts/first_contract.sol\":2194:2205  sender_temp */\n      dup1\n        /* \"contracts/first_contract.sol\":2186:2215  payable(sender_temp).transfer */\n      0xffffffffffffffffffffffffffffffffffffffff\n      and\n        /* \"contracts/first_contract.sol\":2186:2231  payable(sender_temp).transfer(amount * 1 wei) */\n      0x08fc\n        /* \"contracts/first_contract.sol\":2225:2230  1 wei */\n      0x01\n        /* \"contracts/first_contract.sol\":2216:2222  amount */\n      dup6\n        /* \"contracts/first_contract.sol\":2216:2230  amount * 1 wei */\n      tag_109\n      swap2\n      swap1\n      tag_110\n      jump\t// in\n    tag_109:\n        /* \"contracts/first_contract.sol\":2186:2231  payable(sender_temp).transfer(amount * 1 wei) */\n      swap1\n      dup2\n      iszero\n      mul\n      swap1\n      mload(0x40)\n      0x00\n      mload(0x40)\n      dup1\n      dup4\n      sub\n      dup2\n      dup6\n      dup9\n      dup9\n      call\n      swap4\n      pop\n      pop\n      pop\n      pop\n      iszero\n      dup1\n      iszero\n      tag_112\n      jumpi\n      returndatasize\n      0x00\n      dup1\n      returndatacopy\n      revert(0x00, returndatasize)\n    tag_112:\n      pop\n        /* \"contracts/first_contract.sol\":2113:2239  {\r... */\n      pop\n        /* \"contracts/first_contract.sol\":1213:1506  {\r... */\n      pop\n        /* \"contracts/first_contract.sol\":2056:2239  function withdraw(uint amount) public payable onlyClients{\r... */\n      pop\n      jump\t// out\n        /* \"contracts/first_contract.sol\":2878:3448  function getClients() public view returns (address[] memory,uint[] memory) {\r... */\n    tag_31:\n        /* \"contracts/first_contract.sol\":2921:2937  address[] memory */\n      0x60\n        /* \"contracts/first_contract.sol\":2938:2951  uint[] memory */\n      dup1\n        /* \"contracts/first_contract.sol\":2966:2997  address[] memory client_address */\n      0x00\n        /* \"contracts/first_contract.sol\":3014:3021  clients */\n      dup1\n        /* \"contracts/first_contract.sol\":3014:3028  clients.length */\n      dup1\n      sload\n      swap1\n      pop\n        /* \"contracts/first_contract.sol\":3000:3029  new address[](clients.length) */\n      0xffffffffffffffff\n      dup2\n      gt\n      iszero\n      tag_114\n      jumpi\n      tag_115\n      tag_116\n      jump\t// in\n    tag_115:\n    tag_114:\n      mload(0x40)\n      swap1\n      dup1\n      dup3\n      mstore\n      dup1\n      0x20\n      mul\n      0x20\n      add\n      dup3\n      add\n      0x40\n      mstore\n      dup1\n      iszero\n      tag_117\n      jumpi\n      dup2\n      0x20\n      add\n      0x20\n      dup3\n      mul\n      dup1\n      calldatasize\n      dup4\n      calldatacopy\n      dup1\n      dup3\n      add\n      swap2\n      pop\n      pop\n      swap1\n      pop\n    tag_117:\n      pop\n        /* \"contracts/first_contract.sol\":2966:3029  address[] memory client_address = new address[](clients.length) */\n      swap1\n      pop\n        /* \"contracts/first_contract.sol\":3038:3078  uint[]    memory client_balance_in_ether */\n      0x00\n        /* \"contracts/first_contract.sol\":3092:3099  clients */\n      dup1\n        /* \"contracts/first_contract.sol\":3092:3106  clients.length */\n      dup1\n      sload\n      swap1\n      pop\n        /* \"contracts/first_contract.sol\":3081:3107  new uint[](clients.length) */\n      0xffffffffffffffff\n      dup2\n      gt\n      iszero\n      tag_118\n      jumpi\n      tag_119\n      tag_116\n      jump\t// in\n    tag_119:\n    tag_118:\n      mload(0x40)\n      swap1\n      dup1\n      dup3\n      mstore\n      dup1\n      0x20\n      mul\n      0x20\n      add\n      dup3\n      add\n      0x40\n      mstore\n      dup1\n      iszero\n      tag_120\n      jumpi\n      dup2\n      0x20\n      add\n      0x20\n      dup3\n      mul\n      dup1\n      calldatasize\n      dup4\n      calldatacopy\n      dup1\n      dup3\n      add\n      swap2\n      pop\n      pop\n      swap1\n      pop\n    tag_120:\n      pop\n        /* \"contracts/first_contract.sol\":3038:3107  uint[]    memory client_balance_in_ether = new uint[](clients.length) */\n      swap1\n      pop\n        /* \"contracts/first_contract.sol\":3125:3131  uint i */\n      0x00\n        /* \"contracts/first_contract.sol\":3120:3371  for (uint i = 0; i < clients.length; i++) {\r... */\n    tag_121:\n        /* \"contracts/first_contract.sol\":3141:3148  clients */\n      0x00\n        /* \"contracts/first_contract.sol\":3141:3155  clients.length */\n      dup1\n      sload\n      swap1\n      pop\n        /* \"contracts/first_contract.sol\":3137:3138  i */\n      dup2\n        /* \"contracts/first_contract.sol\":3137:3155  i < clients.length */\n      lt\n        /* \"contracts/first_contract.sol\":3120:3371  for (uint i = 0; i < clients.length; i++) {\r... */\n      iszero\n      tag_122\n      jumpi\n        /* \"contracts/first_contract.sol\":3256:3263  clients */\n      0x00\n        /* \"contracts/first_contract.sol\":3264:3265  i */\n      dup2\n        /* \"contracts/first_contract.sol\":3256:3266  clients[i] */\n      dup2\n      sload\n      dup2\n      lt\n      tag_124\n      jumpi\n      tag_125\n      tag_100\n      jump\t// in\n    tag_125:\n    tag_124:\n      swap1\n      0x00\n      mstore\n      keccak256(0x00, 0x20)\n      swap1\n      0x03\n      mul\n      add\n        /* \"contracts/first_contract.sol\":3256:3281  clients[i].client_address */\n      0x01\n      add\n      0x00\n      swap1\n      sload\n      swap1\n      0x0100\n      exp\n      swap1\n      div\n      0xffffffffffffffffffffffffffffffffffffffff\n      and\n        /* \"contracts/first_contract.sol\":3236:3250  client_address */\n      dup4\n        /* \"contracts/first_contract.sol\":3251:3252  i */\n      dup3\n        /* \"contracts/first_contract.sol\":3236:3253  client_address[i] */\n      dup2\n      mload\n      dup2\n      lt\n      tag_127\n      jumpi\n      tag_128\n      tag_100\n      jump\t// in\n    tag_128:\n    tag_127:\n      0x20\n      mul\n      0x20\n      add\n      add\n        /* \"contracts/first_contract.sol\":3236:3281  client_address[i] = clients[i].client_address */\n      swap1\n      0xffffffffffffffffffffffffffffffffffffffff\n      and\n      swap1\n      dup2\n      0xffffffffffffffffffffffffffffffffffffffff\n      and\n      dup2\n      mstore\n      pop\n      pop\n        /* \"contracts/first_contract.sol\":3325:3332  clients */\n      0x00\n        /* \"contracts/first_contract.sol\":3333:3334  i */\n      dup2\n        /* \"contracts/first_contract.sol\":3325:3335  clients[i] */\n      dup2\n      sload\n      dup2\n      lt\n      tag_129\n      jumpi\n      tag_130\n      tag_100\n      jump\t// in\n    tag_130:\n    tag_129:\n      swap1\n      0x00\n      mstore\n      keccak256(0x00, 0x20)\n      swap1\n      0x03\n      mul\n      add\n        /* \"contracts/first_contract.sol\":3325:3359  clients[i].client_balance_in_ether */\n      0x02\n      add\n      sload\n        /* \"contracts/first_contract.sol\":3296:3319  client_balance_in_ether */\n      dup3\n        /* \"contracts/first_contract.sol\":3320:3321  i */\n      dup3\n        /* \"contracts/first_contract.sol\":3296:3322  client_balance_in_ether[i] */\n      dup2\n      mload\n      dup2\n      lt\n      tag_132\n      jumpi\n      tag_133\n      tag_100\n      jump\t// in\n    tag_133:\n    tag_132:\n      0x20\n      mul\n      0x20\n      add\n      add\n        /* \"contracts/first_contract.sol\":3296:3359  client_balance_in_ether[i] = clients[i].client_balance_in_ether */\n      dup2\n      dup2\n      mstore\n      pop\n      pop\n        /* \"contracts/first_contract.sol\":3157:3160  i++ */\n      dup1\n      dup1\n      tag_134\n      swap1\n      tag_104\n      jump\t// in\n    tag_134:\n      swap2\n      pop\n      pop\n        /* \"contracts/first_contract.sol\":3120:3371  for (uint i = 0; i < clients.length; i++) {\r... */\n      jump(tag_121)\n    tag_122:\n      pop\n        /* \"contracts/first_contract.sol\":3399:3413  client_address */\n      dup2\n        /* \"contracts/first_contract.sol\":3415:3438  client_balance_in_ether */\n      dup2\n        /* \"contracts/first_contract.sol\":3391:3439  return (client_address, client_balance_in_ether) */\n      swap4\n      pop\n      swap4\n      pop\n      pop\n      pop\n        /* \"contracts/first_contract.sol\":2878:3448  function getClients() public view returns (address[] memory,uint[] memory) {\r... */\n      swap1\n      swap2\n      jump\t// out\n        /* \"contracts/first_contract.sol\":3455:3557  function getContractBalance() public view returns(uint){\r... */\n    tag_36:\n        /* \"contracts/first_contract.sol\":3505:3509  uint */\n      0x00\n        /* \"contracts/first_contract.sol\":3528:3549  address(this).balance */\n      selfbalance\n        /* \"contracts/first_contract.sol\":3521:3549  return address(this).balance */\n      swap1\n      pop\n        /* \"contracts/first_contract.sol\":3455:3557  function getContractBalance() public view returns(uint){\r... */\n      swap1\n      jump\t// out\n        /* \"contracts/first_contract.sol\":4551:4774  function approveToken() public payable{\r... */\n    tag_40:\n        /* \"contracts/first_contract.sol\":4600:4615  ERC20 cokeToken */\n      0x00\n        /* \"contracts/first_contract.sol\":4632:4674  0xD0bc7118d59fEFBBc05784cb2e543f8d1955435e */\n      0xd0bc7118d59fefbbc05784cb2e543f8d1955435e\n        /* \"contracts/first_contract.sol\":4600:4676  ERC20 cokeToken = ERC20(address(0xD0bc7118d59fEFBBc05784cb2e543f8d1955435e)) */\n      swap1\n      pop\n        /* \"contracts/first_contract.sol\":4689:4698  cokeToken */\n      dup1\n        /* \"contracts/first_contract.sol\":4689:4706  cokeToken.approve */\n      0xffffffffffffffffffffffffffffffffffffffff\n      and\n      0x095ea7b3\n        /* \"contracts/first_contract.sol\":4715:4719  this */\n      address\n        /* \"contracts/first_contract.sol\":4721:4735  1000000*10**18 */\n      0xd3c21bcecceda1000000\n        /* \"contracts/first_contract.sol\":4689:4736  cokeToken.approve(address(this),1000000*10**18) */\n      mload(0x40)\n      dup4\n      0xffffffff\n      and\n      0xe0\n      shl\n      dup2\n      mstore\n      0x04\n      add\n      tag_137\n      swap3\n      swap2\n      swap1\n      tag_138\n      jump\t// in\n    tag_137:\n      0x20\n      mload(0x40)\n      dup1\n      dup4\n      sub\n      dup2\n      0x00\n      dup8\n      dup1\n      extcodesize\n      iszero\n      dup1\n      iszero\n      tag_139\n      jumpi\n      0x00\n      dup1\n      revert\n    tag_139:\n      pop\n      gas\n      call\n      iszero\n      dup1\n      iszero\n      tag_141\n      jumpi\n      returndatasize\n      0x00\n      dup1\n      returndatacopy\n      revert(0x00, returndatasize)\n    tag_141:\n      pop\n      pop\n      pop\n      pop\n      mload(0x40)\n      returndatasize\n      not(0x1f)\n      0x1f\n      dup3\n      add\n      and\n      dup3\n      add\n      dup1\n      0x40\n      mstore\n      pop\n      dup2\n      add\n      swap1\n      tag_142\n      swap2\n      swap1\n      tag_71\n      jump\t// in\n    tag_142:\n      pop\n        /* \"contracts/first_contract.sol\":4756:4766  mintcoke() */\n      tag_143\n        /* \"contracts/first_contract.sol\":4756:4764  mintcoke */\n      tag_24\n        /* \"contracts/first_contract.sol\":4756:4766  mintcoke() */\n      jump\t// in\n    tag_143:\n        /* \"contracts/first_contract.sol\":4749:4766  return mintcoke() */\n      pop\n        /* \"contracts/first_contract.sol\":4551:4774  function approveToken() public payable{\r... */\n      jump\t// out\n        /* \"contracts/first_contract.sol\":2247:2737  function sendInterest() public payable onlyManager{\r... */\n    tag_42:\n        /* \"contracts/first_contract.sol\":1130:1137  manager */\n      0x02\n      0x00\n      swap1\n      sload\n      swap1\n      0x0100\n      exp\n      swap1\n      div\n      0xffffffffffffffffffffffffffffffffffffffff\n      and\n        /* \"contracts/first_contract.sol\":1116:1137  msg.sender == manager */\n      0xffffffffffffffffffffffffffffffffffffffff\n      and\n        /* \"contracts/first_contract.sol\":1116:1126  msg.sender */\n      caller\n        /* \"contracts/first_contract.sol\":1116:1137  msg.sender == manager */\n      0xffffffffffffffffffffffffffffffffffffffff\n      and\n      eq\n        /* \"contracts/first_contract.sol\":1108:1164  require(msg.sender == manager, \"Only manager can call!\") */\n      tag_145\n      jumpi\n      mload(0x40)\n      0x08c379a000000000000000000000000000000000000000000000000000000000\n      dup2\n      mstore\n      0x04\n      add\n      tag_146\n      swap1\n      tag_147\n      jump\t// in\n    tag_146:\n      mload(0x40)\n      dup1\n      swap2\n      sub\n      swap1\n      revert\n    tag_145:\n        /* \"contracts/first_contract.sol\":2309:2315  uint i */\n      0x00\n        /* \"contracts/first_contract.sol\":2305:2730  for(uint i=0;i<clients.length;i++){\r... */\n    tag_149:\n        /* \"contracts/first_contract.sol\":2320:2327  clients */\n      0x00\n        /* \"contracts/first_contract.sol\":2320:2334  clients.length */\n      dup1\n      sload\n      swap1\n      pop\n        /* \"contracts/first_contract.sol\":2318:2319  i */\n      dup2\n        /* \"contracts/first_contract.sol\":2318:2334  i<clients.length */\n      lt\n        /* \"contracts/first_contract.sol\":2305:2730  for(uint i=0;i<clients.length;i++){\r... */\n      iszero\n      tag_150\n      jumpi\n        /* \"contracts/first_contract.sol\":2352:2374  address initialAddress */\n      0x00\n        /* \"contracts/first_contract.sol\":2377:2384  clients */\n      dup1\n        /* \"contracts/first_contract.sol\":2385:2386  i */\n      dup3\n        /* \"contracts/first_contract.sol\":2377:2387  clients[i] */\n      dup2\n      sload\n      dup2\n      lt\n      tag_152\n      jumpi\n      tag_153\n      tag_100\n      jump\t// in\n    tag_153:\n    tag_152:\n      swap1\n      0x00\n      mstore\n      keccak256(0x00, 0x20)\n      swap1\n      0x03\n      mul\n      add\n        /* \"contracts/first_contract.sol\":2377:2402  clients[i].client_address */\n      0x01\n      add\n      0x00\n      swap1\n      sload\n      swap1\n      0x0100\n      exp\n      swap1\n      div\n      0xffffffffffffffffffffffffffffffffffffffff\n      and\n        /* \"contracts/first_contract.sol\":2352:2402  address initialAddress = clients[i].client_address */\n      swap1\n      pop\n        /* \"contracts/first_contract.sol\":2415:2436  uint lastInterestDate */\n      0x00\n        /* \"contracts/first_contract.sol\":2439:2451  interestDate */\n      0x03\n        /* \"contracts/first_contract.sol\":2439:2467  interestDate[initialAddress] */\n      0x00\n        /* \"contracts/first_contract.sol\":2452:2466  initialAddress */\n      dup4\n        /* \"contracts/first_contract.sol\":2439:2467  interestDate[initialAddress] */\n      0xffffffffffffffffffffffffffffffffffffffff\n      and\n      0xffffffffffffffffffffffffffffffffffffffff\n      and\n      dup2\n      mstore\n      0x20\n      add\n      swap1\n      dup2\n      mstore\n      0x20\n      add\n      0x00\n      keccak256\n      sload\n        /* \"contracts/first_contract.sol\":2415:2467  uint lastInterestDate = interestDate[initialAddress] */\n      swap1\n      pop\n        /* \"contracts/first_contract.sol\":2520:2530  10 seconds */\n      0x0a\n        /* \"contracts/first_contract.sol\":2501:2517  lastInterestDate */\n      dup2\n        /* \"contracts/first_contract.sol\":2501:2530  lastInterestDate + 10 seconds */\n      tag_155\n      swap2\n      swap1\n      tag_156\n      jump\t// in\n    tag_155:\n        /* \"contracts/first_contract.sol\":2483:2498  block.timestamp */\n      timestamp\n        /* \"contracts/first_contract.sol\":2483:2530  block.timestamp < lastInterestDate + 10 seconds */\n      lt\n        /* \"contracts/first_contract.sol\":2480:2609  if(block.timestamp < lastInterestDate + 10 seconds){\r... */\n      iszero\n      tag_157\n      jumpi\n        /* \"contracts/first_contract.sol\":2549:2595  revert(\"It's just been less than 10 seconds!\") */\n      mload(0x40)\n      0x08c379a000000000000000000000000000000000000000000000000000000000\n      dup2\n      mstore\n      0x04\n      add\n      tag_158\n      swap1\n      tag_159\n      jump\t// in\n    tag_158:\n      mload(0x40)\n      dup1\n      swap2\n      sub\n      swap1\n      revert\n        /* \"contracts/first_contract.sol\":2480:2609  if(block.timestamp < lastInterestDate + 10 seconds){\r... */\n    tag_157:\n        /* \"contracts/first_contract.sol\":2629:2643  initialAddress */\n      dup2\n        /* \"contracts/first_contract.sol\":2621:2653  payable(initialAddress).transfer */\n      0xffffffffffffffffffffffffffffffffffffffff\n      and\n        /* \"contracts/first_contract.sol\":2621:2662  payable(initialAddress).transfer(1 ether) */\n      0x08fc\n        /* \"contracts/first_contract.sol\":2654:2661  1 ether */\n      0x0de0b6b3a7640000\n        /* \"contracts/first_contract.sol\":2621:2662  payable(initialAddress).transfer(1 ether) */\n      swap1\n      dup2\n      iszero\n      mul\n      swap1\n      mload(0x40)\n      0x00\n      mload(0x40)\n      dup1\n      dup4\n      sub\n      dup2\n      dup6\n      dup9\n      dup9\n      call\n      swap4\n      pop\n      pop\n      pop\n      pop\n      iszero\n      dup1\n      iszero\n      tag_161\n      jumpi\n      returndatasize\n      0x00\n      dup1\n      returndatacopy\n      revert(0x00, returndatasize)\n    tag_161:\n      pop\n        /* \"contracts/first_contract.sol\":2706:2721  block.timestamp */\n      timestamp\n        /* \"contracts/first_contract.sol\":2675:2687  interestDate */\n      0x03\n        /* \"contracts/first_contract.sol\":2675:2703  interestDate[initialAddress] */\n      0x00\n        /* \"contracts/first_contract.sol\":2688:2702  initialAddress */\n      dup5\n        /* \"contracts/first_contract.sol\":2675:2703  interestDate[initialAddress] */\n      0xffffffffffffffffffffffffffffffffffffffff\n      and\n      0xffffffffffffffffffffffffffffffffffffffff\n      and\n      dup2\n      mstore\n      0x20\n      add\n      swap1\n      dup2\n      mstore\n      0x20\n      add\n      0x00\n      keccak256\n        /* \"contracts/first_contract.sol\":2675:2721  interestDate[initialAddress] = block.timestamp */\n      dup2\n      swap1\n      sstore\n      pop\n        /* \"contracts/first_contract.sol\":2339:2730  {\r... */\n      pop\n      pop\n        /* \"contracts/first_contract.sol\":2335:2338  i++ */\n      dup1\n      dup1\n      tag_162\n      swap1\n      tag_104\n      jump\t// in\n    tag_162:\n      swap2\n      pop\n      pop\n        /* \"contracts/first_contract.sol\":2305:2730  for(uint i=0;i<clients.length;i++){\r... */\n      jump(tag_149)\n    tag_150:\n      pop\n        /* \"contracts/first_contract.sol\":2247:2737  function sendInterest() public payable onlyManager{\r... */\n      jump\t// out\n        /* \"contracts/first_contract.sol\":1705:1935  function joinAsClient() public payable returns(string memory){\r... */\n    tag_44:\n        /* \"contracts/first_contract.sol\":1752:1765  string memory */\n      0x60\n        /* \"contracts/first_contract.sol\":1801:1816  block.timestamp */\n      timestamp\n        /* \"contracts/first_contract.sol\":1774:1786  interestDate */\n      0x03\n        /* \"contracts/first_contract.sol\":1774:1798  interestDate[msg.sender] */\n      0x00\n        /* \"contracts/first_contract.sol\":1787:1797  msg.sender */\n      caller\n        /* \"contracts/first_contract.sol\":1774:1798  interestDate[msg.sender] */\n      0xffffffffffffffffffffffffffffffffffffffff\n      and\n      0xffffffffffffffffffffffffffffffffffffffff\n      and\n      dup2\n      mstore\n      0x20\n      add\n      swap1\n      dup2\n      mstore\n      0x20\n      add\n      0x00\n      keccak256\n        /* \"contracts/first_contract.sol\":1774:1816  interestDate[msg.sender] = block.timestamp */\n      dup2\n      swap1\n      sstore\n      pop\n        /* \"contracts/first_contract.sol\":1824:1831  clients */\n      0x00\n        /* \"contracts/first_contract.sol\":1837:1909  client_account(clientCounter++, msg.sender, address(msg.sender).balance) */\n      mload(0x40)\n      dup1\n      0x60\n      add\n      0x40\n      mstore\n      dup1\n        /* \"contracts/first_contract.sol\":1852:1865  clientCounter */\n      0x01\n      0x00\n        /* \"contracts/first_contract.sol\":1852:1867  clientCounter++ */\n      dup2\n      sload\n      dup1\n      swap3\n      swap2\n      swap1\n      tag_164\n      swap1\n      tag_165\n      jump\t// in\n    tag_164:\n      swap2\n      swap1\n      pop\n      sstore\n        /* \"contracts/first_contract.sol\":1837:1909  client_account(clientCounter++, msg.sender, address(msg.sender).balance) */\n      dup2\n      mstore\n      0x20\n      add\n        /* \"contracts/first_contract.sol\":1869:1879  msg.sender */\n      caller\n        /* \"contracts/first_contract.sol\":1837:1909  client_account(clientCounter++, msg.sender, address(msg.sender).balance) */\n      0xffffffffffffffffffffffffffffffffffffffff\n      and\n      dup2\n      mstore\n      0x20\n      add\n        /* \"contracts/first_contract.sol\":1889:1899  msg.sender */\n      caller\n        /* \"contracts/first_contract.sol\":1881:1908  address(msg.sender).balance */\n      0xffffffffffffffffffffffffffffffffffffffff\n      and\n      balance\n        /* \"contracts/first_contract.sol\":1837:1909  client_account(clientCounter++, msg.sender, address(msg.sender).balance) */\n      dup2\n      mstore\n      pop\n        /* \"contracts/first_contract.sol\":1824:1910  clients.push(client_account(clientCounter++, msg.sender, address(msg.sender).balance)) */\n      swap1\n      dup1\n      0x01\n      dup2\n      sload\n      add\n      dup1\n      dup3\n      sstore\n      dup1\n      swap2\n      pop\n      pop\n      0x01\n      swap1\n      sub\n      swap1\n      0x00\n      mstore\n      keccak256(0x00, 0x20)\n      swap1\n      0x03\n      mul\n      add\n      0x00\n      swap1\n      swap2\n      swap1\n      swap2\n      swap1\n      swap2\n      pop\n      0x00\n      dup3\n      add\n      mload\n      dup2\n      0x00\n      add\n      sstore\n      0x20\n      dup3\n      add\n      mload\n      dup2\n      0x01\n      add\n      exp(0x0100, 0x00)\n      dup2\n      sload\n      dup2\n      0xffffffffffffffffffffffffffffffffffffffff\n      mul\n      not\n      and\n      swap1\n      dup4\n      0xffffffffffffffffffffffffffffffffffffffff\n      and\n      mul\n      or\n      swap1\n      sstore\n      pop\n      0x40\n      dup3\n      add\n      mload\n      dup2\n      0x02\n      add\n      sstore\n      pop\n      pop\n        /* \"contracts/first_contract.sol\":1918:1927  return \"\" */\n      mload(0x40)\n      dup1\n      0x20\n      add\n      0x40\n      mstore\n      dup1\n      0x00\n      dup2\n      mstore\n      pop\n      swap1\n      pop\n        /* \"contracts/first_contract.sol\":1705:1935  function joinAsClient() public payable returns(string memory){\r... */\n      swap1\n      jump\t// out\n        /* \"contracts/first_contract.sol\":1945:2048  function deposit() public payable onlyClients{\r... */\n    tag_48:\n        /* \"contracts/first_contract.sol\":1224:1237  bool isClient */\n      0x00\n        /* \"contracts/first_contract.sol\":1260:1266  uint i */\n      dup1\n        /* \"contracts/first_contract.sol\":1256:1433  for(uint i=0;i<clients.length;i++){\r... */\n    tag_168:\n        /* \"contracts/first_contract.sol\":1271:1278  clients */\n      0x00\n        /* \"contracts/first_contract.sol\":1271:1285  clients.length */\n      dup1\n      sload\n      swap1\n      pop\n        /* \"contracts/first_contract.sol\":1269:1270  i */\n      dup2\n        /* \"contracts/first_contract.sol\":1269:1285  i<clients.length */\n      lt\n        /* \"contracts/first_contract.sol\":1256:1433  for(uint i=0;i<clients.length;i++){\r... */\n      iszero\n      tag_169\n      jumpi\n        /* \"contracts/first_contract.sol\":1337:1347  msg.sender */\n      caller\n        /* \"contracts/first_contract.sol\":1308:1347  clients[i].client_address == msg.sender */\n      0xffffffffffffffffffffffffffffffffffffffff\n      and\n        /* \"contracts/first_contract.sol\":1308:1315  clients */\n      0x00\n        /* \"contracts/first_contract.sol\":1316:1317  i */\n      dup3\n        /* \"contracts/first_contract.sol\":1308:1318  clients[i] */\n      dup2\n      sload\n      dup2\n      lt\n      tag_171\n      jumpi\n      tag_172\n      tag_100\n      jump\t// in\n    tag_172:\n    tag_171:\n      swap1\n      0x00\n      mstore\n      keccak256(0x00, 0x20)\n      swap1\n      0x03\n      mul\n      add\n        /* \"contracts/first_contract.sol\":1308:1333  clients[i].client_address */\n      0x01\n      add\n      0x00\n      swap1\n      sload\n      swap1\n      0x0100\n      exp\n      swap1\n      div\n      0xffffffffffffffffffffffffffffffffffffffff\n      and\n        /* \"contracts/first_contract.sol\":1308:1347  clients[i].client_address == msg.sender */\n      0xffffffffffffffffffffffffffffffffffffffff\n      and\n      eq\n        /* \"contracts/first_contract.sol\":1305:1422  if(clients[i].client_address == msg.sender){\r... */\n      iszero\n      tag_174\n      jumpi\n        /* \"contracts/first_contract.sol\":1378:1382  true */\n      0x01\n        /* \"contracts/first_contract.sol\":1367:1382  isClient = true */\n      swap2\n      pop\n        /* \"contracts/first_contract.sol\":1401:1406  break */\n      jump(tag_169)\n        /* \"contracts/first_contract.sol\":1305:1422  if(clients[i].client_address == msg.sender){\r... */\n    tag_174:\n        /* \"contracts/first_contract.sol\":1286:1289  i++ */\n      dup1\n      dup1\n      tag_175\n      swap1\n      tag_104\n      jump\t// in\n    tag_175:\n      swap2\n      pop\n      pop\n        /* \"contracts/first_contract.sol\":1256:1433  for(uint i=0;i<clients.length;i++){\r... */\n      jump(tag_168)\n    tag_169:\n      pop\n        /* \"contracts/first_contract.sol\":1451:1459  isClient */\n      dup1\n        /* \"contracts/first_contract.sol\":1443:1486  require(isClient, \"Only clients can call!\") */\n      tag_176\n      jumpi\n      mload(0x40)\n      0x08c379a000000000000000000000000000000000000000000000000000000000\n      dup2\n      mstore\n      0x04\n      add\n      tag_177\n      swap1\n      tag_107\n      jump\t// in\n    tag_177:\n      mload(0x40)\n      dup1\n      swap2\n      sub\n      swap1\n      revert\n    tag_176:\n        /* \"contracts/first_contract.sol\":2014:2018  this */\n      address\n        /* \"contracts/first_contract.sol\":1998:2029  payable(address(this)).transfer */\n      0xffffffffffffffffffffffffffffffffffffffff\n      and\n        /* \"contracts/first_contract.sol\":1998:2040  payable(address(this)).transfer(msg.value) */\n      0x08fc\n        /* \"contracts/first_contract.sol\":2030:2039  msg.value */\n      callvalue\n        /* \"contracts/first_contract.sol\":1998:2040  payable(address(this)).transfer(msg.value) */\n      swap1\n      dup2\n      iszero\n      mul\n      swap1\n      mload(0x40)\n      0x00\n      mload(0x40)\n      dup1\n      dup4\n      sub\n      dup2\n      dup6\n      dup9\n      dup9\n      call\n      swap4\n      pop\n      pop\n      pop\n      pop\n      iszero\n      dup1\n      iszero\n      tag_180\n      jumpi\n      returndatasize\n      0x00\n      dup1\n      returndatacopy\n      revert(0x00, returndatasize)\n    tag_180:\n      pop\n        /* \"contracts/first_contract.sol\":1213:1506  {\r... */\n      pop\n        /* \"contracts/first_contract.sol\":1945:2048  function deposit() public payable onlyClients{\r... */\n      jump\t// out\n        /* \"contracts/first_contract.sol\":1558:1697  function setManager(address managerAddress) public returns(string memory){\r... */\n    tag_53:\n        /* \"contracts/first_contract.sol\":1617:1630  string memory */\n      0x60\n        /* \"contracts/first_contract.sol\":1657:1671  managerAddress */\n      dup2\n        /* \"contracts/first_contract.sol\":1639:1646  manager */\n      0x02\n      0x00\n        /* \"contracts/first_contract.sol\":1639:1672  manager = payable(managerAddress) */\n      0x0100\n      exp\n      dup2\n      sload\n      dup2\n      0xffffffffffffffffffffffffffffffffffffffff\n      mul\n      not\n      and\n      swap1\n      dup4\n      0xffffffffffffffffffffffffffffffffffffffff\n      and\n      mul\n      or\n      swap1\n      sstore\n      pop\n        /* \"contracts/first_contract.sol\":1680:1689  return \"\" */\n      mload(0x40)\n      dup1\n      0x20\n      add\n      0x40\n      mstore\n      dup1\n      0x00\n      dup2\n      mstore\n      pop\n      swap1\n      pop\n        /* \"contracts/first_contract.sol\":1558:1697  function setManager(address managerAddress) public returns(string memory){\r... */\n      swap2\n      swap1\n      pop\n      jump\t// out\n        /* \"contracts/first_contract.sol\":961:1005  mapping(address => uint) public interestDate */\n    tag_58:\n      mstore(0x20, 0x03)\n      dup1\n      0x00\n      mstore\n      keccak256(0x00, 0x40)\n      0x00\n      swap2\n      pop\n      swap1\n      pop\n      sload\n      dup2\n      jump\t// out\n        /* \"contracts/first_contract.sol\":2753:2870  function getCountClient() public view returns(uint){\r... */\n    tag_62:\n        /* \"contracts/first_contract.sol\":2799:2803  uint */\n      0x00\n        /* \"contracts/first_contract.sol\":2815:2825  uint count */\n      dup1\n        /* \"contracts/first_contract.sol\":2828:2835  clients */\n      0x00\n        /* \"contracts/first_contract.sol\":2828:2842  clients.length */\n      dup1\n      sload\n      swap1\n      pop\n        /* \"contracts/first_contract.sol\":2815:2842  uint count = clients.length */\n      swap1\n      pop\n        /* \"contracts/first_contract.sol\":2857:2862  count */\n      dup1\n        /* \"contracts/first_contract.sol\":2850:2862  return count */\n      swap2\n      pop\n      pop\n        /* \"contracts/first_contract.sol\":2753:2870  function getCountClient() public view returns(uint){\r... */\n      swap1\n      jump\t// out\n        /* \"#utility.yul\":7:146   */\n    tag_184:\n        /* \"#utility.yul\":53:58   */\n      0x00\n        /* \"#utility.yul\":91:97   */\n      dup2\n        /* \"#utility.yul\":78:98   */\n      calldataload\n        /* \"#utility.yul\":69:98   */\n      swap1\n      pop\n        /* \"#utility.yul\":107:140   */\n      tag_186\n        /* \"#utility.yul\":134:139   */\n      dup2\n        /* \"#utility.yul\":107:140   */\n      tag_187\n      jump\t// in\n    tag_186:\n        /* \"#utility.yul\":7:146   */\n      swap3\n      swap2\n      pop\n      pop\n      jump\t// out\n        /* \"#utility.yul\":152:289   */\n    tag_188:\n        /* \"#utility.yul\":206:211   */\n      0x00\n        /* \"#utility.yul\":237:243   */\n      dup2\n        /* \"#utility.yul\":231:244   */\n      mload\n        /* \"#utility.yul\":222:244   */\n      swap1\n      pop\n        /* \"#utility.yul\":253:283   */\n      tag_190\n        /* \"#utility.yul\":277:282   */\n      dup2\n        /* \"#utility.yul\":253:283   */\n      tag_191\n      jump\t// in\n    tag_190:\n        /* \"#utility.yul\":152:289   */\n      swap3\n      swap2\n      pop\n      pop\n      jump\t// out\n        /* \"#utility.yul\":295:434   */\n    tag_192:\n        /* \"#utility.yul\":341:346   */\n      0x00\n        /* \"#utility.yul\":379:385   */\n      dup2\n        /* \"#utility.yul\":366:386   */\n      calldataload\n        /* \"#utility.yul\":357:386   */\n      swap1\n      pop\n        /* \"#utility.yul\":395:428   */\n      tag_194\n        /* \"#utility.yul\":422:427   */\n      dup2\n        /* \"#utility.yul\":395:428   */\n      tag_195\n      jump\t// in\n    tag_194:\n        /* \"#utility.yul\":295:434   */\n      swap3\n      swap2\n      pop\n      pop\n      jump\t// out\n        /* \"#utility.yul\":440:583   */\n    tag_196:\n        /* \"#utility.yul\":497:502   */\n      0x00\n        /* \"#utility.yul\":528:534   */\n      dup2\n        /* \"#utility.yul\":522:535   */\n      mload\n        /* \"#utility.yul\":513:535   */\n      swap1\n      pop\n        /* \"#utility.yul\":544:577   */\n      tag_198\n        /* \"#utility.yul\":571:576   */\n      dup2\n        /* \"#utility.yul\":544:577   */\n      tag_195\n      jump\t// in\n    tag_198:\n        /* \"#utility.yul\":440:583   */\n      swap3\n      swap2\n      pop\n      pop\n      jump\t// out\n        /* \"#utility.yul\":589:918   */\n    tag_52:\n        /* \"#utility.yul\":648:654   */\n      0x00\n        /* \"#utility.yul\":697:699   */\n      0x20\n        /* \"#utility.yul\":685:694   */\n      dup3\n        /* \"#utility.yul\":676:683   */\n      dup5\n        /* \"#utility.yul\":672:695   */\n      sub\n        /* \"#utility.yul\":668:700   */\n      slt\n        /* \"#utility.yul\":665:784   */\n      iszero\n      tag_200\n      jumpi\n        /* \"#utility.yul\":703:782   */\n      tag_201\n      tag_202\n      jump\t// in\n    tag_201:\n        /* \"#utility.yul\":665:784   */\n    tag_200:\n        /* \"#utility.yul\":823:824   */\n      0x00\n        /* \"#utility.yul\":848:901   */\n      tag_203\n        /* \"#utility.yul\":893:900   */\n      dup5\n        /* \"#utility.yul\":884:890   */\n      dup3\n        /* \"#utility.yul\":873:882   */\n      dup6\n        /* \"#utility.yul\":869:891   */\n      add\n        /* \"#utility.yul\":848:901   */\n      tag_184\n      jump\t// in\n    tag_203:\n        /* \"#utility.yul\":838:901   */\n      swap2\n      pop\n        /* \"#utility.yul\":794:911   */\n      pop\n        /* \"#utility.yul\":589:918   */\n      swap3\n      swap2\n      pop\n      pop\n      jump\t// out\n        /* \"#utility.yul\":924:1543   */\n    tag_21:\n        /* \"#utility.yul\":1001:1007   */\n      0x00\n        /* \"#utility.yul\":1009:1015   */\n      dup1\n        /* \"#utility.yul\":1017:1023   */\n      0x00\n        /* \"#utility.yul\":1066:1068   */\n      0x60\n        /* \"#utility.yul\":1054:1063   */\n      dup5\n        /* \"#utility.yul\":1045:1052   */\n      dup7\n        /* \"#utility.yul\":1041:1064   */\n      sub\n        /* \"#utility.yul\":1037:1069   */\n      slt\n        /* \"#utility.yul\":1034:1153   */\n      iszero\n      tag_205\n      jumpi\n        /* \"#utility.yul\":1072:1151   */\n      tag_206\n      tag_202\n      jump\t// in\n    tag_206:\n        /* \"#utility.yul\":1034:1153   */\n    tag_205:\n        /* \"#utility.yul\":1192:1193   */\n      0x00\n        /* \"#utility.yul\":1217:1270   */\n      tag_207\n        /* \"#utility.yul\":1262:1269   */\n      dup7\n        /* \"#utility.yul\":1253:1259   */\n      dup3\n        /* \"#utility.yul\":1242:1251   */\n      dup8\n        /* \"#utility.yul\":1238:1260   */\n      add\n        /* \"#utility.yul\":1217:1270   */\n      tag_184\n      jump\t// in\n    tag_207:\n        /* \"#utility.yul\":1207:1270   */\n      swap4\n      pop\n        /* \"#utility.yul\":1163:1280   */\n      pop\n        /* \"#utility.yul\":1319:1321   */\n      0x20\n        /* \"#utility.yul\":1345:1398   */\n      tag_208\n        /* \"#utility.yul\":1390:1397   */\n      dup7\n        /* \"#utility.yul\":1381:1387   */\n      dup3\n        /* \"#utility.yul\":1370:1379   */\n      dup8\n        /* \"#utility.yul\":1366:1388   */\n      add\n        /* \"#utility.yul\":1345:1398   */\n      tag_184\n      jump\t// in\n    tag_208:\n        /* \"#utility.yul\":1335:1398   */\n      swap3\n      pop\n        /* \"#utility.yul\":1290:1408   */\n      pop\n        /* \"#utility.yul\":1447:1449   */\n      0x40\n        /* \"#utility.yul\":1473:1526   */\n      tag_209\n        /* \"#utility.yul\":1518:1525   */\n      dup7\n        /* \"#utility.yul\":1509:1515   */\n      dup3\n        /* \"#utility.yul\":1498:1507   */\n      dup8\n        /* \"#utility.yul\":1494:1516   */\n      add\n        /* \"#utility.yul\":1473:1526   */\n      tag_192\n      jump\t// in\n    tag_209:\n        /* \"#utility.yul\":1463:1526   */\n      swap2\n      pop\n        /* \"#utility.yul\":1418:1536   */\n      pop\n        /* \"#utility.yul\":924:1543   */\n      swap3\n      pop\n      swap3\n      pop\n      swap3\n      jump\t// out\n        /* \"#utility.yul\":1549:1894   */\n    tag_71:\n        /* \"#utility.yul\":1616:1622   */\n      0x00\n        /* \"#utility.yul\":1665:1667   */\n      0x20\n        /* \"#utility.yul\":1653:1662   */\n      dup3\n        /* \"#utility.yul\":1644:1651   */\n      dup5\n        /* \"#utility.yul\":1640:1663   */\n      sub\n        /* \"#utility.yul\":1636:1668   */\n      slt\n        /* \"#utility.yul\":1633:1752   */\n      iszero\n      tag_211\n      jumpi\n        /* \"#utility.yul\":1671:1750   */\n      tag_212\n      tag_202\n      jump\t// in\n    tag_212:\n        /* \"#utility.yul\":1633:1752   */\n    tag_211:\n        /* \"#utility.yul\":1791:1792   */\n      0x00\n        /* \"#utility.yul\":1816:1877   */\n      tag_213\n        /* \"#utility.yul\":1869:1876   */\n      dup5\n        /* \"#utility.yul\":1860:1866   */\n      dup3\n        /* \"#utility.yul\":1849:1858   */\n      dup6\n        /* \"#utility.yul\":1845:1867   */\n      add\n        /* \"#utility.yul\":1816:1877   */\n      tag_188\n      jump\t// in\n    tag_213:\n        /* \"#utility.yul\":1806:1877   */\n      swap2\n      pop\n        /* \"#utility.yul\":1762:1887   */\n      pop\n        /* \"#utility.yul\":1549:1894   */\n      swap3\n      swap2\n      pop\n      pop\n      jump\t// out\n        /* \"#utility.yul\":1900:2229   */\n    tag_27:\n        /* \"#utility.yul\":1959:1965   */\n      0x00\n        /* \"#utility.yul\":2008:2010   */\n      0x20\n        /* \"#utility.yul\":1996:2005   */\n      dup3\n        /* \"#utility.yul\":1987:1994   */\n      dup5\n        /* \"#utility.yul\":1983:2006   */\n      sub\n        /* \"#utility.yul\":1979:2011   */\n      slt\n        /* \"#utility.yul\":1976:2095   */\n      iszero\n      tag_215\n      jumpi\n        /* \"#utility.yul\":2014:2093   */\n      tag_216\n      tag_202\n      jump\t// in\n    tag_216:\n        /* \"#utility.yul\":1976:2095   */\n    tag_215:\n        /* \"#utility.yul\":2134:2135   */\n      0x00\n        /* \"#utility.yul\":2159:2212   */\n      tag_217\n        /* \"#utility.yul\":2204:2211   */\n      dup5\n        /* \"#utility.yul\":2195:2201   */\n      dup3\n        /* \"#utility.yul\":2184:2193   */\n      dup6\n        /* \"#utility.yul\":2180:2202   */\n      add\n        /* \"#utility.yul\":2159:2212   */\n      tag_192\n      jump\t// in\n    tag_217:\n        /* \"#utility.yul\":2149:2212   */\n      swap2\n      pop\n        /* \"#utility.yul\":2105:2222   */\n      pop\n        /* \"#utility.yul\":1900:2229   */\n      swap3\n      swap2\n      pop\n      pop\n      jump\t// out\n        /* \"#utility.yul\":2235:2586   */\n    tag_79:\n        /* \"#utility.yul\":2305:2311   */\n      0x00\n        /* \"#utility.yul\":2354:2356   */\n      0x20\n        /* \"#utility.yul\":2342:2351   */\n      dup3\n        /* \"#utility.yul\":2333:2340   */\n      dup5\n        /* \"#utility.yul\":2329:2352   */\n      sub\n        /* \"#utility.yul\":2325:2357   */\n      slt\n        /* \"#utility.yul\":2322:2441   */\n      iszero\n      tag_219\n      jumpi\n        /* \"#utility.yul\":2360:2439   */\n      tag_220\n      tag_202\n      jump\t// in\n    tag_220:\n        /* \"#utility.yul\":2322:2441   */\n    tag_219:\n        /* \"#utility.yul\":2480:2481   */\n      0x00\n        /* \"#utility.yul\":2505:2569   */\n      tag_221\n        /* \"#utility.yul\":2561:2568   */\n      dup5\n        /* \"#utility.yul\":2552:2558   */\n      dup3\n        /* \"#utility.yul\":2541:2550   */\n      dup6\n        /* \"#utility.yul\":2537:2559   */\n      add\n        /* \"#utility.yul\":2505:2569   */\n      tag_196\n      jump\t// in\n    tag_221:\n        /* \"#utility.yul\":2495:2569   */\n      swap2\n      pop\n        /* \"#utility.yul\":2451:2579   */\n      pop\n        /* \"#utility.yul\":2235:2586   */\n      swap3\n      swap2\n      pop\n      pop\n      jump\t// out\n        /* \"#utility.yul\":2592:2771   */\n    tag_222:\n        /* \"#utility.yul\":2661:2671   */\n      0x00\n        /* \"#utility.yul\":2682:2728   */\n      tag_224\n        /* \"#utility.yul\":2724:2727   */\n      dup4\n        /* \"#utility.yul\":2716:2722   */\n      dup4\n        /* \"#utility.yul\":2682:2728   */\n      tag_225\n      jump\t// in\n    tag_224:\n        /* \"#utility.yul\":2760:2764   */\n      0x20\n        /* \"#utility.yul\":2755:2758   */\n      dup4\n        /* \"#utility.yul\":2751:2765   */\n      add\n        /* \"#utility.yul\":2737:2765   */\n      swap1\n      pop\n        /* \"#utility.yul\":2592:2771   */\n      swap3\n      swap2\n      pop\n      pop\n      jump\t// out\n        /* \"#utility.yul\":2777:2956   */\n    tag_226:\n        /* \"#utility.yul\":2846:2856   */\n      0x00\n        /* \"#utility.yul\":2867:2913   */\n      tag_228\n        /* \"#utility.yul\":2909:2912   */\n      dup4\n        /* \"#utility.yul\":2901:2907   */\n      dup4\n        /* \"#utility.yul\":2867:2913   */\n      tag_229\n      jump\t// in\n    tag_228:\n        /* \"#utility.yul\":2945:2949   */\n      0x20\n        /* \"#utility.yul\":2940:2943   */\n      dup4\n        /* \"#utility.yul\":2936:2950   */\n      add\n        /* \"#utility.yul\":2922:2950   */\n      swap1\n      pop\n        /* \"#utility.yul\":2777:2956   */\n      swap3\n      swap2\n      pop\n      pop\n      jump\t// out\n        /* \"#utility.yul\":2962:3070   */\n    tag_225:\n        /* \"#utility.yul\":3039:3063   */\n      tag_231\n        /* \"#utility.yul\":3057:3062   */\n      dup2\n        /* \"#utility.yul\":3039:3063   */\n      tag_232\n      jump\t// in\n    tag_231:\n        /* \"#utility.yul\":3034:3037   */\n      dup3\n        /* \"#utility.yul\":3027:3064   */\n      mstore\n        /* \"#utility.yul\":2962:3070   */\n      pop\n      pop\n      jump\t// out\n        /* \"#utility.yul\":3076:3194   */\n    tag_233:\n        /* \"#utility.yul\":3163:3187   */\n      tag_235\n        /* \"#utility.yul\":3181:3186   */\n      dup2\n        /* \"#utility.yul\":3163:3187   */\n      tag_232\n      jump\t// in\n    tag_235:\n        /* \"#utility.yul\":3158:3161   */\n      dup3\n        /* \"#utility.yul\":3151:3188   */\n      mstore\n        /* \"#utility.yul\":3076:3194   */\n      pop\n      pop\n      jump\t// out\n        /* \"#utility.yul\":3230:3962   */\n    tag_236:\n        /* \"#utility.yul\":3349:3352   */\n      0x00\n        /* \"#utility.yul\":3378:3432   */\n      tag_238\n        /* \"#utility.yul\":3426:3431   */\n      dup3\n        /* \"#utility.yul\":3378:3432   */\n      tag_239\n      jump\t// in\n    tag_238:\n        /* \"#utility.yul\":3448:3534   */\n      tag_240\n        /* \"#utility.yul\":3527:3533   */\n      dup2\n        /* \"#utility.yul\":3522:3525   */\n      dup6\n        /* \"#utility.yul\":3448:3534   */\n      tag_241\n      jump\t// in\n    tag_240:\n        /* \"#utility.yul\":3441:3534   */\n      swap4\n      pop\n        /* \"#utility.yul\":3558:3614   */\n      tag_242\n        /* \"#utility.yul\":3608:3613   */\n      dup4\n        /* \"#utility.yul\":3558:3614   */\n      tag_243\n      jump\t// in\n    tag_242:\n        /* \"#utility.yul\":3637:3644   */\n      dup1\n        /* \"#utility.yul\":3668:3669   */\n      0x00\n        /* \"#utility.yul\":3653:3937   */\n    tag_244:\n        /* \"#utility.yul\":3678:3684   */\n      dup4\n        /* \"#utility.yul\":3675:3676   */\n      dup2\n        /* \"#utility.yul\":3672:3685   */\n      lt\n        /* \"#utility.yul\":3653:3937   */\n      iszero\n      tag_246\n      jumpi\n        /* \"#utility.yul\":3754:3760   */\n      dup2\n        /* \"#utility.yul\":3748:3761   */\n      mload\n        /* \"#utility.yul\":3781:3844   */\n      tag_247\n        /* \"#utility.yul\":3840:3843   */\n      dup9\n        /* \"#utility.yul\":3825:3838   */\n      dup3\n        /* \"#utility.yul\":3781:3844   */\n      tag_222\n      jump\t// in\n    tag_247:\n        /* \"#utility.yul\":3774:3844   */\n      swap8\n      pop\n        /* \"#utility.yul\":3867:3927   */\n      tag_248\n        /* \"#utility.yul\":3920:3926   */\n      dup4\n        /* \"#utility.yul\":3867:3927   */\n      tag_249\n      jump\t// in\n    tag_248:\n        /* \"#utility.yul\":3857:3927   */\n      swap3\n      pop\n        /* \"#utility.yul\":3713:3937   */\n      pop\n        /* \"#utility.yul\":3700:3701   */\n      0x01\n        /* \"#utility.yul\":3697:3698   */\n      dup2\n        /* \"#utility.yul\":3693:3702   */\n      add\n        /* \"#utility.yul\":3688:3702   */\n      swap1\n      pop\n        /* \"#utility.yul\":3653:3937   */\n      jump(tag_244)\n    tag_246:\n        /* \"#utility.yul\":3657:3671   */\n      pop\n        /* \"#utility.yul\":3953:3956   */\n      dup6\n        /* \"#utility.yul\":3946:3956   */\n      swap4\n      pop\n        /* \"#utility.yul\":3354:3962   */\n      pop\n      pop\n      pop\n        /* \"#utility.yul\":3230:3962   */\n      swap3\n      swap2\n      pop\n      pop\n      jump\t// out\n        /* \"#utility.yul\":3998:4730   */\n    tag_250:\n        /* \"#utility.yul\":4117:4120   */\n      0x00\n        /* \"#utility.yul\":4146:4200   */\n      tag_252\n        /* \"#utility.yul\":4194:4199   */\n      dup3\n        /* \"#utility.yul\":4146:4200   */\n      tag_253\n      jump\t// in\n    tag_252:\n        /* \"#utility.yul\":4216:4302   */\n      tag_254\n        /* \"#utility.yul\":4295:4301   */\n      dup2\n        /* \"#utility.yul\":4290:4293   */\n      dup6\n        /* \"#utility.yul\":4216:4302   */\n      tag_255\n      jump\t// in\n    tag_254:\n        /* \"#utility.yul\":4209:4302   */\n      swap4\n      pop\n        /* \"#utility.yul\":4326:4382   */\n      tag_256\n        /* \"#utility.yul\":4376:4381   */\n      dup4\n        /* \"#utility.yul\":4326:4382   */\n      tag_257\n      jump\t// in\n    tag_256:\n        /* \"#utility.yul\":4405:4412   */\n      dup1\n        /* \"#utility.yul\":4436:4437   */\n      0x00\n        /* \"#utility.yul\":4421:4705   */\n    tag_258:\n        /* \"#utility.yul\":4446:4452   */\n      dup4\n        /* \"#utility.yul\":4443:4444   */\n      dup2\n        /* \"#utility.yul\":4440:4453   */\n      lt\n        /* \"#utility.yul\":4421:4705   */\n      iszero\n      tag_260\n      jumpi\n        /* \"#utility.yul\":4522:4528   */\n      dup2\n        /* \"#utility.yul\":4516:4529   */\n      mload\n        /* \"#utility.yul\":4549:4612   */\n      tag_261\n        /* \"#utility.yul\":4608:4611   */\n      dup9\n        /* \"#utility.yul\":4593:4606   */\n      dup3\n        /* \"#utility.yul\":4549:4612   */\n      tag_226\n      jump\t// in\n    tag_261:\n        /* \"#utility.yul\":4542:4612   */\n      swap8\n      pop\n        /* \"#utility.yul\":4635:4695   */\n      tag_262\n        /* \"#utility.yul\":4688:4694   */\n      dup4\n        /* \"#utility.yul\":4635:4695   */\n      tag_263\n      jump\t// in\n    tag_262:\n        /* \"#utility.yul\":4625:4695   */\n      swap3\n      pop\n        /* \"#utility.yul\":4481:4705   */\n      pop\n        /* \"#utility.yul\":4468:4469   */\n      0x01\n        /* \"#utility.yul\":4465:4466   */\n      dup2\n        /* \"#utility.yul\":4461:4470   */\n      add\n        /* \"#utility.yul\":4456:4470   */\n      swap1\n      pop\n        /* \"#utility.yul\":4421:4705   */\n      jump(tag_258)\n    tag_260:\n        /* \"#utility.yul\":4425:4439   */\n      pop\n        /* \"#utility.yul\":4721:4724   */\n      dup6\n        /* \"#utility.yul\":4714:4724   */\n      swap4\n      pop\n        /* \"#utility.yul\":4122:4730   */\n      pop\n      pop\n      pop\n        /* \"#utility.yul\":3998:4730   */\n      swap3\n      swap2\n      pop\n      pop\n      jump\t// out\n        /* \"#utility.yul\":4736:4931   */\n    tag_264:\n        /* \"#utility.yul\":4855:4924   */\n      tag_266\n        /* \"#utility.yul\":4918:4923   */\n      dup2\n        /* \"#utility.yul\":4855:4924   */\n      tag_267\n      jump\t// in\n    tag_266:\n        /* \"#utility.yul\":4850:4853   */\n      dup3\n        /* \"#utility.yul\":4843:4925   */\n      mstore\n        /* \"#utility.yul\":4736:4931   */\n      pop\n      pop\n      jump\t// out\n        /* \"#utility.yul\":4937:5084   */\n    tag_268:\n        /* \"#utility.yul\":5032:5077   */\n      tag_270\n        /* \"#utility.yul\":5071:5076   */\n      dup2\n        /* \"#utility.yul\":5032:5077   */\n      tag_271\n      jump\t// in\n    tag_270:\n        /* \"#utility.yul\":5027:5030   */\n      dup3\n        /* \"#utility.yul\":5020:5078   */\n      mstore\n        /* \"#utility.yul\":4937:5084   */\n      pop\n      pop\n      jump\t// out\n        /* \"#utility.yul\":5090:5273   */\n    tag_272:\n        /* \"#utility.yul\":5203:5266   */\n      tag_274\n        /* \"#utility.yul\":5260:5265   */\n      dup2\n        /* \"#utility.yul\":5203:5266   */\n      tag_275\n      jump\t// in\n    tag_274:\n        /* \"#utility.yul\":5198:5201   */\n      dup3\n        /* \"#utility.yul\":5191:5267   */\n      mstore\n        /* \"#utility.yul\":5090:5273   */\n      pop\n      pop\n      jump\t// out\n        /* \"#utility.yul\":5279:5643   */\n    tag_276:\n        /* \"#utility.yul\":5367:5370   */\n      0x00\n        /* \"#utility.yul\":5395:5434   */\n      tag_278\n        /* \"#utility.yul\":5428:5433   */\n      dup3\n        /* \"#utility.yul\":5395:5434   */\n      tag_279\n      jump\t// in\n    tag_278:\n        /* \"#utility.yul\":5450:5521   */\n      tag_280\n        /* \"#utility.yul\":5514:5520   */\n      dup2\n        /* \"#utility.yul\":5509:5512   */\n      dup6\n        /* \"#utility.yul\":5450:5521   */\n      tag_281\n      jump\t// in\n    tag_280:\n        /* \"#utility.yul\":5443:5521   */\n      swap4\n      pop\n        /* \"#utility.yul\":5530:5582   */\n      tag_282\n        /* \"#utility.yul\":5575:5581   */\n      dup2\n        /* \"#utility.yul\":5570:5573   */\n      dup6\n        /* \"#utility.yul\":5563:5567   */\n      0x20\n        /* \"#utility.yul\":5556:5561   */\n      dup7\n        /* \"#utility.yul\":5552:5568   */\n      add\n        /* \"#utility.yul\":5530:5582   */\n      tag_283\n      jump\t// in\n    tag_282:\n        /* \"#utility.yul\":5607:5636   */\n      tag_284\n        /* \"#utility.yul\":5629:5635   */\n      dup2\n        /* \"#utility.yul\":5607:5636   */\n      tag_285\n      jump\t// in\n    tag_284:\n        /* \"#utility.yul\":5602:5605   */\n      dup5\n        /* \"#utility.yul\":5598:5637   */\n      add\n        /* \"#utility.yul\":5591:5637   */\n      swap2\n      pop\n        /* \"#utility.yul\":5371:5643   */\n      pop\n        /* \"#utility.yul\":5279:5643   */\n      swap3\n      swap2\n      pop\n      pop\n      jump\t// out\n        /* \"#utility.yul\":5649:6015   */\n    tag_286:\n        /* \"#utility.yul\":5791:5794   */\n      0x00\n        /* \"#utility.yul\":5812:5879   */\n      tag_288\n        /* \"#utility.yul\":5876:5878   */\n      0x16\n        /* \"#utility.yul\":5871:5874   */\n      dup4\n        /* \"#utility.yul\":5812:5879   */\n      tag_281\n      jump\t// in\n    tag_288:\n        /* \"#utility.yul\":5805:5879   */\n      swap2\n      pop\n        /* \"#utility.yul\":5888:5981   */\n      tag_289\n        /* \"#utility.yul\":5977:5980   */\n      dup3\n        /* \"#utility.yul\":5888:5981   */\n      tag_290\n      jump\t// in\n    tag_289:\n        /* \"#utility.yul\":6006:6008   */\n      0x20\n        /* \"#utility.yul\":6001:6004   */\n      dup3\n        /* \"#utility.yul\":5997:6009   */\n      add\n        /* \"#utility.yul\":5990:6009   */\n      swap1\n      pop\n        /* \"#utility.yul\":5649:6015   */\n      swap2\n      swap1\n      pop\n      jump\t// out\n        /* \"#utility.yul\":6021:6387   */\n    tag_291:\n        /* \"#utility.yul\":6163:6166   */\n      0x00\n        /* \"#utility.yul\":6184:6251   */\n      tag_293\n        /* \"#utility.yul\":6248:6250   */\n      0x24\n        /* \"#utility.yul\":6243:6246   */\n      dup4\n        /* \"#utility.yul\":6184:6251   */\n      tag_281\n      jump\t// in\n    tag_293:\n        /* \"#utility.yul\":6177:6251   */\n      swap2\n      pop\n        /* \"#utility.yul\":6260:6353   */\n      tag_294\n        /* \"#utility.yul\":6349:6352   */\n      dup3\n        /* \"#utility.yul\":6260:6353   */\n      tag_295\n      jump\t// in\n    tag_294:\n        /* \"#utility.yul\":6378:6380   */\n      0x40\n        /* \"#utility.yul\":6373:6376   */\n      dup3\n        /* \"#utility.yul\":6369:6381   */\n      add\n        /* \"#utility.yul\":6362:6381   */\n      swap1\n      pop\n        /* \"#utility.yul\":6021:6387   */\n      swap2\n      swap1\n      pop\n      jump\t// out\n        /* \"#utility.yul\":6393:6759   */\n    tag_296:\n        /* \"#utility.yul\":6535:6538   */\n      0x00\n        /* \"#utility.yul\":6556:6623   */\n      tag_298\n        /* \"#utility.yul\":6620:6622   */\n      0x16\n        /* \"#utility.yul\":6615:6618   */\n      dup4\n        /* \"#utility.yul\":6556:6623   */\n      tag_281\n      jump\t// in\n    tag_298:\n        /* \"#utility.yul\":6549:6623   */\n      swap2\n      pop\n        /* \"#utility.yul\":6632:6725   */\n      tag_299\n        /* \"#utility.yul\":6721:6724   */\n      dup3\n        /* \"#utility.yul\":6632:6725   */\n      tag_300\n      jump\t// in\n    tag_299:\n        /* \"#utility.yul\":6750:6752   */\n      0x20\n        /* \"#utility.yul\":6745:6748   */\n      dup3\n        /* \"#utility.yul\":6741:6753   */\n      add\n        /* \"#utility.yul\":6734:6753   */\n      swap1\n      pop\n        /* \"#utility.yul\":6393:6759   */\n      swap2\n      swap1\n      pop\n      jump\t// out\n        /* \"#utility.yul\":6765:6873   */\n    tag_229:\n        /* \"#utility.yul\":6842:6866   */\n      tag_302\n        /* \"#utility.yul\":6860:6865   */\n      dup2\n        /* \"#utility.yul\":6842:6866   */\n      tag_303\n      jump\t// in\n    tag_302:\n        /* \"#utility.yul\":6837:6840   */\n      dup3\n        /* \"#utility.yul\":6830:6867   */\n      mstore\n        /* \"#utility.yul\":6765:6873   */\n      pop\n      pop\n      jump\t// out\n        /* \"#utility.yul\":6879:6997   */\n    tag_304:\n        /* \"#utility.yul\":6966:6990   */\n      tag_306\n        /* \"#utility.yul\":6984:6989   */\n      dup2\n        /* \"#utility.yul\":6966:6990   */\n      tag_303\n      jump\t// in\n    tag_306:\n        /* \"#utility.yul\":6961:6964   */\n      dup3\n        /* \"#utility.yul\":6954:6991   */\n      mstore\n        /* \"#utility.yul\":6879:6997   */\n      pop\n      pop\n      jump\t// out\n        /* \"#utility.yul\":7003:7335   */\n    tag_74:\n        /* \"#utility.yul\":7124:7128   */\n      0x00\n        /* \"#utility.yul\":7162:7164   */\n      0x40\n        /* \"#utility.yul\":7151:7160   */\n      dup3\n        /* \"#utility.yul\":7147:7165   */\n      add\n        /* \"#utility.yul\":7139:7165   */\n      swap1\n      pop\n        /* \"#utility.yul\":7175:7246   */\n      tag_308\n        /* \"#utility.yul\":7243:7244   */\n      0x00\n        /* \"#utility.yul\":7232:7241   */\n      dup4\n        /* \"#utility.yul\":7228:7245   */\n      add\n        /* \"#utility.yul\":7219:7225   */\n      dup6\n        /* \"#utility.yul\":7175:7246   */\n      tag_233\n      jump\t// in\n    tag_308:\n        /* \"#utility.yul\":7256:7328   */\n      tag_309\n        /* \"#utility.yul\":7324:7326   */\n      0x20\n        /* \"#utility.yul\":7313:7322   */\n      dup4\n        /* \"#utility.yul\":7309:7327   */\n      add\n        /* \"#utility.yul\":7300:7306   */\n      dup5\n        /* \"#utility.yul\":7256:7328   */\n      tag_233\n      jump\t// in\n    tag_309:\n        /* \"#utility.yul\":7003:7335   */\n      swap4\n      swap3\n      pop\n      pop\n      pop\n      jump\t// out\n        /* \"#utility.yul\":7341:7835   */\n    tag_82:\n        /* \"#utility.yul\":7516:7520   */\n      0x00\n        /* \"#utility.yul\":7554:7556   */\n      0x60\n        /* \"#utility.yul\":7543:7552   */\n      dup3\n        /* \"#utility.yul\":7539:7557   */\n      add\n        /* \"#utility.yul\":7531:7557   */\n      swap1\n      pop\n        /* \"#utility.yul\":7567:7638   */\n      tag_311\n        /* \"#utility.yul\":7635:7636   */\n      0x00\n        /* \"#utility.yul\":7624:7633   */\n      dup4\n        /* \"#utility.yul\":7620:7637   */\n      add\n        /* \"#utility.yul\":7611:7617   */\n      dup7\n        /* \"#utility.yul\":7567:7638   */\n      tag_233\n      jump\t// in\n    tag_311:\n        /* \"#utility.yul\":7648:7720   */\n      tag_312\n        /* \"#utility.yul\":7716:7718   */\n      0x20\n        /* \"#utility.yul\":7705:7714   */\n      dup4\n        /* \"#utility.yul\":7701:7719   */\n      add\n        /* \"#utility.yul\":7692:7698   */\n      dup6\n        /* \"#utility.yul\":7648:7720   */\n      tag_233\n      jump\t// in\n    tag_312:\n        /* \"#utility.yul\":7730:7828   */\n      tag_313\n        /* \"#utility.yul\":7824:7826   */\n      0x40\n        /* \"#utility.yul\":7813:7822   */\n      dup4\n        /* \"#utility.yul\":7809:7827   */\n      add\n        /* \"#utility.yul\":7800:7806   */\n      dup5\n        /* \"#utility.yul\":7730:7828   */\n      tag_272\n      jump\t// in\n    tag_313:\n        /* \"#utility.yul\":7341:7835   */\n      swap5\n      swap4\n      pop\n      pop\n      pop\n      pop\n      jump\t// out\n        /* \"#utility.yul\":7841:8283   */\n    tag_66:\n        /* \"#utility.yul\":7990:7994   */\n      0x00\n        /* \"#utility.yul\":8028:8030   */\n      0x60\n        /* \"#utility.yul\":8017:8026   */\n      dup3\n        /* \"#utility.yul\":8013:8031   */\n      add\n        /* \"#utility.yul\":8005:8031   */\n      swap1\n      pop\n        /* \"#utility.yul\":8041:8112   */\n      tag_315\n        /* \"#utility.yul\":8109:8110   */\n      0x00\n        /* \"#utility.yul\":8098:8107   */\n      dup4\n        /* \"#utility.yul\":8094:8111   */\n      add\n        /* \"#utility.yul\":8085:8091   */\n      dup7\n        /* \"#utility.yul\":8041:8112   */\n      tag_233\n      jump\t// in\n    tag_315:\n        /* \"#utility.yul\":8122:8194   */\n      tag_316\n        /* \"#utility.yul\":8190:8192   */\n      0x20\n        /* \"#utility.yul\":8179:8188   */\n      dup4\n        /* \"#utility.yul\":8175:8193   */\n      add\n        /* \"#utility.yul\":8166:8172   */\n      dup6\n        /* \"#utility.yul\":8122:8194   */\n      tag_233\n      jump\t// in\n    tag_316:\n        /* \"#utility.yul\":8204:8276   */\n      tag_317\n        /* \"#utility.yul\":8272:8274   */\n      0x40\n        /* \"#utility.yul\":8261:8270   */\n      dup4\n        /* \"#utility.yul\":8257:8275   */\n      add\n        /* \"#utility.yul\":8248:8254   */\n      dup5\n        /* \"#utility.yul\":8204:8276   */\n      tag_304\n      jump\t// in\n    tag_317:\n        /* \"#utility.yul\":7841:8283   */\n      swap5\n      swap4\n      pop\n      pop\n      pop\n      pop\n      jump\t// out\n        /* \"#utility.yul\":8289:8685   */\n    tag_138:\n        /* \"#utility.yul\":8442:8446   */\n      0x00\n        /* \"#utility.yul\":8480:8482   */\n      0x40\n        /* \"#utility.yul\":8469:8478   */\n      dup3\n        /* \"#utility.yul\":8465:8483   */\n      add\n        /* \"#utility.yul\":8457:8483   */\n      swap1\n      pop\n        /* \"#utility.yul\":8493:8564   */\n      tag_319\n        /* \"#utility.yul\":8561:8562   */\n      0x00\n        /* \"#utility.yul\":8550:8559   */\n      dup4\n        /* \"#utility.yul\":8546:8563   */\n      add\n        /* \"#utility.yul\":8537:8543   */\n      dup6\n        /* \"#utility.yul\":8493:8564   */\n      tag_233\n      jump\t// in\n    tag_319:\n        /* \"#utility.yul\":8574:8678   */\n      tag_320\n        /* \"#utility.yul\":8674:8676   */\n      0x20\n        /* \"#utility.yul\":8663:8672   */\n      dup4\n        /* \"#utility.yul\":8659:8677   */\n      add\n        /* \"#utility.yul\":8650:8656   */\n      dup5\n        /* \"#utility.yul\":8574:8678   */\n      tag_264\n      jump\t// in\n    tag_320:\n        /* \"#utility.yul\":8289:8685   */\n      swap4\n      swap3\n      pop\n      pop\n      pop\n      jump\t// out\n        /* \"#utility.yul\":8691:9325   */\n    tag_33:\n        /* \"#utility.yul\":8912:8916   */\n      0x00\n        /* \"#utility.yul\":8950:8952   */\n      0x40\n        /* \"#utility.yul\":8939:8948   */\n      dup3\n        /* \"#utility.yul\":8935:8953   */\n      add\n        /* \"#utility.yul\":8927:8953   */\n      swap1\n      pop\n        /* \"#utility.yul\":8999:9008   */\n      dup2\n        /* \"#utility.yul\":8993:8997   */\n      dup2\n        /* \"#utility.yul\":8989:9009   */\n      sub\n        /* \"#utility.yul\":8985:8986   */\n      0x00\n        /* \"#utility.yul\":8974:8983   */\n      dup4\n        /* \"#utility.yul\":8970:8987   */\n      add\n        /* \"#utility.yul\":8963:9010   */\n      mstore\n        /* \"#utility.yul\":9027:9135   */\n      tag_322\n        /* \"#utility.yul\":9130:9134   */\n      dup2\n        /* \"#utility.yul\":9121:9127   */\n      dup6\n        /* \"#utility.yul\":9027:9135   */\n      tag_236\n      jump\t// in\n    tag_322:\n        /* \"#utility.yul\":9019:9135   */\n      swap1\n      pop\n        /* \"#utility.yul\":9182:9191   */\n      dup2\n        /* \"#utility.yul\":9176:9180   */\n      dup2\n        /* \"#utility.yul\":9172:9192   */\n      sub\n        /* \"#utility.yul\":9167:9169   */\n      0x20\n        /* \"#utility.yul\":9156:9165   */\n      dup4\n        /* \"#utility.yul\":9152:9170   */\n      add\n        /* \"#utility.yul\":9145:9193   */\n      mstore\n        /* \"#utility.yul\":9210:9318   */\n      tag_323\n        /* \"#utility.yul\":9313:9317   */\n      dup2\n        /* \"#utility.yul\":9304:9310   */\n      dup5\n        /* \"#utility.yul\":9210:9318   */\n      tag_250\n      jump\t// in\n    tag_323:\n        /* \"#utility.yul\":9202:9318   */\n      swap1\n      pop\n        /* \"#utility.yul\":8691:9325   */\n      swap4\n      swap3\n      pop\n      pop\n      pop\n      jump\t// out\n        /* \"#utility.yul\":9331:9679   */\n    tag_88:\n        /* \"#utility.yul\":9460:9464   */\n      0x00\n        /* \"#utility.yul\":9498:9500   */\n      0x40\n        /* \"#utility.yul\":9487:9496   */\n      dup3\n        /* \"#utility.yul\":9483:9501   */\n      add\n        /* \"#utility.yul\":9475:9501   */\n      swap1\n      pop\n        /* \"#utility.yul\":9511:9590   */\n      tag_325\n        /* \"#utility.yul\":9587:9588   */\n      0x00\n        /* \"#utility.yul\":9576:9585   */\n      dup4\n        /* \"#utility.yul\":9572:9589   */\n      add\n        /* \"#utility.yul\":9563:9569   */\n      dup6\n        /* \"#utility.yul\":9511:9590   */\n      tag_268\n      jump\t// in\n    tag_325:\n        /* \"#utility.yul\":9600:9672   */\n      tag_326\n        /* \"#utility.yul\":9668:9670   */\n      0x20\n        /* \"#utility.yul\":9657:9666   */\n      dup4\n        /* \"#utility.yul\":9653:9671   */\n      add\n        /* \"#utility.yul\":9644:9650   */\n      dup5\n        /* \"#utility.yul\":9600:9672   */\n      tag_233\n      jump\t// in\n    tag_326:\n        /* \"#utility.yul\":9331:9679   */\n      swap4\n      swap3\n      pop\n      pop\n      pop\n      jump\t// out\n        /* \"#utility.yul\":9685:9998   */\n    tag_46:\n        /* \"#utility.yul\":9798:9802   */\n      0x00\n        /* \"#utility.yul\":9836:9838   */\n      0x20\n        /* \"#utility.yul\":9825:9834   */\n      dup3\n        /* \"#utility.yul\":9821:9839   */\n      add\n        /* \"#utility.yul\":9813:9839   */\n      swap1\n      pop\n        /* \"#utility.yul\":9885:9894   */\n      dup2\n        /* \"#utility.yul\":9879:9883   */\n      dup2\n        /* \"#utility.yul\":9875:9895   */\n      sub\n        /* \"#utility.yul\":9871:9872   */\n      0x00\n        /* \"#utility.yul\":9860:9869   */\n      dup4\n        /* \"#utility.yul\":9856:9873   */\n      add\n        /* \"#utility.yul\":9849:9896   */\n      mstore\n        /* \"#utility.yul\":9913:9991   */\n      tag_328\n        /* \"#utility.yul\":9986:9990   */\n      dup2\n        /* \"#utility.yul\":9977:9983   */\n      dup5\n        /* \"#utility.yul\":9913:9991   */\n      tag_276\n      jump\t// in\n    tag_328:\n        /* \"#utility.yul\":9905:9991   */\n      swap1\n      pop\n        /* \"#utility.yul\":9685:9998   */\n      swap3\n      swap2\n      pop\n      pop\n      jump\t// out\n        /* \"#utility.yul\":10004:10423   */\n    tag_147:\n        /* \"#utility.yul\":10170:10174   */\n      0x00\n        /* \"#utility.yul\":10208:10210   */\n      0x20\n        /* \"#utility.yul\":10197:10206   */\n      dup3\n        /* \"#utility.yul\":10193:10211   */\n      add\n        /* \"#utility.yul\":10185:10211   */\n      swap1\n      pop\n        /* \"#utility.yul\":10257:10266   */\n      dup2\n        /* \"#utility.yul\":10251:10255   */\n      dup2\n        /* \"#utility.yul\":10247:10267   */\n      sub\n        /* \"#utility.yul\":10243:10244   */\n      0x00\n        /* \"#utility.yul\":10232:10241   */\n      dup4\n        /* \"#utility.yul\":10228:10245   */\n      add\n        /* \"#utility.yul\":10221:10268   */\n      mstore\n        /* \"#utility.yul\":10285:10416   */\n      tag_330\n        /* \"#utility.yul\":10411:10415   */\n      dup2\n        /* \"#utility.yul\":10285:10416   */\n      tag_286\n      jump\t// in\n    tag_330:\n        /* \"#utility.yul\":10277:10416   */\n      swap1\n      pop\n        /* \"#utility.yul\":10004:10423   */\n      swap2\n      swap1\n      pop\n      jump\t// out\n        /* \"#utility.yul\":10429:10848   */\n    tag_159:\n        /* \"#utility.yul\":10595:10599   */\n      0x00\n        /* \"#utility.yul\":10633:10635   */\n      0x20\n        /* \"#utility.yul\":10622:10631   */\n      dup3\n        /* \"#utility.yul\":10618:10636   */\n      add\n        /* \"#utility.yul\":10610:10636   */\n      swap1\n      pop\n        /* \"#utility.yul\":10682:10691   */\n      dup2\n        /* \"#utility.yul\":10676:10680   */\n      dup2\n        /* \"#utility.yul\":10672:10692   */\n      sub\n        /* \"#utility.yul\":10668:10669   */\n      0x00\n        /* \"#utility.yul\":10657:10666   */\n      dup4\n        /* \"#utility.yul\":10653:10670   */\n      add\n        /* \"#utility.yul\":10646:10693   */\n      mstore\n        /* \"#utility.yul\":10710:10841   */\n      tag_332\n        /* \"#utility.yul\":10836:10840   */\n      dup2\n        /* \"#utility.yul\":10710:10841   */\n      tag_291\n      jump\t// in\n    tag_332:\n        /* \"#utility.yul\":10702:10841   */\n      swap1\n      pop\n        /* \"#utility.yul\":10429:10848   */\n      swap2\n      swap1\n      pop\n      jump\t// out\n        /* \"#utility.yul\":10854:11273   */\n    tag_107:\n        /* \"#utility.yul\":11020:11024   */\n      0x00\n        /* \"#utility.yul\":11058:11060   */\n      0x20\n        /* \"#utility.yul\":11047:11056   */\n      dup3\n        /* \"#utility.yul\":11043:11061   */\n      add\n        /* \"#utility.yul\":11035:11061   */\n      swap1\n      pop\n        /* \"#utility.yul\":11107:11116   */\n      dup2\n        /* \"#utility.yul\":11101:11105   */\n      dup2\n        /* \"#utility.yul\":11097:11117   */\n      sub\n        /* \"#utility.yul\":11093:11094   */\n      0x00\n        /* \"#utility.yul\":11082:11091   */\n      dup4\n        /* \"#utility.yul\":11078:11095   */\n      add\n        /* \"#utility.yul\":11071:11118   */\n      mstore\n        /* \"#utility.yul\":11135:11266   */\n      tag_334\n        /* \"#utility.yul\":11261:11265   */\n      dup2\n        /* \"#utility.yul\":11135:11266   */\n      tag_296\n      jump\t// in\n    tag_334:\n        /* \"#utility.yul\":11127:11266   */\n      swap1\n      pop\n        /* \"#utility.yul\":10854:11273   */\n      swap2\n      swap1\n      pop\n      jump\t// out\n        /* \"#utility.yul\":11279:11501   */\n    tag_38:\n        /* \"#utility.yul\":11372:11376   */\n      0x00\n        /* \"#utility.yul\":11410:11412   */\n      0x20\n        /* \"#utility.yul\":11399:11408   */\n      dup3\n        /* \"#utility.yul\":11395:11413   */\n      add\n        /* \"#utility.yul\":11387:11413   */\n      swap1\n      pop\n        /* \"#utility.yul\":11423:11494   */\n      tag_336\n        /* \"#utility.yul\":11491:11492   */\n      0x00\n        /* \"#utility.yul\":11480:11489   */\n      dup4\n        /* \"#utility.yul\":11476:11493   */\n      add\n        /* \"#utility.yul\":11467:11473   */\n      dup5\n        /* \"#utility.yul\":11423:11494   */\n      tag_304\n      jump\t// in\n    tag_336:\n        /* \"#utility.yul\":11279:11501   */\n      swap3\n      swap2\n      pop\n      pop\n      jump\t// out\n        /* \"#utility.yul\":11588:11720   */\n    tag_243:\n        /* \"#utility.yul\":11655:11659   */\n      0x00\n        /* \"#utility.yul\":11678:11681   */\n      dup2\n        /* \"#utility.yul\":11670:11681   */\n      swap1\n      pop\n        /* \"#utility.yul\":11708:11712   */\n      0x20\n        /* \"#utility.yul\":11703:11706   */\n      dup3\n        /* \"#utility.yul\":11699:11713   */\n      add\n        /* \"#utility.yul\":11691:11713   */\n      swap1\n      pop\n        /* \"#utility.yul\":11588:11720   */\n      swap2\n      swap1\n      pop\n      jump\t// out\n        /* \"#utility.yul\":11726:11858   */\n    tag_257:\n        /* \"#utility.yul\":11793:11797   */\n      0x00\n        /* \"#utility.yul\":11816:11819   */\n      dup2\n        /* \"#utility.yul\":11808:11819   */\n      swap1\n      pop\n        /* \"#utility.yul\":11846:11850   */\n      0x20\n        /* \"#utility.yul\":11841:11844   */\n      dup3\n        /* \"#utility.yul\":11837:11851   */\n      add\n        /* \"#utility.yul\":11829:11851   */\n      swap1\n      pop\n        /* \"#utility.yul\":11726:11858   */\n      swap2\n      swap1\n      pop\n      jump\t// out\n        /* \"#utility.yul\":11864:11978   */\n    tag_239:\n        /* \"#utility.yul\":11931:11937   */\n      0x00\n        /* \"#utility.yul\":11965:11970   */\n      dup2\n        /* \"#utility.yul\":11959:11971   */\n      mload\n        /* \"#utility.yul\":11949:11971   */\n      swap1\n      pop\n        /* \"#utility.yul\":11864:11978   */\n      swap2\n      swap1\n      pop\n      jump\t// out\n        /* \"#utility.yul\":11984:12098   */\n    tag_253:\n        /* \"#utility.yul\":12051:12057   */\n      0x00\n        /* \"#utility.yul\":12085:12090   */\n      dup2\n        /* \"#utility.yul\":12079:12091   */\n      mload\n        /* \"#utility.yul\":12069:12091   */\n      swap1\n      pop\n        /* \"#utility.yul\":11984:12098   */\n      swap2\n      swap1\n      pop\n      jump\t// out\n        /* \"#utility.yul\":12104:12203   */\n    tag_279:\n        /* \"#utility.yul\":12156:12162   */\n      0x00\n        /* \"#utility.yul\":12190:12195   */\n      dup2\n        /* \"#utility.yul\":12184:12196   */\n      mload\n        /* \"#utility.yul\":12174:12196   */\n      swap1\n      pop\n        /* \"#utility.yul\":12104:12203   */\n      swap2\n      swap1\n      pop\n      jump\t// out\n        /* \"#utility.yul\":12209:12322   */\n    tag_249:\n        /* \"#utility.yul\":12279:12283   */\n      0x00\n        /* \"#utility.yul\":12311:12315   */\n      0x20\n        /* \"#utility.yul\":12306:12309   */\n      dup3\n        /* \"#utility.yul\":12302:12316   */\n      add\n        /* \"#utility.yul\":12294:12316   */\n      swap1\n      pop\n        /* \"#utility.yul\":12209:12322   */\n      swap2\n      swap1\n      pop\n      jump\t// out\n        /* \"#utility.yul\":12328:12441   */\n    tag_263:\n        /* \"#utility.yul\":12398:12402   */\n      0x00\n        /* \"#utility.yul\":12430:12434   */\n      0x20\n        /* \"#utility.yul\":12425:12428   */\n      dup3\n        /* \"#utility.yul\":12421:12435   */\n      add\n        /* \"#utility.yul\":12413:12435   */\n      swap1\n      pop\n        /* \"#utility.yul\":12328:12441   */\n      swap2\n      swap1\n      pop\n      jump\t// out\n        /* \"#utility.yul\":12447:12631   */\n    tag_241:\n        /* \"#utility.yul\":12546:12557   */\n      0x00\n        /* \"#utility.yul\":12580:12586   */\n      dup3\n        /* \"#utility.yul\":12575:12578   */\n      dup3\n        /* \"#utility.yul\":12568:12587   */\n      mstore\n        /* \"#utility.yul\":12620:12624   */\n      0x20\n        /* \"#utility.yul\":12615:12618   */\n      dup3\n        /* \"#utility.yul\":12611:12625   */\n      add\n        /* \"#utility.yul\":12596:12625   */\n      swap1\n      pop\n        /* \"#utility.yul\":12447:12631   */\n      swap3\n      swap2\n      pop\n      pop\n      jump\t// out\n        /* \"#utility.yul\":12637:12821   */\n    tag_255:\n        /* \"#utility.yul\":12736:12747   */\n      0x00\n        /* \"#utility.yul\":12770:12776   */\n      dup3\n        /* \"#utility.yul\":12765:12768   */\n      dup3\n        /* \"#utility.yul\":12758:12777   */\n      mstore\n        /* \"#utility.yul\":12810:12814   */\n      0x20\n        /* \"#utility.yul\":12805:12808   */\n      dup3\n        /* \"#utility.yul\":12801:12815   */\n      add\n        /* \"#utility.yul\":12786:12815   */\n      swap1\n      pop\n        /* \"#utility.yul\":12637:12821   */\n      swap3\n      swap2\n      pop\n      pop\n      jump\t// out\n        /* \"#utility.yul\":12827:12996   */\n    tag_281:\n        /* \"#utility.yul\":12911:12922   */\n      0x00\n        /* \"#utility.yul\":12945:12951   */\n      dup3\n        /* \"#utility.yul\":12940:12943   */\n      dup3\n        /* \"#utility.yul\":12933:12952   */\n      mstore\n        /* \"#utility.yul\":12985:12989   */\n      0x20\n        /* \"#utility.yul\":12980:12983   */\n      dup3\n        /* \"#utility.yul\":12976:12990   */\n      add\n        /* \"#utility.yul\":12961:12990   */\n      swap1\n      pop\n        /* \"#utility.yul\":12827:12996   */\n      swap3\n      swap2\n      pop\n      pop\n      jump\t// out\n        /* \"#utility.yul\":13002:13307   */\n    tag_156:\n        /* \"#utility.yul\":13042:13045   */\n      0x00\n        /* \"#utility.yul\":13061:13081   */\n      tag_350\n        /* \"#utility.yul\":13079:13080   */\n      dup3\n        /* \"#utility.yul\":13061:13081   */\n      tag_303\n      jump\t// in\n    tag_350:\n        /* \"#utility.yul\":13056:13081   */\n      swap2\n      pop\n        /* \"#utility.yul\":13095:13115   */\n      tag_351\n        /* \"#utility.yul\":13113:13114   */\n      dup4\n        /* \"#utility.yul\":13095:13115   */\n      tag_303\n      jump\t// in\n    tag_351:\n        /* \"#utility.yul\":13090:13115   */\n      swap3\n      pop\n        /* \"#utility.yul\":13249:13250   */\n      dup3\n        /* \"#utility.yul\":13181:13247   */\n      0xffffffffffffffffffffffffffffffffffffffffffffffffffffffffffffffff\n        /* \"#utility.yul\":13177:13251   */\n      sub\n        /* \"#utility.yul\":13174:13175   */\n      dup3\n        /* \"#utility.yul\":13171:13252   */\n      gt\n        /* \"#utility.yul\":13168:13275   */\n      iszero\n      tag_352\n      jumpi\n        /* \"#utility.yul\":13255:13273   */\n      tag_353\n      tag_354\n      jump\t// in\n    tag_353:\n        /* \"#utility.yul\":13168:13275   */\n    tag_352:\n        /* \"#utility.yul\":13299:13300   */\n      dup3\n        /* \"#utility.yul\":13296:13297   */\n      dup3\n        /* \"#utility.yul\":13292:13301   */\n      add\n        /* \"#utility.yul\":13285:13301   */\n      swap1\n      pop\n        /* \"#utility.yul\":13002:13307   */\n      swap3\n      swap2\n      pop\n      pop\n      jump\t// out\n        /* \"#utility.yul\":13313:13661   */\n    tag_110:\n        /* \"#utility.yul\":13353:13360   */\n      0x00\n        /* \"#utility.yul\":13376:13396   */\n      tag_356\n        /* \"#utility.yul\":13394:13395   */\n      dup3\n        /* \"#utility.yul\":13376:13396   */\n      tag_303\n      jump\t// in\n    tag_356:\n        /* \"#utility.yul\":13371:13396   */\n      swap2\n      pop\n        /* \"#utility.yul\":13410:13430   */\n      tag_357\n        /* \"#utility.yul\":13428:13429   */\n      dup4\n        /* \"#utility.yul\":13410:13430   */\n      tag_303\n      jump\t// in\n    tag_357:\n        /* \"#utility.yul\":13405:13430   */\n      swap3\n      pop\n        /* \"#utility.yul\":13598:13599   */\n      dup2\n        /* \"#utility.yul\":13530:13596   */\n      0xffffffffffffffffffffffffffffffffffffffffffffffffffffffffffffffff\n        /* \"#utility.yul\":13526:13600   */\n      div\n        /* \"#utility.yul\":13523:13524   */\n      dup4\n        /* \"#utility.yul\":13520:13601   */\n      gt\n        /* \"#utility.yul\":13515:13516   */\n      dup3\n        /* \"#utility.yul\":13508:13517   */\n      iszero\n        /* \"#utility.yul\":13501:13518   */\n      iszero\n        /* \"#utility.yul\":13497:13602   */\n      and\n        /* \"#utility.yul\":13494:13625   */\n      iszero\n      tag_358\n      jumpi\n        /* \"#utility.yul\":13605:13623   */\n      tag_359\n      tag_354\n      jump\t// in\n    tag_359:\n        /* \"#utility.yul\":13494:13625   */\n    tag_358:\n        /* \"#utility.yul\":13653:13654   */\n      dup3\n        /* \"#utility.yul\":13650:13651   */\n      dup3\n        /* \"#utility.yul\":13646:13655   */\n      mul\n        /* \"#utility.yul\":13635:13655   */\n      swap1\n      pop\n        /* \"#utility.yul\":13313:13661   */\n      swap3\n      swap2\n      pop\n      pop\n      jump\t// out\n        /* \"#utility.yul\":13667:13763   */\n    tag_232:\n        /* \"#utility.yul\":13704:13711   */\n      0x00\n        /* \"#utility.yul\":13733:13757   */\n      tag_361\n        /* \"#utility.yul\":13751:13756   */\n      dup3\n        /* \"#utility.yul\":13733:13757   */\n      tag_362\n      jump\t// in\n    tag_361:\n        /* \"#utility.yul\":13722:13757   */\n      swap1\n      pop\n        /* \"#utility.yul\":13667:13763   */\n      swap2\n      swap1\n      pop\n      jump\t// out\n        /* \"#utility.yul\":13769:13859   */\n    tag_363:\n        /* \"#utility.yul\":13803:13810   */\n      0x00\n        /* \"#utility.yul\":13846:13851   */\n      dup2\n        /* \"#utility.yul\":13839:13852   */\n      iszero\n        /* \"#utility.yul\":13832:13853   */\n      iszero\n        /* \"#utility.yul\":13821:13853   */\n      swap1\n      pop\n        /* \"#utility.yul\":13769:13859   */\n      swap2\n      swap1\n      pop\n      jump\t// out\n        /* \"#utility.yul\":13865:13941   */\n    tag_365:\n        /* \"#utility.yul\":13901:13908   */\n      0x00\n        /* \"#utility.yul\":13930:13935   */\n      dup2\n        /* \"#utility.yul\":13919:13935   */\n      swap1\n      pop\n        /* \"#utility.yul\":13865:13941   */\n      swap2\n      swap1\n      pop\n      jump\t// out\n        /* \"#utility.yul\":13947:14073   */\n    tag_362:\n        /* \"#utility.yul\":13984:13991   */\n      0x00\n        /* \"#utility.yul\":14024:14066   */\n      0xffffffffffffffffffffffffffffffffffffffff\n        /* \"#utility.yul\":14017:14022   */\n      dup3\n        /* \"#utility.yul\":14013:14067   */\n      and\n        /* \"#utility.yul\":14002:14067   */\n      swap1\n      pop\n        /* \"#utility.yul\":13947:14073   */\n      swap2\n      swap1\n      pop\n      jump\t// out\n        /* \"#utility.yul\":14079:14156   */\n    tag_303:\n        /* \"#utility.yul\":14116:14123   */\n      0x00\n        /* \"#utility.yul\":14145:14150   */\n      dup2\n        /* \"#utility.yul\":14134:14150   */\n      swap1\n      pop\n        /* \"#utility.yul\":14079:14156   */\n      swap2\n      swap1\n      pop\n      jump\t// out\n        /* \"#utility.yul\":14162:14307   */\n    tag_267:\n        /* \"#utility.yul\":14244:14253   */\n      0x00\n        /* \"#utility.yul\":14277:14301   */\n      tag_370\n        /* \"#utility.yul\":14295:14300   */\n      dup3\n        /* \"#utility.yul\":14277:14301   */\n      tag_303\n      jump\t// in\n    tag_370:\n        /* \"#utility.yul\":14264:14301   */\n      swap1\n      pop\n        /* \"#utility.yul\":14162:14307   */\n      swap2\n      swap1\n      pop\n      jump\t// out\n        /* \"#utility.yul\":14313:14434   */\n    tag_271:\n        /* \"#utility.yul\":14371:14380   */\n      0x00\n        /* \"#utility.yul\":14404:14428   */\n      tag_372\n        /* \"#utility.yul\":14422:14427   */\n      dup3\n        /* \"#utility.yul\":14404:14428   */\n      tag_303\n      jump\t// in\n    tag_372:\n        /* \"#utility.yul\":14391:14428   */\n      swap1\n      pop\n        /* \"#utility.yul\":14313:14434   */\n      swap2\n      swap1\n      pop\n      jump\t// out\n        /* \"#utility.yul\":14440:14579   */\n    tag_275:\n        /* \"#utility.yul\":14516:14525   */\n      0x00\n        /* \"#utility.yul\":14549:14573   */\n      tag_374\n        /* \"#utility.yul\":14567:14572   */\n      dup3\n        /* \"#utility.yul\":14549:14573   */\n      tag_303\n      jump\t// in\n    tag_374:\n        /* \"#utility.yul\":14536:14573   */\n      swap1\n      pop\n        /* \"#utility.yul\":14440:14579   */\n      swap2\n      swap1\n      pop\n      jump\t// out\n        /* \"#utility.yul\":14585:14892   */\n    tag_283:\n        /* \"#utility.yul\":14653:14654   */\n      0x00\n        /* \"#utility.yul\":14663:14776   */\n    tag_376:\n        /* \"#utility.yul\":14677:14683   */\n      dup4\n        /* \"#utility.yul\":14674:14675   */\n      dup2\n        /* \"#utility.yul\":14671:14684   */\n      lt\n        /* \"#utility.yul\":14663:14776   */\n      iszero\n      tag_378\n      jumpi\n        /* \"#utility.yul\":14762:14763   */\n      dup1\n        /* \"#utility.yul\":14757:14760   */\n      dup3\n        /* \"#utility.yul\":14753:14764   */\n      add\n        /* \"#utility.yul\":14747:14765   */\n      mload\n        /* \"#utility.yul\":14743:14744   */\n      dup2\n        /* \"#utility.yul\":14738:14741   */\n      dup5\n        /* \"#utility.yul\":14734:14745   */\n      add\n        /* \"#utility.yul\":14727:14766   */\n      mstore\n        /* \"#utility.yul\":14699:14701   */\n      0x20\n        /* \"#utility.yul\":14696:14697   */\n      dup2\n        /* \"#utility.yul\":14692:14702   */\n      add\n        /* \"#utility.yul\":14687:14702   */\n      swap1\n      pop\n        /* \"#utility.yul\":14663:14776   */\n      jump(tag_376)\n    tag_378:\n        /* \"#utility.yul\":14794:14800   */\n      dup4\n        /* \"#utility.yul\":14791:14792   */\n      dup2\n        /* \"#utility.yul\":14788:14801   */\n      gt\n        /* \"#utility.yul\":14785:14886   */\n      iszero\n      tag_379\n      jumpi\n        /* \"#utility.yul\":14874:14875   */\n      0x00\n        /* \"#utility.yul\":14865:14871   */\n      dup5\n        /* \"#utility.yul\":14860:14863   */\n      dup5\n        /* \"#utility.yul\":14856:14872   */\n      add\n        /* \"#utility.yul\":14849:14876   */\n      mstore\n        /* \"#utility.yul\":14785:14886   */\n    tag_379:\n        /* \"#utility.yul\":14634:14892   */\n      pop\n        /* \"#utility.yul\":14585:14892   */\n      pop\n      pop\n      pop\n      jump\t// out\n        /* \"#utility.yul\":14898:15129   */\n    tag_165:\n        /* \"#utility.yul\":14936:14939   */\n      0x00\n        /* \"#utility.yul\":14959:14982   */\n      tag_381\n        /* \"#utility.yul\":14976:14981   */\n      dup3\n        /* \"#utility.yul\":14959:14982   */\n      tag_365\n      jump\t// in\n    tag_381:\n        /* \"#utility.yul\":14950:14982   */\n      swap2\n      pop\n        /* \"#utility.yul\":15004:15070   */\n      0x7fffffffffffffffffffffffffffffffffffffffffffffffffffffffffffffff\n        /* \"#utility.yul\":14997:15002   */\n      dup3\n        /* \"#utility.yul\":14994:15071   */\n      eq\n        /* \"#utility.yul\":14991:15094   */\n      iszero\n      tag_382\n      jumpi\n        /* \"#utility.yul\":15074:15092   */\n      tag_383\n      tag_354\n      jump\t// in\n    tag_383:\n        /* \"#utility.yul\":14991:15094   */\n    tag_382:\n        /* \"#utility.yul\":15121:15122   */\n      0x01\n        /* \"#utility.yul\":15114:15119   */\n      dup3\n        /* \"#utility.yul\":15110:15123   */\n      add\n        /* \"#utility.yul\":15103:15123   */\n      swap1\n      pop\n        /* \"#utility.yul\":14898:15129   */\n      swap2\n      swap1\n      pop\n      jump\t// out\n        /* \"#utility.yul\":15135:15368   */\n    tag_104:\n        /* \"#utility.yul\":15174:15177   */\n      0x00\n        /* \"#utility.yul\":15197:15221   */\n      tag_385\n        /* \"#utility.yul\":15215:15220   */\n      dup3\n        /* \"#utility.yul\":15197:15221   */\n      tag_303\n      jump\t// in\n    tag_385:\n        /* \"#utility.yul\":15188:15221   */\n      swap2\n      pop\n        /* \"#utility.yul\":15243:15309   */\n      0xffffffffffffffffffffffffffffffffffffffffffffffffffffffffffffffff\n        /* \"#utility.yul\":15236:15241   */\n      dup3\n        /* \"#utility.yul\":15233:15310   */\n      eq\n        /* \"#utility.yul\":15230:15333   */\n      iszero\n      tag_386\n      jumpi\n        /* \"#utility.yul\":15313:15331   */\n      tag_387\n      tag_354\n      jump\t// in\n    tag_387:\n        /* \"#utility.yul\":15230:15333   */\n    tag_386:\n        /* \"#utility.yul\":15360:15361   */\n      0x01\n        /* \"#utility.yul\":15353:15358   */\n      dup3\n        /* \"#utility.yul\":15349:15362   */\n      add\n        /* \"#utility.yul\":15342:15362   */\n      swap1\n      pop\n        /* \"#utility.yul\":15135:15368   */\n      swap2\n      swap1\n      pop\n      jump\t// out\n        /* \"#utility.yul\":15374:15554   */\n    tag_354:\n        /* \"#utility.yul\":15422:15499   */\n      0x4e487b7100000000000000000000000000000000000000000000000000000000\n        /* \"#utility.yul\":15419:15420   */\n      0x00\n        /* \"#utility.yul\":15412:15500   */\n      mstore\n        /* \"#utility.yul\":15519:15523   */\n      0x11\n        /* \"#utility.yul\":15516:15517   */\n      0x04\n        /* \"#utility.yul\":15509:15524   */\n      mstore\n        /* \"#utility.yul\":15543:15547   */\n      0x24\n        /* \"#utility.yul\":15540:15541   */\n      0x00\n        /* \"#utility.yul\":15533:15548   */\n      revert\n        /* \"#utility.yul\":15560:15740   */\n    tag_100:\n        /* \"#utility.yul\":15608:15685   */\n      0x4e487b7100000000000000000000000000000000000000000000000000000000\n        /* \"#utility.yul\":15605:15606   */\n      0x00\n        /* \"#utility.yul\":15598:15686   */\n      mstore\n        /* \"#utility.yul\":15705:15709   */\n      0x32\n        /* \"#utility.yul\":15702:15703   */\n      0x04\n        /* \"#utility.yul\":15695:15710   */\n      mstore\n        /* \"#utility.yul\":15729:15733   */\n      0x24\n        /* \"#utility.yul\":15726:15727   */\n      0x00\n        /* \"#utility.yul\":15719:15734   */\n      revert\n        /* \"#utility.yul\":15746:15926   */\n    tag_116:\n        /* \"#utility.yul\":15794:15871   */\n      0x4e487b7100000000000000000000000000000000000000000000000000000000\n        /* \"#utility.yul\":15791:15792   */\n      0x00\n        /* \"#utility.yul\":15784:15872   */\n      mstore\n        /* \"#utility.yul\":15891:15895   */\n      0x41\n        /* \"#utility.yul\":15888:15889   */\n      0x04\n        /* \"#utility.yul\":15881:15896   */\n      mstore\n        /* \"#utility.yul\":15915:15919   */\n      0x24\n        /* \"#utility.yul\":15912:15913   */\n      0x00\n        /* \"#utility.yul\":15905:15920   */\n      revert\n        /* \"#utility.yul\":16055:16172   */\n    tag_202:\n        /* \"#utility.yul\":16164:16165   */\n      0x00\n        /* \"#utility.yul\":16161:16162   */\n      dup1\n        /* \"#utility.yul\":16154:16166   */\n      revert\n        /* \"#utility.yul\":16178:16280   */\n    tag_285:\n        /* \"#utility.yul\":16219:16225   */\n      0x00\n        /* \"#utility.yul\":16270:16272   */\n      0x1f\n        /* \"#utility.yul\":16266:16273   */\n      not\n        /* \"#utility.yul\":16261:16263   */\n      0x1f\n        /* \"#utility.yul\":16254:16259   */\n      dup4\n        /* \"#utility.yul\":16250:16264   */\n      add\n        /* \"#utility.yul\":16246:16274   */\n      and\n        /* \"#utility.yul\":16236:16274   */\n      swap1\n      pop\n        /* \"#utility.yul\":16178:16280   */\n      swap2\n      swap1\n      pop\n      jump\t// out\n        /* \"#utility.yul\":16286:16458   */\n    tag_290:\n        /* \"#utility.yul\":16426:16450   */\n      0x4f6e6c79206d616e616765722063616e2063616c6c2100000000000000000000\n        /* \"#utility.yul\":16422:16423   */\n      0x00\n        /* \"#utility.yul\":16414:16420   */\n      dup3\n        /* \"#utility.yul\":16410:16424   */\n      add\n        /* \"#utility.yul\":16403:16451   */\n      mstore\n        /* \"#utility.yul\":16286:16458   */\n      pop\n      jump\t// out\n        /* \"#utility.yul\":16464:16687   */\n    tag_295:\n        /* \"#utility.yul\":16604:16638   */\n      0x49742773206a757374206265656e206c657373207468616e203130207365636f\n        /* \"#utility.yul\":16600:16601   */\n      0x00\n        /* \"#utility.yul\":16592:16598   */\n      dup3\n        /* \"#utility.yul\":16588:16602   */\n      add\n        /* \"#utility.yul\":16581:16639   */\n      mstore\n        /* \"#utility.yul\":16673:16679   */\n      0x6e64732100000000000000000000000000000000000000000000000000000000\n        /* \"#utility.yul\":16668:16670   */\n      0x20\n        /* \"#utility.yul\":16660:16666   */\n      dup3\n        /* \"#utility.yul\":16656:16671   */\n      add\n        /* \"#utility.yul\":16649:16680   */\n      mstore\n        /* \"#utility.yul\":16464:16687   */\n      pop\n      jump\t// out\n        /* \"#utility.yul\":16693:16865   */\n    tag_300:\n        /* \"#utility.yul\":16833:16857   */\n      0x4f6e6c7920636c69656e74732063616e2063616c6c2100000000000000000000\n        /* \"#utility.yul\":16829:16830   */\n      0x00\n        /* \"#utility.yul\":16821:16827   */\n      dup3\n        /* \"#utility.yul\":16817:16831   */\n      add\n        /* \"#utility.yul\":16810:16858   */\n      mstore\n        /* \"#utility.yul\":16693:16865   */\n      pop\n      jump\t// out\n        /* \"#utility.yul\":16871:16993   */\n    tag_187:\n        /* \"#utility.yul\":16944:16968   */\n      tag_399\n        /* \"#utility.yul\":16962:16967   */\n      dup2\n        /* \"#utility.yul\":16944:16968   */\n      tag_232\n      jump\t// in\n    tag_399:\n        /* \"#utility.yul\":16937:16942   */\n      dup2\n        /* \"#utility.yul\":16934:16969   */\n      eq\n        /* \"#utility.yul\":16924:16987   */\n      tag_400\n      jumpi\n        /* \"#utility.yul\":16983:16984   */\n      0x00\n        /* \"#utility.yul\":16980:16981   */\n      dup1\n        /* \"#utility.yul\":16973:16985   */\n      revert\n        /* \"#utility.yul\":16924:16987   */\n    tag_400:\n        /* \"#utility.yul\":16871:16993   */\n      pop\n      jump\t// out\n        /* \"#utility.yul\":16999:17115   */\n    tag_191:\n        /* \"#utility.yul\":17069:17090   */\n      tag_402\n        /* \"#utility.yul\":17084:17089   */\n      dup2\n        /* \"#utility.yul\":17069:17090   */\n      tag_363\n      jump\t// in\n    tag_402:\n        /* \"#utility.yul\":17062:17067   */\n      dup2\n        /* \"#utility.yul\":17059:17091   */\n      eq\n        /* \"#utility.yul\":17049:17109   */\n      tag_403\n      jumpi\n        /* \"#utility.yul\":17105:17106   */\n      0x00\n        /* \"#utility.yul\":17102:17103   */\n      dup1\n        /* \"#utility.yul\":17095:17107   */\n      revert\n        /* \"#utility.yul\":17049:17109   */\n    tag_403:\n        /* \"#utility.yul\":16999:17115   */\n      pop\n      jump\t// out\n        /* \"#utility.yul\":17121:17243   */\n    tag_195:\n        /* \"#utility.yul\":17194:17218   */\n      tag_405\n        /* \"#utility.yul\":17212:17217   */\n      dup2\n        /* \"#utility.yul\":17194:17218   */\n      tag_303\n      jump\t// in\n    tag_405:\n        /* \"#utility.yul\":17187:17192   */\n      dup2\n        /* \"#utility.yul\":17184:17219   */\n      eq\n        /* \"#utility.yul\":17174:17237   */\n      tag_406\n      jumpi\n        /* \"#utility.yul\":17233:17234   */\n      0x00\n        /* \"#utility.yul\":17230:17231   */\n      dup1\n        /* \"#utility.yul\":17223:17235   */\n      revert\n        /* \"#utility.yul\":17174:17237   */\n    tag_406:\n        /* \"#utility.yul\":17121:17243   */\n      pop\n      jump\t// out\n\n    auxdata: 0xa2646970667358221220cbb05a20af0200b0cc72017788466d4973c20952f14926d2053c62792b8e663964736f6c63430008070033\n}\n",
				"bytecode": {
					"linkReferences": {},
					"object": "608060405234801561001057600080fd5b5060006001819055506116fb806100286000396000f3fe6080604052600436106100ab5760003560e01c80639e0a5d68116100645780639e0a5d6814610167578063a409217414610171578063d0e30db01461018f578063d0ebdbe714610199578063d9dca6c5146101d6578063fef7547014610213576100b2565b80632855bd92146100b75780632bbc7cac146100e05780632e1a7d4d146100ea5780636db80995146101065780636f9fb98a1461013257806399b71d5c1461015d576100b2565b366100b257005b600080fd5b3480156100c357600080fd5b506100de60048036038101906100d99190610e23565b61023e565b005b6100e86102ed565b005b61010460048036038101906100ff9190610ea3565b6104d0565b005b34801561011257600080fd5b5061011b610614565b6040516101299291906111b4565b60405180910390f35b34801561013e57600080fd5b506101476107c1565b6040516101549190611296565b60405180910390f35b6101656107c9565b005b61016f610885565b005b610179610aac565b6040516101869190611214565b60405180910390f35b610197610bed565b005b3480156101a557600080fd5b506101c060048036038101906101bb9190610df6565b610d1e565b6040516101cd9190611214565b60405180910390f35b3480156101e257600080fd5b506101fd60048036038101906101f89190610df6565b610d78565b60405161020a9190611296565b60405180910390f35b34801561021f57600080fd5b50610228610d90565b6040516102359190611296565b60405180910390f35b600073d0bc7118d59fefbbc05784cb2e543f8d1955435e90508073ffffffffffffffffffffffffffffffffffffffff166323b872dd8585856040518463ffffffff1660e01b815260040161029493929190611154565b602060405180830381600087803b1580156102ae57600080fd5b505af11580156102c2573d6000803e3d6000fd5b505050506040513d601f19601f820116820180604052508101906102e69190610e76565b5050505050565b600073213a28d18ea24de4725a1eb927f05ce9beb4da139050600073d0bc7118d59fefbbc05784cb2e543f8d1955435e905060008173ffffffffffffffffffffffffffffffffffffffff1663dd62ed3e33306040518363ffffffff1660e01b815260040161035c9291906110f4565b60206040518083038186803b15801561037457600080fd5b505afa158015610388573d6000803e3d6000fd5b505050506040513d601f19601f820116820180604052508101906103ac9190610ed0565b905060008111156104c2578173ffffffffffffffffffffffffffffffffffffffff166323b872dd3330674563918244f400006040518463ffffffff1660e01b81526004016103fc9392919061111d565b602060405180830381600087803b15801561041657600080fd5b505af115801561042a573d6000803e3d6000fd5b505050506040513d601f19601f8201168201806040525081019061044e9190610e76565b508273ffffffffffffffffffffffffffffffffffffffff166394bf804d6001336040518363ffffffff1660e01b815260040161048b9291906111eb565b600060405180830381600087803b1580156104a557600080fd5b505af11580156104b9573d6000803e3d6000fd5b505050506104cb565b6104ca6107c9565b5b505050565b6000805b600080549050811015610576573373ffffffffffffffffffffffffffffffffffffffff166000828154811061050c5761050b61156b565b5b906000526020600020906003020160010160009054906101000a900473ffffffffffffffffffffffffffffffffffffffff1673ffffffffffffffffffffffffffffffffffffffff1614156105635760019150610576565b808061056e906114f3565b9150506104d4565b50806105b7576040517f08c379a00000000000000000000000000000000000000000000000000000000081526004016105ae90611276565b60405180910390fd5b60003390508073ffffffffffffffffffffffffffffffffffffffff166108fc6001856105e39190611395565b9081150290604051600060405180830381858888f1935050505015801561060e573d6000803e3d6000fd5b50505050565b6060806000808054905067ffffffffffffffff8111156106375761063661159a565b5b6040519080825280602002602001820160405280156106655781602001602082028036833780820191505090505b5090506000808054905067ffffffffffffffff8111156106885761068761159a565b5b6040519080825280602002602001820160405280156106b65781602001602082028036833780820191505090505b50905060005b6000805490508110156107b457600081815481106106dd576106dc61156b565b5b906000526020600020906003020160010160009054906101000a900473ffffffffffffffffffffffffffffffffffffffff168382815181106107225761072161156b565b5b602002602001019073ffffffffffffffffffffffffffffffffffffffff16908173ffffffffffffffffffffffffffffffffffffffff1681525050600081815481106107705761076f61156b565b5b9060005260206000209060030201600201548282815181106107955761079461156b565b5b60200260200101818152505080806107ac906114f3565b9150506106bc565b5081819350935050509091565b600047905090565b600073d0bc7118d59fefbbc05784cb2e543f8d1955435e90508073ffffffffffffffffffffffffffffffffffffffff1663095ea7b33069d3c21bcecceda10000006040518363ffffffff1660e01b815260040161082792919061118b565b602060405180830381600087803b15801561084157600080fd5b505af1158015610855573d6000803e3d6000fd5b505050506040513d601f19601f820116820180604052508101906108799190610e76565b506108826102ed565b50565b600260009054906101000a900473ffffffffffffffffffffffffffffffffffffffff1673ffffffffffffffffffffffffffffffffffffffff163373ffffffffffffffffffffffffffffffffffffffff1614610915576040517f08c379a000000000000000000000000000000000000000000000000000000000815260040161090c90611236565b60405180910390fd5b60005b600080549050811015610aa957600080828154811061093a5761093961156b565b5b906000526020600020906003020160010160009054906101000a900473ffffffffffffffffffffffffffffffffffffffff1690506000600360008373ffffffffffffffffffffffffffffffffffffffff1673ffffffffffffffffffffffffffffffffffffffff168152602001908152602001600020549050600a816109bf919061133f565b421015610a01576040517f08c379a00000000000000000000000000000000000000000000000000000000081526004016109f890611256565b60405180910390fd5b8173ffffffffffffffffffffffffffffffffffffffff166108fc670de0b6b3a76400009081150290604051600060405180830381858888f19350505050158015610a4f573d6000803e3d6000fd5b5042600360008473ffffffffffffffffffffffffffffffffffffffff1673ffffffffffffffffffffffffffffffffffffffff1681526020019081526020016000208190555050508080610aa1906114f3565b915050610918565b50565b606042600360003373ffffffffffffffffffffffffffffffffffffffff1673ffffffffffffffffffffffffffffffffffffffff168152602001908152602001600020819055506000604051806060016040528060016000815480929190610b12906114aa565b9190505581526020013373ffffffffffffffffffffffffffffffffffffffff1681526020013373ffffffffffffffffffffffffffffffffffffffff163181525090806001815401808255809150506001900390600052602060002090600302016000909190919091506000820151816000015560208201518160010160006101000a81548173ffffffffffffffffffffffffffffffffffffffff021916908373ffffffffffffffffffffffffffffffffffffffff16021790555060408201518160020155505060405180602001604052806000815250905090565b6000805b600080549050811015610c93573373ffffffffffffffffffffffffffffffffffffffff1660008281548110610c2957610c2861156b565b5b906000526020600020906003020160010160009054906101000a900473ffffffffffffffffffffffffffffffffffffffff1673ffffffffffffffffffffffffffffffffffffffff161415610c805760019150610c93565b8080610c8b906114f3565b915050610bf1565b5080610cd4576040517f08c379a0000000000000000000000000000000000000000000000000000000008152600401610ccb90611276565b60405180910390fd5b3073ffffffffffffffffffffffffffffffffffffffff166108fc349081150290604051600060405180830381858888f19350505050158015610d1a573d6000803e3d6000fd5b5050565b606081600260006101000a81548173ffffffffffffffffffffffffffffffffffffffff021916908373ffffffffffffffffffffffffffffffffffffffff160217905550604051806020016040528060008152509050919050565b60036020528060005260406000206000915090505481565b60008060008054905090508091505090565b600081359050610db181611680565b92915050565b600081519050610dc681611697565b92915050565b600081359050610ddb816116ae565b92915050565b600081519050610df0816116ae565b92915050565b600060208284031215610e0c57610e0b6115c9565b5b6000610e1a84828501610da2565b91505092915050565b600080600060608486031215610e3c57610e3b6115c9565b5b6000610e4a86828701610da2565b9350506020610e5b86828701610da2565b9250506040610e6c86828701610dcc565b9150509250925092565b600060208284031215610e8c57610e8b6115c9565b5b6000610e9a84828501610db7565b91505092915050565b600060208284031215610eb957610eb86115c9565b5b6000610ec784828501610dcc565b91505092915050565b600060208284031215610ee657610ee56115c9565b5b6000610ef484828501610de1565b91505092915050565b6000610f098383610f2d565b60208301905092915050565b6000610f2183836110d6565b60208301905092915050565b610f36816113ef565b82525050565b610f45816113ef565b82525050565b6000610f56826112d1565b610f60818561130c565b9350610f6b836112b1565b8060005b83811015610f9c578151610f838882610efd565b9750610f8e836112f2565b925050600181019050610f6f565b5085935050505092915050565b6000610fb4826112dc565b610fbe818561131d565b9350610fc9836112c1565b8060005b83811015610ffa578151610fe18882610f15565b9750610fec836112ff565b925050600181019050610fcd565b5085935050505092915050565b61101081611441565b82525050565b61101f81611453565b82525050565b61102e81611465565b82525050565b600061103f826112e7565b611049818561132e565b9350611059818560208601611477565b611062816115ce565b840191505092915050565b600061107a60168361132e565b9150611085826115df565b602082019050919050565b600061109d60248361132e565b91506110a882611608565b604082019050919050565b60006110c060168361132e565b91506110cb82611657565b602082019050919050565b6110df81611437565b82525050565b6110ee81611437565b82525050565b60006040820190506111096000830185610f3c565b6111166020830184610f3c565b9392505050565b60006060820190506111326000830186610f3c565b61113f6020830185610f3c565b61114c6040830184611025565b949350505050565b60006060820190506111696000830186610f3c565b6111766020830185610f3c565b61118360408301846110e5565b949350505050565b60006040820190506111a06000830185610f3c565b6111ad6020830184611007565b9392505050565b600060408201905081810360008301526111ce8185610f4b565b905081810360208301526111e28184610fa9565b90509392505050565b60006040820190506112006000830185611016565b61120d6020830184610f3c565b9392505050565b6000602082019050818103600083015261122e8184611034565b905092915050565b6000602082019050818103600083015261124f8161106d565b9050919050565b6000602082019050818103600083015261126f81611090565b9050919050565b6000602082019050818103600083015261128f816110b3565b9050919050565b60006020820190506112ab60008301846110e5565b92915050565b6000819050602082019050919050565b6000819050602082019050919050565b600081519050919050565b600081519050919050565b600081519050919050565b6000602082019050919050565b6000602082019050919050565b600082825260208201905092915050565b600082825260208201905092915050565b600082825260208201905092915050565b600061134a82611437565b915061135583611437565b9250827fffffffffffffffffffffffffffffffffffffffffffffffffffffffffffffffff0382111561138a5761138961153c565b5b828201905092915050565b60006113a082611437565b91506113ab83611437565b9250817fffffffffffffffffffffffffffffffffffffffffffffffffffffffffffffffff04831182151516156113e4576113e361153c565b5b828202905092915050565b60006113fa82611417565b9050919050565b60008115159050919050565b6000819050919050565b600073ffffffffffffffffffffffffffffffffffffffff82169050919050565b6000819050919050565b600061144c82611437565b9050919050565b600061145e82611437565b9050919050565b600061147082611437565b9050919050565b60005b8381101561149557808201518184015260208101905061147a565b838111156114a4576000848401525b50505050565b60006114b58261140d565b91507f7fffffffffffffffffffffffffffffffffffffffffffffffffffffffffffffff8214156114e8576114e761153c565b5b600182019050919050565b60006114fe82611437565b91507fffffffffffffffffffffffffffffffffffffffffffffffffffffffffffffffff8214156115315761153061153c565b5b600182019050919050565b7f4e487b7100000000000000000000000000000000000000000000000000000000600052601160045260246000fd5b7f4e487b7100000000000000000000000000000000000000000000000000000000600052603260045260246000fd5b7f4e487b7100000000000000000000000000000000000000000000000000000000600052604160045260246000fd5b600080fd5b6000601f19601f8301169050919050565b7f4f6e6c79206d616e616765722063616e2063616c6c2100000000000000000000600082015250565b7f49742773206a757374206265656e206c657373207468616e203130207365636f60008201527f6e64732100000000000000000000000000000000000000000000000000000000602082015250565b7f4f6e6c7920636c69656e74732063616e2063616c6c2100000000000000000000600082015250565b611689816113ef565b811461169457600080fd5b50565b6116a081611401565b81146116ab57600080fd5b50565b6116b781611437565b81146116c257600080fd5b5056fea2646970667358221220cbb05a20af0200b0cc72017788466d4973c20952f14926d2053c62792b8e663964736f6c63430008070033",
					"opcodes": "PUSH1 0x80 PUSH1 0x40 MSTORE CALLVALUE DUP1 ISZERO PUSH2 0x10 JUMPI PUSH1 0x0 DUP1 REVERT JUMPDEST POP PUSH1 0x0 PUSH1 0x1 DUP2 SWAP1 SSTORE POP PUSH2 0x16FB DUP1 PUSH2 0x28 PUSH1 0x0 CODECOPY PUSH1 0x0 RETURN INVALID PUSH1 0x80 PUSH1 0x40 MSTORE PUSH1 0x4 CALLDATASIZE LT PUSH2 0xAB JUMPI PUSH1 0x0 CALLDATALOAD PUSH1 0xE0 SHR DUP1 PUSH4 0x9E0A5D68 GT PUSH2 0x64 JUMPI DUP1 PUSH4 0x9E0A5D68 EQ PUSH2 0x167 JUMPI DUP1 PUSH4 0xA4092174 EQ PUSH2 0x171 JUMPI DUP1 PUSH4 0xD0E30DB0 EQ PUSH2 0x18F JUMPI DUP1 PUSH4 0xD0EBDBE7 EQ PUSH2 0x199 JUMPI DUP1 PUSH4 0xD9DCA6C5 EQ PUSH2 0x1D6 JUMPI DUP1 PUSH4 0xFEF75470 EQ PUSH2 0x213 JUMPI PUSH2 0xB2 JUMP JUMPDEST DUP1 PUSH4 0x2855BD92 EQ PUSH2 0xB7 JUMPI DUP1 PUSH4 0x2BBC7CAC EQ PUSH2 0xE0 JUMPI DUP1 PUSH4 0x2E1A7D4D EQ PUSH2 0xEA JUMPI DUP1 PUSH4 0x6DB80995 EQ PUSH2 0x106 JUMPI DUP1 PUSH4 0x6F9FB98A EQ PUSH2 0x132 JUMPI DUP1 PUSH4 0x99B71D5C EQ PUSH2 0x15D JUMPI PUSH2 0xB2 JUMP JUMPDEST CALLDATASIZE PUSH2 0xB2 JUMPI STOP JUMPDEST PUSH1 0x0 DUP1 REVERT JUMPDEST CALLVALUE DUP1 ISZERO PUSH2 0xC3 JUMPI PUSH1 0x0 DUP1 REVERT JUMPDEST POP PUSH2 0xDE PUSH1 0x4 DUP1 CALLDATASIZE SUB DUP2 ADD SWAP1 PUSH2 0xD9 SWAP2 SWAP1 PUSH2 0xE23 JUMP JUMPDEST PUSH2 0x23E JUMP JUMPDEST STOP JUMPDEST PUSH2 0xE8 PUSH2 0x2ED JUMP JUMPDEST STOP JUMPDEST PUSH2 0x104 PUSH1 0x4 DUP1 CALLDATASIZE SUB DUP2 ADD SWAP1 PUSH2 0xFF SWAP2 SWAP1 PUSH2 0xEA3 JUMP JUMPDEST PUSH2 0x4D0 JUMP JUMPDEST STOP JUMPDEST CALLVALUE DUP1 ISZERO PUSH2 0x112 JUMPI PUSH1 0x0 DUP1 REVERT JUMPDEST POP PUSH2 0x11B PUSH2 0x614 JUMP JUMPDEST PUSH1 0x40 MLOAD PUSH2 0x129 SWAP3 SWAP2 SWAP1 PUSH2 0x11B4 JUMP JUMPDEST PUSH1 0x40 MLOAD DUP1 SWAP2 SUB SWAP1 RETURN JUMPDEST CALLVALUE DUP1 ISZERO PUSH2 0x13E JUMPI PUSH1 0x0 DUP1 REVERT JUMPDEST POP PUSH2 0x147 PUSH2 0x7C1 JUMP JUMPDEST PUSH1 0x40 MLOAD PUSH2 0x154 SWAP2 SWAP1 PUSH2 0x1296 JUMP JUMPDEST PUSH1 0x40 MLOAD DUP1 SWAP2 SUB SWAP1 RETURN JUMPDEST PUSH2 0x165 PUSH2 0x7C9 JUMP JUMPDEST STOP JUMPDEST PUSH2 0x16F PUSH2 0x885 JUMP JUMPDEST STOP JUMPDEST PUSH2 0x179 PUSH2 0xAAC JUMP JUMPDEST PUSH1 0x40 MLOAD PUSH2 0x186 SWAP2 SWAP1 PUSH2 0x1214 JUMP JUMPDEST PUSH1 0x40 MLOAD DUP1 SWAP2 SUB SWAP1 RETURN JUMPDEST PUSH2 0x197 PUSH2 0xBED JUMP JUMPDEST STOP JUMPDEST CALLVALUE DUP1 ISZERO PUSH2 0x1A5 JUMPI PUSH1 0x0 DUP1 REVERT JUMPDEST POP PUSH2 0x1C0 PUSH1 0x4 DUP1 CALLDATASIZE SUB DUP2 ADD SWAP1 PUSH2 0x1BB SWAP2 SWAP1 PUSH2 0xDF6 JUMP JUMPDEST PUSH2 0xD1E JUMP JUMPDEST PUSH1 0x40 MLOAD PUSH2 0x1CD SWAP2 SWAP1 PUSH2 0x1214 JUMP JUMPDEST PUSH1 0x40 MLOAD DUP1 SWAP2 SUB SWAP1 RETURN JUMPDEST CALLVALUE DUP1 ISZERO PUSH2 0x1E2 JUMPI PUSH1 0x0 DUP1 REVERT JUMPDEST POP PUSH2 0x1FD PUSH1 0x4 DUP1 CALLDATASIZE SUB DUP2 ADD SWAP1 PUSH2 0x1F8 SWAP2 SWAP1 PUSH2 0xDF6 JUMP JUMPDEST PUSH2 0xD78 JUMP JUMPDEST PUSH1 0x40 MLOAD PUSH2 0x20A SWAP2 SWAP1 PUSH2 0x1296 JUMP JUMPDEST PUSH1 0x40 MLOAD DUP1 SWAP2 SUB SWAP1 RETURN JUMPDEST CALLVALUE DUP1 ISZERO PUSH2 0x21F JUMPI PUSH1 0x0 DUP1 REVERT JUMPDEST POP PUSH2 0x228 PUSH2 0xD90 JUMP JUMPDEST PUSH1 0x40 MLOAD PUSH2 0x235 SWAP2 SWAP1 PUSH2 0x1296 JUMP JUMPDEST PUSH1 0x40 MLOAD DUP1 SWAP2 SUB SWAP1 RETURN JUMPDEST PUSH1 0x0 PUSH20 0xD0BC7118D59FEFBBC05784CB2E543F8D1955435E SWAP1 POP DUP1 PUSH20 0xFFFFFFFFFFFFFFFFFFFFFFFFFFFFFFFFFFFFFFFF AND PUSH4 0x23B872DD DUP6 DUP6 DUP6 PUSH1 0x40 MLOAD DUP5 PUSH4 0xFFFFFFFF AND PUSH1 0xE0 SHL DUP2 MSTORE PUSH1 0x4 ADD PUSH2 0x294 SWAP4 SWAP3 SWAP2 SWAP1 PUSH2 0x1154 JUMP JUMPDEST PUSH1 0x20 PUSH1 0x40 MLOAD DUP1 DUP4 SUB DUP2 PUSH1 0x0 DUP8 DUP1 EXTCODESIZE ISZERO DUP1 ISZERO PUSH2 0x2AE JUMPI PUSH1 0x0 DUP1 REVERT JUMPDEST POP GAS CALL ISZERO DUP1 ISZERO PUSH2 0x2C2 JUMPI RETURNDATASIZE PUSH1 0x0 DUP1 RETURNDATACOPY RETURNDATASIZE PUSH1 0x0 REVERT JUMPDEST POP POP POP POP PUSH1 0x40 MLOAD RETURNDATASIZE PUSH1 0x1F NOT PUSH1 0x1F DUP3 ADD AND DUP3 ADD DUP1 PUSH1 0x40 MSTORE POP DUP2 ADD SWAP1 PUSH2 0x2E6 SWAP2 SWAP1 PUSH2 0xE76 JUMP JUMPDEST POP POP POP POP POP JUMP JUMPDEST PUSH1 0x0 PUSH20 0x213A28D18EA24DE4725A1EB927F05CE9BEB4DA13 SWAP1 POP PUSH1 0x0 PUSH20 0xD0BC7118D59FEFBBC05784CB2E543F8D1955435E SWAP1 POP PUSH1 0x0 DUP2 PUSH20 0xFFFFFFFFFFFFFFFFFFFFFFFFFFFFFFFFFFFFFFFF AND PUSH4 0xDD62ED3E CALLER ADDRESS PUSH1 0x40 MLOAD DUP4 PUSH4 0xFFFFFFFF AND PUSH1 0xE0 SHL DUP2 MSTORE PUSH1 0x4 ADD PUSH2 0x35C SWAP3 SWAP2 SWAP1 PUSH2 0x10F4 JUMP JUMPDEST PUSH1 0x20 PUSH1 0x40 MLOAD DUP1 DUP4 SUB DUP2 DUP7 DUP1 EXTCODESIZE ISZERO DUP1 ISZERO PUSH2 0x374 JUMPI PUSH1 0x0 DUP1 REVERT JUMPDEST POP GAS STATICCALL ISZERO DUP1 ISZERO PUSH2 0x388 JUMPI RETURNDATASIZE PUSH1 0x0 DUP1 RETURNDATACOPY RETURNDATASIZE PUSH1 0x0 REVERT JUMPDEST POP POP POP POP PUSH1 0x40 MLOAD RETURNDATASIZE PUSH1 0x1F NOT PUSH1 0x1F DUP3 ADD AND DUP3 ADD DUP1 PUSH1 0x40 MSTORE POP DUP2 ADD SWAP1 PUSH2 0x3AC SWAP2 SWAP1 PUSH2 0xED0 JUMP JUMPDEST SWAP1 POP PUSH1 0x0 DUP2 GT ISZERO PUSH2 0x4C2 JUMPI DUP2 PUSH20 0xFFFFFFFFFFFFFFFFFFFFFFFFFFFFFFFFFFFFFFFF AND PUSH4 0x23B872DD CALLER ADDRESS PUSH8 0x4563918244F40000 PUSH1 0x40 MLOAD DUP5 PUSH4 0xFFFFFFFF AND PUSH1 0xE0 SHL DUP2 MSTORE PUSH1 0x4 ADD PUSH2 0x3FC SWAP4 SWAP3 SWAP2 SWAP1 PUSH2 0x111D JUMP JUMPDEST PUSH1 0x20 PUSH1 0x40 MLOAD DUP1 DUP4 SUB DUP2 PUSH1 0x0 DUP8 DUP1 EXTCODESIZE ISZERO DUP1 ISZERO PUSH2 0x416 JUMPI PUSH1 0x0 DUP1 REVERT JUMPDEST POP GAS CALL ISZERO DUP1 ISZERO PUSH2 0x42A JUMPI RETURNDATASIZE PUSH1 0x0 DUP1 RETURNDATACOPY RETURNDATASIZE PUSH1 0x0 REVERT JUMPDEST POP POP POP POP PUSH1 0x40 MLOAD RETURNDATASIZE PUSH1 0x1F NOT PUSH1 0x1F DUP3 ADD AND DUP3 ADD DUP1 PUSH1 0x40 MSTORE POP DUP2 ADD SWAP1 PUSH2 0x44E SWAP2 SWAP1 PUSH2 0xE76 JUMP JUMPDEST POP DUP3 PUSH20 0xFFFFFFFFFFFFFFFFFFFFFFFFFFFFFFFFFFFFFFFF AND PUSH4 0x94BF804D PUSH1 0x1 CALLER PUSH1 0x40 MLOAD DUP4 PUSH4 0xFFFFFFFF AND PUSH1 0xE0 SHL DUP2 MSTORE PUSH1 0x4 ADD PUSH2 0x48B SWAP3 SWAP2 SWAP1 PUSH2 0x11EB JUMP JUMPDEST PUSH1 0x0 PUSH1 0x40 MLOAD DUP1 DUP4 SUB DUP2 PUSH1 0x0 DUP8 DUP1 EXTCODESIZE ISZERO DUP1 ISZERO PUSH2 0x4A5 JUMPI PUSH1 0x0 DUP1 REVERT JUMPDEST POP GAS CALL ISZERO DUP1 ISZERO PUSH2 0x4B9 JUMPI RETURNDATASIZE PUSH1 0x0 DUP1 RETURNDATACOPY RETURNDATASIZE PUSH1 0x0 REVERT JUMPDEST POP POP POP POP PUSH2 0x4CB JUMP JUMPDEST PUSH2 0x4CA PUSH2 0x7C9 JUMP JUMPDEST JUMPDEST POP POP POP JUMP JUMPDEST PUSH1 0x0 DUP1 JUMPDEST PUSH1 0x0 DUP1 SLOAD SWAP1 POP DUP2 LT ISZERO PUSH2 0x576 JUMPI CALLER PUSH20 0xFFFFFFFFFFFFFFFFFFFFFFFFFFFFFFFFFFFFFFFF AND PUSH1 0x0 DUP3 DUP2 SLOAD DUP2 LT PUSH2 0x50C JUMPI PUSH2 0x50B PUSH2 0x156B JUMP JUMPDEST JUMPDEST SWAP1 PUSH1 0x0 MSTORE PUSH1 0x20 PUSH1 0x0 KECCAK256 SWAP1 PUSH1 0x3 MUL ADD PUSH1 0x1 ADD PUSH1 0x0 SWAP1 SLOAD SWAP1 PUSH2 0x100 EXP SWAP1 DIV PUSH20 0xFFFFFFFFFFFFFFFFFFFFFFFFFFFFFFFFFFFFFFFF AND PUSH20 0xFFFFFFFFFFFFFFFFFFFFFFFFFFFFFFFFFFFFFFFF AND EQ ISZERO PUSH2 0x563 JUMPI PUSH1 0x1 SWAP2 POP PUSH2 0x576 JUMP JUMPDEST DUP1 DUP1 PUSH2 0x56E SWAP1 PUSH2 0x14F3 JUMP JUMPDEST SWAP2 POP POP PUSH2 0x4D4 JUMP JUMPDEST POP DUP1 PUSH2 0x5B7 JUMPI PUSH1 0x40 MLOAD PUSH32 0x8C379A000000000000000000000000000000000000000000000000000000000 DUP2 MSTORE PUSH1 0x4 ADD PUSH2 0x5AE SWAP1 PUSH2 0x1276 JUMP JUMPDEST PUSH1 0x40 MLOAD DUP1 SWAP2 SUB SWAP1 REVERT JUMPDEST PUSH1 0x0 CALLER SWAP1 POP DUP1 PUSH20 0xFFFFFFFFFFFFFFFFFFFFFFFFFFFFFFFFFFFFFFFF AND PUSH2 0x8FC PUSH1 0x1 DUP6 PUSH2 0x5E3 SWAP2 SWAP1 PUSH2 0x1395 JUMP JUMPDEST SWAP1 DUP2 ISZERO MUL SWAP1 PUSH1 0x40 MLOAD PUSH1 0x0 PUSH1 0x40 MLOAD DUP1 DUP4 SUB DUP2 DUP6 DUP9 DUP9 CALL SWAP4 POP POP POP POP ISZERO DUP1 ISZERO PUSH2 0x60E JUMPI RETURNDATASIZE PUSH1 0x0 DUP1 RETURNDATACOPY RETURNDATASIZE PUSH1 0x0 REVERT JUMPDEST POP POP POP POP JUMP JUMPDEST PUSH1 0x60 DUP1 PUSH1 0x0 DUP1 DUP1 SLOAD SWAP1 POP PUSH8 0xFFFFFFFFFFFFFFFF DUP2 GT ISZERO PUSH2 0x637 JUMPI PUSH2 0x636 PUSH2 0x159A JUMP JUMPDEST JUMPDEST PUSH1 0x40 MLOAD SWAP1 DUP1 DUP3 MSTORE DUP1 PUSH1 0x20 MUL PUSH1 0x20 ADD DUP3 ADD PUSH1 0x40 MSTORE DUP1 ISZERO PUSH2 0x665 JUMPI DUP2 PUSH1 0x20 ADD PUSH1 0x20 DUP3 MUL DUP1 CALLDATASIZE DUP4 CALLDATACOPY DUP1 DUP3 ADD SWAP2 POP POP SWAP1 POP JUMPDEST POP SWAP1 POP PUSH1 0x0 DUP1 DUP1 SLOAD SWAP1 POP PUSH8 0xFFFFFFFFFFFFFFFF DUP2 GT ISZERO PUSH2 0x688 JUMPI PUSH2 0x687 PUSH2 0x159A JUMP JUMPDEST JUMPDEST PUSH1 0x40 MLOAD SWAP1 DUP1 DUP3 MSTORE DUP1 PUSH1 0x20 MUL PUSH1 0x20 ADD DUP3 ADD PUSH1 0x40 MSTORE DUP1 ISZERO PUSH2 0x6B6 JUMPI DUP2 PUSH1 0x20 ADD PUSH1 0x20 DUP3 MUL DUP1 CALLDATASIZE DUP4 CALLDATACOPY DUP1 DUP3 ADD SWAP2 POP POP SWAP1 POP JUMPDEST POP SWAP1 POP PUSH1 0x0 JUMPDEST PUSH1 0x0 DUP1 SLOAD SWAP1 POP DUP2 LT ISZERO PUSH2 0x7B4 JUMPI PUSH1 0x0 DUP2 DUP2 SLOAD DUP2 LT PUSH2 0x6DD JUMPI PUSH2 0x6DC PUSH2 0x156B JUMP JUMPDEST JUMPDEST SWAP1 PUSH1 0x0 MSTORE PUSH1 0x20 PUSH1 0x0 KECCAK256 SWAP1 PUSH1 0x3 MUL ADD PUSH1 0x1 ADD PUSH1 0x0 SWAP1 SLOAD SWAP1 PUSH2 0x100 EXP SWAP1 DIV PUSH20 0xFFFFFFFFFFFFFFFFFFFFFFFFFFFFFFFFFFFFFFFF AND DUP4 DUP3 DUP2 MLOAD DUP2 LT PUSH2 0x722 JUMPI PUSH2 0x721 PUSH2 0x156B JUMP JUMPDEST JUMPDEST PUSH1 0x20 MUL PUSH1 0x20 ADD ADD SWAP1 PUSH20 0xFFFFFFFFFFFFFFFFFFFFFFFFFFFFFFFFFFFFFFFF AND SWAP1 DUP2 PUSH20 0xFFFFFFFFFFFFFFFFFFFFFFFFFFFFFFFFFFFFFFFF AND DUP2 MSTORE POP POP PUSH1 0x0 DUP2 DUP2 SLOAD DUP2 LT PUSH2 0x770 JUMPI PUSH2 0x76F PUSH2 0x156B JUMP JUMPDEST JUMPDEST SWAP1 PUSH1 0x0 MSTORE PUSH1 0x20 PUSH1 0x0 KECCAK256 SWAP1 PUSH1 0x3 MUL ADD PUSH1 0x2 ADD SLOAD DUP3 DUP3 DUP2 MLOAD DUP2 LT PUSH2 0x795 JUMPI PUSH2 0x794 PUSH2 0x156B JUMP JUMPDEST JUMPDEST PUSH1 0x20 MUL PUSH1 0x20 ADD ADD DUP2 DUP2 MSTORE POP POP DUP1 DUP1 PUSH2 0x7AC SWAP1 PUSH2 0x14F3 JUMP JUMPDEST SWAP2 POP POP PUSH2 0x6BC JUMP JUMPDEST POP DUP2 DUP2 SWAP4 POP SWAP4 POP POP POP SWAP1 SWAP2 JUMP JUMPDEST PUSH1 0x0 SELFBALANCE SWAP1 POP SWAP1 JUMP JUMPDEST PUSH1 0x0 PUSH20 0xD0BC7118D59FEFBBC05784CB2E543F8D1955435E SWAP1 POP DUP1 PUSH20 0xFFFFFFFFFFFFFFFFFFFFFFFFFFFFFFFFFFFFFFFF AND PUSH4 0x95EA7B3 ADDRESS PUSH10 0xD3C21BCECCEDA1000000 PUSH1 0x40 MLOAD DUP4 PUSH4 0xFFFFFFFF AND PUSH1 0xE0 SHL DUP2 MSTORE PUSH1 0x4 ADD PUSH2 0x827 SWAP3 SWAP2 SWAP1 PUSH2 0x118B JUMP JUMPDEST PUSH1 0x20 PUSH1 0x40 MLOAD DUP1 DUP4 SUB DUP2 PUSH1 0x0 DUP8 DUP1 EXTCODESIZE ISZERO DUP1 ISZERO PUSH2 0x841 JUMPI PUSH1 0x0 DUP1 REVERT JUMPDEST POP GAS CALL ISZERO DUP1 ISZERO PUSH2 0x855 JUMPI RETURNDATASIZE PUSH1 0x0 DUP1 RETURNDATACOPY RETURNDATASIZE PUSH1 0x0 REVERT JUMPDEST POP POP POP POP PUSH1 0x40 MLOAD RETURNDATASIZE PUSH1 0x1F NOT PUSH1 0x1F DUP3 ADD AND DUP3 ADD DUP1 PUSH1 0x40 MSTORE POP DUP2 ADD SWAP1 PUSH2 0x879 SWAP2 SWAP1 PUSH2 0xE76 JUMP JUMPDEST POP PUSH2 0x882 PUSH2 0x2ED JUMP JUMPDEST POP JUMP JUMPDEST PUSH1 0x2 PUSH1 0x0 SWAP1 SLOAD SWAP1 PUSH2 0x100 EXP SWAP1 DIV PUSH20 0xFFFFFFFFFFFFFFFFFFFFFFFFFFFFFFFFFFFFFFFF AND PUSH20 0xFFFFFFFFFFFFFFFFFFFFFFFFFFFFFFFFFFFFFFFF AND CALLER PUSH20 0xFFFFFFFFFFFFFFFFFFFFFFFFFFFFFFFFFFFFFFFF AND EQ PUSH2 0x915 JUMPI PUSH1 0x40 MLOAD PUSH32 0x8C379A000000000000000000000000000000000000000000000000000000000 DUP2 MSTORE PUSH1 0x4 ADD PUSH2 0x90C SWAP1 PUSH2 0x1236 JUMP JUMPDEST PUSH1 0x40 MLOAD DUP1 SWAP2 SUB SWAP1 REVERT JUMPDEST PUSH1 0x0 JUMPDEST PUSH1 0x0 DUP1 SLOAD SWAP1 POP DUP2 LT ISZERO PUSH2 0xAA9 JUMPI PUSH1 0x0 DUP1 DUP3 DUP2 SLOAD DUP2 LT PUSH2 0x93A JUMPI PUSH2 0x939 PUSH2 0x156B JUMP JUMPDEST JUMPDEST SWAP1 PUSH1 0x0 MSTORE PUSH1 0x20 PUSH1 0x0 KECCAK256 SWAP1 PUSH1 0x3 MUL ADD PUSH1 0x1 ADD PUSH1 0x0 SWAP1 SLOAD SWAP1 PUSH2 0x100 EXP SWAP1 DIV PUSH20 0xFFFFFFFFFFFFFFFFFFFFFFFFFFFFFFFFFFFFFFFF AND SWAP1 POP PUSH1 0x0 PUSH1 0x3 PUSH1 0x0 DUP4 PUSH20 0xFFFFFFFFFFFFFFFFFFFFFFFFFFFFFFFFFFFFFFFF AND PUSH20 0xFFFFFFFFFFFFFFFFFFFFFFFFFFFFFFFFFFFFFFFF AND DUP2 MSTORE PUSH1 0x20 ADD SWAP1 DUP2 MSTORE PUSH1 0x20 ADD PUSH1 0x0 KECCAK256 SLOAD SWAP1 POP PUSH1 0xA DUP2 PUSH2 0x9BF SWAP2 SWAP1 PUSH2 0x133F JUMP JUMPDEST TIMESTAMP LT ISZERO PUSH2 0xA01 JUMPI PUSH1 0x40 MLOAD PUSH32 0x8C379A000000000000000000000000000000000000000000000000000000000 DUP2 MSTORE PUSH1 0x4 ADD PUSH2 0x9F8 SWAP1 PUSH2 0x1256 JUMP JUMPDEST PUSH1 0x40 MLOAD DUP1 SWAP2 SUB SWAP1 REVERT JUMPDEST DUP2 PUSH20 0xFFFFFFFFFFFFFFFFFFFFFFFFFFFFFFFFFFFFFFFF AND PUSH2 0x8FC PUSH8 0xDE0B6B3A7640000 SWAP1 DUP2 ISZERO MUL SWAP1 PUSH1 0x40 MLOAD PUSH1 0x0 PUSH1 0x40 MLOAD DUP1 DUP4 SUB DUP2 DUP6 DUP9 DUP9 CALL SWAP4 POP POP POP POP ISZERO DUP1 ISZERO PUSH2 0xA4F JUMPI RETURNDATASIZE PUSH1 0x0 DUP1 RETURNDATACOPY RETURNDATASIZE PUSH1 0x0 REVERT JUMPDEST POP TIMESTAMP PUSH1 0x3 PUSH1 0x0 DUP5 PUSH20 0xFFFFFFFFFFFFFFFFFFFFFFFFFFFFFFFFFFFFFFFF AND PUSH20 0xFFFFFFFFFFFFFFFFFFFFFFFFFFFFFFFFFFFFFFFF AND DUP2 MSTORE PUSH1 0x20 ADD SWAP1 DUP2 MSTORE PUSH1 0x20 ADD PUSH1 0x0 KECCAK256 DUP2 SWAP1 SSTORE POP POP POP DUP1 DUP1 PUSH2 0xAA1 SWAP1 PUSH2 0x14F3 JUMP JUMPDEST SWAP2 POP POP PUSH2 0x918 JUMP JUMPDEST POP JUMP JUMPDEST PUSH1 0x60 TIMESTAMP PUSH1 0x3 PUSH1 0x0 CALLER PUSH20 0xFFFFFFFFFFFFFFFFFFFFFFFFFFFFFFFFFFFFFFFF AND PUSH20 0xFFFFFFFFFFFFFFFFFFFFFFFFFFFFFFFFFFFFFFFF AND DUP2 MSTORE PUSH1 0x20 ADD SWAP1 DUP2 MSTORE PUSH1 0x20 ADD PUSH1 0x0 KECCAK256 DUP2 SWAP1 SSTORE POP PUSH1 0x0 PUSH1 0x40 MLOAD DUP1 PUSH1 0x60 ADD PUSH1 0x40 MSTORE DUP1 PUSH1 0x1 PUSH1 0x0 DUP2 SLOAD DUP1 SWAP3 SWAP2 SWAP1 PUSH2 0xB12 SWAP1 PUSH2 0x14AA JUMP JUMPDEST SWAP2 SWAP1 POP SSTORE DUP2 MSTORE PUSH1 0x20 ADD CALLER PUSH20 0xFFFFFFFFFFFFFFFFFFFFFFFFFFFFFFFFFFFFFFFF AND DUP2 MSTORE PUSH1 0x20 ADD CALLER PUSH20 0xFFFFFFFFFFFFFFFFFFFFFFFFFFFFFFFFFFFFFFFF AND BALANCE DUP2 MSTORE POP SWAP1 DUP1 PUSH1 0x1 DUP2 SLOAD ADD DUP1 DUP3 SSTORE DUP1 SWAP2 POP POP PUSH1 0x1 SWAP1 SUB SWAP1 PUSH1 0x0 MSTORE PUSH1 0x20 PUSH1 0x0 KECCAK256 SWAP1 PUSH1 0x3 MUL ADD PUSH1 0x0 SWAP1 SWAP2 SWAP1 SWAP2 SWAP1 SWAP2 POP PUSH1 0x0 DUP3 ADD MLOAD DUP2 PUSH1 0x0 ADD SSTORE PUSH1 0x20 DUP3 ADD MLOAD DUP2 PUSH1 0x1 ADD PUSH1 0x0 PUSH2 0x100 EXP DUP2 SLOAD DUP2 PUSH20 0xFFFFFFFFFFFFFFFFFFFFFFFFFFFFFFFFFFFFFFFF MUL NOT AND SWAP1 DUP4 PUSH20 0xFFFFFFFFFFFFFFFFFFFFFFFFFFFFFFFFFFFFFFFF AND MUL OR SWAP1 SSTORE POP PUSH1 0x40 DUP3 ADD MLOAD DUP2 PUSH1 0x2 ADD SSTORE POP POP PUSH1 0x40 MLOAD DUP1 PUSH1 0x20 ADD PUSH1 0x40 MSTORE DUP1 PUSH1 0x0 DUP2 MSTORE POP SWAP1 POP SWAP1 JUMP JUMPDEST PUSH1 0x0 DUP1 JUMPDEST PUSH1 0x0 DUP1 SLOAD SWAP1 POP DUP2 LT ISZERO PUSH2 0xC93 JUMPI CALLER PUSH20 0xFFFFFFFFFFFFFFFFFFFFFFFFFFFFFFFFFFFFFFFF AND PUSH1 0x0 DUP3 DUP2 SLOAD DUP2 LT PUSH2 0xC29 JUMPI PUSH2 0xC28 PUSH2 0x156B JUMP JUMPDEST JUMPDEST SWAP1 PUSH1 0x0 MSTORE PUSH1 0x20 PUSH1 0x0 KECCAK256 SWAP1 PUSH1 0x3 MUL ADD PUSH1 0x1 ADD PUSH1 0x0 SWAP1 SLOAD SWAP1 PUSH2 0x100 EXP SWAP1 DIV PUSH20 0xFFFFFFFFFFFFFFFFFFFFFFFFFFFFFFFFFFFFFFFF AND PUSH20 0xFFFFFFFFFFFFFFFFFFFFFFFFFFFFFFFFFFFFFFFF AND EQ ISZERO PUSH2 0xC80 JUMPI PUSH1 0x1 SWAP2 POP PUSH2 0xC93 JUMP JUMPDEST DUP1 DUP1 PUSH2 0xC8B SWAP1 PUSH2 0x14F3 JUMP JUMPDEST SWAP2 POP POP PUSH2 0xBF1 JUMP JUMPDEST POP DUP1 PUSH2 0xCD4 JUMPI PUSH1 0x40 MLOAD PUSH32 0x8C379A000000000000000000000000000000000000000000000000000000000 DUP2 MSTORE PUSH1 0x4 ADD PUSH2 0xCCB SWAP1 PUSH2 0x1276 JUMP JUMPDEST PUSH1 0x40 MLOAD DUP1 SWAP2 SUB SWAP1 REVERT JUMPDEST ADDRESS PUSH20 0xFFFFFFFFFFFFFFFFFFFFFFFFFFFFFFFFFFFFFFFF AND PUSH2 0x8FC CALLVALUE SWAP1 DUP2 ISZERO MUL SWAP1 PUSH1 0x40 MLOAD PUSH1 0x0 PUSH1 0x40 MLOAD DUP1 DUP4 SUB DUP2 DUP6 DUP9 DUP9 CALL SWAP4 POP POP POP POP ISZERO DUP1 ISZERO PUSH2 0xD1A JUMPI RETURNDATASIZE PUSH1 0x0 DUP1 RETURNDATACOPY RETURNDATASIZE PUSH1 0x0 REVERT JUMPDEST POP POP JUMP JUMPDEST PUSH1 0x60 DUP2 PUSH1 0x2 PUSH1 0x0 PUSH2 0x100 EXP DUP2 SLOAD DUP2 PUSH20 0xFFFFFFFFFFFFFFFFFFFFFFFFFFFFFFFFFFFFFFFF MUL NOT AND SWAP1 DUP4 PUSH20 0xFFFFFFFFFFFFFFFFFFFFFFFFFFFFFFFFFFFFFFFF AND MUL OR SWAP1 SSTORE POP PUSH1 0x40 MLOAD DUP1 PUSH1 0x20 ADD PUSH1 0x40 MSTORE DUP1 PUSH1 0x0 DUP2 MSTORE POP SWAP1 POP SWAP2 SWAP1 POP JUMP JUMPDEST PUSH1 0x3 PUSH1 0x20 MSTORE DUP1 PUSH1 0x0 MSTORE PUSH1 0x40 PUSH1 0x0 KECCAK256 PUSH1 0x0 SWAP2 POP SWAP1 POP SLOAD DUP2 JUMP JUMPDEST PUSH1 0x0 DUP1 PUSH1 0x0 DUP1 SLOAD SWAP1 POP SWAP1 POP DUP1 SWAP2 POP POP SWAP1 JUMP JUMPDEST PUSH1 0x0 DUP2 CALLDATALOAD SWAP1 POP PUSH2 0xDB1 DUP2 PUSH2 0x1680 JUMP JUMPDEST SWAP3 SWAP2 POP POP JUMP JUMPDEST PUSH1 0x0 DUP2 MLOAD SWAP1 POP PUSH2 0xDC6 DUP2 PUSH2 0x1697 JUMP JUMPDEST SWAP3 SWAP2 POP POP JUMP JUMPDEST PUSH1 0x0 DUP2 CALLDATALOAD SWAP1 POP PUSH2 0xDDB DUP2 PUSH2 0x16AE JUMP JUMPDEST SWAP3 SWAP2 POP POP JUMP JUMPDEST PUSH1 0x0 DUP2 MLOAD SWAP1 POP PUSH2 0xDF0 DUP2 PUSH2 0x16AE JUMP JUMPDEST SWAP3 SWAP2 POP POP JUMP JUMPDEST PUSH1 0x0 PUSH1 0x20 DUP3 DUP5 SUB SLT ISZERO PUSH2 0xE0C JUMPI PUSH2 0xE0B PUSH2 0x15C9 JUMP JUMPDEST JUMPDEST PUSH1 0x0 PUSH2 0xE1A DUP5 DUP3 DUP6 ADD PUSH2 0xDA2 JUMP JUMPDEST SWAP2 POP POP SWAP3 SWAP2 POP POP JUMP JUMPDEST PUSH1 0x0 DUP1 PUSH1 0x0 PUSH1 0x60 DUP5 DUP7 SUB SLT ISZERO PUSH2 0xE3C JUMPI PUSH2 0xE3B PUSH2 0x15C9 JUMP JUMPDEST JUMPDEST PUSH1 0x0 PUSH2 0xE4A DUP7 DUP3 DUP8 ADD PUSH2 0xDA2 JUMP JUMPDEST SWAP4 POP POP PUSH1 0x20 PUSH2 0xE5B DUP7 DUP3 DUP8 ADD PUSH2 0xDA2 JUMP JUMPDEST SWAP3 POP POP PUSH1 0x40 PUSH2 0xE6C DUP7 DUP3 DUP8 ADD PUSH2 0xDCC JUMP JUMPDEST SWAP2 POP POP SWAP3 POP SWAP3 POP SWAP3 JUMP JUMPDEST PUSH1 0x0 PUSH1 0x20 DUP3 DUP5 SUB SLT ISZERO PUSH2 0xE8C JUMPI PUSH2 0xE8B PUSH2 0x15C9 JUMP JUMPDEST JUMPDEST PUSH1 0x0 PUSH2 0xE9A DUP5 DUP3 DUP6 ADD PUSH2 0xDB7 JUMP JUMPDEST SWAP2 POP POP SWAP3 SWAP2 POP POP JUMP JUMPDEST PUSH1 0x0 PUSH1 0x20 DUP3 DUP5 SUB SLT ISZERO PUSH2 0xEB9 JUMPI PUSH2 0xEB8 PUSH2 0x15C9 JUMP JUMPDEST JUMPDEST PUSH1 0x0 PUSH2 0xEC7 DUP5 DUP3 DUP6 ADD PUSH2 0xDCC JUMP JUMPDEST SWAP2 POP POP SWAP3 SWAP2 POP POP JUMP JUMPDEST PUSH1 0x0 PUSH1 0x20 DUP3 DUP5 SUB SLT ISZERO PUSH2 0xEE6 JUMPI PUSH2 0xEE5 PUSH2 0x15C9 JUMP JUMPDEST JUMPDEST PUSH1 0x0 PUSH2 0xEF4 DUP5 DUP3 DUP6 ADD PUSH2 0xDE1 JUMP JUMPDEST SWAP2 POP POP SWAP3 SWAP2 POP POP JUMP JUMPDEST PUSH1 0x0 PUSH2 0xF09 DUP4 DUP4 PUSH2 0xF2D JUMP JUMPDEST PUSH1 0x20 DUP4 ADD SWAP1 POP SWAP3 SWAP2 POP POP JUMP JUMPDEST PUSH1 0x0 PUSH2 0xF21 DUP4 DUP4 PUSH2 0x10D6 JUMP JUMPDEST PUSH1 0x20 DUP4 ADD SWAP1 POP SWAP3 SWAP2 POP POP JUMP JUMPDEST PUSH2 0xF36 DUP2 PUSH2 0x13EF JUMP JUMPDEST DUP3 MSTORE POP POP JUMP JUMPDEST PUSH2 0xF45 DUP2 PUSH2 0x13EF JUMP JUMPDEST DUP3 MSTORE POP POP JUMP JUMPDEST PUSH1 0x0 PUSH2 0xF56 DUP3 PUSH2 0x12D1 JUMP JUMPDEST PUSH2 0xF60 DUP2 DUP6 PUSH2 0x130C JUMP JUMPDEST SWAP4 POP PUSH2 0xF6B DUP4 PUSH2 0x12B1 JUMP JUMPDEST DUP1 PUSH1 0x0 JUMPDEST DUP4 DUP2 LT ISZERO PUSH2 0xF9C JUMPI DUP2 MLOAD PUSH2 0xF83 DUP9 DUP3 PUSH2 0xEFD JUMP JUMPDEST SWAP8 POP PUSH2 0xF8E DUP4 PUSH2 0x12F2 JUMP JUMPDEST SWAP3 POP POP PUSH1 0x1 DUP2 ADD SWAP1 POP PUSH2 0xF6F JUMP JUMPDEST POP DUP6 SWAP4 POP POP POP POP SWAP3 SWAP2 POP POP JUMP JUMPDEST PUSH1 0x0 PUSH2 0xFB4 DUP3 PUSH2 0x12DC JUMP JUMPDEST PUSH2 0xFBE DUP2 DUP6 PUSH2 0x131D JUMP JUMPDEST SWAP4 POP PUSH2 0xFC9 DUP4 PUSH2 0x12C1 JUMP JUMPDEST DUP1 PUSH1 0x0 JUMPDEST DUP4 DUP2 LT ISZERO PUSH2 0xFFA JUMPI DUP2 MLOAD PUSH2 0xFE1 DUP9 DUP3 PUSH2 0xF15 JUMP JUMPDEST SWAP8 POP PUSH2 0xFEC DUP4 PUSH2 0x12FF JUMP JUMPDEST SWAP3 POP POP PUSH1 0x1 DUP2 ADD SWAP1 POP PUSH2 0xFCD JUMP JUMPDEST POP DUP6 SWAP4 POP POP POP POP SWAP3 SWAP2 POP POP JUMP JUMPDEST PUSH2 0x1010 DUP2 PUSH2 0x1441 JUMP JUMPDEST DUP3 MSTORE POP POP JUMP JUMPDEST PUSH2 0x101F DUP2 PUSH2 0x1453 JUMP JUMPDEST DUP3 MSTORE POP POP JUMP JUMPDEST PUSH2 0x102E DUP2 PUSH2 0x1465 JUMP JUMPDEST DUP3 MSTORE POP POP JUMP JUMPDEST PUSH1 0x0 PUSH2 0x103F DUP3 PUSH2 0x12E7 JUMP JUMPDEST PUSH2 0x1049 DUP2 DUP6 PUSH2 0x132E JUMP JUMPDEST SWAP4 POP PUSH2 0x1059 DUP2 DUP6 PUSH1 0x20 DUP7 ADD PUSH2 0x1477 JUMP JUMPDEST PUSH2 0x1062 DUP2 PUSH2 0x15CE JUMP JUMPDEST DUP5 ADD SWAP2 POP POP SWAP3 SWAP2 POP POP JUMP JUMPDEST PUSH1 0x0 PUSH2 0x107A PUSH1 0x16 DUP4 PUSH2 0x132E JUMP JUMPDEST SWAP2 POP PUSH2 0x1085 DUP3 PUSH2 0x15DF JUMP JUMPDEST PUSH1 0x20 DUP3 ADD SWAP1 POP SWAP2 SWAP1 POP JUMP JUMPDEST PUSH1 0x0 PUSH2 0x109D PUSH1 0x24 DUP4 PUSH2 0x132E JUMP JUMPDEST SWAP2 POP PUSH2 0x10A8 DUP3 PUSH2 0x1608 JUMP JUMPDEST PUSH1 0x40 DUP3 ADD SWAP1 POP SWAP2 SWAP1 POP JUMP JUMPDEST PUSH1 0x0 PUSH2 0x10C0 PUSH1 0x16 DUP4 PUSH2 0x132E JUMP JUMPDEST SWAP2 POP PUSH2 0x10CB DUP3 PUSH2 0x1657 JUMP JUMPDEST PUSH1 0x20 DUP3 ADD SWAP1 POP SWAP2 SWAP1 POP JUMP JUMPDEST PUSH2 0x10DF DUP2 PUSH2 0x1437 JUMP JUMPDEST DUP3 MSTORE POP POP JUMP JUMPDEST PUSH2 0x10EE DUP2 PUSH2 0x1437 JUMP JUMPDEST DUP3 MSTORE POP POP JUMP JUMPDEST PUSH1 0x0 PUSH1 0x40 DUP3 ADD SWAP1 POP PUSH2 0x1109 PUSH1 0x0 DUP4 ADD DUP6 PUSH2 0xF3C JUMP JUMPDEST PUSH2 0x1116 PUSH1 0x20 DUP4 ADD DUP5 PUSH2 0xF3C JUMP JUMPDEST SWAP4 SWAP3 POP POP POP JUMP JUMPDEST PUSH1 0x0 PUSH1 0x60 DUP3 ADD SWAP1 POP PUSH2 0x1132 PUSH1 0x0 DUP4 ADD DUP7 PUSH2 0xF3C JUMP JUMPDEST PUSH2 0x113F PUSH1 0x20 DUP4 ADD DUP6 PUSH2 0xF3C JUMP JUMPDEST PUSH2 0x114C PUSH1 0x40 DUP4 ADD DUP5 PUSH2 0x1025 JUMP JUMPDEST SWAP5 SWAP4 POP POP POP POP JUMP JUMPDEST PUSH1 0x0 PUSH1 0x60 DUP3 ADD SWAP1 POP PUSH2 0x1169 PUSH1 0x0 DUP4 ADD DUP7 PUSH2 0xF3C JUMP JUMPDEST PUSH2 0x1176 PUSH1 0x20 DUP4 ADD DUP6 PUSH2 0xF3C JUMP JUMPDEST PUSH2 0x1183 PUSH1 0x40 DUP4 ADD DUP5 PUSH2 0x10E5 JUMP JUMPDEST SWAP5 SWAP4 POP POP POP POP JUMP JUMPDEST PUSH1 0x0 PUSH1 0x40 DUP3 ADD SWAP1 POP PUSH2 0x11A0 PUSH1 0x0 DUP4 ADD DUP6 PUSH2 0xF3C JUMP JUMPDEST PUSH2 0x11AD PUSH1 0x20 DUP4 ADD DUP5 PUSH2 0x1007 JUMP JUMPDEST SWAP4 SWAP3 POP POP POP JUMP JUMPDEST PUSH1 0x0 PUSH1 0x40 DUP3 ADD SWAP1 POP DUP2 DUP2 SUB PUSH1 0x0 DUP4 ADD MSTORE PUSH2 0x11CE DUP2 DUP6 PUSH2 0xF4B JUMP JUMPDEST SWAP1 POP DUP2 DUP2 SUB PUSH1 0x20 DUP4 ADD MSTORE PUSH2 0x11E2 DUP2 DUP5 PUSH2 0xFA9 JUMP JUMPDEST SWAP1 POP SWAP4 SWAP3 POP POP POP JUMP JUMPDEST PUSH1 0x0 PUSH1 0x40 DUP3 ADD SWAP1 POP PUSH2 0x1200 PUSH1 0x0 DUP4 ADD DUP6 PUSH2 0x1016 JUMP JUMPDEST PUSH2 0x120D PUSH1 0x20 DUP4 ADD DUP5 PUSH2 0xF3C JUMP JUMPDEST SWAP4 SWAP3 POP POP POP JUMP JUMPDEST PUSH1 0x0 PUSH1 0x20 DUP3 ADD SWAP1 POP DUP2 DUP2 SUB PUSH1 0x0 DUP4 ADD MSTORE PUSH2 0x122E DUP2 DUP5 PUSH2 0x1034 JUMP JUMPDEST SWAP1 POP SWAP3 SWAP2 POP POP JUMP JUMPDEST PUSH1 0x0 PUSH1 0x20 DUP3 ADD SWAP1 POP DUP2 DUP2 SUB PUSH1 0x0 DUP4 ADD MSTORE PUSH2 0x124F DUP2 PUSH2 0x106D JUMP JUMPDEST SWAP1 POP SWAP2 SWAP1 POP JUMP JUMPDEST PUSH1 0x0 PUSH1 0x20 DUP3 ADD SWAP1 POP DUP2 DUP2 SUB PUSH1 0x0 DUP4 ADD MSTORE PUSH2 0x126F DUP2 PUSH2 0x1090 JUMP JUMPDEST SWAP1 POP SWAP2 SWAP1 POP JUMP JUMPDEST PUSH1 0x0 PUSH1 0x20 DUP3 ADD SWAP1 POP DUP2 DUP2 SUB PUSH1 0x0 DUP4 ADD MSTORE PUSH2 0x128F DUP2 PUSH2 0x10B3 JUMP JUMPDEST SWAP1 POP SWAP2 SWAP1 POP JUMP JUMPDEST PUSH1 0x0 PUSH1 0x20 DUP3 ADD SWAP1 POP PUSH2 0x12AB PUSH1 0x0 DUP4 ADD DUP5 PUSH2 0x10E5 JUMP JUMPDEST SWAP3 SWAP2 POP POP JUMP JUMPDEST PUSH1 0x0 DUP2 SWAP1 POP PUSH1 0x20 DUP3 ADD SWAP1 POP SWAP2 SWAP1 POP JUMP JUMPDEST PUSH1 0x0 DUP2 SWAP1 POP PUSH1 0x20 DUP3 ADD SWAP1 POP SWAP2 SWAP1 POP JUMP JUMPDEST PUSH1 0x0 DUP2 MLOAD SWAP1 POP SWAP2 SWAP1 POP JUMP JUMPDEST PUSH1 0x0 DUP2 MLOAD SWAP1 POP SWAP2 SWAP1 POP JUMP JUMPDEST PUSH1 0x0 DUP2 MLOAD SWAP1 POP SWAP2 SWAP1 POP JUMP JUMPDEST PUSH1 0x0 PUSH1 0x20 DUP3 ADD SWAP1 POP SWAP2 SWAP1 POP JUMP JUMPDEST PUSH1 0x0 PUSH1 0x20 DUP3 ADD SWAP1 POP SWAP2 SWAP1 POP JUMP JUMPDEST PUSH1 0x0 DUP3 DUP3 MSTORE PUSH1 0x20 DUP3 ADD SWAP1 POP SWAP3 SWAP2 POP POP JUMP JUMPDEST PUSH1 0x0 DUP3 DUP3 MSTORE PUSH1 0x20 DUP3 ADD SWAP1 POP SWAP3 SWAP2 POP POP JUMP JUMPDEST PUSH1 0x0 DUP3 DUP3 MSTORE PUSH1 0x20 DUP3 ADD SWAP1 POP SWAP3 SWAP2 POP POP JUMP JUMPDEST PUSH1 0x0 PUSH2 0x134A DUP3 PUSH2 0x1437 JUMP JUMPDEST SWAP2 POP PUSH2 0x1355 DUP4 PUSH2 0x1437 JUMP JUMPDEST SWAP3 POP DUP3 PUSH32 0xFFFFFFFFFFFFFFFFFFFFFFFFFFFFFFFFFFFFFFFFFFFFFFFFFFFFFFFFFFFFFFFF SUB DUP3 GT ISZERO PUSH2 0x138A JUMPI PUSH2 0x1389 PUSH2 0x153C JUMP JUMPDEST JUMPDEST DUP3 DUP3 ADD SWAP1 POP SWAP3 SWAP2 POP POP JUMP JUMPDEST PUSH1 0x0 PUSH2 0x13A0 DUP3 PUSH2 0x1437 JUMP JUMPDEST SWAP2 POP PUSH2 0x13AB DUP4 PUSH2 0x1437 JUMP JUMPDEST SWAP3 POP DUP2 PUSH32 0xFFFFFFFFFFFFFFFFFFFFFFFFFFFFFFFFFFFFFFFFFFFFFFFFFFFFFFFFFFFFFFFF DIV DUP4 GT DUP3 ISZERO ISZERO AND ISZERO PUSH2 0x13E4 JUMPI PUSH2 0x13E3 PUSH2 0x153C JUMP JUMPDEST JUMPDEST DUP3 DUP3 MUL SWAP1 POP SWAP3 SWAP2 POP POP JUMP JUMPDEST PUSH1 0x0 PUSH2 0x13FA DUP3 PUSH2 0x1417 JUMP JUMPDEST SWAP1 POP SWAP2 SWAP1 POP JUMP JUMPDEST PUSH1 0x0 DUP2 ISZERO ISZERO SWAP1 POP SWAP2 SWAP1 POP JUMP JUMPDEST PUSH1 0x0 DUP2 SWAP1 POP SWAP2 SWAP1 POP JUMP JUMPDEST PUSH1 0x0 PUSH20 0xFFFFFFFFFFFFFFFFFFFFFFFFFFFFFFFFFFFFFFFF DUP3 AND SWAP1 POP SWAP2 SWAP1 POP JUMP JUMPDEST PUSH1 0x0 DUP2 SWAP1 POP SWAP2 SWAP1 POP JUMP JUMPDEST PUSH1 0x0 PUSH2 0x144C DUP3 PUSH2 0x1437 JUMP JUMPDEST SWAP1 POP SWAP2 SWAP1 POP JUMP JUMPDEST PUSH1 0x0 PUSH2 0x145E DUP3 PUSH2 0x1437 JUMP JUMPDEST SWAP1 POP SWAP2 SWAP1 POP JUMP JUMPDEST PUSH1 0x0 PUSH2 0x1470 DUP3 PUSH2 0x1437 JUMP JUMPDEST SWAP1 POP SWAP2 SWAP1 POP JUMP JUMPDEST PUSH1 0x0 JUMPDEST DUP4 DUP2 LT ISZERO PUSH2 0x1495 JUMPI DUP1 DUP3 ADD MLOAD DUP2 DUP5 ADD MSTORE PUSH1 0x20 DUP2 ADD SWAP1 POP PUSH2 0x147A JUMP JUMPDEST DUP4 DUP2 GT ISZERO PUSH2 0x14A4 JUMPI PUSH1 0x0 DUP5 DUP5 ADD MSTORE JUMPDEST POP POP POP POP JUMP JUMPDEST PUSH1 0x0 PUSH2 0x14B5 DUP3 PUSH2 0x140D JUMP JUMPDEST SWAP2 POP PUSH32 0x7FFFFFFFFFFFFFFFFFFFFFFFFFFFFFFFFFFFFFFFFFFFFFFFFFFFFFFFFFFFFFFF DUP3 EQ ISZERO PUSH2 0x14E8 JUMPI PUSH2 0x14E7 PUSH2 0x153C JUMP JUMPDEST JUMPDEST PUSH1 0x1 DUP3 ADD SWAP1 POP SWAP2 SWAP1 POP JUMP JUMPDEST PUSH1 0x0 PUSH2 0x14FE DUP3 PUSH2 0x1437 JUMP JUMPDEST SWAP2 POP PUSH32 0xFFFFFFFFFFFFFFFFFFFFFFFFFFFFFFFFFFFFFFFFFFFFFFFFFFFFFFFFFFFFFFFF DUP3 EQ ISZERO PUSH2 0x1531 JUMPI PUSH2 0x1530 PUSH2 0x153C JUMP JUMPDEST JUMPDEST PUSH1 0x1 DUP3 ADD SWAP1 POP SWAP2 SWAP1 POP JUMP JUMPDEST PUSH32 0x4E487B7100000000000000000000000000000000000000000000000000000000 PUSH1 0x0 MSTORE PUSH1 0x11 PUSH1 0x4 MSTORE PUSH1 0x24 PUSH1 0x0 REVERT JUMPDEST PUSH32 0x4E487B7100000000000000000000000000000000000000000000000000000000 PUSH1 0x0 MSTORE PUSH1 0x32 PUSH1 0x4 MSTORE PUSH1 0x24 PUSH1 0x0 REVERT JUMPDEST PUSH32 0x4E487B7100000000000000000000000000000000000000000000000000000000 PUSH1 0x0 MSTORE PUSH1 0x41 PUSH1 0x4 MSTORE PUSH1 0x24 PUSH1 0x0 REVERT JUMPDEST PUSH1 0x0 DUP1 REVERT JUMPDEST PUSH1 0x0 PUSH1 0x1F NOT PUSH1 0x1F DUP4 ADD AND SWAP1 POP SWAP2 SWAP1 POP JUMP JUMPDEST PUSH32 0x4F6E6C79206D616E616765722063616E2063616C6C2100000000000000000000 PUSH1 0x0 DUP3 ADD MSTORE POP JUMP JUMPDEST PUSH32 0x49742773206A757374206265656E206C657373207468616E203130207365636F PUSH1 0x0 DUP3 ADD MSTORE PUSH32 0x6E64732100000000000000000000000000000000000000000000000000000000 PUSH1 0x20 DUP3 ADD MSTORE POP JUMP JUMPDEST PUSH32 0x4F6E6C7920636C69656E74732063616E2063616C6C2100000000000000000000 PUSH1 0x0 DUP3 ADD MSTORE POP JUMP JUMPDEST PUSH2 0x1689 DUP2 PUSH2 0x13EF JUMP JUMPDEST DUP2 EQ PUSH2 0x1694 JUMPI PUSH1 0x0 DUP1 REVERT JUMPDEST POP JUMP JUMPDEST PUSH2 0x16A0 DUP2 PUSH2 0x1401 JUMP JUMPDEST DUP2 EQ PUSH2 0x16AB JUMPI PUSH1 0x0 DUP1 REVERT JUMPDEST POP JUMP JUMPDEST PUSH2 0x16B7 DUP2 PUSH2 0x1437 JUMP JUMPDEST DUP2 EQ PUSH2 0x16C2 JUMPI PUSH1 0x0 DUP1 REVERT JUMPDEST POP JUMP INVALID LOG2 PUSH5 0x6970667358 0x22 SLT KECCAK256 0xCB 0xB0 GAS KECCAK256 0xAF MUL STOP 0xB0 0xCC PUSH19 0x17788466D4973C20952F14926D2053C62792B DUP15 PUSH7 0x3964736F6C6343 STOP ADDMOD SMOD STOP CALLER "
				},
				"gasEstimates": {
					"creation": {
						"codeDepositCost": "1176600",
						"executionCost": "6235",
						"totalCost": "1182835"
					},
					"external": {
						"approveToken()": "infinite",
						"deposit()": "infinite",
						"getClients()": "infinite",
						"getContractBalance()": "428",
						"getCountClient()": "2568",
						"interestDate(address)": "2902",
						"joinAsClient()": "142747",
						"mintcoke()": "infinite",
						"sendCoke(address,address,uint256)": "infinite",
						"sendInterest()": "infinite",
						"setManager(address)": "25296",
						"withdraw(uint256)": "infinite"
					}
				},
				"methodIdentifiers": {
					"approveToken()": "99b71d5c",
					"deposit()": "d0e30db0",
					"getClients()": "6db80995",
					"getContractBalance()": "6f9fb98a",
					"getCountClient()": "fef75470",
					"interestDate(address)": "d9dca6c5",
					"joinAsClient()": "a4092174",
					"mintcoke()": "2bbc7cac",
					"sendCoke(address,address,uint256)": "2855bd92",
					"sendInterest()": "9e0a5d68",
					"setManager(address)": "d0ebdbe7",
					"withdraw(uint256)": "2e1a7d4d"
				}
			},
			"storageLayout": {
				"storage": [
					{
						"astId": 59,
						"contract": "contracts/first_contract.sol:BankContract",
						"label": "clients",
						"offset": 0,
						"slot": "0",
						"type": "t_array(t_struct(client_account)55_storage)dyn_storage"
					},
					{
						"astId": 61,
						"contract": "contracts/first_contract.sol:BankContract",
						"label": "clientCounter",
						"offset": 0,
						"slot": "1",
						"type": "t_int256"
					},
					{
						"astId": 63,
						"contract": "contracts/first_contract.sol:BankContract",
						"label": "manager",
						"offset": 0,
						"slot": "2",
						"type": "t_address_payable"
					},
					{
						"astId": 67,
						"contract": "contracts/first_contract.sol:BankContract",
						"label": "interestDate",
						"offset": 0,
						"slot": "3",
						"type": "t_mapping(t_address,t_uint256)"
					}
				],
				"types": {
					"t_address": {
						"encoding": "inplace",
						"label": "address",
						"numberOfBytes": "20"
					},
					"t_address_payable": {
						"encoding": "inplace",
						"label": "address payable",
						"numberOfBytes": "20"
					},
					"t_array(t_struct(client_account)55_storage)dyn_storage": {
						"base": "t_struct(client_account)55_storage",
						"encoding": "dynamic_array",
						"label": "struct BankContract.client_account[]",
						"numberOfBytes": "32"
					},
					"t_int256": {
						"encoding": "inplace",
						"label": "int256",
						"numberOfBytes": "32"
					},
					"t_mapping(t_address,t_uint256)": {
						"encoding": "mapping",
						"key": "t_address",
						"label": "mapping(address => uint256)",
						"numberOfBytes": "32",
						"value": "t_uint256"
					},
					"t_struct(client_account)55_storage": {
						"encoding": "inplace",
						"label": "struct BankContract.client_account",
						"members": [
							{
								"astId": 50,
								"contract": "contracts/first_contract.sol:BankContract",
								"label": "client_id",
								"offset": 0,
								"slot": "0",
								"type": "t_int256"
							},
							{
								"astId": 52,
								"contract": "contracts/first_contract.sol:BankContract",
								"label": "client_address",
								"offset": 0,
								"slot": "1",
								"type": "t_address"
							},
							{
								"astId": 54,
								"contract": "contracts/first_contract.sol:BankContract",
								"label": "client_balance_in_ether",
								"offset": 0,
								"slot": "2",
								"type": "t_uint256"
							}
						],
						"numberOfBytes": "96"
					},
					"t_uint256": {
						"encoding": "inplace",
						"label": "uint256",
						"numberOfBytes": "32"
					}
				}
			},
			"userdoc": {
				"kind": "user",
				"methods": {},
				"version": 1
			}
		}
	}
}