{
	"contracts/first_contract.sol": {
		"BankContract": {
			"abi": [
				{
					"inputs": [],
					"stateMutability": "nonpayable",
					"type": "constructor"
				},
				{
					"inputs": [],
					"name": "deposit",
					"outputs": [],
					"stateMutability": "payable",
					"type": "function"
				},
				{
					"inputs": [],
					"name": "getClients",
					"outputs": [
						{
							"internalType": "address[]",
							"name": "",
							"type": "address[]"
						},
						{
							"internalType": "uint256[]",
							"name": "",
							"type": "uint256[]"
						}
					],
					"stateMutability": "view",
					"type": "function"
				},
				{
					"inputs": [],
					"name": "getContractBalance",
					"outputs": [
						{
							"internalType": "uint256",
							"name": "",
							"type": "uint256"
						}
					],
					"stateMutability": "view",
					"type": "function"
				},
				{
					"inputs": [],
					"name": "getCountClient",
					"outputs": [
						{
							"internalType": "uint256",
							"name": "",
							"type": "uint256"
						}
					],
					"stateMutability": "view",
					"type": "function"
				},
				{
					"inputs": [
						{
							"internalType": "address",
							"name": "",
							"type": "address"
						}
					],
					"name": "interestDate",
					"outputs": [
						{
							"internalType": "uint256",
							"name": "",
							"type": "uint256"
						}
					],
					"stateMutability": "view",
					"type": "function"
				},
				{
					"inputs": [],
					"name": "joinAsClient",
					"outputs": [
						{
							"internalType": "string",
							"name": "",
							"type": "string"
						}
					],
					"stateMutability": "payable",
					"type": "function"
				},
				{
					"inputs": [],
					"name": "mintcoke",
					"outputs": [],
					"stateMutability": "payable",
					"type": "function"
				},
				{
					"inputs": [
						{
							"internalType": "address",
							"name": "_from",
							"type": "address"
						},
						{
							"internalType": "address",
							"name": "_to",
							"type": "address"
						},
						{
							"internalType": "uint256",
							"name": "_value",
							"type": "uint256"
						}
					],
					"name": "sendCoke",
					"outputs": [],
					"stateMutability": "nonpayable",
					"type": "function"
				},
				{
					"inputs": [],
					"name": "sendInterest",
					"outputs": [],
					"stateMutability": "payable",
					"type": "function"
				},
				{
					"inputs": [
						{
							"internalType": "address",
							"name": "managerAddress",
							"type": "address"
						}
					],
					"name": "setManager",
					"outputs": [
						{
							"internalType": "string",
							"name": "",
							"type": "string"
						}
					],
					"stateMutability": "nonpayable",
					"type": "function"
				},
				{
					"inputs": [
						{
							"internalType": "uint256",
							"name": "amount",
							"type": "uint256"
						}
					],
					"name": "withdraw",
					"outputs": [],
					"stateMutability": "payable",
					"type": "function"
				},
				{
					"stateMutability": "payable",
					"type": "receive"
				}
			],
			"devdoc": {
				"kind": "dev",
				"methods": {},
				"version": 1
			},
			"evm": {
				"assembly": "    /* \"contracts/first_contract.sol\":523:4035  contract BankContract { \r... */\n  mstore(0x40, 0x80)\n    /* \"contracts/first_contract.sol\":830:880  constructor() {\r... */\n  callvalue\n  dup1\n  iszero\n  tag_1\n  jumpi\n  0x00\n  dup1\n  revert\ntag_1:\n  pop\n    /* \"contracts/first_contract.sol\":871:872  0 */\n  0x00\n    /* \"contracts/first_contract.sol\":855:868  clientCounter */\n  0x01\n    /* \"contracts/first_contract.sol\":855:872  clientCounter = 0 */\n  dup2\n  swap1\n  sstore\n  pop\n    /* \"contracts/first_contract.sol\":523:4035  contract BankContract { \r... */\n  dataSize(sub_0)\n  dup1\n  dataOffset(sub_0)\n  0x00\n  codecopy\n  0x00\n  return\nstop\n\nsub_0: assembly {\n        /* \"contracts/first_contract.sol\":523:4035  contract BankContract { \r... */\n      mstore(0x40, 0x80)\n      jumpi(tag_1, lt(calldatasize, 0x04))\n      shr(0xe0, calldataload(0x00))\n      dup1\n      0x9e0a5d68\n      gt\n      tag_14\n      jumpi\n      dup1\n      0x9e0a5d68\n      eq\n      tag_8\n      jumpi\n      dup1\n      0xa4092174\n      eq\n      tag_9\n      jumpi\n      dup1\n      0xd0e30db0\n      eq\n      tag_10\n      jumpi\n      dup1\n      0xd0ebdbe7\n      eq\n      tag_11\n      jumpi\n      dup1\n      0xd9dca6c5\n      eq\n      tag_12\n      jumpi\n      dup1\n      0xfef75470\n      eq\n      tag_13\n      jumpi\n      jump(tag_2)\n    tag_14:\n      dup1\n      0x2855bd92\n      eq\n      tag_3\n      jumpi\n      dup1\n      0x2bbc7cac\n      eq\n      tag_4\n      jumpi\n      dup1\n      0x2e1a7d4d\n      eq\n      tag_5\n      jumpi\n      dup1\n      0x6db80995\n      eq\n      tag_6\n      jumpi\n      dup1\n      0x6f9fb98a\n      eq\n      tag_7\n      jumpi\n      jump(tag_2)\n    tag_1:\n      jumpi(tag_2, calldatasize)\n      stop\n    tag_2:\n      0x00\n      dup1\n      revert\n        /* \"contracts/first_contract.sol\":3380:3870  function sendCoke(address _from, address _to, uint _value) external {\r... */\n    tag_3:\n      callvalue\n      dup1\n      iszero\n      tag_17\n      jumpi\n      0x00\n      dup1\n      revert\n    tag_17:\n      pop\n      tag_18\n      0x04\n      dup1\n      calldatasize\n      sub\n      dup2\n      add\n      swap1\n      tag_19\n      swap2\n      swap1\n      tag_20\n      jump\t// in\n    tag_19:\n      tag_21\n      jump\t// in\n    tag_18:\n      stop\n        /* \"contracts/first_contract.sol\":3878:4032  function mintcoke() external payable {\r... */\n    tag_4:\n      tag_22\n      tag_23\n      jump\t// in\n    tag_22:\n      stop\n        /* \"contracts/first_contract.sol\":1872:2055  function withdraw(uint amount) public payable onlyClients{\r... */\n    tag_5:\n      tag_24\n      0x04\n      dup1\n      calldatasize\n      sub\n      dup2\n      add\n      swap1\n      tag_25\n      swap2\n      swap1\n      tag_26\n      jump\t// in\n    tag_25:\n      tag_27\n      jump\t// in\n    tag_24:\n      stop\n        /* \"contracts/first_contract.sol\":2694:3264  function getClients() public view returns (address[] memory,uint[] memory) {\r... */\n    tag_6:\n      callvalue\n      dup1\n      iszero\n      tag_28\n      jumpi\n      0x00\n      dup1\n      revert\n    tag_28:\n      pop\n      tag_29\n      tag_30\n      jump\t// in\n    tag_29:\n      mload(0x40)\n      tag_31\n      swap3\n      swap2\n      swap1\n      tag_32\n      jump\t// in\n    tag_31:\n      mload(0x40)\n      dup1\n      swap2\n      sub\n      swap1\n      return\n        /* \"contracts/first_contract.sol\":3271:3373  function getContractBalance() public view returns(uint){\r... */\n    tag_7:\n      callvalue\n      dup1\n      iszero\n      tag_33\n      jumpi\n      0x00\n      dup1\n      revert\n    tag_33:\n      pop\n      tag_34\n      tag_35\n      jump\t// in\n    tag_34:\n      mload(0x40)\n      tag_36\n      swap2\n      swap1\n      tag_37\n      jump\t// in\n    tag_36:\n      mload(0x40)\n      dup1\n      swap2\n      sub\n      swap1\n      return\n        /* \"contracts/first_contract.sol\":2063:2553  function sendInterest() public payable onlyManager{\r... */\n    tag_8:\n      tag_38\n      tag_39\n      jump\t// in\n    tag_38:\n      stop\n        /* \"contracts/first_contract.sol\":1521:1751  function joinAsClient() public payable returns(string memory){\r... */\n    tag_9:\n      tag_40\n      tag_41\n      jump\t// in\n    tag_40:\n      mload(0x40)\n      tag_42\n      swap2\n      swap1\n      tag_43\n      jump\t// in\n    tag_42:\n      mload(0x40)\n      dup1\n      swap2\n      sub\n      swap1\n      return\n        /* \"contracts/first_contract.sol\":1761:1864  function deposit() public payable onlyClients{\r... */\n    tag_10:\n      tag_44\n      tag_45\n      jump\t// in\n    tag_44:\n      stop\n        /* \"contracts/first_contract.sol\":1374:1513  function setManager(address managerAddress) public returns(string memory){\r... */\n    tag_11:\n      callvalue\n      dup1\n      iszero\n      tag_46\n      jumpi\n      0x00\n      dup1\n      revert\n    tag_46:\n      pop\n      tag_47\n      0x04\n      dup1\n      calldatasize\n      sub\n      dup2\n      add\n      swap1\n      tag_48\n      swap2\n      swap1\n      tag_49\n      jump\t// in\n    tag_48:\n      tag_50\n      jump\t// in\n    tag_47:\n      mload(0x40)\n      tag_51\n      swap2\n      swap1\n      tag_43\n      jump\t// in\n    tag_51:\n      mload(0x40)\n      dup1\n      swap2\n      sub\n      swap1\n      return\n        /* \"contracts/first_contract.sol\":777:821  mapping(address => uint) public interestDate */\n    tag_12:\n      callvalue\n      dup1\n      iszero\n      tag_52\n      jumpi\n      0x00\n      dup1\n      revert\n    tag_52:\n      pop\n      tag_53\n      0x04\n      dup1\n      calldatasize\n      sub\n      dup2\n      add\n      swap1\n      tag_54\n      swap2\n      swap1\n      tag_49\n      jump\t// in\n    tag_54:\n      tag_55\n      jump\t// in\n    tag_53:\n      mload(0x40)\n      tag_56\n      swap2\n      swap1\n      tag_37\n      jump\t// in\n    tag_56:\n      mload(0x40)\n      dup1\n      swap2\n      sub\n      swap1\n      return\n        /* \"contracts/first_contract.sol\":2569:2686  function getCountClient() public view returns(uint){\r... */\n    tag_13:\n      callvalue\n      dup1\n      iszero\n      tag_57\n      jumpi\n      0x00\n      dup1\n      revert\n    tag_57:\n      pop\n      tag_58\n      tag_59\n      jump\t// in\n    tag_58:\n      mload(0x40)\n      tag_60\n      swap2\n      swap1\n      tag_37\n      jump\t// in\n    tag_60:\n      mload(0x40)\n      dup1\n      swap2\n      sub\n      swap1\n      return\n        /* \"contracts/first_contract.sol\":3380:3870  function sendCoke(address _from, address _to, uint _value) external {\r... */\n    tag_21:\n        /* \"contracts/first_contract.sol\":3654:3664  ERC20 coke */\n      0x00\n        /* \"contracts/first_contract.sol\":3681:3723  0xd9145CCE52D386f254917e481eB44e9943F39138 */\n      0xd9145cce52d386f254917e481eb44e9943f39138\n        /* \"contracts/first_contract.sol\":3654:3725  ERC20 coke = ERC20(address(0xd9145CCE52D386f254917e481eB44e9943F39138)) */\n      swap1\n      pop\n        /* \"contracts/first_contract.sol\":3827:3831  coke */\n      dup1\n        /* \"contracts/first_contract.sol\":3827:3844  coke.transferFrom */\n      0xffffffffffffffffffffffffffffffffffffffff\n      and\n      0x23b872dd\n        /* \"contracts/first_contract.sol\":3845:3850  _from */\n      dup6\n        /* \"contracts/first_contract.sol\":3851:3854  _to */\n      dup6\n        /* \"contracts/first_contract.sol\":3855:3861  _value */\n      dup6\n        /* \"contracts/first_contract.sol\":3827:3862  coke.transferFrom(_from,_to,_value) */\n      mload(0x40)\n      dup5\n      0xffffffff\n      and\n      0xe0\n      shl\n      dup2\n      mstore\n      0x04\n      add\n      tag_62\n      swap4\n      swap3\n      swap2\n      swap1\n      tag_63\n      jump\t// in\n    tag_62:\n      0x20\n      mload(0x40)\n      dup1\n      dup4\n      sub\n      dup2\n      0x00\n      dup8\n      dup1\n      extcodesize\n      iszero\n      dup1\n      iszero\n      tag_64\n      jumpi\n      0x00\n      dup1\n      revert\n    tag_64:\n      pop\n      gas\n      call\n      iszero\n      dup1\n      iszero\n      tag_66\n      jumpi\n      returndatasize\n      0x00\n      dup1\n      returndatacopy\n      revert(0x00, returndatasize)\n    tag_66:\n      pop\n      pop\n      pop\n      pop\n      mload(0x40)\n      returndatasize\n      not(0x1f)\n      0x1f\n      dup3\n      add\n      and\n      dup3\n      add\n      dup1\n      0x40\n      mstore\n      pop\n      dup2\n      add\n      swap1\n      tag_67\n      swap2\n      swap1\n      tag_68\n      jump\t// in\n    tag_67:\n      pop\n        /* \"contracts/first_contract.sol\":3448:3870  {\r... */\n      pop\n        /* \"contracts/first_contract.sol\":3380:3870  function sendCoke(address _from, address _to, uint _value) external {\r... */\n      pop\n      pop\n      pop\n      jump\t// out\n        /* \"contracts/first_contract.sol\":3878:4032  function mintcoke() external payable {\r... */\n    tag_23:\n        /* \"contracts/first_contract.sol\":3926:3937  ERC721 coke */\n      0x00\n        /* \"contracts/first_contract.sol\":3955:3997  0x4f7B4006d00f5E8FF0c91d22a379E8164AE7879f */\n      0x4f7b4006d00f5e8ff0c91d22a379e8164ae7879f\n        /* \"contracts/first_contract.sol\":3926:3999  ERC721 coke = ERC721(address(0x4f7B4006d00f5E8FF0c91d22a379E8164AE7879f)) */\n      swap1\n      pop\n        /* \"contracts/first_contract.sol\":4012:4016  coke */\n      dup1\n        /* \"contracts/first_contract.sol\":4012:4021  coke.mint */\n      0xffffffffffffffffffffffffffffffffffffffff\n      and\n      0xa0712d68\n        /* \"contracts/first_contract.sol\":4022:4023  1 */\n      0x01\n        /* \"contracts/first_contract.sol\":4012:4024  coke.mint(1) */\n      mload(0x40)\n      dup3\n      0xffffffff\n      and\n      0xe0\n      shl\n      dup2\n      mstore\n      0x04\n      add\n      tag_70\n      swap2\n      swap1\n      tag_71\n      jump\t// in\n    tag_70:\n      0x00\n      mload(0x40)\n      dup1\n      dup4\n      sub\n      dup2\n      0x00\n      dup8\n      dup1\n      extcodesize\n      iszero\n      dup1\n      iszero\n      tag_72\n      jumpi\n      0x00\n      dup1\n      revert\n    tag_72:\n      pop\n      gas\n      call\n      iszero\n      dup1\n      iszero\n      tag_74\n      jumpi\n      returndatasize\n      0x00\n      dup1\n      returndatacopy\n      revert(0x00, returndatasize)\n    tag_74:\n      pop\n      pop\n      pop\n      pop\n        /* \"contracts/first_contract.sol\":3915:4032  {\r... */\n      pop\n        /* \"contracts/first_contract.sol\":3878:4032  function mintcoke() external payable {\r... */\n      jump\t// out\n        /* \"contracts/first_contract.sol\":1872:2055  function withdraw(uint amount) public payable onlyClients{\r... */\n    tag_27:\n        /* \"contracts/first_contract.sol\":1040:1053  bool isClient */\n      0x00\n        /* \"contracts/first_contract.sol\":1076:1082  uint i */\n      dup1\n        /* \"contracts/first_contract.sol\":1072:1249  for(uint i=0;i<clients.length;i++){\r... */\n    tag_76:\n        /* \"contracts/first_contract.sol\":1087:1094  clients */\n      0x00\n        /* \"contracts/first_contract.sol\":1087:1101  clients.length */\n      dup1\n      sload\n      swap1\n      pop\n        /* \"contracts/first_contract.sol\":1085:1086  i */\n      dup2\n        /* \"contracts/first_contract.sol\":1085:1101  i<clients.length */\n      lt\n        /* \"contracts/first_contract.sol\":1072:1249  for(uint i=0;i<clients.length;i++){\r... */\n      iszero\n      tag_77\n      jumpi\n        /* \"contracts/first_contract.sol\":1153:1163  msg.sender */\n      caller\n        /* \"contracts/first_contract.sol\":1124:1163  clients[i].client_address == msg.sender */\n      0xffffffffffffffffffffffffffffffffffffffff\n      and\n        /* \"contracts/first_contract.sol\":1124:1131  clients */\n      0x00\n        /* \"contracts/first_contract.sol\":1132:1133  i */\n      dup3\n        /* \"contracts/first_contract.sol\":1124:1134  clients[i] */\n      dup2\n      sload\n      dup2\n      lt\n      tag_79\n      jumpi\n      tag_80\n      tag_81\n      jump\t// in\n    tag_80:\n    tag_79:\n      swap1\n      0x00\n      mstore\n      keccak256(0x00, 0x20)\n      swap1\n      0x03\n      mul\n      add\n        /* \"contracts/first_contract.sol\":1124:1149  clients[i].client_address */\n      0x01\n      add\n      0x00\n      swap1\n      sload\n      swap1\n      0x0100\n      exp\n      swap1\n      div\n      0xffffffffffffffffffffffffffffffffffffffff\n      and\n        /* \"contracts/first_contract.sol\":1124:1163  clients[i].client_address == msg.sender */\n      0xffffffffffffffffffffffffffffffffffffffff\n      and\n      eq\n        /* \"contracts/first_contract.sol\":1121:1238  if(clients[i].client_address == msg.sender){\r... */\n      iszero\n      tag_83\n      jumpi\n        /* \"contracts/first_contract.sol\":1194:1198  true */\n      0x01\n        /* \"contracts/first_contract.sol\":1183:1198  isClient = true */\n      swap2\n      pop\n        /* \"contracts/first_contract.sol\":1217:1222  break */\n      jump(tag_77)\n        /* \"contracts/first_contract.sol\":1121:1238  if(clients[i].client_address == msg.sender){\r... */\n    tag_83:\n        /* \"contracts/first_contract.sol\":1102:1105  i++ */\n      dup1\n      dup1\n      tag_84\n      swap1\n      tag_85\n      jump\t// in\n    tag_84:\n      swap2\n      pop\n      pop\n        /* \"contracts/first_contract.sol\":1072:1249  for(uint i=0;i<clients.length;i++){\r... */\n      jump(tag_76)\n    tag_77:\n      pop\n        /* \"contracts/first_contract.sol\":1267:1275  isClient */\n      dup1\n        /* \"contracts/first_contract.sol\":1259:1302  require(isClient, \"Only clients can call!\") */\n      tag_86\n      jumpi\n      mload(0x40)\n      0x08c379a000000000000000000000000000000000000000000000000000000000\n      dup2\n      mstore\n      0x04\n      add\n      tag_87\n      swap1\n      tag_88\n      jump\t// in\n    tag_87:\n      mload(0x40)\n      dup1\n      swap2\n      sub\n      swap1\n      revert\n    tag_86:\n        /* \"contracts/first_contract.sol\":1940:1959  address sender_temp */\n      0x00\n        /* \"contracts/first_contract.sol\":1984:1994  msg.sender */\n      caller\n        /* \"contracts/first_contract.sol\":1970:1994  sender_temp = msg.sender */\n      swap1\n      pop\n        /* \"contracts/first_contract.sol\":2010:2021  sender_temp */\n      dup1\n        /* \"contracts/first_contract.sol\":2002:2031  payable(sender_temp).transfer */\n      0xffffffffffffffffffffffffffffffffffffffff\n      and\n        /* \"contracts/first_contract.sol\":2002:2047  payable(sender_temp).transfer(amount * 1 wei) */\n      0x08fc\n        /* \"contracts/first_contract.sol\":2041:2046  1 wei */\n      0x01\n        /* \"contracts/first_contract.sol\":2032:2038  amount */\n      dup6\n        /* \"contracts/first_contract.sol\":2032:2046  amount * 1 wei */\n      tag_90\n      swap2\n      swap1\n      tag_91\n      jump\t// in\n    tag_90:\n        /* \"contracts/first_contract.sol\":2002:2047  payable(sender_temp).transfer(amount * 1 wei) */\n      swap1\n      dup2\n      iszero\n      mul\n      swap1\n      mload(0x40)\n      0x00\n      mload(0x40)\n      dup1\n      dup4\n      sub\n      dup2\n      dup6\n      dup9\n      dup9\n      call\n      swap4\n      pop\n      pop\n      pop\n      pop\n      iszero\n      dup1\n      iszero\n      tag_93\n      jumpi\n      returndatasize\n      0x00\n      dup1\n      returndatacopy\n      revert(0x00, returndatasize)\n    tag_93:\n      pop\n        /* \"contracts/first_contract.sol\":1929:2055  {\r... */\n      pop\n        /* \"contracts/first_contract.sol\":1029:1322  {\r... */\n      pop\n        /* \"contracts/first_contract.sol\":1872:2055  function withdraw(uint amount) public payable onlyClients{\r... */\n      pop\n      jump\t// out\n        /* \"contracts/first_contract.sol\":2694:3264  function getClients() public view returns (address[] memory,uint[] memory) {\r... */\n    tag_30:\n        /* \"contracts/first_contract.sol\":2737:2753  address[] memory */\n      0x60\n        /* \"contracts/first_contract.sol\":2754:2767  uint[] memory */\n      dup1\n        /* \"contracts/first_contract.sol\":2782:2813  address[] memory client_address */\n      0x00\n        /* \"contracts/first_contract.sol\":2830:2837  clients */\n      dup1\n        /* \"contracts/first_contract.sol\":2830:2844  clients.length */\n      dup1\n      sload\n      swap1\n      pop\n        /* \"contracts/first_contract.sol\":2816:2845  new address[](clients.length) */\n      0xffffffffffffffff\n      dup2\n      gt\n      iszero\n      tag_95\n      jumpi\n      tag_96\n      tag_97\n      jump\t// in\n    tag_96:\n    tag_95:\n      mload(0x40)\n      swap1\n      dup1\n      dup3\n      mstore\n      dup1\n      0x20\n      mul\n      0x20\n      add\n      dup3\n      add\n      0x40\n      mstore\n      dup1\n      iszero\n      tag_98\n      jumpi\n      dup2\n      0x20\n      add\n      0x20\n      dup3\n      mul\n      dup1\n      calldatasize\n      dup4\n      calldatacopy\n      dup1\n      dup3\n      add\n      swap2\n      pop\n      pop\n      swap1\n      pop\n    tag_98:\n      pop\n        /* \"contracts/first_contract.sol\":2782:2845  address[] memory client_address = new address[](clients.length) */\n      swap1\n      pop\n        /* \"contracts/first_contract.sol\":2854:2894  uint[]    memory client_balance_in_ether */\n      0x00\n        /* \"contracts/first_contract.sol\":2908:2915  clients */\n      dup1\n        /* \"contracts/first_contract.sol\":2908:2922  clients.length */\n      dup1\n      sload\n      swap1\n      pop\n        /* \"contracts/first_contract.sol\":2897:2923  new uint[](clients.length) */\n      0xffffffffffffffff\n      dup2\n      gt\n      iszero\n      tag_99\n      jumpi\n      tag_100\n      tag_97\n      jump\t// in\n    tag_100:\n    tag_99:\n      mload(0x40)\n      swap1\n      dup1\n      dup3\n      mstore\n      dup1\n      0x20\n      mul\n      0x20\n      add\n      dup3\n      add\n      0x40\n      mstore\n      dup1\n      iszero\n      tag_101\n      jumpi\n      dup2\n      0x20\n      add\n      0x20\n      dup3\n      mul\n      dup1\n      calldatasize\n      dup4\n      calldatacopy\n      dup1\n      dup3\n      add\n      swap2\n      pop\n      pop\n      swap1\n      pop\n    tag_101:\n      pop\n        /* \"contracts/first_contract.sol\":2854:2923  uint[]    memory client_balance_in_ether = new uint[](clients.length) */\n      swap1\n      pop\n        /* \"contracts/first_contract.sol\":2941:2947  uint i */\n      0x00\n        /* \"contracts/first_contract.sol\":2936:3187  for (uint i = 0; i < clients.length; i++) {\r... */\n    tag_102:\n        /* \"contracts/first_contract.sol\":2957:2964  clients */\n      0x00\n        /* \"contracts/first_contract.sol\":2957:2971  clients.length */\n      dup1\n      sload\n      swap1\n      pop\n        /* \"contracts/first_contract.sol\":2953:2954  i */\n      dup2\n        /* \"contracts/first_contract.sol\":2953:2971  i < clients.length */\n      lt\n        /* \"contracts/first_contract.sol\":2936:3187  for (uint i = 0; i < clients.length; i++) {\r... */\n      iszero\n      tag_103\n      jumpi\n        /* \"contracts/first_contract.sol\":3072:3079  clients */\n      0x00\n        /* \"contracts/first_contract.sol\":3080:3081  i */\n      dup2\n        /* \"contracts/first_contract.sol\":3072:3082  clients[i] */\n      dup2\n      sload\n      dup2\n      lt\n      tag_105\n      jumpi\n      tag_106\n      tag_81\n      jump\t// in\n    tag_106:\n    tag_105:\n      swap1\n      0x00\n      mstore\n      keccak256(0x00, 0x20)\n      swap1\n      0x03\n      mul\n      add\n        /* \"contracts/first_contract.sol\":3072:3097  clients[i].client_address */\n      0x01\n      add\n      0x00\n      swap1\n      sload\n      swap1\n      0x0100\n      exp\n      swap1\n      div\n      0xffffffffffffffffffffffffffffffffffffffff\n      and\n        /* \"contracts/first_contract.sol\":3052:3066  client_address */\n      dup4\n        /* \"contracts/first_contract.sol\":3067:3068  i */\n      dup3\n        /* \"contracts/first_contract.sol\":3052:3069  client_address[i] */\n      dup2\n      mload\n      dup2\n      lt\n      tag_108\n      jumpi\n      tag_109\n      tag_81\n      jump\t// in\n    tag_109:\n    tag_108:\n      0x20\n      mul\n      0x20\n      add\n      add\n        /* \"contracts/first_contract.sol\":3052:3097  client_address[i] = clients[i].client_address */\n      swap1\n      0xffffffffffffffffffffffffffffffffffffffff\n      and\n      swap1\n      dup2\n      0xffffffffffffffffffffffffffffffffffffffff\n      and\n      dup2\n      mstore\n      pop\n      pop\n        /* \"contracts/first_contract.sol\":3141:3148  clients */\n      0x00\n        /* \"contracts/first_contract.sol\":3149:3150  i */\n      dup2\n        /* \"contracts/first_contract.sol\":3141:3151  clients[i] */\n      dup2\n      sload\n      dup2\n      lt\n      tag_110\n      jumpi\n      tag_111\n      tag_81\n      jump\t// in\n    tag_111:\n    tag_110:\n      swap1\n      0x00\n      mstore\n      keccak256(0x00, 0x20)\n      swap1\n      0x03\n      mul\n      add\n        /* \"contracts/first_contract.sol\":3141:3175  clients[i].client_balance_in_ether */\n      0x02\n      add\n      sload\n        /* \"contracts/first_contract.sol\":3112:3135  client_balance_in_ether */\n      dup3\n        /* \"contracts/first_contract.sol\":3136:3137  i */\n      dup3\n        /* \"contracts/first_contract.sol\":3112:3138  client_balance_in_ether[i] */\n      dup2\n      mload\n      dup2\n      lt\n      tag_113\n      jumpi\n      tag_114\n      tag_81\n      jump\t// in\n    tag_114:\n    tag_113:\n      0x20\n      mul\n      0x20\n      add\n      add\n        /* \"contracts/first_contract.sol\":3112:3175  client_balance_in_ether[i] = clients[i].client_balance_in_ether */\n      dup2\n      dup2\n      mstore\n      pop\n      pop\n        /* \"contracts/first_contract.sol\":2973:2976  i++ */\n      dup1\n      dup1\n      tag_115\n      swap1\n      tag_85\n      jump\t// in\n    tag_115:\n      swap2\n      pop\n      pop\n        /* \"contracts/first_contract.sol\":2936:3187  for (uint i = 0; i < clients.length; i++) {\r... */\n      jump(tag_102)\n    tag_103:\n      pop\n        /* \"contracts/first_contract.sol\":3215:3229  client_address */\n      dup2\n        /* \"contracts/first_contract.sol\":3231:3254  client_balance_in_ether */\n      dup2\n        /* \"contracts/first_contract.sol\":3207:3255  return (client_address, client_balance_in_ether) */\n      swap4\n      pop\n      swap4\n      pop\n      pop\n      pop\n        /* \"contracts/first_contract.sol\":2694:3264  function getClients() public view returns (address[] memory,uint[] memory) {\r... */\n      swap1\n      swap2\n      jump\t// out\n        /* \"contracts/first_contract.sol\":3271:3373  function getContractBalance() public view returns(uint){\r... */\n    tag_35:\n        /* \"contracts/first_contract.sol\":3321:3325  uint */\n      0x00\n        /* \"contracts/first_contract.sol\":3344:3365  address(this).balance */\n      selfbalance\n        /* \"contracts/first_contract.sol\":3337:3365  return address(this).balance */\n      swap1\n      pop\n        /* \"contracts/first_contract.sol\":3271:3373  function getContractBalance() public view returns(uint){\r... */\n      swap1\n      jump\t// out\n        /* \"contracts/first_contract.sol\":2063:2553  function sendInterest() public payable onlyManager{\r... */\n    tag_39:\n        /* \"contracts/first_contract.sol\":946:953  manager */\n      0x02\n      0x00\n      swap1\n      sload\n      swap1\n      0x0100\n      exp\n      swap1\n      div\n      0xffffffffffffffffffffffffffffffffffffffff\n      and\n        /* \"contracts/first_contract.sol\":932:953  msg.sender == manager */\n      0xffffffffffffffffffffffffffffffffffffffff\n      and\n        /* \"contracts/first_contract.sol\":932:942  msg.sender */\n      caller\n        /* \"contracts/first_contract.sol\":932:953  msg.sender == manager */\n      0xffffffffffffffffffffffffffffffffffffffff\n      and\n      eq\n        /* \"contracts/first_contract.sol\":924:980  require(msg.sender == manager, \"Only manager can call!\") */\n      tag_118\n      jumpi\n      mload(0x40)\n      0x08c379a000000000000000000000000000000000000000000000000000000000\n      dup2\n      mstore\n      0x04\n      add\n      tag_119\n      swap1\n      tag_120\n      jump\t// in\n    tag_119:\n      mload(0x40)\n      dup1\n      swap2\n      sub\n      swap1\n      revert\n    tag_118:\n        /* \"contracts/first_contract.sol\":2125:2131  uint i */\n      0x00\n        /* \"contracts/first_contract.sol\":2121:2546  for(uint i=0;i<clients.length;i++){\r... */\n    tag_122:\n        /* \"contracts/first_contract.sol\":2136:2143  clients */\n      0x00\n        /* \"contracts/first_contract.sol\":2136:2150  clients.length */\n      dup1\n      sload\n      swap1\n      pop\n        /* \"contracts/first_contract.sol\":2134:2135  i */\n      dup2\n        /* \"contracts/first_contract.sol\":2134:2150  i<clients.length */\n      lt\n        /* \"contracts/first_contract.sol\":2121:2546  for(uint i=0;i<clients.length;i++){\r... */\n      iszero\n      tag_123\n      jumpi\n        /* \"contracts/first_contract.sol\":2168:2190  address initialAddress */\n      0x00\n        /* \"contracts/first_contract.sol\":2193:2200  clients */\n      dup1\n        /* \"contracts/first_contract.sol\":2201:2202  i */\n      dup3\n        /* \"contracts/first_contract.sol\":2193:2203  clients[i] */\n      dup2\n      sload\n      dup2\n      lt\n      tag_125\n      jumpi\n      tag_126\n      tag_81\n      jump\t// in\n    tag_126:\n    tag_125:\n      swap1\n      0x00\n      mstore\n      keccak256(0x00, 0x20)\n      swap1\n      0x03\n      mul\n      add\n        /* \"contracts/first_contract.sol\":2193:2218  clients[i].client_address */\n      0x01\n      add\n      0x00\n      swap1\n      sload\n      swap1\n      0x0100\n      exp\n      swap1\n      div\n      0xffffffffffffffffffffffffffffffffffffffff\n      and\n        /* \"contracts/first_contract.sol\":2168:2218  address initialAddress = clients[i].client_address */\n      swap1\n      pop\n        /* \"contracts/first_contract.sol\":2231:2252  uint lastInterestDate */\n      0x00\n        /* \"contracts/first_contract.sol\":2255:2267  interestDate */\n      0x03\n        /* \"contracts/first_contract.sol\":2255:2283  interestDate[initialAddress] */\n      0x00\n        /* \"contracts/first_contract.sol\":2268:2282  initialAddress */\n      dup4\n        /* \"contracts/first_contract.sol\":2255:2283  interestDate[initialAddress] */\n      0xffffffffffffffffffffffffffffffffffffffff\n      and\n      0xffffffffffffffffffffffffffffffffffffffff\n      and\n      dup2\n      mstore\n      0x20\n      add\n      swap1\n      dup2\n      mstore\n      0x20\n      add\n      0x00\n      keccak256\n      sload\n        /* \"contracts/first_contract.sol\":2231:2283  uint lastInterestDate = interestDate[initialAddress] */\n      swap1\n      pop\n        /* \"contracts/first_contract.sol\":2336:2346  10 seconds */\n      0x0a\n        /* \"contracts/first_contract.sol\":2317:2333  lastInterestDate */\n      dup2\n        /* \"contracts/first_contract.sol\":2317:2346  lastInterestDate + 10 seconds */\n      tag_128\n      swap2\n      swap1\n      tag_129\n      jump\t// in\n    tag_128:\n        /* \"contracts/first_contract.sol\":2299:2314  block.timestamp */\n      timestamp\n        /* \"contracts/first_contract.sol\":2299:2346  block.timestamp < lastInterestDate + 10 seconds */\n      lt\n        /* \"contracts/first_contract.sol\":2296:2425  if(block.timestamp < lastInterestDate + 10 seconds){\r... */\n      iszero\n      tag_130\n      jumpi\n        /* \"contracts/first_contract.sol\":2365:2411  revert(\"It's just been less than 10 seconds!\") */\n      mload(0x40)\n      0x08c379a000000000000000000000000000000000000000000000000000000000\n      dup2\n      mstore\n      0x04\n      add\n      tag_131\n      swap1\n      tag_132\n      jump\t// in\n    tag_131:\n      mload(0x40)\n      dup1\n      swap2\n      sub\n      swap1\n      revert\n        /* \"contracts/first_contract.sol\":2296:2425  if(block.timestamp < lastInterestDate + 10 seconds){\r... */\n    tag_130:\n        /* \"contracts/first_contract.sol\":2445:2459  initialAddress */\n      dup2\n        /* \"contracts/first_contract.sol\":2437:2469  payable(initialAddress).transfer */\n      0xffffffffffffffffffffffffffffffffffffffff\n      and\n        /* \"contracts/first_contract.sol\":2437:2478  payable(initialAddress).transfer(1 ether) */\n      0x08fc\n        /* \"contracts/first_contract.sol\":2470:2477  1 ether */\n      0x0de0b6b3a7640000\n        /* \"contracts/first_contract.sol\":2437:2478  payable(initialAddress).transfer(1 ether) */\n      swap1\n      dup2\n      iszero\n      mul\n      swap1\n      mload(0x40)\n      0x00\n      mload(0x40)\n      dup1\n      dup4\n      sub\n      dup2\n      dup6\n      dup9\n      dup9\n      call\n      swap4\n      pop\n      pop\n      pop\n      pop\n      iszero\n      dup1\n      iszero\n      tag_134\n      jumpi\n      returndatasize\n      0x00\n      dup1\n      returndatacopy\n      revert(0x00, returndatasize)\n    tag_134:\n      pop\n        /* \"contracts/first_contract.sol\":2522:2537  block.timestamp */\n      timestamp\n        /* \"contracts/first_contract.sol\":2491:2503  interestDate */\n      0x03\n        /* \"contracts/first_contract.sol\":2491:2519  interestDate[initialAddress] */\n      0x00\n        /* \"contracts/first_contract.sol\":2504:2518  initialAddress */\n      dup5\n        /* \"contracts/first_contract.sol\":2491:2519  interestDate[initialAddress] */\n      0xffffffffffffffffffffffffffffffffffffffff\n      and\n      0xffffffffffffffffffffffffffffffffffffffff\n      and\n      dup2\n      mstore\n      0x20\n      add\n      swap1\n      dup2\n      mstore\n      0x20\n      add\n      0x00\n      keccak256\n        /* \"contracts/first_contract.sol\":2491:2537  interestDate[initialAddress] = block.timestamp */\n      dup2\n      swap1\n      sstore\n      pop\n        /* \"contracts/first_contract.sol\":2155:2546  {\r... */\n      pop\n      pop\n        /* \"contracts/first_contract.sol\":2151:2154  i++ */\n      dup1\n      dup1\n      tag_135\n      swap1\n      tag_85\n      jump\t// in\n    tag_135:\n      swap2\n      pop\n      pop\n        /* \"contracts/first_contract.sol\":2121:2546  for(uint i=0;i<clients.length;i++){\r... */\n      jump(tag_122)\n    tag_123:\n      pop\n        /* \"contracts/first_contract.sol\":2063:2553  function sendInterest() public payable onlyManager{\r... */\n      jump\t// out\n        /* \"contracts/first_contract.sol\":1521:1751  function joinAsClient() public payable returns(string memory){\r... */\n    tag_41:\n        /* \"contracts/first_contract.sol\":1568:1581  string memory */\n      0x60\n        /* \"contracts/first_contract.sol\":1617:1632  block.timestamp */\n      timestamp\n        /* \"contracts/first_contract.sol\":1590:1602  interestDate */\n      0x03\n        /* \"contracts/first_contract.sol\":1590:1614  interestDate[msg.sender] */\n      0x00\n        /* \"contracts/first_contract.sol\":1603:1613  msg.sender */\n      caller\n        /* \"contracts/first_contract.sol\":1590:1614  interestDate[msg.sender] */\n      0xffffffffffffffffffffffffffffffffffffffff\n      and\n      0xffffffffffffffffffffffffffffffffffffffff\n      and\n      dup2\n      mstore\n      0x20\n      add\n      swap1\n      dup2\n      mstore\n      0x20\n      add\n      0x00\n      keccak256\n        /* \"contracts/first_contract.sol\":1590:1632  interestDate[msg.sender] = block.timestamp */\n      dup2\n      swap1\n      sstore\n      pop\n        /* \"contracts/first_contract.sol\":1640:1647  clients */\n      0x00\n        /* \"contracts/first_contract.sol\":1653:1725  client_account(clientCounter++, msg.sender, address(msg.sender).balance) */\n      mload(0x40)\n      dup1\n      0x60\n      add\n      0x40\n      mstore\n      dup1\n        /* \"contracts/first_contract.sol\":1668:1681  clientCounter */\n      0x01\n      0x00\n        /* \"contracts/first_contract.sol\":1668:1683  clientCounter++ */\n      dup2\n      sload\n      dup1\n      swap3\n      swap2\n      swap1\n      tag_137\n      swap1\n      tag_138\n      jump\t// in\n    tag_137:\n      swap2\n      swap1\n      pop\n      sstore\n        /* \"contracts/first_contract.sol\":1653:1725  client_account(clientCounter++, msg.sender, address(msg.sender).balance) */\n      dup2\n      mstore\n      0x20\n      add\n        /* \"contracts/first_contract.sol\":1685:1695  msg.sender */\n      caller\n        /* \"contracts/first_contract.sol\":1653:1725  client_account(clientCounter++, msg.sender, address(msg.sender).balance) */\n      0xffffffffffffffffffffffffffffffffffffffff\n      and\n      dup2\n      mstore\n      0x20\n      add\n        /* \"contracts/first_contract.sol\":1705:1715  msg.sender */\n      caller\n        /* \"contracts/first_contract.sol\":1697:1724  address(msg.sender).balance */\n      0xffffffffffffffffffffffffffffffffffffffff\n      and\n      balance\n        /* \"contracts/first_contract.sol\":1653:1725  client_account(clientCounter++, msg.sender, address(msg.sender).balance) */\n      dup2\n      mstore\n      pop\n        /* \"contracts/first_contract.sol\":1640:1726  clients.push(client_account(clientCounter++, msg.sender, address(msg.sender).balance)) */\n      swap1\n      dup1\n      0x01\n      dup2\n      sload\n      add\n      dup1\n      dup3\n      sstore\n      dup1\n      swap2\n      pop\n      pop\n      0x01\n      swap1\n      sub\n      swap1\n      0x00\n      mstore\n      keccak256(0x00, 0x20)\n      swap1\n      0x03\n      mul\n      add\n      0x00\n      swap1\n      swap2\n      swap1\n      swap2\n      swap1\n      swap2\n      pop\n      0x00\n      dup3\n      add\n      mload\n      dup2\n      0x00\n      add\n      sstore\n      0x20\n      dup3\n      add\n      mload\n      dup2\n      0x01\n      add\n      exp(0x0100, 0x00)\n      dup2\n      sload\n      dup2\n      0xffffffffffffffffffffffffffffffffffffffff\n      mul\n      not\n      and\n      swap1\n      dup4\n      0xffffffffffffffffffffffffffffffffffffffff\n      and\n      mul\n      or\n      swap1\n      sstore\n      pop\n      0x40\n      dup3\n      add\n      mload\n      dup2\n      0x02\n      add\n      sstore\n      pop\n      pop\n        /* \"contracts/first_contract.sol\":1734:1743  return \"\" */\n      mload(0x40)\n      dup1\n      0x20\n      add\n      0x40\n      mstore\n      dup1\n      0x00\n      dup2\n      mstore\n      pop\n      swap1\n      pop\n        /* \"contracts/first_contract.sol\":1521:1751  function joinAsClient() public payable returns(string memory){\r... */\n      swap1\n      jump\t// out\n        /* \"contracts/first_contract.sol\":1761:1864  function deposit() public payable onlyClients{\r... */\n    tag_45:\n        /* \"contracts/first_contract.sol\":1040:1053  bool isClient */\n      0x00\n        /* \"contracts/first_contract.sol\":1076:1082  uint i */\n      dup1\n        /* \"contracts/first_contract.sol\":1072:1249  for(uint i=0;i<clients.length;i++){\r... */\n    tag_141:\n        /* \"contracts/first_contract.sol\":1087:1094  clients */\n      0x00\n        /* \"contracts/first_contract.sol\":1087:1101  clients.length */\n      dup1\n      sload\n      swap1\n      pop\n        /* \"contracts/first_contract.sol\":1085:1086  i */\n      dup2\n        /* \"contracts/first_contract.sol\":1085:1101  i<clients.length */\n      lt\n        /* \"contracts/first_contract.sol\":1072:1249  for(uint i=0;i<clients.length;i++){\r... */\n      iszero\n      tag_142\n      jumpi\n        /* \"contracts/first_contract.sol\":1153:1163  msg.sender */\n      caller\n        /* \"contracts/first_contract.sol\":1124:1163  clients[i].client_address == msg.sender */\n      0xffffffffffffffffffffffffffffffffffffffff\n      and\n        /* \"contracts/first_contract.sol\":1124:1131  clients */\n      0x00\n        /* \"contracts/first_contract.sol\":1132:1133  i */\n      dup3\n        /* \"contracts/first_contract.sol\":1124:1134  clients[i] */\n      dup2\n      sload\n      dup2\n      lt\n      tag_144\n      jumpi\n      tag_145\n      tag_81\n      jump\t// in\n    tag_145:\n    tag_144:\n      swap1\n      0x00\n      mstore\n      keccak256(0x00, 0x20)\n      swap1\n      0x03\n      mul\n      add\n        /* \"contracts/first_contract.sol\":1124:1149  clients[i].client_address */\n      0x01\n      add\n      0x00\n      swap1\n      sload\n      swap1\n      0x0100\n      exp\n      swap1\n      div\n      0xffffffffffffffffffffffffffffffffffffffff\n      and\n        /* \"contracts/first_contract.sol\":1124:1163  clients[i].client_address == msg.sender */\n      0xffffffffffffffffffffffffffffffffffffffff\n      and\n      eq\n        /* \"contracts/first_contract.sol\":1121:1238  if(clients[i].client_address == msg.sender){\r... */\n      iszero\n      tag_147\n      jumpi\n        /* \"contracts/first_contract.sol\":1194:1198  true */\n      0x01\n        /* \"contracts/first_contract.sol\":1183:1198  isClient = true */\n      swap2\n      pop\n        /* \"contracts/first_contract.sol\":1217:1222  break */\n      jump(tag_142)\n        /* \"contracts/first_contract.sol\":1121:1238  if(clients[i].client_address == msg.sender){\r... */\n    tag_147:\n        /* \"contracts/first_contract.sol\":1102:1105  i++ */\n      dup1\n      dup1\n      tag_148\n      swap1\n      tag_85\n      jump\t// in\n    tag_148:\n      swap2\n      pop\n      pop\n        /* \"contracts/first_contract.sol\":1072:1249  for(uint i=0;i<clients.length;i++){\r... */\n      jump(tag_141)\n    tag_142:\n      pop\n        /* \"contracts/first_contract.sol\":1267:1275  isClient */\n      dup1\n        /* \"contracts/first_contract.sol\":1259:1302  require(isClient, \"Only clients can call!\") */\n      tag_149\n      jumpi\n      mload(0x40)\n      0x08c379a000000000000000000000000000000000000000000000000000000000\n      dup2\n      mstore\n      0x04\n      add\n      tag_150\n      swap1\n      tag_88\n      jump\t// in\n    tag_150:\n      mload(0x40)\n      dup1\n      swap2\n      sub\n      swap1\n      revert\n    tag_149:\n        /* \"contracts/first_contract.sol\":1830:1834  this */\n      address\n        /* \"contracts/first_contract.sol\":1814:1845  payable(address(this)).transfer */\n      0xffffffffffffffffffffffffffffffffffffffff\n      and\n        /* \"contracts/first_contract.sol\":1814:1856  payable(address(this)).transfer(msg.value) */\n      0x08fc\n        /* \"contracts/first_contract.sol\":1846:1855  msg.value */\n      callvalue\n        /* \"contracts/first_contract.sol\":1814:1856  payable(address(this)).transfer(msg.value) */\n      swap1\n      dup2\n      iszero\n      mul\n      swap1\n      mload(0x40)\n      0x00\n      mload(0x40)\n      dup1\n      dup4\n      sub\n      dup2\n      dup6\n      dup9\n      dup9\n      call\n      swap4\n      pop\n      pop\n      pop\n      pop\n      iszero\n      dup1\n      iszero\n      tag_153\n      jumpi\n      returndatasize\n      0x00\n      dup1\n      returndatacopy\n      revert(0x00, returndatasize)\n    tag_153:\n      pop\n        /* \"contracts/first_contract.sol\":1029:1322  {\r... */\n      pop\n        /* \"contracts/first_contract.sol\":1761:1864  function deposit() public payable onlyClients{\r... */\n      jump\t// out\n        /* \"contracts/first_contract.sol\":1374:1513  function setManager(address managerAddress) public returns(string memory){\r... */\n    tag_50:\n        /* \"contracts/first_contract.sol\":1433:1446  string memory */\n      0x60\n        /* \"contracts/first_contract.sol\":1473:1487  managerAddress */\n      dup2\n        /* \"contracts/first_contract.sol\":1455:1462  manager */\n      0x02\n      0x00\n        /* \"contracts/first_contract.sol\":1455:1488  manager = payable(managerAddress) */\n      0x0100\n      exp\n      dup2\n      sload\n      dup2\n      0xffffffffffffffffffffffffffffffffffffffff\n      mul\n      not\n      and\n      swap1\n      dup4\n      0xffffffffffffffffffffffffffffffffffffffff\n      and\n      mul\n      or\n      swap1\n      sstore\n      pop\n        /* \"contracts/first_contract.sol\":1496:1505  return \"\" */\n      mload(0x40)\n      dup1\n      0x20\n      add\n      0x40\n      mstore\n      dup1\n      0x00\n      dup2\n      mstore\n      pop\n      swap1\n      pop\n        /* \"contracts/first_contract.sol\":1374:1513  function setManager(address managerAddress) public returns(string memory){\r... */\n      swap2\n      swap1\n      pop\n      jump\t// out\n        /* \"contracts/first_contract.sol\":777:821  mapping(address => uint) public interestDate */\n    tag_55:\n      mstore(0x20, 0x03)\n      dup1\n      0x00\n      mstore\n      keccak256(0x00, 0x40)\n      0x00\n      swap2\n      pop\n      swap1\n      pop\n      sload\n      dup2\n      jump\t// out\n        /* \"contracts/first_contract.sol\":2569:2686  function getCountClient() public view returns(uint){\r... */\n    tag_59:\n        /* \"contracts/first_contract.sol\":2615:2619  uint */\n      0x00\n        /* \"contracts/first_contract.sol\":2631:2641  uint count */\n      dup1\n        /* \"contracts/first_contract.sol\":2644:2651  clients */\n      0x00\n        /* \"contracts/first_contract.sol\":2644:2658  clients.length */\n      dup1\n      sload\n      swap1\n      pop\n        /* \"contracts/first_contract.sol\":2631:2658  uint count = clients.length */\n      swap1\n      pop\n        /* \"contracts/first_contract.sol\":2673:2678  count */\n      dup1\n        /* \"contracts/first_contract.sol\":2666:2678  return count */\n      swap2\n      pop\n      pop\n        /* \"contracts/first_contract.sol\":2569:2686  function getCountClient() public view returns(uint){\r... */\n      swap1\n      jump\t// out\n        /* \"#utility.yul\":7:146   */\n    tag_157:\n        /* \"#utility.yul\":53:58   */\n      0x00\n        /* \"#utility.yul\":91:97   */\n      dup2\n        /* \"#utility.yul\":78:98   */\n      calldataload\n        /* \"#utility.yul\":69:98   */\n      swap1\n      pop\n        /* \"#utility.yul\":107:140   */\n      tag_159\n        /* \"#utility.yul\":134:139   */\n      dup2\n        /* \"#utility.yul\":107:140   */\n      tag_160\n      jump\t// in\n    tag_159:\n        /* \"#utility.yul\":7:146   */\n      swap3\n      swap2\n      pop\n      pop\n      jump\t// out\n        /* \"#utility.yul\":152:289   */\n    tag_161:\n        /* \"#utility.yul\":206:211   */\n      0x00\n        /* \"#utility.yul\":237:243   */\n      dup2\n        /* \"#utility.yul\":231:244   */\n      mload\n        /* \"#utility.yul\":222:244   */\n      swap1\n      pop\n        /* \"#utility.yul\":253:283   */\n      tag_163\n        /* \"#utility.yul\":277:282   */\n      dup2\n        /* \"#utility.yul\":253:283   */\n      tag_164\n      jump\t// in\n    tag_163:\n        /* \"#utility.yul\":152:289   */\n      swap3\n      swap2\n      pop\n      pop\n      jump\t// out\n        /* \"#utility.yul\":295:434   */\n    tag_165:\n        /* \"#utility.yul\":341:346   */\n      0x00\n        /* \"#utility.yul\":379:385   */\n      dup2\n        /* \"#utility.yul\":366:386   */\n      calldataload\n        /* \"#utility.yul\":357:386   */\n      swap1\n      pop\n        /* \"#utility.yul\":395:428   */\n      tag_167\n        /* \"#utility.yul\":422:427   */\n      dup2\n        /* \"#utility.yul\":395:428   */\n      tag_168\n      jump\t// in\n    tag_167:\n        /* \"#utility.yul\":295:434   */\n      swap3\n      swap2\n      pop\n      pop\n      jump\t// out\n        /* \"#utility.yul\":440:769   */\n    tag_49:\n        /* \"#utility.yul\":499:505   */\n      0x00\n        /* \"#utility.yul\":548:550   */\n      0x20\n        /* \"#utility.yul\":536:545   */\n      dup3\n        /* \"#utility.yul\":527:534   */\n      dup5\n        /* \"#utility.yul\":523:546   */\n      sub\n        /* \"#utility.yul\":519:551   */\n      slt\n        /* \"#utility.yul\":516:635   */\n      iszero\n      tag_170\n      jumpi\n        /* \"#utility.yul\":554:633   */\n      tag_171\n      tag_172\n      jump\t// in\n    tag_171:\n        /* \"#utility.yul\":516:635   */\n    tag_170:\n        /* \"#utility.yul\":674:675   */\n      0x00\n        /* \"#utility.yul\":699:752   */\n      tag_173\n        /* \"#utility.yul\":744:751   */\n      dup5\n        /* \"#utility.yul\":735:741   */\n      dup3\n        /* \"#utility.yul\":724:733   */\n      dup6\n        /* \"#utility.yul\":720:742   */\n      add\n        /* \"#utility.yul\":699:752   */\n      tag_157\n      jump\t// in\n    tag_173:\n        /* \"#utility.yul\":689:752   */\n      swap2\n      pop\n        /* \"#utility.yul\":645:762   */\n      pop\n        /* \"#utility.yul\":440:769   */\n      swap3\n      swap2\n      pop\n      pop\n      jump\t// out\n        /* \"#utility.yul\":775:1394   */\n    tag_20:\n        /* \"#utility.yul\":852:858   */\n      0x00\n        /* \"#utility.yul\":860:866   */\n      dup1\n        /* \"#utility.yul\":868:874   */\n      0x00\n        /* \"#utility.yul\":917:919   */\n      0x60\n        /* \"#utility.yul\":905:914   */\n      dup5\n        /* \"#utility.yul\":896:903   */\n      dup7\n        /* \"#utility.yul\":892:915   */\n      sub\n        /* \"#utility.yul\":888:920   */\n      slt\n        /* \"#utility.yul\":885:1004   */\n      iszero\n      tag_175\n      jumpi\n        /* \"#utility.yul\":923:1002   */\n      tag_176\n      tag_172\n      jump\t// in\n    tag_176:\n        /* \"#utility.yul\":885:1004   */\n    tag_175:\n        /* \"#utility.yul\":1043:1044   */\n      0x00\n        /* \"#utility.yul\":1068:1121   */\n      tag_177\n        /* \"#utility.yul\":1113:1120   */\n      dup7\n        /* \"#utility.yul\":1104:1110   */\n      dup3\n        /* \"#utility.yul\":1093:1102   */\n      dup8\n        /* \"#utility.yul\":1089:1111   */\n      add\n        /* \"#utility.yul\":1068:1121   */\n      tag_157\n      jump\t// in\n    tag_177:\n        /* \"#utility.yul\":1058:1121   */\n      swap4\n      pop\n        /* \"#utility.yul\":1014:1131   */\n      pop\n        /* \"#utility.yul\":1170:1172   */\n      0x20\n        /* \"#utility.yul\":1196:1249   */\n      tag_178\n        /* \"#utility.yul\":1241:1248   */\n      dup7\n        /* \"#utility.yul\":1232:1238   */\n      dup3\n        /* \"#utility.yul\":1221:1230   */\n      dup8\n        /* \"#utility.yul\":1217:1239   */\n      add\n        /* \"#utility.yul\":1196:1249   */\n      tag_157\n      jump\t// in\n    tag_178:\n        /* \"#utility.yul\":1186:1249   */\n      swap3\n      pop\n        /* \"#utility.yul\":1141:1259   */\n      pop\n        /* \"#utility.yul\":1298:1300   */\n      0x40\n        /* \"#utility.yul\":1324:1377   */\n      tag_179\n        /* \"#utility.yul\":1369:1376   */\n      dup7\n        /* \"#utility.yul\":1360:1366   */\n      dup3\n        /* \"#utility.yul\":1349:1358   */\n      dup8\n        /* \"#utility.yul\":1345:1367   */\n      add\n        /* \"#utility.yul\":1324:1377   */\n      tag_165\n      jump\t// in\n    tag_179:\n        /* \"#utility.yul\":1314:1377   */\n      swap2\n      pop\n        /* \"#utility.yul\":1269:1387   */\n      pop\n        /* \"#utility.yul\":775:1394   */\n      swap3\n      pop\n      swap3\n      pop\n      swap3\n      jump\t// out\n        /* \"#utility.yul\":1400:1745   */\n    tag_68:\n        /* \"#utility.yul\":1467:1473   */\n      0x00\n        /* \"#utility.yul\":1516:1518   */\n      0x20\n        /* \"#utility.yul\":1504:1513   */\n      dup3\n        /* \"#utility.yul\":1495:1502   */\n      dup5\n        /* \"#utility.yul\":1491:1514   */\n      sub\n        /* \"#utility.yul\":1487:1519   */\n      slt\n        /* \"#utility.yul\":1484:1603   */\n      iszero\n      tag_181\n      jumpi\n        /* \"#utility.yul\":1522:1601   */\n      tag_182\n      tag_172\n      jump\t// in\n    tag_182:\n        /* \"#utility.yul\":1484:1603   */\n    tag_181:\n        /* \"#utility.yul\":1642:1643   */\n      0x00\n        /* \"#utility.yul\":1667:1728   */\n      tag_183\n        /* \"#utility.yul\":1720:1727   */\n      dup5\n        /* \"#utility.yul\":1711:1717   */\n      dup3\n        /* \"#utility.yul\":1700:1709   */\n      dup6\n        /* \"#utility.yul\":1696:1718   */\n      add\n        /* \"#utility.yul\":1667:1728   */\n      tag_161\n      jump\t// in\n    tag_183:\n        /* \"#utility.yul\":1657:1728   */\n      swap2\n      pop\n        /* \"#utility.yul\":1613:1738   */\n      pop\n        /* \"#utility.yul\":1400:1745   */\n      swap3\n      swap2\n      pop\n      pop\n      jump\t// out\n        /* \"#utility.yul\":1751:2080   */\n    tag_26:\n        /* \"#utility.yul\":1810:1816   */\n      0x00\n        /* \"#utility.yul\":1859:1861   */\n      0x20\n        /* \"#utility.yul\":1847:1856   */\n      dup3\n        /* \"#utility.yul\":1838:1845   */\n      dup5\n        /* \"#utility.yul\":1834:1857   */\n      sub\n        /* \"#utility.yul\":1830:1862   */\n      slt\n        /* \"#utility.yul\":1827:1946   */\n      iszero\n      tag_185\n      jumpi\n        /* \"#utility.yul\":1865:1944   */\n      tag_186\n      tag_172\n      jump\t// in\n    tag_186:\n        /* \"#utility.yul\":1827:1946   */\n    tag_185:\n        /* \"#utility.yul\":1985:1986   */\n      0x00\n        /* \"#utility.yul\":2010:2063   */\n      tag_187\n        /* \"#utility.yul\":2055:2062   */\n      dup5\n        /* \"#utility.yul\":2046:2052   */\n      dup3\n        /* \"#utility.yul\":2035:2044   */\n      dup6\n        /* \"#utility.yul\":2031:2053   */\n      add\n        /* \"#utility.yul\":2010:2063   */\n      tag_165\n      jump\t// in\n    tag_187:\n        /* \"#utility.yul\":2000:2063   */\n      swap2\n      pop\n        /* \"#utility.yul\":1956:2073   */\n      pop\n        /* \"#utility.yul\":1751:2080   */\n      swap3\n      swap2\n      pop\n      pop\n      jump\t// out\n        /* \"#utility.yul\":2086:2265   */\n    tag_188:\n        /* \"#utility.yul\":2155:2165   */\n      0x00\n        /* \"#utility.yul\":2176:2222   */\n      tag_190\n        /* \"#utility.yul\":2218:2221   */\n      dup4\n        /* \"#utility.yul\":2210:2216   */\n      dup4\n        /* \"#utility.yul\":2176:2222   */\n      tag_191\n      jump\t// in\n    tag_190:\n        /* \"#utility.yul\":2254:2258   */\n      0x20\n        /* \"#utility.yul\":2249:2252   */\n      dup4\n        /* \"#utility.yul\":2245:2259   */\n      add\n        /* \"#utility.yul\":2231:2259   */\n      swap1\n      pop\n        /* \"#utility.yul\":2086:2265   */\n      swap3\n      swap2\n      pop\n      pop\n      jump\t// out\n        /* \"#utility.yul\":2271:2450   */\n    tag_192:\n        /* \"#utility.yul\":2340:2350   */\n      0x00\n        /* \"#utility.yul\":2361:2407   */\n      tag_194\n        /* \"#utility.yul\":2403:2406   */\n      dup4\n        /* \"#utility.yul\":2395:2401   */\n      dup4\n        /* \"#utility.yul\":2361:2407   */\n      tag_195\n      jump\t// in\n    tag_194:\n        /* \"#utility.yul\":2439:2443   */\n      0x20\n        /* \"#utility.yul\":2434:2437   */\n      dup4\n        /* \"#utility.yul\":2430:2444   */\n      add\n        /* \"#utility.yul\":2416:2444   */\n      swap1\n      pop\n        /* \"#utility.yul\":2271:2450   */\n      swap3\n      swap2\n      pop\n      pop\n      jump\t// out\n        /* \"#utility.yul\":2456:2564   */\n    tag_191:\n        /* \"#utility.yul\":2533:2557   */\n      tag_197\n        /* \"#utility.yul\":2551:2556   */\n      dup2\n        /* \"#utility.yul\":2533:2557   */\n      tag_198\n      jump\t// in\n    tag_197:\n        /* \"#utility.yul\":2528:2531   */\n      dup3\n        /* \"#utility.yul\":2521:2558   */\n      mstore\n        /* \"#utility.yul\":2456:2564   */\n      pop\n      pop\n      jump\t// out\n        /* \"#utility.yul\":2570:2688   */\n    tag_199:\n        /* \"#utility.yul\":2657:2681   */\n      tag_201\n        /* \"#utility.yul\":2675:2680   */\n      dup2\n        /* \"#utility.yul\":2657:2681   */\n      tag_198\n      jump\t// in\n    tag_201:\n        /* \"#utility.yul\":2652:2655   */\n      dup3\n        /* \"#utility.yul\":2645:2682   */\n      mstore\n        /* \"#utility.yul\":2570:2688   */\n      pop\n      pop\n      jump\t// out\n        /* \"#utility.yul\":2724:3456   */\n    tag_202:\n        /* \"#utility.yul\":2843:2846   */\n      0x00\n        /* \"#utility.yul\":2872:2926   */\n      tag_204\n        /* \"#utility.yul\":2920:2925   */\n      dup3\n        /* \"#utility.yul\":2872:2926   */\n      tag_205\n      jump\t// in\n    tag_204:\n        /* \"#utility.yul\":2942:3028   */\n      tag_206\n        /* \"#utility.yul\":3021:3027   */\n      dup2\n        /* \"#utility.yul\":3016:3019   */\n      dup6\n        /* \"#utility.yul\":2942:3028   */\n      tag_207\n      jump\t// in\n    tag_206:\n        /* \"#utility.yul\":2935:3028   */\n      swap4\n      pop\n        /* \"#utility.yul\":3052:3108   */\n      tag_208\n        /* \"#utility.yul\":3102:3107   */\n      dup4\n        /* \"#utility.yul\":3052:3108   */\n      tag_209\n      jump\t// in\n    tag_208:\n        /* \"#utility.yul\":3131:3138   */\n      dup1\n        /* \"#utility.yul\":3162:3163   */\n      0x00\n        /* \"#utility.yul\":3147:3431   */\n    tag_210:\n        /* \"#utility.yul\":3172:3178   */\n      dup4\n        /* \"#utility.yul\":3169:3170   */\n      dup2\n        /* \"#utility.yul\":3166:3179   */\n      lt\n        /* \"#utility.yul\":3147:3431   */\n      iszero\n      tag_212\n      jumpi\n        /* \"#utility.yul\":3248:3254   */\n      dup2\n        /* \"#utility.yul\":3242:3255   */\n      mload\n        /* \"#utility.yul\":3275:3338   */\n      tag_213\n        /* \"#utility.yul\":3334:3337   */\n      dup9\n        /* \"#utility.yul\":3319:3332   */\n      dup3\n        /* \"#utility.yul\":3275:3338   */\n      tag_188\n      jump\t// in\n    tag_213:\n        /* \"#utility.yul\":3268:3338   */\n      swap8\n      pop\n        /* \"#utility.yul\":3361:3421   */\n      tag_214\n        /* \"#utility.yul\":3414:3420   */\n      dup4\n        /* \"#utility.yul\":3361:3421   */\n      tag_215\n      jump\t// in\n    tag_214:\n        /* \"#utility.yul\":3351:3421   */\n      swap3\n      pop\n        /* \"#utility.yul\":3207:3431   */\n      pop\n        /* \"#utility.yul\":3194:3195   */\n      0x01\n        /* \"#utility.yul\":3191:3192   */\n      dup2\n        /* \"#utility.yul\":3187:3196   */\n      add\n        /* \"#utility.yul\":3182:3196   */\n      swap1\n      pop\n        /* \"#utility.yul\":3147:3431   */\n      jump(tag_210)\n    tag_212:\n        /* \"#utility.yul\":3151:3165   */\n      pop\n        /* \"#utility.yul\":3447:3450   */\n      dup6\n        /* \"#utility.yul\":3440:3450   */\n      swap4\n      pop\n        /* \"#utility.yul\":2848:3456   */\n      pop\n      pop\n      pop\n        /* \"#utility.yul\":2724:3456   */\n      swap3\n      swap2\n      pop\n      pop\n      jump\t// out\n        /* \"#utility.yul\":3492:4224   */\n    tag_216:\n        /* \"#utility.yul\":3611:3614   */\n      0x00\n        /* \"#utility.yul\":3640:3694   */\n      tag_218\n        /* \"#utility.yul\":3688:3693   */\n      dup3\n        /* \"#utility.yul\":3640:3694   */\n      tag_219\n      jump\t// in\n    tag_218:\n        /* \"#utility.yul\":3710:3796   */\n      tag_220\n        /* \"#utility.yul\":3789:3795   */\n      dup2\n        /* \"#utility.yul\":3784:3787   */\n      dup6\n        /* \"#utility.yul\":3710:3796   */\n      tag_221\n      jump\t// in\n    tag_220:\n        /* \"#utility.yul\":3703:3796   */\n      swap4\n      pop\n        /* \"#utility.yul\":3820:3876   */\n      tag_222\n        /* \"#utility.yul\":3870:3875   */\n      dup4\n        /* \"#utility.yul\":3820:3876   */\n      tag_223\n      jump\t// in\n    tag_222:\n        /* \"#utility.yul\":3899:3906   */\n      dup1\n        /* \"#utility.yul\":3930:3931   */\n      0x00\n        /* \"#utility.yul\":3915:4199   */\n    tag_224:\n        /* \"#utility.yul\":3940:3946   */\n      dup4\n        /* \"#utility.yul\":3937:3938   */\n      dup2\n        /* \"#utility.yul\":3934:3947   */\n      lt\n        /* \"#utility.yul\":3915:4199   */\n      iszero\n      tag_226\n      jumpi\n        /* \"#utility.yul\":4016:4022   */\n      dup2\n        /* \"#utility.yul\":4010:4023   */\n      mload\n        /* \"#utility.yul\":4043:4106   */\n      tag_227\n        /* \"#utility.yul\":4102:4105   */\n      dup9\n        /* \"#utility.yul\":4087:4100   */\n      dup3\n        /* \"#utility.yul\":4043:4106   */\n      tag_192\n      jump\t// in\n    tag_227:\n        /* \"#utility.yul\":4036:4106   */\n      swap8\n      pop\n        /* \"#utility.yul\":4129:4189   */\n      tag_228\n        /* \"#utility.yul\":4182:4188   */\n      dup4\n        /* \"#utility.yul\":4129:4189   */\n      tag_229\n      jump\t// in\n    tag_228:\n        /* \"#utility.yul\":4119:4189   */\n      swap3\n      pop\n        /* \"#utility.yul\":3975:4199   */\n      pop\n        /* \"#utility.yul\":3962:3963   */\n      0x01\n        /* \"#utility.yul\":3959:3960   */\n      dup2\n        /* \"#utility.yul\":3955:3964   */\n      add\n        /* \"#utility.yul\":3950:3964   */\n      swap1\n      pop\n        /* \"#utility.yul\":3915:4199   */\n      jump(tag_224)\n    tag_226:\n        /* \"#utility.yul\":3919:3933   */\n      pop\n        /* \"#utility.yul\":4215:4218   */\n      dup6\n        /* \"#utility.yul\":4208:4218   */\n      swap4\n      pop\n        /* \"#utility.yul\":3616:4224   */\n      pop\n      pop\n      pop\n        /* \"#utility.yul\":3492:4224   */\n      swap3\n      swap2\n      pop\n      pop\n      jump\t// out\n        /* \"#utility.yul\":4230:4377   */\n    tag_230:\n        /* \"#utility.yul\":4325:4370   */\n      tag_232\n        /* \"#utility.yul\":4364:4369   */\n      dup2\n        /* \"#utility.yul\":4325:4370   */\n      tag_233\n      jump\t// in\n    tag_232:\n        /* \"#utility.yul\":4320:4323   */\n      dup3\n        /* \"#utility.yul\":4313:4371   */\n      mstore\n        /* \"#utility.yul\":4230:4377   */\n      pop\n      pop\n      jump\t// out\n        /* \"#utility.yul\":4383:4747   */\n    tag_234:\n        /* \"#utility.yul\":4471:4474   */\n      0x00\n        /* \"#utility.yul\":4499:4538   */\n      tag_236\n        /* \"#utility.yul\":4532:4537   */\n      dup3\n        /* \"#utility.yul\":4499:4538   */\n      tag_237\n      jump\t// in\n    tag_236:\n        /* \"#utility.yul\":4554:4625   */\n      tag_238\n        /* \"#utility.yul\":4618:4624   */\n      dup2\n        /* \"#utility.yul\":4613:4616   */\n      dup6\n        /* \"#utility.yul\":4554:4625   */\n      tag_239\n      jump\t// in\n    tag_238:\n        /* \"#utility.yul\":4547:4625   */\n      swap4\n      pop\n        /* \"#utility.yul\":4634:4686   */\n      tag_240\n        /* \"#utility.yul\":4679:4685   */\n      dup2\n        /* \"#utility.yul\":4674:4677   */\n      dup6\n        /* \"#utility.yul\":4667:4671   */\n      0x20\n        /* \"#utility.yul\":4660:4665   */\n      dup7\n        /* \"#utility.yul\":4656:4672   */\n      add\n        /* \"#utility.yul\":4634:4686   */\n      tag_241\n      jump\t// in\n    tag_240:\n        /* \"#utility.yul\":4711:4740   */\n      tag_242\n        /* \"#utility.yul\":4733:4739   */\n      dup2\n        /* \"#utility.yul\":4711:4740   */\n      tag_243\n      jump\t// in\n    tag_242:\n        /* \"#utility.yul\":4706:4709   */\n      dup5\n        /* \"#utility.yul\":4702:4741   */\n      add\n        /* \"#utility.yul\":4695:4741   */\n      swap2\n      pop\n        /* \"#utility.yul\":4475:4747   */\n      pop\n        /* \"#utility.yul\":4383:4747   */\n      swap3\n      swap2\n      pop\n      pop\n      jump\t// out\n        /* \"#utility.yul\":4753:5119   */\n    tag_244:\n        /* \"#utility.yul\":4895:4898   */\n      0x00\n        /* \"#utility.yul\":4916:4983   */\n      tag_246\n        /* \"#utility.yul\":4980:4982   */\n      0x16\n        /* \"#utility.yul\":4975:4978   */\n      dup4\n        /* \"#utility.yul\":4916:4983   */\n      tag_239\n      jump\t// in\n    tag_246:\n        /* \"#utility.yul\":4909:4983   */\n      swap2\n      pop\n        /* \"#utility.yul\":4992:5085   */\n      tag_247\n        /* \"#utility.yul\":5081:5084   */\n      dup3\n        /* \"#utility.yul\":4992:5085   */\n      tag_248\n      jump\t// in\n    tag_247:\n        /* \"#utility.yul\":5110:5112   */\n      0x20\n        /* \"#utility.yul\":5105:5108   */\n      dup3\n        /* \"#utility.yul\":5101:5113   */\n      add\n        /* \"#utility.yul\":5094:5113   */\n      swap1\n      pop\n        /* \"#utility.yul\":4753:5119   */\n      swap2\n      swap1\n      pop\n      jump\t// out\n        /* \"#utility.yul\":5125:5491   */\n    tag_249:\n        /* \"#utility.yul\":5267:5270   */\n      0x00\n        /* \"#utility.yul\":5288:5355   */\n      tag_251\n        /* \"#utility.yul\":5352:5354   */\n      0x24\n        /* \"#utility.yul\":5347:5350   */\n      dup4\n        /* \"#utility.yul\":5288:5355   */\n      tag_239\n      jump\t// in\n    tag_251:\n        /* \"#utility.yul\":5281:5355   */\n      swap2\n      pop\n        /* \"#utility.yul\":5364:5457   */\n      tag_252\n        /* \"#utility.yul\":5453:5456   */\n      dup3\n        /* \"#utility.yul\":5364:5457   */\n      tag_253\n      jump\t// in\n    tag_252:\n        /* \"#utility.yul\":5482:5484   */\n      0x40\n        /* \"#utility.yul\":5477:5480   */\n      dup3\n        /* \"#utility.yul\":5473:5485   */\n      add\n        /* \"#utility.yul\":5466:5485   */\n      swap1\n      pop\n        /* \"#utility.yul\":5125:5491   */\n      swap2\n      swap1\n      pop\n      jump\t// out\n        /* \"#utility.yul\":5497:5863   */\n    tag_254:\n        /* \"#utility.yul\":5639:5642   */\n      0x00\n        /* \"#utility.yul\":5660:5727   */\n      tag_256\n        /* \"#utility.yul\":5724:5726   */\n      0x16\n        /* \"#utility.yul\":5719:5722   */\n      dup4\n        /* \"#utility.yul\":5660:5727   */\n      tag_239\n      jump\t// in\n    tag_256:\n        /* \"#utility.yul\":5653:5727   */\n      swap2\n      pop\n        /* \"#utility.yul\":5736:5829   */\n      tag_257\n        /* \"#utility.yul\":5825:5828   */\n      dup3\n        /* \"#utility.yul\":5736:5829   */\n      tag_258\n      jump\t// in\n    tag_257:\n        /* \"#utility.yul\":5854:5856   */\n      0x20\n        /* \"#utility.yul\":5849:5852   */\n      dup3\n        /* \"#utility.yul\":5845:5857   */\n      add\n        /* \"#utility.yul\":5838:5857   */\n      swap1\n      pop\n        /* \"#utility.yul\":5497:5863   */\n      swap2\n      swap1\n      pop\n      jump\t// out\n        /* \"#utility.yul\":5869:5977   */\n    tag_195:\n        /* \"#utility.yul\":5946:5970   */\n      tag_260\n        /* \"#utility.yul\":5964:5969   */\n      dup2\n        /* \"#utility.yul\":5946:5970   */\n      tag_261\n      jump\t// in\n    tag_260:\n        /* \"#utility.yul\":5941:5944   */\n      dup3\n        /* \"#utility.yul\":5934:5971   */\n      mstore\n        /* \"#utility.yul\":5869:5977   */\n      pop\n      pop\n      jump\t// out\n        /* \"#utility.yul\":5983:6101   */\n    tag_262:\n        /* \"#utility.yul\":6070:6094   */\n      tag_264\n        /* \"#utility.yul\":6088:6093   */\n      dup2\n        /* \"#utility.yul\":6070:6094   */\n      tag_261\n      jump\t// in\n    tag_264:\n        /* \"#utility.yul\":6065:6068   */\n      dup3\n        /* \"#utility.yul\":6058:6095   */\n      mstore\n        /* \"#utility.yul\":5983:6101   */\n      pop\n      pop\n      jump\t// out\n        /* \"#utility.yul\":6107:6549   */\n    tag_63:\n        /* \"#utility.yul\":6256:6260   */\n      0x00\n        /* \"#utility.yul\":6294:6296   */\n      0x60\n        /* \"#utility.yul\":6283:6292   */\n      dup3\n        /* \"#utility.yul\":6279:6297   */\n      add\n        /* \"#utility.yul\":6271:6297   */\n      swap1\n      pop\n        /* \"#utility.yul\":6307:6378   */\n      tag_266\n        /* \"#utility.yul\":6375:6376   */\n      0x00\n        /* \"#utility.yul\":6364:6373   */\n      dup4\n        /* \"#utility.yul\":6360:6377   */\n      add\n        /* \"#utility.yul\":6351:6357   */\n      dup7\n        /* \"#utility.yul\":6307:6378   */\n      tag_199\n      jump\t// in\n    tag_266:\n        /* \"#utility.yul\":6388:6460   */\n      tag_267\n        /* \"#utility.yul\":6456:6458   */\n      0x20\n        /* \"#utility.yul\":6445:6454   */\n      dup4\n        /* \"#utility.yul\":6441:6459   */\n      add\n        /* \"#utility.yul\":6432:6438   */\n      dup6\n        /* \"#utility.yul\":6388:6460   */\n      tag_199\n      jump\t// in\n    tag_267:\n        /* \"#utility.yul\":6470:6542   */\n      tag_268\n        /* \"#utility.yul\":6538:6540   */\n      0x40\n        /* \"#utility.yul\":6527:6536   */\n      dup4\n        /* \"#utility.yul\":6523:6541   */\n      add\n        /* \"#utility.yul\":6514:6520   */\n      dup5\n        /* \"#utility.yul\":6470:6542   */\n      tag_262\n      jump\t// in\n    tag_268:\n        /* \"#utility.yul\":6107:6549   */\n      swap5\n      swap4\n      pop\n      pop\n      pop\n      pop\n      jump\t// out\n        /* \"#utility.yul\":6555:7189   */\n    tag_32:\n        /* \"#utility.yul\":6776:6780   */\n      0x00\n        /* \"#utility.yul\":6814:6816   */\n      0x40\n        /* \"#utility.yul\":6803:6812   */\n      dup3\n        /* \"#utility.yul\":6799:6817   */\n      add\n        /* \"#utility.yul\":6791:6817   */\n      swap1\n      pop\n        /* \"#utility.yul\":6863:6872   */\n      dup2\n        /* \"#utility.yul\":6857:6861   */\n      dup2\n        /* \"#utility.yul\":6853:6873   */\n      sub\n        /* \"#utility.yul\":6849:6850   */\n      0x00\n        /* \"#utility.yul\":6838:6847   */\n      dup4\n        /* \"#utility.yul\":6834:6851   */\n      add\n        /* \"#utility.yul\":6827:6874   */\n      mstore\n        /* \"#utility.yul\":6891:6999   */\n      tag_270\n        /* \"#utility.yul\":6994:6998   */\n      dup2\n        /* \"#utility.yul\":6985:6991   */\n      dup6\n        /* \"#utility.yul\":6891:6999   */\n      tag_202\n      jump\t// in\n    tag_270:\n        /* \"#utility.yul\":6883:6999   */\n      swap1\n      pop\n        /* \"#utility.yul\":7046:7055   */\n      dup2\n        /* \"#utility.yul\":7040:7044   */\n      dup2\n        /* \"#utility.yul\":7036:7056   */\n      sub\n        /* \"#utility.yul\":7031:7033   */\n      0x20\n        /* \"#utility.yul\":7020:7029   */\n      dup4\n        /* \"#utility.yul\":7016:7034   */\n      add\n        /* \"#utility.yul\":7009:7057   */\n      mstore\n        /* \"#utility.yul\":7074:7182   */\n      tag_271\n        /* \"#utility.yul\":7177:7181   */\n      dup2\n        /* \"#utility.yul\":7168:7174   */\n      dup5\n        /* \"#utility.yul\":7074:7182   */\n      tag_216\n      jump\t// in\n    tag_271:\n        /* \"#utility.yul\":7066:7182   */\n      swap1\n      pop\n        /* \"#utility.yul\":6555:7189   */\n      swap4\n      swap3\n      pop\n      pop\n      pop\n      jump\t// out\n        /* \"#utility.yul\":7195:7433   */\n    tag_71:\n        /* \"#utility.yul\":7296:7300   */\n      0x00\n        /* \"#utility.yul\":7334:7336   */\n      0x20\n        /* \"#utility.yul\":7323:7332   */\n      dup3\n        /* \"#utility.yul\":7319:7337   */\n      add\n        /* \"#utility.yul\":7311:7337   */\n      swap1\n      pop\n        /* \"#utility.yul\":7347:7426   */\n      tag_273\n        /* \"#utility.yul\":7423:7424   */\n      0x00\n        /* \"#utility.yul\":7412:7421   */\n      dup4\n        /* \"#utility.yul\":7408:7425   */\n      add\n        /* \"#utility.yul\":7399:7405   */\n      dup5\n        /* \"#utility.yul\":7347:7426   */\n      tag_230\n      jump\t// in\n    tag_273:\n        /* \"#utility.yul\":7195:7433   */\n      swap3\n      swap2\n      pop\n      pop\n      jump\t// out\n        /* \"#utility.yul\":7439:7752   */\n    tag_43:\n        /* \"#utility.yul\":7552:7556   */\n      0x00\n        /* \"#utility.yul\":7590:7592   */\n      0x20\n        /* \"#utility.yul\":7579:7588   */\n      dup3\n        /* \"#utility.yul\":7575:7593   */\n      add\n        /* \"#utility.yul\":7567:7593   */\n      swap1\n      pop\n        /* \"#utility.yul\":7639:7648   */\n      dup2\n        /* \"#utility.yul\":7633:7637   */\n      dup2\n        /* \"#utility.yul\":7629:7649   */\n      sub\n        /* \"#utility.yul\":7625:7626   */\n      0x00\n        /* \"#utility.yul\":7614:7623   */\n      dup4\n        /* \"#utility.yul\":7610:7627   */\n      add\n        /* \"#utility.yul\":7603:7650   */\n      mstore\n        /* \"#utility.yul\":7667:7745   */\n      tag_275\n        /* \"#utility.yul\":7740:7744   */\n      dup2\n        /* \"#utility.yul\":7731:7737   */\n      dup5\n        /* \"#utility.yul\":7667:7745   */\n      tag_234\n      jump\t// in\n    tag_275:\n        /* \"#utility.yul\":7659:7745   */\n      swap1\n      pop\n        /* \"#utility.yul\":7439:7752   */\n      swap3\n      swap2\n      pop\n      pop\n      jump\t// out\n        /* \"#utility.yul\":7758:8177   */\n    tag_120:\n        /* \"#utility.yul\":7924:7928   */\n      0x00\n        /* \"#utility.yul\":7962:7964   */\n      0x20\n        /* \"#utility.yul\":7951:7960   */\n      dup3\n        /* \"#utility.yul\":7947:7965   */\n      add\n        /* \"#utility.yul\":7939:7965   */\n      swap1\n      pop\n        /* \"#utility.yul\":8011:8020   */\n      dup2\n        /* \"#utility.yul\":8005:8009   */\n      dup2\n        /* \"#utility.yul\":8001:8021   */\n      sub\n        /* \"#utility.yul\":7997:7998   */\n      0x00\n        /* \"#utility.yul\":7986:7995   */\n      dup4\n        /* \"#utility.yul\":7982:7999   */\n      add\n        /* \"#utility.yul\":7975:8022   */\n      mstore\n        /* \"#utility.yul\":8039:8170   */\n      tag_277\n        /* \"#utility.yul\":8165:8169   */\n      dup2\n        /* \"#utility.yul\":8039:8170   */\n      tag_244\n      jump\t// in\n    tag_277:\n        /* \"#utility.yul\":8031:8170   */\n      swap1\n      pop\n        /* \"#utility.yul\":7758:8177   */\n      swap2\n      swap1\n      pop\n      jump\t// out\n        /* \"#utility.yul\":8183:8602   */\n    tag_132:\n        /* \"#utility.yul\":8349:8353   */\n      0x00\n        /* \"#utility.yul\":8387:8389   */\n      0x20\n        /* \"#utility.yul\":8376:8385   */\n      dup3\n        /* \"#utility.yul\":8372:8390   */\n      add\n        /* \"#utility.yul\":8364:8390   */\n      swap1\n      pop\n        /* \"#utility.yul\":8436:8445   */\n      dup2\n        /* \"#utility.yul\":8430:8434   */\n      dup2\n        /* \"#utility.yul\":8426:8446   */\n      sub\n        /* \"#utility.yul\":8422:8423   */\n      0x00\n        /* \"#utility.yul\":8411:8420   */\n      dup4\n        /* \"#utility.yul\":8407:8424   */\n      add\n        /* \"#utility.yul\":8400:8447   */\n      mstore\n        /* \"#utility.yul\":8464:8595   */\n      tag_279\n        /* \"#utility.yul\":8590:8594   */\n      dup2\n        /* \"#utility.yul\":8464:8595   */\n      tag_249\n      jump\t// in\n    tag_279:\n        /* \"#utility.yul\":8456:8595   */\n      swap1\n      pop\n        /* \"#utility.yul\":8183:8602   */\n      swap2\n      swap1\n      pop\n      jump\t// out\n        /* \"#utility.yul\":8608:9027   */\n    tag_88:\n        /* \"#utility.yul\":8774:8778   */\n      0x00\n        /* \"#utility.yul\":8812:8814   */\n      0x20\n        /* \"#utility.yul\":8801:8810   */\n      dup3\n        /* \"#utility.yul\":8797:8815   */\n      add\n        /* \"#utility.yul\":8789:8815   */\n      swap1\n      pop\n        /* \"#utility.yul\":8861:8870   */\n      dup2\n        /* \"#utility.yul\":8855:8859   */\n      dup2\n        /* \"#utility.yul\":8851:8871   */\n      sub\n        /* \"#utility.yul\":8847:8848   */\n      0x00\n        /* \"#utility.yul\":8836:8845   */\n      dup4\n        /* \"#utility.yul\":8832:8849   */\n      add\n        /* \"#utility.yul\":8825:8872   */\n      mstore\n        /* \"#utility.yul\":8889:9020   */\n      tag_281\n        /* \"#utility.yul\":9015:9019   */\n      dup2\n        /* \"#utility.yul\":8889:9020   */\n      tag_254\n      jump\t// in\n    tag_281:\n        /* \"#utility.yul\":8881:9020   */\n      swap1\n      pop\n        /* \"#utility.yul\":8608:9027   */\n      swap2\n      swap1\n      pop\n      jump\t// out\n        /* \"#utility.yul\":9033:9255   */\n    tag_37:\n        /* \"#utility.yul\":9126:9130   */\n      0x00\n        /* \"#utility.yul\":9164:9166   */\n      0x20\n        /* \"#utility.yul\":9153:9162   */\n      dup3\n        /* \"#utility.yul\":9149:9167   */\n      add\n        /* \"#utility.yul\":9141:9167   */\n      swap1\n      pop\n        /* \"#utility.yul\":9177:9248   */\n      tag_283\n        /* \"#utility.yul\":9245:9246   */\n      0x00\n        /* \"#utility.yul\":9234:9243   */\n      dup4\n        /* \"#utility.yul\":9230:9247   */\n      add\n        /* \"#utility.yul\":9221:9227   */\n      dup5\n        /* \"#utility.yul\":9177:9248   */\n      tag_262\n      jump\t// in\n    tag_283:\n        /* \"#utility.yul\":9033:9255   */\n      swap3\n      swap2\n      pop\n      pop\n      jump\t// out\n        /* \"#utility.yul\":9342:9474   */\n    tag_209:\n        /* \"#utility.yul\":9409:9413   */\n      0x00\n        /* \"#utility.yul\":9432:9435   */\n      dup2\n        /* \"#utility.yul\":9424:9435   */\n      swap1\n      pop\n        /* \"#utility.yul\":9462:9466   */\n      0x20\n        /* \"#utility.yul\":9457:9460   */\n      dup3\n        /* \"#utility.yul\":9453:9467   */\n      add\n        /* \"#utility.yul\":9445:9467   */\n      swap1\n      pop\n        /* \"#utility.yul\":9342:9474   */\n      swap2\n      swap1\n      pop\n      jump\t// out\n        /* \"#utility.yul\":9480:9612   */\n    tag_223:\n        /* \"#utility.yul\":9547:9551   */\n      0x00\n        /* \"#utility.yul\":9570:9573   */\n      dup2\n        /* \"#utility.yul\":9562:9573   */\n      swap1\n      pop\n        /* \"#utility.yul\":9600:9604   */\n      0x20\n        /* \"#utility.yul\":9595:9598   */\n      dup3\n        /* \"#utility.yul\":9591:9605   */\n      add\n        /* \"#utility.yul\":9583:9605   */\n      swap1\n      pop\n        /* \"#utility.yul\":9480:9612   */\n      swap2\n      swap1\n      pop\n      jump\t// out\n        /* \"#utility.yul\":9618:9732   */\n    tag_205:\n        /* \"#utility.yul\":9685:9691   */\n      0x00\n        /* \"#utility.yul\":9719:9724   */\n      dup2\n        /* \"#utility.yul\":9713:9725   */\n      mload\n        /* \"#utility.yul\":9703:9725   */\n      swap1\n      pop\n        /* \"#utility.yul\":9618:9732   */\n      swap2\n      swap1\n      pop\n      jump\t// out\n        /* \"#utility.yul\":9738:9852   */\n    tag_219:\n        /* \"#utility.yul\":9805:9811   */\n      0x00\n        /* \"#utility.yul\":9839:9844   */\n      dup2\n        /* \"#utility.yul\":9833:9845   */\n      mload\n        /* \"#utility.yul\":9823:9845   */\n      swap1\n      pop\n        /* \"#utility.yul\":9738:9852   */\n      swap2\n      swap1\n      pop\n      jump\t// out\n        /* \"#utility.yul\":9858:9957   */\n    tag_237:\n        /* \"#utility.yul\":9910:9916   */\n      0x00\n        /* \"#utility.yul\":9944:9949   */\n      dup2\n        /* \"#utility.yul\":9938:9950   */\n      mload\n        /* \"#utility.yul\":9928:9950   */\n      swap1\n      pop\n        /* \"#utility.yul\":9858:9957   */\n      swap2\n      swap1\n      pop\n      jump\t// out\n        /* \"#utility.yul\":9963:10076   */\n    tag_215:\n        /* \"#utility.yul\":10033:10037   */\n      0x00\n        /* \"#utility.yul\":10065:10069   */\n      0x20\n        /* \"#utility.yul\":10060:10063   */\n      dup3\n        /* \"#utility.yul\":10056:10070   */\n      add\n        /* \"#utility.yul\":10048:10070   */\n      swap1\n      pop\n        /* \"#utility.yul\":9963:10076   */\n      swap2\n      swap1\n      pop\n      jump\t// out\n        /* \"#utility.yul\":10082:10195   */\n    tag_229:\n        /* \"#utility.yul\":10152:10156   */\n      0x00\n        /* \"#utility.yul\":10184:10188   */\n      0x20\n        /* \"#utility.yul\":10179:10182   */\n      dup3\n        /* \"#utility.yul\":10175:10189   */\n      add\n        /* \"#utility.yul\":10167:10189   */\n      swap1\n      pop\n        /* \"#utility.yul\":10082:10195   */\n      swap2\n      swap1\n      pop\n      jump\t// out\n        /* \"#utility.yul\":10201:10385   */\n    tag_207:\n        /* \"#utility.yul\":10300:10311   */\n      0x00\n        /* \"#utility.yul\":10334:10340   */\n      dup3\n        /* \"#utility.yul\":10329:10332   */\n      dup3\n        /* \"#utility.yul\":10322:10341   */\n      mstore\n        /* \"#utility.yul\":10374:10378   */\n      0x20\n        /* \"#utility.yul\":10369:10372   */\n      dup3\n        /* \"#utility.yul\":10365:10379   */\n      add\n        /* \"#utility.yul\":10350:10379   */\n      swap1\n      pop\n        /* \"#utility.yul\":10201:10385   */\n      swap3\n      swap2\n      pop\n      pop\n      jump\t// out\n        /* \"#utility.yul\":10391:10575   */\n    tag_221:\n        /* \"#utility.yul\":10490:10501   */\n      0x00\n        /* \"#utility.yul\":10524:10530   */\n      dup3\n        /* \"#utility.yul\":10519:10522   */\n      dup3\n        /* \"#utility.yul\":10512:10531   */\n      mstore\n        /* \"#utility.yul\":10564:10568   */\n      0x20\n        /* \"#utility.yul\":10559:10562   */\n      dup3\n        /* \"#utility.yul\":10555:10569   */\n      add\n        /* \"#utility.yul\":10540:10569   */\n      swap1\n      pop\n        /* \"#utility.yul\":10391:10575   */\n      swap3\n      swap2\n      pop\n      pop\n      jump\t// out\n        /* \"#utility.yul\":10581:10750   */\n    tag_239:\n        /* \"#utility.yul\":10665:10676   */\n      0x00\n        /* \"#utility.yul\":10699:10705   */\n      dup3\n        /* \"#utility.yul\":10694:10697   */\n      dup3\n        /* \"#utility.yul\":10687:10706   */\n      mstore\n        /* \"#utility.yul\":10739:10743   */\n      0x20\n        /* \"#utility.yul\":10734:10737   */\n      dup3\n        /* \"#utility.yul\":10730:10744   */\n      add\n        /* \"#utility.yul\":10715:10744   */\n      swap1\n      pop\n        /* \"#utility.yul\":10581:10750   */\n      swap3\n      swap2\n      pop\n      pop\n      jump\t// out\n        /* \"#utility.yul\":10756:11061   */\n    tag_129:\n        /* \"#utility.yul\":10796:10799   */\n      0x00\n        /* \"#utility.yul\":10815:10835   */\n      tag_297\n        /* \"#utility.yul\":10833:10834   */\n      dup3\n        /* \"#utility.yul\":10815:10835   */\n      tag_261\n      jump\t// in\n    tag_297:\n        /* \"#utility.yul\":10810:10835   */\n      swap2\n      pop\n        /* \"#utility.yul\":10849:10869   */\n      tag_298\n        /* \"#utility.yul\":10867:10868   */\n      dup4\n        /* \"#utility.yul\":10849:10869   */\n      tag_261\n      jump\t// in\n    tag_298:\n        /* \"#utility.yul\":10844:10869   */\n      swap3\n      pop\n        /* \"#utility.yul\":11003:11004   */\n      dup3\n        /* \"#utility.yul\":10935:11001   */\n      0xffffffffffffffffffffffffffffffffffffffffffffffffffffffffffffffff\n        /* \"#utility.yul\":10931:11005   */\n      sub\n        /* \"#utility.yul\":10928:10929   */\n      dup3\n        /* \"#utility.yul\":10925:11006   */\n      gt\n        /* \"#utility.yul\":10922:11029   */\n      iszero\n      tag_299\n      jumpi\n        /* \"#utility.yul\":11009:11027   */\n      tag_300\n      tag_301\n      jump\t// in\n    tag_300:\n        /* \"#utility.yul\":10922:11029   */\n    tag_299:\n        /* \"#utility.yul\":11053:11054   */\n      dup3\n        /* \"#utility.yul\":11050:11051   */\n      dup3\n        /* \"#utility.yul\":11046:11055   */\n      add\n        /* \"#utility.yul\":11039:11055   */\n      swap1\n      pop\n        /* \"#utility.yul\":10756:11061   */\n      swap3\n      swap2\n      pop\n      pop\n      jump\t// out\n        /* \"#utility.yul\":11067:11415   */\n    tag_91:\n        /* \"#utility.yul\":11107:11114   */\n      0x00\n        /* \"#utility.yul\":11130:11150   */\n      tag_303\n        /* \"#utility.yul\":11148:11149   */\n      dup3\n        /* \"#utility.yul\":11130:11150   */\n      tag_261\n      jump\t// in\n    tag_303:\n        /* \"#utility.yul\":11125:11150   */\n      swap2\n      pop\n        /* \"#utility.yul\":11164:11184   */\n      tag_304\n        /* \"#utility.yul\":11182:11183   */\n      dup4\n        /* \"#utility.yul\":11164:11184   */\n      tag_261\n      jump\t// in\n    tag_304:\n        /* \"#utility.yul\":11159:11184   */\n      swap3\n      pop\n        /* \"#utility.yul\":11352:11353   */\n      dup2\n        /* \"#utility.yul\":11284:11350   */\n      0xffffffffffffffffffffffffffffffffffffffffffffffffffffffffffffffff\n        /* \"#utility.yul\":11280:11354   */\n      div\n        /* \"#utility.yul\":11277:11278   */\n      dup4\n        /* \"#utility.yul\":11274:11355   */\n      gt\n        /* \"#utility.yul\":11269:11270   */\n      dup3\n        /* \"#utility.yul\":11262:11271   */\n      iszero\n        /* \"#utility.yul\":11255:11272   */\n      iszero\n        /* \"#utility.yul\":11251:11356   */\n      and\n        /* \"#utility.yul\":11248:11379   */\n      iszero\n      tag_305\n      jumpi\n        /* \"#utility.yul\":11359:11377   */\n      tag_306\n      tag_301\n      jump\t// in\n    tag_306:\n        /* \"#utility.yul\":11248:11379   */\n    tag_305:\n        /* \"#utility.yul\":11407:11408   */\n      dup3\n        /* \"#utility.yul\":11404:11405   */\n      dup3\n        /* \"#utility.yul\":11400:11409   */\n      mul\n        /* \"#utility.yul\":11389:11409   */\n      swap1\n      pop\n        /* \"#utility.yul\":11067:11415   */\n      swap3\n      swap2\n      pop\n      pop\n      jump\t// out\n        /* \"#utility.yul\":11421:11517   */\n    tag_198:\n        /* \"#utility.yul\":11458:11465   */\n      0x00\n        /* \"#utility.yul\":11487:11511   */\n      tag_308\n        /* \"#utility.yul\":11505:11510   */\n      dup3\n        /* \"#utility.yul\":11487:11511   */\n      tag_309\n      jump\t// in\n    tag_308:\n        /* \"#utility.yul\":11476:11511   */\n      swap1\n      pop\n        /* \"#utility.yul\":11421:11517   */\n      swap2\n      swap1\n      pop\n      jump\t// out\n        /* \"#utility.yul\":11523:11613   */\n    tag_310:\n        /* \"#utility.yul\":11557:11564   */\n      0x00\n        /* \"#utility.yul\":11600:11605   */\n      dup2\n        /* \"#utility.yul\":11593:11606   */\n      iszero\n        /* \"#utility.yul\":11586:11607   */\n      iszero\n        /* \"#utility.yul\":11575:11607   */\n      swap1\n      pop\n        /* \"#utility.yul\":11523:11613   */\n      swap2\n      swap1\n      pop\n      jump\t// out\n        /* \"#utility.yul\":11619:11695   */\n    tag_312:\n        /* \"#utility.yul\":11655:11662   */\n      0x00\n        /* \"#utility.yul\":11684:11689   */\n      dup2\n        /* \"#utility.yul\":11673:11689   */\n      swap1\n      pop\n        /* \"#utility.yul\":11619:11695   */\n      swap2\n      swap1\n      pop\n      jump\t// out\n        /* \"#utility.yul\":11701:11827   */\n    tag_309:\n        /* \"#utility.yul\":11738:11745   */\n      0x00\n        /* \"#utility.yul\":11778:11820   */\n      0xffffffffffffffffffffffffffffffffffffffff\n        /* \"#utility.yul\":11771:11776   */\n      dup3\n        /* \"#utility.yul\":11767:11821   */\n      and\n        /* \"#utility.yul\":11756:11821   */\n      swap1\n      pop\n        /* \"#utility.yul\":11701:11827   */\n      swap2\n      swap1\n      pop\n      jump\t// out\n        /* \"#utility.yul\":11833:11910   */\n    tag_261:\n        /* \"#utility.yul\":11870:11877   */\n      0x00\n        /* \"#utility.yul\":11899:11904   */\n      dup2\n        /* \"#utility.yul\":11888:11904   */\n      swap1\n      pop\n        /* \"#utility.yul\":11833:11910   */\n      swap2\n      swap1\n      pop\n      jump\t// out\n        /* \"#utility.yul\":11916:12037   */\n    tag_233:\n        /* \"#utility.yul\":11974:11983   */\n      0x00\n        /* \"#utility.yul\":12007:12031   */\n      tag_317\n        /* \"#utility.yul\":12025:12030   */\n      dup3\n        /* \"#utility.yul\":12007:12031   */\n      tag_261\n      jump\t// in\n    tag_317:\n        /* \"#utility.yul\":11994:12031   */\n      swap1\n      pop\n        /* \"#utility.yul\":11916:12037   */\n      swap2\n      swap1\n      pop\n      jump\t// out\n        /* \"#utility.yul\":12043:12350   */\n    tag_241:\n        /* \"#utility.yul\":12111:12112   */\n      0x00\n        /* \"#utility.yul\":12121:12234   */\n    tag_319:\n        /* \"#utility.yul\":12135:12141   */\n      dup4\n        /* \"#utility.yul\":12132:12133   */\n      dup2\n        /* \"#utility.yul\":12129:12142   */\n      lt\n        /* \"#utility.yul\":12121:12234   */\n      iszero\n      tag_321\n      jumpi\n        /* \"#utility.yul\":12220:12221   */\n      dup1\n        /* \"#utility.yul\":12215:12218   */\n      dup3\n        /* \"#utility.yul\":12211:12222   */\n      add\n        /* \"#utility.yul\":12205:12223   */\n      mload\n        /* \"#utility.yul\":12201:12202   */\n      dup2\n        /* \"#utility.yul\":12196:12199   */\n      dup5\n        /* \"#utility.yul\":12192:12203   */\n      add\n        /* \"#utility.yul\":12185:12224   */\n      mstore\n        /* \"#utility.yul\":12157:12159   */\n      0x20\n        /* \"#utility.yul\":12154:12155   */\n      dup2\n        /* \"#utility.yul\":12150:12160   */\n      add\n        /* \"#utility.yul\":12145:12160   */\n      swap1\n      pop\n        /* \"#utility.yul\":12121:12234   */\n      jump(tag_319)\n    tag_321:\n        /* \"#utility.yul\":12252:12258   */\n      dup4\n        /* \"#utility.yul\":12249:12250   */\n      dup2\n        /* \"#utility.yul\":12246:12259   */\n      gt\n        /* \"#utility.yul\":12243:12344   */\n      iszero\n      tag_322\n      jumpi\n        /* \"#utility.yul\":12332:12333   */\n      0x00\n        /* \"#utility.yul\":12323:12329   */\n      dup5\n        /* \"#utility.yul\":12318:12321   */\n      dup5\n        /* \"#utility.yul\":12314:12330   */\n      add\n        /* \"#utility.yul\":12307:12334   */\n      mstore\n        /* \"#utility.yul\":12243:12344   */\n    tag_322:\n        /* \"#utility.yul\":12092:12350   */\n      pop\n        /* \"#utility.yul\":12043:12350   */\n      pop\n      pop\n      pop\n      jump\t// out\n        /* \"#utility.yul\":12356:12587   */\n    tag_138:\n        /* \"#utility.yul\":12394:12397   */\n      0x00\n        /* \"#utility.yul\":12417:12440   */\n      tag_324\n        /* \"#utility.yul\":12434:12439   */\n      dup3\n        /* \"#utility.yul\":12417:12440   */\n      tag_312\n      jump\t// in\n    tag_324:\n        /* \"#utility.yul\":12408:12440   */\n      swap2\n      pop\n        /* \"#utility.yul\":12462:12528   */\n      0x7fffffffffffffffffffffffffffffffffffffffffffffffffffffffffffffff\n        /* \"#utility.yul\":12455:12460   */\n      dup3\n        /* \"#utility.yul\":12452:12529   */\n      eq\n        /* \"#utility.yul\":12449:12552   */\n      iszero\n      tag_325\n      jumpi\n        /* \"#utility.yul\":12532:12550   */\n      tag_326\n      tag_301\n      jump\t// in\n    tag_326:\n        /* \"#utility.yul\":12449:12552   */\n    tag_325:\n        /* \"#utility.yul\":12579:12580   */\n      0x01\n        /* \"#utility.yul\":12572:12577   */\n      dup3\n        /* \"#utility.yul\":12568:12581   */\n      add\n        /* \"#utility.yul\":12561:12581   */\n      swap1\n      pop\n        /* \"#utility.yul\":12356:12587   */\n      swap2\n      swap1\n      pop\n      jump\t// out\n        /* \"#utility.yul\":12593:12826   */\n    tag_85:\n        /* \"#utility.yul\":12632:12635   */\n      0x00\n        /* \"#utility.yul\":12655:12679   */\n      tag_328\n        /* \"#utility.yul\":12673:12678   */\n      dup3\n        /* \"#utility.yul\":12655:12679   */\n      tag_261\n      jump\t// in\n    tag_328:\n        /* \"#utility.yul\":12646:12679   */\n      swap2\n      pop\n        /* \"#utility.yul\":12701:12767   */\n      0xffffffffffffffffffffffffffffffffffffffffffffffffffffffffffffffff\n        /* \"#utility.yul\":12694:12699   */\n      dup3\n        /* \"#utility.yul\":12691:12768   */\n      eq\n        /* \"#utility.yul\":12688:12791   */\n      iszero\n      tag_329\n      jumpi\n        /* \"#utility.yul\":12771:12789   */\n      tag_330\n      tag_301\n      jump\t// in\n    tag_330:\n        /* \"#utility.yul\":12688:12791   */\n    tag_329:\n        /* \"#utility.yul\":12818:12819   */\n      0x01\n        /* \"#utility.yul\":12811:12816   */\n      dup3\n        /* \"#utility.yul\":12807:12820   */\n      add\n        /* \"#utility.yul\":12800:12820   */\n      swap1\n      pop\n        /* \"#utility.yul\":12593:12826   */\n      swap2\n      swap1\n      pop\n      jump\t// out\n        /* \"#utility.yul\":12832:13012   */\n    tag_301:\n        /* \"#utility.yul\":12880:12957   */\n      0x4e487b7100000000000000000000000000000000000000000000000000000000\n        /* \"#utility.yul\":12877:12878   */\n      0x00\n        /* \"#utility.yul\":12870:12958   */\n      mstore\n        /* \"#utility.yul\":12977:12981   */\n      0x11\n        /* \"#utility.yul\":12974:12975   */\n      0x04\n        /* \"#utility.yul\":12967:12982   */\n      mstore\n        /* \"#utility.yul\":13001:13005   */\n      0x24\n        /* \"#utility.yul\":12998:12999   */\n      0x00\n        /* \"#utility.yul\":12991:13006   */\n      revert\n        /* \"#utility.yul\":13018:13198   */\n    tag_81:\n        /* \"#utility.yul\":13066:13143   */\n      0x4e487b7100000000000000000000000000000000000000000000000000000000\n        /* \"#utility.yul\":13063:13064   */\n      0x00\n        /* \"#utility.yul\":13056:13144   */\n      mstore\n        /* \"#utility.yul\":13163:13167   */\n      0x32\n        /* \"#utility.yul\":13160:13161   */\n      0x04\n        /* \"#utility.yul\":13153:13168   */\n      mstore\n        /* \"#utility.yul\":13187:13191   */\n      0x24\n        /* \"#utility.yul\":13184:13185   */\n      0x00\n        /* \"#utility.yul\":13177:13192   */\n      revert\n        /* \"#utility.yul\":13204:13384   */\n    tag_97:\n        /* \"#utility.yul\":13252:13329   */\n      0x4e487b7100000000000000000000000000000000000000000000000000000000\n        /* \"#utility.yul\":13249:13250   */\n      0x00\n        /* \"#utility.yul\":13242:13330   */\n      mstore\n        /* \"#utility.yul\":13349:13353   */\n      0x41\n        /* \"#utility.yul\":13346:13347   */\n      0x04\n        /* \"#utility.yul\":13339:13354   */\n      mstore\n        /* \"#utility.yul\":13373:13377   */\n      0x24\n        /* \"#utility.yul\":13370:13371   */\n      0x00\n        /* \"#utility.yul\":13363:13378   */\n      revert\n        /* \"#utility.yul\":13513:13630   */\n    tag_172:\n        /* \"#utility.yul\":13622:13623   */\n      0x00\n        /* \"#utility.yul\":13619:13620   */\n      dup1\n        /* \"#utility.yul\":13612:13624   */\n      revert\n        /* \"#utility.yul\":13636:13738   */\n    tag_243:\n        /* \"#utility.yul\":13677:13683   */\n      0x00\n        /* \"#utility.yul\":13728:13730   */\n      0x1f\n        /* \"#utility.yul\":13724:13731   */\n      not\n        /* \"#utility.yul\":13719:13721   */\n      0x1f\n        /* \"#utility.yul\":13712:13717   */\n      dup4\n        /* \"#utility.yul\":13708:13722   */\n      add\n        /* \"#utility.yul\":13704:13732   */\n      and\n        /* \"#utility.yul\":13694:13732   */\n      swap1\n      pop\n        /* \"#utility.yul\":13636:13738   */\n      swap2\n      swap1\n      pop\n      jump\t// out\n        /* \"#utility.yul\":13744:13916   */\n    tag_248:\n        /* \"#utility.yul\":13884:13908   */\n      0x4f6e6c79206d616e616765722063616e2063616c6c2100000000000000000000\n        /* \"#utility.yul\":13880:13881   */\n      0x00\n        /* \"#utility.yul\":13872:13878   */\n      dup3\n        /* \"#utility.yul\":13868:13882   */\n      add\n        /* \"#utility.yul\":13861:13909   */\n      mstore\n        /* \"#utility.yul\":13744:13916   */\n      pop\n      jump\t// out\n        /* \"#utility.yul\":13922:14145   */\n    tag_253:\n        /* \"#utility.yul\":14062:14096   */\n      0x49742773206a757374206265656e206c657373207468616e203130207365636f\n        /* \"#utility.yul\":14058:14059   */\n      0x00\n        /* \"#utility.yul\":14050:14056   */\n      dup3\n        /* \"#utility.yul\":14046:14060   */\n      add\n        /* \"#utility.yul\":14039:14097   */\n      mstore\n        /* \"#utility.yul\":14131:14137   */\n      0x6e64732100000000000000000000000000000000000000000000000000000000\n        /* \"#utility.yul\":14126:14128   */\n      0x20\n        /* \"#utility.yul\":14118:14124   */\n      dup3\n        /* \"#utility.yul\":14114:14129   */\n      add\n        /* \"#utility.yul\":14107:14138   */\n      mstore\n        /* \"#utility.yul\":13922:14145   */\n      pop\n      jump\t// out\n        /* \"#utility.yul\":14151:14323   */\n    tag_258:\n        /* \"#utility.yul\":14291:14315   */\n      0x4f6e6c7920636c69656e74732063616e2063616c6c2100000000000000000000\n        /* \"#utility.yul\":14287:14288   */\n      0x00\n        /* \"#utility.yul\":14279:14285   */\n      dup3\n        /* \"#utility.yul\":14275:14289   */\n      add\n        /* \"#utility.yul\":14268:14316   */\n      mstore\n        /* \"#utility.yul\":14151:14323   */\n      pop\n      jump\t// out\n        /* \"#utility.yul\":14329:14451   */\n    tag_160:\n        /* \"#utility.yul\":14402:14426   */\n      tag_342\n        /* \"#utility.yul\":14420:14425   */\n      dup2\n        /* \"#utility.yul\":14402:14426   */\n      tag_198\n      jump\t// in\n    tag_342:\n        /* \"#utility.yul\":14395:14400   */\n      dup2\n        /* \"#utility.yul\":14392:14427   */\n      eq\n        /* \"#utility.yul\":14382:14445   */\n      tag_343\n      jumpi\n        /* \"#utility.yul\":14441:14442   */\n      0x00\n        /* \"#utility.yul\":14438:14439   */\n      dup1\n        /* \"#utility.yul\":14431:14443   */\n      revert\n        /* \"#utility.yul\":14382:14445   */\n    tag_343:\n        /* \"#utility.yul\":14329:14451   */\n      pop\n      jump\t// out\n        /* \"#utility.yul\":14457:14573   */\n    tag_164:\n        /* \"#utility.yul\":14527:14548   */\n      tag_345\n        /* \"#utility.yul\":14542:14547   */\n      dup2\n        /* \"#utility.yul\":14527:14548   */\n      tag_310\n      jump\t// in\n    tag_345:\n        /* \"#utility.yul\":14520:14525   */\n      dup2\n        /* \"#utility.yul\":14517:14549   */\n      eq\n        /* \"#utility.yul\":14507:14567   */\n      tag_346\n      jumpi\n        /* \"#utility.yul\":14563:14564   */\n      0x00\n        /* \"#utility.yul\":14560:14561   */\n      dup1\n        /* \"#utility.yul\":14553:14565   */\n      revert\n        /* \"#utility.yul\":14507:14567   */\n    tag_346:\n        /* \"#utility.yul\":14457:14573   */\n      pop\n      jump\t// out\n        /* \"#utility.yul\":14579:14701   */\n    tag_168:\n        /* \"#utility.yul\":14652:14676   */\n      tag_348\n        /* \"#utility.yul\":14670:14675   */\n      dup2\n        /* \"#utility.yul\":14652:14676   */\n      tag_261\n      jump\t// in\n    tag_348:\n        /* \"#utility.yul\":14645:14650   */\n      dup2\n        /* \"#utility.yul\":14642:14677   */\n      eq\n        /* \"#utility.yul\":14632:14695   */\n      tag_349\n      jumpi\n        /* \"#utility.yul\":14691:14692   */\n      0x00\n        /* \"#utility.yul\":14688:14689   */\n      dup1\n        /* \"#utility.yul\":14681:14693   */\n      revert\n        /* \"#utility.yul\":14632:14695   */\n    tag_349:\n        /* \"#utility.yul\":14579:14701   */\n      pop\n      jump\t// out\n\n    auxdata: 0xa264697066735822122071546fffe8cbff0f49bf2b17ef760d1f7e7db4766b710ee4db98e532f2ce641b64736f6c63430008070033\n}\n",
				"bytecode": {
					"linkReferences": {},
					"object": "608060405234801561001057600080fd5b5060006001819055506113b4806100286000396000f3fe6080604052600436106100a05760003560e01c80639e0a5d68116100645780639e0a5d6814610152578063a40921741461015c578063d0e30db01461017a578063d0ebdbe714610184578063d9dca6c5146101c1578063fef75470146101fe576100a7565b80632855bd92146100ac5780632bbc7cac146100d55780632e1a7d4d146100df5780636db80995146100fb5780636f9fb98a14610127576100a7565b366100a757005b600080fd5b3480156100b857600080fd5b506100d360048036038101906100ce9190610be2565b610229565b005b6100dd6102d8565b005b6100f960048036038101906100f49190610c62565b610360565b005b34801561010757600080fd5b506101106104a4565b60405161011e929190610e9f565b60405180910390f35b34801561013357600080fd5b5061013c610651565b6040516101499190610f73565b60405180910390f35b61015a610659565b005b610164610880565b6040516101719190610ef1565b60405180910390f35b6101826109c1565b005b34801561019057600080fd5b506101ab60048036038101906101a69190610bb5565b610af2565b6040516101b89190610ef1565b60405180910390f35b3480156101cd57600080fd5b506101e860048036038101906101e39190610bb5565b610b4c565b6040516101f59190610f73565b60405180910390f35b34801561020a57600080fd5b50610213610b64565b6040516102209190610f73565b60405180910390f35b600073d9145cce52d386f254917e481eb44e9943f3913890508073ffffffffffffffffffffffffffffffffffffffff166323b872dd8585856040518463ffffffff1660e01b815260040161027f93929190610e68565b602060405180830381600087803b15801561029957600080fd5b505af11580156102ad573d6000803e3d6000fd5b505050506040513d601f19601f820116820180604052508101906102d19190610c35565b5050505050565b6000734f7b4006d00f5e8ff0c91d22a379e8164ae7879f90508073ffffffffffffffffffffffffffffffffffffffff1663a0712d6860016040518263ffffffff1660e01b815260040161032b9190610ed6565b600060405180830381600087803b15801561034557600080fd5b505af1158015610359573d6000803e3d6000fd5b5050505050565b6000805b600080549050811015610406573373ffffffffffffffffffffffffffffffffffffffff166000828154811061039c5761039b611224565b5b906000526020600020906003020160010160009054906101000a900473ffffffffffffffffffffffffffffffffffffffff1673ffffffffffffffffffffffffffffffffffffffff1614156103f35760019150610406565b80806103fe906111ac565b915050610364565b5080610447576040517f08c379a000000000000000000000000000000000000000000000000000000000815260040161043e90610f53565b60405180910390fd5b60003390508073ffffffffffffffffffffffffffffffffffffffff166108fc6001856104739190611072565b9081150290604051600060405180830381858888f1935050505015801561049e573d6000803e3d6000fd5b50505050565b6060806000808054905067ffffffffffffffff8111156104c7576104c6611253565b5b6040519080825280602002602001820160405280156104f55781602001602082028036833780820191505090505b5090506000808054905067ffffffffffffffff81111561051857610517611253565b5b6040519080825280602002602001820160405280156105465781602001602082028036833780820191505090505b50905060005b600080549050811015610644576000818154811061056d5761056c611224565b5b906000526020600020906003020160010160009054906101000a900473ffffffffffffffffffffffffffffffffffffffff168382815181106105b2576105b1611224565b5b602002602001019073ffffffffffffffffffffffffffffffffffffffff16908173ffffffffffffffffffffffffffffffffffffffff168152505060008181548110610600576105ff611224565b5b90600052602060002090600302016002015482828151811061062557610624611224565b5b602002602001018181525050808061063c906111ac565b91505061054c565b5081819350935050509091565b600047905090565b600260009054906101000a900473ffffffffffffffffffffffffffffffffffffffff1673ffffffffffffffffffffffffffffffffffffffff163373ffffffffffffffffffffffffffffffffffffffff16146106e9576040517f08c379a00000000000000000000000000000000000000000000000000000000081526004016106e090610f13565b60405180910390fd5b60005b60008054905081101561087d57600080828154811061070e5761070d611224565b5b906000526020600020906003020160010160009054906101000a900473ffffffffffffffffffffffffffffffffffffffff1690506000600360008373ffffffffffffffffffffffffffffffffffffffff1673ffffffffffffffffffffffffffffffffffffffff168152602001908152602001600020549050600a81610793919061101c565b4210156107d5576040517f08c379a00000000000000000000000000000000000000000000000000000000081526004016107cc90610f33565b60405180910390fd5b8173ffffffffffffffffffffffffffffffffffffffff166108fc670de0b6b3a76400009081150290604051600060405180830381858888f19350505050158015610823573d6000803e3d6000fd5b5042600360008473ffffffffffffffffffffffffffffffffffffffff1673ffffffffffffffffffffffffffffffffffffffff1681526020019081526020016000208190555050508080610875906111ac565b9150506106ec565b50565b606042600360003373ffffffffffffffffffffffffffffffffffffffff1673ffffffffffffffffffffffffffffffffffffffff1681526020019081526020016000208190555060006040518060600160405280600160008154809291906108e690611163565b9190505581526020013373ffffffffffffffffffffffffffffffffffffffff1681526020013373ffffffffffffffffffffffffffffffffffffffff163181525090806001815401808255809150506001900390600052602060002090600302016000909190919091506000820151816000015560208201518160010160006101000a81548173ffffffffffffffffffffffffffffffffffffffff021916908373ffffffffffffffffffffffffffffffffffffffff16021790555060408201518160020155505060405180602001604052806000815250905090565b6000805b600080549050811015610a67573373ffffffffffffffffffffffffffffffffffffffff16600082815481106109fd576109fc611224565b5b906000526020600020906003020160010160009054906101000a900473ffffffffffffffffffffffffffffffffffffffff1673ffffffffffffffffffffffffffffffffffffffff161415610a545760019150610a67565b8080610a5f906111ac565b9150506109c5565b5080610aa8576040517f08c379a0000000000000000000000000000000000000000000000000000000008152600401610a9f90610f53565b60405180910390fd5b3073ffffffffffffffffffffffffffffffffffffffff166108fc349081150290604051600060405180830381858888f19350505050158015610aee573d6000803e3d6000fd5b5050565b606081600260006101000a81548173ffffffffffffffffffffffffffffffffffffffff021916908373ffffffffffffffffffffffffffffffffffffffff160217905550604051806020016040528060008152509050919050565b60036020528060005260406000206000915090505481565b60008060008054905090508091505090565b600081359050610b8581611339565b92915050565b600081519050610b9a81611350565b92915050565b600081359050610baf81611367565b92915050565b600060208284031215610bcb57610bca611282565b5b6000610bd984828501610b76565b91505092915050565b600080600060608486031215610bfb57610bfa611282565b5b6000610c0986828701610b76565b9350506020610c1a86828701610b76565b9250506040610c2b86828701610ba0565b9150509250925092565b600060208284031215610c4b57610c4a611282565b5b6000610c5984828501610b8b565b91505092915050565b600060208284031215610c7857610c77611282565b5b6000610c8684828501610ba0565b91505092915050565b6000610c9b8383610cbf565b60208301905092915050565b6000610cb38383610e4a565b60208301905092915050565b610cc8816110cc565b82525050565b610cd7816110cc565b82525050565b6000610ce882610fae565b610cf28185610fe9565b9350610cfd83610f8e565b8060005b83811015610d2e578151610d158882610c8f565b9750610d2083610fcf565b925050600181019050610d01565b5085935050505092915050565b6000610d4682610fb9565b610d508185610ffa565b9350610d5b83610f9e565b8060005b83811015610d8c578151610d738882610ca7565b9750610d7e83610fdc565b925050600181019050610d5f565b5085935050505092915050565b610da28161111e565b82525050565b6000610db382610fc4565b610dbd818561100b565b9350610dcd818560208601611130565b610dd681611287565b840191505092915050565b6000610dee60168361100b565b9150610df982611298565b602082019050919050565b6000610e1160248361100b565b9150610e1c826112c1565b604082019050919050565b6000610e3460168361100b565b9150610e3f82611310565b602082019050919050565b610e5381611114565b82525050565b610e6281611114565b82525050565b6000606082019050610e7d6000830186610cce565b610e8a6020830185610cce565b610e976040830184610e59565b949350505050565b60006040820190508181036000830152610eb98185610cdd565b90508181036020830152610ecd8184610d3b565b90509392505050565b6000602082019050610eeb6000830184610d99565b92915050565b60006020820190508181036000830152610f0b8184610da8565b905092915050565b60006020820190508181036000830152610f2c81610de1565b9050919050565b60006020820190508181036000830152610f4c81610e04565b9050919050565b60006020820190508181036000830152610f6c81610e27565b9050919050565b6000602082019050610f886000830184610e59565b92915050565b6000819050602082019050919050565b6000819050602082019050919050565b600081519050919050565b600081519050919050565b600081519050919050565b6000602082019050919050565b6000602082019050919050565b600082825260208201905092915050565b600082825260208201905092915050565b600082825260208201905092915050565b600061102782611114565b915061103283611114565b9250827fffffffffffffffffffffffffffffffffffffffffffffffffffffffffffffffff03821115611067576110666111f5565b5b828201905092915050565b600061107d82611114565b915061108883611114565b9250817fffffffffffffffffffffffffffffffffffffffffffffffffffffffffffffffff04831182151516156110c1576110c06111f5565b5b828202905092915050565b60006110d7826110f4565b9050919050565b60008115159050919050565b6000819050919050565b600073ffffffffffffffffffffffffffffffffffffffff82169050919050565b6000819050919050565b600061112982611114565b9050919050565b60005b8381101561114e578082015181840152602081019050611133565b8381111561115d576000848401525b50505050565b600061116e826110ea565b91507f7fffffffffffffffffffffffffffffffffffffffffffffffffffffffffffffff8214156111a1576111a06111f5565b5b600182019050919050565b60006111b782611114565b91507fffffffffffffffffffffffffffffffffffffffffffffffffffffffffffffffff8214156111ea576111e96111f5565b5b600182019050919050565b7f4e487b7100000000000000000000000000000000000000000000000000000000600052601160045260246000fd5b7f4e487b7100000000000000000000000000000000000000000000000000000000600052603260045260246000fd5b7f4e487b7100000000000000000000000000000000000000000000000000000000600052604160045260246000fd5b600080fd5b6000601f19601f8301169050919050565b7f4f6e6c79206d616e616765722063616e2063616c6c2100000000000000000000600082015250565b7f49742773206a757374206265656e206c657373207468616e203130207365636f60008201527f6e64732100000000000000000000000000000000000000000000000000000000602082015250565b7f4f6e6c7920636c69656e74732063616e2063616c6c2100000000000000000000600082015250565b611342816110cc565b811461134d57600080fd5b50565b611359816110de565b811461136457600080fd5b50565b61137081611114565b811461137b57600080fd5b5056fea264697066735822122071546fffe8cbff0f49bf2b17ef760d1f7e7db4766b710ee4db98e532f2ce641b64736f6c63430008070033",
					"opcodes": "PUSH1 0x80 PUSH1 0x40 MSTORE CALLVALUE DUP1 ISZERO PUSH2 0x10 JUMPI PUSH1 0x0 DUP1 REVERT JUMPDEST POP PUSH1 0x0 PUSH1 0x1 DUP2 SWAP1 SSTORE POP PUSH2 0x13B4 DUP1 PUSH2 0x28 PUSH1 0x0 CODECOPY PUSH1 0x0 RETURN INVALID PUSH1 0x80 PUSH1 0x40 MSTORE PUSH1 0x4 CALLDATASIZE LT PUSH2 0xA0 JUMPI PUSH1 0x0 CALLDATALOAD PUSH1 0xE0 SHR DUP1 PUSH4 0x9E0A5D68 GT PUSH2 0x64 JUMPI DUP1 PUSH4 0x9E0A5D68 EQ PUSH2 0x152 JUMPI DUP1 PUSH4 0xA4092174 EQ PUSH2 0x15C JUMPI DUP1 PUSH4 0xD0E30DB0 EQ PUSH2 0x17A JUMPI DUP1 PUSH4 0xD0EBDBE7 EQ PUSH2 0x184 JUMPI DUP1 PUSH4 0xD9DCA6C5 EQ PUSH2 0x1C1 JUMPI DUP1 PUSH4 0xFEF75470 EQ PUSH2 0x1FE JUMPI PUSH2 0xA7 JUMP JUMPDEST DUP1 PUSH4 0x2855BD92 EQ PUSH2 0xAC JUMPI DUP1 PUSH4 0x2BBC7CAC EQ PUSH2 0xD5 JUMPI DUP1 PUSH4 0x2E1A7D4D EQ PUSH2 0xDF JUMPI DUP1 PUSH4 0x6DB80995 EQ PUSH2 0xFB JUMPI DUP1 PUSH4 0x6F9FB98A EQ PUSH2 0x127 JUMPI PUSH2 0xA7 JUMP JUMPDEST CALLDATASIZE PUSH2 0xA7 JUMPI STOP JUMPDEST PUSH1 0x0 DUP1 REVERT JUMPDEST CALLVALUE DUP1 ISZERO PUSH2 0xB8 JUMPI PUSH1 0x0 DUP1 REVERT JUMPDEST POP PUSH2 0xD3 PUSH1 0x4 DUP1 CALLDATASIZE SUB DUP2 ADD SWAP1 PUSH2 0xCE SWAP2 SWAP1 PUSH2 0xBE2 JUMP JUMPDEST PUSH2 0x229 JUMP JUMPDEST STOP JUMPDEST PUSH2 0xDD PUSH2 0x2D8 JUMP JUMPDEST STOP JUMPDEST PUSH2 0xF9 PUSH1 0x4 DUP1 CALLDATASIZE SUB DUP2 ADD SWAP1 PUSH2 0xF4 SWAP2 SWAP1 PUSH2 0xC62 JUMP JUMPDEST PUSH2 0x360 JUMP JUMPDEST STOP JUMPDEST CALLVALUE DUP1 ISZERO PUSH2 0x107 JUMPI PUSH1 0x0 DUP1 REVERT JUMPDEST POP PUSH2 0x110 PUSH2 0x4A4 JUMP JUMPDEST PUSH1 0x40 MLOAD PUSH2 0x11E SWAP3 SWAP2 SWAP1 PUSH2 0xE9F JUMP JUMPDEST PUSH1 0x40 MLOAD DUP1 SWAP2 SUB SWAP1 RETURN JUMPDEST CALLVALUE DUP1 ISZERO PUSH2 0x133 JUMPI PUSH1 0x0 DUP1 REVERT JUMPDEST POP PUSH2 0x13C PUSH2 0x651 JUMP JUMPDEST PUSH1 0x40 MLOAD PUSH2 0x149 SWAP2 SWAP1 PUSH2 0xF73 JUMP JUMPDEST PUSH1 0x40 MLOAD DUP1 SWAP2 SUB SWAP1 RETURN JUMPDEST PUSH2 0x15A PUSH2 0x659 JUMP JUMPDEST STOP JUMPDEST PUSH2 0x164 PUSH2 0x880 JUMP JUMPDEST PUSH1 0x40 MLOAD PUSH2 0x171 SWAP2 SWAP1 PUSH2 0xEF1 JUMP JUMPDEST PUSH1 0x40 MLOAD DUP1 SWAP2 SUB SWAP1 RETURN JUMPDEST PUSH2 0x182 PUSH2 0x9C1 JUMP JUMPDEST STOP JUMPDEST CALLVALUE DUP1 ISZERO PUSH2 0x190 JUMPI PUSH1 0x0 DUP1 REVERT JUMPDEST POP PUSH2 0x1AB PUSH1 0x4 DUP1 CALLDATASIZE SUB DUP2 ADD SWAP1 PUSH2 0x1A6 SWAP2 SWAP1 PUSH2 0xBB5 JUMP JUMPDEST PUSH2 0xAF2 JUMP JUMPDEST PUSH1 0x40 MLOAD PUSH2 0x1B8 SWAP2 SWAP1 PUSH2 0xEF1 JUMP JUMPDEST PUSH1 0x40 MLOAD DUP1 SWAP2 SUB SWAP1 RETURN JUMPDEST CALLVALUE DUP1 ISZERO PUSH2 0x1CD JUMPI PUSH1 0x0 DUP1 REVERT JUMPDEST POP PUSH2 0x1E8 PUSH1 0x4 DUP1 CALLDATASIZE SUB DUP2 ADD SWAP1 PUSH2 0x1E3 SWAP2 SWAP1 PUSH2 0xBB5 JUMP JUMPDEST PUSH2 0xB4C JUMP JUMPDEST PUSH1 0x40 MLOAD PUSH2 0x1F5 SWAP2 SWAP1 PUSH2 0xF73 JUMP JUMPDEST PUSH1 0x40 MLOAD DUP1 SWAP2 SUB SWAP1 RETURN JUMPDEST CALLVALUE DUP1 ISZERO PUSH2 0x20A JUMPI PUSH1 0x0 DUP1 REVERT JUMPDEST POP PUSH2 0x213 PUSH2 0xB64 JUMP JUMPDEST PUSH1 0x40 MLOAD PUSH2 0x220 SWAP2 SWAP1 PUSH2 0xF73 JUMP JUMPDEST PUSH1 0x40 MLOAD DUP1 SWAP2 SUB SWAP1 RETURN JUMPDEST PUSH1 0x0 PUSH20 0xD9145CCE52D386F254917E481EB44E9943F39138 SWAP1 POP DUP1 PUSH20 0xFFFFFFFFFFFFFFFFFFFFFFFFFFFFFFFFFFFFFFFF AND PUSH4 0x23B872DD DUP6 DUP6 DUP6 PUSH1 0x40 MLOAD DUP5 PUSH4 0xFFFFFFFF AND PUSH1 0xE0 SHL DUP2 MSTORE PUSH1 0x4 ADD PUSH2 0x27F SWAP4 SWAP3 SWAP2 SWAP1 PUSH2 0xE68 JUMP JUMPDEST PUSH1 0x20 PUSH1 0x40 MLOAD DUP1 DUP4 SUB DUP2 PUSH1 0x0 DUP8 DUP1 EXTCODESIZE ISZERO DUP1 ISZERO PUSH2 0x299 JUMPI PUSH1 0x0 DUP1 REVERT JUMPDEST POP GAS CALL ISZERO DUP1 ISZERO PUSH2 0x2AD JUMPI RETURNDATASIZE PUSH1 0x0 DUP1 RETURNDATACOPY RETURNDATASIZE PUSH1 0x0 REVERT JUMPDEST POP POP POP POP PUSH1 0x40 MLOAD RETURNDATASIZE PUSH1 0x1F NOT PUSH1 0x1F DUP3 ADD AND DUP3 ADD DUP1 PUSH1 0x40 MSTORE POP DUP2 ADD SWAP1 PUSH2 0x2D1 SWAP2 SWAP1 PUSH2 0xC35 JUMP JUMPDEST POP POP POP POP POP JUMP JUMPDEST PUSH1 0x0 PUSH20 0x4F7B4006D00F5E8FF0C91D22A379E8164AE7879F SWAP1 POP DUP1 PUSH20 0xFFFFFFFFFFFFFFFFFFFFFFFFFFFFFFFFFFFFFFFF AND PUSH4 0xA0712D68 PUSH1 0x1 PUSH1 0x40 MLOAD DUP3 PUSH4 0xFFFFFFFF AND PUSH1 0xE0 SHL DUP2 MSTORE PUSH1 0x4 ADD PUSH2 0x32B SWAP2 SWAP1 PUSH2 0xED6 JUMP JUMPDEST PUSH1 0x0 PUSH1 0x40 MLOAD DUP1 DUP4 SUB DUP2 PUSH1 0x0 DUP8 DUP1 EXTCODESIZE ISZERO DUP1 ISZERO PUSH2 0x345 JUMPI PUSH1 0x0 DUP1 REVERT JUMPDEST POP GAS CALL ISZERO DUP1 ISZERO PUSH2 0x359 JUMPI RETURNDATASIZE PUSH1 0x0 DUP1 RETURNDATACOPY RETURNDATASIZE PUSH1 0x0 REVERT JUMPDEST POP POP POP POP POP JUMP JUMPDEST PUSH1 0x0 DUP1 JUMPDEST PUSH1 0x0 DUP1 SLOAD SWAP1 POP DUP2 LT ISZERO PUSH2 0x406 JUMPI CALLER PUSH20 0xFFFFFFFFFFFFFFFFFFFFFFFFFFFFFFFFFFFFFFFF AND PUSH1 0x0 DUP3 DUP2 SLOAD DUP2 LT PUSH2 0x39C JUMPI PUSH2 0x39B PUSH2 0x1224 JUMP JUMPDEST JUMPDEST SWAP1 PUSH1 0x0 MSTORE PUSH1 0x20 PUSH1 0x0 KECCAK256 SWAP1 PUSH1 0x3 MUL ADD PUSH1 0x1 ADD PUSH1 0x0 SWAP1 SLOAD SWAP1 PUSH2 0x100 EXP SWAP1 DIV PUSH20 0xFFFFFFFFFFFFFFFFFFFFFFFFFFFFFFFFFFFFFFFF AND PUSH20 0xFFFFFFFFFFFFFFFFFFFFFFFFFFFFFFFFFFFFFFFF AND EQ ISZERO PUSH2 0x3F3 JUMPI PUSH1 0x1 SWAP2 POP PUSH2 0x406 JUMP JUMPDEST DUP1 DUP1 PUSH2 0x3FE SWAP1 PUSH2 0x11AC JUMP JUMPDEST SWAP2 POP POP PUSH2 0x364 JUMP JUMPDEST POP DUP1 PUSH2 0x447 JUMPI PUSH1 0x40 MLOAD PUSH32 0x8C379A000000000000000000000000000000000000000000000000000000000 DUP2 MSTORE PUSH1 0x4 ADD PUSH2 0x43E SWAP1 PUSH2 0xF53 JUMP JUMPDEST PUSH1 0x40 MLOAD DUP1 SWAP2 SUB SWAP1 REVERT JUMPDEST PUSH1 0x0 CALLER SWAP1 POP DUP1 PUSH20 0xFFFFFFFFFFFFFFFFFFFFFFFFFFFFFFFFFFFFFFFF AND PUSH2 0x8FC PUSH1 0x1 DUP6 PUSH2 0x473 SWAP2 SWAP1 PUSH2 0x1072 JUMP JUMPDEST SWAP1 DUP2 ISZERO MUL SWAP1 PUSH1 0x40 MLOAD PUSH1 0x0 PUSH1 0x40 MLOAD DUP1 DUP4 SUB DUP2 DUP6 DUP9 DUP9 CALL SWAP4 POP POP POP POP ISZERO DUP1 ISZERO PUSH2 0x49E JUMPI RETURNDATASIZE PUSH1 0x0 DUP1 RETURNDATACOPY RETURNDATASIZE PUSH1 0x0 REVERT JUMPDEST POP POP POP POP JUMP JUMPDEST PUSH1 0x60 DUP1 PUSH1 0x0 DUP1 DUP1 SLOAD SWAP1 POP PUSH8 0xFFFFFFFFFFFFFFFF DUP2 GT ISZERO PUSH2 0x4C7 JUMPI PUSH2 0x4C6 PUSH2 0x1253 JUMP JUMPDEST JUMPDEST PUSH1 0x40 MLOAD SWAP1 DUP1 DUP3 MSTORE DUP1 PUSH1 0x20 MUL PUSH1 0x20 ADD DUP3 ADD PUSH1 0x40 MSTORE DUP1 ISZERO PUSH2 0x4F5 JUMPI DUP2 PUSH1 0x20 ADD PUSH1 0x20 DUP3 MUL DUP1 CALLDATASIZE DUP4 CALLDATACOPY DUP1 DUP3 ADD SWAP2 POP POP SWAP1 POP JUMPDEST POP SWAP1 POP PUSH1 0x0 DUP1 DUP1 SLOAD SWAP1 POP PUSH8 0xFFFFFFFFFFFFFFFF DUP2 GT ISZERO PUSH2 0x518 JUMPI PUSH2 0x517 PUSH2 0x1253 JUMP JUMPDEST JUMPDEST PUSH1 0x40 MLOAD SWAP1 DUP1 DUP3 MSTORE DUP1 PUSH1 0x20 MUL PUSH1 0x20 ADD DUP3 ADD PUSH1 0x40 MSTORE DUP1 ISZERO PUSH2 0x546 JUMPI DUP2 PUSH1 0x20 ADD PUSH1 0x20 DUP3 MUL DUP1 CALLDATASIZE DUP4 CALLDATACOPY DUP1 DUP3 ADD SWAP2 POP POP SWAP1 POP JUMPDEST POP SWAP1 POP PUSH1 0x0 JUMPDEST PUSH1 0x0 DUP1 SLOAD SWAP1 POP DUP2 LT ISZERO PUSH2 0x644 JUMPI PUSH1 0x0 DUP2 DUP2 SLOAD DUP2 LT PUSH2 0x56D JUMPI PUSH2 0x56C PUSH2 0x1224 JUMP JUMPDEST JUMPDEST SWAP1 PUSH1 0x0 MSTORE PUSH1 0x20 PUSH1 0x0 KECCAK256 SWAP1 PUSH1 0x3 MUL ADD PUSH1 0x1 ADD PUSH1 0x0 SWAP1 SLOAD SWAP1 PUSH2 0x100 EXP SWAP1 DIV PUSH20 0xFFFFFFFFFFFFFFFFFFFFFFFFFFFFFFFFFFFFFFFF AND DUP4 DUP3 DUP2 MLOAD DUP2 LT PUSH2 0x5B2 JUMPI PUSH2 0x5B1 PUSH2 0x1224 JUMP JUMPDEST JUMPDEST PUSH1 0x20 MUL PUSH1 0x20 ADD ADD SWAP1 PUSH20 0xFFFFFFFFFFFFFFFFFFFFFFFFFFFFFFFFFFFFFFFF AND SWAP1 DUP2 PUSH20 0xFFFFFFFFFFFFFFFFFFFFFFFFFFFFFFFFFFFFFFFF AND DUP2 MSTORE POP POP PUSH1 0x0 DUP2 DUP2 SLOAD DUP2 LT PUSH2 0x600 JUMPI PUSH2 0x5FF PUSH2 0x1224 JUMP JUMPDEST JUMPDEST SWAP1 PUSH1 0x0 MSTORE PUSH1 0x20 PUSH1 0x0 KECCAK256 SWAP1 PUSH1 0x3 MUL ADD PUSH1 0x2 ADD SLOAD DUP3 DUP3 DUP2 MLOAD DUP2 LT PUSH2 0x625 JUMPI PUSH2 0x624 PUSH2 0x1224 JUMP JUMPDEST JUMPDEST PUSH1 0x20 MUL PUSH1 0x20 ADD ADD DUP2 DUP2 MSTORE POP POP DUP1 DUP1 PUSH2 0x63C SWAP1 PUSH2 0x11AC JUMP JUMPDEST SWAP2 POP POP PUSH2 0x54C JUMP JUMPDEST POP DUP2 DUP2 SWAP4 POP SWAP4 POP POP POP SWAP1 SWAP2 JUMP JUMPDEST PUSH1 0x0 SELFBALANCE SWAP1 POP SWAP1 JUMP JUMPDEST PUSH1 0x2 PUSH1 0x0 SWAP1 SLOAD SWAP1 PUSH2 0x100 EXP SWAP1 DIV PUSH20 0xFFFFFFFFFFFFFFFFFFFFFFFFFFFFFFFFFFFFFFFF AND PUSH20 0xFFFFFFFFFFFFFFFFFFFFFFFFFFFFFFFFFFFFFFFF AND CALLER PUSH20 0xFFFFFFFFFFFFFFFFFFFFFFFFFFFFFFFFFFFFFFFF AND EQ PUSH2 0x6E9 JUMPI PUSH1 0x40 MLOAD PUSH32 0x8C379A000000000000000000000000000000000000000000000000000000000 DUP2 MSTORE PUSH1 0x4 ADD PUSH2 0x6E0 SWAP1 PUSH2 0xF13 JUMP JUMPDEST PUSH1 0x40 MLOAD DUP1 SWAP2 SUB SWAP1 REVERT JUMPDEST PUSH1 0x0 JUMPDEST PUSH1 0x0 DUP1 SLOAD SWAP1 POP DUP2 LT ISZERO PUSH2 0x87D JUMPI PUSH1 0x0 DUP1 DUP3 DUP2 SLOAD DUP2 LT PUSH2 0x70E JUMPI PUSH2 0x70D PUSH2 0x1224 JUMP JUMPDEST JUMPDEST SWAP1 PUSH1 0x0 MSTORE PUSH1 0x20 PUSH1 0x0 KECCAK256 SWAP1 PUSH1 0x3 MUL ADD PUSH1 0x1 ADD PUSH1 0x0 SWAP1 SLOAD SWAP1 PUSH2 0x100 EXP SWAP1 DIV PUSH20 0xFFFFFFFFFFFFFFFFFFFFFFFFFFFFFFFFFFFFFFFF AND SWAP1 POP PUSH1 0x0 PUSH1 0x3 PUSH1 0x0 DUP4 PUSH20 0xFFFFFFFFFFFFFFFFFFFFFFFFFFFFFFFFFFFFFFFF AND PUSH20 0xFFFFFFFFFFFFFFFFFFFFFFFFFFFFFFFFFFFFFFFF AND DUP2 MSTORE PUSH1 0x20 ADD SWAP1 DUP2 MSTORE PUSH1 0x20 ADD PUSH1 0x0 KECCAK256 SLOAD SWAP1 POP PUSH1 0xA DUP2 PUSH2 0x793 SWAP2 SWAP1 PUSH2 0x101C JUMP JUMPDEST TIMESTAMP LT ISZERO PUSH2 0x7D5 JUMPI PUSH1 0x40 MLOAD PUSH32 0x8C379A000000000000000000000000000000000000000000000000000000000 DUP2 MSTORE PUSH1 0x4 ADD PUSH2 0x7CC SWAP1 PUSH2 0xF33 JUMP JUMPDEST PUSH1 0x40 MLOAD DUP1 SWAP2 SUB SWAP1 REVERT JUMPDEST DUP2 PUSH20 0xFFFFFFFFFFFFFFFFFFFFFFFFFFFFFFFFFFFFFFFF AND PUSH2 0x8FC PUSH8 0xDE0B6B3A7640000 SWAP1 DUP2 ISZERO MUL SWAP1 PUSH1 0x40 MLOAD PUSH1 0x0 PUSH1 0x40 MLOAD DUP1 DUP4 SUB DUP2 DUP6 DUP9 DUP9 CALL SWAP4 POP POP POP POP ISZERO DUP1 ISZERO PUSH2 0x823 JUMPI RETURNDATASIZE PUSH1 0x0 DUP1 RETURNDATACOPY RETURNDATASIZE PUSH1 0x0 REVERT JUMPDEST POP TIMESTAMP PUSH1 0x3 PUSH1 0x0 DUP5 PUSH20 0xFFFFFFFFFFFFFFFFFFFFFFFFFFFFFFFFFFFFFFFF AND PUSH20 0xFFFFFFFFFFFFFFFFFFFFFFFFFFFFFFFFFFFFFFFF AND DUP2 MSTORE PUSH1 0x20 ADD SWAP1 DUP2 MSTORE PUSH1 0x20 ADD PUSH1 0x0 KECCAK256 DUP2 SWAP1 SSTORE POP POP POP DUP1 DUP1 PUSH2 0x875 SWAP1 PUSH2 0x11AC JUMP JUMPDEST SWAP2 POP POP PUSH2 0x6EC JUMP JUMPDEST POP JUMP JUMPDEST PUSH1 0x60 TIMESTAMP PUSH1 0x3 PUSH1 0x0 CALLER PUSH20 0xFFFFFFFFFFFFFFFFFFFFFFFFFFFFFFFFFFFFFFFF AND PUSH20 0xFFFFFFFFFFFFFFFFFFFFFFFFFFFFFFFFFFFFFFFF AND DUP2 MSTORE PUSH1 0x20 ADD SWAP1 DUP2 MSTORE PUSH1 0x20 ADD PUSH1 0x0 KECCAK256 DUP2 SWAP1 SSTORE POP PUSH1 0x0 PUSH1 0x40 MLOAD DUP1 PUSH1 0x60 ADD PUSH1 0x40 MSTORE DUP1 PUSH1 0x1 PUSH1 0x0 DUP2 SLOAD DUP1 SWAP3 SWAP2 SWAP1 PUSH2 0x8E6 SWAP1 PUSH2 0x1163 JUMP JUMPDEST SWAP2 SWAP1 POP SSTORE DUP2 MSTORE PUSH1 0x20 ADD CALLER PUSH20 0xFFFFFFFFFFFFFFFFFFFFFFFFFFFFFFFFFFFFFFFF AND DUP2 MSTORE PUSH1 0x20 ADD CALLER PUSH20 0xFFFFFFFFFFFFFFFFFFFFFFFFFFFFFFFFFFFFFFFF AND BALANCE DUP2 MSTORE POP SWAP1 DUP1 PUSH1 0x1 DUP2 SLOAD ADD DUP1 DUP3 SSTORE DUP1 SWAP2 POP POP PUSH1 0x1 SWAP1 SUB SWAP1 PUSH1 0x0 MSTORE PUSH1 0x20 PUSH1 0x0 KECCAK256 SWAP1 PUSH1 0x3 MUL ADD PUSH1 0x0 SWAP1 SWAP2 SWAP1 SWAP2 SWAP1 SWAP2 POP PUSH1 0x0 DUP3 ADD MLOAD DUP2 PUSH1 0x0 ADD SSTORE PUSH1 0x20 DUP3 ADD MLOAD DUP2 PUSH1 0x1 ADD PUSH1 0x0 PUSH2 0x100 EXP DUP2 SLOAD DUP2 PUSH20 0xFFFFFFFFFFFFFFFFFFFFFFFFFFFFFFFFFFFFFFFF MUL NOT AND SWAP1 DUP4 PUSH20 0xFFFFFFFFFFFFFFFFFFFFFFFFFFFFFFFFFFFFFFFF AND MUL OR SWAP1 SSTORE POP PUSH1 0x40 DUP3 ADD MLOAD DUP2 PUSH1 0x2 ADD SSTORE POP POP PUSH1 0x40 MLOAD DUP1 PUSH1 0x20 ADD PUSH1 0x40 MSTORE DUP1 PUSH1 0x0 DUP2 MSTORE POP SWAP1 POP SWAP1 JUMP JUMPDEST PUSH1 0x0 DUP1 JUMPDEST PUSH1 0x0 DUP1 SLOAD SWAP1 POP DUP2 LT ISZERO PUSH2 0xA67 JUMPI CALLER PUSH20 0xFFFFFFFFFFFFFFFFFFFFFFFFFFFFFFFFFFFFFFFF AND PUSH1 0x0 DUP3 DUP2 SLOAD DUP2 LT PUSH2 0x9FD JUMPI PUSH2 0x9FC PUSH2 0x1224 JUMP JUMPDEST JUMPDEST SWAP1 PUSH1 0x0 MSTORE PUSH1 0x20 PUSH1 0x0 KECCAK256 SWAP1 PUSH1 0x3 MUL ADD PUSH1 0x1 ADD PUSH1 0x0 SWAP1 SLOAD SWAP1 PUSH2 0x100 EXP SWAP1 DIV PUSH20 0xFFFFFFFFFFFFFFFFFFFFFFFFFFFFFFFFFFFFFFFF AND PUSH20 0xFFFFFFFFFFFFFFFFFFFFFFFFFFFFFFFFFFFFFFFF AND EQ ISZERO PUSH2 0xA54 JUMPI PUSH1 0x1 SWAP2 POP PUSH2 0xA67 JUMP JUMPDEST DUP1 DUP1 PUSH2 0xA5F SWAP1 PUSH2 0x11AC JUMP JUMPDEST SWAP2 POP POP PUSH2 0x9C5 JUMP JUMPDEST POP DUP1 PUSH2 0xAA8 JUMPI PUSH1 0x40 MLOAD PUSH32 0x8C379A000000000000000000000000000000000000000000000000000000000 DUP2 MSTORE PUSH1 0x4 ADD PUSH2 0xA9F SWAP1 PUSH2 0xF53 JUMP JUMPDEST PUSH1 0x40 MLOAD DUP1 SWAP2 SUB SWAP1 REVERT JUMPDEST ADDRESS PUSH20 0xFFFFFFFFFFFFFFFFFFFFFFFFFFFFFFFFFFFFFFFF AND PUSH2 0x8FC CALLVALUE SWAP1 DUP2 ISZERO MUL SWAP1 PUSH1 0x40 MLOAD PUSH1 0x0 PUSH1 0x40 MLOAD DUP1 DUP4 SUB DUP2 DUP6 DUP9 DUP9 CALL SWAP4 POP POP POP POP ISZERO DUP1 ISZERO PUSH2 0xAEE JUMPI RETURNDATASIZE PUSH1 0x0 DUP1 RETURNDATACOPY RETURNDATASIZE PUSH1 0x0 REVERT JUMPDEST POP POP JUMP JUMPDEST PUSH1 0x60 DUP2 PUSH1 0x2 PUSH1 0x0 PUSH2 0x100 EXP DUP2 SLOAD DUP2 PUSH20 0xFFFFFFFFFFFFFFFFFFFFFFFFFFFFFFFFFFFFFFFF MUL NOT AND SWAP1 DUP4 PUSH20 0xFFFFFFFFFFFFFFFFFFFFFFFFFFFFFFFFFFFFFFFF AND MUL OR SWAP1 SSTORE POP PUSH1 0x40 MLOAD DUP1 PUSH1 0x20 ADD PUSH1 0x40 MSTORE DUP1 PUSH1 0x0 DUP2 MSTORE POP SWAP1 POP SWAP2 SWAP1 POP JUMP JUMPDEST PUSH1 0x3 PUSH1 0x20 MSTORE DUP1 PUSH1 0x0 MSTORE PUSH1 0x40 PUSH1 0x0 KECCAK256 PUSH1 0x0 SWAP2 POP SWAP1 POP SLOAD DUP2 JUMP JUMPDEST PUSH1 0x0 DUP1 PUSH1 0x0 DUP1 SLOAD SWAP1 POP SWAP1 POP DUP1 SWAP2 POP POP SWAP1 JUMP JUMPDEST PUSH1 0x0 DUP2 CALLDATALOAD SWAP1 POP PUSH2 0xB85 DUP2 PUSH2 0x1339 JUMP JUMPDEST SWAP3 SWAP2 POP POP JUMP JUMPDEST PUSH1 0x0 DUP2 MLOAD SWAP1 POP PUSH2 0xB9A DUP2 PUSH2 0x1350 JUMP JUMPDEST SWAP3 SWAP2 POP POP JUMP JUMPDEST PUSH1 0x0 DUP2 CALLDATALOAD SWAP1 POP PUSH2 0xBAF DUP2 PUSH2 0x1367 JUMP JUMPDEST SWAP3 SWAP2 POP POP JUMP JUMPDEST PUSH1 0x0 PUSH1 0x20 DUP3 DUP5 SUB SLT ISZERO PUSH2 0xBCB JUMPI PUSH2 0xBCA PUSH2 0x1282 JUMP JUMPDEST JUMPDEST PUSH1 0x0 PUSH2 0xBD9 DUP5 DUP3 DUP6 ADD PUSH2 0xB76 JUMP JUMPDEST SWAP2 POP POP SWAP3 SWAP2 POP POP JUMP JUMPDEST PUSH1 0x0 DUP1 PUSH1 0x0 PUSH1 0x60 DUP5 DUP7 SUB SLT ISZERO PUSH2 0xBFB JUMPI PUSH2 0xBFA PUSH2 0x1282 JUMP JUMPDEST JUMPDEST PUSH1 0x0 PUSH2 0xC09 DUP7 DUP3 DUP8 ADD PUSH2 0xB76 JUMP JUMPDEST SWAP4 POP POP PUSH1 0x20 PUSH2 0xC1A DUP7 DUP3 DUP8 ADD PUSH2 0xB76 JUMP JUMPDEST SWAP3 POP POP PUSH1 0x40 PUSH2 0xC2B DUP7 DUP3 DUP8 ADD PUSH2 0xBA0 JUMP JUMPDEST SWAP2 POP POP SWAP3 POP SWAP3 POP SWAP3 JUMP JUMPDEST PUSH1 0x0 PUSH1 0x20 DUP3 DUP5 SUB SLT ISZERO PUSH2 0xC4B JUMPI PUSH2 0xC4A PUSH2 0x1282 JUMP JUMPDEST JUMPDEST PUSH1 0x0 PUSH2 0xC59 DUP5 DUP3 DUP6 ADD PUSH2 0xB8B JUMP JUMPDEST SWAP2 POP POP SWAP3 SWAP2 POP POP JUMP JUMPDEST PUSH1 0x0 PUSH1 0x20 DUP3 DUP5 SUB SLT ISZERO PUSH2 0xC78 JUMPI PUSH2 0xC77 PUSH2 0x1282 JUMP JUMPDEST JUMPDEST PUSH1 0x0 PUSH2 0xC86 DUP5 DUP3 DUP6 ADD PUSH2 0xBA0 JUMP JUMPDEST SWAP2 POP POP SWAP3 SWAP2 POP POP JUMP JUMPDEST PUSH1 0x0 PUSH2 0xC9B DUP4 DUP4 PUSH2 0xCBF JUMP JUMPDEST PUSH1 0x20 DUP4 ADD SWAP1 POP SWAP3 SWAP2 POP POP JUMP JUMPDEST PUSH1 0x0 PUSH2 0xCB3 DUP4 DUP4 PUSH2 0xE4A JUMP JUMPDEST PUSH1 0x20 DUP4 ADD SWAP1 POP SWAP3 SWAP2 POP POP JUMP JUMPDEST PUSH2 0xCC8 DUP2 PUSH2 0x10CC JUMP JUMPDEST DUP3 MSTORE POP POP JUMP JUMPDEST PUSH2 0xCD7 DUP2 PUSH2 0x10CC JUMP JUMPDEST DUP3 MSTORE POP POP JUMP JUMPDEST PUSH1 0x0 PUSH2 0xCE8 DUP3 PUSH2 0xFAE JUMP JUMPDEST PUSH2 0xCF2 DUP2 DUP6 PUSH2 0xFE9 JUMP JUMPDEST SWAP4 POP PUSH2 0xCFD DUP4 PUSH2 0xF8E JUMP JUMPDEST DUP1 PUSH1 0x0 JUMPDEST DUP4 DUP2 LT ISZERO PUSH2 0xD2E JUMPI DUP2 MLOAD PUSH2 0xD15 DUP9 DUP3 PUSH2 0xC8F JUMP JUMPDEST SWAP8 POP PUSH2 0xD20 DUP4 PUSH2 0xFCF JUMP JUMPDEST SWAP3 POP POP PUSH1 0x1 DUP2 ADD SWAP1 POP PUSH2 0xD01 JUMP JUMPDEST POP DUP6 SWAP4 POP POP POP POP SWAP3 SWAP2 POP POP JUMP JUMPDEST PUSH1 0x0 PUSH2 0xD46 DUP3 PUSH2 0xFB9 JUMP JUMPDEST PUSH2 0xD50 DUP2 DUP6 PUSH2 0xFFA JUMP JUMPDEST SWAP4 POP PUSH2 0xD5B DUP4 PUSH2 0xF9E JUMP JUMPDEST DUP1 PUSH1 0x0 JUMPDEST DUP4 DUP2 LT ISZERO PUSH2 0xD8C JUMPI DUP2 MLOAD PUSH2 0xD73 DUP9 DUP3 PUSH2 0xCA7 JUMP JUMPDEST SWAP8 POP PUSH2 0xD7E DUP4 PUSH2 0xFDC JUMP JUMPDEST SWAP3 POP POP PUSH1 0x1 DUP2 ADD SWAP1 POP PUSH2 0xD5F JUMP JUMPDEST POP DUP6 SWAP4 POP POP POP POP SWAP3 SWAP2 POP POP JUMP JUMPDEST PUSH2 0xDA2 DUP2 PUSH2 0x111E JUMP JUMPDEST DUP3 MSTORE POP POP JUMP JUMPDEST PUSH1 0x0 PUSH2 0xDB3 DUP3 PUSH2 0xFC4 JUMP JUMPDEST PUSH2 0xDBD DUP2 DUP6 PUSH2 0x100B JUMP JUMPDEST SWAP4 POP PUSH2 0xDCD DUP2 DUP6 PUSH1 0x20 DUP7 ADD PUSH2 0x1130 JUMP JUMPDEST PUSH2 0xDD6 DUP2 PUSH2 0x1287 JUMP JUMPDEST DUP5 ADD SWAP2 POP POP SWAP3 SWAP2 POP POP JUMP JUMPDEST PUSH1 0x0 PUSH2 0xDEE PUSH1 0x16 DUP4 PUSH2 0x100B JUMP JUMPDEST SWAP2 POP PUSH2 0xDF9 DUP3 PUSH2 0x1298 JUMP JUMPDEST PUSH1 0x20 DUP3 ADD SWAP1 POP SWAP2 SWAP1 POP JUMP JUMPDEST PUSH1 0x0 PUSH2 0xE11 PUSH1 0x24 DUP4 PUSH2 0x100B JUMP JUMPDEST SWAP2 POP PUSH2 0xE1C DUP3 PUSH2 0x12C1 JUMP JUMPDEST PUSH1 0x40 DUP3 ADD SWAP1 POP SWAP2 SWAP1 POP JUMP JUMPDEST PUSH1 0x0 PUSH2 0xE34 PUSH1 0x16 DUP4 PUSH2 0x100B JUMP JUMPDEST SWAP2 POP PUSH2 0xE3F DUP3 PUSH2 0x1310 JUMP JUMPDEST PUSH1 0x20 DUP3 ADD SWAP1 POP SWAP2 SWAP1 POP JUMP JUMPDEST PUSH2 0xE53 DUP2 PUSH2 0x1114 JUMP JUMPDEST DUP3 MSTORE POP POP JUMP JUMPDEST PUSH2 0xE62 DUP2 PUSH2 0x1114 JUMP JUMPDEST DUP3 MSTORE POP POP JUMP JUMPDEST PUSH1 0x0 PUSH1 0x60 DUP3 ADD SWAP1 POP PUSH2 0xE7D PUSH1 0x0 DUP4 ADD DUP7 PUSH2 0xCCE JUMP JUMPDEST PUSH2 0xE8A PUSH1 0x20 DUP4 ADD DUP6 PUSH2 0xCCE JUMP JUMPDEST PUSH2 0xE97 PUSH1 0x40 DUP4 ADD DUP5 PUSH2 0xE59 JUMP JUMPDEST SWAP5 SWAP4 POP POP POP POP JUMP JUMPDEST PUSH1 0x0 PUSH1 0x40 DUP3 ADD SWAP1 POP DUP2 DUP2 SUB PUSH1 0x0 DUP4 ADD MSTORE PUSH2 0xEB9 DUP2 DUP6 PUSH2 0xCDD JUMP JUMPDEST SWAP1 POP DUP2 DUP2 SUB PUSH1 0x20 DUP4 ADD MSTORE PUSH2 0xECD DUP2 DUP5 PUSH2 0xD3B JUMP JUMPDEST SWAP1 POP SWAP4 SWAP3 POP POP POP JUMP JUMPDEST PUSH1 0x0 PUSH1 0x20 DUP3 ADD SWAP1 POP PUSH2 0xEEB PUSH1 0x0 DUP4 ADD DUP5 PUSH2 0xD99 JUMP JUMPDEST SWAP3 SWAP2 POP POP JUMP JUMPDEST PUSH1 0x0 PUSH1 0x20 DUP3 ADD SWAP1 POP DUP2 DUP2 SUB PUSH1 0x0 DUP4 ADD MSTORE PUSH2 0xF0B DUP2 DUP5 PUSH2 0xDA8 JUMP JUMPDEST SWAP1 POP SWAP3 SWAP2 POP POP JUMP JUMPDEST PUSH1 0x0 PUSH1 0x20 DUP3 ADD SWAP1 POP DUP2 DUP2 SUB PUSH1 0x0 DUP4 ADD MSTORE PUSH2 0xF2C DUP2 PUSH2 0xDE1 JUMP JUMPDEST SWAP1 POP SWAP2 SWAP1 POP JUMP JUMPDEST PUSH1 0x0 PUSH1 0x20 DUP3 ADD SWAP1 POP DUP2 DUP2 SUB PUSH1 0x0 DUP4 ADD MSTORE PUSH2 0xF4C DUP2 PUSH2 0xE04 JUMP JUMPDEST SWAP1 POP SWAP2 SWAP1 POP JUMP JUMPDEST PUSH1 0x0 PUSH1 0x20 DUP3 ADD SWAP1 POP DUP2 DUP2 SUB PUSH1 0x0 DUP4 ADD MSTORE PUSH2 0xF6C DUP2 PUSH2 0xE27 JUMP JUMPDEST SWAP1 POP SWAP2 SWAP1 POP JUMP JUMPDEST PUSH1 0x0 PUSH1 0x20 DUP3 ADD SWAP1 POP PUSH2 0xF88 PUSH1 0x0 DUP4 ADD DUP5 PUSH2 0xE59 JUMP JUMPDEST SWAP3 SWAP2 POP POP JUMP JUMPDEST PUSH1 0x0 DUP2 SWAP1 POP PUSH1 0x20 DUP3 ADD SWAP1 POP SWAP2 SWAP1 POP JUMP JUMPDEST PUSH1 0x0 DUP2 SWAP1 POP PUSH1 0x20 DUP3 ADD SWAP1 POP SWAP2 SWAP1 POP JUMP JUMPDEST PUSH1 0x0 DUP2 MLOAD SWAP1 POP SWAP2 SWAP1 POP JUMP JUMPDEST PUSH1 0x0 DUP2 MLOAD SWAP1 POP SWAP2 SWAP1 POP JUMP JUMPDEST PUSH1 0x0 DUP2 MLOAD SWAP1 POP SWAP2 SWAP1 POP JUMP JUMPDEST PUSH1 0x0 PUSH1 0x20 DUP3 ADD SWAP1 POP SWAP2 SWAP1 POP JUMP JUMPDEST PUSH1 0x0 PUSH1 0x20 DUP3 ADD SWAP1 POP SWAP2 SWAP1 POP JUMP JUMPDEST PUSH1 0x0 DUP3 DUP3 MSTORE PUSH1 0x20 DUP3 ADD SWAP1 POP SWAP3 SWAP2 POP POP JUMP JUMPDEST PUSH1 0x0 DUP3 DUP3 MSTORE PUSH1 0x20 DUP3 ADD SWAP1 POP SWAP3 SWAP2 POP POP JUMP JUMPDEST PUSH1 0x0 DUP3 DUP3 MSTORE PUSH1 0x20 DUP3 ADD SWAP1 POP SWAP3 SWAP2 POP POP JUMP JUMPDEST PUSH1 0x0 PUSH2 0x1027 DUP3 PUSH2 0x1114 JUMP JUMPDEST SWAP2 POP PUSH2 0x1032 DUP4 PUSH2 0x1114 JUMP JUMPDEST SWAP3 POP DUP3 PUSH32 0xFFFFFFFFFFFFFFFFFFFFFFFFFFFFFFFFFFFFFFFFFFFFFFFFFFFFFFFFFFFFFFFF SUB DUP3 GT ISZERO PUSH2 0x1067 JUMPI PUSH2 0x1066 PUSH2 0x11F5 JUMP JUMPDEST JUMPDEST DUP3 DUP3 ADD SWAP1 POP SWAP3 SWAP2 POP POP JUMP JUMPDEST PUSH1 0x0 PUSH2 0x107D DUP3 PUSH2 0x1114 JUMP JUMPDEST SWAP2 POP PUSH2 0x1088 DUP4 PUSH2 0x1114 JUMP JUMPDEST SWAP3 POP DUP2 PUSH32 0xFFFFFFFFFFFFFFFFFFFFFFFFFFFFFFFFFFFFFFFFFFFFFFFFFFFFFFFFFFFFFFFF DIV DUP4 GT DUP3 ISZERO ISZERO AND ISZERO PUSH2 0x10C1 JUMPI PUSH2 0x10C0 PUSH2 0x11F5 JUMP JUMPDEST JUMPDEST DUP3 DUP3 MUL SWAP1 POP SWAP3 SWAP2 POP POP JUMP JUMPDEST PUSH1 0x0 PUSH2 0x10D7 DUP3 PUSH2 0x10F4 JUMP JUMPDEST SWAP1 POP SWAP2 SWAP1 POP JUMP JUMPDEST PUSH1 0x0 DUP2 ISZERO ISZERO SWAP1 POP SWAP2 SWAP1 POP JUMP JUMPDEST PUSH1 0x0 DUP2 SWAP1 POP SWAP2 SWAP1 POP JUMP JUMPDEST PUSH1 0x0 PUSH20 0xFFFFFFFFFFFFFFFFFFFFFFFFFFFFFFFFFFFFFFFF DUP3 AND SWAP1 POP SWAP2 SWAP1 POP JUMP JUMPDEST PUSH1 0x0 DUP2 SWAP1 POP SWAP2 SWAP1 POP JUMP JUMPDEST PUSH1 0x0 PUSH2 0x1129 DUP3 PUSH2 0x1114 JUMP JUMPDEST SWAP1 POP SWAP2 SWAP1 POP JUMP JUMPDEST PUSH1 0x0 JUMPDEST DUP4 DUP2 LT ISZERO PUSH2 0x114E JUMPI DUP1 DUP3 ADD MLOAD DUP2 DUP5 ADD MSTORE PUSH1 0x20 DUP2 ADD SWAP1 POP PUSH2 0x1133 JUMP JUMPDEST DUP4 DUP2 GT ISZERO PUSH2 0x115D JUMPI PUSH1 0x0 DUP5 DUP5 ADD MSTORE JUMPDEST POP POP POP POP JUMP JUMPDEST PUSH1 0x0 PUSH2 0x116E DUP3 PUSH2 0x10EA JUMP JUMPDEST SWAP2 POP PUSH32 0x7FFFFFFFFFFFFFFFFFFFFFFFFFFFFFFFFFFFFFFFFFFFFFFFFFFFFFFFFFFFFFFF DUP3 EQ ISZERO PUSH2 0x11A1 JUMPI PUSH2 0x11A0 PUSH2 0x11F5 JUMP JUMPDEST JUMPDEST PUSH1 0x1 DUP3 ADD SWAP1 POP SWAP2 SWAP1 POP JUMP JUMPDEST PUSH1 0x0 PUSH2 0x11B7 DUP3 PUSH2 0x1114 JUMP JUMPDEST SWAP2 POP PUSH32 0xFFFFFFFFFFFFFFFFFFFFFFFFFFFFFFFFFFFFFFFFFFFFFFFFFFFFFFFFFFFFFFFF DUP3 EQ ISZERO PUSH2 0x11EA JUMPI PUSH2 0x11E9 PUSH2 0x11F5 JUMP JUMPDEST JUMPDEST PUSH1 0x1 DUP3 ADD SWAP1 POP SWAP2 SWAP1 POP JUMP JUMPDEST PUSH32 0x4E487B7100000000000000000000000000000000000000000000000000000000 PUSH1 0x0 MSTORE PUSH1 0x11 PUSH1 0x4 MSTORE PUSH1 0x24 PUSH1 0x0 REVERT JUMPDEST PUSH32 0x4E487B7100000000000000000000000000000000000000000000000000000000 PUSH1 0x0 MSTORE PUSH1 0x32 PUSH1 0x4 MSTORE PUSH1 0x24 PUSH1 0x0 REVERT JUMPDEST PUSH32 0x4E487B7100000000000000000000000000000000000000000000000000000000 PUSH1 0x0 MSTORE PUSH1 0x41 PUSH1 0x4 MSTORE PUSH1 0x24 PUSH1 0x0 REVERT JUMPDEST PUSH1 0x0 DUP1 REVERT JUMPDEST PUSH1 0x0 PUSH1 0x1F NOT PUSH1 0x1F DUP4 ADD AND SWAP1 POP SWAP2 SWAP1 POP JUMP JUMPDEST PUSH32 0x4F6E6C79206D616E616765722063616E2063616C6C2100000000000000000000 PUSH1 0x0 DUP3 ADD MSTORE POP JUMP JUMPDEST PUSH32 0x49742773206A757374206265656E206C657373207468616E203130207365636F PUSH1 0x0 DUP3 ADD MSTORE PUSH32 0x6E64732100000000000000000000000000000000000000000000000000000000 PUSH1 0x20 DUP3 ADD MSTORE POP JUMP JUMPDEST PUSH32 0x4F6E6C7920636C69656E74732063616E2063616C6C2100000000000000000000 PUSH1 0x0 DUP3 ADD MSTORE POP JUMP JUMPDEST PUSH2 0x1342 DUP2 PUSH2 0x10CC JUMP JUMPDEST DUP2 EQ PUSH2 0x134D JUMPI PUSH1 0x0 DUP1 REVERT JUMPDEST POP JUMP JUMPDEST PUSH2 0x1359 DUP2 PUSH2 0x10DE JUMP JUMPDEST DUP2 EQ PUSH2 0x1364 JUMPI PUSH1 0x0 DUP1 REVERT JUMPDEST POP JUMP JUMPDEST PUSH2 0x1370 DUP2 PUSH2 0x1114 JUMP JUMPDEST DUP2 EQ PUSH2 0x137B JUMPI PUSH1 0x0 DUP1 REVERT JUMPDEST POP JUMP INVALID LOG2 PUSH5 0x6970667358 0x22 SLT KECCAK256 PUSH18 0x546FFFE8CBFF0F49BF2B17EF760D1F7E7DB4 PUSH23 0x6B710EE4DB98E532F2CE641B64736F6C63430008070033 "
				},
				"gasEstimates": {
					"creation": {
						"codeDepositCost": "1008800",
						"executionCost": "6061",
						"totalCost": "1014861"
					},
					"external": {
						"deposit()": "infinite",
						"getClients()": "infinite",
						"getContractBalance()": "428",
						"getCountClient()": "2568",
						"interestDate(address)": "2902",
						"joinAsClient()": "142747",
						"mintcoke()": "infinite",
						"sendCoke(address,address,uint256)": "infinite",
						"sendInterest()": "infinite",
						"setManager(address)": "25296",
						"withdraw(uint256)": "infinite"
					}
				},
				"methodIdentifiers": {
					"deposit()": "d0e30db0",
					"getClients()": "6db80995",
					"getContractBalance()": "6f9fb98a",
					"getCountClient()": "fef75470",
					"interestDate(address)": "d9dca6c5",
					"joinAsClient()": "a4092174",
					"mintcoke()": "2bbc7cac",
					"sendCoke(address,address,uint256)": "2855bd92",
					"sendInterest()": "9e0a5d68",
					"setManager(address)": "d0ebdbe7",
					"withdraw(uint256)": "2e1a7d4d"
				}
			},
			"storageLayout": {
				"storage": [
					{
						"astId": 39,
						"contract": "contracts/first_contract.sol:BankContract",
						"label": "clients",
						"offset": 0,
						"slot": "0",
						"type": "t_array(t_struct(client_account)35_storage)dyn_storage"
					},
					{
						"astId": 41,
						"contract": "contracts/first_contract.sol:BankContract",
						"label": "clientCounter",
						"offset": 0,
						"slot": "1",
						"type": "t_int256"
					},
					{
						"astId": 43,
						"contract": "contracts/first_contract.sol:BankContract",
						"label": "manager",
						"offset": 0,
						"slot": "2",
						"type": "t_address_payable"
					},
					{
						"astId": 47,
						"contract": "contracts/first_contract.sol:BankContract",
						"label": "interestDate",
						"offset": 0,
						"slot": "3",
						"type": "t_mapping(t_address,t_uint256)"
					}
				],
				"types": {
					"t_address": {
						"encoding": "inplace",
						"label": "address",
						"numberOfBytes": "20"
					},
					"t_address_payable": {
						"encoding": "inplace",
						"label": "address payable",
						"numberOfBytes": "20"
					},
					"t_array(t_struct(client_account)35_storage)dyn_storage": {
						"base": "t_struct(client_account)35_storage",
						"encoding": "dynamic_array",
						"label": "struct BankContract.client_account[]",
						"numberOfBytes": "32"
					},
					"t_int256": {
						"encoding": "inplace",
						"label": "int256",
						"numberOfBytes": "32"
					},
					"t_mapping(t_address,t_uint256)": {
						"encoding": "mapping",
						"key": "t_address",
						"label": "mapping(address => uint256)",
						"numberOfBytes": "32",
						"value": "t_uint256"
					},
					"t_struct(client_account)35_storage": {
						"encoding": "inplace",
						"label": "struct BankContract.client_account",
						"members": [
							{
								"astId": 30,
								"contract": "contracts/first_contract.sol:BankContract",
								"label": "client_id",
								"offset": 0,
								"slot": "0",
								"type": "t_int256"
							},
							{
								"astId": 32,
								"contract": "contracts/first_contract.sol:BankContract",
								"label": "client_address",
								"offset": 0,
								"slot": "1",
								"type": "t_address"
							},
							{
								"astId": 34,
								"contract": "contracts/first_contract.sol:BankContract",
								"label": "client_balance_in_ether",
								"offset": 0,
								"slot": "2",
								"type": "t_uint256"
							}
						],
						"numberOfBytes": "96"
					},
					"t_uint256": {
						"encoding": "inplace",
						"label": "uint256",
						"numberOfBytes": "32"
					}
				}
			},
			"userdoc": {
				"kind": "user",
				"methods": {},
				"version": 1
			}
		}
	}
}