{
	"contracts/first_contract.sol": {
		"BankContract": {
			"abi": [
				{
					"inputs": [],
					"stateMutability": "nonpayable",
					"type": "constructor"
				},
				{
					"inputs": [],
					"name": "deposit",
					"outputs": [],
					"stateMutability": "payable",
					"type": "function"
				},
				{
					"inputs": [],
					"name": "getClients",
					"outputs": [
						{
							"internalType": "address[]",
							"name": "",
							"type": "address[]"
						},
						{
							"internalType": "uint256[]",
							"name": "",
							"type": "uint256[]"
						}
					],
					"stateMutability": "view",
					"type": "function"
				},
				{
					"inputs": [],
					"name": "getContractBalance",
					"outputs": [
						{
							"internalType": "uint256",
							"name": "",
							"type": "uint256"
						}
					],
					"stateMutability": "view",
					"type": "function"
				},
				{
					"inputs": [],
					"name": "getCountClient",
					"outputs": [
						{
							"internalType": "uint256",
							"name": "",
							"type": "uint256"
						}
					],
					"stateMutability": "view",
					"type": "function"
				},
				{
					"inputs": [
						{
							"internalType": "address",
							"name": "",
							"type": "address"
						}
					],
					"name": "interestDate",
					"outputs": [
						{
							"internalType": "uint256",
							"name": "",
							"type": "uint256"
						}
					],
					"stateMutability": "view",
					"type": "function"
				},
				{
					"inputs": [],
					"name": "joinAsClient",
					"outputs": [
						{
							"internalType": "string",
							"name": "",
							"type": "string"
						}
					],
					"stateMutability": "payable",
					"type": "function"
				},
				{
					"inputs": [
						{
							"internalType": "address",
							"name": "_from",
							"type": "address"
						},
						{
							"internalType": "address",
							"name": "_to",
							"type": "address"
						},
						{
							"internalType": "uint256",
							"name": "_value",
							"type": "uint256"
						}
					],
					"name": "sendCoke",
					"outputs": [],
					"stateMutability": "nonpayable",
					"type": "function"
				},
				{
					"inputs": [],
					"name": "sendInterest",
					"outputs": [],
					"stateMutability": "payable",
					"type": "function"
				},
				{
					"inputs": [
						{
							"internalType": "address",
							"name": "managerAddress",
							"type": "address"
						}
					],
					"name": "setManager",
					"outputs": [
						{
							"internalType": "string",
							"name": "",
							"type": "string"
						}
					],
					"stateMutability": "nonpayable",
					"type": "function"
				},
				{
					"inputs": [
						{
							"internalType": "uint256",
							"name": "amount",
							"type": "uint256"
						}
					],
					"name": "withdraw",
					"outputs": [],
					"stateMutability": "payable",
					"type": "function"
				},
				{
					"stateMutability": "payable",
					"type": "receive"
				}
			],
			"devdoc": {
				"kind": "dev",
				"methods": {},
				"version": 1
			},
			"evm": {
				"assembly": "    /* \"contracts/first_contract.sol\":357:3707  contract BankContract { \r... */\n  mstore(0x40, 0x80)\n    /* \"contracts/first_contract.sol\":664:714  constructor() {\r... */\n  callvalue\n  dup1\n  iszero\n  tag_1\n  jumpi\n  0x00\n  dup1\n  revert\ntag_1:\n  pop\n    /* \"contracts/first_contract.sol\":705:706  0 */\n  0x00\n    /* \"contracts/first_contract.sol\":689:702  clientCounter */\n  0x01\n    /* \"contracts/first_contract.sol\":689:706  clientCounter = 0 */\n  dup2\n  swap1\n  sstore\n  pop\n    /* \"contracts/first_contract.sol\":357:3707  contract BankContract { \r... */\n  dataSize(sub_0)\n  dup1\n  dataOffset(sub_0)\n  0x00\n  codecopy\n  0x00\n  return\nstop\n\nsub_0: assembly {\n        /* \"contracts/first_contract.sol\":357:3707  contract BankContract { \r... */\n      mstore(0x40, 0x80)\n      jumpi(tag_1, lt(calldatasize, 0x04))\n      shr(0xe0, calldataload(0x00))\n      dup1\n      0xa4092174\n      gt\n      tag_13\n      jumpi\n      dup1\n      0xa4092174\n      eq\n      tag_8\n      jumpi\n      dup1\n      0xd0e30db0\n      eq\n      tag_9\n      jumpi\n      dup1\n      0xd0ebdbe7\n      eq\n      tag_10\n      jumpi\n      dup1\n      0xd9dca6c5\n      eq\n      tag_11\n      jumpi\n      dup1\n      0xfef75470\n      eq\n      tag_12\n      jumpi\n      jump(tag_2)\n    tag_13:\n      dup1\n      0x2855bd92\n      eq\n      tag_3\n      jumpi\n      dup1\n      0x2e1a7d4d\n      eq\n      tag_4\n      jumpi\n      dup1\n      0x6db80995\n      eq\n      tag_5\n      jumpi\n      dup1\n      0x6f9fb98a\n      eq\n      tag_6\n      jumpi\n      dup1\n      0x9e0a5d68\n      eq\n      tag_7\n      jumpi\n      jump(tag_2)\n    tag_1:\n      jumpi(tag_2, calldatasize)\n      stop\n    tag_2:\n      0x00\n      dup1\n      revert\n        /* \"contracts/first_contract.sol\":3214:3704  function sendCoke(address _from, address _to, uint _value) external {\r... */\n    tag_3:\n      callvalue\n      dup1\n      iszero\n      tag_16\n      jumpi\n      0x00\n      dup1\n      revert\n    tag_16:\n      pop\n      tag_17\n      0x04\n      dup1\n      calldatasize\n      sub\n      dup2\n      add\n      swap1\n      tag_18\n      swap2\n      swap1\n      tag_19\n      jump\t// in\n    tag_18:\n      tag_20\n      jump\t// in\n    tag_17:\n      stop\n        /* \"contracts/first_contract.sol\":1706:1889  function withdraw(uint amount) public payable onlyClients{\r... */\n    tag_4:\n      tag_21\n      0x04\n      dup1\n      calldatasize\n      sub\n      dup2\n      add\n      swap1\n      tag_22\n      swap2\n      swap1\n      tag_23\n      jump\t// in\n    tag_22:\n      tag_24\n      jump\t// in\n    tag_21:\n      stop\n        /* \"contracts/first_contract.sol\":2528:3098  function getClients() public view returns (address[] memory,uint[] memory) {\r... */\n    tag_5:\n      callvalue\n      dup1\n      iszero\n      tag_25\n      jumpi\n      0x00\n      dup1\n      revert\n    tag_25:\n      pop\n      tag_26\n      tag_27\n      jump\t// in\n    tag_26:\n      mload(0x40)\n      tag_28\n      swap3\n      swap2\n      swap1\n      tag_29\n      jump\t// in\n    tag_28:\n      mload(0x40)\n      dup1\n      swap2\n      sub\n      swap1\n      return\n        /* \"contracts/first_contract.sol\":3105:3207  function getContractBalance() public view returns(uint){\r... */\n    tag_6:\n      callvalue\n      dup1\n      iszero\n      tag_30\n      jumpi\n      0x00\n      dup1\n      revert\n    tag_30:\n      pop\n      tag_31\n      tag_32\n      jump\t// in\n    tag_31:\n      mload(0x40)\n      tag_33\n      swap2\n      swap1\n      tag_34\n      jump\t// in\n    tag_33:\n      mload(0x40)\n      dup1\n      swap2\n      sub\n      swap1\n      return\n        /* \"contracts/first_contract.sol\":1897:2387  function sendInterest() public payable onlyManager{\r... */\n    tag_7:\n      tag_35\n      tag_36\n      jump\t// in\n    tag_35:\n      stop\n        /* \"contracts/first_contract.sol\":1355:1585  function joinAsClient() public payable returns(string memory){\r... */\n    tag_8:\n      tag_37\n      tag_38\n      jump\t// in\n    tag_37:\n      mload(0x40)\n      tag_39\n      swap2\n      swap1\n      tag_40\n      jump\t// in\n    tag_39:\n      mload(0x40)\n      dup1\n      swap2\n      sub\n      swap1\n      return\n        /* \"contracts/first_contract.sol\":1595:1698  function deposit() public payable onlyClients{\r... */\n    tag_9:\n      tag_41\n      tag_42\n      jump\t// in\n    tag_41:\n      stop\n        /* \"contracts/first_contract.sol\":1208:1347  function setManager(address managerAddress) public returns(string memory){\r... */\n    tag_10:\n      callvalue\n      dup1\n      iszero\n      tag_43\n      jumpi\n      0x00\n      dup1\n      revert\n    tag_43:\n      pop\n      tag_44\n      0x04\n      dup1\n      calldatasize\n      sub\n      dup2\n      add\n      swap1\n      tag_45\n      swap2\n      swap1\n      tag_46\n      jump\t// in\n    tag_45:\n      tag_47\n      jump\t// in\n    tag_44:\n      mload(0x40)\n      tag_48\n      swap2\n      swap1\n      tag_40\n      jump\t// in\n    tag_48:\n      mload(0x40)\n      dup1\n      swap2\n      sub\n      swap1\n      return\n        /* \"contracts/first_contract.sol\":611:655  mapping(address => uint) public interestDate */\n    tag_11:\n      callvalue\n      dup1\n      iszero\n      tag_49\n      jumpi\n      0x00\n      dup1\n      revert\n    tag_49:\n      pop\n      tag_50\n      0x04\n      dup1\n      calldatasize\n      sub\n      dup2\n      add\n      swap1\n      tag_51\n      swap2\n      swap1\n      tag_46\n      jump\t// in\n    tag_51:\n      tag_52\n      jump\t// in\n    tag_50:\n      mload(0x40)\n      tag_53\n      swap2\n      swap1\n      tag_34\n      jump\t// in\n    tag_53:\n      mload(0x40)\n      dup1\n      swap2\n      sub\n      swap1\n      return\n        /* \"contracts/first_contract.sol\":2403:2520  function getCountClient() public view returns(uint){\r... */\n    tag_12:\n      callvalue\n      dup1\n      iszero\n      tag_54\n      jumpi\n      0x00\n      dup1\n      revert\n    tag_54:\n      pop\n      tag_55\n      tag_56\n      jump\t// in\n    tag_55:\n      mload(0x40)\n      tag_57\n      swap2\n      swap1\n      tag_34\n      jump\t// in\n    tag_57:\n      mload(0x40)\n      dup1\n      swap2\n      sub\n      swap1\n      return\n        /* \"contracts/first_contract.sol\":3214:3704  function sendCoke(address _from, address _to, uint _value) external {\r... */\n    tag_20:\n        /* \"contracts/first_contract.sol\":3488:3498  ERC20 coke */\n      0x00\n        /* \"contracts/first_contract.sol\":3515:3557  0xd9145CCE52D386f254917e481eB44e9943F39138 */\n      0xd9145cce52d386f254917e481eb44e9943f39138\n        /* \"contracts/first_contract.sol\":3488:3559  ERC20 coke = ERC20(address(0xd9145CCE52D386f254917e481eB44e9943F39138)) */\n      swap1\n      pop\n        /* \"contracts/first_contract.sol\":3661:3665  coke */\n      dup1\n        /* \"contracts/first_contract.sol\":3661:3678  coke.transferFrom */\n      0xffffffffffffffffffffffffffffffffffffffff\n      and\n      0x23b872dd\n        /* \"contracts/first_contract.sol\":3679:3684  _from */\n      dup6\n        /* \"contracts/first_contract.sol\":3685:3688  _to */\n      dup6\n        /* \"contracts/first_contract.sol\":3689:3695  _value */\n      dup6\n        /* \"contracts/first_contract.sol\":3661:3696  coke.transferFrom(_from,_to,_value) */\n      mload(0x40)\n      dup5\n      0xffffffff\n      and\n      0xe0\n      shl\n      dup2\n      mstore\n      0x04\n      add\n      tag_59\n      swap4\n      swap3\n      swap2\n      swap1\n      tag_60\n      jump\t// in\n    tag_59:\n      0x20\n      mload(0x40)\n      dup1\n      dup4\n      sub\n      dup2\n      0x00\n      dup8\n      dup1\n      extcodesize\n      iszero\n      dup1\n      iszero\n      tag_61\n      jumpi\n      0x00\n      dup1\n      revert\n    tag_61:\n      pop\n      gas\n      call\n      iszero\n      dup1\n      iszero\n      tag_63\n      jumpi\n      returndatasize\n      0x00\n      dup1\n      returndatacopy\n      revert(0x00, returndatasize)\n    tag_63:\n      pop\n      pop\n      pop\n      pop\n      mload(0x40)\n      returndatasize\n      not(0x1f)\n      0x1f\n      dup3\n      add\n      and\n      dup3\n      add\n      dup1\n      0x40\n      mstore\n      pop\n      dup2\n      add\n      swap1\n      tag_64\n      swap2\n      swap1\n      tag_65\n      jump\t// in\n    tag_64:\n      pop\n        /* \"contracts/first_contract.sol\":3282:3704  {\r... */\n      pop\n        /* \"contracts/first_contract.sol\":3214:3704  function sendCoke(address _from, address _to, uint _value) external {\r... */\n      pop\n      pop\n      pop\n      jump\t// out\n        /* \"contracts/first_contract.sol\":1706:1889  function withdraw(uint amount) public payable onlyClients{\r... */\n    tag_24:\n        /* \"contracts/first_contract.sol\":874:887  bool isClient */\n      0x00\n        /* \"contracts/first_contract.sol\":910:916  uint i */\n      dup1\n        /* \"contracts/first_contract.sol\":906:1083  for(uint i=0;i<clients.length;i++){\r... */\n    tag_67:\n        /* \"contracts/first_contract.sol\":921:928  clients */\n      0x00\n        /* \"contracts/first_contract.sol\":921:935  clients.length */\n      dup1\n      sload\n      swap1\n      pop\n        /* \"contracts/first_contract.sol\":919:920  i */\n      dup2\n        /* \"contracts/first_contract.sol\":919:935  i<clients.length */\n      lt\n        /* \"contracts/first_contract.sol\":906:1083  for(uint i=0;i<clients.length;i++){\r... */\n      iszero\n      tag_68\n      jumpi\n        /* \"contracts/first_contract.sol\":987:997  msg.sender */\n      caller\n        /* \"contracts/first_contract.sol\":958:997  clients[i].client_address == msg.sender */\n      0xffffffffffffffffffffffffffffffffffffffff\n      and\n        /* \"contracts/first_contract.sol\":958:965  clients */\n      0x00\n        /* \"contracts/first_contract.sol\":966:967  i */\n      dup3\n        /* \"contracts/first_contract.sol\":958:968  clients[i] */\n      dup2\n      sload\n      dup2\n      lt\n      tag_70\n      jumpi\n      tag_71\n      tag_72\n      jump\t// in\n    tag_71:\n    tag_70:\n      swap1\n      0x00\n      mstore\n      keccak256(0x00, 0x20)\n      swap1\n      0x03\n      mul\n      add\n        /* \"contracts/first_contract.sol\":958:983  clients[i].client_address */\n      0x01\n      add\n      0x00\n      swap1\n      sload\n      swap1\n      0x0100\n      exp\n      swap1\n      div\n      0xffffffffffffffffffffffffffffffffffffffff\n      and\n        /* \"contracts/first_contract.sol\":958:997  clients[i].client_address == msg.sender */\n      0xffffffffffffffffffffffffffffffffffffffff\n      and\n      eq\n        /* \"contracts/first_contract.sol\":955:1072  if(clients[i].client_address == msg.sender){\r... */\n      iszero\n      tag_74\n      jumpi\n        /* \"contracts/first_contract.sol\":1028:1032  true */\n      0x01\n        /* \"contracts/first_contract.sol\":1017:1032  isClient = true */\n      swap2\n      pop\n        /* \"contracts/first_contract.sol\":1051:1056  break */\n      jump(tag_68)\n        /* \"contracts/first_contract.sol\":955:1072  if(clients[i].client_address == msg.sender){\r... */\n    tag_74:\n        /* \"contracts/first_contract.sol\":936:939  i++ */\n      dup1\n      dup1\n      tag_75\n      swap1\n      tag_76\n      jump\t// in\n    tag_75:\n      swap2\n      pop\n      pop\n        /* \"contracts/first_contract.sol\":906:1083  for(uint i=0;i<clients.length;i++){\r... */\n      jump(tag_67)\n    tag_68:\n      pop\n        /* \"contracts/first_contract.sol\":1101:1109  isClient */\n      dup1\n        /* \"contracts/first_contract.sol\":1093:1136  require(isClient, \"Only clients can call!\") */\n      tag_77\n      jumpi\n      mload(0x40)\n      0x08c379a000000000000000000000000000000000000000000000000000000000\n      dup2\n      mstore\n      0x04\n      add\n      tag_78\n      swap1\n      tag_79\n      jump\t// in\n    tag_78:\n      mload(0x40)\n      dup1\n      swap2\n      sub\n      swap1\n      revert\n    tag_77:\n        /* \"contracts/first_contract.sol\":1774:1793  address sender_temp */\n      0x00\n        /* \"contracts/first_contract.sol\":1818:1828  msg.sender */\n      caller\n        /* \"contracts/first_contract.sol\":1804:1828  sender_temp = msg.sender */\n      swap1\n      pop\n        /* \"contracts/first_contract.sol\":1844:1855  sender_temp */\n      dup1\n        /* \"contracts/first_contract.sol\":1836:1865  payable(sender_temp).transfer */\n      0xffffffffffffffffffffffffffffffffffffffff\n      and\n        /* \"contracts/first_contract.sol\":1836:1881  payable(sender_temp).transfer(amount * 1 wei) */\n      0x08fc\n        /* \"contracts/first_contract.sol\":1875:1880  1 wei */\n      0x01\n        /* \"contracts/first_contract.sol\":1866:1872  amount */\n      dup6\n        /* \"contracts/first_contract.sol\":1866:1880  amount * 1 wei */\n      tag_81\n      swap2\n      swap1\n      tag_82\n      jump\t// in\n    tag_81:\n        /* \"contracts/first_contract.sol\":1836:1881  payable(sender_temp).transfer(amount * 1 wei) */\n      swap1\n      dup2\n      iszero\n      mul\n      swap1\n      mload(0x40)\n      0x00\n      mload(0x40)\n      dup1\n      dup4\n      sub\n      dup2\n      dup6\n      dup9\n      dup9\n      call\n      swap4\n      pop\n      pop\n      pop\n      pop\n      iszero\n      dup1\n      iszero\n      tag_84\n      jumpi\n      returndatasize\n      0x00\n      dup1\n      returndatacopy\n      revert(0x00, returndatasize)\n    tag_84:\n      pop\n        /* \"contracts/first_contract.sol\":1763:1889  {\r... */\n      pop\n        /* \"contracts/first_contract.sol\":863:1156  {\r... */\n      pop\n        /* \"contracts/first_contract.sol\":1706:1889  function withdraw(uint amount) public payable onlyClients{\r... */\n      pop\n      jump\t// out\n        /* \"contracts/first_contract.sol\":2528:3098  function getClients() public view returns (address[] memory,uint[] memory) {\r... */\n    tag_27:\n        /* \"contracts/first_contract.sol\":2571:2587  address[] memory */\n      0x60\n        /* \"contracts/first_contract.sol\":2588:2601  uint[] memory */\n      dup1\n        /* \"contracts/first_contract.sol\":2616:2647  address[] memory client_address */\n      0x00\n        /* \"contracts/first_contract.sol\":2664:2671  clients */\n      dup1\n        /* \"contracts/first_contract.sol\":2664:2678  clients.length */\n      dup1\n      sload\n      swap1\n      pop\n        /* \"contracts/first_contract.sol\":2650:2679  new address[](clients.length) */\n      0xffffffffffffffff\n      dup2\n      gt\n      iszero\n      tag_86\n      jumpi\n      tag_87\n      tag_88\n      jump\t// in\n    tag_87:\n    tag_86:\n      mload(0x40)\n      swap1\n      dup1\n      dup3\n      mstore\n      dup1\n      0x20\n      mul\n      0x20\n      add\n      dup3\n      add\n      0x40\n      mstore\n      dup1\n      iszero\n      tag_89\n      jumpi\n      dup2\n      0x20\n      add\n      0x20\n      dup3\n      mul\n      dup1\n      calldatasize\n      dup4\n      calldatacopy\n      dup1\n      dup3\n      add\n      swap2\n      pop\n      pop\n      swap1\n      pop\n    tag_89:\n      pop\n        /* \"contracts/first_contract.sol\":2616:2679  address[] memory client_address = new address[](clients.length) */\n      swap1\n      pop\n        /* \"contracts/first_contract.sol\":2688:2728  uint[]    memory client_balance_in_ether */\n      0x00\n        /* \"contracts/first_contract.sol\":2742:2749  clients */\n      dup1\n        /* \"contracts/first_contract.sol\":2742:2756  clients.length */\n      dup1\n      sload\n      swap1\n      pop\n        /* \"contracts/first_contract.sol\":2731:2757  new uint[](clients.length) */\n      0xffffffffffffffff\n      dup2\n      gt\n      iszero\n      tag_90\n      jumpi\n      tag_91\n      tag_88\n      jump\t// in\n    tag_91:\n    tag_90:\n      mload(0x40)\n      swap1\n      dup1\n      dup3\n      mstore\n      dup1\n      0x20\n      mul\n      0x20\n      add\n      dup3\n      add\n      0x40\n      mstore\n      dup1\n      iszero\n      tag_92\n      jumpi\n      dup2\n      0x20\n      add\n      0x20\n      dup3\n      mul\n      dup1\n      calldatasize\n      dup4\n      calldatacopy\n      dup1\n      dup3\n      add\n      swap2\n      pop\n      pop\n      swap1\n      pop\n    tag_92:\n      pop\n        /* \"contracts/first_contract.sol\":2688:2757  uint[]    memory client_balance_in_ether = new uint[](clients.length) */\n      swap1\n      pop\n        /* \"contracts/first_contract.sol\":2775:2781  uint i */\n      0x00\n        /* \"contracts/first_contract.sol\":2770:3021  for (uint i = 0; i < clients.length; i++) {\r... */\n    tag_93:\n        /* \"contracts/first_contract.sol\":2791:2798  clients */\n      0x00\n        /* \"contracts/first_contract.sol\":2791:2805  clients.length */\n      dup1\n      sload\n      swap1\n      pop\n        /* \"contracts/first_contract.sol\":2787:2788  i */\n      dup2\n        /* \"contracts/first_contract.sol\":2787:2805  i < clients.length */\n      lt\n        /* \"contracts/first_contract.sol\":2770:3021  for (uint i = 0; i < clients.length; i++) {\r... */\n      iszero\n      tag_94\n      jumpi\n        /* \"contracts/first_contract.sol\":2906:2913  clients */\n      0x00\n        /* \"contracts/first_contract.sol\":2914:2915  i */\n      dup2\n        /* \"contracts/first_contract.sol\":2906:2916  clients[i] */\n      dup2\n      sload\n      dup2\n      lt\n      tag_96\n      jumpi\n      tag_97\n      tag_72\n      jump\t// in\n    tag_97:\n    tag_96:\n      swap1\n      0x00\n      mstore\n      keccak256(0x00, 0x20)\n      swap1\n      0x03\n      mul\n      add\n        /* \"contracts/first_contract.sol\":2906:2931  clients[i].client_address */\n      0x01\n      add\n      0x00\n      swap1\n      sload\n      swap1\n      0x0100\n      exp\n      swap1\n      div\n      0xffffffffffffffffffffffffffffffffffffffff\n      and\n        /* \"contracts/first_contract.sol\":2886:2900  client_address */\n      dup4\n        /* \"contracts/first_contract.sol\":2901:2902  i */\n      dup3\n        /* \"contracts/first_contract.sol\":2886:2903  client_address[i] */\n      dup2\n      mload\n      dup2\n      lt\n      tag_99\n      jumpi\n      tag_100\n      tag_72\n      jump\t// in\n    tag_100:\n    tag_99:\n      0x20\n      mul\n      0x20\n      add\n      add\n        /* \"contracts/first_contract.sol\":2886:2931  client_address[i] = clients[i].client_address */\n      swap1\n      0xffffffffffffffffffffffffffffffffffffffff\n      and\n      swap1\n      dup2\n      0xffffffffffffffffffffffffffffffffffffffff\n      and\n      dup2\n      mstore\n      pop\n      pop\n        /* \"contracts/first_contract.sol\":2975:2982  clients */\n      0x00\n        /* \"contracts/first_contract.sol\":2983:2984  i */\n      dup2\n        /* \"contracts/first_contract.sol\":2975:2985  clients[i] */\n      dup2\n      sload\n      dup2\n      lt\n      tag_101\n      jumpi\n      tag_102\n      tag_72\n      jump\t// in\n    tag_102:\n    tag_101:\n      swap1\n      0x00\n      mstore\n      keccak256(0x00, 0x20)\n      swap1\n      0x03\n      mul\n      add\n        /* \"contracts/first_contract.sol\":2975:3009  clients[i].client_balance_in_ether */\n      0x02\n      add\n      sload\n        /* \"contracts/first_contract.sol\":2946:2969  client_balance_in_ether */\n      dup3\n        /* \"contracts/first_contract.sol\":2970:2971  i */\n      dup3\n        /* \"contracts/first_contract.sol\":2946:2972  client_balance_in_ether[i] */\n      dup2\n      mload\n      dup2\n      lt\n      tag_104\n      jumpi\n      tag_105\n      tag_72\n      jump\t// in\n    tag_105:\n    tag_104:\n      0x20\n      mul\n      0x20\n      add\n      add\n        /* \"contracts/first_contract.sol\":2946:3009  client_balance_in_ether[i] = clients[i].client_balance_in_ether */\n      dup2\n      dup2\n      mstore\n      pop\n      pop\n        /* \"contracts/first_contract.sol\":2807:2810  i++ */\n      dup1\n      dup1\n      tag_106\n      swap1\n      tag_76\n      jump\t// in\n    tag_106:\n      swap2\n      pop\n      pop\n        /* \"contracts/first_contract.sol\":2770:3021  for (uint i = 0; i < clients.length; i++) {\r... */\n      jump(tag_93)\n    tag_94:\n      pop\n        /* \"contracts/first_contract.sol\":3049:3063  client_address */\n      dup2\n        /* \"contracts/first_contract.sol\":3065:3088  client_balance_in_ether */\n      dup2\n        /* \"contracts/first_contract.sol\":3041:3089  return (client_address, client_balance_in_ether) */\n      swap4\n      pop\n      swap4\n      pop\n      pop\n      pop\n        /* \"contracts/first_contract.sol\":2528:3098  function getClients() public view returns (address[] memory,uint[] memory) {\r... */\n      swap1\n      swap2\n      jump\t// out\n        /* \"contracts/first_contract.sol\":3105:3207  function getContractBalance() public view returns(uint){\r... */\n    tag_32:\n        /* \"contracts/first_contract.sol\":3155:3159  uint */\n      0x00\n        /* \"contracts/first_contract.sol\":3178:3199  address(this).balance */\n      selfbalance\n        /* \"contracts/first_contract.sol\":3171:3199  return address(this).balance */\n      swap1\n      pop\n        /* \"contracts/first_contract.sol\":3105:3207  function getContractBalance() public view returns(uint){\r... */\n      swap1\n      jump\t// out\n        /* \"contracts/first_contract.sol\":1897:2387  function sendInterest() public payable onlyManager{\r... */\n    tag_36:\n        /* \"contracts/first_contract.sol\":780:787  manager */\n      0x02\n      0x00\n      swap1\n      sload\n      swap1\n      0x0100\n      exp\n      swap1\n      div\n      0xffffffffffffffffffffffffffffffffffffffff\n      and\n        /* \"contracts/first_contract.sol\":766:787  msg.sender == manager */\n      0xffffffffffffffffffffffffffffffffffffffff\n      and\n        /* \"contracts/first_contract.sol\":766:776  msg.sender */\n      caller\n        /* \"contracts/first_contract.sol\":766:787  msg.sender == manager */\n      0xffffffffffffffffffffffffffffffffffffffff\n      and\n      eq\n        /* \"contracts/first_contract.sol\":758:814  require(msg.sender == manager, \"Only manager can call!\") */\n      tag_109\n      jumpi\n      mload(0x40)\n      0x08c379a000000000000000000000000000000000000000000000000000000000\n      dup2\n      mstore\n      0x04\n      add\n      tag_110\n      swap1\n      tag_111\n      jump\t// in\n    tag_110:\n      mload(0x40)\n      dup1\n      swap2\n      sub\n      swap1\n      revert\n    tag_109:\n        /* \"contracts/first_contract.sol\":1959:1965  uint i */\n      0x00\n        /* \"contracts/first_contract.sol\":1955:2380  for(uint i=0;i<clients.length;i++){\r... */\n    tag_113:\n        /* \"contracts/first_contract.sol\":1970:1977  clients */\n      0x00\n        /* \"contracts/first_contract.sol\":1970:1984  clients.length */\n      dup1\n      sload\n      swap1\n      pop\n        /* \"contracts/first_contract.sol\":1968:1969  i */\n      dup2\n        /* \"contracts/first_contract.sol\":1968:1984  i<clients.length */\n      lt\n        /* \"contracts/first_contract.sol\":1955:2380  for(uint i=0;i<clients.length;i++){\r... */\n      iszero\n      tag_114\n      jumpi\n        /* \"contracts/first_contract.sol\":2002:2024  address initialAddress */\n      0x00\n        /* \"contracts/first_contract.sol\":2027:2034  clients */\n      dup1\n        /* \"contracts/first_contract.sol\":2035:2036  i */\n      dup3\n        /* \"contracts/first_contract.sol\":2027:2037  clients[i] */\n      dup2\n      sload\n      dup2\n      lt\n      tag_116\n      jumpi\n      tag_117\n      tag_72\n      jump\t// in\n    tag_117:\n    tag_116:\n      swap1\n      0x00\n      mstore\n      keccak256(0x00, 0x20)\n      swap1\n      0x03\n      mul\n      add\n        /* \"contracts/first_contract.sol\":2027:2052  clients[i].client_address */\n      0x01\n      add\n      0x00\n      swap1\n      sload\n      swap1\n      0x0100\n      exp\n      swap1\n      div\n      0xffffffffffffffffffffffffffffffffffffffff\n      and\n        /* \"contracts/first_contract.sol\":2002:2052  address initialAddress = clients[i].client_address */\n      swap1\n      pop\n        /* \"contracts/first_contract.sol\":2065:2086  uint lastInterestDate */\n      0x00\n        /* \"contracts/first_contract.sol\":2089:2101  interestDate */\n      0x03\n        /* \"contracts/first_contract.sol\":2089:2117  interestDate[initialAddress] */\n      0x00\n        /* \"contracts/first_contract.sol\":2102:2116  initialAddress */\n      dup4\n        /* \"contracts/first_contract.sol\":2089:2117  interestDate[initialAddress] */\n      0xffffffffffffffffffffffffffffffffffffffff\n      and\n      0xffffffffffffffffffffffffffffffffffffffff\n      and\n      dup2\n      mstore\n      0x20\n      add\n      swap1\n      dup2\n      mstore\n      0x20\n      add\n      0x00\n      keccak256\n      sload\n        /* \"contracts/first_contract.sol\":2065:2117  uint lastInterestDate = interestDate[initialAddress] */\n      swap1\n      pop\n        /* \"contracts/first_contract.sol\":2170:2180  10 seconds */\n      0x0a\n        /* \"contracts/first_contract.sol\":2151:2167  lastInterestDate */\n      dup2\n        /* \"contracts/first_contract.sol\":2151:2180  lastInterestDate + 10 seconds */\n      tag_119\n      swap2\n      swap1\n      tag_120\n      jump\t// in\n    tag_119:\n        /* \"contracts/first_contract.sol\":2133:2148  block.timestamp */\n      timestamp\n        /* \"contracts/first_contract.sol\":2133:2180  block.timestamp < lastInterestDate + 10 seconds */\n      lt\n        /* \"contracts/first_contract.sol\":2130:2259  if(block.timestamp < lastInterestDate + 10 seconds){\r... */\n      iszero\n      tag_121\n      jumpi\n        /* \"contracts/first_contract.sol\":2199:2245  revert(\"It's just been less than 10 seconds!\") */\n      mload(0x40)\n      0x08c379a000000000000000000000000000000000000000000000000000000000\n      dup2\n      mstore\n      0x04\n      add\n      tag_122\n      swap1\n      tag_123\n      jump\t// in\n    tag_122:\n      mload(0x40)\n      dup1\n      swap2\n      sub\n      swap1\n      revert\n        /* \"contracts/first_contract.sol\":2130:2259  if(block.timestamp < lastInterestDate + 10 seconds){\r... */\n    tag_121:\n        /* \"contracts/first_contract.sol\":2279:2293  initialAddress */\n      dup2\n        /* \"contracts/first_contract.sol\":2271:2303  payable(initialAddress).transfer */\n      0xffffffffffffffffffffffffffffffffffffffff\n      and\n        /* \"contracts/first_contract.sol\":2271:2312  payable(initialAddress).transfer(1 ether) */\n      0x08fc\n        /* \"contracts/first_contract.sol\":2304:2311  1 ether */\n      0x0de0b6b3a7640000\n        /* \"contracts/first_contract.sol\":2271:2312  payable(initialAddress).transfer(1 ether) */\n      swap1\n      dup2\n      iszero\n      mul\n      swap1\n      mload(0x40)\n      0x00\n      mload(0x40)\n      dup1\n      dup4\n      sub\n      dup2\n      dup6\n      dup9\n      dup9\n      call\n      swap4\n      pop\n      pop\n      pop\n      pop\n      iszero\n      dup1\n      iszero\n      tag_125\n      jumpi\n      returndatasize\n      0x00\n      dup1\n      returndatacopy\n      revert(0x00, returndatasize)\n    tag_125:\n      pop\n        /* \"contracts/first_contract.sol\":2356:2371  block.timestamp */\n      timestamp\n        /* \"contracts/first_contract.sol\":2325:2337  interestDate */\n      0x03\n        /* \"contracts/first_contract.sol\":2325:2353  interestDate[initialAddress] */\n      0x00\n        /* \"contracts/first_contract.sol\":2338:2352  initialAddress */\n      dup5\n        /* \"contracts/first_contract.sol\":2325:2353  interestDate[initialAddress] */\n      0xffffffffffffffffffffffffffffffffffffffff\n      and\n      0xffffffffffffffffffffffffffffffffffffffff\n      and\n      dup2\n      mstore\n      0x20\n      add\n      swap1\n      dup2\n      mstore\n      0x20\n      add\n      0x00\n      keccak256\n        /* \"contracts/first_contract.sol\":2325:2371  interestDate[initialAddress] = block.timestamp */\n      dup2\n      swap1\n      sstore\n      pop\n        /* \"contracts/first_contract.sol\":1989:2380  {\r... */\n      pop\n      pop\n        /* \"contracts/first_contract.sol\":1985:1988  i++ */\n      dup1\n      dup1\n      tag_126\n      swap1\n      tag_76\n      jump\t// in\n    tag_126:\n      swap2\n      pop\n      pop\n        /* \"contracts/first_contract.sol\":1955:2380  for(uint i=0;i<clients.length;i++){\r... */\n      jump(tag_113)\n    tag_114:\n      pop\n        /* \"contracts/first_contract.sol\":1897:2387  function sendInterest() public payable onlyManager{\r... */\n      jump\t// out\n        /* \"contracts/first_contract.sol\":1355:1585  function joinAsClient() public payable returns(string memory){\r... */\n    tag_38:\n        /* \"contracts/first_contract.sol\":1402:1415  string memory */\n      0x60\n        /* \"contracts/first_contract.sol\":1451:1466  block.timestamp */\n      timestamp\n        /* \"contracts/first_contract.sol\":1424:1436  interestDate */\n      0x03\n        /* \"contracts/first_contract.sol\":1424:1448  interestDate[msg.sender] */\n      0x00\n        /* \"contracts/first_contract.sol\":1437:1447  msg.sender */\n      caller\n        /* \"contracts/first_contract.sol\":1424:1448  interestDate[msg.sender] */\n      0xffffffffffffffffffffffffffffffffffffffff\n      and\n      0xffffffffffffffffffffffffffffffffffffffff\n      and\n      dup2\n      mstore\n      0x20\n      add\n      swap1\n      dup2\n      mstore\n      0x20\n      add\n      0x00\n      keccak256\n        /* \"contracts/first_contract.sol\":1424:1466  interestDate[msg.sender] = block.timestamp */\n      dup2\n      swap1\n      sstore\n      pop\n        /* \"contracts/first_contract.sol\":1474:1481  clients */\n      0x00\n        /* \"contracts/first_contract.sol\":1487:1559  client_account(clientCounter++, msg.sender, address(msg.sender).balance) */\n      mload(0x40)\n      dup1\n      0x60\n      add\n      0x40\n      mstore\n      dup1\n        /* \"contracts/first_contract.sol\":1502:1515  clientCounter */\n      0x01\n      0x00\n        /* \"contracts/first_contract.sol\":1502:1517  clientCounter++ */\n      dup2\n      sload\n      dup1\n      swap3\n      swap2\n      swap1\n      tag_128\n      swap1\n      tag_129\n      jump\t// in\n    tag_128:\n      swap2\n      swap1\n      pop\n      sstore\n        /* \"contracts/first_contract.sol\":1487:1559  client_account(clientCounter++, msg.sender, address(msg.sender).balance) */\n      dup2\n      mstore\n      0x20\n      add\n        /* \"contracts/first_contract.sol\":1519:1529  msg.sender */\n      caller\n        /* \"contracts/first_contract.sol\":1487:1559  client_account(clientCounter++, msg.sender, address(msg.sender).balance) */\n      0xffffffffffffffffffffffffffffffffffffffff\n      and\n      dup2\n      mstore\n      0x20\n      add\n        /* \"contracts/first_contract.sol\":1539:1549  msg.sender */\n      caller\n        /* \"contracts/first_contract.sol\":1531:1558  address(msg.sender).balance */\n      0xffffffffffffffffffffffffffffffffffffffff\n      and\n      balance\n        /* \"contracts/first_contract.sol\":1487:1559  client_account(clientCounter++, msg.sender, address(msg.sender).balance) */\n      dup2\n      mstore\n      pop\n        /* \"contracts/first_contract.sol\":1474:1560  clients.push(client_account(clientCounter++, msg.sender, address(msg.sender).balance)) */\n      swap1\n      dup1\n      0x01\n      dup2\n      sload\n      add\n      dup1\n      dup3\n      sstore\n      dup1\n      swap2\n      pop\n      pop\n      0x01\n      swap1\n      sub\n      swap1\n      0x00\n      mstore\n      keccak256(0x00, 0x20)\n      swap1\n      0x03\n      mul\n      add\n      0x00\n      swap1\n      swap2\n      swap1\n      swap2\n      swap1\n      swap2\n      pop\n      0x00\n      dup3\n      add\n      mload\n      dup2\n      0x00\n      add\n      sstore\n      0x20\n      dup3\n      add\n      mload\n      dup2\n      0x01\n      add\n      exp(0x0100, 0x00)\n      dup2\n      sload\n      dup2\n      0xffffffffffffffffffffffffffffffffffffffff\n      mul\n      not\n      and\n      swap1\n      dup4\n      0xffffffffffffffffffffffffffffffffffffffff\n      and\n      mul\n      or\n      swap1\n      sstore\n      pop\n      0x40\n      dup3\n      add\n      mload\n      dup2\n      0x02\n      add\n      sstore\n      pop\n      pop\n        /* \"contracts/first_contract.sol\":1568:1577  return \"\" */\n      mload(0x40)\n      dup1\n      0x20\n      add\n      0x40\n      mstore\n      dup1\n      0x00\n      dup2\n      mstore\n      pop\n      swap1\n      pop\n        /* \"contracts/first_contract.sol\":1355:1585  function joinAsClient() public payable returns(string memory){\r... */\n      swap1\n      jump\t// out\n        /* \"contracts/first_contract.sol\":1595:1698  function deposit() public payable onlyClients{\r... */\n    tag_42:\n        /* \"contracts/first_contract.sol\":874:887  bool isClient */\n      0x00\n        /* \"contracts/first_contract.sol\":910:916  uint i */\n      dup1\n        /* \"contracts/first_contract.sol\":906:1083  for(uint i=0;i<clients.length;i++){\r... */\n    tag_132:\n        /* \"contracts/first_contract.sol\":921:928  clients */\n      0x00\n        /* \"contracts/first_contract.sol\":921:935  clients.length */\n      dup1\n      sload\n      swap1\n      pop\n        /* \"contracts/first_contract.sol\":919:920  i */\n      dup2\n        /* \"contracts/first_contract.sol\":919:935  i<clients.length */\n      lt\n        /* \"contracts/first_contract.sol\":906:1083  for(uint i=0;i<clients.length;i++){\r... */\n      iszero\n      tag_133\n      jumpi\n        /* \"contracts/first_contract.sol\":987:997  msg.sender */\n      caller\n        /* \"contracts/first_contract.sol\":958:997  clients[i].client_address == msg.sender */\n      0xffffffffffffffffffffffffffffffffffffffff\n      and\n        /* \"contracts/first_contract.sol\":958:965  clients */\n      0x00\n        /* \"contracts/first_contract.sol\":966:967  i */\n      dup3\n        /* \"contracts/first_contract.sol\":958:968  clients[i] */\n      dup2\n      sload\n      dup2\n      lt\n      tag_135\n      jumpi\n      tag_136\n      tag_72\n      jump\t// in\n    tag_136:\n    tag_135:\n      swap1\n      0x00\n      mstore\n      keccak256(0x00, 0x20)\n      swap1\n      0x03\n      mul\n      add\n        /* \"contracts/first_contract.sol\":958:983  clients[i].client_address */\n      0x01\n      add\n      0x00\n      swap1\n      sload\n      swap1\n      0x0100\n      exp\n      swap1\n      div\n      0xffffffffffffffffffffffffffffffffffffffff\n      and\n        /* \"contracts/first_contract.sol\":958:997  clients[i].client_address == msg.sender */\n      0xffffffffffffffffffffffffffffffffffffffff\n      and\n      eq\n        /* \"contracts/first_contract.sol\":955:1072  if(clients[i].client_address == msg.sender){\r... */\n      iszero\n      tag_138\n      jumpi\n        /* \"contracts/first_contract.sol\":1028:1032  true */\n      0x01\n        /* \"contracts/first_contract.sol\":1017:1032  isClient = true */\n      swap2\n      pop\n        /* \"contracts/first_contract.sol\":1051:1056  break */\n      jump(tag_133)\n        /* \"contracts/first_contract.sol\":955:1072  if(clients[i].client_address == msg.sender){\r... */\n    tag_138:\n        /* \"contracts/first_contract.sol\":936:939  i++ */\n      dup1\n      dup1\n      tag_139\n      swap1\n      tag_76\n      jump\t// in\n    tag_139:\n      swap2\n      pop\n      pop\n        /* \"contracts/first_contract.sol\":906:1083  for(uint i=0;i<clients.length;i++){\r... */\n      jump(tag_132)\n    tag_133:\n      pop\n        /* \"contracts/first_contract.sol\":1101:1109  isClient */\n      dup1\n        /* \"contracts/first_contract.sol\":1093:1136  require(isClient, \"Only clients can call!\") */\n      tag_140\n      jumpi\n      mload(0x40)\n      0x08c379a000000000000000000000000000000000000000000000000000000000\n      dup2\n      mstore\n      0x04\n      add\n      tag_141\n      swap1\n      tag_79\n      jump\t// in\n    tag_141:\n      mload(0x40)\n      dup1\n      swap2\n      sub\n      swap1\n      revert\n    tag_140:\n        /* \"contracts/first_contract.sol\":1664:1668  this */\n      address\n        /* \"contracts/first_contract.sol\":1648:1679  payable(address(this)).transfer */\n      0xffffffffffffffffffffffffffffffffffffffff\n      and\n        /* \"contracts/first_contract.sol\":1648:1690  payable(address(this)).transfer(msg.value) */\n      0x08fc\n        /* \"contracts/first_contract.sol\":1680:1689  msg.value */\n      callvalue\n        /* \"contracts/first_contract.sol\":1648:1690  payable(address(this)).transfer(msg.value) */\n      swap1\n      dup2\n      iszero\n      mul\n      swap1\n      mload(0x40)\n      0x00\n      mload(0x40)\n      dup1\n      dup4\n      sub\n      dup2\n      dup6\n      dup9\n      dup9\n      call\n      swap4\n      pop\n      pop\n      pop\n      pop\n      iszero\n      dup1\n      iszero\n      tag_144\n      jumpi\n      returndatasize\n      0x00\n      dup1\n      returndatacopy\n      revert(0x00, returndatasize)\n    tag_144:\n      pop\n        /* \"contracts/first_contract.sol\":863:1156  {\r... */\n      pop\n        /* \"contracts/first_contract.sol\":1595:1698  function deposit() public payable onlyClients{\r... */\n      jump\t// out\n        /* \"contracts/first_contract.sol\":1208:1347  function setManager(address managerAddress) public returns(string memory){\r... */\n    tag_47:\n        /* \"contracts/first_contract.sol\":1267:1280  string memory */\n      0x60\n        /* \"contracts/first_contract.sol\":1307:1321  managerAddress */\n      dup2\n        /* \"contracts/first_contract.sol\":1289:1296  manager */\n      0x02\n      0x00\n        /* \"contracts/first_contract.sol\":1289:1322  manager = payable(managerAddress) */\n      0x0100\n      exp\n      dup2\n      sload\n      dup2\n      0xffffffffffffffffffffffffffffffffffffffff\n      mul\n      not\n      and\n      swap1\n      dup4\n      0xffffffffffffffffffffffffffffffffffffffff\n      and\n      mul\n      or\n      swap1\n      sstore\n      pop\n        /* \"contracts/first_contract.sol\":1330:1339  return \"\" */\n      mload(0x40)\n      dup1\n      0x20\n      add\n      0x40\n      mstore\n      dup1\n      0x00\n      dup2\n      mstore\n      pop\n      swap1\n      pop\n        /* \"contracts/first_contract.sol\":1208:1347  function setManager(address managerAddress) public returns(string memory){\r... */\n      swap2\n      swap1\n      pop\n      jump\t// out\n        /* \"contracts/first_contract.sol\":611:655  mapping(address => uint) public interestDate */\n    tag_52:\n      mstore(0x20, 0x03)\n      dup1\n      0x00\n      mstore\n      keccak256(0x00, 0x40)\n      0x00\n      swap2\n      pop\n      swap1\n      pop\n      sload\n      dup2\n      jump\t// out\n        /* \"contracts/first_contract.sol\":2403:2520  function getCountClient() public view returns(uint){\r... */\n    tag_56:\n        /* \"contracts/first_contract.sol\":2449:2453  uint */\n      0x00\n        /* \"contracts/first_contract.sol\":2465:2475  uint count */\n      dup1\n        /* \"contracts/first_contract.sol\":2478:2485  clients */\n      0x00\n        /* \"contracts/first_contract.sol\":2478:2492  clients.length */\n      dup1\n      sload\n      swap1\n      pop\n        /* \"contracts/first_contract.sol\":2465:2492  uint count = clients.length */\n      swap1\n      pop\n        /* \"contracts/first_contract.sol\":2507:2512  count */\n      dup1\n        /* \"contracts/first_contract.sol\":2500:2512  return count */\n      swap2\n      pop\n      pop\n        /* \"contracts/first_contract.sol\":2403:2520  function getCountClient() public view returns(uint){\r... */\n      swap1\n      jump\t// out\n        /* \"#utility.yul\":7:146   */\n    tag_148:\n        /* \"#utility.yul\":53:58   */\n      0x00\n        /* \"#utility.yul\":91:97   */\n      dup2\n        /* \"#utility.yul\":78:98   */\n      calldataload\n        /* \"#utility.yul\":69:98   */\n      swap1\n      pop\n        /* \"#utility.yul\":107:140   */\n      tag_150\n        /* \"#utility.yul\":134:139   */\n      dup2\n        /* \"#utility.yul\":107:140   */\n      tag_151\n      jump\t// in\n    tag_150:\n        /* \"#utility.yul\":7:146   */\n      swap3\n      swap2\n      pop\n      pop\n      jump\t// out\n        /* \"#utility.yul\":152:289   */\n    tag_152:\n        /* \"#utility.yul\":206:211   */\n      0x00\n        /* \"#utility.yul\":237:243   */\n      dup2\n        /* \"#utility.yul\":231:244   */\n      mload\n        /* \"#utility.yul\":222:244   */\n      swap1\n      pop\n        /* \"#utility.yul\":253:283   */\n      tag_154\n        /* \"#utility.yul\":277:282   */\n      dup2\n        /* \"#utility.yul\":253:283   */\n      tag_155\n      jump\t// in\n    tag_154:\n        /* \"#utility.yul\":152:289   */\n      swap3\n      swap2\n      pop\n      pop\n      jump\t// out\n        /* \"#utility.yul\":295:434   */\n    tag_156:\n        /* \"#utility.yul\":341:346   */\n      0x00\n        /* \"#utility.yul\":379:385   */\n      dup2\n        /* \"#utility.yul\":366:386   */\n      calldataload\n        /* \"#utility.yul\":357:386   */\n      swap1\n      pop\n        /* \"#utility.yul\":395:428   */\n      tag_158\n        /* \"#utility.yul\":422:427   */\n      dup2\n        /* \"#utility.yul\":395:428   */\n      tag_159\n      jump\t// in\n    tag_158:\n        /* \"#utility.yul\":295:434   */\n      swap3\n      swap2\n      pop\n      pop\n      jump\t// out\n        /* \"#utility.yul\":440:769   */\n    tag_46:\n        /* \"#utility.yul\":499:505   */\n      0x00\n        /* \"#utility.yul\":548:550   */\n      0x20\n        /* \"#utility.yul\":536:545   */\n      dup3\n        /* \"#utility.yul\":527:534   */\n      dup5\n        /* \"#utility.yul\":523:546   */\n      sub\n        /* \"#utility.yul\":519:551   */\n      slt\n        /* \"#utility.yul\":516:635   */\n      iszero\n      tag_161\n      jumpi\n        /* \"#utility.yul\":554:633   */\n      tag_162\n      tag_163\n      jump\t// in\n    tag_162:\n        /* \"#utility.yul\":516:635   */\n    tag_161:\n        /* \"#utility.yul\":674:675   */\n      0x00\n        /* \"#utility.yul\":699:752   */\n      tag_164\n        /* \"#utility.yul\":744:751   */\n      dup5\n        /* \"#utility.yul\":735:741   */\n      dup3\n        /* \"#utility.yul\":724:733   */\n      dup6\n        /* \"#utility.yul\":720:742   */\n      add\n        /* \"#utility.yul\":699:752   */\n      tag_148\n      jump\t// in\n    tag_164:\n        /* \"#utility.yul\":689:752   */\n      swap2\n      pop\n        /* \"#utility.yul\":645:762   */\n      pop\n        /* \"#utility.yul\":440:769   */\n      swap3\n      swap2\n      pop\n      pop\n      jump\t// out\n        /* \"#utility.yul\":775:1394   */\n    tag_19:\n        /* \"#utility.yul\":852:858   */\n      0x00\n        /* \"#utility.yul\":860:866   */\n      dup1\n        /* \"#utility.yul\":868:874   */\n      0x00\n        /* \"#utility.yul\":917:919   */\n      0x60\n        /* \"#utility.yul\":905:914   */\n      dup5\n        /* \"#utility.yul\":896:903   */\n      dup7\n        /* \"#utility.yul\":892:915   */\n      sub\n        /* \"#utility.yul\":888:920   */\n      slt\n        /* \"#utility.yul\":885:1004   */\n      iszero\n      tag_166\n      jumpi\n        /* \"#utility.yul\":923:1002   */\n      tag_167\n      tag_163\n      jump\t// in\n    tag_167:\n        /* \"#utility.yul\":885:1004   */\n    tag_166:\n        /* \"#utility.yul\":1043:1044   */\n      0x00\n        /* \"#utility.yul\":1068:1121   */\n      tag_168\n        /* \"#utility.yul\":1113:1120   */\n      dup7\n        /* \"#utility.yul\":1104:1110   */\n      dup3\n        /* \"#utility.yul\":1093:1102   */\n      dup8\n        /* \"#utility.yul\":1089:1111   */\n      add\n        /* \"#utility.yul\":1068:1121   */\n      tag_148\n      jump\t// in\n    tag_168:\n        /* \"#utility.yul\":1058:1121   */\n      swap4\n      pop\n        /* \"#utility.yul\":1014:1131   */\n      pop\n        /* \"#utility.yul\":1170:1172   */\n      0x20\n        /* \"#utility.yul\":1196:1249   */\n      tag_169\n        /* \"#utility.yul\":1241:1248   */\n      dup7\n        /* \"#utility.yul\":1232:1238   */\n      dup3\n        /* \"#utility.yul\":1221:1230   */\n      dup8\n        /* \"#utility.yul\":1217:1239   */\n      add\n        /* \"#utility.yul\":1196:1249   */\n      tag_148\n      jump\t// in\n    tag_169:\n        /* \"#utility.yul\":1186:1249   */\n      swap3\n      pop\n        /* \"#utility.yul\":1141:1259   */\n      pop\n        /* \"#utility.yul\":1298:1300   */\n      0x40\n        /* \"#utility.yul\":1324:1377   */\n      tag_170\n        /* \"#utility.yul\":1369:1376   */\n      dup7\n        /* \"#utility.yul\":1360:1366   */\n      dup3\n        /* \"#utility.yul\":1349:1358   */\n      dup8\n        /* \"#utility.yul\":1345:1367   */\n      add\n        /* \"#utility.yul\":1324:1377   */\n      tag_156\n      jump\t// in\n    tag_170:\n        /* \"#utility.yul\":1314:1377   */\n      swap2\n      pop\n        /* \"#utility.yul\":1269:1387   */\n      pop\n        /* \"#utility.yul\":775:1394   */\n      swap3\n      pop\n      swap3\n      pop\n      swap3\n      jump\t// out\n        /* \"#utility.yul\":1400:1745   */\n    tag_65:\n        /* \"#utility.yul\":1467:1473   */\n      0x00\n        /* \"#utility.yul\":1516:1518   */\n      0x20\n        /* \"#utility.yul\":1504:1513   */\n      dup3\n        /* \"#utility.yul\":1495:1502   */\n      dup5\n        /* \"#utility.yul\":1491:1514   */\n      sub\n        /* \"#utility.yul\":1487:1519   */\n      slt\n        /* \"#utility.yul\":1484:1603   */\n      iszero\n      tag_172\n      jumpi\n        /* \"#utility.yul\":1522:1601   */\n      tag_173\n      tag_163\n      jump\t// in\n    tag_173:\n        /* \"#utility.yul\":1484:1603   */\n    tag_172:\n        /* \"#utility.yul\":1642:1643   */\n      0x00\n        /* \"#utility.yul\":1667:1728   */\n      tag_174\n        /* \"#utility.yul\":1720:1727   */\n      dup5\n        /* \"#utility.yul\":1711:1717   */\n      dup3\n        /* \"#utility.yul\":1700:1709   */\n      dup6\n        /* \"#utility.yul\":1696:1718   */\n      add\n        /* \"#utility.yul\":1667:1728   */\n      tag_152\n      jump\t// in\n    tag_174:\n        /* \"#utility.yul\":1657:1728   */\n      swap2\n      pop\n        /* \"#utility.yul\":1613:1738   */\n      pop\n        /* \"#utility.yul\":1400:1745   */\n      swap3\n      swap2\n      pop\n      pop\n      jump\t// out\n        /* \"#utility.yul\":1751:2080   */\n    tag_23:\n        /* \"#utility.yul\":1810:1816   */\n      0x00\n        /* \"#utility.yul\":1859:1861   */\n      0x20\n        /* \"#utility.yul\":1847:1856   */\n      dup3\n        /* \"#utility.yul\":1838:1845   */\n      dup5\n        /* \"#utility.yul\":1834:1857   */\n      sub\n        /* \"#utility.yul\":1830:1862   */\n      slt\n        /* \"#utility.yul\":1827:1946   */\n      iszero\n      tag_176\n      jumpi\n        /* \"#utility.yul\":1865:1944   */\n      tag_177\n      tag_163\n      jump\t// in\n    tag_177:\n        /* \"#utility.yul\":1827:1946   */\n    tag_176:\n        /* \"#utility.yul\":1985:1986   */\n      0x00\n        /* \"#utility.yul\":2010:2063   */\n      tag_178\n        /* \"#utility.yul\":2055:2062   */\n      dup5\n        /* \"#utility.yul\":2046:2052   */\n      dup3\n        /* \"#utility.yul\":2035:2044   */\n      dup6\n        /* \"#utility.yul\":2031:2053   */\n      add\n        /* \"#utility.yul\":2010:2063   */\n      tag_156\n      jump\t// in\n    tag_178:\n        /* \"#utility.yul\":2000:2063   */\n      swap2\n      pop\n        /* \"#utility.yul\":1956:2073   */\n      pop\n        /* \"#utility.yul\":1751:2080   */\n      swap3\n      swap2\n      pop\n      pop\n      jump\t// out\n        /* \"#utility.yul\":2086:2265   */\n    tag_179:\n        /* \"#utility.yul\":2155:2165   */\n      0x00\n        /* \"#utility.yul\":2176:2222   */\n      tag_181\n        /* \"#utility.yul\":2218:2221   */\n      dup4\n        /* \"#utility.yul\":2210:2216   */\n      dup4\n        /* \"#utility.yul\":2176:2222   */\n      tag_182\n      jump\t// in\n    tag_181:\n        /* \"#utility.yul\":2254:2258   */\n      0x20\n        /* \"#utility.yul\":2249:2252   */\n      dup4\n        /* \"#utility.yul\":2245:2259   */\n      add\n        /* \"#utility.yul\":2231:2259   */\n      swap1\n      pop\n        /* \"#utility.yul\":2086:2265   */\n      swap3\n      swap2\n      pop\n      pop\n      jump\t// out\n        /* \"#utility.yul\":2271:2450   */\n    tag_183:\n        /* \"#utility.yul\":2340:2350   */\n      0x00\n        /* \"#utility.yul\":2361:2407   */\n      tag_185\n        /* \"#utility.yul\":2403:2406   */\n      dup4\n        /* \"#utility.yul\":2395:2401   */\n      dup4\n        /* \"#utility.yul\":2361:2407   */\n      tag_186\n      jump\t// in\n    tag_185:\n        /* \"#utility.yul\":2439:2443   */\n      0x20\n        /* \"#utility.yul\":2434:2437   */\n      dup4\n        /* \"#utility.yul\":2430:2444   */\n      add\n        /* \"#utility.yul\":2416:2444   */\n      swap1\n      pop\n        /* \"#utility.yul\":2271:2450   */\n      swap3\n      swap2\n      pop\n      pop\n      jump\t// out\n        /* \"#utility.yul\":2456:2564   */\n    tag_182:\n        /* \"#utility.yul\":2533:2557   */\n      tag_188\n        /* \"#utility.yul\":2551:2556   */\n      dup2\n        /* \"#utility.yul\":2533:2557   */\n      tag_189\n      jump\t// in\n    tag_188:\n        /* \"#utility.yul\":2528:2531   */\n      dup3\n        /* \"#utility.yul\":2521:2558   */\n      mstore\n        /* \"#utility.yul\":2456:2564   */\n      pop\n      pop\n      jump\t// out\n        /* \"#utility.yul\":2570:2688   */\n    tag_190:\n        /* \"#utility.yul\":2657:2681   */\n      tag_192\n        /* \"#utility.yul\":2675:2680   */\n      dup2\n        /* \"#utility.yul\":2657:2681   */\n      tag_189\n      jump\t// in\n    tag_192:\n        /* \"#utility.yul\":2652:2655   */\n      dup3\n        /* \"#utility.yul\":2645:2682   */\n      mstore\n        /* \"#utility.yul\":2570:2688   */\n      pop\n      pop\n      jump\t// out\n        /* \"#utility.yul\":2724:3456   */\n    tag_193:\n        /* \"#utility.yul\":2843:2846   */\n      0x00\n        /* \"#utility.yul\":2872:2926   */\n      tag_195\n        /* \"#utility.yul\":2920:2925   */\n      dup3\n        /* \"#utility.yul\":2872:2926   */\n      tag_196\n      jump\t// in\n    tag_195:\n        /* \"#utility.yul\":2942:3028   */\n      tag_197\n        /* \"#utility.yul\":3021:3027   */\n      dup2\n        /* \"#utility.yul\":3016:3019   */\n      dup6\n        /* \"#utility.yul\":2942:3028   */\n      tag_198\n      jump\t// in\n    tag_197:\n        /* \"#utility.yul\":2935:3028   */\n      swap4\n      pop\n        /* \"#utility.yul\":3052:3108   */\n      tag_199\n        /* \"#utility.yul\":3102:3107   */\n      dup4\n        /* \"#utility.yul\":3052:3108   */\n      tag_200\n      jump\t// in\n    tag_199:\n        /* \"#utility.yul\":3131:3138   */\n      dup1\n        /* \"#utility.yul\":3162:3163   */\n      0x00\n        /* \"#utility.yul\":3147:3431   */\n    tag_201:\n        /* \"#utility.yul\":3172:3178   */\n      dup4\n        /* \"#utility.yul\":3169:3170   */\n      dup2\n        /* \"#utility.yul\":3166:3179   */\n      lt\n        /* \"#utility.yul\":3147:3431   */\n      iszero\n      tag_203\n      jumpi\n        /* \"#utility.yul\":3248:3254   */\n      dup2\n        /* \"#utility.yul\":3242:3255   */\n      mload\n        /* \"#utility.yul\":3275:3338   */\n      tag_204\n        /* \"#utility.yul\":3334:3337   */\n      dup9\n        /* \"#utility.yul\":3319:3332   */\n      dup3\n        /* \"#utility.yul\":3275:3338   */\n      tag_179\n      jump\t// in\n    tag_204:\n        /* \"#utility.yul\":3268:3338   */\n      swap8\n      pop\n        /* \"#utility.yul\":3361:3421   */\n      tag_205\n        /* \"#utility.yul\":3414:3420   */\n      dup4\n        /* \"#utility.yul\":3361:3421   */\n      tag_206\n      jump\t// in\n    tag_205:\n        /* \"#utility.yul\":3351:3421   */\n      swap3\n      pop\n        /* \"#utility.yul\":3207:3431   */\n      pop\n        /* \"#utility.yul\":3194:3195   */\n      0x01\n        /* \"#utility.yul\":3191:3192   */\n      dup2\n        /* \"#utility.yul\":3187:3196   */\n      add\n        /* \"#utility.yul\":3182:3196   */\n      swap1\n      pop\n        /* \"#utility.yul\":3147:3431   */\n      jump(tag_201)\n    tag_203:\n        /* \"#utility.yul\":3151:3165   */\n      pop\n        /* \"#utility.yul\":3447:3450   */\n      dup6\n        /* \"#utility.yul\":3440:3450   */\n      swap4\n      pop\n        /* \"#utility.yul\":2848:3456   */\n      pop\n      pop\n      pop\n        /* \"#utility.yul\":2724:3456   */\n      swap3\n      swap2\n      pop\n      pop\n      jump\t// out\n        /* \"#utility.yul\":3492:4224   */\n    tag_207:\n        /* \"#utility.yul\":3611:3614   */\n      0x00\n        /* \"#utility.yul\":3640:3694   */\n      tag_209\n        /* \"#utility.yul\":3688:3693   */\n      dup3\n        /* \"#utility.yul\":3640:3694   */\n      tag_210\n      jump\t// in\n    tag_209:\n        /* \"#utility.yul\":3710:3796   */\n      tag_211\n        /* \"#utility.yul\":3789:3795   */\n      dup2\n        /* \"#utility.yul\":3784:3787   */\n      dup6\n        /* \"#utility.yul\":3710:3796   */\n      tag_212\n      jump\t// in\n    tag_211:\n        /* \"#utility.yul\":3703:3796   */\n      swap4\n      pop\n        /* \"#utility.yul\":3820:3876   */\n      tag_213\n        /* \"#utility.yul\":3870:3875   */\n      dup4\n        /* \"#utility.yul\":3820:3876   */\n      tag_214\n      jump\t// in\n    tag_213:\n        /* \"#utility.yul\":3899:3906   */\n      dup1\n        /* \"#utility.yul\":3930:3931   */\n      0x00\n        /* \"#utility.yul\":3915:4199   */\n    tag_215:\n        /* \"#utility.yul\":3940:3946   */\n      dup4\n        /* \"#utility.yul\":3937:3938   */\n      dup2\n        /* \"#utility.yul\":3934:3947   */\n      lt\n        /* \"#utility.yul\":3915:4199   */\n      iszero\n      tag_217\n      jumpi\n        /* \"#utility.yul\":4016:4022   */\n      dup2\n        /* \"#utility.yul\":4010:4023   */\n      mload\n        /* \"#utility.yul\":4043:4106   */\n      tag_218\n        /* \"#utility.yul\":4102:4105   */\n      dup9\n        /* \"#utility.yul\":4087:4100   */\n      dup3\n        /* \"#utility.yul\":4043:4106   */\n      tag_183\n      jump\t// in\n    tag_218:\n        /* \"#utility.yul\":4036:4106   */\n      swap8\n      pop\n        /* \"#utility.yul\":4129:4189   */\n      tag_219\n        /* \"#utility.yul\":4182:4188   */\n      dup4\n        /* \"#utility.yul\":4129:4189   */\n      tag_220\n      jump\t// in\n    tag_219:\n        /* \"#utility.yul\":4119:4189   */\n      swap3\n      pop\n        /* \"#utility.yul\":3975:4199   */\n      pop\n        /* \"#utility.yul\":3962:3963   */\n      0x01\n        /* \"#utility.yul\":3959:3960   */\n      dup2\n        /* \"#utility.yul\":3955:3964   */\n      add\n        /* \"#utility.yul\":3950:3964   */\n      swap1\n      pop\n        /* \"#utility.yul\":3915:4199   */\n      jump(tag_215)\n    tag_217:\n        /* \"#utility.yul\":3919:3933   */\n      pop\n        /* \"#utility.yul\":4215:4218   */\n      dup6\n        /* \"#utility.yul\":4208:4218   */\n      swap4\n      pop\n        /* \"#utility.yul\":3616:4224   */\n      pop\n      pop\n      pop\n        /* \"#utility.yul\":3492:4224   */\n      swap3\n      swap2\n      pop\n      pop\n      jump\t// out\n        /* \"#utility.yul\":4230:4594   */\n    tag_221:\n        /* \"#utility.yul\":4318:4321   */\n      0x00\n        /* \"#utility.yul\":4346:4385   */\n      tag_223\n        /* \"#utility.yul\":4379:4384   */\n      dup3\n        /* \"#utility.yul\":4346:4385   */\n      tag_224\n      jump\t// in\n    tag_223:\n        /* \"#utility.yul\":4401:4472   */\n      tag_225\n        /* \"#utility.yul\":4465:4471   */\n      dup2\n        /* \"#utility.yul\":4460:4463   */\n      dup6\n        /* \"#utility.yul\":4401:4472   */\n      tag_226\n      jump\t// in\n    tag_225:\n        /* \"#utility.yul\":4394:4472   */\n      swap4\n      pop\n        /* \"#utility.yul\":4481:4533   */\n      tag_227\n        /* \"#utility.yul\":4526:4532   */\n      dup2\n        /* \"#utility.yul\":4521:4524   */\n      dup6\n        /* \"#utility.yul\":4514:4518   */\n      0x20\n        /* \"#utility.yul\":4507:4512   */\n      dup7\n        /* \"#utility.yul\":4503:4519   */\n      add\n        /* \"#utility.yul\":4481:4533   */\n      tag_228\n      jump\t// in\n    tag_227:\n        /* \"#utility.yul\":4558:4587   */\n      tag_229\n        /* \"#utility.yul\":4580:4586   */\n      dup2\n        /* \"#utility.yul\":4558:4587   */\n      tag_230\n      jump\t// in\n    tag_229:\n        /* \"#utility.yul\":4553:4556   */\n      dup5\n        /* \"#utility.yul\":4549:4588   */\n      add\n        /* \"#utility.yul\":4542:4588   */\n      swap2\n      pop\n        /* \"#utility.yul\":4322:4594   */\n      pop\n        /* \"#utility.yul\":4230:4594   */\n      swap3\n      swap2\n      pop\n      pop\n      jump\t// out\n        /* \"#utility.yul\":4600:4966   */\n    tag_231:\n        /* \"#utility.yul\":4742:4745   */\n      0x00\n        /* \"#utility.yul\":4763:4830   */\n      tag_233\n        /* \"#utility.yul\":4827:4829   */\n      0x16\n        /* \"#utility.yul\":4822:4825   */\n      dup4\n        /* \"#utility.yul\":4763:4830   */\n      tag_226\n      jump\t// in\n    tag_233:\n        /* \"#utility.yul\":4756:4830   */\n      swap2\n      pop\n        /* \"#utility.yul\":4839:4932   */\n      tag_234\n        /* \"#utility.yul\":4928:4931   */\n      dup3\n        /* \"#utility.yul\":4839:4932   */\n      tag_235\n      jump\t// in\n    tag_234:\n        /* \"#utility.yul\":4957:4959   */\n      0x20\n        /* \"#utility.yul\":4952:4955   */\n      dup3\n        /* \"#utility.yul\":4948:4960   */\n      add\n        /* \"#utility.yul\":4941:4960   */\n      swap1\n      pop\n        /* \"#utility.yul\":4600:4966   */\n      swap2\n      swap1\n      pop\n      jump\t// out\n        /* \"#utility.yul\":4972:5338   */\n    tag_236:\n        /* \"#utility.yul\":5114:5117   */\n      0x00\n        /* \"#utility.yul\":5135:5202   */\n      tag_238\n        /* \"#utility.yul\":5199:5201   */\n      0x24\n        /* \"#utility.yul\":5194:5197   */\n      dup4\n        /* \"#utility.yul\":5135:5202   */\n      tag_226\n      jump\t// in\n    tag_238:\n        /* \"#utility.yul\":5128:5202   */\n      swap2\n      pop\n        /* \"#utility.yul\":5211:5304   */\n      tag_239\n        /* \"#utility.yul\":5300:5303   */\n      dup3\n        /* \"#utility.yul\":5211:5304   */\n      tag_240\n      jump\t// in\n    tag_239:\n        /* \"#utility.yul\":5329:5331   */\n      0x40\n        /* \"#utility.yul\":5324:5327   */\n      dup3\n        /* \"#utility.yul\":5320:5332   */\n      add\n        /* \"#utility.yul\":5313:5332   */\n      swap1\n      pop\n        /* \"#utility.yul\":4972:5338   */\n      swap2\n      swap1\n      pop\n      jump\t// out\n        /* \"#utility.yul\":5344:5710   */\n    tag_241:\n        /* \"#utility.yul\":5486:5489   */\n      0x00\n        /* \"#utility.yul\":5507:5574   */\n      tag_243\n        /* \"#utility.yul\":5571:5573   */\n      0x16\n        /* \"#utility.yul\":5566:5569   */\n      dup4\n        /* \"#utility.yul\":5507:5574   */\n      tag_226\n      jump\t// in\n    tag_243:\n        /* \"#utility.yul\":5500:5574   */\n      swap2\n      pop\n        /* \"#utility.yul\":5583:5676   */\n      tag_244\n        /* \"#utility.yul\":5672:5675   */\n      dup3\n        /* \"#utility.yul\":5583:5676   */\n      tag_245\n      jump\t// in\n    tag_244:\n        /* \"#utility.yul\":5701:5703   */\n      0x20\n        /* \"#utility.yul\":5696:5699   */\n      dup3\n        /* \"#utility.yul\":5692:5704   */\n      add\n        /* \"#utility.yul\":5685:5704   */\n      swap1\n      pop\n        /* \"#utility.yul\":5344:5710   */\n      swap2\n      swap1\n      pop\n      jump\t// out\n        /* \"#utility.yul\":5716:5824   */\n    tag_186:\n        /* \"#utility.yul\":5793:5817   */\n      tag_247\n        /* \"#utility.yul\":5811:5816   */\n      dup2\n        /* \"#utility.yul\":5793:5817   */\n      tag_248\n      jump\t// in\n    tag_247:\n        /* \"#utility.yul\":5788:5791   */\n      dup3\n        /* \"#utility.yul\":5781:5818   */\n      mstore\n        /* \"#utility.yul\":5716:5824   */\n      pop\n      pop\n      jump\t// out\n        /* \"#utility.yul\":5830:5948   */\n    tag_249:\n        /* \"#utility.yul\":5917:5941   */\n      tag_251\n        /* \"#utility.yul\":5935:5940   */\n      dup2\n        /* \"#utility.yul\":5917:5941   */\n      tag_248\n      jump\t// in\n    tag_251:\n        /* \"#utility.yul\":5912:5915   */\n      dup3\n        /* \"#utility.yul\":5905:5942   */\n      mstore\n        /* \"#utility.yul\":5830:5948   */\n      pop\n      pop\n      jump\t// out\n        /* \"#utility.yul\":5954:6396   */\n    tag_60:\n        /* \"#utility.yul\":6103:6107   */\n      0x00\n        /* \"#utility.yul\":6141:6143   */\n      0x60\n        /* \"#utility.yul\":6130:6139   */\n      dup3\n        /* \"#utility.yul\":6126:6144   */\n      add\n        /* \"#utility.yul\":6118:6144   */\n      swap1\n      pop\n        /* \"#utility.yul\":6154:6225   */\n      tag_253\n        /* \"#utility.yul\":6222:6223   */\n      0x00\n        /* \"#utility.yul\":6211:6220   */\n      dup4\n        /* \"#utility.yul\":6207:6224   */\n      add\n        /* \"#utility.yul\":6198:6204   */\n      dup7\n        /* \"#utility.yul\":6154:6225   */\n      tag_190\n      jump\t// in\n    tag_253:\n        /* \"#utility.yul\":6235:6307   */\n      tag_254\n        /* \"#utility.yul\":6303:6305   */\n      0x20\n        /* \"#utility.yul\":6292:6301   */\n      dup4\n        /* \"#utility.yul\":6288:6306   */\n      add\n        /* \"#utility.yul\":6279:6285   */\n      dup6\n        /* \"#utility.yul\":6235:6307   */\n      tag_190\n      jump\t// in\n    tag_254:\n        /* \"#utility.yul\":6317:6389   */\n      tag_255\n        /* \"#utility.yul\":6385:6387   */\n      0x40\n        /* \"#utility.yul\":6374:6383   */\n      dup4\n        /* \"#utility.yul\":6370:6388   */\n      add\n        /* \"#utility.yul\":6361:6367   */\n      dup5\n        /* \"#utility.yul\":6317:6389   */\n      tag_249\n      jump\t// in\n    tag_255:\n        /* \"#utility.yul\":5954:6396   */\n      swap5\n      swap4\n      pop\n      pop\n      pop\n      pop\n      jump\t// out\n        /* \"#utility.yul\":6402:7036   */\n    tag_29:\n        /* \"#utility.yul\":6623:6627   */\n      0x00\n        /* \"#utility.yul\":6661:6663   */\n      0x40\n        /* \"#utility.yul\":6650:6659   */\n      dup3\n        /* \"#utility.yul\":6646:6664   */\n      add\n        /* \"#utility.yul\":6638:6664   */\n      swap1\n      pop\n        /* \"#utility.yul\":6710:6719   */\n      dup2\n        /* \"#utility.yul\":6704:6708   */\n      dup2\n        /* \"#utility.yul\":6700:6720   */\n      sub\n        /* \"#utility.yul\":6696:6697   */\n      0x00\n        /* \"#utility.yul\":6685:6694   */\n      dup4\n        /* \"#utility.yul\":6681:6698   */\n      add\n        /* \"#utility.yul\":6674:6721   */\n      mstore\n        /* \"#utility.yul\":6738:6846   */\n      tag_257\n        /* \"#utility.yul\":6841:6845   */\n      dup2\n        /* \"#utility.yul\":6832:6838   */\n      dup6\n        /* \"#utility.yul\":6738:6846   */\n      tag_193\n      jump\t// in\n    tag_257:\n        /* \"#utility.yul\":6730:6846   */\n      swap1\n      pop\n        /* \"#utility.yul\":6893:6902   */\n      dup2\n        /* \"#utility.yul\":6887:6891   */\n      dup2\n        /* \"#utility.yul\":6883:6903   */\n      sub\n        /* \"#utility.yul\":6878:6880   */\n      0x20\n        /* \"#utility.yul\":6867:6876   */\n      dup4\n        /* \"#utility.yul\":6863:6881   */\n      add\n        /* \"#utility.yul\":6856:6904   */\n      mstore\n        /* \"#utility.yul\":6921:7029   */\n      tag_258\n        /* \"#utility.yul\":7024:7028   */\n      dup2\n        /* \"#utility.yul\":7015:7021   */\n      dup5\n        /* \"#utility.yul\":6921:7029   */\n      tag_207\n      jump\t// in\n    tag_258:\n        /* \"#utility.yul\":6913:7029   */\n      swap1\n      pop\n        /* \"#utility.yul\":6402:7036   */\n      swap4\n      swap3\n      pop\n      pop\n      pop\n      jump\t// out\n        /* \"#utility.yul\":7042:7355   */\n    tag_40:\n        /* \"#utility.yul\":7155:7159   */\n      0x00\n        /* \"#utility.yul\":7193:7195   */\n      0x20\n        /* \"#utility.yul\":7182:7191   */\n      dup3\n        /* \"#utility.yul\":7178:7196   */\n      add\n        /* \"#utility.yul\":7170:7196   */\n      swap1\n      pop\n        /* \"#utility.yul\":7242:7251   */\n      dup2\n        /* \"#utility.yul\":7236:7240   */\n      dup2\n        /* \"#utility.yul\":7232:7252   */\n      sub\n        /* \"#utility.yul\":7228:7229   */\n      0x00\n        /* \"#utility.yul\":7217:7226   */\n      dup4\n        /* \"#utility.yul\":7213:7230   */\n      add\n        /* \"#utility.yul\":7206:7253   */\n      mstore\n        /* \"#utility.yul\":7270:7348   */\n      tag_260\n        /* \"#utility.yul\":7343:7347   */\n      dup2\n        /* \"#utility.yul\":7334:7340   */\n      dup5\n        /* \"#utility.yul\":7270:7348   */\n      tag_221\n      jump\t// in\n    tag_260:\n        /* \"#utility.yul\":7262:7348   */\n      swap1\n      pop\n        /* \"#utility.yul\":7042:7355   */\n      swap3\n      swap2\n      pop\n      pop\n      jump\t// out\n        /* \"#utility.yul\":7361:7780   */\n    tag_111:\n        /* \"#utility.yul\":7527:7531   */\n      0x00\n        /* \"#utility.yul\":7565:7567   */\n      0x20\n        /* \"#utility.yul\":7554:7563   */\n      dup3\n        /* \"#utility.yul\":7550:7568   */\n      add\n        /* \"#utility.yul\":7542:7568   */\n      swap1\n      pop\n        /* \"#utility.yul\":7614:7623   */\n      dup2\n        /* \"#utility.yul\":7608:7612   */\n      dup2\n        /* \"#utility.yul\":7604:7624   */\n      sub\n        /* \"#utility.yul\":7600:7601   */\n      0x00\n        /* \"#utility.yul\":7589:7598   */\n      dup4\n        /* \"#utility.yul\":7585:7602   */\n      add\n        /* \"#utility.yul\":7578:7625   */\n      mstore\n        /* \"#utility.yul\":7642:7773   */\n      tag_262\n        /* \"#utility.yul\":7768:7772   */\n      dup2\n        /* \"#utility.yul\":7642:7773   */\n      tag_231\n      jump\t// in\n    tag_262:\n        /* \"#utility.yul\":7634:7773   */\n      swap1\n      pop\n        /* \"#utility.yul\":7361:7780   */\n      swap2\n      swap1\n      pop\n      jump\t// out\n        /* \"#utility.yul\":7786:8205   */\n    tag_123:\n        /* \"#utility.yul\":7952:7956   */\n      0x00\n        /* \"#utility.yul\":7990:7992   */\n      0x20\n        /* \"#utility.yul\":7979:7988   */\n      dup3\n        /* \"#utility.yul\":7975:7993   */\n      add\n        /* \"#utility.yul\":7967:7993   */\n      swap1\n      pop\n        /* \"#utility.yul\":8039:8048   */\n      dup2\n        /* \"#utility.yul\":8033:8037   */\n      dup2\n        /* \"#utility.yul\":8029:8049   */\n      sub\n        /* \"#utility.yul\":8025:8026   */\n      0x00\n        /* \"#utility.yul\":8014:8023   */\n      dup4\n        /* \"#utility.yul\":8010:8027   */\n      add\n        /* \"#utility.yul\":8003:8050   */\n      mstore\n        /* \"#utility.yul\":8067:8198   */\n      tag_264\n        /* \"#utility.yul\":8193:8197   */\n      dup2\n        /* \"#utility.yul\":8067:8198   */\n      tag_236\n      jump\t// in\n    tag_264:\n        /* \"#utility.yul\":8059:8198   */\n      swap1\n      pop\n        /* \"#utility.yul\":7786:8205   */\n      swap2\n      swap1\n      pop\n      jump\t// out\n        /* \"#utility.yul\":8211:8630   */\n    tag_79:\n        /* \"#utility.yul\":8377:8381   */\n      0x00\n        /* \"#utility.yul\":8415:8417   */\n      0x20\n        /* \"#utility.yul\":8404:8413   */\n      dup3\n        /* \"#utility.yul\":8400:8418   */\n      add\n        /* \"#utility.yul\":8392:8418   */\n      swap1\n      pop\n        /* \"#utility.yul\":8464:8473   */\n      dup2\n        /* \"#utility.yul\":8458:8462   */\n      dup2\n        /* \"#utility.yul\":8454:8474   */\n      sub\n        /* \"#utility.yul\":8450:8451   */\n      0x00\n        /* \"#utility.yul\":8439:8448   */\n      dup4\n        /* \"#utility.yul\":8435:8452   */\n      add\n        /* \"#utility.yul\":8428:8475   */\n      mstore\n        /* \"#utility.yul\":8492:8623   */\n      tag_266\n        /* \"#utility.yul\":8618:8622   */\n      dup2\n        /* \"#utility.yul\":8492:8623   */\n      tag_241\n      jump\t// in\n    tag_266:\n        /* \"#utility.yul\":8484:8623   */\n      swap1\n      pop\n        /* \"#utility.yul\":8211:8630   */\n      swap2\n      swap1\n      pop\n      jump\t// out\n        /* \"#utility.yul\":8636:8858   */\n    tag_34:\n        /* \"#utility.yul\":8729:8733   */\n      0x00\n        /* \"#utility.yul\":8767:8769   */\n      0x20\n        /* \"#utility.yul\":8756:8765   */\n      dup3\n        /* \"#utility.yul\":8752:8770   */\n      add\n        /* \"#utility.yul\":8744:8770   */\n      swap1\n      pop\n        /* \"#utility.yul\":8780:8851   */\n      tag_268\n        /* \"#utility.yul\":8848:8849   */\n      0x00\n        /* \"#utility.yul\":8837:8846   */\n      dup4\n        /* \"#utility.yul\":8833:8850   */\n      add\n        /* \"#utility.yul\":8824:8830   */\n      dup5\n        /* \"#utility.yul\":8780:8851   */\n      tag_249\n      jump\t// in\n    tag_268:\n        /* \"#utility.yul\":8636:8858   */\n      swap3\n      swap2\n      pop\n      pop\n      jump\t// out\n        /* \"#utility.yul\":8945:9077   */\n    tag_200:\n        /* \"#utility.yul\":9012:9016   */\n      0x00\n        /* \"#utility.yul\":9035:9038   */\n      dup2\n        /* \"#utility.yul\":9027:9038   */\n      swap1\n      pop\n        /* \"#utility.yul\":9065:9069   */\n      0x20\n        /* \"#utility.yul\":9060:9063   */\n      dup3\n        /* \"#utility.yul\":9056:9070   */\n      add\n        /* \"#utility.yul\":9048:9070   */\n      swap1\n      pop\n        /* \"#utility.yul\":8945:9077   */\n      swap2\n      swap1\n      pop\n      jump\t// out\n        /* \"#utility.yul\":9083:9215   */\n    tag_214:\n        /* \"#utility.yul\":9150:9154   */\n      0x00\n        /* \"#utility.yul\":9173:9176   */\n      dup2\n        /* \"#utility.yul\":9165:9176   */\n      swap1\n      pop\n        /* \"#utility.yul\":9203:9207   */\n      0x20\n        /* \"#utility.yul\":9198:9201   */\n      dup3\n        /* \"#utility.yul\":9194:9208   */\n      add\n        /* \"#utility.yul\":9186:9208   */\n      swap1\n      pop\n        /* \"#utility.yul\":9083:9215   */\n      swap2\n      swap1\n      pop\n      jump\t// out\n        /* \"#utility.yul\":9221:9335   */\n    tag_196:\n        /* \"#utility.yul\":9288:9294   */\n      0x00\n        /* \"#utility.yul\":9322:9327   */\n      dup2\n        /* \"#utility.yul\":9316:9328   */\n      mload\n        /* \"#utility.yul\":9306:9328   */\n      swap1\n      pop\n        /* \"#utility.yul\":9221:9335   */\n      swap2\n      swap1\n      pop\n      jump\t// out\n        /* \"#utility.yul\":9341:9455   */\n    tag_210:\n        /* \"#utility.yul\":9408:9414   */\n      0x00\n        /* \"#utility.yul\":9442:9447   */\n      dup2\n        /* \"#utility.yul\":9436:9448   */\n      mload\n        /* \"#utility.yul\":9426:9448   */\n      swap1\n      pop\n        /* \"#utility.yul\":9341:9455   */\n      swap2\n      swap1\n      pop\n      jump\t// out\n        /* \"#utility.yul\":9461:9560   */\n    tag_224:\n        /* \"#utility.yul\":9513:9519   */\n      0x00\n        /* \"#utility.yul\":9547:9552   */\n      dup2\n        /* \"#utility.yul\":9541:9553   */\n      mload\n        /* \"#utility.yul\":9531:9553   */\n      swap1\n      pop\n        /* \"#utility.yul\":9461:9560   */\n      swap2\n      swap1\n      pop\n      jump\t// out\n        /* \"#utility.yul\":9566:9679   */\n    tag_206:\n        /* \"#utility.yul\":9636:9640   */\n      0x00\n        /* \"#utility.yul\":9668:9672   */\n      0x20\n        /* \"#utility.yul\":9663:9666   */\n      dup3\n        /* \"#utility.yul\":9659:9673   */\n      add\n        /* \"#utility.yul\":9651:9673   */\n      swap1\n      pop\n        /* \"#utility.yul\":9566:9679   */\n      swap2\n      swap1\n      pop\n      jump\t// out\n        /* \"#utility.yul\":9685:9798   */\n    tag_220:\n        /* \"#utility.yul\":9755:9759   */\n      0x00\n        /* \"#utility.yul\":9787:9791   */\n      0x20\n        /* \"#utility.yul\":9782:9785   */\n      dup3\n        /* \"#utility.yul\":9778:9792   */\n      add\n        /* \"#utility.yul\":9770:9792   */\n      swap1\n      pop\n        /* \"#utility.yul\":9685:9798   */\n      swap2\n      swap1\n      pop\n      jump\t// out\n        /* \"#utility.yul\":9804:9988   */\n    tag_198:\n        /* \"#utility.yul\":9903:9914   */\n      0x00\n        /* \"#utility.yul\":9937:9943   */\n      dup3\n        /* \"#utility.yul\":9932:9935   */\n      dup3\n        /* \"#utility.yul\":9925:9944   */\n      mstore\n        /* \"#utility.yul\":9977:9981   */\n      0x20\n        /* \"#utility.yul\":9972:9975   */\n      dup3\n        /* \"#utility.yul\":9968:9982   */\n      add\n        /* \"#utility.yul\":9953:9982   */\n      swap1\n      pop\n        /* \"#utility.yul\":9804:9988   */\n      swap3\n      swap2\n      pop\n      pop\n      jump\t// out\n        /* \"#utility.yul\":9994:10178   */\n    tag_212:\n        /* \"#utility.yul\":10093:10104   */\n      0x00\n        /* \"#utility.yul\":10127:10133   */\n      dup3\n        /* \"#utility.yul\":10122:10125   */\n      dup3\n        /* \"#utility.yul\":10115:10134   */\n      mstore\n        /* \"#utility.yul\":10167:10171   */\n      0x20\n        /* \"#utility.yul\":10162:10165   */\n      dup3\n        /* \"#utility.yul\":10158:10172   */\n      add\n        /* \"#utility.yul\":10143:10172   */\n      swap1\n      pop\n        /* \"#utility.yul\":9994:10178   */\n      swap3\n      swap2\n      pop\n      pop\n      jump\t// out\n        /* \"#utility.yul\":10184:10353   */\n    tag_226:\n        /* \"#utility.yul\":10268:10279   */\n      0x00\n        /* \"#utility.yul\":10302:10308   */\n      dup3\n        /* \"#utility.yul\":10297:10300   */\n      dup3\n        /* \"#utility.yul\":10290:10309   */\n      mstore\n        /* \"#utility.yul\":10342:10346   */\n      0x20\n        /* \"#utility.yul\":10337:10340   */\n      dup3\n        /* \"#utility.yul\":10333:10347   */\n      add\n        /* \"#utility.yul\":10318:10347   */\n      swap1\n      pop\n        /* \"#utility.yul\":10184:10353   */\n      swap3\n      swap2\n      pop\n      pop\n      jump\t// out\n        /* \"#utility.yul\":10359:10664   */\n    tag_120:\n        /* \"#utility.yul\":10399:10402   */\n      0x00\n        /* \"#utility.yul\":10418:10438   */\n      tag_282\n        /* \"#utility.yul\":10436:10437   */\n      dup3\n        /* \"#utility.yul\":10418:10438   */\n      tag_248\n      jump\t// in\n    tag_282:\n        /* \"#utility.yul\":10413:10438   */\n      swap2\n      pop\n        /* \"#utility.yul\":10452:10472   */\n      tag_283\n        /* \"#utility.yul\":10470:10471   */\n      dup4\n        /* \"#utility.yul\":10452:10472   */\n      tag_248\n      jump\t// in\n    tag_283:\n        /* \"#utility.yul\":10447:10472   */\n      swap3\n      pop\n        /* \"#utility.yul\":10606:10607   */\n      dup3\n        /* \"#utility.yul\":10538:10604   */\n      0xffffffffffffffffffffffffffffffffffffffffffffffffffffffffffffffff\n        /* \"#utility.yul\":10534:10608   */\n      sub\n        /* \"#utility.yul\":10531:10532   */\n      dup3\n        /* \"#utility.yul\":10528:10609   */\n      gt\n        /* \"#utility.yul\":10525:10632   */\n      iszero\n      tag_284\n      jumpi\n        /* \"#utility.yul\":10612:10630   */\n      tag_285\n      tag_286\n      jump\t// in\n    tag_285:\n        /* \"#utility.yul\":10525:10632   */\n    tag_284:\n        /* \"#utility.yul\":10656:10657   */\n      dup3\n        /* \"#utility.yul\":10653:10654   */\n      dup3\n        /* \"#utility.yul\":10649:10658   */\n      add\n        /* \"#utility.yul\":10642:10658   */\n      swap1\n      pop\n        /* \"#utility.yul\":10359:10664   */\n      swap3\n      swap2\n      pop\n      pop\n      jump\t// out\n        /* \"#utility.yul\":10670:11018   */\n    tag_82:\n        /* \"#utility.yul\":10710:10717   */\n      0x00\n        /* \"#utility.yul\":10733:10753   */\n      tag_288\n        /* \"#utility.yul\":10751:10752   */\n      dup3\n        /* \"#utility.yul\":10733:10753   */\n      tag_248\n      jump\t// in\n    tag_288:\n        /* \"#utility.yul\":10728:10753   */\n      swap2\n      pop\n        /* \"#utility.yul\":10767:10787   */\n      tag_289\n        /* \"#utility.yul\":10785:10786   */\n      dup4\n        /* \"#utility.yul\":10767:10787   */\n      tag_248\n      jump\t// in\n    tag_289:\n        /* \"#utility.yul\":10762:10787   */\n      swap3\n      pop\n        /* \"#utility.yul\":10955:10956   */\n      dup2\n        /* \"#utility.yul\":10887:10953   */\n      0xffffffffffffffffffffffffffffffffffffffffffffffffffffffffffffffff\n        /* \"#utility.yul\":10883:10957   */\n      div\n        /* \"#utility.yul\":10880:10881   */\n      dup4\n        /* \"#utility.yul\":10877:10958   */\n      gt\n        /* \"#utility.yul\":10872:10873   */\n      dup3\n        /* \"#utility.yul\":10865:10874   */\n      iszero\n        /* \"#utility.yul\":10858:10875   */\n      iszero\n        /* \"#utility.yul\":10854:10959   */\n      and\n        /* \"#utility.yul\":10851:10982   */\n      iszero\n      tag_290\n      jumpi\n        /* \"#utility.yul\":10962:10980   */\n      tag_291\n      tag_286\n      jump\t// in\n    tag_291:\n        /* \"#utility.yul\":10851:10982   */\n    tag_290:\n        /* \"#utility.yul\":11010:11011   */\n      dup3\n        /* \"#utility.yul\":11007:11008   */\n      dup3\n        /* \"#utility.yul\":11003:11012   */\n      mul\n        /* \"#utility.yul\":10992:11012   */\n      swap1\n      pop\n        /* \"#utility.yul\":10670:11018   */\n      swap3\n      swap2\n      pop\n      pop\n      jump\t// out\n        /* \"#utility.yul\":11024:11120   */\n    tag_189:\n        /* \"#utility.yul\":11061:11068   */\n      0x00\n        /* \"#utility.yul\":11090:11114   */\n      tag_293\n        /* \"#utility.yul\":11108:11113   */\n      dup3\n        /* \"#utility.yul\":11090:11114   */\n      tag_294\n      jump\t// in\n    tag_293:\n        /* \"#utility.yul\":11079:11114   */\n      swap1\n      pop\n        /* \"#utility.yul\":11024:11120   */\n      swap2\n      swap1\n      pop\n      jump\t// out\n        /* \"#utility.yul\":11126:11216   */\n    tag_295:\n        /* \"#utility.yul\":11160:11167   */\n      0x00\n        /* \"#utility.yul\":11203:11208   */\n      dup2\n        /* \"#utility.yul\":11196:11209   */\n      iszero\n        /* \"#utility.yul\":11189:11210   */\n      iszero\n        /* \"#utility.yul\":11178:11210   */\n      swap1\n      pop\n        /* \"#utility.yul\":11126:11216   */\n      swap2\n      swap1\n      pop\n      jump\t// out\n        /* \"#utility.yul\":11222:11298   */\n    tag_297:\n        /* \"#utility.yul\":11258:11265   */\n      0x00\n        /* \"#utility.yul\":11287:11292   */\n      dup2\n        /* \"#utility.yul\":11276:11292   */\n      swap1\n      pop\n        /* \"#utility.yul\":11222:11298   */\n      swap2\n      swap1\n      pop\n      jump\t// out\n        /* \"#utility.yul\":11304:11430   */\n    tag_294:\n        /* \"#utility.yul\":11341:11348   */\n      0x00\n        /* \"#utility.yul\":11381:11423   */\n      0xffffffffffffffffffffffffffffffffffffffff\n        /* \"#utility.yul\":11374:11379   */\n      dup3\n        /* \"#utility.yul\":11370:11424   */\n      and\n        /* \"#utility.yul\":11359:11424   */\n      swap1\n      pop\n        /* \"#utility.yul\":11304:11430   */\n      swap2\n      swap1\n      pop\n      jump\t// out\n        /* \"#utility.yul\":11436:11513   */\n    tag_248:\n        /* \"#utility.yul\":11473:11480   */\n      0x00\n        /* \"#utility.yul\":11502:11507   */\n      dup2\n        /* \"#utility.yul\":11491:11507   */\n      swap1\n      pop\n        /* \"#utility.yul\":11436:11513   */\n      swap2\n      swap1\n      pop\n      jump\t// out\n        /* \"#utility.yul\":11519:11826   */\n    tag_228:\n        /* \"#utility.yul\":11587:11588   */\n      0x00\n        /* \"#utility.yul\":11597:11710   */\n    tag_302:\n        /* \"#utility.yul\":11611:11617   */\n      dup4\n        /* \"#utility.yul\":11608:11609   */\n      dup2\n        /* \"#utility.yul\":11605:11618   */\n      lt\n        /* \"#utility.yul\":11597:11710   */\n      iszero\n      tag_304\n      jumpi\n        /* \"#utility.yul\":11696:11697   */\n      dup1\n        /* \"#utility.yul\":11691:11694   */\n      dup3\n        /* \"#utility.yul\":11687:11698   */\n      add\n        /* \"#utility.yul\":11681:11699   */\n      mload\n        /* \"#utility.yul\":11677:11678   */\n      dup2\n        /* \"#utility.yul\":11672:11675   */\n      dup5\n        /* \"#utility.yul\":11668:11679   */\n      add\n        /* \"#utility.yul\":11661:11700   */\n      mstore\n        /* \"#utility.yul\":11633:11635   */\n      0x20\n        /* \"#utility.yul\":11630:11631   */\n      dup2\n        /* \"#utility.yul\":11626:11636   */\n      add\n        /* \"#utility.yul\":11621:11636   */\n      swap1\n      pop\n        /* \"#utility.yul\":11597:11710   */\n      jump(tag_302)\n    tag_304:\n        /* \"#utility.yul\":11728:11734   */\n      dup4\n        /* \"#utility.yul\":11725:11726   */\n      dup2\n        /* \"#utility.yul\":11722:11735   */\n      gt\n        /* \"#utility.yul\":11719:11820   */\n      iszero\n      tag_305\n      jumpi\n        /* \"#utility.yul\":11808:11809   */\n      0x00\n        /* \"#utility.yul\":11799:11805   */\n      dup5\n        /* \"#utility.yul\":11794:11797   */\n      dup5\n        /* \"#utility.yul\":11790:11806   */\n      add\n        /* \"#utility.yul\":11783:11810   */\n      mstore\n        /* \"#utility.yul\":11719:11820   */\n    tag_305:\n        /* \"#utility.yul\":11568:11826   */\n      pop\n        /* \"#utility.yul\":11519:11826   */\n      pop\n      pop\n      pop\n      jump\t// out\n        /* \"#utility.yul\":11832:12063   */\n    tag_129:\n        /* \"#utility.yul\":11870:11873   */\n      0x00\n        /* \"#utility.yul\":11893:11916   */\n      tag_307\n        /* \"#utility.yul\":11910:11915   */\n      dup3\n        /* \"#utility.yul\":11893:11916   */\n      tag_297\n      jump\t// in\n    tag_307:\n        /* \"#utility.yul\":11884:11916   */\n      swap2\n      pop\n        /* \"#utility.yul\":11938:12004   */\n      0x7fffffffffffffffffffffffffffffffffffffffffffffffffffffffffffffff\n        /* \"#utility.yul\":11931:11936   */\n      dup3\n        /* \"#utility.yul\":11928:12005   */\n      eq\n        /* \"#utility.yul\":11925:12028   */\n      iszero\n      tag_308\n      jumpi\n        /* \"#utility.yul\":12008:12026   */\n      tag_309\n      tag_286\n      jump\t// in\n    tag_309:\n        /* \"#utility.yul\":11925:12028   */\n    tag_308:\n        /* \"#utility.yul\":12055:12056   */\n      0x01\n        /* \"#utility.yul\":12048:12053   */\n      dup3\n        /* \"#utility.yul\":12044:12057   */\n      add\n        /* \"#utility.yul\":12037:12057   */\n      swap1\n      pop\n        /* \"#utility.yul\":11832:12063   */\n      swap2\n      swap1\n      pop\n      jump\t// out\n        /* \"#utility.yul\":12069:12302   */\n    tag_76:\n        /* \"#utility.yul\":12108:12111   */\n      0x00\n        /* \"#utility.yul\":12131:12155   */\n      tag_311\n        /* \"#utility.yul\":12149:12154   */\n      dup3\n        /* \"#utility.yul\":12131:12155   */\n      tag_248\n      jump\t// in\n    tag_311:\n        /* \"#utility.yul\":12122:12155   */\n      swap2\n      pop\n        /* \"#utility.yul\":12177:12243   */\n      0xffffffffffffffffffffffffffffffffffffffffffffffffffffffffffffffff\n        /* \"#utility.yul\":12170:12175   */\n      dup3\n        /* \"#utility.yul\":12167:12244   */\n      eq\n        /* \"#utility.yul\":12164:12267   */\n      iszero\n      tag_312\n      jumpi\n        /* \"#utility.yul\":12247:12265   */\n      tag_313\n      tag_286\n      jump\t// in\n    tag_313:\n        /* \"#utility.yul\":12164:12267   */\n    tag_312:\n        /* \"#utility.yul\":12294:12295   */\n      0x01\n        /* \"#utility.yul\":12287:12292   */\n      dup3\n        /* \"#utility.yul\":12283:12296   */\n      add\n        /* \"#utility.yul\":12276:12296   */\n      swap1\n      pop\n        /* \"#utility.yul\":12069:12302   */\n      swap2\n      swap1\n      pop\n      jump\t// out\n        /* \"#utility.yul\":12308:12488   */\n    tag_286:\n        /* \"#utility.yul\":12356:12433   */\n      0x4e487b7100000000000000000000000000000000000000000000000000000000\n        /* \"#utility.yul\":12353:12354   */\n      0x00\n        /* \"#utility.yul\":12346:12434   */\n      mstore\n        /* \"#utility.yul\":12453:12457   */\n      0x11\n        /* \"#utility.yul\":12450:12451   */\n      0x04\n        /* \"#utility.yul\":12443:12458   */\n      mstore\n        /* \"#utility.yul\":12477:12481   */\n      0x24\n        /* \"#utility.yul\":12474:12475   */\n      0x00\n        /* \"#utility.yul\":12467:12482   */\n      revert\n        /* \"#utility.yul\":12494:12674   */\n    tag_72:\n        /* \"#utility.yul\":12542:12619   */\n      0x4e487b7100000000000000000000000000000000000000000000000000000000\n        /* \"#utility.yul\":12539:12540   */\n      0x00\n        /* \"#utility.yul\":12532:12620   */\n      mstore\n        /* \"#utility.yul\":12639:12643   */\n      0x32\n        /* \"#utility.yul\":12636:12637   */\n      0x04\n        /* \"#utility.yul\":12629:12644   */\n      mstore\n        /* \"#utility.yul\":12663:12667   */\n      0x24\n        /* \"#utility.yul\":12660:12661   */\n      0x00\n        /* \"#utility.yul\":12653:12668   */\n      revert\n        /* \"#utility.yul\":12680:12860   */\n    tag_88:\n        /* \"#utility.yul\":12728:12805   */\n      0x4e487b7100000000000000000000000000000000000000000000000000000000\n        /* \"#utility.yul\":12725:12726   */\n      0x00\n        /* \"#utility.yul\":12718:12806   */\n      mstore\n        /* \"#utility.yul\":12825:12829   */\n      0x41\n        /* \"#utility.yul\":12822:12823   */\n      0x04\n        /* \"#utility.yul\":12815:12830   */\n      mstore\n        /* \"#utility.yul\":12849:12853   */\n      0x24\n        /* \"#utility.yul\":12846:12847   */\n      0x00\n        /* \"#utility.yul\":12839:12854   */\n      revert\n        /* \"#utility.yul\":12989:13106   */\n    tag_163:\n        /* \"#utility.yul\":13098:13099   */\n      0x00\n        /* \"#utility.yul\":13095:13096   */\n      dup1\n        /* \"#utility.yul\":13088:13100   */\n      revert\n        /* \"#utility.yul\":13112:13214   */\n    tag_230:\n        /* \"#utility.yul\":13153:13159   */\n      0x00\n        /* \"#utility.yul\":13204:13206   */\n      0x1f\n        /* \"#utility.yul\":13200:13207   */\n      not\n        /* \"#utility.yul\":13195:13197   */\n      0x1f\n        /* \"#utility.yul\":13188:13193   */\n      dup4\n        /* \"#utility.yul\":13184:13198   */\n      add\n        /* \"#utility.yul\":13180:13208   */\n      and\n        /* \"#utility.yul\":13170:13208   */\n      swap1\n      pop\n        /* \"#utility.yul\":13112:13214   */\n      swap2\n      swap1\n      pop\n      jump\t// out\n        /* \"#utility.yul\":13220:13392   */\n    tag_235:\n        /* \"#utility.yul\":13360:13384   */\n      0x4f6e6c79206d616e616765722063616e2063616c6c2100000000000000000000\n        /* \"#utility.yul\":13356:13357   */\n      0x00\n        /* \"#utility.yul\":13348:13354   */\n      dup3\n        /* \"#utility.yul\":13344:13358   */\n      add\n        /* \"#utility.yul\":13337:13385   */\n      mstore\n        /* \"#utility.yul\":13220:13392   */\n      pop\n      jump\t// out\n        /* \"#utility.yul\":13398:13621   */\n    tag_240:\n        /* \"#utility.yul\":13538:13572   */\n      0x49742773206a757374206265656e206c657373207468616e203130207365636f\n        /* \"#utility.yul\":13534:13535   */\n      0x00\n        /* \"#utility.yul\":13526:13532   */\n      dup3\n        /* \"#utility.yul\":13522:13536   */\n      add\n        /* \"#utility.yul\":13515:13573   */\n      mstore\n        /* \"#utility.yul\":13607:13613   */\n      0x6e64732100000000000000000000000000000000000000000000000000000000\n        /* \"#utility.yul\":13602:13604   */\n      0x20\n        /* \"#utility.yul\":13594:13600   */\n      dup3\n        /* \"#utility.yul\":13590:13605   */\n      add\n        /* \"#utility.yul\":13583:13614   */\n      mstore\n        /* \"#utility.yul\":13398:13621   */\n      pop\n      jump\t// out\n        /* \"#utility.yul\":13627:13799   */\n    tag_245:\n        /* \"#utility.yul\":13767:13791   */\n      0x4f6e6c7920636c69656e74732063616e2063616c6c2100000000000000000000\n        /* \"#utility.yul\":13763:13764   */\n      0x00\n        /* \"#utility.yul\":13755:13761   */\n      dup3\n        /* \"#utility.yul\":13751:13765   */\n      add\n        /* \"#utility.yul\":13744:13792   */\n      mstore\n        /* \"#utility.yul\":13627:13799   */\n      pop\n      jump\t// out\n        /* \"#utility.yul\":13805:13927   */\n    tag_151:\n        /* \"#utility.yul\":13878:13902   */\n      tag_325\n        /* \"#utility.yul\":13896:13901   */\n      dup2\n        /* \"#utility.yul\":13878:13902   */\n      tag_189\n      jump\t// in\n    tag_325:\n        /* \"#utility.yul\":13871:13876   */\n      dup2\n        /* \"#utility.yul\":13868:13903   */\n      eq\n        /* \"#utility.yul\":13858:13921   */\n      tag_326\n      jumpi\n        /* \"#utility.yul\":13917:13918   */\n      0x00\n        /* \"#utility.yul\":13914:13915   */\n      dup1\n        /* \"#utility.yul\":13907:13919   */\n      revert\n        /* \"#utility.yul\":13858:13921   */\n    tag_326:\n        /* \"#utility.yul\":13805:13927   */\n      pop\n      jump\t// out\n        /* \"#utility.yul\":13933:14049   */\n    tag_155:\n        /* \"#utility.yul\":14003:14024   */\n      tag_328\n        /* \"#utility.yul\":14018:14023   */\n      dup2\n        /* \"#utility.yul\":14003:14024   */\n      tag_295\n      jump\t// in\n    tag_328:\n        /* \"#utility.yul\":13996:14001   */\n      dup2\n        /* \"#utility.yul\":13993:14025   */\n      eq\n        /* \"#utility.yul\":13983:14043   */\n      tag_329\n      jumpi\n        /* \"#utility.yul\":14039:14040   */\n      0x00\n        /* \"#utility.yul\":14036:14037   */\n      dup1\n        /* \"#utility.yul\":14029:14041   */\n      revert\n        /* \"#utility.yul\":13983:14043   */\n    tag_329:\n        /* \"#utility.yul\":13933:14049   */\n      pop\n      jump\t// out\n        /* \"#utility.yul\":14055:14177   */\n    tag_159:\n        /* \"#utility.yul\":14128:14152   */\n      tag_331\n        /* \"#utility.yul\":14146:14151   */\n      dup2\n        /* \"#utility.yul\":14128:14152   */\n      tag_248\n      jump\t// in\n    tag_331:\n        /* \"#utility.yul\":14121:14126   */\n      dup2\n        /* \"#utility.yul\":14118:14153   */\n      eq\n        /* \"#utility.yul\":14108:14171   */\n      tag_332\n      jumpi\n        /* \"#utility.yul\":14167:14168   */\n      0x00\n        /* \"#utility.yul\":14164:14165   */\n      dup1\n        /* \"#utility.yul\":14157:14169   */\n      revert\n        /* \"#utility.yul\":14108:14171   */\n    tag_332:\n        /* \"#utility.yul\":14055:14177   */\n      pop\n      jump\t// out\n\n    auxdata: 0xa26469706673582212202e620ffeb9d1c329252701bb171582e7127e07b3f6b802817ff6d3c658737be964736f6c63430008070033\n}\n",
				"bytecode": {
					"linkReferences": {},
					"object": "608060405234801561001057600080fd5b5060006001819055506112db806100286000396000f3fe6080604052600436106100955760003560e01c8063a409217411610059578063a409217414610147578063d0e30db014610165578063d0ebdbe71461016f578063d9dca6c5146101ac578063fef75470146101e95761009c565b80632855bd92146100a15780632e1a7d4d146100ca5780636db80995146100e65780636f9fb98a146101125780639e0a5d681461013d5761009c565b3661009c57005b600080fd5b3480156100ad57600080fd5b506100c860048036038101906100c39190610b45565b610214565b005b6100e460048036038101906100df9190610bc5565b6102c3565b005b3480156100f257600080fd5b506100fb610407565b604051610109929190610df3565b60405180910390f35b34801561011e57600080fd5b506101276105b4565b6040516101349190610eac565b60405180910390f35b6101456105bc565b005b61014f6107e3565b60405161015c9190610e2a565b60405180910390f35b61016d610924565b005b34801561017b57600080fd5b5061019660048036038101906101919190610b18565b610a55565b6040516101a39190610e2a565b60405180910390f35b3480156101b857600080fd5b506101d360048036038101906101ce9190610b18565b610aaf565b6040516101e09190610eac565b60405180910390f35b3480156101f557600080fd5b506101fe610ac7565b60405161020b9190610eac565b60405180910390f35b600073d9145cce52d386f254917e481eb44e9943f3913890508073ffffffffffffffffffffffffffffffffffffffff166323b872dd8585856040518463ffffffff1660e01b815260040161026a93929190610dbc565b602060405180830381600087803b15801561028457600080fd5b505af1158015610298573d6000803e3d6000fd5b505050506040513d601f19601f820116820180604052508101906102bc9190610b98565b5050505050565b6000805b600080549050811015610369573373ffffffffffffffffffffffffffffffffffffffff16600082815481106102ff576102fe61114b565b5b906000526020600020906003020160010160009054906101000a900473ffffffffffffffffffffffffffffffffffffffff1673ffffffffffffffffffffffffffffffffffffffff1614156103565760019150610369565b8080610361906110d3565b9150506102c7565b50806103aa576040517f08c379a00000000000000000000000000000000000000000000000000000000081526004016103a190610e8c565b60405180910390fd5b60003390508073ffffffffffffffffffffffffffffffffffffffff166108fc6001856103d69190610fab565b9081150290604051600060405180830381858888f19350505050158015610401573d6000803e3d6000fd5b50505050565b6060806000808054905067ffffffffffffffff81111561042a5761042961117a565b5b6040519080825280602002602001820160405280156104585781602001602082028036833780820191505090505b5090506000808054905067ffffffffffffffff81111561047b5761047a61117a565b5b6040519080825280602002602001820160405280156104a95781602001602082028036833780820191505090505b50905060005b6000805490508110156105a757600081815481106104d0576104cf61114b565b5b906000526020600020906003020160010160009054906101000a900473ffffffffffffffffffffffffffffffffffffffff168382815181106105155761051461114b565b5b602002602001019073ffffffffffffffffffffffffffffffffffffffff16908173ffffffffffffffffffffffffffffffffffffffff1681525050600081815481106105635761056261114b565b5b9060005260206000209060030201600201548282815181106105885761058761114b565b5b602002602001018181525050808061059f906110d3565b9150506104af565b5081819350935050509091565b600047905090565b600260009054906101000a900473ffffffffffffffffffffffffffffffffffffffff1673ffffffffffffffffffffffffffffffffffffffff163373ffffffffffffffffffffffffffffffffffffffff161461064c576040517f08c379a000000000000000000000000000000000000000000000000000000000815260040161064390610e4c565b60405180910390fd5b60005b6000805490508110156107e05760008082815481106106715761067061114b565b5b906000526020600020906003020160010160009054906101000a900473ffffffffffffffffffffffffffffffffffffffff1690506000600360008373ffffffffffffffffffffffffffffffffffffffff1673ffffffffffffffffffffffffffffffffffffffff168152602001908152602001600020549050600a816106f69190610f55565b421015610738576040517f08c379a000000000000000000000000000000000000000000000000000000000815260040161072f90610e6c565b60405180910390fd5b8173ffffffffffffffffffffffffffffffffffffffff166108fc670de0b6b3a76400009081150290604051600060405180830381858888f19350505050158015610786573d6000803e3d6000fd5b5042600360008473ffffffffffffffffffffffffffffffffffffffff1673ffffffffffffffffffffffffffffffffffffffff16815260200190815260200160002081905550505080806107d8906110d3565b91505061064f565b50565b606042600360003373ffffffffffffffffffffffffffffffffffffffff1673ffffffffffffffffffffffffffffffffffffffff1681526020019081526020016000208190555060006040518060600160405280600160008154809291906108499061108a565b9190505581526020013373ffffffffffffffffffffffffffffffffffffffff1681526020013373ffffffffffffffffffffffffffffffffffffffff163181525090806001815401808255809150506001900390600052602060002090600302016000909190919091506000820151816000015560208201518160010160006101000a81548173ffffffffffffffffffffffffffffffffffffffff021916908373ffffffffffffffffffffffffffffffffffffffff16021790555060408201518160020155505060405180602001604052806000815250905090565b6000805b6000805490508110156109ca573373ffffffffffffffffffffffffffffffffffffffff16600082815481106109605761095f61114b565b5b906000526020600020906003020160010160009054906101000a900473ffffffffffffffffffffffffffffffffffffffff1673ffffffffffffffffffffffffffffffffffffffff1614156109b757600191506109ca565b80806109c2906110d3565b915050610928565b5080610a0b576040517f08c379a0000000000000000000000000000000000000000000000000000000008152600401610a0290610e8c565b60405180910390fd5b3073ffffffffffffffffffffffffffffffffffffffff166108fc349081150290604051600060405180830381858888f19350505050158015610a51573d6000803e3d6000fd5b5050565b606081600260006101000a81548173ffffffffffffffffffffffffffffffffffffffff021916908373ffffffffffffffffffffffffffffffffffffffff160217905550604051806020016040528060008152509050919050565b60036020528060005260406000206000915090505481565b60008060008054905090508091505090565b600081359050610ae881611260565b92915050565b600081519050610afd81611277565b92915050565b600081359050610b128161128e565b92915050565b600060208284031215610b2e57610b2d6111a9565b5b6000610b3c84828501610ad9565b91505092915050565b600080600060608486031215610b5e57610b5d6111a9565b5b6000610b6c86828701610ad9565b9350506020610b7d86828701610ad9565b9250506040610b8e86828701610b03565b9150509250925092565b600060208284031215610bae57610bad6111a9565b5b6000610bbc84828501610aee565b91505092915050565b600060208284031215610bdb57610bda6111a9565b5b6000610be984828501610b03565b91505092915050565b6000610bfe8383610c22565b60208301905092915050565b6000610c168383610d9e565b60208301905092915050565b610c2b81611005565b82525050565b610c3a81611005565b82525050565b6000610c4b82610ee7565b610c558185610f22565b9350610c6083610ec7565b8060005b83811015610c91578151610c788882610bf2565b9750610c8383610f08565b925050600181019050610c64565b5085935050505092915050565b6000610ca982610ef2565b610cb38185610f33565b9350610cbe83610ed7565b8060005b83811015610cef578151610cd68882610c0a565b9750610ce183610f15565b925050600181019050610cc2565b5085935050505092915050565b6000610d0782610efd565b610d118185610f44565b9350610d21818560208601611057565b610d2a816111ae565b840191505092915050565b6000610d42601683610f44565b9150610d4d826111bf565b602082019050919050565b6000610d65602483610f44565b9150610d70826111e8565b604082019050919050565b6000610d88601683610f44565b9150610d9382611237565b602082019050919050565b610da78161104d565b82525050565b610db68161104d565b82525050565b6000606082019050610dd16000830186610c31565b610dde6020830185610c31565b610deb6040830184610dad565b949350505050565b60006040820190508181036000830152610e0d8185610c40565b90508181036020830152610e218184610c9e565b90509392505050565b60006020820190508181036000830152610e448184610cfc565b905092915050565b60006020820190508181036000830152610e6581610d35565b9050919050565b60006020820190508181036000830152610e8581610d58565b9050919050565b60006020820190508181036000830152610ea581610d7b565b9050919050565b6000602082019050610ec16000830184610dad565b92915050565b6000819050602082019050919050565b6000819050602082019050919050565b600081519050919050565b600081519050919050565b600081519050919050565b6000602082019050919050565b6000602082019050919050565b600082825260208201905092915050565b600082825260208201905092915050565b600082825260208201905092915050565b6000610f608261104d565b9150610f6b8361104d565b9250827fffffffffffffffffffffffffffffffffffffffffffffffffffffffffffffffff03821115610fa057610f9f61111c565b5b828201905092915050565b6000610fb68261104d565b9150610fc18361104d565b9250817fffffffffffffffffffffffffffffffffffffffffffffffffffffffffffffffff0483118215151615610ffa57610ff961111c565b5b828202905092915050565b60006110108261102d565b9050919050565b60008115159050919050565b6000819050919050565b600073ffffffffffffffffffffffffffffffffffffffff82169050919050565b6000819050919050565b60005b8381101561107557808201518184015260208101905061105a565b83811115611084576000848401525b50505050565b600061109582611023565b91507f7fffffffffffffffffffffffffffffffffffffffffffffffffffffffffffffff8214156110c8576110c761111c565b5b600182019050919050565b60006110de8261104d565b91507fffffffffffffffffffffffffffffffffffffffffffffffffffffffffffffffff8214156111115761111061111c565b5b600182019050919050565b7f4e487b7100000000000000000000000000000000000000000000000000000000600052601160045260246000fd5b7f4e487b7100000000000000000000000000000000000000000000000000000000600052603260045260246000fd5b7f4e487b7100000000000000000000000000000000000000000000000000000000600052604160045260246000fd5b600080fd5b6000601f19601f8301169050919050565b7f4f6e6c79206d616e616765722063616e2063616c6c2100000000000000000000600082015250565b7f49742773206a757374206265656e206c657373207468616e203130207365636f60008201527f6e64732100000000000000000000000000000000000000000000000000000000602082015250565b7f4f6e6c7920636c69656e74732063616e2063616c6c2100000000000000000000600082015250565b61126981611005565b811461127457600080fd5b50565b61128081611017565b811461128b57600080fd5b50565b6112978161104d565b81146112a257600080fd5b5056fea26469706673582212202e620ffeb9d1c329252701bb171582e7127e07b3f6b802817ff6d3c658737be964736f6c63430008070033",
					"opcodes": "PUSH1 0x80 PUSH1 0x40 MSTORE CALLVALUE DUP1 ISZERO PUSH2 0x10 JUMPI PUSH1 0x0 DUP1 REVERT JUMPDEST POP PUSH1 0x0 PUSH1 0x1 DUP2 SWAP1 SSTORE POP PUSH2 0x12DB DUP1 PUSH2 0x28 PUSH1 0x0 CODECOPY PUSH1 0x0 RETURN INVALID PUSH1 0x80 PUSH1 0x40 MSTORE PUSH1 0x4 CALLDATASIZE LT PUSH2 0x95 JUMPI PUSH1 0x0 CALLDATALOAD PUSH1 0xE0 SHR DUP1 PUSH4 0xA4092174 GT PUSH2 0x59 JUMPI DUP1 PUSH4 0xA4092174 EQ PUSH2 0x147 JUMPI DUP1 PUSH4 0xD0E30DB0 EQ PUSH2 0x165 JUMPI DUP1 PUSH4 0xD0EBDBE7 EQ PUSH2 0x16F JUMPI DUP1 PUSH4 0xD9DCA6C5 EQ PUSH2 0x1AC JUMPI DUP1 PUSH4 0xFEF75470 EQ PUSH2 0x1E9 JUMPI PUSH2 0x9C JUMP JUMPDEST DUP1 PUSH4 0x2855BD92 EQ PUSH2 0xA1 JUMPI DUP1 PUSH4 0x2E1A7D4D EQ PUSH2 0xCA JUMPI DUP1 PUSH4 0x6DB80995 EQ PUSH2 0xE6 JUMPI DUP1 PUSH4 0x6F9FB98A EQ PUSH2 0x112 JUMPI DUP1 PUSH4 0x9E0A5D68 EQ PUSH2 0x13D JUMPI PUSH2 0x9C JUMP JUMPDEST CALLDATASIZE PUSH2 0x9C JUMPI STOP JUMPDEST PUSH1 0x0 DUP1 REVERT JUMPDEST CALLVALUE DUP1 ISZERO PUSH2 0xAD JUMPI PUSH1 0x0 DUP1 REVERT JUMPDEST POP PUSH2 0xC8 PUSH1 0x4 DUP1 CALLDATASIZE SUB DUP2 ADD SWAP1 PUSH2 0xC3 SWAP2 SWAP1 PUSH2 0xB45 JUMP JUMPDEST PUSH2 0x214 JUMP JUMPDEST STOP JUMPDEST PUSH2 0xE4 PUSH1 0x4 DUP1 CALLDATASIZE SUB DUP2 ADD SWAP1 PUSH2 0xDF SWAP2 SWAP1 PUSH2 0xBC5 JUMP JUMPDEST PUSH2 0x2C3 JUMP JUMPDEST STOP JUMPDEST CALLVALUE DUP1 ISZERO PUSH2 0xF2 JUMPI PUSH1 0x0 DUP1 REVERT JUMPDEST POP PUSH2 0xFB PUSH2 0x407 JUMP JUMPDEST PUSH1 0x40 MLOAD PUSH2 0x109 SWAP3 SWAP2 SWAP1 PUSH2 0xDF3 JUMP JUMPDEST PUSH1 0x40 MLOAD DUP1 SWAP2 SUB SWAP1 RETURN JUMPDEST CALLVALUE DUP1 ISZERO PUSH2 0x11E JUMPI PUSH1 0x0 DUP1 REVERT JUMPDEST POP PUSH2 0x127 PUSH2 0x5B4 JUMP JUMPDEST PUSH1 0x40 MLOAD PUSH2 0x134 SWAP2 SWAP1 PUSH2 0xEAC JUMP JUMPDEST PUSH1 0x40 MLOAD DUP1 SWAP2 SUB SWAP1 RETURN JUMPDEST PUSH2 0x145 PUSH2 0x5BC JUMP JUMPDEST STOP JUMPDEST PUSH2 0x14F PUSH2 0x7E3 JUMP JUMPDEST PUSH1 0x40 MLOAD PUSH2 0x15C SWAP2 SWAP1 PUSH2 0xE2A JUMP JUMPDEST PUSH1 0x40 MLOAD DUP1 SWAP2 SUB SWAP1 RETURN JUMPDEST PUSH2 0x16D PUSH2 0x924 JUMP JUMPDEST STOP JUMPDEST CALLVALUE DUP1 ISZERO PUSH2 0x17B JUMPI PUSH1 0x0 DUP1 REVERT JUMPDEST POP PUSH2 0x196 PUSH1 0x4 DUP1 CALLDATASIZE SUB DUP2 ADD SWAP1 PUSH2 0x191 SWAP2 SWAP1 PUSH2 0xB18 JUMP JUMPDEST PUSH2 0xA55 JUMP JUMPDEST PUSH1 0x40 MLOAD PUSH2 0x1A3 SWAP2 SWAP1 PUSH2 0xE2A JUMP JUMPDEST PUSH1 0x40 MLOAD DUP1 SWAP2 SUB SWAP1 RETURN JUMPDEST CALLVALUE DUP1 ISZERO PUSH2 0x1B8 JUMPI PUSH1 0x0 DUP1 REVERT JUMPDEST POP PUSH2 0x1D3 PUSH1 0x4 DUP1 CALLDATASIZE SUB DUP2 ADD SWAP1 PUSH2 0x1CE SWAP2 SWAP1 PUSH2 0xB18 JUMP JUMPDEST PUSH2 0xAAF JUMP JUMPDEST PUSH1 0x40 MLOAD PUSH2 0x1E0 SWAP2 SWAP1 PUSH2 0xEAC JUMP JUMPDEST PUSH1 0x40 MLOAD DUP1 SWAP2 SUB SWAP1 RETURN JUMPDEST CALLVALUE DUP1 ISZERO PUSH2 0x1F5 JUMPI PUSH1 0x0 DUP1 REVERT JUMPDEST POP PUSH2 0x1FE PUSH2 0xAC7 JUMP JUMPDEST PUSH1 0x40 MLOAD PUSH2 0x20B SWAP2 SWAP1 PUSH2 0xEAC JUMP JUMPDEST PUSH1 0x40 MLOAD DUP1 SWAP2 SUB SWAP1 RETURN JUMPDEST PUSH1 0x0 PUSH20 0xD9145CCE52D386F254917E481EB44E9943F39138 SWAP1 POP DUP1 PUSH20 0xFFFFFFFFFFFFFFFFFFFFFFFFFFFFFFFFFFFFFFFF AND PUSH4 0x23B872DD DUP6 DUP6 DUP6 PUSH1 0x40 MLOAD DUP5 PUSH4 0xFFFFFFFF AND PUSH1 0xE0 SHL DUP2 MSTORE PUSH1 0x4 ADD PUSH2 0x26A SWAP4 SWAP3 SWAP2 SWAP1 PUSH2 0xDBC JUMP JUMPDEST PUSH1 0x20 PUSH1 0x40 MLOAD DUP1 DUP4 SUB DUP2 PUSH1 0x0 DUP8 DUP1 EXTCODESIZE ISZERO DUP1 ISZERO PUSH2 0x284 JUMPI PUSH1 0x0 DUP1 REVERT JUMPDEST POP GAS CALL ISZERO DUP1 ISZERO PUSH2 0x298 JUMPI RETURNDATASIZE PUSH1 0x0 DUP1 RETURNDATACOPY RETURNDATASIZE PUSH1 0x0 REVERT JUMPDEST POP POP POP POP PUSH1 0x40 MLOAD RETURNDATASIZE PUSH1 0x1F NOT PUSH1 0x1F DUP3 ADD AND DUP3 ADD DUP1 PUSH1 0x40 MSTORE POP DUP2 ADD SWAP1 PUSH2 0x2BC SWAP2 SWAP1 PUSH2 0xB98 JUMP JUMPDEST POP POP POP POP POP JUMP JUMPDEST PUSH1 0x0 DUP1 JUMPDEST PUSH1 0x0 DUP1 SLOAD SWAP1 POP DUP2 LT ISZERO PUSH2 0x369 JUMPI CALLER PUSH20 0xFFFFFFFFFFFFFFFFFFFFFFFFFFFFFFFFFFFFFFFF AND PUSH1 0x0 DUP3 DUP2 SLOAD DUP2 LT PUSH2 0x2FF JUMPI PUSH2 0x2FE PUSH2 0x114B JUMP JUMPDEST JUMPDEST SWAP1 PUSH1 0x0 MSTORE PUSH1 0x20 PUSH1 0x0 KECCAK256 SWAP1 PUSH1 0x3 MUL ADD PUSH1 0x1 ADD PUSH1 0x0 SWAP1 SLOAD SWAP1 PUSH2 0x100 EXP SWAP1 DIV PUSH20 0xFFFFFFFFFFFFFFFFFFFFFFFFFFFFFFFFFFFFFFFF AND PUSH20 0xFFFFFFFFFFFFFFFFFFFFFFFFFFFFFFFFFFFFFFFF AND EQ ISZERO PUSH2 0x356 JUMPI PUSH1 0x1 SWAP2 POP PUSH2 0x369 JUMP JUMPDEST DUP1 DUP1 PUSH2 0x361 SWAP1 PUSH2 0x10D3 JUMP JUMPDEST SWAP2 POP POP PUSH2 0x2C7 JUMP JUMPDEST POP DUP1 PUSH2 0x3AA JUMPI PUSH1 0x40 MLOAD PUSH32 0x8C379A000000000000000000000000000000000000000000000000000000000 DUP2 MSTORE PUSH1 0x4 ADD PUSH2 0x3A1 SWAP1 PUSH2 0xE8C JUMP JUMPDEST PUSH1 0x40 MLOAD DUP1 SWAP2 SUB SWAP1 REVERT JUMPDEST PUSH1 0x0 CALLER SWAP1 POP DUP1 PUSH20 0xFFFFFFFFFFFFFFFFFFFFFFFFFFFFFFFFFFFFFFFF AND PUSH2 0x8FC PUSH1 0x1 DUP6 PUSH2 0x3D6 SWAP2 SWAP1 PUSH2 0xFAB JUMP JUMPDEST SWAP1 DUP2 ISZERO MUL SWAP1 PUSH1 0x40 MLOAD PUSH1 0x0 PUSH1 0x40 MLOAD DUP1 DUP4 SUB DUP2 DUP6 DUP9 DUP9 CALL SWAP4 POP POP POP POP ISZERO DUP1 ISZERO PUSH2 0x401 JUMPI RETURNDATASIZE PUSH1 0x0 DUP1 RETURNDATACOPY RETURNDATASIZE PUSH1 0x0 REVERT JUMPDEST POP POP POP POP JUMP JUMPDEST PUSH1 0x60 DUP1 PUSH1 0x0 DUP1 DUP1 SLOAD SWAP1 POP PUSH8 0xFFFFFFFFFFFFFFFF DUP2 GT ISZERO PUSH2 0x42A JUMPI PUSH2 0x429 PUSH2 0x117A JUMP JUMPDEST JUMPDEST PUSH1 0x40 MLOAD SWAP1 DUP1 DUP3 MSTORE DUP1 PUSH1 0x20 MUL PUSH1 0x20 ADD DUP3 ADD PUSH1 0x40 MSTORE DUP1 ISZERO PUSH2 0x458 JUMPI DUP2 PUSH1 0x20 ADD PUSH1 0x20 DUP3 MUL DUP1 CALLDATASIZE DUP4 CALLDATACOPY DUP1 DUP3 ADD SWAP2 POP POP SWAP1 POP JUMPDEST POP SWAP1 POP PUSH1 0x0 DUP1 DUP1 SLOAD SWAP1 POP PUSH8 0xFFFFFFFFFFFFFFFF DUP2 GT ISZERO PUSH2 0x47B JUMPI PUSH2 0x47A PUSH2 0x117A JUMP JUMPDEST JUMPDEST PUSH1 0x40 MLOAD SWAP1 DUP1 DUP3 MSTORE DUP1 PUSH1 0x20 MUL PUSH1 0x20 ADD DUP3 ADD PUSH1 0x40 MSTORE DUP1 ISZERO PUSH2 0x4A9 JUMPI DUP2 PUSH1 0x20 ADD PUSH1 0x20 DUP3 MUL DUP1 CALLDATASIZE DUP4 CALLDATACOPY DUP1 DUP3 ADD SWAP2 POP POP SWAP1 POP JUMPDEST POP SWAP1 POP PUSH1 0x0 JUMPDEST PUSH1 0x0 DUP1 SLOAD SWAP1 POP DUP2 LT ISZERO PUSH2 0x5A7 JUMPI PUSH1 0x0 DUP2 DUP2 SLOAD DUP2 LT PUSH2 0x4D0 JUMPI PUSH2 0x4CF PUSH2 0x114B JUMP JUMPDEST JUMPDEST SWAP1 PUSH1 0x0 MSTORE PUSH1 0x20 PUSH1 0x0 KECCAK256 SWAP1 PUSH1 0x3 MUL ADD PUSH1 0x1 ADD PUSH1 0x0 SWAP1 SLOAD SWAP1 PUSH2 0x100 EXP SWAP1 DIV PUSH20 0xFFFFFFFFFFFFFFFFFFFFFFFFFFFFFFFFFFFFFFFF AND DUP4 DUP3 DUP2 MLOAD DUP2 LT PUSH2 0x515 JUMPI PUSH2 0x514 PUSH2 0x114B JUMP JUMPDEST JUMPDEST PUSH1 0x20 MUL PUSH1 0x20 ADD ADD SWAP1 PUSH20 0xFFFFFFFFFFFFFFFFFFFFFFFFFFFFFFFFFFFFFFFF AND SWAP1 DUP2 PUSH20 0xFFFFFFFFFFFFFFFFFFFFFFFFFFFFFFFFFFFFFFFF AND DUP2 MSTORE POP POP PUSH1 0x0 DUP2 DUP2 SLOAD DUP2 LT PUSH2 0x563 JUMPI PUSH2 0x562 PUSH2 0x114B JUMP JUMPDEST JUMPDEST SWAP1 PUSH1 0x0 MSTORE PUSH1 0x20 PUSH1 0x0 KECCAK256 SWAP1 PUSH1 0x3 MUL ADD PUSH1 0x2 ADD SLOAD DUP3 DUP3 DUP2 MLOAD DUP2 LT PUSH2 0x588 JUMPI PUSH2 0x587 PUSH2 0x114B JUMP JUMPDEST JUMPDEST PUSH1 0x20 MUL PUSH1 0x20 ADD ADD DUP2 DUP2 MSTORE POP POP DUP1 DUP1 PUSH2 0x59F SWAP1 PUSH2 0x10D3 JUMP JUMPDEST SWAP2 POP POP PUSH2 0x4AF JUMP JUMPDEST POP DUP2 DUP2 SWAP4 POP SWAP4 POP POP POP SWAP1 SWAP2 JUMP JUMPDEST PUSH1 0x0 SELFBALANCE SWAP1 POP SWAP1 JUMP JUMPDEST PUSH1 0x2 PUSH1 0x0 SWAP1 SLOAD SWAP1 PUSH2 0x100 EXP SWAP1 DIV PUSH20 0xFFFFFFFFFFFFFFFFFFFFFFFFFFFFFFFFFFFFFFFF AND PUSH20 0xFFFFFFFFFFFFFFFFFFFFFFFFFFFFFFFFFFFFFFFF AND CALLER PUSH20 0xFFFFFFFFFFFFFFFFFFFFFFFFFFFFFFFFFFFFFFFF AND EQ PUSH2 0x64C JUMPI PUSH1 0x40 MLOAD PUSH32 0x8C379A000000000000000000000000000000000000000000000000000000000 DUP2 MSTORE PUSH1 0x4 ADD PUSH2 0x643 SWAP1 PUSH2 0xE4C JUMP JUMPDEST PUSH1 0x40 MLOAD DUP1 SWAP2 SUB SWAP1 REVERT JUMPDEST PUSH1 0x0 JUMPDEST PUSH1 0x0 DUP1 SLOAD SWAP1 POP DUP2 LT ISZERO PUSH2 0x7E0 JUMPI PUSH1 0x0 DUP1 DUP3 DUP2 SLOAD DUP2 LT PUSH2 0x671 JUMPI PUSH2 0x670 PUSH2 0x114B JUMP JUMPDEST JUMPDEST SWAP1 PUSH1 0x0 MSTORE PUSH1 0x20 PUSH1 0x0 KECCAK256 SWAP1 PUSH1 0x3 MUL ADD PUSH1 0x1 ADD PUSH1 0x0 SWAP1 SLOAD SWAP1 PUSH2 0x100 EXP SWAP1 DIV PUSH20 0xFFFFFFFFFFFFFFFFFFFFFFFFFFFFFFFFFFFFFFFF AND SWAP1 POP PUSH1 0x0 PUSH1 0x3 PUSH1 0x0 DUP4 PUSH20 0xFFFFFFFFFFFFFFFFFFFFFFFFFFFFFFFFFFFFFFFF AND PUSH20 0xFFFFFFFFFFFFFFFFFFFFFFFFFFFFFFFFFFFFFFFF AND DUP2 MSTORE PUSH1 0x20 ADD SWAP1 DUP2 MSTORE PUSH1 0x20 ADD PUSH1 0x0 KECCAK256 SLOAD SWAP1 POP PUSH1 0xA DUP2 PUSH2 0x6F6 SWAP2 SWAP1 PUSH2 0xF55 JUMP JUMPDEST TIMESTAMP LT ISZERO PUSH2 0x738 JUMPI PUSH1 0x40 MLOAD PUSH32 0x8C379A000000000000000000000000000000000000000000000000000000000 DUP2 MSTORE PUSH1 0x4 ADD PUSH2 0x72F SWAP1 PUSH2 0xE6C JUMP JUMPDEST PUSH1 0x40 MLOAD DUP1 SWAP2 SUB SWAP1 REVERT JUMPDEST DUP2 PUSH20 0xFFFFFFFFFFFFFFFFFFFFFFFFFFFFFFFFFFFFFFFF AND PUSH2 0x8FC PUSH8 0xDE0B6B3A7640000 SWAP1 DUP2 ISZERO MUL SWAP1 PUSH1 0x40 MLOAD PUSH1 0x0 PUSH1 0x40 MLOAD DUP1 DUP4 SUB DUP2 DUP6 DUP9 DUP9 CALL SWAP4 POP POP POP POP ISZERO DUP1 ISZERO PUSH2 0x786 JUMPI RETURNDATASIZE PUSH1 0x0 DUP1 RETURNDATACOPY RETURNDATASIZE PUSH1 0x0 REVERT JUMPDEST POP TIMESTAMP PUSH1 0x3 PUSH1 0x0 DUP5 PUSH20 0xFFFFFFFFFFFFFFFFFFFFFFFFFFFFFFFFFFFFFFFF AND PUSH20 0xFFFFFFFFFFFFFFFFFFFFFFFFFFFFFFFFFFFFFFFF AND DUP2 MSTORE PUSH1 0x20 ADD SWAP1 DUP2 MSTORE PUSH1 0x20 ADD PUSH1 0x0 KECCAK256 DUP2 SWAP1 SSTORE POP POP POP DUP1 DUP1 PUSH2 0x7D8 SWAP1 PUSH2 0x10D3 JUMP JUMPDEST SWAP2 POP POP PUSH2 0x64F JUMP JUMPDEST POP JUMP JUMPDEST PUSH1 0x60 TIMESTAMP PUSH1 0x3 PUSH1 0x0 CALLER PUSH20 0xFFFFFFFFFFFFFFFFFFFFFFFFFFFFFFFFFFFFFFFF AND PUSH20 0xFFFFFFFFFFFFFFFFFFFFFFFFFFFFFFFFFFFFFFFF AND DUP2 MSTORE PUSH1 0x20 ADD SWAP1 DUP2 MSTORE PUSH1 0x20 ADD PUSH1 0x0 KECCAK256 DUP2 SWAP1 SSTORE POP PUSH1 0x0 PUSH1 0x40 MLOAD DUP1 PUSH1 0x60 ADD PUSH1 0x40 MSTORE DUP1 PUSH1 0x1 PUSH1 0x0 DUP2 SLOAD DUP1 SWAP3 SWAP2 SWAP1 PUSH2 0x849 SWAP1 PUSH2 0x108A JUMP JUMPDEST SWAP2 SWAP1 POP SSTORE DUP2 MSTORE PUSH1 0x20 ADD CALLER PUSH20 0xFFFFFFFFFFFFFFFFFFFFFFFFFFFFFFFFFFFFFFFF AND DUP2 MSTORE PUSH1 0x20 ADD CALLER PUSH20 0xFFFFFFFFFFFFFFFFFFFFFFFFFFFFFFFFFFFFFFFF AND BALANCE DUP2 MSTORE POP SWAP1 DUP1 PUSH1 0x1 DUP2 SLOAD ADD DUP1 DUP3 SSTORE DUP1 SWAP2 POP POP PUSH1 0x1 SWAP1 SUB SWAP1 PUSH1 0x0 MSTORE PUSH1 0x20 PUSH1 0x0 KECCAK256 SWAP1 PUSH1 0x3 MUL ADD PUSH1 0x0 SWAP1 SWAP2 SWAP1 SWAP2 SWAP1 SWAP2 POP PUSH1 0x0 DUP3 ADD MLOAD DUP2 PUSH1 0x0 ADD SSTORE PUSH1 0x20 DUP3 ADD MLOAD DUP2 PUSH1 0x1 ADD PUSH1 0x0 PUSH2 0x100 EXP DUP2 SLOAD DUP2 PUSH20 0xFFFFFFFFFFFFFFFFFFFFFFFFFFFFFFFFFFFFFFFF MUL NOT AND SWAP1 DUP4 PUSH20 0xFFFFFFFFFFFFFFFFFFFFFFFFFFFFFFFFFFFFFFFF AND MUL OR SWAP1 SSTORE POP PUSH1 0x40 DUP3 ADD MLOAD DUP2 PUSH1 0x2 ADD SSTORE POP POP PUSH1 0x40 MLOAD DUP1 PUSH1 0x20 ADD PUSH1 0x40 MSTORE DUP1 PUSH1 0x0 DUP2 MSTORE POP SWAP1 POP SWAP1 JUMP JUMPDEST PUSH1 0x0 DUP1 JUMPDEST PUSH1 0x0 DUP1 SLOAD SWAP1 POP DUP2 LT ISZERO PUSH2 0x9CA JUMPI CALLER PUSH20 0xFFFFFFFFFFFFFFFFFFFFFFFFFFFFFFFFFFFFFFFF AND PUSH1 0x0 DUP3 DUP2 SLOAD DUP2 LT PUSH2 0x960 JUMPI PUSH2 0x95F PUSH2 0x114B JUMP JUMPDEST JUMPDEST SWAP1 PUSH1 0x0 MSTORE PUSH1 0x20 PUSH1 0x0 KECCAK256 SWAP1 PUSH1 0x3 MUL ADD PUSH1 0x1 ADD PUSH1 0x0 SWAP1 SLOAD SWAP1 PUSH2 0x100 EXP SWAP1 DIV PUSH20 0xFFFFFFFFFFFFFFFFFFFFFFFFFFFFFFFFFFFFFFFF AND PUSH20 0xFFFFFFFFFFFFFFFFFFFFFFFFFFFFFFFFFFFFFFFF AND EQ ISZERO PUSH2 0x9B7 JUMPI PUSH1 0x1 SWAP2 POP PUSH2 0x9CA JUMP JUMPDEST DUP1 DUP1 PUSH2 0x9C2 SWAP1 PUSH2 0x10D3 JUMP JUMPDEST SWAP2 POP POP PUSH2 0x928 JUMP JUMPDEST POP DUP1 PUSH2 0xA0B JUMPI PUSH1 0x40 MLOAD PUSH32 0x8C379A000000000000000000000000000000000000000000000000000000000 DUP2 MSTORE PUSH1 0x4 ADD PUSH2 0xA02 SWAP1 PUSH2 0xE8C JUMP JUMPDEST PUSH1 0x40 MLOAD DUP1 SWAP2 SUB SWAP1 REVERT JUMPDEST ADDRESS PUSH20 0xFFFFFFFFFFFFFFFFFFFFFFFFFFFFFFFFFFFFFFFF AND PUSH2 0x8FC CALLVALUE SWAP1 DUP2 ISZERO MUL SWAP1 PUSH1 0x40 MLOAD PUSH1 0x0 PUSH1 0x40 MLOAD DUP1 DUP4 SUB DUP2 DUP6 DUP9 DUP9 CALL SWAP4 POP POP POP POP ISZERO DUP1 ISZERO PUSH2 0xA51 JUMPI RETURNDATASIZE PUSH1 0x0 DUP1 RETURNDATACOPY RETURNDATASIZE PUSH1 0x0 REVERT JUMPDEST POP POP JUMP JUMPDEST PUSH1 0x60 DUP2 PUSH1 0x2 PUSH1 0x0 PUSH2 0x100 EXP DUP2 SLOAD DUP2 PUSH20 0xFFFFFFFFFFFFFFFFFFFFFFFFFFFFFFFFFFFFFFFF MUL NOT AND SWAP1 DUP4 PUSH20 0xFFFFFFFFFFFFFFFFFFFFFFFFFFFFFFFFFFFFFFFF AND MUL OR SWAP1 SSTORE POP PUSH1 0x40 MLOAD DUP1 PUSH1 0x20 ADD PUSH1 0x40 MSTORE DUP1 PUSH1 0x0 DUP2 MSTORE POP SWAP1 POP SWAP2 SWAP1 POP JUMP JUMPDEST PUSH1 0x3 PUSH1 0x20 MSTORE DUP1 PUSH1 0x0 MSTORE PUSH1 0x40 PUSH1 0x0 KECCAK256 PUSH1 0x0 SWAP2 POP SWAP1 POP SLOAD DUP2 JUMP JUMPDEST PUSH1 0x0 DUP1 PUSH1 0x0 DUP1 SLOAD SWAP1 POP SWAP1 POP DUP1 SWAP2 POP POP SWAP1 JUMP JUMPDEST PUSH1 0x0 DUP2 CALLDATALOAD SWAP1 POP PUSH2 0xAE8 DUP2 PUSH2 0x1260 JUMP JUMPDEST SWAP3 SWAP2 POP POP JUMP JUMPDEST PUSH1 0x0 DUP2 MLOAD SWAP1 POP PUSH2 0xAFD DUP2 PUSH2 0x1277 JUMP JUMPDEST SWAP3 SWAP2 POP POP JUMP JUMPDEST PUSH1 0x0 DUP2 CALLDATALOAD SWAP1 POP PUSH2 0xB12 DUP2 PUSH2 0x128E JUMP JUMPDEST SWAP3 SWAP2 POP POP JUMP JUMPDEST PUSH1 0x0 PUSH1 0x20 DUP3 DUP5 SUB SLT ISZERO PUSH2 0xB2E JUMPI PUSH2 0xB2D PUSH2 0x11A9 JUMP JUMPDEST JUMPDEST PUSH1 0x0 PUSH2 0xB3C DUP5 DUP3 DUP6 ADD PUSH2 0xAD9 JUMP JUMPDEST SWAP2 POP POP SWAP3 SWAP2 POP POP JUMP JUMPDEST PUSH1 0x0 DUP1 PUSH1 0x0 PUSH1 0x60 DUP5 DUP7 SUB SLT ISZERO PUSH2 0xB5E JUMPI PUSH2 0xB5D PUSH2 0x11A9 JUMP JUMPDEST JUMPDEST PUSH1 0x0 PUSH2 0xB6C DUP7 DUP3 DUP8 ADD PUSH2 0xAD9 JUMP JUMPDEST SWAP4 POP POP PUSH1 0x20 PUSH2 0xB7D DUP7 DUP3 DUP8 ADD PUSH2 0xAD9 JUMP JUMPDEST SWAP3 POP POP PUSH1 0x40 PUSH2 0xB8E DUP7 DUP3 DUP8 ADD PUSH2 0xB03 JUMP JUMPDEST SWAP2 POP POP SWAP3 POP SWAP3 POP SWAP3 JUMP JUMPDEST PUSH1 0x0 PUSH1 0x20 DUP3 DUP5 SUB SLT ISZERO PUSH2 0xBAE JUMPI PUSH2 0xBAD PUSH2 0x11A9 JUMP JUMPDEST JUMPDEST PUSH1 0x0 PUSH2 0xBBC DUP5 DUP3 DUP6 ADD PUSH2 0xAEE JUMP JUMPDEST SWAP2 POP POP SWAP3 SWAP2 POP POP JUMP JUMPDEST PUSH1 0x0 PUSH1 0x20 DUP3 DUP5 SUB SLT ISZERO PUSH2 0xBDB JUMPI PUSH2 0xBDA PUSH2 0x11A9 JUMP JUMPDEST JUMPDEST PUSH1 0x0 PUSH2 0xBE9 DUP5 DUP3 DUP6 ADD PUSH2 0xB03 JUMP JUMPDEST SWAP2 POP POP SWAP3 SWAP2 POP POP JUMP JUMPDEST PUSH1 0x0 PUSH2 0xBFE DUP4 DUP4 PUSH2 0xC22 JUMP JUMPDEST PUSH1 0x20 DUP4 ADD SWAP1 POP SWAP3 SWAP2 POP POP JUMP JUMPDEST PUSH1 0x0 PUSH2 0xC16 DUP4 DUP4 PUSH2 0xD9E JUMP JUMPDEST PUSH1 0x20 DUP4 ADD SWAP1 POP SWAP3 SWAP2 POP POP JUMP JUMPDEST PUSH2 0xC2B DUP2 PUSH2 0x1005 JUMP JUMPDEST DUP3 MSTORE POP POP JUMP JUMPDEST PUSH2 0xC3A DUP2 PUSH2 0x1005 JUMP JUMPDEST DUP3 MSTORE POP POP JUMP JUMPDEST PUSH1 0x0 PUSH2 0xC4B DUP3 PUSH2 0xEE7 JUMP JUMPDEST PUSH2 0xC55 DUP2 DUP6 PUSH2 0xF22 JUMP JUMPDEST SWAP4 POP PUSH2 0xC60 DUP4 PUSH2 0xEC7 JUMP JUMPDEST DUP1 PUSH1 0x0 JUMPDEST DUP4 DUP2 LT ISZERO PUSH2 0xC91 JUMPI DUP2 MLOAD PUSH2 0xC78 DUP9 DUP3 PUSH2 0xBF2 JUMP JUMPDEST SWAP8 POP PUSH2 0xC83 DUP4 PUSH2 0xF08 JUMP JUMPDEST SWAP3 POP POP PUSH1 0x1 DUP2 ADD SWAP1 POP PUSH2 0xC64 JUMP JUMPDEST POP DUP6 SWAP4 POP POP POP POP SWAP3 SWAP2 POP POP JUMP JUMPDEST PUSH1 0x0 PUSH2 0xCA9 DUP3 PUSH2 0xEF2 JUMP JUMPDEST PUSH2 0xCB3 DUP2 DUP6 PUSH2 0xF33 JUMP JUMPDEST SWAP4 POP PUSH2 0xCBE DUP4 PUSH2 0xED7 JUMP JUMPDEST DUP1 PUSH1 0x0 JUMPDEST DUP4 DUP2 LT ISZERO PUSH2 0xCEF JUMPI DUP2 MLOAD PUSH2 0xCD6 DUP9 DUP3 PUSH2 0xC0A JUMP JUMPDEST SWAP8 POP PUSH2 0xCE1 DUP4 PUSH2 0xF15 JUMP JUMPDEST SWAP3 POP POP PUSH1 0x1 DUP2 ADD SWAP1 POP PUSH2 0xCC2 JUMP JUMPDEST POP DUP6 SWAP4 POP POP POP POP SWAP3 SWAP2 POP POP JUMP JUMPDEST PUSH1 0x0 PUSH2 0xD07 DUP3 PUSH2 0xEFD JUMP JUMPDEST PUSH2 0xD11 DUP2 DUP6 PUSH2 0xF44 JUMP JUMPDEST SWAP4 POP PUSH2 0xD21 DUP2 DUP6 PUSH1 0x20 DUP7 ADD PUSH2 0x1057 JUMP JUMPDEST PUSH2 0xD2A DUP2 PUSH2 0x11AE JUMP JUMPDEST DUP5 ADD SWAP2 POP POP SWAP3 SWAP2 POP POP JUMP JUMPDEST PUSH1 0x0 PUSH2 0xD42 PUSH1 0x16 DUP4 PUSH2 0xF44 JUMP JUMPDEST SWAP2 POP PUSH2 0xD4D DUP3 PUSH2 0x11BF JUMP JUMPDEST PUSH1 0x20 DUP3 ADD SWAP1 POP SWAP2 SWAP1 POP JUMP JUMPDEST PUSH1 0x0 PUSH2 0xD65 PUSH1 0x24 DUP4 PUSH2 0xF44 JUMP JUMPDEST SWAP2 POP PUSH2 0xD70 DUP3 PUSH2 0x11E8 JUMP JUMPDEST PUSH1 0x40 DUP3 ADD SWAP1 POP SWAP2 SWAP1 POP JUMP JUMPDEST PUSH1 0x0 PUSH2 0xD88 PUSH1 0x16 DUP4 PUSH2 0xF44 JUMP JUMPDEST SWAP2 POP PUSH2 0xD93 DUP3 PUSH2 0x1237 JUMP JUMPDEST PUSH1 0x20 DUP3 ADD SWAP1 POP SWAP2 SWAP1 POP JUMP JUMPDEST PUSH2 0xDA7 DUP2 PUSH2 0x104D JUMP JUMPDEST DUP3 MSTORE POP POP JUMP JUMPDEST PUSH2 0xDB6 DUP2 PUSH2 0x104D JUMP JUMPDEST DUP3 MSTORE POP POP JUMP JUMPDEST PUSH1 0x0 PUSH1 0x60 DUP3 ADD SWAP1 POP PUSH2 0xDD1 PUSH1 0x0 DUP4 ADD DUP7 PUSH2 0xC31 JUMP JUMPDEST PUSH2 0xDDE PUSH1 0x20 DUP4 ADD DUP6 PUSH2 0xC31 JUMP JUMPDEST PUSH2 0xDEB PUSH1 0x40 DUP4 ADD DUP5 PUSH2 0xDAD JUMP JUMPDEST SWAP5 SWAP4 POP POP POP POP JUMP JUMPDEST PUSH1 0x0 PUSH1 0x40 DUP3 ADD SWAP1 POP DUP2 DUP2 SUB PUSH1 0x0 DUP4 ADD MSTORE PUSH2 0xE0D DUP2 DUP6 PUSH2 0xC40 JUMP JUMPDEST SWAP1 POP DUP2 DUP2 SUB PUSH1 0x20 DUP4 ADD MSTORE PUSH2 0xE21 DUP2 DUP5 PUSH2 0xC9E JUMP JUMPDEST SWAP1 POP SWAP4 SWAP3 POP POP POP JUMP JUMPDEST PUSH1 0x0 PUSH1 0x20 DUP3 ADD SWAP1 POP DUP2 DUP2 SUB PUSH1 0x0 DUP4 ADD MSTORE PUSH2 0xE44 DUP2 DUP5 PUSH2 0xCFC JUMP JUMPDEST SWAP1 POP SWAP3 SWAP2 POP POP JUMP JUMPDEST PUSH1 0x0 PUSH1 0x20 DUP3 ADD SWAP1 POP DUP2 DUP2 SUB PUSH1 0x0 DUP4 ADD MSTORE PUSH2 0xE65 DUP2 PUSH2 0xD35 JUMP JUMPDEST SWAP1 POP SWAP2 SWAP1 POP JUMP JUMPDEST PUSH1 0x0 PUSH1 0x20 DUP3 ADD SWAP1 POP DUP2 DUP2 SUB PUSH1 0x0 DUP4 ADD MSTORE PUSH2 0xE85 DUP2 PUSH2 0xD58 JUMP JUMPDEST SWAP1 POP SWAP2 SWAP1 POP JUMP JUMPDEST PUSH1 0x0 PUSH1 0x20 DUP3 ADD SWAP1 POP DUP2 DUP2 SUB PUSH1 0x0 DUP4 ADD MSTORE PUSH2 0xEA5 DUP2 PUSH2 0xD7B JUMP JUMPDEST SWAP1 POP SWAP2 SWAP1 POP JUMP JUMPDEST PUSH1 0x0 PUSH1 0x20 DUP3 ADD SWAP1 POP PUSH2 0xEC1 PUSH1 0x0 DUP4 ADD DUP5 PUSH2 0xDAD JUMP JUMPDEST SWAP3 SWAP2 POP POP JUMP JUMPDEST PUSH1 0x0 DUP2 SWAP1 POP PUSH1 0x20 DUP3 ADD SWAP1 POP SWAP2 SWAP1 POP JUMP JUMPDEST PUSH1 0x0 DUP2 SWAP1 POP PUSH1 0x20 DUP3 ADD SWAP1 POP SWAP2 SWAP1 POP JUMP JUMPDEST PUSH1 0x0 DUP2 MLOAD SWAP1 POP SWAP2 SWAP1 POP JUMP JUMPDEST PUSH1 0x0 DUP2 MLOAD SWAP1 POP SWAP2 SWAP1 POP JUMP JUMPDEST PUSH1 0x0 DUP2 MLOAD SWAP1 POP SWAP2 SWAP1 POP JUMP JUMPDEST PUSH1 0x0 PUSH1 0x20 DUP3 ADD SWAP1 POP SWAP2 SWAP1 POP JUMP JUMPDEST PUSH1 0x0 PUSH1 0x20 DUP3 ADD SWAP1 POP SWAP2 SWAP1 POP JUMP JUMPDEST PUSH1 0x0 DUP3 DUP3 MSTORE PUSH1 0x20 DUP3 ADD SWAP1 POP SWAP3 SWAP2 POP POP JUMP JUMPDEST PUSH1 0x0 DUP3 DUP3 MSTORE PUSH1 0x20 DUP3 ADD SWAP1 POP SWAP3 SWAP2 POP POP JUMP JUMPDEST PUSH1 0x0 DUP3 DUP3 MSTORE PUSH1 0x20 DUP3 ADD SWAP1 POP SWAP3 SWAP2 POP POP JUMP JUMPDEST PUSH1 0x0 PUSH2 0xF60 DUP3 PUSH2 0x104D JUMP JUMPDEST SWAP2 POP PUSH2 0xF6B DUP4 PUSH2 0x104D JUMP JUMPDEST SWAP3 POP DUP3 PUSH32 0xFFFFFFFFFFFFFFFFFFFFFFFFFFFFFFFFFFFFFFFFFFFFFFFFFFFFFFFFFFFFFFFF SUB DUP3 GT ISZERO PUSH2 0xFA0 JUMPI PUSH2 0xF9F PUSH2 0x111C JUMP JUMPDEST JUMPDEST DUP3 DUP3 ADD SWAP1 POP SWAP3 SWAP2 POP POP JUMP JUMPDEST PUSH1 0x0 PUSH2 0xFB6 DUP3 PUSH2 0x104D JUMP JUMPDEST SWAP2 POP PUSH2 0xFC1 DUP4 PUSH2 0x104D JUMP JUMPDEST SWAP3 POP DUP2 PUSH32 0xFFFFFFFFFFFFFFFFFFFFFFFFFFFFFFFFFFFFFFFFFFFFFFFFFFFFFFFFFFFFFFFF DIV DUP4 GT DUP3 ISZERO ISZERO AND ISZERO PUSH2 0xFFA JUMPI PUSH2 0xFF9 PUSH2 0x111C JUMP JUMPDEST JUMPDEST DUP3 DUP3 MUL SWAP1 POP SWAP3 SWAP2 POP POP JUMP JUMPDEST PUSH1 0x0 PUSH2 0x1010 DUP3 PUSH2 0x102D JUMP JUMPDEST SWAP1 POP SWAP2 SWAP1 POP JUMP JUMPDEST PUSH1 0x0 DUP2 ISZERO ISZERO SWAP1 POP SWAP2 SWAP1 POP JUMP JUMPDEST PUSH1 0x0 DUP2 SWAP1 POP SWAP2 SWAP1 POP JUMP JUMPDEST PUSH1 0x0 PUSH20 0xFFFFFFFFFFFFFFFFFFFFFFFFFFFFFFFFFFFFFFFF DUP3 AND SWAP1 POP SWAP2 SWAP1 POP JUMP JUMPDEST PUSH1 0x0 DUP2 SWAP1 POP SWAP2 SWAP1 POP JUMP JUMPDEST PUSH1 0x0 JUMPDEST DUP4 DUP2 LT ISZERO PUSH2 0x1075 JUMPI DUP1 DUP3 ADD MLOAD DUP2 DUP5 ADD MSTORE PUSH1 0x20 DUP2 ADD SWAP1 POP PUSH2 0x105A JUMP JUMPDEST DUP4 DUP2 GT ISZERO PUSH2 0x1084 JUMPI PUSH1 0x0 DUP5 DUP5 ADD MSTORE JUMPDEST POP POP POP POP JUMP JUMPDEST PUSH1 0x0 PUSH2 0x1095 DUP3 PUSH2 0x1023 JUMP JUMPDEST SWAP2 POP PUSH32 0x7FFFFFFFFFFFFFFFFFFFFFFFFFFFFFFFFFFFFFFFFFFFFFFFFFFFFFFFFFFFFFFF DUP3 EQ ISZERO PUSH2 0x10C8 JUMPI PUSH2 0x10C7 PUSH2 0x111C JUMP JUMPDEST JUMPDEST PUSH1 0x1 DUP3 ADD SWAP1 POP SWAP2 SWAP1 POP JUMP JUMPDEST PUSH1 0x0 PUSH2 0x10DE DUP3 PUSH2 0x104D JUMP JUMPDEST SWAP2 POP PUSH32 0xFFFFFFFFFFFFFFFFFFFFFFFFFFFFFFFFFFFFFFFFFFFFFFFFFFFFFFFFFFFFFFFF DUP3 EQ ISZERO PUSH2 0x1111 JUMPI PUSH2 0x1110 PUSH2 0x111C JUMP JUMPDEST JUMPDEST PUSH1 0x1 DUP3 ADD SWAP1 POP SWAP2 SWAP1 POP JUMP JUMPDEST PUSH32 0x4E487B7100000000000000000000000000000000000000000000000000000000 PUSH1 0x0 MSTORE PUSH1 0x11 PUSH1 0x4 MSTORE PUSH1 0x24 PUSH1 0x0 REVERT JUMPDEST PUSH32 0x4E487B7100000000000000000000000000000000000000000000000000000000 PUSH1 0x0 MSTORE PUSH1 0x32 PUSH1 0x4 MSTORE PUSH1 0x24 PUSH1 0x0 REVERT JUMPDEST PUSH32 0x4E487B7100000000000000000000000000000000000000000000000000000000 PUSH1 0x0 MSTORE PUSH1 0x41 PUSH1 0x4 MSTORE PUSH1 0x24 PUSH1 0x0 REVERT JUMPDEST PUSH1 0x0 DUP1 REVERT JUMPDEST PUSH1 0x0 PUSH1 0x1F NOT PUSH1 0x1F DUP4 ADD AND SWAP1 POP SWAP2 SWAP1 POP JUMP JUMPDEST PUSH32 0x4F6E6C79206D616E616765722063616E2063616C6C2100000000000000000000 PUSH1 0x0 DUP3 ADD MSTORE POP JUMP JUMPDEST PUSH32 0x49742773206A757374206265656E206C657373207468616E203130207365636F PUSH1 0x0 DUP3 ADD MSTORE PUSH32 0x6E64732100000000000000000000000000000000000000000000000000000000 PUSH1 0x20 DUP3 ADD MSTORE POP JUMP JUMPDEST PUSH32 0x4F6E6C7920636C69656E74732063616E2063616C6C2100000000000000000000 PUSH1 0x0 DUP3 ADD MSTORE POP JUMP JUMPDEST PUSH2 0x1269 DUP2 PUSH2 0x1005 JUMP JUMPDEST DUP2 EQ PUSH2 0x1274 JUMPI PUSH1 0x0 DUP1 REVERT JUMPDEST POP JUMP JUMPDEST PUSH2 0x1280 DUP2 PUSH2 0x1017 JUMP JUMPDEST DUP2 EQ PUSH2 0x128B JUMPI PUSH1 0x0 DUP1 REVERT JUMPDEST POP JUMP JUMPDEST PUSH2 0x1297 DUP2 PUSH2 0x104D JUMP JUMPDEST DUP2 EQ PUSH2 0x12A2 JUMPI PUSH1 0x0 DUP1 REVERT JUMPDEST POP JUMP INVALID LOG2 PUSH5 0x6970667358 0x22 SLT KECCAK256 0x2E PUSH3 0xFFEB9 0xD1 0xC3 0x29 0x25 0x27 ADD 0xBB OR ISZERO DUP3 0xE7 SLT PUSH31 0x7B3F6B802817FF6D3C658737BE964736F6C63430008070033000000000000 "
				},
				"gasEstimates": {
					"creation": {
						"codeDepositCost": "965400",
						"executionCost": "6015",
						"totalCost": "971415"
					},
					"external": {
						"deposit()": "infinite",
						"getClients()": "infinite",
						"getContractBalance()": "406",
						"getCountClient()": "2546",
						"interestDate(address)": "2880",
						"joinAsClient()": "142725",
						"sendCoke(address,address,uint256)": "infinite",
						"sendInterest()": "infinite",
						"setManager(address)": "25274",
						"withdraw(uint256)": "infinite"
					}
				},
				"methodIdentifiers": {
					"deposit()": "d0e30db0",
					"getClients()": "6db80995",
					"getContractBalance()": "6f9fb98a",
					"getCountClient()": "fef75470",
					"interestDate(address)": "d9dca6c5",
					"joinAsClient()": "a4092174",
					"sendCoke(address,address,uint256)": "2855bd92",
					"sendInterest()": "9e0a5d68",
					"setManager(address)": "d0ebdbe7",
					"withdraw(uint256)": "2e1a7d4d"
				}
			},
			"storageLayout": {
				"storage": [
					{
						"astId": 33,
						"contract": "contracts/first_contract.sol:BankContract",
						"label": "clients",
						"offset": 0,
						"slot": "0",
						"type": "t_array(t_struct(client_account)29_storage)dyn_storage"
					},
					{
						"astId": 35,
						"contract": "contracts/first_contract.sol:BankContract",
						"label": "clientCounter",
						"offset": 0,
						"slot": "1",
						"type": "t_int256"
					},
					{
						"astId": 37,
						"contract": "contracts/first_contract.sol:BankContract",
						"label": "manager",
						"offset": 0,
						"slot": "2",
						"type": "t_address_payable"
					},
					{
						"astId": 41,
						"contract": "contracts/first_contract.sol:BankContract",
						"label": "interestDate",
						"offset": 0,
						"slot": "3",
						"type": "t_mapping(t_address,t_uint256)"
					}
				],
				"types": {
					"t_address": {
						"encoding": "inplace",
						"label": "address",
						"numberOfBytes": "20"
					},
					"t_address_payable": {
						"encoding": "inplace",
						"label": "address payable",
						"numberOfBytes": "20"
					},
					"t_array(t_struct(client_account)29_storage)dyn_storage": {
						"base": "t_struct(client_account)29_storage",
						"encoding": "dynamic_array",
						"label": "struct BankContract.client_account[]",
						"numberOfBytes": "32"
					},
					"t_int256": {
						"encoding": "inplace",
						"label": "int256",
						"numberOfBytes": "32"
					},
					"t_mapping(t_address,t_uint256)": {
						"encoding": "mapping",
						"key": "t_address",
						"label": "mapping(address => uint256)",
						"numberOfBytes": "32",
						"value": "t_uint256"
					},
					"t_struct(client_account)29_storage": {
						"encoding": "inplace",
						"label": "struct BankContract.client_account",
						"members": [
							{
								"astId": 24,
								"contract": "contracts/first_contract.sol:BankContract",
								"label": "client_id",
								"offset": 0,
								"slot": "0",
								"type": "t_int256"
							},
							{
								"astId": 26,
								"contract": "contracts/first_contract.sol:BankContract",
								"label": "client_address",
								"offset": 0,
								"slot": "1",
								"type": "t_address"
							},
							{
								"astId": 28,
								"contract": "contracts/first_contract.sol:BankContract",
								"label": "client_balance_in_ether",
								"offset": 0,
								"slot": "2",
								"type": "t_uint256"
							}
						],
						"numberOfBytes": "96"
					},
					"t_uint256": {
						"encoding": "inplace",
						"label": "uint256",
						"numberOfBytes": "32"
					}
				}
			},
			"userdoc": {
				"kind": "user",
				"methods": {},
				"version": 1
			}
		}
	}
}