{
	"contracts/first_contract.sol": {
		"BankContract": {
			"abi": [
				{
					"inputs": [],
					"stateMutability": "nonpayable",
					"type": "constructor"
				},
				{
					"inputs": [],
					"name": "deposit",
					"outputs": [],
					"stateMutability": "payable",
					"type": "function"
				},
				{
					"inputs": [],
					"name": "getClients",
					"outputs": [
						{
							"internalType": "address[]",
							"name": "",
							"type": "address[]"
						},
						{
							"internalType": "uint256[]",
							"name": "",
							"type": "uint256[]"
						}
					],
					"stateMutability": "view",
					"type": "function"
				},
				{
					"inputs": [],
					"name": "getContractBalance",
					"outputs": [
						{
							"internalType": "uint256",
							"name": "",
							"type": "uint256"
						}
					],
					"stateMutability": "view",
					"type": "function"
				},
				{
					"inputs": [],
					"name": "getCountClient",
					"outputs": [
						{
							"internalType": "uint256",
							"name": "",
							"type": "uint256"
						}
					],
					"stateMutability": "view",
					"type": "function"
				},
				{
					"inputs": [
						{
							"internalType": "address",
							"name": "",
							"type": "address"
						}
					],
					"name": "interestDate",
					"outputs": [
						{
							"internalType": "uint256",
							"name": "",
							"type": "uint256"
						}
					],
					"stateMutability": "view",
					"type": "function"
				},
				{
					"inputs": [],
					"name": "joinAsClient",
					"outputs": [
						{
							"internalType": "string",
							"name": "",
							"type": "string"
						}
					],
					"stateMutability": "payable",
					"type": "function"
				},
				{
					"inputs": [],
					"name": "sendInterest",
					"outputs": [],
					"stateMutability": "payable",
					"type": "function"
				},
				{
					"inputs": [
						{
							"internalType": "address",
							"name": "managerAddress",
							"type": "address"
						}
					],
					"name": "setManager",
					"outputs": [
						{
							"internalType": "string",
							"name": "",
							"type": "string"
						}
					],
					"stateMutability": "nonpayable",
					"type": "function"
				},
				{
					"inputs": [
						{
							"internalType": "uint256",
							"name": "amount",
							"type": "uint256"
						}
					],
					"name": "withdraw",
					"outputs": [],
					"stateMutability": "payable",
					"type": "function"
				},
				{
					"stateMutability": "payable",
					"type": "receive"
				}
			],
			"devdoc": {
				"kind": "dev",
				"methods": {},
				"version": 1
			},
			"evm": {
				"assembly": "    /* \"contracts/first_contract.sol\":326:3668  contract BankContract { \r... */\n  mstore(0x40, 0x80)\n    /* \"contracts/first_contract.sol\":633:689  constructor() public{\r... */\n  callvalue\n  dup1\n  iszero\n  tag_1\n  jumpi\n  0x00\n  dup1\n  revert\ntag_1:\n  pop\n    /* \"contracts/first_contract.sol\":680:681  0 */\n  0x00\n    /* \"contracts/first_contract.sol\":664:677  clientCounter */\n  0x01\n    /* \"contracts/first_contract.sol\":664:681  clientCounter = 0 */\n  dup2\n  swap1\n  sstore\n  pop\n    /* \"contracts/first_contract.sol\":326:3668  contract BankContract { \r... */\n  dataSize(sub_0)\n  dup1\n  dataOffset(sub_0)\n  0x00\n  codecopy\n  0x00\n  return\nstop\n\nsub_0: assembly {\n        /* \"contracts/first_contract.sol\":326:3668  contract BankContract { \r... */\n      mstore(0x40, 0x80)\n      jumpi(tag_1, lt(calldatasize, 0x04))\n      shr(0xe0, calldataload(0x00))\n      dup1\n      0xa4092174\n      gt\n      tag_12\n      jumpi\n      dup1\n      0xa4092174\n      eq\n      tag_7\n      jumpi\n      dup1\n      0xd0e30db0\n      eq\n      tag_8\n      jumpi\n      dup1\n      0xd0ebdbe7\n      eq\n      tag_9\n      jumpi\n      dup1\n      0xd9dca6c5\n      eq\n      tag_10\n      jumpi\n      dup1\n      0xfef75470\n      eq\n      tag_11\n      jumpi\n      jump(tag_2)\n    tag_12:\n      dup1\n      0x2e1a7d4d\n      eq\n      tag_3\n      jumpi\n      dup1\n      0x6db80995\n      eq\n      tag_4\n      jumpi\n      dup1\n      0x6f9fb98a\n      eq\n      tag_5\n      jumpi\n      dup1\n      0x9e0a5d68\n      eq\n      tag_6\n      jumpi\n      jump(tag_2)\n    tag_1:\n      jumpi(tag_2, calldatasize)\n      stop\n    tag_2:\n      0x00\n      dup1\n      revert\n        /* \"contracts/first_contract.sol\":1681:1864  function withdraw(uint amount) public payable onlyClients{\r... */\n    tag_3:\n      tag_15\n      0x04\n      dup1\n      calldatasize\n      sub\n      dup2\n      add\n      swap1\n      tag_16\n      swap2\n      swap1\n      tag_17\n      jump\t// in\n    tag_16:\n      tag_18\n      jump\t// in\n    tag_15:\n      stop\n        /* \"contracts/first_contract.sol\":2503:3073  function getClients() public view returns (address[] memory,uint[] memory) {\r... */\n    tag_4:\n      callvalue\n      dup1\n      iszero\n      tag_19\n      jumpi\n      0x00\n      dup1\n      revert\n    tag_19:\n      pop\n      tag_20\n      tag_21\n      jump\t// in\n    tag_20:\n      mload(0x40)\n      tag_22\n      swap3\n      swap2\n      swap1\n      tag_23\n      jump\t// in\n    tag_22:\n      mload(0x40)\n      dup1\n      swap2\n      sub\n      swap1\n      return\n        /* \"contracts/first_contract.sol\":3080:3182  function getContractBalance() public view returns(uint){\r... */\n    tag_5:\n      callvalue\n      dup1\n      iszero\n      tag_24\n      jumpi\n      0x00\n      dup1\n      revert\n    tag_24:\n      pop\n      tag_25\n      tag_26\n      jump\t// in\n    tag_25:\n      mload(0x40)\n      tag_27\n      swap2\n      swap1\n      tag_28\n      jump\t// in\n    tag_27:\n      mload(0x40)\n      dup1\n      swap2\n      sub\n      swap1\n      return\n        /* \"contracts/first_contract.sol\":1872:2362  function sendInterest() public payable onlyManager{\r... */\n    tag_6:\n      tag_29\n      tag_30\n      jump\t// in\n    tag_29:\n      stop\n        /* \"contracts/first_contract.sol\":1330:1560  function joinAsClient() public payable returns(string memory){\r... */\n    tag_7:\n      tag_31\n      tag_32\n      jump\t// in\n    tag_31:\n      mload(0x40)\n      tag_33\n      swap2\n      swap1\n      tag_34\n      jump\t// in\n    tag_33:\n      mload(0x40)\n      dup1\n      swap2\n      sub\n      swap1\n      return\n        /* \"contracts/first_contract.sol\":1570:1673  function deposit() public payable onlyClients{\r... */\n    tag_8:\n      tag_35\n      tag_36\n      jump\t// in\n    tag_35:\n      stop\n        /* \"contracts/first_contract.sol\":1183:1322  function setManager(address managerAddress) public returns(string memory){\r... */\n    tag_9:\n      callvalue\n      dup1\n      iszero\n      tag_37\n      jumpi\n      0x00\n      dup1\n      revert\n    tag_37:\n      pop\n      tag_38\n      0x04\n      dup1\n      calldatasize\n      sub\n      dup2\n      add\n      swap1\n      tag_39\n      swap2\n      swap1\n      tag_40\n      jump\t// in\n    tag_39:\n      tag_41\n      jump\t// in\n    tag_38:\n      mload(0x40)\n      tag_42\n      swap2\n      swap1\n      tag_34\n      jump\t// in\n    tag_42:\n      mload(0x40)\n      dup1\n      swap2\n      sub\n      swap1\n      return\n        /* \"contracts/first_contract.sol\":580:624  mapping(address => uint) public interestDate */\n    tag_10:\n      callvalue\n      dup1\n      iszero\n      tag_43\n      jumpi\n      0x00\n      dup1\n      revert\n    tag_43:\n      pop\n      tag_44\n      0x04\n      dup1\n      calldatasize\n      sub\n      dup2\n      add\n      swap1\n      tag_45\n      swap2\n      swap1\n      tag_40\n      jump\t// in\n    tag_45:\n      tag_46\n      jump\t// in\n    tag_44:\n      mload(0x40)\n      tag_47\n      swap2\n      swap1\n      tag_28\n      jump\t// in\n    tag_47:\n      mload(0x40)\n      dup1\n      swap2\n      sub\n      swap1\n      return\n        /* \"contracts/first_contract.sol\":2378:2495  function getCountClient() public view returns(uint){\r... */\n    tag_11:\n      callvalue\n      dup1\n      iszero\n      tag_48\n      jumpi\n      0x00\n      dup1\n      revert\n    tag_48:\n      pop\n      tag_49\n      tag_50\n      jump\t// in\n    tag_49:\n      mload(0x40)\n      tag_51\n      swap2\n      swap1\n      tag_28\n      jump\t// in\n    tag_51:\n      mload(0x40)\n      dup1\n      swap2\n      sub\n      swap1\n      return\n        /* \"contracts/first_contract.sol\":1681:1864  function withdraw(uint amount) public payable onlyClients{\r... */\n    tag_18:\n        /* \"contracts/first_contract.sol\":849:862  bool isClient */\n      0x00\n        /* \"contracts/first_contract.sol\":885:891  uint i */\n      dup1\n        /* \"contracts/first_contract.sol\":881:1058  for(uint i=0;i<clients.length;i++){\r... */\n    tag_53:\n        /* \"contracts/first_contract.sol\":896:903  clients */\n      0x00\n        /* \"contracts/first_contract.sol\":896:910  clients.length */\n      dup1\n      sload\n      swap1\n      pop\n        /* \"contracts/first_contract.sol\":894:895  i */\n      dup2\n        /* \"contracts/first_contract.sol\":894:910  i<clients.length */\n      lt\n        /* \"contracts/first_contract.sol\":881:1058  for(uint i=0;i<clients.length;i++){\r... */\n      iszero\n      tag_54\n      jumpi\n        /* \"contracts/first_contract.sol\":962:972  msg.sender */\n      caller\n        /* \"contracts/first_contract.sol\":933:972  clients[i].client_address == msg.sender */\n      0xffffffffffffffffffffffffffffffffffffffff\n      and\n        /* \"contracts/first_contract.sol\":933:940  clients */\n      0x00\n        /* \"contracts/first_contract.sol\":941:942  i */\n      dup3\n        /* \"contracts/first_contract.sol\":933:943  clients[i] */\n      dup2\n      sload\n      dup2\n      lt\n      tag_56\n      jumpi\n      tag_57\n      tag_58\n      jump\t// in\n    tag_57:\n    tag_56:\n      swap1\n      0x00\n      mstore\n      keccak256(0x00, 0x20)\n      swap1\n      0x03\n      mul\n      add\n        /* \"contracts/first_contract.sol\":933:958  clients[i].client_address */\n      0x01\n      add\n      0x00\n      swap1\n      sload\n      swap1\n      0x0100\n      exp\n      swap1\n      div\n      0xffffffffffffffffffffffffffffffffffffffff\n      and\n        /* \"contracts/first_contract.sol\":933:972  clients[i].client_address == msg.sender */\n      0xffffffffffffffffffffffffffffffffffffffff\n      and\n      eq\n        /* \"contracts/first_contract.sol\":930:1047  if(clients[i].client_address == msg.sender){\r... */\n      iszero\n      tag_60\n      jumpi\n        /* \"contracts/first_contract.sol\":1003:1007  true */\n      0x01\n        /* \"contracts/first_contract.sol\":992:1007  isClient = true */\n      swap2\n      pop\n        /* \"contracts/first_contract.sol\":1026:1031  break */\n      jump(tag_54)\n        /* \"contracts/first_contract.sol\":930:1047  if(clients[i].client_address == msg.sender){\r... */\n    tag_60:\n        /* \"contracts/first_contract.sol\":911:914  i++ */\n      dup1\n      dup1\n      tag_61\n      swap1\n      tag_62\n      jump\t// in\n    tag_61:\n      swap2\n      pop\n      pop\n        /* \"contracts/first_contract.sol\":881:1058  for(uint i=0;i<clients.length;i++){\r... */\n      jump(tag_53)\n    tag_54:\n      pop\n        /* \"contracts/first_contract.sol\":1076:1084  isClient */\n      dup1\n        /* \"contracts/first_contract.sol\":1068:1111  require(isClient, \"Only clients can call!\") */\n      tag_63\n      jumpi\n      mload(0x40)\n      0x08c379a000000000000000000000000000000000000000000000000000000000\n      dup2\n      mstore\n      0x04\n      add\n      tag_64\n      swap1\n      tag_65\n      jump\t// in\n    tag_64:\n      mload(0x40)\n      dup1\n      swap2\n      sub\n      swap1\n      revert\n    tag_63:\n        /* \"contracts/first_contract.sol\":1749:1768  address sender_temp */\n      0x00\n        /* \"contracts/first_contract.sol\":1793:1803  msg.sender */\n      caller\n        /* \"contracts/first_contract.sol\":1779:1803  sender_temp = msg.sender */\n      swap1\n      pop\n        /* \"contracts/first_contract.sol\":1819:1830  sender_temp */\n      dup1\n        /* \"contracts/first_contract.sol\":1811:1840  payable(sender_temp).transfer */\n      0xffffffffffffffffffffffffffffffffffffffff\n      and\n        /* \"contracts/first_contract.sol\":1811:1856  payable(sender_temp).transfer(amount * 1 wei) */\n      0x08fc\n        /* \"contracts/first_contract.sol\":1850:1855  1 wei */\n      0x01\n        /* \"contracts/first_contract.sol\":1841:1847  amount */\n      dup6\n        /* \"contracts/first_contract.sol\":1841:1855  amount * 1 wei */\n      tag_67\n      swap2\n      swap1\n      tag_68\n      jump\t// in\n    tag_67:\n        /* \"contracts/first_contract.sol\":1811:1856  payable(sender_temp).transfer(amount * 1 wei) */\n      swap1\n      dup2\n      iszero\n      mul\n      swap1\n      mload(0x40)\n      0x00\n      mload(0x40)\n      dup1\n      dup4\n      sub\n      dup2\n      dup6\n      dup9\n      dup9\n      call\n      swap4\n      pop\n      pop\n      pop\n      pop\n      iszero\n      dup1\n      iszero\n      tag_70\n      jumpi\n      returndatasize\n      0x00\n      dup1\n      returndatacopy\n      revert(0x00, returndatasize)\n    tag_70:\n      pop\n        /* \"contracts/first_contract.sol\":1738:1864  {\r... */\n      pop\n        /* \"contracts/first_contract.sol\":838:1131  {\r... */\n      pop\n        /* \"contracts/first_contract.sol\":1681:1864  function withdraw(uint amount) public payable onlyClients{\r... */\n      pop\n      jump\t// out\n        /* \"contracts/first_contract.sol\":2503:3073  function getClients() public view returns (address[] memory,uint[] memory) {\r... */\n    tag_21:\n        /* \"contracts/first_contract.sol\":2546:2562  address[] memory */\n      0x60\n        /* \"contracts/first_contract.sol\":2563:2576  uint[] memory */\n      dup1\n        /* \"contracts/first_contract.sol\":2591:2622  address[] memory client_address */\n      0x00\n        /* \"contracts/first_contract.sol\":2639:2646  clients */\n      dup1\n        /* \"contracts/first_contract.sol\":2639:2653  clients.length */\n      dup1\n      sload\n      swap1\n      pop\n        /* \"contracts/first_contract.sol\":2625:2654  new address[](clients.length) */\n      0xffffffffffffffff\n      dup2\n      gt\n      iszero\n      tag_72\n      jumpi\n      tag_73\n      tag_74\n      jump\t// in\n    tag_73:\n    tag_72:\n      mload(0x40)\n      swap1\n      dup1\n      dup3\n      mstore\n      dup1\n      0x20\n      mul\n      0x20\n      add\n      dup3\n      add\n      0x40\n      mstore\n      dup1\n      iszero\n      tag_75\n      jumpi\n      dup2\n      0x20\n      add\n      0x20\n      dup3\n      mul\n      dup1\n      calldatasize\n      dup4\n      calldatacopy\n      dup1\n      dup3\n      add\n      swap2\n      pop\n      pop\n      swap1\n      pop\n    tag_75:\n      pop\n        /* \"contracts/first_contract.sol\":2591:2654  address[] memory client_address = new address[](clients.length) */\n      swap1\n      pop\n        /* \"contracts/first_contract.sol\":2663:2703  uint[]    memory client_balance_in_ether */\n      0x00\n        /* \"contracts/first_contract.sol\":2717:2724  clients */\n      dup1\n        /* \"contracts/first_contract.sol\":2717:2731  clients.length */\n      dup1\n      sload\n      swap1\n      pop\n        /* \"contracts/first_contract.sol\":2706:2732  new uint[](clients.length) */\n      0xffffffffffffffff\n      dup2\n      gt\n      iszero\n      tag_76\n      jumpi\n      tag_77\n      tag_74\n      jump\t// in\n    tag_77:\n    tag_76:\n      mload(0x40)\n      swap1\n      dup1\n      dup3\n      mstore\n      dup1\n      0x20\n      mul\n      0x20\n      add\n      dup3\n      add\n      0x40\n      mstore\n      dup1\n      iszero\n      tag_78\n      jumpi\n      dup2\n      0x20\n      add\n      0x20\n      dup3\n      mul\n      dup1\n      calldatasize\n      dup4\n      calldatacopy\n      dup1\n      dup3\n      add\n      swap2\n      pop\n      pop\n      swap1\n      pop\n    tag_78:\n      pop\n        /* \"contracts/first_contract.sol\":2663:2732  uint[]    memory client_balance_in_ether = new uint[](clients.length) */\n      swap1\n      pop\n        /* \"contracts/first_contract.sol\":2750:2756  uint i */\n      0x00\n        /* \"contracts/first_contract.sol\":2745:2996  for (uint i = 0; i < clients.length; i++) {\r... */\n    tag_79:\n        /* \"contracts/first_contract.sol\":2766:2773  clients */\n      0x00\n        /* \"contracts/first_contract.sol\":2766:2780  clients.length */\n      dup1\n      sload\n      swap1\n      pop\n        /* \"contracts/first_contract.sol\":2762:2763  i */\n      dup2\n        /* \"contracts/first_contract.sol\":2762:2780  i < clients.length */\n      lt\n        /* \"contracts/first_contract.sol\":2745:2996  for (uint i = 0; i < clients.length; i++) {\r... */\n      iszero\n      tag_80\n      jumpi\n        /* \"contracts/first_contract.sol\":2881:2888  clients */\n      0x00\n        /* \"contracts/first_contract.sol\":2889:2890  i */\n      dup2\n        /* \"contracts/first_contract.sol\":2881:2891  clients[i] */\n      dup2\n      sload\n      dup2\n      lt\n      tag_82\n      jumpi\n      tag_83\n      tag_58\n      jump\t// in\n    tag_83:\n    tag_82:\n      swap1\n      0x00\n      mstore\n      keccak256(0x00, 0x20)\n      swap1\n      0x03\n      mul\n      add\n        /* \"contracts/first_contract.sol\":2881:2906  clients[i].client_address */\n      0x01\n      add\n      0x00\n      swap1\n      sload\n      swap1\n      0x0100\n      exp\n      swap1\n      div\n      0xffffffffffffffffffffffffffffffffffffffff\n      and\n        /* \"contracts/first_contract.sol\":2861:2875  client_address */\n      dup4\n        /* \"contracts/first_contract.sol\":2876:2877  i */\n      dup3\n        /* \"contracts/first_contract.sol\":2861:2878  client_address[i] */\n      dup2\n      mload\n      dup2\n      lt\n      tag_85\n      jumpi\n      tag_86\n      tag_58\n      jump\t// in\n    tag_86:\n    tag_85:\n      0x20\n      mul\n      0x20\n      add\n      add\n        /* \"contracts/first_contract.sol\":2861:2906  client_address[i] = clients[i].client_address */\n      swap1\n      0xffffffffffffffffffffffffffffffffffffffff\n      and\n      swap1\n      dup2\n      0xffffffffffffffffffffffffffffffffffffffff\n      and\n      dup2\n      mstore\n      pop\n      pop\n        /* \"contracts/first_contract.sol\":2950:2957  clients */\n      0x00\n        /* \"contracts/first_contract.sol\":2958:2959  i */\n      dup2\n        /* \"contracts/first_contract.sol\":2950:2960  clients[i] */\n      dup2\n      sload\n      dup2\n      lt\n      tag_87\n      jumpi\n      tag_88\n      tag_58\n      jump\t// in\n    tag_88:\n    tag_87:\n      swap1\n      0x00\n      mstore\n      keccak256(0x00, 0x20)\n      swap1\n      0x03\n      mul\n      add\n        /* \"contracts/first_contract.sol\":2950:2984  clients[i].client_balance_in_ether */\n      0x02\n      add\n      sload\n        /* \"contracts/first_contract.sol\":2921:2944  client_balance_in_ether */\n      dup3\n        /* \"contracts/first_contract.sol\":2945:2946  i */\n      dup3\n        /* \"contracts/first_contract.sol\":2921:2947  client_balance_in_ether[i] */\n      dup2\n      mload\n      dup2\n      lt\n      tag_90\n      jumpi\n      tag_91\n      tag_58\n      jump\t// in\n    tag_91:\n    tag_90:\n      0x20\n      mul\n      0x20\n      add\n      add\n        /* \"contracts/first_contract.sol\":2921:2984  client_balance_in_ether[i] = clients[i].client_balance_in_ether */\n      dup2\n      dup2\n      mstore\n      pop\n      pop\n        /* \"contracts/first_contract.sol\":2782:2785  i++ */\n      dup1\n      dup1\n      tag_92\n      swap1\n      tag_62\n      jump\t// in\n    tag_92:\n      swap2\n      pop\n      pop\n        /* \"contracts/first_contract.sol\":2745:2996  for (uint i = 0; i < clients.length; i++) {\r... */\n      jump(tag_79)\n    tag_80:\n      pop\n        /* \"contracts/first_contract.sol\":3024:3038  client_address */\n      dup2\n        /* \"contracts/first_contract.sol\":3040:3063  client_balance_in_ether */\n      dup2\n        /* \"contracts/first_contract.sol\":3016:3064  return (client_address, client_balance_in_ether) */\n      swap4\n      pop\n      swap4\n      pop\n      pop\n      pop\n        /* \"contracts/first_contract.sol\":2503:3073  function getClients() public view returns (address[] memory,uint[] memory) {\r... */\n      swap1\n      swap2\n      jump\t// out\n        /* \"contracts/first_contract.sol\":3080:3182  function getContractBalance() public view returns(uint){\r... */\n    tag_26:\n        /* \"contracts/first_contract.sol\":3130:3134  uint */\n      0x00\n        /* \"contracts/first_contract.sol\":3153:3174  address(this).balance */\n      selfbalance\n        /* \"contracts/first_contract.sol\":3146:3174  return address(this).balance */\n      swap1\n      pop\n        /* \"contracts/first_contract.sol\":3080:3182  function getContractBalance() public view returns(uint){\r... */\n      swap1\n      jump\t// out\n        /* \"contracts/first_contract.sol\":1872:2362  function sendInterest() public payable onlyManager{\r... */\n    tag_30:\n        /* \"contracts/first_contract.sol\":755:762  manager */\n      0x02\n      0x00\n      swap1\n      sload\n      swap1\n      0x0100\n      exp\n      swap1\n      div\n      0xffffffffffffffffffffffffffffffffffffffff\n      and\n        /* \"contracts/first_contract.sol\":741:762  msg.sender == manager */\n      0xffffffffffffffffffffffffffffffffffffffff\n      and\n        /* \"contracts/first_contract.sol\":741:751  msg.sender */\n      caller\n        /* \"contracts/first_contract.sol\":741:762  msg.sender == manager */\n      0xffffffffffffffffffffffffffffffffffffffff\n      and\n      eq\n        /* \"contracts/first_contract.sol\":733:789  require(msg.sender == manager, \"Only manager can call!\") */\n      tag_95\n      jumpi\n      mload(0x40)\n      0x08c379a000000000000000000000000000000000000000000000000000000000\n      dup2\n      mstore\n      0x04\n      add\n      tag_96\n      swap1\n      tag_97\n      jump\t// in\n    tag_96:\n      mload(0x40)\n      dup1\n      swap2\n      sub\n      swap1\n      revert\n    tag_95:\n        /* \"contracts/first_contract.sol\":1934:1940  uint i */\n      0x00\n        /* \"contracts/first_contract.sol\":1930:2355  for(uint i=0;i<clients.length;i++){\r... */\n    tag_99:\n        /* \"contracts/first_contract.sol\":1945:1952  clients */\n      0x00\n        /* \"contracts/first_contract.sol\":1945:1959  clients.length */\n      dup1\n      sload\n      swap1\n      pop\n        /* \"contracts/first_contract.sol\":1943:1944  i */\n      dup2\n        /* \"contracts/first_contract.sol\":1943:1959  i<clients.length */\n      lt\n        /* \"contracts/first_contract.sol\":1930:2355  for(uint i=0;i<clients.length;i++){\r... */\n      iszero\n      tag_100\n      jumpi\n        /* \"contracts/first_contract.sol\":1977:1999  address initialAddress */\n      0x00\n        /* \"contracts/first_contract.sol\":2002:2009  clients */\n      dup1\n        /* \"contracts/first_contract.sol\":2010:2011  i */\n      dup3\n        /* \"contracts/first_contract.sol\":2002:2012  clients[i] */\n      dup2\n      sload\n      dup2\n      lt\n      tag_102\n      jumpi\n      tag_103\n      tag_58\n      jump\t// in\n    tag_103:\n    tag_102:\n      swap1\n      0x00\n      mstore\n      keccak256(0x00, 0x20)\n      swap1\n      0x03\n      mul\n      add\n        /* \"contracts/first_contract.sol\":2002:2027  clients[i].client_address */\n      0x01\n      add\n      0x00\n      swap1\n      sload\n      swap1\n      0x0100\n      exp\n      swap1\n      div\n      0xffffffffffffffffffffffffffffffffffffffff\n      and\n        /* \"contracts/first_contract.sol\":1977:2027  address initialAddress = clients[i].client_address */\n      swap1\n      pop\n        /* \"contracts/first_contract.sol\":2040:2061  uint lastInterestDate */\n      0x00\n        /* \"contracts/first_contract.sol\":2064:2076  interestDate */\n      0x03\n        /* \"contracts/first_contract.sol\":2064:2092  interestDate[initialAddress] */\n      0x00\n        /* \"contracts/first_contract.sol\":2077:2091  initialAddress */\n      dup4\n        /* \"contracts/first_contract.sol\":2064:2092  interestDate[initialAddress] */\n      0xffffffffffffffffffffffffffffffffffffffff\n      and\n      0xffffffffffffffffffffffffffffffffffffffff\n      and\n      dup2\n      mstore\n      0x20\n      add\n      swap1\n      dup2\n      mstore\n      0x20\n      add\n      0x00\n      keccak256\n      sload\n        /* \"contracts/first_contract.sol\":2040:2092  uint lastInterestDate = interestDate[initialAddress] */\n      swap1\n      pop\n        /* \"contracts/first_contract.sol\":2145:2155  10 seconds */\n      0x0a\n        /* \"contracts/first_contract.sol\":2126:2142  lastInterestDate */\n      dup2\n        /* \"contracts/first_contract.sol\":2126:2155  lastInterestDate + 10 seconds */\n      tag_105\n      swap2\n      swap1\n      tag_106\n      jump\t// in\n    tag_105:\n        /* \"contracts/first_contract.sol\":2108:2123  block.timestamp */\n      timestamp\n        /* \"contracts/first_contract.sol\":2108:2155  block.timestamp < lastInterestDate + 10 seconds */\n      lt\n        /* \"contracts/first_contract.sol\":2105:2234  if(block.timestamp < lastInterestDate + 10 seconds){\r... */\n      iszero\n      tag_107\n      jumpi\n        /* \"contracts/first_contract.sol\":2174:2220  revert(\"It's just been less than 10 seconds!\") */\n      mload(0x40)\n      0x08c379a000000000000000000000000000000000000000000000000000000000\n      dup2\n      mstore\n      0x04\n      add\n      tag_108\n      swap1\n      tag_109\n      jump\t// in\n    tag_108:\n      mload(0x40)\n      dup1\n      swap2\n      sub\n      swap1\n      revert\n        /* \"contracts/first_contract.sol\":2105:2234  if(block.timestamp < lastInterestDate + 10 seconds){\r... */\n    tag_107:\n        /* \"contracts/first_contract.sol\":2254:2268  initialAddress */\n      dup2\n        /* \"contracts/first_contract.sol\":2246:2278  payable(initialAddress).transfer */\n      0xffffffffffffffffffffffffffffffffffffffff\n      and\n        /* \"contracts/first_contract.sol\":2246:2287  payable(initialAddress).transfer(1 ether) */\n      0x08fc\n        /* \"contracts/first_contract.sol\":2279:2286  1 ether */\n      0x0de0b6b3a7640000\n        /* \"contracts/first_contract.sol\":2246:2287  payable(initialAddress).transfer(1 ether) */\n      swap1\n      dup2\n      iszero\n      mul\n      swap1\n      mload(0x40)\n      0x00\n      mload(0x40)\n      dup1\n      dup4\n      sub\n      dup2\n      dup6\n      dup9\n      dup9\n      call\n      swap4\n      pop\n      pop\n      pop\n      pop\n      iszero\n      dup1\n      iszero\n      tag_111\n      jumpi\n      returndatasize\n      0x00\n      dup1\n      returndatacopy\n      revert(0x00, returndatasize)\n    tag_111:\n      pop\n        /* \"contracts/first_contract.sol\":2331:2346  block.timestamp */\n      timestamp\n        /* \"contracts/first_contract.sol\":2300:2312  interestDate */\n      0x03\n        /* \"contracts/first_contract.sol\":2300:2328  interestDate[initialAddress] */\n      0x00\n        /* \"contracts/first_contract.sol\":2313:2327  initialAddress */\n      dup5\n        /* \"contracts/first_contract.sol\":2300:2328  interestDate[initialAddress] */\n      0xffffffffffffffffffffffffffffffffffffffff\n      and\n      0xffffffffffffffffffffffffffffffffffffffff\n      and\n      dup2\n      mstore\n      0x20\n      add\n      swap1\n      dup2\n      mstore\n      0x20\n      add\n      0x00\n      keccak256\n        /* \"contracts/first_contract.sol\":2300:2346  interestDate[initialAddress] = block.timestamp */\n      dup2\n      swap1\n      sstore\n      pop\n        /* \"contracts/first_contract.sol\":1964:2355  {\r... */\n      pop\n      pop\n        /* \"contracts/first_contract.sol\":1960:1963  i++ */\n      dup1\n      dup1\n      tag_112\n      swap1\n      tag_62\n      jump\t// in\n    tag_112:\n      swap2\n      pop\n      pop\n        /* \"contracts/first_contract.sol\":1930:2355  for(uint i=0;i<clients.length;i++){\r... */\n      jump(tag_99)\n    tag_100:\n      pop\n        /* \"contracts/first_contract.sol\":1872:2362  function sendInterest() public payable onlyManager{\r... */\n      jump\t// out\n        /* \"contracts/first_contract.sol\":1330:1560  function joinAsClient() public payable returns(string memory){\r... */\n    tag_32:\n        /* \"contracts/first_contract.sol\":1377:1390  string memory */\n      0x60\n        /* \"contracts/first_contract.sol\":1426:1441  block.timestamp */\n      timestamp\n        /* \"contracts/first_contract.sol\":1399:1411  interestDate */\n      0x03\n        /* \"contracts/first_contract.sol\":1399:1423  interestDate[msg.sender] */\n      0x00\n        /* \"contracts/first_contract.sol\":1412:1422  msg.sender */\n      caller\n        /* \"contracts/first_contract.sol\":1399:1423  interestDate[msg.sender] */\n      0xffffffffffffffffffffffffffffffffffffffff\n      and\n      0xffffffffffffffffffffffffffffffffffffffff\n      and\n      dup2\n      mstore\n      0x20\n      add\n      swap1\n      dup2\n      mstore\n      0x20\n      add\n      0x00\n      keccak256\n        /* \"contracts/first_contract.sol\":1399:1441  interestDate[msg.sender] = block.timestamp */\n      dup2\n      swap1\n      sstore\n      pop\n        /* \"contracts/first_contract.sol\":1449:1456  clients */\n      0x00\n        /* \"contracts/first_contract.sol\":1462:1534  client_account(clientCounter++, msg.sender, address(msg.sender).balance) */\n      mload(0x40)\n      dup1\n      0x60\n      add\n      0x40\n      mstore\n      dup1\n        /* \"contracts/first_contract.sol\":1477:1490  clientCounter */\n      0x01\n      0x00\n        /* \"contracts/first_contract.sol\":1477:1492  clientCounter++ */\n      dup2\n      sload\n      dup1\n      swap3\n      swap2\n      swap1\n      tag_114\n      swap1\n      tag_115\n      jump\t// in\n    tag_114:\n      swap2\n      swap1\n      pop\n      sstore\n        /* \"contracts/first_contract.sol\":1462:1534  client_account(clientCounter++, msg.sender, address(msg.sender).balance) */\n      dup2\n      mstore\n      0x20\n      add\n        /* \"contracts/first_contract.sol\":1494:1504  msg.sender */\n      caller\n        /* \"contracts/first_contract.sol\":1462:1534  client_account(clientCounter++, msg.sender, address(msg.sender).balance) */\n      0xffffffffffffffffffffffffffffffffffffffff\n      and\n      dup2\n      mstore\n      0x20\n      add\n        /* \"contracts/first_contract.sol\":1514:1524  msg.sender */\n      caller\n        /* \"contracts/first_contract.sol\":1506:1533  address(msg.sender).balance */\n      0xffffffffffffffffffffffffffffffffffffffff\n      and\n      balance\n        /* \"contracts/first_contract.sol\":1462:1534  client_account(clientCounter++, msg.sender, address(msg.sender).balance) */\n      dup2\n      mstore\n      pop\n        /* \"contracts/first_contract.sol\":1449:1535  clients.push(client_account(clientCounter++, msg.sender, address(msg.sender).balance)) */\n      swap1\n      dup1\n      0x01\n      dup2\n      sload\n      add\n      dup1\n      dup3\n      sstore\n      dup1\n      swap2\n      pop\n      pop\n      0x01\n      swap1\n      sub\n      swap1\n      0x00\n      mstore\n      keccak256(0x00, 0x20)\n      swap1\n      0x03\n      mul\n      add\n      0x00\n      swap1\n      swap2\n      swap1\n      swap2\n      swap1\n      swap2\n      pop\n      0x00\n      dup3\n      add\n      mload\n      dup2\n      0x00\n      add\n      sstore\n      0x20\n      dup3\n      add\n      mload\n      dup2\n      0x01\n      add\n      exp(0x0100, 0x00)\n      dup2\n      sload\n      dup2\n      0xffffffffffffffffffffffffffffffffffffffff\n      mul\n      not\n      and\n      swap1\n      dup4\n      0xffffffffffffffffffffffffffffffffffffffff\n      and\n      mul\n      or\n      swap1\n      sstore\n      pop\n      0x40\n      dup3\n      add\n      mload\n      dup2\n      0x02\n      add\n      sstore\n      pop\n      pop\n        /* \"contracts/first_contract.sol\":1543:1552  return \"\" */\n      mload(0x40)\n      dup1\n      0x20\n      add\n      0x40\n      mstore\n      dup1\n      0x00\n      dup2\n      mstore\n      pop\n      swap1\n      pop\n        /* \"contracts/first_contract.sol\":1330:1560  function joinAsClient() public payable returns(string memory){\r... */\n      swap1\n      jump\t// out\n        /* \"contracts/first_contract.sol\":1570:1673  function deposit() public payable onlyClients{\r... */\n    tag_36:\n        /* \"contracts/first_contract.sol\":849:862  bool isClient */\n      0x00\n        /* \"contracts/first_contract.sol\":885:891  uint i */\n      dup1\n        /* \"contracts/first_contract.sol\":881:1058  for(uint i=0;i<clients.length;i++){\r... */\n    tag_118:\n        /* \"contracts/first_contract.sol\":896:903  clients */\n      0x00\n        /* \"contracts/first_contract.sol\":896:910  clients.length */\n      dup1\n      sload\n      swap1\n      pop\n        /* \"contracts/first_contract.sol\":894:895  i */\n      dup2\n        /* \"contracts/first_contract.sol\":894:910  i<clients.length */\n      lt\n        /* \"contracts/first_contract.sol\":881:1058  for(uint i=0;i<clients.length;i++){\r... */\n      iszero\n      tag_119\n      jumpi\n        /* \"contracts/first_contract.sol\":962:972  msg.sender */\n      caller\n        /* \"contracts/first_contract.sol\":933:972  clients[i].client_address == msg.sender */\n      0xffffffffffffffffffffffffffffffffffffffff\n      and\n        /* \"contracts/first_contract.sol\":933:940  clients */\n      0x00\n        /* \"contracts/first_contract.sol\":941:942  i */\n      dup3\n        /* \"contracts/first_contract.sol\":933:943  clients[i] */\n      dup2\n      sload\n      dup2\n      lt\n      tag_121\n      jumpi\n      tag_122\n      tag_58\n      jump\t// in\n    tag_122:\n    tag_121:\n      swap1\n      0x00\n      mstore\n      keccak256(0x00, 0x20)\n      swap1\n      0x03\n      mul\n      add\n        /* \"contracts/first_contract.sol\":933:958  clients[i].client_address */\n      0x01\n      add\n      0x00\n      swap1\n      sload\n      swap1\n      0x0100\n      exp\n      swap1\n      div\n      0xffffffffffffffffffffffffffffffffffffffff\n      and\n        /* \"contracts/first_contract.sol\":933:972  clients[i].client_address == msg.sender */\n      0xffffffffffffffffffffffffffffffffffffffff\n      and\n      eq\n        /* \"contracts/first_contract.sol\":930:1047  if(clients[i].client_address == msg.sender){\r... */\n      iszero\n      tag_124\n      jumpi\n        /* \"contracts/first_contract.sol\":1003:1007  true */\n      0x01\n        /* \"contracts/first_contract.sol\":992:1007  isClient = true */\n      swap2\n      pop\n        /* \"contracts/first_contract.sol\":1026:1031  break */\n      jump(tag_119)\n        /* \"contracts/first_contract.sol\":930:1047  if(clients[i].client_address == msg.sender){\r... */\n    tag_124:\n        /* \"contracts/first_contract.sol\":911:914  i++ */\n      dup1\n      dup1\n      tag_125\n      swap1\n      tag_62\n      jump\t// in\n    tag_125:\n      swap2\n      pop\n      pop\n        /* \"contracts/first_contract.sol\":881:1058  for(uint i=0;i<clients.length;i++){\r... */\n      jump(tag_118)\n    tag_119:\n      pop\n        /* \"contracts/first_contract.sol\":1076:1084  isClient */\n      dup1\n        /* \"contracts/first_contract.sol\":1068:1111  require(isClient, \"Only clients can call!\") */\n      tag_126\n      jumpi\n      mload(0x40)\n      0x08c379a000000000000000000000000000000000000000000000000000000000\n      dup2\n      mstore\n      0x04\n      add\n      tag_127\n      swap1\n      tag_65\n      jump\t// in\n    tag_127:\n      mload(0x40)\n      dup1\n      swap2\n      sub\n      swap1\n      revert\n    tag_126:\n        /* \"contracts/first_contract.sol\":1639:1643  this */\n      address\n        /* \"contracts/first_contract.sol\":1623:1654  payable(address(this)).transfer */\n      0xffffffffffffffffffffffffffffffffffffffff\n      and\n        /* \"contracts/first_contract.sol\":1623:1665  payable(address(this)).transfer(msg.value) */\n      0x08fc\n        /* \"contracts/first_contract.sol\":1655:1664  msg.value */\n      callvalue\n        /* \"contracts/first_contract.sol\":1623:1665  payable(address(this)).transfer(msg.value) */\n      swap1\n      dup2\n      iszero\n      mul\n      swap1\n      mload(0x40)\n      0x00\n      mload(0x40)\n      dup1\n      dup4\n      sub\n      dup2\n      dup6\n      dup9\n      dup9\n      call\n      swap4\n      pop\n      pop\n      pop\n      pop\n      iszero\n      dup1\n      iszero\n      tag_130\n      jumpi\n      returndatasize\n      0x00\n      dup1\n      returndatacopy\n      revert(0x00, returndatasize)\n    tag_130:\n      pop\n        /* \"contracts/first_contract.sol\":838:1131  {\r... */\n      pop\n        /* \"contracts/first_contract.sol\":1570:1673  function deposit() public payable onlyClients{\r... */\n      jump\t// out\n        /* \"contracts/first_contract.sol\":1183:1322  function setManager(address managerAddress) public returns(string memory){\r... */\n    tag_41:\n        /* \"contracts/first_contract.sol\":1242:1255  string memory */\n      0x60\n        /* \"contracts/first_contract.sol\":1282:1296  managerAddress */\n      dup2\n        /* \"contracts/first_contract.sol\":1264:1271  manager */\n      0x02\n      0x00\n        /* \"contracts/first_contract.sol\":1264:1297  manager = payable(managerAddress) */\n      0x0100\n      exp\n      dup2\n      sload\n      dup2\n      0xffffffffffffffffffffffffffffffffffffffff\n      mul\n      not\n      and\n      swap1\n      dup4\n      0xffffffffffffffffffffffffffffffffffffffff\n      and\n      mul\n      or\n      swap1\n      sstore\n      pop\n        /* \"contracts/first_contract.sol\":1305:1314  return \"\" */\n      mload(0x40)\n      dup1\n      0x20\n      add\n      0x40\n      mstore\n      dup1\n      0x00\n      dup2\n      mstore\n      pop\n      swap1\n      pop\n        /* \"contracts/first_contract.sol\":1183:1322  function setManager(address managerAddress) public returns(string memory){\r... */\n      swap2\n      swap1\n      pop\n      jump\t// out\n        /* \"contracts/first_contract.sol\":580:624  mapping(address => uint) public interestDate */\n    tag_46:\n      mstore(0x20, 0x03)\n      dup1\n      0x00\n      mstore\n      keccak256(0x00, 0x40)\n      0x00\n      swap2\n      pop\n      swap1\n      pop\n      sload\n      dup2\n      jump\t// out\n        /* \"contracts/first_contract.sol\":2378:2495  function getCountClient() public view returns(uint){\r... */\n    tag_50:\n        /* \"contracts/first_contract.sol\":2424:2428  uint */\n      0x00\n        /* \"contracts/first_contract.sol\":2440:2450  uint count */\n      dup1\n        /* \"contracts/first_contract.sol\":2453:2460  clients */\n      0x00\n        /* \"contracts/first_contract.sol\":2453:2467  clients.length */\n      dup1\n      sload\n      swap1\n      pop\n        /* \"contracts/first_contract.sol\":2440:2467  uint count = clients.length */\n      swap1\n      pop\n        /* \"contracts/first_contract.sol\":2482:2487  count */\n      dup1\n        /* \"contracts/first_contract.sol\":2475:2487  return count */\n      swap2\n      pop\n      pop\n        /* \"contracts/first_contract.sol\":2378:2495  function getCountClient() public view returns(uint){\r... */\n      swap1\n      jump\t// out\n        /* \"#utility.yul\":7:146   */\n    tag_134:\n        /* \"#utility.yul\":53:58   */\n      0x00\n        /* \"#utility.yul\":91:97   */\n      dup2\n        /* \"#utility.yul\":78:98   */\n      calldataload\n        /* \"#utility.yul\":69:98   */\n      swap1\n      pop\n        /* \"#utility.yul\":107:140   */\n      tag_136\n        /* \"#utility.yul\":134:139   */\n      dup2\n        /* \"#utility.yul\":107:140   */\n      tag_137\n      jump\t// in\n    tag_136:\n        /* \"#utility.yul\":7:146   */\n      swap3\n      swap2\n      pop\n      pop\n      jump\t// out\n        /* \"#utility.yul\":152:291   */\n    tag_138:\n        /* \"#utility.yul\":198:203   */\n      0x00\n        /* \"#utility.yul\":236:242   */\n      dup2\n        /* \"#utility.yul\":223:243   */\n      calldataload\n        /* \"#utility.yul\":214:243   */\n      swap1\n      pop\n        /* \"#utility.yul\":252:285   */\n      tag_140\n        /* \"#utility.yul\":279:284   */\n      dup2\n        /* \"#utility.yul\":252:285   */\n      tag_141\n      jump\t// in\n    tag_140:\n        /* \"#utility.yul\":152:291   */\n      swap3\n      swap2\n      pop\n      pop\n      jump\t// out\n        /* \"#utility.yul\":297:626   */\n    tag_40:\n        /* \"#utility.yul\":356:362   */\n      0x00\n        /* \"#utility.yul\":405:407   */\n      0x20\n        /* \"#utility.yul\":393:402   */\n      dup3\n        /* \"#utility.yul\":384:391   */\n      dup5\n        /* \"#utility.yul\":380:403   */\n      sub\n        /* \"#utility.yul\":376:408   */\n      slt\n        /* \"#utility.yul\":373:492   */\n      iszero\n      tag_143\n      jumpi\n        /* \"#utility.yul\":411:490   */\n      tag_144\n      tag_145\n      jump\t// in\n    tag_144:\n        /* \"#utility.yul\":373:492   */\n    tag_143:\n        /* \"#utility.yul\":531:532   */\n      0x00\n        /* \"#utility.yul\":556:609   */\n      tag_146\n        /* \"#utility.yul\":601:608   */\n      dup5\n        /* \"#utility.yul\":592:598   */\n      dup3\n        /* \"#utility.yul\":581:590   */\n      dup6\n        /* \"#utility.yul\":577:599   */\n      add\n        /* \"#utility.yul\":556:609   */\n      tag_134\n      jump\t// in\n    tag_146:\n        /* \"#utility.yul\":546:609   */\n      swap2\n      pop\n        /* \"#utility.yul\":502:619   */\n      pop\n        /* \"#utility.yul\":297:626   */\n      swap3\n      swap2\n      pop\n      pop\n      jump\t// out\n        /* \"#utility.yul\":632:961   */\n    tag_17:\n        /* \"#utility.yul\":691:697   */\n      0x00\n        /* \"#utility.yul\":740:742   */\n      0x20\n        /* \"#utility.yul\":728:737   */\n      dup3\n        /* \"#utility.yul\":719:726   */\n      dup5\n        /* \"#utility.yul\":715:738   */\n      sub\n        /* \"#utility.yul\":711:743   */\n      slt\n        /* \"#utility.yul\":708:827   */\n      iszero\n      tag_148\n      jumpi\n        /* \"#utility.yul\":746:825   */\n      tag_149\n      tag_145\n      jump\t// in\n    tag_149:\n        /* \"#utility.yul\":708:827   */\n    tag_148:\n        /* \"#utility.yul\":866:867   */\n      0x00\n        /* \"#utility.yul\":891:944   */\n      tag_150\n        /* \"#utility.yul\":936:943   */\n      dup5\n        /* \"#utility.yul\":927:933   */\n      dup3\n        /* \"#utility.yul\":916:925   */\n      dup6\n        /* \"#utility.yul\":912:934   */\n      add\n        /* \"#utility.yul\":891:944   */\n      tag_138\n      jump\t// in\n    tag_150:\n        /* \"#utility.yul\":881:944   */\n      swap2\n      pop\n        /* \"#utility.yul\":837:954   */\n      pop\n        /* \"#utility.yul\":632:961   */\n      swap3\n      swap2\n      pop\n      pop\n      jump\t// out\n        /* \"#utility.yul\":967:1146   */\n    tag_151:\n        /* \"#utility.yul\":1036:1046   */\n      0x00\n        /* \"#utility.yul\":1057:1103   */\n      tag_153\n        /* \"#utility.yul\":1099:1102   */\n      dup4\n        /* \"#utility.yul\":1091:1097   */\n      dup4\n        /* \"#utility.yul\":1057:1103   */\n      tag_154\n      jump\t// in\n    tag_153:\n        /* \"#utility.yul\":1135:1139   */\n      0x20\n        /* \"#utility.yul\":1130:1133   */\n      dup4\n        /* \"#utility.yul\":1126:1140   */\n      add\n        /* \"#utility.yul\":1112:1140   */\n      swap1\n      pop\n        /* \"#utility.yul\":967:1146   */\n      swap3\n      swap2\n      pop\n      pop\n      jump\t// out\n        /* \"#utility.yul\":1152:1331   */\n    tag_155:\n        /* \"#utility.yul\":1221:1231   */\n      0x00\n        /* \"#utility.yul\":1242:1288   */\n      tag_157\n        /* \"#utility.yul\":1284:1287   */\n      dup4\n        /* \"#utility.yul\":1276:1282   */\n      dup4\n        /* \"#utility.yul\":1242:1288   */\n      tag_158\n      jump\t// in\n    tag_157:\n        /* \"#utility.yul\":1320:1324   */\n      0x20\n        /* \"#utility.yul\":1315:1318   */\n      dup4\n        /* \"#utility.yul\":1311:1325   */\n      add\n        /* \"#utility.yul\":1297:1325   */\n      swap1\n      pop\n        /* \"#utility.yul\":1152:1331   */\n      swap3\n      swap2\n      pop\n      pop\n      jump\t// out\n        /* \"#utility.yul\":1337:1445   */\n    tag_154:\n        /* \"#utility.yul\":1414:1438   */\n      tag_160\n        /* \"#utility.yul\":1432:1437   */\n      dup2\n        /* \"#utility.yul\":1414:1438   */\n      tag_161\n      jump\t// in\n    tag_160:\n        /* \"#utility.yul\":1409:1412   */\n      dup3\n        /* \"#utility.yul\":1402:1439   */\n      mstore\n        /* \"#utility.yul\":1337:1445   */\n      pop\n      pop\n      jump\t// out\n        /* \"#utility.yul\":1481:2213   */\n    tag_162:\n        /* \"#utility.yul\":1600:1603   */\n      0x00\n        /* \"#utility.yul\":1629:1683   */\n      tag_164\n        /* \"#utility.yul\":1677:1682   */\n      dup3\n        /* \"#utility.yul\":1629:1683   */\n      tag_165\n      jump\t// in\n    tag_164:\n        /* \"#utility.yul\":1699:1785   */\n      tag_166\n        /* \"#utility.yul\":1778:1784   */\n      dup2\n        /* \"#utility.yul\":1773:1776   */\n      dup6\n        /* \"#utility.yul\":1699:1785   */\n      tag_167\n      jump\t// in\n    tag_166:\n        /* \"#utility.yul\":1692:1785   */\n      swap4\n      pop\n        /* \"#utility.yul\":1809:1865   */\n      tag_168\n        /* \"#utility.yul\":1859:1864   */\n      dup4\n        /* \"#utility.yul\":1809:1865   */\n      tag_169\n      jump\t// in\n    tag_168:\n        /* \"#utility.yul\":1888:1895   */\n      dup1\n        /* \"#utility.yul\":1919:1920   */\n      0x00\n        /* \"#utility.yul\":1904:2188   */\n    tag_170:\n        /* \"#utility.yul\":1929:1935   */\n      dup4\n        /* \"#utility.yul\":1926:1927   */\n      dup2\n        /* \"#utility.yul\":1923:1936   */\n      lt\n        /* \"#utility.yul\":1904:2188   */\n      iszero\n      tag_172\n      jumpi\n        /* \"#utility.yul\":2005:2011   */\n      dup2\n        /* \"#utility.yul\":1999:2012   */\n      mload\n        /* \"#utility.yul\":2032:2095   */\n      tag_173\n        /* \"#utility.yul\":2091:2094   */\n      dup9\n        /* \"#utility.yul\":2076:2089   */\n      dup3\n        /* \"#utility.yul\":2032:2095   */\n      tag_151\n      jump\t// in\n    tag_173:\n        /* \"#utility.yul\":2025:2095   */\n      swap8\n      pop\n        /* \"#utility.yul\":2118:2178   */\n      tag_174\n        /* \"#utility.yul\":2171:2177   */\n      dup4\n        /* \"#utility.yul\":2118:2178   */\n      tag_175\n      jump\t// in\n    tag_174:\n        /* \"#utility.yul\":2108:2178   */\n      swap3\n      pop\n        /* \"#utility.yul\":1964:2188   */\n      pop\n        /* \"#utility.yul\":1951:1952   */\n      0x01\n        /* \"#utility.yul\":1948:1949   */\n      dup2\n        /* \"#utility.yul\":1944:1953   */\n      add\n        /* \"#utility.yul\":1939:1953   */\n      swap1\n      pop\n        /* \"#utility.yul\":1904:2188   */\n      jump(tag_170)\n    tag_172:\n        /* \"#utility.yul\":1908:1922   */\n      pop\n        /* \"#utility.yul\":2204:2207   */\n      dup6\n        /* \"#utility.yul\":2197:2207   */\n      swap4\n      pop\n        /* \"#utility.yul\":1605:2213   */\n      pop\n      pop\n      pop\n        /* \"#utility.yul\":1481:2213   */\n      swap3\n      swap2\n      pop\n      pop\n      jump\t// out\n        /* \"#utility.yul\":2249:2981   */\n    tag_176:\n        /* \"#utility.yul\":2368:2371   */\n      0x00\n        /* \"#utility.yul\":2397:2451   */\n      tag_178\n        /* \"#utility.yul\":2445:2450   */\n      dup3\n        /* \"#utility.yul\":2397:2451   */\n      tag_179\n      jump\t// in\n    tag_178:\n        /* \"#utility.yul\":2467:2553   */\n      tag_180\n        /* \"#utility.yul\":2546:2552   */\n      dup2\n        /* \"#utility.yul\":2541:2544   */\n      dup6\n        /* \"#utility.yul\":2467:2553   */\n      tag_181\n      jump\t// in\n    tag_180:\n        /* \"#utility.yul\":2460:2553   */\n      swap4\n      pop\n        /* \"#utility.yul\":2577:2633   */\n      tag_182\n        /* \"#utility.yul\":2627:2632   */\n      dup4\n        /* \"#utility.yul\":2577:2633   */\n      tag_183\n      jump\t// in\n    tag_182:\n        /* \"#utility.yul\":2656:2663   */\n      dup1\n        /* \"#utility.yul\":2687:2688   */\n      0x00\n        /* \"#utility.yul\":2672:2956   */\n    tag_184:\n        /* \"#utility.yul\":2697:2703   */\n      dup4\n        /* \"#utility.yul\":2694:2695   */\n      dup2\n        /* \"#utility.yul\":2691:2704   */\n      lt\n        /* \"#utility.yul\":2672:2956   */\n      iszero\n      tag_186\n      jumpi\n        /* \"#utility.yul\":2773:2779   */\n      dup2\n        /* \"#utility.yul\":2767:2780   */\n      mload\n        /* \"#utility.yul\":2800:2863   */\n      tag_187\n        /* \"#utility.yul\":2859:2862   */\n      dup9\n        /* \"#utility.yul\":2844:2857   */\n      dup3\n        /* \"#utility.yul\":2800:2863   */\n      tag_155\n      jump\t// in\n    tag_187:\n        /* \"#utility.yul\":2793:2863   */\n      swap8\n      pop\n        /* \"#utility.yul\":2886:2946   */\n      tag_188\n        /* \"#utility.yul\":2939:2945   */\n      dup4\n        /* \"#utility.yul\":2886:2946   */\n      tag_189\n      jump\t// in\n    tag_188:\n        /* \"#utility.yul\":2876:2946   */\n      swap3\n      pop\n        /* \"#utility.yul\":2732:2956   */\n      pop\n        /* \"#utility.yul\":2719:2720   */\n      0x01\n        /* \"#utility.yul\":2716:2717   */\n      dup2\n        /* \"#utility.yul\":2712:2721   */\n      add\n        /* \"#utility.yul\":2707:2721   */\n      swap1\n      pop\n        /* \"#utility.yul\":2672:2956   */\n      jump(tag_184)\n    tag_186:\n        /* \"#utility.yul\":2676:2690   */\n      pop\n        /* \"#utility.yul\":2972:2975   */\n      dup6\n        /* \"#utility.yul\":2965:2975   */\n      swap4\n      pop\n        /* \"#utility.yul\":2373:2981   */\n      pop\n      pop\n      pop\n        /* \"#utility.yul\":2249:2981   */\n      swap3\n      swap2\n      pop\n      pop\n      jump\t// out\n        /* \"#utility.yul\":2987:3351   */\n    tag_190:\n        /* \"#utility.yul\":3075:3078   */\n      0x00\n        /* \"#utility.yul\":3103:3142   */\n      tag_192\n        /* \"#utility.yul\":3136:3141   */\n      dup3\n        /* \"#utility.yul\":3103:3142   */\n      tag_193\n      jump\t// in\n    tag_192:\n        /* \"#utility.yul\":3158:3229   */\n      tag_194\n        /* \"#utility.yul\":3222:3228   */\n      dup2\n        /* \"#utility.yul\":3217:3220   */\n      dup6\n        /* \"#utility.yul\":3158:3229   */\n      tag_195\n      jump\t// in\n    tag_194:\n        /* \"#utility.yul\":3151:3229   */\n      swap4\n      pop\n        /* \"#utility.yul\":3238:3290   */\n      tag_196\n        /* \"#utility.yul\":3283:3289   */\n      dup2\n        /* \"#utility.yul\":3278:3281   */\n      dup6\n        /* \"#utility.yul\":3271:3275   */\n      0x20\n        /* \"#utility.yul\":3264:3269   */\n      dup7\n        /* \"#utility.yul\":3260:3276   */\n      add\n        /* \"#utility.yul\":3238:3290   */\n      tag_197\n      jump\t// in\n    tag_196:\n        /* \"#utility.yul\":3315:3344   */\n      tag_198\n        /* \"#utility.yul\":3337:3343   */\n      dup2\n        /* \"#utility.yul\":3315:3344   */\n      tag_199\n      jump\t// in\n    tag_198:\n        /* \"#utility.yul\":3310:3313   */\n      dup5\n        /* \"#utility.yul\":3306:3345   */\n      add\n        /* \"#utility.yul\":3299:3345   */\n      swap2\n      pop\n        /* \"#utility.yul\":3079:3351   */\n      pop\n        /* \"#utility.yul\":2987:3351   */\n      swap3\n      swap2\n      pop\n      pop\n      jump\t// out\n        /* \"#utility.yul\":3357:3723   */\n    tag_200:\n        /* \"#utility.yul\":3499:3502   */\n      0x00\n        /* \"#utility.yul\":3520:3587   */\n      tag_202\n        /* \"#utility.yul\":3584:3586   */\n      0x16\n        /* \"#utility.yul\":3579:3582   */\n      dup4\n        /* \"#utility.yul\":3520:3587   */\n      tag_195\n      jump\t// in\n    tag_202:\n        /* \"#utility.yul\":3513:3587   */\n      swap2\n      pop\n        /* \"#utility.yul\":3596:3689   */\n      tag_203\n        /* \"#utility.yul\":3685:3688   */\n      dup3\n        /* \"#utility.yul\":3596:3689   */\n      tag_204\n      jump\t// in\n    tag_203:\n        /* \"#utility.yul\":3714:3716   */\n      0x20\n        /* \"#utility.yul\":3709:3712   */\n      dup3\n        /* \"#utility.yul\":3705:3717   */\n      add\n        /* \"#utility.yul\":3698:3717   */\n      swap1\n      pop\n        /* \"#utility.yul\":3357:3723   */\n      swap2\n      swap1\n      pop\n      jump\t// out\n        /* \"#utility.yul\":3729:4095   */\n    tag_205:\n        /* \"#utility.yul\":3871:3874   */\n      0x00\n        /* \"#utility.yul\":3892:3959   */\n      tag_207\n        /* \"#utility.yul\":3956:3958   */\n      0x24\n        /* \"#utility.yul\":3951:3954   */\n      dup4\n        /* \"#utility.yul\":3892:3959   */\n      tag_195\n      jump\t// in\n    tag_207:\n        /* \"#utility.yul\":3885:3959   */\n      swap2\n      pop\n        /* \"#utility.yul\":3968:4061   */\n      tag_208\n        /* \"#utility.yul\":4057:4060   */\n      dup3\n        /* \"#utility.yul\":3968:4061   */\n      tag_209\n      jump\t// in\n    tag_208:\n        /* \"#utility.yul\":4086:4088   */\n      0x40\n        /* \"#utility.yul\":4081:4084   */\n      dup3\n        /* \"#utility.yul\":4077:4089   */\n      add\n        /* \"#utility.yul\":4070:4089   */\n      swap1\n      pop\n        /* \"#utility.yul\":3729:4095   */\n      swap2\n      swap1\n      pop\n      jump\t// out\n        /* \"#utility.yul\":4101:4467   */\n    tag_210:\n        /* \"#utility.yul\":4243:4246   */\n      0x00\n        /* \"#utility.yul\":4264:4331   */\n      tag_212\n        /* \"#utility.yul\":4328:4330   */\n      0x16\n        /* \"#utility.yul\":4323:4326   */\n      dup4\n        /* \"#utility.yul\":4264:4331   */\n      tag_195\n      jump\t// in\n    tag_212:\n        /* \"#utility.yul\":4257:4331   */\n      swap2\n      pop\n        /* \"#utility.yul\":4340:4433   */\n      tag_213\n        /* \"#utility.yul\":4429:4432   */\n      dup3\n        /* \"#utility.yul\":4340:4433   */\n      tag_214\n      jump\t// in\n    tag_213:\n        /* \"#utility.yul\":4458:4460   */\n      0x20\n        /* \"#utility.yul\":4453:4456   */\n      dup3\n        /* \"#utility.yul\":4449:4461   */\n      add\n        /* \"#utility.yul\":4442:4461   */\n      swap1\n      pop\n        /* \"#utility.yul\":4101:4467   */\n      swap2\n      swap1\n      pop\n      jump\t// out\n        /* \"#utility.yul\":4473:4581   */\n    tag_158:\n        /* \"#utility.yul\":4550:4574   */\n      tag_216\n        /* \"#utility.yul\":4568:4573   */\n      dup2\n        /* \"#utility.yul\":4550:4574   */\n      tag_217\n      jump\t// in\n    tag_216:\n        /* \"#utility.yul\":4545:4548   */\n      dup3\n        /* \"#utility.yul\":4538:4575   */\n      mstore\n        /* \"#utility.yul\":4473:4581   */\n      pop\n      pop\n      jump\t// out\n        /* \"#utility.yul\":4587:4705   */\n    tag_218:\n        /* \"#utility.yul\":4674:4698   */\n      tag_220\n        /* \"#utility.yul\":4692:4697   */\n      dup2\n        /* \"#utility.yul\":4674:4698   */\n      tag_217\n      jump\t// in\n    tag_220:\n        /* \"#utility.yul\":4669:4672   */\n      dup3\n        /* \"#utility.yul\":4662:4699   */\n      mstore\n        /* \"#utility.yul\":4587:4705   */\n      pop\n      pop\n      jump\t// out\n        /* \"#utility.yul\":4711:5345   */\n    tag_23:\n        /* \"#utility.yul\":4932:4936   */\n      0x00\n        /* \"#utility.yul\":4970:4972   */\n      0x40\n        /* \"#utility.yul\":4959:4968   */\n      dup3\n        /* \"#utility.yul\":4955:4973   */\n      add\n        /* \"#utility.yul\":4947:4973   */\n      swap1\n      pop\n        /* \"#utility.yul\":5019:5028   */\n      dup2\n        /* \"#utility.yul\":5013:5017   */\n      dup2\n        /* \"#utility.yul\":5009:5029   */\n      sub\n        /* \"#utility.yul\":5005:5006   */\n      0x00\n        /* \"#utility.yul\":4994:5003   */\n      dup4\n        /* \"#utility.yul\":4990:5007   */\n      add\n        /* \"#utility.yul\":4983:5030   */\n      mstore\n        /* \"#utility.yul\":5047:5155   */\n      tag_222\n        /* \"#utility.yul\":5150:5154   */\n      dup2\n        /* \"#utility.yul\":5141:5147   */\n      dup6\n        /* \"#utility.yul\":5047:5155   */\n      tag_162\n      jump\t// in\n    tag_222:\n        /* \"#utility.yul\":5039:5155   */\n      swap1\n      pop\n        /* \"#utility.yul\":5202:5211   */\n      dup2\n        /* \"#utility.yul\":5196:5200   */\n      dup2\n        /* \"#utility.yul\":5192:5212   */\n      sub\n        /* \"#utility.yul\":5187:5189   */\n      0x20\n        /* \"#utility.yul\":5176:5185   */\n      dup4\n        /* \"#utility.yul\":5172:5190   */\n      add\n        /* \"#utility.yul\":5165:5213   */\n      mstore\n        /* \"#utility.yul\":5230:5338   */\n      tag_223\n        /* \"#utility.yul\":5333:5337   */\n      dup2\n        /* \"#utility.yul\":5324:5330   */\n      dup5\n        /* \"#utility.yul\":5230:5338   */\n      tag_176\n      jump\t// in\n    tag_223:\n        /* \"#utility.yul\":5222:5338   */\n      swap1\n      pop\n        /* \"#utility.yul\":4711:5345   */\n      swap4\n      swap3\n      pop\n      pop\n      pop\n      jump\t// out\n        /* \"#utility.yul\":5351:5664   */\n    tag_34:\n        /* \"#utility.yul\":5464:5468   */\n      0x00\n        /* \"#utility.yul\":5502:5504   */\n      0x20\n        /* \"#utility.yul\":5491:5500   */\n      dup3\n        /* \"#utility.yul\":5487:5505   */\n      add\n        /* \"#utility.yul\":5479:5505   */\n      swap1\n      pop\n        /* \"#utility.yul\":5551:5560   */\n      dup2\n        /* \"#utility.yul\":5545:5549   */\n      dup2\n        /* \"#utility.yul\":5541:5561   */\n      sub\n        /* \"#utility.yul\":5537:5538   */\n      0x00\n        /* \"#utility.yul\":5526:5535   */\n      dup4\n        /* \"#utility.yul\":5522:5539   */\n      add\n        /* \"#utility.yul\":5515:5562   */\n      mstore\n        /* \"#utility.yul\":5579:5657   */\n      tag_225\n        /* \"#utility.yul\":5652:5656   */\n      dup2\n        /* \"#utility.yul\":5643:5649   */\n      dup5\n        /* \"#utility.yul\":5579:5657   */\n      tag_190\n      jump\t// in\n    tag_225:\n        /* \"#utility.yul\":5571:5657   */\n      swap1\n      pop\n        /* \"#utility.yul\":5351:5664   */\n      swap3\n      swap2\n      pop\n      pop\n      jump\t// out\n        /* \"#utility.yul\":5670:6089   */\n    tag_97:\n        /* \"#utility.yul\":5836:5840   */\n      0x00\n        /* \"#utility.yul\":5874:5876   */\n      0x20\n        /* \"#utility.yul\":5863:5872   */\n      dup3\n        /* \"#utility.yul\":5859:5877   */\n      add\n        /* \"#utility.yul\":5851:5877   */\n      swap1\n      pop\n        /* \"#utility.yul\":5923:5932   */\n      dup2\n        /* \"#utility.yul\":5917:5921   */\n      dup2\n        /* \"#utility.yul\":5913:5933   */\n      sub\n        /* \"#utility.yul\":5909:5910   */\n      0x00\n        /* \"#utility.yul\":5898:5907   */\n      dup4\n        /* \"#utility.yul\":5894:5911   */\n      add\n        /* \"#utility.yul\":5887:5934   */\n      mstore\n        /* \"#utility.yul\":5951:6082   */\n      tag_227\n        /* \"#utility.yul\":6077:6081   */\n      dup2\n        /* \"#utility.yul\":5951:6082   */\n      tag_200\n      jump\t// in\n    tag_227:\n        /* \"#utility.yul\":5943:6082   */\n      swap1\n      pop\n        /* \"#utility.yul\":5670:6089   */\n      swap2\n      swap1\n      pop\n      jump\t// out\n        /* \"#utility.yul\":6095:6514   */\n    tag_109:\n        /* \"#utility.yul\":6261:6265   */\n      0x00\n        /* \"#utility.yul\":6299:6301   */\n      0x20\n        /* \"#utility.yul\":6288:6297   */\n      dup3\n        /* \"#utility.yul\":6284:6302   */\n      add\n        /* \"#utility.yul\":6276:6302   */\n      swap1\n      pop\n        /* \"#utility.yul\":6348:6357   */\n      dup2\n        /* \"#utility.yul\":6342:6346   */\n      dup2\n        /* \"#utility.yul\":6338:6358   */\n      sub\n        /* \"#utility.yul\":6334:6335   */\n      0x00\n        /* \"#utility.yul\":6323:6332   */\n      dup4\n        /* \"#utility.yul\":6319:6336   */\n      add\n        /* \"#utility.yul\":6312:6359   */\n      mstore\n        /* \"#utility.yul\":6376:6507   */\n      tag_229\n        /* \"#utility.yul\":6502:6506   */\n      dup2\n        /* \"#utility.yul\":6376:6507   */\n      tag_205\n      jump\t// in\n    tag_229:\n        /* \"#utility.yul\":6368:6507   */\n      swap1\n      pop\n        /* \"#utility.yul\":6095:6514   */\n      swap2\n      swap1\n      pop\n      jump\t// out\n        /* \"#utility.yul\":6520:6939   */\n    tag_65:\n        /* \"#utility.yul\":6686:6690   */\n      0x00\n        /* \"#utility.yul\":6724:6726   */\n      0x20\n        /* \"#utility.yul\":6713:6722   */\n      dup3\n        /* \"#utility.yul\":6709:6727   */\n      add\n        /* \"#utility.yul\":6701:6727   */\n      swap1\n      pop\n        /* \"#utility.yul\":6773:6782   */\n      dup2\n        /* \"#utility.yul\":6767:6771   */\n      dup2\n        /* \"#utility.yul\":6763:6783   */\n      sub\n        /* \"#utility.yul\":6759:6760   */\n      0x00\n        /* \"#utility.yul\":6748:6757   */\n      dup4\n        /* \"#utility.yul\":6744:6761   */\n      add\n        /* \"#utility.yul\":6737:6784   */\n      mstore\n        /* \"#utility.yul\":6801:6932   */\n      tag_231\n        /* \"#utility.yul\":6927:6931   */\n      dup2\n        /* \"#utility.yul\":6801:6932   */\n      tag_210\n      jump\t// in\n    tag_231:\n        /* \"#utility.yul\":6793:6932   */\n      swap1\n      pop\n        /* \"#utility.yul\":6520:6939   */\n      swap2\n      swap1\n      pop\n      jump\t// out\n        /* \"#utility.yul\":6945:7167   */\n    tag_28:\n        /* \"#utility.yul\":7038:7042   */\n      0x00\n        /* \"#utility.yul\":7076:7078   */\n      0x20\n        /* \"#utility.yul\":7065:7074   */\n      dup3\n        /* \"#utility.yul\":7061:7079   */\n      add\n        /* \"#utility.yul\":7053:7079   */\n      swap1\n      pop\n        /* \"#utility.yul\":7089:7160   */\n      tag_233\n        /* \"#utility.yul\":7157:7158   */\n      0x00\n        /* \"#utility.yul\":7146:7155   */\n      dup4\n        /* \"#utility.yul\":7142:7159   */\n      add\n        /* \"#utility.yul\":7133:7139   */\n      dup5\n        /* \"#utility.yul\":7089:7160   */\n      tag_218\n      jump\t// in\n    tag_233:\n        /* \"#utility.yul\":6945:7167   */\n      swap3\n      swap2\n      pop\n      pop\n      jump\t// out\n        /* \"#utility.yul\":7254:7386   */\n    tag_169:\n        /* \"#utility.yul\":7321:7325   */\n      0x00\n        /* \"#utility.yul\":7344:7347   */\n      dup2\n        /* \"#utility.yul\":7336:7347   */\n      swap1\n      pop\n        /* \"#utility.yul\":7374:7378   */\n      0x20\n        /* \"#utility.yul\":7369:7372   */\n      dup3\n        /* \"#utility.yul\":7365:7379   */\n      add\n        /* \"#utility.yul\":7357:7379   */\n      swap1\n      pop\n        /* \"#utility.yul\":7254:7386   */\n      swap2\n      swap1\n      pop\n      jump\t// out\n        /* \"#utility.yul\":7392:7524   */\n    tag_183:\n        /* \"#utility.yul\":7459:7463   */\n      0x00\n        /* \"#utility.yul\":7482:7485   */\n      dup2\n        /* \"#utility.yul\":7474:7485   */\n      swap1\n      pop\n        /* \"#utility.yul\":7512:7516   */\n      0x20\n        /* \"#utility.yul\":7507:7510   */\n      dup3\n        /* \"#utility.yul\":7503:7517   */\n      add\n        /* \"#utility.yul\":7495:7517   */\n      swap1\n      pop\n        /* \"#utility.yul\":7392:7524   */\n      swap2\n      swap1\n      pop\n      jump\t// out\n        /* \"#utility.yul\":7530:7644   */\n    tag_165:\n        /* \"#utility.yul\":7597:7603   */\n      0x00\n        /* \"#utility.yul\":7631:7636   */\n      dup2\n        /* \"#utility.yul\":7625:7637   */\n      mload\n        /* \"#utility.yul\":7615:7637   */\n      swap1\n      pop\n        /* \"#utility.yul\":7530:7644   */\n      swap2\n      swap1\n      pop\n      jump\t// out\n        /* \"#utility.yul\":7650:7764   */\n    tag_179:\n        /* \"#utility.yul\":7717:7723   */\n      0x00\n        /* \"#utility.yul\":7751:7756   */\n      dup2\n        /* \"#utility.yul\":7745:7757   */\n      mload\n        /* \"#utility.yul\":7735:7757   */\n      swap1\n      pop\n        /* \"#utility.yul\":7650:7764   */\n      swap2\n      swap1\n      pop\n      jump\t// out\n        /* \"#utility.yul\":7770:7869   */\n    tag_193:\n        /* \"#utility.yul\":7822:7828   */\n      0x00\n        /* \"#utility.yul\":7856:7861   */\n      dup2\n        /* \"#utility.yul\":7850:7862   */\n      mload\n        /* \"#utility.yul\":7840:7862   */\n      swap1\n      pop\n        /* \"#utility.yul\":7770:7869   */\n      swap2\n      swap1\n      pop\n      jump\t// out\n        /* \"#utility.yul\":7875:7988   */\n    tag_175:\n        /* \"#utility.yul\":7945:7949   */\n      0x00\n        /* \"#utility.yul\":7977:7981   */\n      0x20\n        /* \"#utility.yul\":7972:7975   */\n      dup3\n        /* \"#utility.yul\":7968:7982   */\n      add\n        /* \"#utility.yul\":7960:7982   */\n      swap1\n      pop\n        /* \"#utility.yul\":7875:7988   */\n      swap2\n      swap1\n      pop\n      jump\t// out\n        /* \"#utility.yul\":7994:8107   */\n    tag_189:\n        /* \"#utility.yul\":8064:8068   */\n      0x00\n        /* \"#utility.yul\":8096:8100   */\n      0x20\n        /* \"#utility.yul\":8091:8094   */\n      dup3\n        /* \"#utility.yul\":8087:8101   */\n      add\n        /* \"#utility.yul\":8079:8101   */\n      swap1\n      pop\n        /* \"#utility.yul\":7994:8107   */\n      swap2\n      swap1\n      pop\n      jump\t// out\n        /* \"#utility.yul\":8113:8297   */\n    tag_167:\n        /* \"#utility.yul\":8212:8223   */\n      0x00\n        /* \"#utility.yul\":8246:8252   */\n      dup3\n        /* \"#utility.yul\":8241:8244   */\n      dup3\n        /* \"#utility.yul\":8234:8253   */\n      mstore\n        /* \"#utility.yul\":8286:8290   */\n      0x20\n        /* \"#utility.yul\":8281:8284   */\n      dup3\n        /* \"#utility.yul\":8277:8291   */\n      add\n        /* \"#utility.yul\":8262:8291   */\n      swap1\n      pop\n        /* \"#utility.yul\":8113:8297   */\n      swap3\n      swap2\n      pop\n      pop\n      jump\t// out\n        /* \"#utility.yul\":8303:8487   */\n    tag_181:\n        /* \"#utility.yul\":8402:8413   */\n      0x00\n        /* \"#utility.yul\":8436:8442   */\n      dup3\n        /* \"#utility.yul\":8431:8434   */\n      dup3\n        /* \"#utility.yul\":8424:8443   */\n      mstore\n        /* \"#utility.yul\":8476:8480   */\n      0x20\n        /* \"#utility.yul\":8471:8474   */\n      dup3\n        /* \"#utility.yul\":8467:8481   */\n      add\n        /* \"#utility.yul\":8452:8481   */\n      swap1\n      pop\n        /* \"#utility.yul\":8303:8487   */\n      swap3\n      swap2\n      pop\n      pop\n      jump\t// out\n        /* \"#utility.yul\":8493:8662   */\n    tag_195:\n        /* \"#utility.yul\":8577:8588   */\n      0x00\n        /* \"#utility.yul\":8611:8617   */\n      dup3\n        /* \"#utility.yul\":8606:8609   */\n      dup3\n        /* \"#utility.yul\":8599:8618   */\n      mstore\n        /* \"#utility.yul\":8651:8655   */\n      0x20\n        /* \"#utility.yul\":8646:8649   */\n      dup3\n        /* \"#utility.yul\":8642:8656   */\n      add\n        /* \"#utility.yul\":8627:8656   */\n      swap1\n      pop\n        /* \"#utility.yul\":8493:8662   */\n      swap3\n      swap2\n      pop\n      pop\n      jump\t// out\n        /* \"#utility.yul\":8668:8973   */\n    tag_106:\n        /* \"#utility.yul\":8708:8711   */\n      0x00\n        /* \"#utility.yul\":8727:8747   */\n      tag_247\n        /* \"#utility.yul\":8745:8746   */\n      dup3\n        /* \"#utility.yul\":8727:8747   */\n      tag_217\n      jump\t// in\n    tag_247:\n        /* \"#utility.yul\":8722:8747   */\n      swap2\n      pop\n        /* \"#utility.yul\":8761:8781   */\n      tag_248\n        /* \"#utility.yul\":8779:8780   */\n      dup4\n        /* \"#utility.yul\":8761:8781   */\n      tag_217\n      jump\t// in\n    tag_248:\n        /* \"#utility.yul\":8756:8781   */\n      swap3\n      pop\n        /* \"#utility.yul\":8915:8916   */\n      dup3\n        /* \"#utility.yul\":8847:8913   */\n      0xffffffffffffffffffffffffffffffffffffffffffffffffffffffffffffffff\n        /* \"#utility.yul\":8843:8917   */\n      sub\n        /* \"#utility.yul\":8840:8841   */\n      dup3\n        /* \"#utility.yul\":8837:8918   */\n      gt\n        /* \"#utility.yul\":8834:8941   */\n      iszero\n      tag_249\n      jumpi\n        /* \"#utility.yul\":8921:8939   */\n      tag_250\n      tag_251\n      jump\t// in\n    tag_250:\n        /* \"#utility.yul\":8834:8941   */\n    tag_249:\n        /* \"#utility.yul\":8965:8966   */\n      dup3\n        /* \"#utility.yul\":8962:8963   */\n      dup3\n        /* \"#utility.yul\":8958:8967   */\n      add\n        /* \"#utility.yul\":8951:8967   */\n      swap1\n      pop\n        /* \"#utility.yul\":8668:8973   */\n      swap3\n      swap2\n      pop\n      pop\n      jump\t// out\n        /* \"#utility.yul\":8979:9327   */\n    tag_68:\n        /* \"#utility.yul\":9019:9026   */\n      0x00\n        /* \"#utility.yul\":9042:9062   */\n      tag_253\n        /* \"#utility.yul\":9060:9061   */\n      dup3\n        /* \"#utility.yul\":9042:9062   */\n      tag_217\n      jump\t// in\n    tag_253:\n        /* \"#utility.yul\":9037:9062   */\n      swap2\n      pop\n        /* \"#utility.yul\":9076:9096   */\n      tag_254\n        /* \"#utility.yul\":9094:9095   */\n      dup4\n        /* \"#utility.yul\":9076:9096   */\n      tag_217\n      jump\t// in\n    tag_254:\n        /* \"#utility.yul\":9071:9096   */\n      swap3\n      pop\n        /* \"#utility.yul\":9264:9265   */\n      dup2\n        /* \"#utility.yul\":9196:9262   */\n      0xffffffffffffffffffffffffffffffffffffffffffffffffffffffffffffffff\n        /* \"#utility.yul\":9192:9266   */\n      div\n        /* \"#utility.yul\":9189:9190   */\n      dup4\n        /* \"#utility.yul\":9186:9267   */\n      gt\n        /* \"#utility.yul\":9181:9182   */\n      dup3\n        /* \"#utility.yul\":9174:9183   */\n      iszero\n        /* \"#utility.yul\":9167:9184   */\n      iszero\n        /* \"#utility.yul\":9163:9268   */\n      and\n        /* \"#utility.yul\":9160:9291   */\n      iszero\n      tag_255\n      jumpi\n        /* \"#utility.yul\":9271:9289   */\n      tag_256\n      tag_251\n      jump\t// in\n    tag_256:\n        /* \"#utility.yul\":9160:9291   */\n    tag_255:\n        /* \"#utility.yul\":9319:9320   */\n      dup3\n        /* \"#utility.yul\":9316:9317   */\n      dup3\n        /* \"#utility.yul\":9312:9321   */\n      mul\n        /* \"#utility.yul\":9301:9321   */\n      swap1\n      pop\n        /* \"#utility.yul\":8979:9327   */\n      swap3\n      swap2\n      pop\n      pop\n      jump\t// out\n        /* \"#utility.yul\":9333:9429   */\n    tag_161:\n        /* \"#utility.yul\":9370:9377   */\n      0x00\n        /* \"#utility.yul\":9399:9423   */\n      tag_258\n        /* \"#utility.yul\":9417:9422   */\n      dup3\n        /* \"#utility.yul\":9399:9423   */\n      tag_259\n      jump\t// in\n    tag_258:\n        /* \"#utility.yul\":9388:9423   */\n      swap1\n      pop\n        /* \"#utility.yul\":9333:9429   */\n      swap2\n      swap1\n      pop\n      jump\t// out\n        /* \"#utility.yul\":9435:9511   */\n    tag_260:\n        /* \"#utility.yul\":9471:9478   */\n      0x00\n        /* \"#utility.yul\":9500:9505   */\n      dup2\n        /* \"#utility.yul\":9489:9505   */\n      swap1\n      pop\n        /* \"#utility.yul\":9435:9511   */\n      swap2\n      swap1\n      pop\n      jump\t// out\n        /* \"#utility.yul\":9517:9643   */\n    tag_259:\n        /* \"#utility.yul\":9554:9561   */\n      0x00\n        /* \"#utility.yul\":9594:9636   */\n      0xffffffffffffffffffffffffffffffffffffffff\n        /* \"#utility.yul\":9587:9592   */\n      dup3\n        /* \"#utility.yul\":9583:9637   */\n      and\n        /* \"#utility.yul\":9572:9637   */\n      swap1\n      pop\n        /* \"#utility.yul\":9517:9643   */\n      swap2\n      swap1\n      pop\n      jump\t// out\n        /* \"#utility.yul\":9649:9726   */\n    tag_217:\n        /* \"#utility.yul\":9686:9693   */\n      0x00\n        /* \"#utility.yul\":9715:9720   */\n      dup2\n        /* \"#utility.yul\":9704:9720   */\n      swap1\n      pop\n        /* \"#utility.yul\":9649:9726   */\n      swap2\n      swap1\n      pop\n      jump\t// out\n        /* \"#utility.yul\":9732:10039   */\n    tag_197:\n        /* \"#utility.yul\":9800:9801   */\n      0x00\n        /* \"#utility.yul\":9810:9923   */\n    tag_265:\n        /* \"#utility.yul\":9824:9830   */\n      dup4\n        /* \"#utility.yul\":9821:9822   */\n      dup2\n        /* \"#utility.yul\":9818:9831   */\n      lt\n        /* \"#utility.yul\":9810:9923   */\n      iszero\n      tag_267\n      jumpi\n        /* \"#utility.yul\":9909:9910   */\n      dup1\n        /* \"#utility.yul\":9904:9907   */\n      dup3\n        /* \"#utility.yul\":9900:9911   */\n      add\n        /* \"#utility.yul\":9894:9912   */\n      mload\n        /* \"#utility.yul\":9890:9891   */\n      dup2\n        /* \"#utility.yul\":9885:9888   */\n      dup5\n        /* \"#utility.yul\":9881:9892   */\n      add\n        /* \"#utility.yul\":9874:9913   */\n      mstore\n        /* \"#utility.yul\":9846:9848   */\n      0x20\n        /* \"#utility.yul\":9843:9844   */\n      dup2\n        /* \"#utility.yul\":9839:9849   */\n      add\n        /* \"#utility.yul\":9834:9849   */\n      swap1\n      pop\n        /* \"#utility.yul\":9810:9923   */\n      jump(tag_265)\n    tag_267:\n        /* \"#utility.yul\":9941:9947   */\n      dup4\n        /* \"#utility.yul\":9938:9939   */\n      dup2\n        /* \"#utility.yul\":9935:9948   */\n      gt\n        /* \"#utility.yul\":9932:10033   */\n      iszero\n      tag_268\n      jumpi\n        /* \"#utility.yul\":10021:10022   */\n      0x00\n        /* \"#utility.yul\":10012:10018   */\n      dup5\n        /* \"#utility.yul\":10007:10010   */\n      dup5\n        /* \"#utility.yul\":10003:10019   */\n      add\n        /* \"#utility.yul\":9996:10023   */\n      mstore\n        /* \"#utility.yul\":9932:10033   */\n    tag_268:\n        /* \"#utility.yul\":9781:10039   */\n      pop\n        /* \"#utility.yul\":9732:10039   */\n      pop\n      pop\n      pop\n      jump\t// out\n        /* \"#utility.yul\":10045:10276   */\n    tag_115:\n        /* \"#utility.yul\":10083:10086   */\n      0x00\n        /* \"#utility.yul\":10106:10129   */\n      tag_270\n        /* \"#utility.yul\":10123:10128   */\n      dup3\n        /* \"#utility.yul\":10106:10129   */\n      tag_260\n      jump\t// in\n    tag_270:\n        /* \"#utility.yul\":10097:10129   */\n      swap2\n      pop\n        /* \"#utility.yul\":10151:10217   */\n      0x7fffffffffffffffffffffffffffffffffffffffffffffffffffffffffffffff\n        /* \"#utility.yul\":10144:10149   */\n      dup3\n        /* \"#utility.yul\":10141:10218   */\n      eq\n        /* \"#utility.yul\":10138:10241   */\n      iszero\n      tag_271\n      jumpi\n        /* \"#utility.yul\":10221:10239   */\n      tag_272\n      tag_251\n      jump\t// in\n    tag_272:\n        /* \"#utility.yul\":10138:10241   */\n    tag_271:\n        /* \"#utility.yul\":10268:10269   */\n      0x01\n        /* \"#utility.yul\":10261:10266   */\n      dup3\n        /* \"#utility.yul\":10257:10270   */\n      add\n        /* \"#utility.yul\":10250:10270   */\n      swap1\n      pop\n        /* \"#utility.yul\":10045:10276   */\n      swap2\n      swap1\n      pop\n      jump\t// out\n        /* \"#utility.yul\":10282:10515   */\n    tag_62:\n        /* \"#utility.yul\":10321:10324   */\n      0x00\n        /* \"#utility.yul\":10344:10368   */\n      tag_274\n        /* \"#utility.yul\":10362:10367   */\n      dup3\n        /* \"#utility.yul\":10344:10368   */\n      tag_217\n      jump\t// in\n    tag_274:\n        /* \"#utility.yul\":10335:10368   */\n      swap2\n      pop\n        /* \"#utility.yul\":10390:10456   */\n      0xffffffffffffffffffffffffffffffffffffffffffffffffffffffffffffffff\n        /* \"#utility.yul\":10383:10388   */\n      dup3\n        /* \"#utility.yul\":10380:10457   */\n      eq\n        /* \"#utility.yul\":10377:10480   */\n      iszero\n      tag_275\n      jumpi\n        /* \"#utility.yul\":10460:10478   */\n      tag_276\n      tag_251\n      jump\t// in\n    tag_276:\n        /* \"#utility.yul\":10377:10480   */\n    tag_275:\n        /* \"#utility.yul\":10507:10508   */\n      0x01\n        /* \"#utility.yul\":10500:10505   */\n      dup3\n        /* \"#utility.yul\":10496:10509   */\n      add\n        /* \"#utility.yul\":10489:10509   */\n      swap1\n      pop\n        /* \"#utility.yul\":10282:10515   */\n      swap2\n      swap1\n      pop\n      jump\t// out\n        /* \"#utility.yul\":10521:10701   */\n    tag_251:\n        /* \"#utility.yul\":10569:10646   */\n      0x4e487b7100000000000000000000000000000000000000000000000000000000\n        /* \"#utility.yul\":10566:10567   */\n      0x00\n        /* \"#utility.yul\":10559:10647   */\n      mstore\n        /* \"#utility.yul\":10666:10670   */\n      0x11\n        /* \"#utility.yul\":10663:10664   */\n      0x04\n        /* \"#utility.yul\":10656:10671   */\n      mstore\n        /* \"#utility.yul\":10690:10694   */\n      0x24\n        /* \"#utility.yul\":10687:10688   */\n      0x00\n        /* \"#utility.yul\":10680:10695   */\n      revert\n        /* \"#utility.yul\":10707:10887   */\n    tag_58:\n        /* \"#utility.yul\":10755:10832   */\n      0x4e487b7100000000000000000000000000000000000000000000000000000000\n        /* \"#utility.yul\":10752:10753   */\n      0x00\n        /* \"#utility.yul\":10745:10833   */\n      mstore\n        /* \"#utility.yul\":10852:10856   */\n      0x32\n        /* \"#utility.yul\":10849:10850   */\n      0x04\n        /* \"#utility.yul\":10842:10857   */\n      mstore\n        /* \"#utility.yul\":10876:10880   */\n      0x24\n        /* \"#utility.yul\":10873:10874   */\n      0x00\n        /* \"#utility.yul\":10866:10881   */\n      revert\n        /* \"#utility.yul\":10893:11073   */\n    tag_74:\n        /* \"#utility.yul\":10941:11018   */\n      0x4e487b7100000000000000000000000000000000000000000000000000000000\n        /* \"#utility.yul\":10938:10939   */\n      0x00\n        /* \"#utility.yul\":10931:11019   */\n      mstore\n        /* \"#utility.yul\":11038:11042   */\n      0x41\n        /* \"#utility.yul\":11035:11036   */\n      0x04\n        /* \"#utility.yul\":11028:11043   */\n      mstore\n        /* \"#utility.yul\":11062:11066   */\n      0x24\n        /* \"#utility.yul\":11059:11060   */\n      0x00\n        /* \"#utility.yul\":11052:11067   */\n      revert\n        /* \"#utility.yul\":11202:11319   */\n    tag_145:\n        /* \"#utility.yul\":11311:11312   */\n      0x00\n        /* \"#utility.yul\":11308:11309   */\n      dup1\n        /* \"#utility.yul\":11301:11313   */\n      revert\n        /* \"#utility.yul\":11325:11427   */\n    tag_199:\n        /* \"#utility.yul\":11366:11372   */\n      0x00\n        /* \"#utility.yul\":11417:11419   */\n      0x1f\n        /* \"#utility.yul\":11413:11420   */\n      not\n        /* \"#utility.yul\":11408:11410   */\n      0x1f\n        /* \"#utility.yul\":11401:11406   */\n      dup4\n        /* \"#utility.yul\":11397:11411   */\n      add\n        /* \"#utility.yul\":11393:11421   */\n      and\n        /* \"#utility.yul\":11383:11421   */\n      swap1\n      pop\n        /* \"#utility.yul\":11325:11427   */\n      swap2\n      swap1\n      pop\n      jump\t// out\n        /* \"#utility.yul\":11433:11605   */\n    tag_204:\n        /* \"#utility.yul\":11573:11597   */\n      0x4f6e6c79206d616e616765722063616e2063616c6c2100000000000000000000\n        /* \"#utility.yul\":11569:11570   */\n      0x00\n        /* \"#utility.yul\":11561:11567   */\n      dup3\n        /* \"#utility.yul\":11557:11571   */\n      add\n        /* \"#utility.yul\":11550:11598   */\n      mstore\n        /* \"#utility.yul\":11433:11605   */\n      pop\n      jump\t// out\n        /* \"#utility.yul\":11611:11834   */\n    tag_209:\n        /* \"#utility.yul\":11751:11785   */\n      0x49742773206a757374206265656e206c657373207468616e203130207365636f\n        /* \"#utility.yul\":11747:11748   */\n      0x00\n        /* \"#utility.yul\":11739:11745   */\n      dup3\n        /* \"#utility.yul\":11735:11749   */\n      add\n        /* \"#utility.yul\":11728:11786   */\n      mstore\n        /* \"#utility.yul\":11820:11826   */\n      0x6e64732100000000000000000000000000000000000000000000000000000000\n        /* \"#utility.yul\":11815:11817   */\n      0x20\n        /* \"#utility.yul\":11807:11813   */\n      dup3\n        /* \"#utility.yul\":11803:11818   */\n      add\n        /* \"#utility.yul\":11796:11827   */\n      mstore\n        /* \"#utility.yul\":11611:11834   */\n      pop\n      jump\t// out\n        /* \"#utility.yul\":11840:12012   */\n    tag_214:\n        /* \"#utility.yul\":11980:12004   */\n      0x4f6e6c7920636c69656e74732063616e2063616c6c2100000000000000000000\n        /* \"#utility.yul\":11976:11977   */\n      0x00\n        /* \"#utility.yul\":11968:11974   */\n      dup3\n        /* \"#utility.yul\":11964:11978   */\n      add\n        /* \"#utility.yul\":11957:12005   */\n      mstore\n        /* \"#utility.yul\":11840:12012   */\n      pop\n      jump\t// out\n        /* \"#utility.yul\":12018:12140   */\n    tag_137:\n        /* \"#utility.yul\":12091:12115   */\n      tag_288\n        /* \"#utility.yul\":12109:12114   */\n      dup2\n        /* \"#utility.yul\":12091:12115   */\n      tag_161\n      jump\t// in\n    tag_288:\n        /* \"#utility.yul\":12084:12089   */\n      dup2\n        /* \"#utility.yul\":12081:12116   */\n      eq\n        /* \"#utility.yul\":12071:12134   */\n      tag_289\n      jumpi\n        /* \"#utility.yul\":12130:12131   */\n      0x00\n        /* \"#utility.yul\":12127:12128   */\n      dup1\n        /* \"#utility.yul\":12120:12132   */\n      revert\n        /* \"#utility.yul\":12071:12134   */\n    tag_289:\n        /* \"#utility.yul\":12018:12140   */\n      pop\n      jump\t// out\n        /* \"#utility.yul\":12146:12268   */\n    tag_141:\n        /* \"#utility.yul\":12219:12243   */\n      tag_291\n        /* \"#utility.yul\":12237:12242   */\n      dup2\n        /* \"#utility.yul\":12219:12243   */\n      tag_217\n      jump\t// in\n    tag_291:\n        /* \"#utility.yul\":12212:12217   */\n      dup2\n        /* \"#utility.yul\":12209:12244   */\n      eq\n        /* \"#utility.yul\":12199:12262   */\n      tag_292\n      jumpi\n        /* \"#utility.yul\":12258:12259   */\n      0x00\n        /* \"#utility.yul\":12255:12256   */\n      dup1\n        /* \"#utility.yul\":12248:12260   */\n      revert\n        /* \"#utility.yul\":12199:12262   */\n    tag_292:\n        /* \"#utility.yul\":12146:12268   */\n      pop\n      jump\t// out\n\n    auxdata: 0xa26469706673582212208bf8fa54ecb8c9b3a4420b4da17e1937def6d2d42ce52f449070ce69b9c4d92c64736f6c63430008070033\n}\n",
				"bytecode": {
					"linkReferences": {},
					"object": "608060405234801561001057600080fd5b5060006001819055506110fa806100286000396000f3fe60806040526004361061008a5760003560e01c8063a409217411610059578063a409217414610113578063d0e30db014610131578063d0ebdbe71461013b578063d9dca6c514610178578063fef75470146101b557610091565b80632e1a7d4d146100965780636db80995146100b25780636f9fb98a146100de5780639e0a5d681461010957610091565b3661009157005b600080fd5b6100b060048036038101906100ab9190610a4d565b6101e0565b005b3480156100be57600080fd5b506100c7610324565b6040516100d5929190610c35565b60405180910390f35b3480156100ea57600080fd5b506100f36104d1565b6040516101009190610cee565b60405180910390f35b6101116104d9565b005b61011b610700565b6040516101289190610c6c565b60405180910390f35b610139610841565b005b34801561014757600080fd5b50610162600480360381019061015d9190610a20565b610972565b60405161016f9190610c6c565b60405180910390f35b34801561018457600080fd5b5061019f600480360381019061019a9190610a20565b6109cc565b6040516101ac9190610cee565b60405180910390f35b3480156101c157600080fd5b506101ca6109e4565b6040516101d79190610cee565b60405180910390f35b6000805b600080549050811015610286573373ffffffffffffffffffffffffffffffffffffffff166000828154811061021c5761021b610f81565b5b906000526020600020906003020160010160009054906101000a900473ffffffffffffffffffffffffffffffffffffffff1673ffffffffffffffffffffffffffffffffffffffff1614156102735760019150610286565b808061027e90610f09565b9150506101e4565b50806102c7576040517f08c379a00000000000000000000000000000000000000000000000000000000081526004016102be90610cce565b60405180910390fd5b60003390508073ffffffffffffffffffffffffffffffffffffffff166108fc6001856102f39190610ded565b9081150290604051600060405180830381858888f1935050505015801561031e573d6000803e3d6000fd5b50505050565b6060806000808054905067ffffffffffffffff81111561034757610346610fb0565b5b6040519080825280602002602001820160405280156103755781602001602082028036833780820191505090505b5090506000808054905067ffffffffffffffff81111561039857610397610fb0565b5b6040519080825280602002602001820160405280156103c65781602001602082028036833780820191505090505b50905060005b6000805490508110156104c457600081815481106103ed576103ec610f81565b5b906000526020600020906003020160010160009054906101000a900473ffffffffffffffffffffffffffffffffffffffff1683828151811061043257610431610f81565b5b602002602001019073ffffffffffffffffffffffffffffffffffffffff16908173ffffffffffffffffffffffffffffffffffffffff1681525050600081815481106104805761047f610f81565b5b9060005260206000209060030201600201548282815181106104a5576104a4610f81565b5b60200260200101818152505080806104bc90610f09565b9150506103cc565b5081819350935050509091565b600047905090565b600260009054906101000a900473ffffffffffffffffffffffffffffffffffffffff1673ffffffffffffffffffffffffffffffffffffffff163373ffffffffffffffffffffffffffffffffffffffff1614610569576040517f08c379a000000000000000000000000000000000000000000000000000000000815260040161056090610c8e565b60405180910390fd5b60005b6000805490508110156106fd57600080828154811061058e5761058d610f81565b5b906000526020600020906003020160010160009054906101000a900473ffffffffffffffffffffffffffffffffffffffff1690506000600360008373ffffffffffffffffffffffffffffffffffffffff1673ffffffffffffffffffffffffffffffffffffffff168152602001908152602001600020549050600a816106139190610d97565b421015610655576040517f08c379a000000000000000000000000000000000000000000000000000000000815260040161064c90610cae565b60405180910390fd5b8173ffffffffffffffffffffffffffffffffffffffff166108fc670de0b6b3a76400009081150290604051600060405180830381858888f193505050501580156106a3573d6000803e3d6000fd5b5042600360008473ffffffffffffffffffffffffffffffffffffffff1673ffffffffffffffffffffffffffffffffffffffff16815260200190815260200160002081905550505080806106f590610f09565b91505061056c565b50565b606042600360003373ffffffffffffffffffffffffffffffffffffffff1673ffffffffffffffffffffffffffffffffffffffff16815260200190815260200160002081905550600060405180606001604052806001600081548092919061076690610ec0565b9190505581526020013373ffffffffffffffffffffffffffffffffffffffff1681526020013373ffffffffffffffffffffffffffffffffffffffff163181525090806001815401808255809150506001900390600052602060002090600302016000909190919091506000820151816000015560208201518160010160006101000a81548173ffffffffffffffffffffffffffffffffffffffff021916908373ffffffffffffffffffffffffffffffffffffffff16021790555060408201518160020155505060405180602001604052806000815250905090565b6000805b6000805490508110156108e7573373ffffffffffffffffffffffffffffffffffffffff166000828154811061087d5761087c610f81565b5b906000526020600020906003020160010160009054906101000a900473ffffffffffffffffffffffffffffffffffffffff1673ffffffffffffffffffffffffffffffffffffffff1614156108d457600191506108e7565b80806108df90610f09565b915050610845565b5080610928576040517f08c379a000000000000000000000000000000000000000000000000000000000815260040161091f90610cce565b60405180910390fd5b3073ffffffffffffffffffffffffffffffffffffffff166108fc349081150290604051600060405180830381858888f1935050505015801561096e573d6000803e3d6000fd5b5050565b606081600260006101000a81548173ffffffffffffffffffffffffffffffffffffffff021916908373ffffffffffffffffffffffffffffffffffffffff160217905550604051806020016040528060008152509050919050565b60036020528060005260406000206000915090505481565b60008060008054905090508091505090565b600081359050610a0581611096565b92915050565b600081359050610a1a816110ad565b92915050565b600060208284031215610a3657610a35610fdf565b5b6000610a44848285016109f6565b91505092915050565b600060208284031215610a6357610a62610fdf565b5b6000610a7184828501610a0b565b91505092915050565b6000610a868383610aaa565b60208301905092915050565b6000610a9e8383610c17565b60208301905092915050565b610ab381610e47565b82525050565b6000610ac482610d29565b610ace8185610d64565b9350610ad983610d09565b8060005b83811015610b0a578151610af18882610a7a565b9750610afc83610d4a565b925050600181019050610add565b5085935050505092915050565b6000610b2282610d34565b610b2c8185610d75565b9350610b3783610d19565b8060005b83811015610b68578151610b4f8882610a92565b9750610b5a83610d57565b925050600181019050610b3b565b5085935050505092915050565b6000610b8082610d3f565b610b8a8185610d86565b9350610b9a818560208601610e8d565b610ba381610fe4565b840191505092915050565b6000610bbb601683610d86565b9150610bc682610ff5565b602082019050919050565b6000610bde602483610d86565b9150610be98261101e565b604082019050919050565b6000610c01601683610d86565b9150610c0c8261106d565b602082019050919050565b610c2081610e83565b82525050565b610c2f81610e83565b82525050565b60006040820190508181036000830152610c4f8185610ab9565b90508181036020830152610c638184610b17565b90509392505050565b60006020820190508181036000830152610c868184610b75565b905092915050565b60006020820190508181036000830152610ca781610bae565b9050919050565b60006020820190508181036000830152610cc781610bd1565b9050919050565b60006020820190508181036000830152610ce781610bf4565b9050919050565b6000602082019050610d036000830184610c26565b92915050565b6000819050602082019050919050565b6000819050602082019050919050565b600081519050919050565b600081519050919050565b600081519050919050565b6000602082019050919050565b6000602082019050919050565b600082825260208201905092915050565b600082825260208201905092915050565b600082825260208201905092915050565b6000610da282610e83565b9150610dad83610e83565b9250827fffffffffffffffffffffffffffffffffffffffffffffffffffffffffffffffff03821115610de257610de1610f52565b5b828201905092915050565b6000610df882610e83565b9150610e0383610e83565b9250817fffffffffffffffffffffffffffffffffffffffffffffffffffffffffffffffff0483118215151615610e3c57610e3b610f52565b5b828202905092915050565b6000610e5282610e63565b9050919050565b6000819050919050565b600073ffffffffffffffffffffffffffffffffffffffff82169050919050565b6000819050919050565b60005b83811015610eab578082015181840152602081019050610e90565b83811115610eba576000848401525b50505050565b6000610ecb82610e59565b91507f7fffffffffffffffffffffffffffffffffffffffffffffffffffffffffffffff821415610efe57610efd610f52565b5b600182019050919050565b6000610f1482610e83565b91507fffffffffffffffffffffffffffffffffffffffffffffffffffffffffffffffff821415610f4757610f46610f52565b5b600182019050919050565b7f4e487b7100000000000000000000000000000000000000000000000000000000600052601160045260246000fd5b7f4e487b7100000000000000000000000000000000000000000000000000000000600052603260045260246000fd5b7f4e487b7100000000000000000000000000000000000000000000000000000000600052604160045260246000fd5b600080fd5b6000601f19601f8301169050919050565b7f4f6e6c79206d616e616765722063616e2063616c6c2100000000000000000000600082015250565b7f49742773206a757374206265656e206c657373207468616e203130207365636f60008201527f6e64732100000000000000000000000000000000000000000000000000000000602082015250565b7f4f6e6c7920636c69656e74732063616e2063616c6c2100000000000000000000600082015250565b61109f81610e47565b81146110aa57600080fd5b50565b6110b681610e83565b81146110c157600080fd5b5056fea26469706673582212208bf8fa54ecb8c9b3a4420b4da17e1937def6d2d42ce52f449070ce69b9c4d92c64736f6c63430008070033",
					"opcodes": "PUSH1 0x80 PUSH1 0x40 MSTORE CALLVALUE DUP1 ISZERO PUSH2 0x10 JUMPI PUSH1 0x0 DUP1 REVERT JUMPDEST POP PUSH1 0x0 PUSH1 0x1 DUP2 SWAP1 SSTORE POP PUSH2 0x10FA DUP1 PUSH2 0x28 PUSH1 0x0 CODECOPY PUSH1 0x0 RETURN INVALID PUSH1 0x80 PUSH1 0x40 MSTORE PUSH1 0x4 CALLDATASIZE LT PUSH2 0x8A JUMPI PUSH1 0x0 CALLDATALOAD PUSH1 0xE0 SHR DUP1 PUSH4 0xA4092174 GT PUSH2 0x59 JUMPI DUP1 PUSH4 0xA4092174 EQ PUSH2 0x113 JUMPI DUP1 PUSH4 0xD0E30DB0 EQ PUSH2 0x131 JUMPI DUP1 PUSH4 0xD0EBDBE7 EQ PUSH2 0x13B JUMPI DUP1 PUSH4 0xD9DCA6C5 EQ PUSH2 0x178 JUMPI DUP1 PUSH4 0xFEF75470 EQ PUSH2 0x1B5 JUMPI PUSH2 0x91 JUMP JUMPDEST DUP1 PUSH4 0x2E1A7D4D EQ PUSH2 0x96 JUMPI DUP1 PUSH4 0x6DB80995 EQ PUSH2 0xB2 JUMPI DUP1 PUSH4 0x6F9FB98A EQ PUSH2 0xDE JUMPI DUP1 PUSH4 0x9E0A5D68 EQ PUSH2 0x109 JUMPI PUSH2 0x91 JUMP JUMPDEST CALLDATASIZE PUSH2 0x91 JUMPI STOP JUMPDEST PUSH1 0x0 DUP1 REVERT JUMPDEST PUSH2 0xB0 PUSH1 0x4 DUP1 CALLDATASIZE SUB DUP2 ADD SWAP1 PUSH2 0xAB SWAP2 SWAP1 PUSH2 0xA4D JUMP JUMPDEST PUSH2 0x1E0 JUMP JUMPDEST STOP JUMPDEST CALLVALUE DUP1 ISZERO PUSH2 0xBE JUMPI PUSH1 0x0 DUP1 REVERT JUMPDEST POP PUSH2 0xC7 PUSH2 0x324 JUMP JUMPDEST PUSH1 0x40 MLOAD PUSH2 0xD5 SWAP3 SWAP2 SWAP1 PUSH2 0xC35 JUMP JUMPDEST PUSH1 0x40 MLOAD DUP1 SWAP2 SUB SWAP1 RETURN JUMPDEST CALLVALUE DUP1 ISZERO PUSH2 0xEA JUMPI PUSH1 0x0 DUP1 REVERT JUMPDEST POP PUSH2 0xF3 PUSH2 0x4D1 JUMP JUMPDEST PUSH1 0x40 MLOAD PUSH2 0x100 SWAP2 SWAP1 PUSH2 0xCEE JUMP JUMPDEST PUSH1 0x40 MLOAD DUP1 SWAP2 SUB SWAP1 RETURN JUMPDEST PUSH2 0x111 PUSH2 0x4D9 JUMP JUMPDEST STOP JUMPDEST PUSH2 0x11B PUSH2 0x700 JUMP JUMPDEST PUSH1 0x40 MLOAD PUSH2 0x128 SWAP2 SWAP1 PUSH2 0xC6C JUMP JUMPDEST PUSH1 0x40 MLOAD DUP1 SWAP2 SUB SWAP1 RETURN JUMPDEST PUSH2 0x139 PUSH2 0x841 JUMP JUMPDEST STOP JUMPDEST CALLVALUE DUP1 ISZERO PUSH2 0x147 JUMPI PUSH1 0x0 DUP1 REVERT JUMPDEST POP PUSH2 0x162 PUSH1 0x4 DUP1 CALLDATASIZE SUB DUP2 ADD SWAP1 PUSH2 0x15D SWAP2 SWAP1 PUSH2 0xA20 JUMP JUMPDEST PUSH2 0x972 JUMP JUMPDEST PUSH1 0x40 MLOAD PUSH2 0x16F SWAP2 SWAP1 PUSH2 0xC6C JUMP JUMPDEST PUSH1 0x40 MLOAD DUP1 SWAP2 SUB SWAP1 RETURN JUMPDEST CALLVALUE DUP1 ISZERO PUSH2 0x184 JUMPI PUSH1 0x0 DUP1 REVERT JUMPDEST POP PUSH2 0x19F PUSH1 0x4 DUP1 CALLDATASIZE SUB DUP2 ADD SWAP1 PUSH2 0x19A SWAP2 SWAP1 PUSH2 0xA20 JUMP JUMPDEST PUSH2 0x9CC JUMP JUMPDEST PUSH1 0x40 MLOAD PUSH2 0x1AC SWAP2 SWAP1 PUSH2 0xCEE JUMP JUMPDEST PUSH1 0x40 MLOAD DUP1 SWAP2 SUB SWAP1 RETURN JUMPDEST CALLVALUE DUP1 ISZERO PUSH2 0x1C1 JUMPI PUSH1 0x0 DUP1 REVERT JUMPDEST POP PUSH2 0x1CA PUSH2 0x9E4 JUMP JUMPDEST PUSH1 0x40 MLOAD PUSH2 0x1D7 SWAP2 SWAP1 PUSH2 0xCEE JUMP JUMPDEST PUSH1 0x40 MLOAD DUP1 SWAP2 SUB SWAP1 RETURN JUMPDEST PUSH1 0x0 DUP1 JUMPDEST PUSH1 0x0 DUP1 SLOAD SWAP1 POP DUP2 LT ISZERO PUSH2 0x286 JUMPI CALLER PUSH20 0xFFFFFFFFFFFFFFFFFFFFFFFFFFFFFFFFFFFFFFFF AND PUSH1 0x0 DUP3 DUP2 SLOAD DUP2 LT PUSH2 0x21C JUMPI PUSH2 0x21B PUSH2 0xF81 JUMP JUMPDEST JUMPDEST SWAP1 PUSH1 0x0 MSTORE PUSH1 0x20 PUSH1 0x0 KECCAK256 SWAP1 PUSH1 0x3 MUL ADD PUSH1 0x1 ADD PUSH1 0x0 SWAP1 SLOAD SWAP1 PUSH2 0x100 EXP SWAP1 DIV PUSH20 0xFFFFFFFFFFFFFFFFFFFFFFFFFFFFFFFFFFFFFFFF AND PUSH20 0xFFFFFFFFFFFFFFFFFFFFFFFFFFFFFFFFFFFFFFFF AND EQ ISZERO PUSH2 0x273 JUMPI PUSH1 0x1 SWAP2 POP PUSH2 0x286 JUMP JUMPDEST DUP1 DUP1 PUSH2 0x27E SWAP1 PUSH2 0xF09 JUMP JUMPDEST SWAP2 POP POP PUSH2 0x1E4 JUMP JUMPDEST POP DUP1 PUSH2 0x2C7 JUMPI PUSH1 0x40 MLOAD PUSH32 0x8C379A000000000000000000000000000000000000000000000000000000000 DUP2 MSTORE PUSH1 0x4 ADD PUSH2 0x2BE SWAP1 PUSH2 0xCCE JUMP JUMPDEST PUSH1 0x40 MLOAD DUP1 SWAP2 SUB SWAP1 REVERT JUMPDEST PUSH1 0x0 CALLER SWAP1 POP DUP1 PUSH20 0xFFFFFFFFFFFFFFFFFFFFFFFFFFFFFFFFFFFFFFFF AND PUSH2 0x8FC PUSH1 0x1 DUP6 PUSH2 0x2F3 SWAP2 SWAP1 PUSH2 0xDED JUMP JUMPDEST SWAP1 DUP2 ISZERO MUL SWAP1 PUSH1 0x40 MLOAD PUSH1 0x0 PUSH1 0x40 MLOAD DUP1 DUP4 SUB DUP2 DUP6 DUP9 DUP9 CALL SWAP4 POP POP POP POP ISZERO DUP1 ISZERO PUSH2 0x31E JUMPI RETURNDATASIZE PUSH1 0x0 DUP1 RETURNDATACOPY RETURNDATASIZE PUSH1 0x0 REVERT JUMPDEST POP POP POP POP JUMP JUMPDEST PUSH1 0x60 DUP1 PUSH1 0x0 DUP1 DUP1 SLOAD SWAP1 POP PUSH8 0xFFFFFFFFFFFFFFFF DUP2 GT ISZERO PUSH2 0x347 JUMPI PUSH2 0x346 PUSH2 0xFB0 JUMP JUMPDEST JUMPDEST PUSH1 0x40 MLOAD SWAP1 DUP1 DUP3 MSTORE DUP1 PUSH1 0x20 MUL PUSH1 0x20 ADD DUP3 ADD PUSH1 0x40 MSTORE DUP1 ISZERO PUSH2 0x375 JUMPI DUP2 PUSH1 0x20 ADD PUSH1 0x20 DUP3 MUL DUP1 CALLDATASIZE DUP4 CALLDATACOPY DUP1 DUP3 ADD SWAP2 POP POP SWAP1 POP JUMPDEST POP SWAP1 POP PUSH1 0x0 DUP1 DUP1 SLOAD SWAP1 POP PUSH8 0xFFFFFFFFFFFFFFFF DUP2 GT ISZERO PUSH2 0x398 JUMPI PUSH2 0x397 PUSH2 0xFB0 JUMP JUMPDEST JUMPDEST PUSH1 0x40 MLOAD SWAP1 DUP1 DUP3 MSTORE DUP1 PUSH1 0x20 MUL PUSH1 0x20 ADD DUP3 ADD PUSH1 0x40 MSTORE DUP1 ISZERO PUSH2 0x3C6 JUMPI DUP2 PUSH1 0x20 ADD PUSH1 0x20 DUP3 MUL DUP1 CALLDATASIZE DUP4 CALLDATACOPY DUP1 DUP3 ADD SWAP2 POP POP SWAP1 POP JUMPDEST POP SWAP1 POP PUSH1 0x0 JUMPDEST PUSH1 0x0 DUP1 SLOAD SWAP1 POP DUP2 LT ISZERO PUSH2 0x4C4 JUMPI PUSH1 0x0 DUP2 DUP2 SLOAD DUP2 LT PUSH2 0x3ED JUMPI PUSH2 0x3EC PUSH2 0xF81 JUMP JUMPDEST JUMPDEST SWAP1 PUSH1 0x0 MSTORE PUSH1 0x20 PUSH1 0x0 KECCAK256 SWAP1 PUSH1 0x3 MUL ADD PUSH1 0x1 ADD PUSH1 0x0 SWAP1 SLOAD SWAP1 PUSH2 0x100 EXP SWAP1 DIV PUSH20 0xFFFFFFFFFFFFFFFFFFFFFFFFFFFFFFFFFFFFFFFF AND DUP4 DUP3 DUP2 MLOAD DUP2 LT PUSH2 0x432 JUMPI PUSH2 0x431 PUSH2 0xF81 JUMP JUMPDEST JUMPDEST PUSH1 0x20 MUL PUSH1 0x20 ADD ADD SWAP1 PUSH20 0xFFFFFFFFFFFFFFFFFFFFFFFFFFFFFFFFFFFFFFFF AND SWAP1 DUP2 PUSH20 0xFFFFFFFFFFFFFFFFFFFFFFFFFFFFFFFFFFFFFFFF AND DUP2 MSTORE POP POP PUSH1 0x0 DUP2 DUP2 SLOAD DUP2 LT PUSH2 0x480 JUMPI PUSH2 0x47F PUSH2 0xF81 JUMP JUMPDEST JUMPDEST SWAP1 PUSH1 0x0 MSTORE PUSH1 0x20 PUSH1 0x0 KECCAK256 SWAP1 PUSH1 0x3 MUL ADD PUSH1 0x2 ADD SLOAD DUP3 DUP3 DUP2 MLOAD DUP2 LT PUSH2 0x4A5 JUMPI PUSH2 0x4A4 PUSH2 0xF81 JUMP JUMPDEST JUMPDEST PUSH1 0x20 MUL PUSH1 0x20 ADD ADD DUP2 DUP2 MSTORE POP POP DUP1 DUP1 PUSH2 0x4BC SWAP1 PUSH2 0xF09 JUMP JUMPDEST SWAP2 POP POP PUSH2 0x3CC JUMP JUMPDEST POP DUP2 DUP2 SWAP4 POP SWAP4 POP POP POP SWAP1 SWAP2 JUMP JUMPDEST PUSH1 0x0 SELFBALANCE SWAP1 POP SWAP1 JUMP JUMPDEST PUSH1 0x2 PUSH1 0x0 SWAP1 SLOAD SWAP1 PUSH2 0x100 EXP SWAP1 DIV PUSH20 0xFFFFFFFFFFFFFFFFFFFFFFFFFFFFFFFFFFFFFFFF AND PUSH20 0xFFFFFFFFFFFFFFFFFFFFFFFFFFFFFFFFFFFFFFFF AND CALLER PUSH20 0xFFFFFFFFFFFFFFFFFFFFFFFFFFFFFFFFFFFFFFFF AND EQ PUSH2 0x569 JUMPI PUSH1 0x40 MLOAD PUSH32 0x8C379A000000000000000000000000000000000000000000000000000000000 DUP2 MSTORE PUSH1 0x4 ADD PUSH2 0x560 SWAP1 PUSH2 0xC8E JUMP JUMPDEST PUSH1 0x40 MLOAD DUP1 SWAP2 SUB SWAP1 REVERT JUMPDEST PUSH1 0x0 JUMPDEST PUSH1 0x0 DUP1 SLOAD SWAP1 POP DUP2 LT ISZERO PUSH2 0x6FD JUMPI PUSH1 0x0 DUP1 DUP3 DUP2 SLOAD DUP2 LT PUSH2 0x58E JUMPI PUSH2 0x58D PUSH2 0xF81 JUMP JUMPDEST JUMPDEST SWAP1 PUSH1 0x0 MSTORE PUSH1 0x20 PUSH1 0x0 KECCAK256 SWAP1 PUSH1 0x3 MUL ADD PUSH1 0x1 ADD PUSH1 0x0 SWAP1 SLOAD SWAP1 PUSH2 0x100 EXP SWAP1 DIV PUSH20 0xFFFFFFFFFFFFFFFFFFFFFFFFFFFFFFFFFFFFFFFF AND SWAP1 POP PUSH1 0x0 PUSH1 0x3 PUSH1 0x0 DUP4 PUSH20 0xFFFFFFFFFFFFFFFFFFFFFFFFFFFFFFFFFFFFFFFF AND PUSH20 0xFFFFFFFFFFFFFFFFFFFFFFFFFFFFFFFFFFFFFFFF AND DUP2 MSTORE PUSH1 0x20 ADD SWAP1 DUP2 MSTORE PUSH1 0x20 ADD PUSH1 0x0 KECCAK256 SLOAD SWAP1 POP PUSH1 0xA DUP2 PUSH2 0x613 SWAP2 SWAP1 PUSH2 0xD97 JUMP JUMPDEST TIMESTAMP LT ISZERO PUSH2 0x655 JUMPI PUSH1 0x40 MLOAD PUSH32 0x8C379A000000000000000000000000000000000000000000000000000000000 DUP2 MSTORE PUSH1 0x4 ADD PUSH2 0x64C SWAP1 PUSH2 0xCAE JUMP JUMPDEST PUSH1 0x40 MLOAD DUP1 SWAP2 SUB SWAP1 REVERT JUMPDEST DUP2 PUSH20 0xFFFFFFFFFFFFFFFFFFFFFFFFFFFFFFFFFFFFFFFF AND PUSH2 0x8FC PUSH8 0xDE0B6B3A7640000 SWAP1 DUP2 ISZERO MUL SWAP1 PUSH1 0x40 MLOAD PUSH1 0x0 PUSH1 0x40 MLOAD DUP1 DUP4 SUB DUP2 DUP6 DUP9 DUP9 CALL SWAP4 POP POP POP POP ISZERO DUP1 ISZERO PUSH2 0x6A3 JUMPI RETURNDATASIZE PUSH1 0x0 DUP1 RETURNDATACOPY RETURNDATASIZE PUSH1 0x0 REVERT JUMPDEST POP TIMESTAMP PUSH1 0x3 PUSH1 0x0 DUP5 PUSH20 0xFFFFFFFFFFFFFFFFFFFFFFFFFFFFFFFFFFFFFFFF AND PUSH20 0xFFFFFFFFFFFFFFFFFFFFFFFFFFFFFFFFFFFFFFFF AND DUP2 MSTORE PUSH1 0x20 ADD SWAP1 DUP2 MSTORE PUSH1 0x20 ADD PUSH1 0x0 KECCAK256 DUP2 SWAP1 SSTORE POP POP POP DUP1 DUP1 PUSH2 0x6F5 SWAP1 PUSH2 0xF09 JUMP JUMPDEST SWAP2 POP POP PUSH2 0x56C JUMP JUMPDEST POP JUMP JUMPDEST PUSH1 0x60 TIMESTAMP PUSH1 0x3 PUSH1 0x0 CALLER PUSH20 0xFFFFFFFFFFFFFFFFFFFFFFFFFFFFFFFFFFFFFFFF AND PUSH20 0xFFFFFFFFFFFFFFFFFFFFFFFFFFFFFFFFFFFFFFFF AND DUP2 MSTORE PUSH1 0x20 ADD SWAP1 DUP2 MSTORE PUSH1 0x20 ADD PUSH1 0x0 KECCAK256 DUP2 SWAP1 SSTORE POP PUSH1 0x0 PUSH1 0x40 MLOAD DUP1 PUSH1 0x60 ADD PUSH1 0x40 MSTORE DUP1 PUSH1 0x1 PUSH1 0x0 DUP2 SLOAD DUP1 SWAP3 SWAP2 SWAP1 PUSH2 0x766 SWAP1 PUSH2 0xEC0 JUMP JUMPDEST SWAP2 SWAP1 POP SSTORE DUP2 MSTORE PUSH1 0x20 ADD CALLER PUSH20 0xFFFFFFFFFFFFFFFFFFFFFFFFFFFFFFFFFFFFFFFF AND DUP2 MSTORE PUSH1 0x20 ADD CALLER PUSH20 0xFFFFFFFFFFFFFFFFFFFFFFFFFFFFFFFFFFFFFFFF AND BALANCE DUP2 MSTORE POP SWAP1 DUP1 PUSH1 0x1 DUP2 SLOAD ADD DUP1 DUP3 SSTORE DUP1 SWAP2 POP POP PUSH1 0x1 SWAP1 SUB SWAP1 PUSH1 0x0 MSTORE PUSH1 0x20 PUSH1 0x0 KECCAK256 SWAP1 PUSH1 0x3 MUL ADD PUSH1 0x0 SWAP1 SWAP2 SWAP1 SWAP2 SWAP1 SWAP2 POP PUSH1 0x0 DUP3 ADD MLOAD DUP2 PUSH1 0x0 ADD SSTORE PUSH1 0x20 DUP3 ADD MLOAD DUP2 PUSH1 0x1 ADD PUSH1 0x0 PUSH2 0x100 EXP DUP2 SLOAD DUP2 PUSH20 0xFFFFFFFFFFFFFFFFFFFFFFFFFFFFFFFFFFFFFFFF MUL NOT AND SWAP1 DUP4 PUSH20 0xFFFFFFFFFFFFFFFFFFFFFFFFFFFFFFFFFFFFFFFF AND MUL OR SWAP1 SSTORE POP PUSH1 0x40 DUP3 ADD MLOAD DUP2 PUSH1 0x2 ADD SSTORE POP POP PUSH1 0x40 MLOAD DUP1 PUSH1 0x20 ADD PUSH1 0x40 MSTORE DUP1 PUSH1 0x0 DUP2 MSTORE POP SWAP1 POP SWAP1 JUMP JUMPDEST PUSH1 0x0 DUP1 JUMPDEST PUSH1 0x0 DUP1 SLOAD SWAP1 POP DUP2 LT ISZERO PUSH2 0x8E7 JUMPI CALLER PUSH20 0xFFFFFFFFFFFFFFFFFFFFFFFFFFFFFFFFFFFFFFFF AND PUSH1 0x0 DUP3 DUP2 SLOAD DUP2 LT PUSH2 0x87D JUMPI PUSH2 0x87C PUSH2 0xF81 JUMP JUMPDEST JUMPDEST SWAP1 PUSH1 0x0 MSTORE PUSH1 0x20 PUSH1 0x0 KECCAK256 SWAP1 PUSH1 0x3 MUL ADD PUSH1 0x1 ADD PUSH1 0x0 SWAP1 SLOAD SWAP1 PUSH2 0x100 EXP SWAP1 DIV PUSH20 0xFFFFFFFFFFFFFFFFFFFFFFFFFFFFFFFFFFFFFFFF AND PUSH20 0xFFFFFFFFFFFFFFFFFFFFFFFFFFFFFFFFFFFFFFFF AND EQ ISZERO PUSH2 0x8D4 JUMPI PUSH1 0x1 SWAP2 POP PUSH2 0x8E7 JUMP JUMPDEST DUP1 DUP1 PUSH2 0x8DF SWAP1 PUSH2 0xF09 JUMP JUMPDEST SWAP2 POP POP PUSH2 0x845 JUMP JUMPDEST POP DUP1 PUSH2 0x928 JUMPI PUSH1 0x40 MLOAD PUSH32 0x8C379A000000000000000000000000000000000000000000000000000000000 DUP2 MSTORE PUSH1 0x4 ADD PUSH2 0x91F SWAP1 PUSH2 0xCCE JUMP JUMPDEST PUSH1 0x40 MLOAD DUP1 SWAP2 SUB SWAP1 REVERT JUMPDEST ADDRESS PUSH20 0xFFFFFFFFFFFFFFFFFFFFFFFFFFFFFFFFFFFFFFFF AND PUSH2 0x8FC CALLVALUE SWAP1 DUP2 ISZERO MUL SWAP1 PUSH1 0x40 MLOAD PUSH1 0x0 PUSH1 0x40 MLOAD DUP1 DUP4 SUB DUP2 DUP6 DUP9 DUP9 CALL SWAP4 POP POP POP POP ISZERO DUP1 ISZERO PUSH2 0x96E JUMPI RETURNDATASIZE PUSH1 0x0 DUP1 RETURNDATACOPY RETURNDATASIZE PUSH1 0x0 REVERT JUMPDEST POP POP JUMP JUMPDEST PUSH1 0x60 DUP2 PUSH1 0x2 PUSH1 0x0 PUSH2 0x100 EXP DUP2 SLOAD DUP2 PUSH20 0xFFFFFFFFFFFFFFFFFFFFFFFFFFFFFFFFFFFFFFFF MUL NOT AND SWAP1 DUP4 PUSH20 0xFFFFFFFFFFFFFFFFFFFFFFFFFFFFFFFFFFFFFFFF AND MUL OR SWAP1 SSTORE POP PUSH1 0x40 MLOAD DUP1 PUSH1 0x20 ADD PUSH1 0x40 MSTORE DUP1 PUSH1 0x0 DUP2 MSTORE POP SWAP1 POP SWAP2 SWAP1 POP JUMP JUMPDEST PUSH1 0x3 PUSH1 0x20 MSTORE DUP1 PUSH1 0x0 MSTORE PUSH1 0x40 PUSH1 0x0 KECCAK256 PUSH1 0x0 SWAP2 POP SWAP1 POP SLOAD DUP2 JUMP JUMPDEST PUSH1 0x0 DUP1 PUSH1 0x0 DUP1 SLOAD SWAP1 POP SWAP1 POP DUP1 SWAP2 POP POP SWAP1 JUMP JUMPDEST PUSH1 0x0 DUP2 CALLDATALOAD SWAP1 POP PUSH2 0xA05 DUP2 PUSH2 0x1096 JUMP JUMPDEST SWAP3 SWAP2 POP POP JUMP JUMPDEST PUSH1 0x0 DUP2 CALLDATALOAD SWAP1 POP PUSH2 0xA1A DUP2 PUSH2 0x10AD JUMP JUMPDEST SWAP3 SWAP2 POP POP JUMP JUMPDEST PUSH1 0x0 PUSH1 0x20 DUP3 DUP5 SUB SLT ISZERO PUSH2 0xA36 JUMPI PUSH2 0xA35 PUSH2 0xFDF JUMP JUMPDEST JUMPDEST PUSH1 0x0 PUSH2 0xA44 DUP5 DUP3 DUP6 ADD PUSH2 0x9F6 JUMP JUMPDEST SWAP2 POP POP SWAP3 SWAP2 POP POP JUMP JUMPDEST PUSH1 0x0 PUSH1 0x20 DUP3 DUP5 SUB SLT ISZERO PUSH2 0xA63 JUMPI PUSH2 0xA62 PUSH2 0xFDF JUMP JUMPDEST JUMPDEST PUSH1 0x0 PUSH2 0xA71 DUP5 DUP3 DUP6 ADD PUSH2 0xA0B JUMP JUMPDEST SWAP2 POP POP SWAP3 SWAP2 POP POP JUMP JUMPDEST PUSH1 0x0 PUSH2 0xA86 DUP4 DUP4 PUSH2 0xAAA JUMP JUMPDEST PUSH1 0x20 DUP4 ADD SWAP1 POP SWAP3 SWAP2 POP POP JUMP JUMPDEST PUSH1 0x0 PUSH2 0xA9E DUP4 DUP4 PUSH2 0xC17 JUMP JUMPDEST PUSH1 0x20 DUP4 ADD SWAP1 POP SWAP3 SWAP2 POP POP JUMP JUMPDEST PUSH2 0xAB3 DUP2 PUSH2 0xE47 JUMP JUMPDEST DUP3 MSTORE POP POP JUMP JUMPDEST PUSH1 0x0 PUSH2 0xAC4 DUP3 PUSH2 0xD29 JUMP JUMPDEST PUSH2 0xACE DUP2 DUP6 PUSH2 0xD64 JUMP JUMPDEST SWAP4 POP PUSH2 0xAD9 DUP4 PUSH2 0xD09 JUMP JUMPDEST DUP1 PUSH1 0x0 JUMPDEST DUP4 DUP2 LT ISZERO PUSH2 0xB0A JUMPI DUP2 MLOAD PUSH2 0xAF1 DUP9 DUP3 PUSH2 0xA7A JUMP JUMPDEST SWAP8 POP PUSH2 0xAFC DUP4 PUSH2 0xD4A JUMP JUMPDEST SWAP3 POP POP PUSH1 0x1 DUP2 ADD SWAP1 POP PUSH2 0xADD JUMP JUMPDEST POP DUP6 SWAP4 POP POP POP POP SWAP3 SWAP2 POP POP JUMP JUMPDEST PUSH1 0x0 PUSH2 0xB22 DUP3 PUSH2 0xD34 JUMP JUMPDEST PUSH2 0xB2C DUP2 DUP6 PUSH2 0xD75 JUMP JUMPDEST SWAP4 POP PUSH2 0xB37 DUP4 PUSH2 0xD19 JUMP JUMPDEST DUP1 PUSH1 0x0 JUMPDEST DUP4 DUP2 LT ISZERO PUSH2 0xB68 JUMPI DUP2 MLOAD PUSH2 0xB4F DUP9 DUP3 PUSH2 0xA92 JUMP JUMPDEST SWAP8 POP PUSH2 0xB5A DUP4 PUSH2 0xD57 JUMP JUMPDEST SWAP3 POP POP PUSH1 0x1 DUP2 ADD SWAP1 POP PUSH2 0xB3B JUMP JUMPDEST POP DUP6 SWAP4 POP POP POP POP SWAP3 SWAP2 POP POP JUMP JUMPDEST PUSH1 0x0 PUSH2 0xB80 DUP3 PUSH2 0xD3F JUMP JUMPDEST PUSH2 0xB8A DUP2 DUP6 PUSH2 0xD86 JUMP JUMPDEST SWAP4 POP PUSH2 0xB9A DUP2 DUP6 PUSH1 0x20 DUP7 ADD PUSH2 0xE8D JUMP JUMPDEST PUSH2 0xBA3 DUP2 PUSH2 0xFE4 JUMP JUMPDEST DUP5 ADD SWAP2 POP POP SWAP3 SWAP2 POP POP JUMP JUMPDEST PUSH1 0x0 PUSH2 0xBBB PUSH1 0x16 DUP4 PUSH2 0xD86 JUMP JUMPDEST SWAP2 POP PUSH2 0xBC6 DUP3 PUSH2 0xFF5 JUMP JUMPDEST PUSH1 0x20 DUP3 ADD SWAP1 POP SWAP2 SWAP1 POP JUMP JUMPDEST PUSH1 0x0 PUSH2 0xBDE PUSH1 0x24 DUP4 PUSH2 0xD86 JUMP JUMPDEST SWAP2 POP PUSH2 0xBE9 DUP3 PUSH2 0x101E JUMP JUMPDEST PUSH1 0x40 DUP3 ADD SWAP1 POP SWAP2 SWAP1 POP JUMP JUMPDEST PUSH1 0x0 PUSH2 0xC01 PUSH1 0x16 DUP4 PUSH2 0xD86 JUMP JUMPDEST SWAP2 POP PUSH2 0xC0C DUP3 PUSH2 0x106D JUMP JUMPDEST PUSH1 0x20 DUP3 ADD SWAP1 POP SWAP2 SWAP1 POP JUMP JUMPDEST PUSH2 0xC20 DUP2 PUSH2 0xE83 JUMP JUMPDEST DUP3 MSTORE POP POP JUMP JUMPDEST PUSH2 0xC2F DUP2 PUSH2 0xE83 JUMP JUMPDEST DUP3 MSTORE POP POP JUMP JUMPDEST PUSH1 0x0 PUSH1 0x40 DUP3 ADD SWAP1 POP DUP2 DUP2 SUB PUSH1 0x0 DUP4 ADD MSTORE PUSH2 0xC4F DUP2 DUP6 PUSH2 0xAB9 JUMP JUMPDEST SWAP1 POP DUP2 DUP2 SUB PUSH1 0x20 DUP4 ADD MSTORE PUSH2 0xC63 DUP2 DUP5 PUSH2 0xB17 JUMP JUMPDEST SWAP1 POP SWAP4 SWAP3 POP POP POP JUMP JUMPDEST PUSH1 0x0 PUSH1 0x20 DUP3 ADD SWAP1 POP DUP2 DUP2 SUB PUSH1 0x0 DUP4 ADD MSTORE PUSH2 0xC86 DUP2 DUP5 PUSH2 0xB75 JUMP JUMPDEST SWAP1 POP SWAP3 SWAP2 POP POP JUMP JUMPDEST PUSH1 0x0 PUSH1 0x20 DUP3 ADD SWAP1 POP DUP2 DUP2 SUB PUSH1 0x0 DUP4 ADD MSTORE PUSH2 0xCA7 DUP2 PUSH2 0xBAE JUMP JUMPDEST SWAP1 POP SWAP2 SWAP1 POP JUMP JUMPDEST PUSH1 0x0 PUSH1 0x20 DUP3 ADD SWAP1 POP DUP2 DUP2 SUB PUSH1 0x0 DUP4 ADD MSTORE PUSH2 0xCC7 DUP2 PUSH2 0xBD1 JUMP JUMPDEST SWAP1 POP SWAP2 SWAP1 POP JUMP JUMPDEST PUSH1 0x0 PUSH1 0x20 DUP3 ADD SWAP1 POP DUP2 DUP2 SUB PUSH1 0x0 DUP4 ADD MSTORE PUSH2 0xCE7 DUP2 PUSH2 0xBF4 JUMP JUMPDEST SWAP1 POP SWAP2 SWAP1 POP JUMP JUMPDEST PUSH1 0x0 PUSH1 0x20 DUP3 ADD SWAP1 POP PUSH2 0xD03 PUSH1 0x0 DUP4 ADD DUP5 PUSH2 0xC26 JUMP JUMPDEST SWAP3 SWAP2 POP POP JUMP JUMPDEST PUSH1 0x0 DUP2 SWAP1 POP PUSH1 0x20 DUP3 ADD SWAP1 POP SWAP2 SWAP1 POP JUMP JUMPDEST PUSH1 0x0 DUP2 SWAP1 POP PUSH1 0x20 DUP3 ADD SWAP1 POP SWAP2 SWAP1 POP JUMP JUMPDEST PUSH1 0x0 DUP2 MLOAD SWAP1 POP SWAP2 SWAP1 POP JUMP JUMPDEST PUSH1 0x0 DUP2 MLOAD SWAP1 POP SWAP2 SWAP1 POP JUMP JUMPDEST PUSH1 0x0 DUP2 MLOAD SWAP1 POP SWAP2 SWAP1 POP JUMP JUMPDEST PUSH1 0x0 PUSH1 0x20 DUP3 ADD SWAP1 POP SWAP2 SWAP1 POP JUMP JUMPDEST PUSH1 0x0 PUSH1 0x20 DUP3 ADD SWAP1 POP SWAP2 SWAP1 POP JUMP JUMPDEST PUSH1 0x0 DUP3 DUP3 MSTORE PUSH1 0x20 DUP3 ADD SWAP1 POP SWAP3 SWAP2 POP POP JUMP JUMPDEST PUSH1 0x0 DUP3 DUP3 MSTORE PUSH1 0x20 DUP3 ADD SWAP1 POP SWAP3 SWAP2 POP POP JUMP JUMPDEST PUSH1 0x0 DUP3 DUP3 MSTORE PUSH1 0x20 DUP3 ADD SWAP1 POP SWAP3 SWAP2 POP POP JUMP JUMPDEST PUSH1 0x0 PUSH2 0xDA2 DUP3 PUSH2 0xE83 JUMP JUMPDEST SWAP2 POP PUSH2 0xDAD DUP4 PUSH2 0xE83 JUMP JUMPDEST SWAP3 POP DUP3 PUSH32 0xFFFFFFFFFFFFFFFFFFFFFFFFFFFFFFFFFFFFFFFFFFFFFFFFFFFFFFFFFFFFFFFF SUB DUP3 GT ISZERO PUSH2 0xDE2 JUMPI PUSH2 0xDE1 PUSH2 0xF52 JUMP JUMPDEST JUMPDEST DUP3 DUP3 ADD SWAP1 POP SWAP3 SWAP2 POP POP JUMP JUMPDEST PUSH1 0x0 PUSH2 0xDF8 DUP3 PUSH2 0xE83 JUMP JUMPDEST SWAP2 POP PUSH2 0xE03 DUP4 PUSH2 0xE83 JUMP JUMPDEST SWAP3 POP DUP2 PUSH32 0xFFFFFFFFFFFFFFFFFFFFFFFFFFFFFFFFFFFFFFFFFFFFFFFFFFFFFFFFFFFFFFFF DIV DUP4 GT DUP3 ISZERO ISZERO AND ISZERO PUSH2 0xE3C JUMPI PUSH2 0xE3B PUSH2 0xF52 JUMP JUMPDEST JUMPDEST DUP3 DUP3 MUL SWAP1 POP SWAP3 SWAP2 POP POP JUMP JUMPDEST PUSH1 0x0 PUSH2 0xE52 DUP3 PUSH2 0xE63 JUMP JUMPDEST SWAP1 POP SWAP2 SWAP1 POP JUMP JUMPDEST PUSH1 0x0 DUP2 SWAP1 POP SWAP2 SWAP1 POP JUMP JUMPDEST PUSH1 0x0 PUSH20 0xFFFFFFFFFFFFFFFFFFFFFFFFFFFFFFFFFFFFFFFF DUP3 AND SWAP1 POP SWAP2 SWAP1 POP JUMP JUMPDEST PUSH1 0x0 DUP2 SWAP1 POP SWAP2 SWAP1 POP JUMP JUMPDEST PUSH1 0x0 JUMPDEST DUP4 DUP2 LT ISZERO PUSH2 0xEAB JUMPI DUP1 DUP3 ADD MLOAD DUP2 DUP5 ADD MSTORE PUSH1 0x20 DUP2 ADD SWAP1 POP PUSH2 0xE90 JUMP JUMPDEST DUP4 DUP2 GT ISZERO PUSH2 0xEBA JUMPI PUSH1 0x0 DUP5 DUP5 ADD MSTORE JUMPDEST POP POP POP POP JUMP JUMPDEST PUSH1 0x0 PUSH2 0xECB DUP3 PUSH2 0xE59 JUMP JUMPDEST SWAP2 POP PUSH32 0x7FFFFFFFFFFFFFFFFFFFFFFFFFFFFFFFFFFFFFFFFFFFFFFFFFFFFFFFFFFFFFFF DUP3 EQ ISZERO PUSH2 0xEFE JUMPI PUSH2 0xEFD PUSH2 0xF52 JUMP JUMPDEST JUMPDEST PUSH1 0x1 DUP3 ADD SWAP1 POP SWAP2 SWAP1 POP JUMP JUMPDEST PUSH1 0x0 PUSH2 0xF14 DUP3 PUSH2 0xE83 JUMP JUMPDEST SWAP2 POP PUSH32 0xFFFFFFFFFFFFFFFFFFFFFFFFFFFFFFFFFFFFFFFFFFFFFFFFFFFFFFFFFFFFFFFF DUP3 EQ ISZERO PUSH2 0xF47 JUMPI PUSH2 0xF46 PUSH2 0xF52 JUMP JUMPDEST JUMPDEST PUSH1 0x1 DUP3 ADD SWAP1 POP SWAP2 SWAP1 POP JUMP JUMPDEST PUSH32 0x4E487B7100000000000000000000000000000000000000000000000000000000 PUSH1 0x0 MSTORE PUSH1 0x11 PUSH1 0x4 MSTORE PUSH1 0x24 PUSH1 0x0 REVERT JUMPDEST PUSH32 0x4E487B7100000000000000000000000000000000000000000000000000000000 PUSH1 0x0 MSTORE PUSH1 0x32 PUSH1 0x4 MSTORE PUSH1 0x24 PUSH1 0x0 REVERT JUMPDEST PUSH32 0x4E487B7100000000000000000000000000000000000000000000000000000000 PUSH1 0x0 MSTORE PUSH1 0x41 PUSH1 0x4 MSTORE PUSH1 0x24 PUSH1 0x0 REVERT JUMPDEST PUSH1 0x0 DUP1 REVERT JUMPDEST PUSH1 0x0 PUSH1 0x1F NOT PUSH1 0x1F DUP4 ADD AND SWAP1 POP SWAP2 SWAP1 POP JUMP JUMPDEST PUSH32 0x4F6E6C79206D616E616765722063616E2063616C6C2100000000000000000000 PUSH1 0x0 DUP3 ADD MSTORE POP JUMP JUMPDEST PUSH32 0x49742773206A757374206265656E206C657373207468616E203130207365636F PUSH1 0x0 DUP3 ADD MSTORE PUSH32 0x6E64732100000000000000000000000000000000000000000000000000000000 PUSH1 0x20 DUP3 ADD MSTORE POP JUMP JUMPDEST PUSH32 0x4F6E6C7920636C69656E74732063616E2063616C6C2100000000000000000000 PUSH1 0x0 DUP3 ADD MSTORE POP JUMP JUMPDEST PUSH2 0x109F DUP2 PUSH2 0xE47 JUMP JUMPDEST DUP2 EQ PUSH2 0x10AA JUMPI PUSH1 0x0 DUP1 REVERT JUMPDEST POP JUMP JUMPDEST PUSH2 0x10B6 DUP2 PUSH2 0xE83 JUMP JUMPDEST DUP2 EQ PUSH2 0x10C1 JUMPI PUSH1 0x0 DUP1 REVERT JUMPDEST POP JUMP INVALID LOG2 PUSH5 0x6970667358 0x22 SLT KECCAK256 DUP12 0xF8 STATICCALL SLOAD 0xEC 0xB8 0xC9 0xB3 LOG4 TIMESTAMP SIGNEXTEND 0x4D LOG1 PUSH31 0x1937DEF6D2D42CE52F449070CE69B9C4D92C64736F6C634300080700330000 "
				},
				"gasEstimates": {
					"creation": {
						"codeDepositCost": "869200",
						"executionCost": "5917",
						"totalCost": "875117"
					},
					"external": {
						"deposit()": "infinite",
						"getClients()": "infinite",
						"getContractBalance()": "384",
						"getCountClient()": "2546",
						"interestDate(address)": "2880",
						"joinAsClient()": "142725",
						"sendInterest()": "infinite",
						"setManager(address)": "25274",
						"withdraw(uint256)": "infinite"
					}
				},
				"methodIdentifiers": {
					"deposit()": "d0e30db0",
					"getClients()": "6db80995",
					"getContractBalance()": "6f9fb98a",
					"getCountClient()": "fef75470",
					"interestDate(address)": "d9dca6c5",
					"joinAsClient()": "a4092174",
					"sendInterest()": "9e0a5d68",
					"setManager(address)": "d0ebdbe7",
					"withdraw(uint256)": "2e1a7d4d"
				}
			},
			"storageLayout": {
				"storage": [
					{
						"astId": 12,
						"contract": "contracts/first_contract.sol:BankContract",
						"label": "clients",
						"offset": 0,
						"slot": "0",
						"type": "t_array(t_struct(client_account)8_storage)dyn_storage"
					},
					{
						"astId": 14,
						"contract": "contracts/first_contract.sol:BankContract",
						"label": "clientCounter",
						"offset": 0,
						"slot": "1",
						"type": "t_int256"
					},
					{
						"astId": 16,
						"contract": "contracts/first_contract.sol:BankContract",
						"label": "manager",
						"offset": 0,
						"slot": "2",
						"type": "t_address_payable"
					},
					{
						"astId": 20,
						"contract": "contracts/first_contract.sol:BankContract",
						"label": "interestDate",
						"offset": 0,
						"slot": "3",
						"type": "t_mapping(t_address,t_uint256)"
					}
				],
				"types": {
					"t_address": {
						"encoding": "inplace",
						"label": "address",
						"numberOfBytes": "20"
					},
					"t_address_payable": {
						"encoding": "inplace",
						"label": "address payable",
						"numberOfBytes": "20"
					},
					"t_array(t_struct(client_account)8_storage)dyn_storage": {
						"base": "t_struct(client_account)8_storage",
						"encoding": "dynamic_array",
						"label": "struct BankContract.client_account[]",
						"numberOfBytes": "32"
					},
					"t_int256": {
						"encoding": "inplace",
						"label": "int256",
						"numberOfBytes": "32"
					},
					"t_mapping(t_address,t_uint256)": {
						"encoding": "mapping",
						"key": "t_address",
						"label": "mapping(address => uint256)",
						"numberOfBytes": "32",
						"value": "t_uint256"
					},
					"t_struct(client_account)8_storage": {
						"encoding": "inplace",
						"label": "struct BankContract.client_account",
						"members": [
							{
								"astId": 3,
								"contract": "contracts/first_contract.sol:BankContract",
								"label": "client_id",
								"offset": 0,
								"slot": "0",
								"type": "t_int256"
							},
							{
								"astId": 5,
								"contract": "contracts/first_contract.sol:BankContract",
								"label": "client_address",
								"offset": 0,
								"slot": "1",
								"type": "t_address"
							},
							{
								"astId": 7,
								"contract": "contracts/first_contract.sol:BankContract",
								"label": "client_balance_in_ether",
								"offset": 0,
								"slot": "2",
								"type": "t_uint256"
							}
						],
						"numberOfBytes": "96"
					},
					"t_uint256": {
						"encoding": "inplace",
						"label": "uint256",
						"numberOfBytes": "32"
					}
				}
			},
			"userdoc": {
				"kind": "user",
				"methods": {},
				"version": 1
			}
		}
	}
}