{
	"contracts/first_contract.sol": {
		"BankContract": {
			"abi": [
				{
					"inputs": [],
					"stateMutability": "nonpayable",
					"type": "constructor"
				},
				{
					"inputs": [],
					"name": "deposit",
					"outputs": [],
					"stateMutability": "payable",
					"type": "function"
				},
				{
					"inputs": [],
					"name": "getClients",
					"outputs": [
						{
							"internalType": "address[]",
							"name": "",
							"type": "address[]"
						},
						{
							"internalType": "uint256[]",
							"name": "",
							"type": "uint256[]"
						}
					],
					"stateMutability": "view",
					"type": "function"
				},
				{
					"inputs": [],
					"name": "getContractBalance",
					"outputs": [
						{
							"internalType": "uint256",
							"name": "",
							"type": "uint256"
						}
					],
					"stateMutability": "view",
					"type": "function"
				},
				{
					"inputs": [],
					"name": "getCountClient",
					"outputs": [
						{
							"internalType": "uint256",
							"name": "",
							"type": "uint256"
						}
					],
					"stateMutability": "view",
					"type": "function"
				},
				{
					"inputs": [
						{
							"internalType": "address",
							"name": "",
							"type": "address"
						}
					],
					"name": "interestDate",
					"outputs": [
						{
							"internalType": "uint256",
							"name": "",
							"type": "uint256"
						}
					],
					"stateMutability": "view",
					"type": "function"
				},
				{
					"inputs": [],
					"name": "joinAsClient",
					"outputs": [
						{
							"internalType": "string",
							"name": "",
							"type": "string"
						}
					],
					"stateMutability": "payable",
					"type": "function"
				},
				{
					"inputs": [],
					"name": "mintcoke",
					"outputs": [],
					"stateMutability": "payable",
					"type": "function"
				},
				{
					"inputs": [
						{
							"internalType": "address",
							"name": "_from",
							"type": "address"
						},
						{
							"internalType": "address",
							"name": "_to",
							"type": "address"
						},
						{
							"internalType": "uint256",
							"name": "_value",
							"type": "uint256"
						}
					],
					"name": "sendCoke",
					"outputs": [],
					"stateMutability": "nonpayable",
					"type": "function"
				},
				{
					"inputs": [],
					"name": "sendInterest",
					"outputs": [],
					"stateMutability": "payable",
					"type": "function"
				},
				{
					"inputs": [
						{
							"internalType": "address",
							"name": "managerAddress",
							"type": "address"
						}
					],
					"name": "setManager",
					"outputs": [
						{
							"internalType": "string",
							"name": "",
							"type": "string"
						}
					],
					"stateMutability": "nonpayable",
					"type": "function"
				},
				{
					"inputs": [
						{
							"internalType": "uint256",
							"name": "amount",
							"type": "uint256"
						}
					],
					"name": "withdraw",
					"outputs": [],
					"stateMutability": "payable",
					"type": "function"
				},
				{
					"stateMutability": "payable",
					"type": "receive"
				}
			],
			"devdoc": {
				"kind": "dev",
				"methods": {},
				"version": 1
			},
			"evm": {
				"assembly": "    /* \"contracts/first_contract.sol\":536:4059  contract BankContract { \r... */\n  mstore(0x40, 0x80)\n    /* \"contracts/first_contract.sol\":843:893  constructor() {\r... */\n  callvalue\n  dup1\n  iszero\n  tag_1\n  jumpi\n  0x00\n  dup1\n  revert\ntag_1:\n  pop\n    /* \"contracts/first_contract.sol\":884:885  0 */\n  0x00\n    /* \"contracts/first_contract.sol\":868:881  clientCounter */\n  0x01\n    /* \"contracts/first_contract.sol\":868:885  clientCounter = 0 */\n  dup2\n  swap1\n  sstore\n  pop\n    /* \"contracts/first_contract.sol\":536:4059  contract BankContract { \r... */\n  dataSize(sub_0)\n  dup1\n  dataOffset(sub_0)\n  0x00\n  codecopy\n  0x00\n  return\nstop\n\nsub_0: assembly {\n        /* \"contracts/first_contract.sol\":536:4059  contract BankContract { \r... */\n      mstore(0x40, 0x80)\n      jumpi(tag_1, lt(calldatasize, 0x04))\n      shr(0xe0, calldataload(0x00))\n      dup1\n      0x9e0a5d68\n      gt\n      tag_14\n      jumpi\n      dup1\n      0x9e0a5d68\n      eq\n      tag_8\n      jumpi\n      dup1\n      0xa4092174\n      eq\n      tag_9\n      jumpi\n      dup1\n      0xd0e30db0\n      eq\n      tag_10\n      jumpi\n      dup1\n      0xd0ebdbe7\n      eq\n      tag_11\n      jumpi\n      dup1\n      0xd9dca6c5\n      eq\n      tag_12\n      jumpi\n      dup1\n      0xfef75470\n      eq\n      tag_13\n      jumpi\n      jump(tag_2)\n    tag_14:\n      dup1\n      0x2855bd92\n      eq\n      tag_3\n      jumpi\n      dup1\n      0x2bbc7cac\n      eq\n      tag_4\n      jumpi\n      dup1\n      0x2e1a7d4d\n      eq\n      tag_5\n      jumpi\n      dup1\n      0x6db80995\n      eq\n      tag_6\n      jumpi\n      dup1\n      0x6f9fb98a\n      eq\n      tag_7\n      jumpi\n      jump(tag_2)\n    tag_1:\n      jumpi(tag_2, calldatasize)\n      stop\n    tag_2:\n      0x00\n      dup1\n      revert\n        /* \"contracts/first_contract.sol\":3393:3883  function sendCoke(address _from, address _to, uint _value) external {\r... */\n    tag_3:\n      callvalue\n      dup1\n      iszero\n      tag_17\n      jumpi\n      0x00\n      dup1\n      revert\n    tag_17:\n      pop\n      tag_18\n      0x04\n      dup1\n      calldatasize\n      sub\n      dup2\n      add\n      swap1\n      tag_19\n      swap2\n      swap1\n      tag_20\n      jump\t// in\n    tag_19:\n      tag_21\n      jump\t// in\n    tag_18:\n      stop\n        /* \"contracts/first_contract.sol\":3891:4056  function mintcoke() external payable {\r... */\n    tag_4:\n      tag_22\n      tag_23\n      jump\t// in\n    tag_22:\n      stop\n        /* \"contracts/first_contract.sol\":1885:2068  function withdraw(uint amount) public payable onlyClients{\r... */\n    tag_5:\n      tag_24\n      0x04\n      dup1\n      calldatasize\n      sub\n      dup2\n      add\n      swap1\n      tag_25\n      swap2\n      swap1\n      tag_26\n      jump\t// in\n    tag_25:\n      tag_27\n      jump\t// in\n    tag_24:\n      stop\n        /* \"contracts/first_contract.sol\":2707:3277  function getClients() public view returns (address[] memory,uint[] memory) {\r... */\n    tag_6:\n      callvalue\n      dup1\n      iszero\n      tag_28\n      jumpi\n      0x00\n      dup1\n      revert\n    tag_28:\n      pop\n      tag_29\n      tag_30\n      jump\t// in\n    tag_29:\n      mload(0x40)\n      tag_31\n      swap3\n      swap2\n      swap1\n      tag_32\n      jump\t// in\n    tag_31:\n      mload(0x40)\n      dup1\n      swap2\n      sub\n      swap1\n      return\n        /* \"contracts/first_contract.sol\":3284:3386  function getContractBalance() public view returns(uint){\r... */\n    tag_7:\n      callvalue\n      dup1\n      iszero\n      tag_33\n      jumpi\n      0x00\n      dup1\n      revert\n    tag_33:\n      pop\n      tag_34\n      tag_35\n      jump\t// in\n    tag_34:\n      mload(0x40)\n      tag_36\n      swap2\n      swap1\n      tag_37\n      jump\t// in\n    tag_36:\n      mload(0x40)\n      dup1\n      swap2\n      sub\n      swap1\n      return\n        /* \"contracts/first_contract.sol\":2076:2566  function sendInterest() public payable onlyManager{\r... */\n    tag_8:\n      tag_38\n      tag_39\n      jump\t// in\n    tag_38:\n      stop\n        /* \"contracts/first_contract.sol\":1534:1764  function joinAsClient() public payable returns(string memory){\r... */\n    tag_9:\n      tag_40\n      tag_41\n      jump\t// in\n    tag_40:\n      mload(0x40)\n      tag_42\n      swap2\n      swap1\n      tag_43\n      jump\t// in\n    tag_42:\n      mload(0x40)\n      dup1\n      swap2\n      sub\n      swap1\n      return\n        /* \"contracts/first_contract.sol\":1774:1877  function deposit() public payable onlyClients{\r... */\n    tag_10:\n      tag_44\n      tag_45\n      jump\t// in\n    tag_44:\n      stop\n        /* \"contracts/first_contract.sol\":1387:1526  function setManager(address managerAddress) public returns(string memory){\r... */\n    tag_11:\n      callvalue\n      dup1\n      iszero\n      tag_46\n      jumpi\n      0x00\n      dup1\n      revert\n    tag_46:\n      pop\n      tag_47\n      0x04\n      dup1\n      calldatasize\n      sub\n      dup2\n      add\n      swap1\n      tag_48\n      swap2\n      swap1\n      tag_49\n      jump\t// in\n    tag_48:\n      tag_50\n      jump\t// in\n    tag_47:\n      mload(0x40)\n      tag_51\n      swap2\n      swap1\n      tag_43\n      jump\t// in\n    tag_51:\n      mload(0x40)\n      dup1\n      swap2\n      sub\n      swap1\n      return\n        /* \"contracts/first_contract.sol\":790:834  mapping(address => uint) public interestDate */\n    tag_12:\n      callvalue\n      dup1\n      iszero\n      tag_52\n      jumpi\n      0x00\n      dup1\n      revert\n    tag_52:\n      pop\n      tag_53\n      0x04\n      dup1\n      calldatasize\n      sub\n      dup2\n      add\n      swap1\n      tag_54\n      swap2\n      swap1\n      tag_49\n      jump\t// in\n    tag_54:\n      tag_55\n      jump\t// in\n    tag_53:\n      mload(0x40)\n      tag_56\n      swap2\n      swap1\n      tag_37\n      jump\t// in\n    tag_56:\n      mload(0x40)\n      dup1\n      swap2\n      sub\n      swap1\n      return\n        /* \"contracts/first_contract.sol\":2582:2699  function getCountClient() public view returns(uint){\r... */\n    tag_13:\n      callvalue\n      dup1\n      iszero\n      tag_57\n      jumpi\n      0x00\n      dup1\n      revert\n    tag_57:\n      pop\n      tag_58\n      tag_59\n      jump\t// in\n    tag_58:\n      mload(0x40)\n      tag_60\n      swap2\n      swap1\n      tag_37\n      jump\t// in\n    tag_60:\n      mload(0x40)\n      dup1\n      swap2\n      sub\n      swap1\n      return\n        /* \"contracts/first_contract.sol\":3393:3883  function sendCoke(address _from, address _to, uint _value) external {\r... */\n    tag_21:\n        /* \"contracts/first_contract.sol\":3667:3677  ERC20 coke */\n      0x00\n        /* \"contracts/first_contract.sol\":3694:3736  0xd9145CCE52D386f254917e481eB44e9943F39138 */\n      0xd9145cce52d386f254917e481eb44e9943f39138\n        /* \"contracts/first_contract.sol\":3667:3738  ERC20 coke = ERC20(address(0xd9145CCE52D386f254917e481eB44e9943F39138)) */\n      swap1\n      pop\n        /* \"contracts/first_contract.sol\":3840:3844  coke */\n      dup1\n        /* \"contracts/first_contract.sol\":3840:3857  coke.transferFrom */\n      0xffffffffffffffffffffffffffffffffffffffff\n      and\n      0x23b872dd\n        /* \"contracts/first_contract.sol\":3858:3863  _from */\n      dup6\n        /* \"contracts/first_contract.sol\":3864:3867  _to */\n      dup6\n        /* \"contracts/first_contract.sol\":3868:3874  _value */\n      dup6\n        /* \"contracts/first_contract.sol\":3840:3875  coke.transferFrom(_from,_to,_value) */\n      mload(0x40)\n      dup5\n      0xffffffff\n      and\n      0xe0\n      shl\n      dup2\n      mstore\n      0x04\n      add\n      tag_62\n      swap4\n      swap3\n      swap2\n      swap1\n      tag_63\n      jump\t// in\n    tag_62:\n      0x20\n      mload(0x40)\n      dup1\n      dup4\n      sub\n      dup2\n      0x00\n      dup8\n      dup1\n      extcodesize\n      iszero\n      dup1\n      iszero\n      tag_64\n      jumpi\n      0x00\n      dup1\n      revert\n    tag_64:\n      pop\n      gas\n      call\n      iszero\n      dup1\n      iszero\n      tag_66\n      jumpi\n      returndatasize\n      0x00\n      dup1\n      returndatacopy\n      revert(0x00, returndatasize)\n    tag_66:\n      pop\n      pop\n      pop\n      pop\n      mload(0x40)\n      returndatasize\n      not(0x1f)\n      0x1f\n      dup3\n      add\n      and\n      dup3\n      add\n      dup1\n      0x40\n      mstore\n      pop\n      dup2\n      add\n      swap1\n      tag_67\n      swap2\n      swap1\n      tag_68\n      jump\t// in\n    tag_67:\n      pop\n        /* \"contracts/first_contract.sol\":3461:3883  {\r... */\n      pop\n        /* \"contracts/first_contract.sol\":3393:3883  function sendCoke(address _from, address _to, uint _value) external {\r... */\n      pop\n      pop\n      pop\n      jump\t// out\n        /* \"contracts/first_contract.sol\":3891:4056  function mintcoke() external payable {\r... */\n    tag_23:\n        /* \"contracts/first_contract.sol\":3939:3950  ERC721 coke */\n      0x00\n        /* \"contracts/first_contract.sol\":3968:4010  0x4f7B4006d00f5E8FF0c91d22a379E8164AE7879f */\n      0x4f7b4006d00f5e8ff0c91d22a379e8164ae7879f\n        /* \"contracts/first_contract.sol\":3939:4012  ERC721 coke = ERC721(address(0x4f7B4006d00f5E8FF0c91d22a379E8164AE7879f)) */\n      swap1\n      pop\n        /* \"contracts/first_contract.sol\":4025:4029  coke */\n      dup1\n        /* \"contracts/first_contract.sol\":4025:4034  coke.mint */\n      0xffffffffffffffffffffffffffffffffffffffff\n      and\n      0x94bf804d\n        /* \"contracts/first_contract.sol\":4035:4036  1 */\n      0x01\n        /* \"contracts/first_contract.sol\":4037:4047  msg.sender */\n      caller\n        /* \"contracts/first_contract.sol\":4025:4048  coke.mint(1,msg.sender) */\n      mload(0x40)\n      dup4\n      0xffffffff\n      and\n      0xe0\n      shl\n      dup2\n      mstore\n      0x04\n      add\n      tag_70\n      swap3\n      swap2\n      swap1\n      tag_71\n      jump\t// in\n    tag_70:\n      0x00\n      mload(0x40)\n      dup1\n      dup4\n      sub\n      dup2\n      0x00\n      dup8\n      dup1\n      extcodesize\n      iszero\n      dup1\n      iszero\n      tag_72\n      jumpi\n      0x00\n      dup1\n      revert\n    tag_72:\n      pop\n      gas\n      call\n      iszero\n      dup1\n      iszero\n      tag_74\n      jumpi\n      returndatasize\n      0x00\n      dup1\n      returndatacopy\n      revert(0x00, returndatasize)\n    tag_74:\n      pop\n      pop\n      pop\n      pop\n        /* \"contracts/first_contract.sol\":3928:4056  {\r... */\n      pop\n        /* \"contracts/first_contract.sol\":3891:4056  function mintcoke() external payable {\r... */\n      jump\t// out\n        /* \"contracts/first_contract.sol\":1885:2068  function withdraw(uint amount) public payable onlyClients{\r... */\n    tag_27:\n        /* \"contracts/first_contract.sol\":1053:1066  bool isClient */\n      0x00\n        /* \"contracts/first_contract.sol\":1089:1095  uint i */\n      dup1\n        /* \"contracts/first_contract.sol\":1085:1262  for(uint i=0;i<clients.length;i++){\r... */\n    tag_76:\n        /* \"contracts/first_contract.sol\":1100:1107  clients */\n      0x00\n        /* \"contracts/first_contract.sol\":1100:1114  clients.length */\n      dup1\n      sload\n      swap1\n      pop\n        /* \"contracts/first_contract.sol\":1098:1099  i */\n      dup2\n        /* \"contracts/first_contract.sol\":1098:1114  i<clients.length */\n      lt\n        /* \"contracts/first_contract.sol\":1085:1262  for(uint i=0;i<clients.length;i++){\r... */\n      iszero\n      tag_77\n      jumpi\n        /* \"contracts/first_contract.sol\":1166:1176  msg.sender */\n      caller\n        /* \"contracts/first_contract.sol\":1137:1176  clients[i].client_address == msg.sender */\n      0xffffffffffffffffffffffffffffffffffffffff\n      and\n        /* \"contracts/first_contract.sol\":1137:1144  clients */\n      0x00\n        /* \"contracts/first_contract.sol\":1145:1146  i */\n      dup3\n        /* \"contracts/first_contract.sol\":1137:1147  clients[i] */\n      dup2\n      sload\n      dup2\n      lt\n      tag_79\n      jumpi\n      tag_80\n      tag_81\n      jump\t// in\n    tag_80:\n    tag_79:\n      swap1\n      0x00\n      mstore\n      keccak256(0x00, 0x20)\n      swap1\n      0x03\n      mul\n      add\n        /* \"contracts/first_contract.sol\":1137:1162  clients[i].client_address */\n      0x01\n      add\n      0x00\n      swap1\n      sload\n      swap1\n      0x0100\n      exp\n      swap1\n      div\n      0xffffffffffffffffffffffffffffffffffffffff\n      and\n        /* \"contracts/first_contract.sol\":1137:1176  clients[i].client_address == msg.sender */\n      0xffffffffffffffffffffffffffffffffffffffff\n      and\n      eq\n        /* \"contracts/first_contract.sol\":1134:1251  if(clients[i].client_address == msg.sender){\r... */\n      iszero\n      tag_83\n      jumpi\n        /* \"contracts/first_contract.sol\":1207:1211  true */\n      0x01\n        /* \"contracts/first_contract.sol\":1196:1211  isClient = true */\n      swap2\n      pop\n        /* \"contracts/first_contract.sol\":1230:1235  break */\n      jump(tag_77)\n        /* \"contracts/first_contract.sol\":1134:1251  if(clients[i].client_address == msg.sender){\r... */\n    tag_83:\n        /* \"contracts/first_contract.sol\":1115:1118  i++ */\n      dup1\n      dup1\n      tag_84\n      swap1\n      tag_85\n      jump\t// in\n    tag_84:\n      swap2\n      pop\n      pop\n        /* \"contracts/first_contract.sol\":1085:1262  for(uint i=0;i<clients.length;i++){\r... */\n      jump(tag_76)\n    tag_77:\n      pop\n        /* \"contracts/first_contract.sol\":1280:1288  isClient */\n      dup1\n        /* \"contracts/first_contract.sol\":1272:1315  require(isClient, \"Only clients can call!\") */\n      tag_86\n      jumpi\n      mload(0x40)\n      0x08c379a000000000000000000000000000000000000000000000000000000000\n      dup2\n      mstore\n      0x04\n      add\n      tag_87\n      swap1\n      tag_88\n      jump\t// in\n    tag_87:\n      mload(0x40)\n      dup1\n      swap2\n      sub\n      swap1\n      revert\n    tag_86:\n        /* \"contracts/first_contract.sol\":1953:1972  address sender_temp */\n      0x00\n        /* \"contracts/first_contract.sol\":1997:2007  msg.sender */\n      caller\n        /* \"contracts/first_contract.sol\":1983:2007  sender_temp = msg.sender */\n      swap1\n      pop\n        /* \"contracts/first_contract.sol\":2023:2034  sender_temp */\n      dup1\n        /* \"contracts/first_contract.sol\":2015:2044  payable(sender_temp).transfer */\n      0xffffffffffffffffffffffffffffffffffffffff\n      and\n        /* \"contracts/first_contract.sol\":2015:2060  payable(sender_temp).transfer(amount * 1 wei) */\n      0x08fc\n        /* \"contracts/first_contract.sol\":2054:2059  1 wei */\n      0x01\n        /* \"contracts/first_contract.sol\":2045:2051  amount */\n      dup6\n        /* \"contracts/first_contract.sol\":2045:2059  amount * 1 wei */\n      tag_90\n      swap2\n      swap1\n      tag_91\n      jump\t// in\n    tag_90:\n        /* \"contracts/first_contract.sol\":2015:2060  payable(sender_temp).transfer(amount * 1 wei) */\n      swap1\n      dup2\n      iszero\n      mul\n      swap1\n      mload(0x40)\n      0x00\n      mload(0x40)\n      dup1\n      dup4\n      sub\n      dup2\n      dup6\n      dup9\n      dup9\n      call\n      swap4\n      pop\n      pop\n      pop\n      pop\n      iszero\n      dup1\n      iszero\n      tag_93\n      jumpi\n      returndatasize\n      0x00\n      dup1\n      returndatacopy\n      revert(0x00, returndatasize)\n    tag_93:\n      pop\n        /* \"contracts/first_contract.sol\":1942:2068  {\r... */\n      pop\n        /* \"contracts/first_contract.sol\":1042:1335  {\r... */\n      pop\n        /* \"contracts/first_contract.sol\":1885:2068  function withdraw(uint amount) public payable onlyClients{\r... */\n      pop\n      jump\t// out\n        /* \"contracts/first_contract.sol\":2707:3277  function getClients() public view returns (address[] memory,uint[] memory) {\r... */\n    tag_30:\n        /* \"contracts/first_contract.sol\":2750:2766  address[] memory */\n      0x60\n        /* \"contracts/first_contract.sol\":2767:2780  uint[] memory */\n      dup1\n        /* \"contracts/first_contract.sol\":2795:2826  address[] memory client_address */\n      0x00\n        /* \"contracts/first_contract.sol\":2843:2850  clients */\n      dup1\n        /* \"contracts/first_contract.sol\":2843:2857  clients.length */\n      dup1\n      sload\n      swap1\n      pop\n        /* \"contracts/first_contract.sol\":2829:2858  new address[](clients.length) */\n      0xffffffffffffffff\n      dup2\n      gt\n      iszero\n      tag_95\n      jumpi\n      tag_96\n      tag_97\n      jump\t// in\n    tag_96:\n    tag_95:\n      mload(0x40)\n      swap1\n      dup1\n      dup3\n      mstore\n      dup1\n      0x20\n      mul\n      0x20\n      add\n      dup3\n      add\n      0x40\n      mstore\n      dup1\n      iszero\n      tag_98\n      jumpi\n      dup2\n      0x20\n      add\n      0x20\n      dup3\n      mul\n      dup1\n      calldatasize\n      dup4\n      calldatacopy\n      dup1\n      dup3\n      add\n      swap2\n      pop\n      pop\n      swap1\n      pop\n    tag_98:\n      pop\n        /* \"contracts/first_contract.sol\":2795:2858  address[] memory client_address = new address[](clients.length) */\n      swap1\n      pop\n        /* \"contracts/first_contract.sol\":2867:2907  uint[]    memory client_balance_in_ether */\n      0x00\n        /* \"contracts/first_contract.sol\":2921:2928  clients */\n      dup1\n        /* \"contracts/first_contract.sol\":2921:2935  clients.length */\n      dup1\n      sload\n      swap1\n      pop\n        /* \"contracts/first_contract.sol\":2910:2936  new uint[](clients.length) */\n      0xffffffffffffffff\n      dup2\n      gt\n      iszero\n      tag_99\n      jumpi\n      tag_100\n      tag_97\n      jump\t// in\n    tag_100:\n    tag_99:\n      mload(0x40)\n      swap1\n      dup1\n      dup3\n      mstore\n      dup1\n      0x20\n      mul\n      0x20\n      add\n      dup3\n      add\n      0x40\n      mstore\n      dup1\n      iszero\n      tag_101\n      jumpi\n      dup2\n      0x20\n      add\n      0x20\n      dup3\n      mul\n      dup1\n      calldatasize\n      dup4\n      calldatacopy\n      dup1\n      dup3\n      add\n      swap2\n      pop\n      pop\n      swap1\n      pop\n    tag_101:\n      pop\n        /* \"contracts/first_contract.sol\":2867:2936  uint[]    memory client_balance_in_ether = new uint[](clients.length) */\n      swap1\n      pop\n        /* \"contracts/first_contract.sol\":2954:2960  uint i */\n      0x00\n        /* \"contracts/first_contract.sol\":2949:3200  for (uint i = 0; i < clients.length; i++) {\r... */\n    tag_102:\n        /* \"contracts/first_contract.sol\":2970:2977  clients */\n      0x00\n        /* \"contracts/first_contract.sol\":2970:2984  clients.length */\n      dup1\n      sload\n      swap1\n      pop\n        /* \"contracts/first_contract.sol\":2966:2967  i */\n      dup2\n        /* \"contracts/first_contract.sol\":2966:2984  i < clients.length */\n      lt\n        /* \"contracts/first_contract.sol\":2949:3200  for (uint i = 0; i < clients.length; i++) {\r... */\n      iszero\n      tag_103\n      jumpi\n        /* \"contracts/first_contract.sol\":3085:3092  clients */\n      0x00\n        /* \"contracts/first_contract.sol\":3093:3094  i */\n      dup2\n        /* \"contracts/first_contract.sol\":3085:3095  clients[i] */\n      dup2\n      sload\n      dup2\n      lt\n      tag_105\n      jumpi\n      tag_106\n      tag_81\n      jump\t// in\n    tag_106:\n    tag_105:\n      swap1\n      0x00\n      mstore\n      keccak256(0x00, 0x20)\n      swap1\n      0x03\n      mul\n      add\n        /* \"contracts/first_contract.sol\":3085:3110  clients[i].client_address */\n      0x01\n      add\n      0x00\n      swap1\n      sload\n      swap1\n      0x0100\n      exp\n      swap1\n      div\n      0xffffffffffffffffffffffffffffffffffffffff\n      and\n        /* \"contracts/first_contract.sol\":3065:3079  client_address */\n      dup4\n        /* \"contracts/first_contract.sol\":3080:3081  i */\n      dup3\n        /* \"contracts/first_contract.sol\":3065:3082  client_address[i] */\n      dup2\n      mload\n      dup2\n      lt\n      tag_108\n      jumpi\n      tag_109\n      tag_81\n      jump\t// in\n    tag_109:\n    tag_108:\n      0x20\n      mul\n      0x20\n      add\n      add\n        /* \"contracts/first_contract.sol\":3065:3110  client_address[i] = clients[i].client_address */\n      swap1\n      0xffffffffffffffffffffffffffffffffffffffff\n      and\n      swap1\n      dup2\n      0xffffffffffffffffffffffffffffffffffffffff\n      and\n      dup2\n      mstore\n      pop\n      pop\n        /* \"contracts/first_contract.sol\":3154:3161  clients */\n      0x00\n        /* \"contracts/first_contract.sol\":3162:3163  i */\n      dup2\n        /* \"contracts/first_contract.sol\":3154:3164  clients[i] */\n      dup2\n      sload\n      dup2\n      lt\n      tag_110\n      jumpi\n      tag_111\n      tag_81\n      jump\t// in\n    tag_111:\n    tag_110:\n      swap1\n      0x00\n      mstore\n      keccak256(0x00, 0x20)\n      swap1\n      0x03\n      mul\n      add\n        /* \"contracts/first_contract.sol\":3154:3188  clients[i].client_balance_in_ether */\n      0x02\n      add\n      sload\n        /* \"contracts/first_contract.sol\":3125:3148  client_balance_in_ether */\n      dup3\n        /* \"contracts/first_contract.sol\":3149:3150  i */\n      dup3\n        /* \"contracts/first_contract.sol\":3125:3151  client_balance_in_ether[i] */\n      dup2\n      mload\n      dup2\n      lt\n      tag_113\n      jumpi\n      tag_114\n      tag_81\n      jump\t// in\n    tag_114:\n    tag_113:\n      0x20\n      mul\n      0x20\n      add\n      add\n        /* \"contracts/first_contract.sol\":3125:3188  client_balance_in_ether[i] = clients[i].client_balance_in_ether */\n      dup2\n      dup2\n      mstore\n      pop\n      pop\n        /* \"contracts/first_contract.sol\":2986:2989  i++ */\n      dup1\n      dup1\n      tag_115\n      swap1\n      tag_85\n      jump\t// in\n    tag_115:\n      swap2\n      pop\n      pop\n        /* \"contracts/first_contract.sol\":2949:3200  for (uint i = 0; i < clients.length; i++) {\r... */\n      jump(tag_102)\n    tag_103:\n      pop\n        /* \"contracts/first_contract.sol\":3228:3242  client_address */\n      dup2\n        /* \"contracts/first_contract.sol\":3244:3267  client_balance_in_ether */\n      dup2\n        /* \"contracts/first_contract.sol\":3220:3268  return (client_address, client_balance_in_ether) */\n      swap4\n      pop\n      swap4\n      pop\n      pop\n      pop\n        /* \"contracts/first_contract.sol\":2707:3277  function getClients() public view returns (address[] memory,uint[] memory) {\r... */\n      swap1\n      swap2\n      jump\t// out\n        /* \"contracts/first_contract.sol\":3284:3386  function getContractBalance() public view returns(uint){\r... */\n    tag_35:\n        /* \"contracts/first_contract.sol\":3334:3338  uint */\n      0x00\n        /* \"contracts/first_contract.sol\":3357:3378  address(this).balance */\n      selfbalance\n        /* \"contracts/first_contract.sol\":3350:3378  return address(this).balance */\n      swap1\n      pop\n        /* \"contracts/first_contract.sol\":3284:3386  function getContractBalance() public view returns(uint){\r... */\n      swap1\n      jump\t// out\n        /* \"contracts/first_contract.sol\":2076:2566  function sendInterest() public payable onlyManager{\r... */\n    tag_39:\n        /* \"contracts/first_contract.sol\":959:966  manager */\n      0x02\n      0x00\n      swap1\n      sload\n      swap1\n      0x0100\n      exp\n      swap1\n      div\n      0xffffffffffffffffffffffffffffffffffffffff\n      and\n        /* \"contracts/first_contract.sol\":945:966  msg.sender == manager */\n      0xffffffffffffffffffffffffffffffffffffffff\n      and\n        /* \"contracts/first_contract.sol\":945:955  msg.sender */\n      caller\n        /* \"contracts/first_contract.sol\":945:966  msg.sender == manager */\n      0xffffffffffffffffffffffffffffffffffffffff\n      and\n      eq\n        /* \"contracts/first_contract.sol\":937:993  require(msg.sender == manager, \"Only manager can call!\") */\n      tag_118\n      jumpi\n      mload(0x40)\n      0x08c379a000000000000000000000000000000000000000000000000000000000\n      dup2\n      mstore\n      0x04\n      add\n      tag_119\n      swap1\n      tag_120\n      jump\t// in\n    tag_119:\n      mload(0x40)\n      dup1\n      swap2\n      sub\n      swap1\n      revert\n    tag_118:\n        /* \"contracts/first_contract.sol\":2138:2144  uint i */\n      0x00\n        /* \"contracts/first_contract.sol\":2134:2559  for(uint i=0;i<clients.length;i++){\r... */\n    tag_122:\n        /* \"contracts/first_contract.sol\":2149:2156  clients */\n      0x00\n        /* \"contracts/first_contract.sol\":2149:2163  clients.length */\n      dup1\n      sload\n      swap1\n      pop\n        /* \"contracts/first_contract.sol\":2147:2148  i */\n      dup2\n        /* \"contracts/first_contract.sol\":2147:2163  i<clients.length */\n      lt\n        /* \"contracts/first_contract.sol\":2134:2559  for(uint i=0;i<clients.length;i++){\r... */\n      iszero\n      tag_123\n      jumpi\n        /* \"contracts/first_contract.sol\":2181:2203  address initialAddress */\n      0x00\n        /* \"contracts/first_contract.sol\":2206:2213  clients */\n      dup1\n        /* \"contracts/first_contract.sol\":2214:2215  i */\n      dup3\n        /* \"contracts/first_contract.sol\":2206:2216  clients[i] */\n      dup2\n      sload\n      dup2\n      lt\n      tag_125\n      jumpi\n      tag_126\n      tag_81\n      jump\t// in\n    tag_126:\n    tag_125:\n      swap1\n      0x00\n      mstore\n      keccak256(0x00, 0x20)\n      swap1\n      0x03\n      mul\n      add\n        /* \"contracts/first_contract.sol\":2206:2231  clients[i].client_address */\n      0x01\n      add\n      0x00\n      swap1\n      sload\n      swap1\n      0x0100\n      exp\n      swap1\n      div\n      0xffffffffffffffffffffffffffffffffffffffff\n      and\n        /* \"contracts/first_contract.sol\":2181:2231  address initialAddress = clients[i].client_address */\n      swap1\n      pop\n        /* \"contracts/first_contract.sol\":2244:2265  uint lastInterestDate */\n      0x00\n        /* \"contracts/first_contract.sol\":2268:2280  interestDate */\n      0x03\n        /* \"contracts/first_contract.sol\":2268:2296  interestDate[initialAddress] */\n      0x00\n        /* \"contracts/first_contract.sol\":2281:2295  initialAddress */\n      dup4\n        /* \"contracts/first_contract.sol\":2268:2296  interestDate[initialAddress] */\n      0xffffffffffffffffffffffffffffffffffffffff\n      and\n      0xffffffffffffffffffffffffffffffffffffffff\n      and\n      dup2\n      mstore\n      0x20\n      add\n      swap1\n      dup2\n      mstore\n      0x20\n      add\n      0x00\n      keccak256\n      sload\n        /* \"contracts/first_contract.sol\":2244:2296  uint lastInterestDate = interestDate[initialAddress] */\n      swap1\n      pop\n        /* \"contracts/first_contract.sol\":2349:2359  10 seconds */\n      0x0a\n        /* \"contracts/first_contract.sol\":2330:2346  lastInterestDate */\n      dup2\n        /* \"contracts/first_contract.sol\":2330:2359  lastInterestDate + 10 seconds */\n      tag_128\n      swap2\n      swap1\n      tag_129\n      jump\t// in\n    tag_128:\n        /* \"contracts/first_contract.sol\":2312:2327  block.timestamp */\n      timestamp\n        /* \"contracts/first_contract.sol\":2312:2359  block.timestamp < lastInterestDate + 10 seconds */\n      lt\n        /* \"contracts/first_contract.sol\":2309:2438  if(block.timestamp < lastInterestDate + 10 seconds){\r... */\n      iszero\n      tag_130\n      jumpi\n        /* \"contracts/first_contract.sol\":2378:2424  revert(\"It's just been less than 10 seconds!\") */\n      mload(0x40)\n      0x08c379a000000000000000000000000000000000000000000000000000000000\n      dup2\n      mstore\n      0x04\n      add\n      tag_131\n      swap1\n      tag_132\n      jump\t// in\n    tag_131:\n      mload(0x40)\n      dup1\n      swap2\n      sub\n      swap1\n      revert\n        /* \"contracts/first_contract.sol\":2309:2438  if(block.timestamp < lastInterestDate + 10 seconds){\r... */\n    tag_130:\n        /* \"contracts/first_contract.sol\":2458:2472  initialAddress */\n      dup2\n        /* \"contracts/first_contract.sol\":2450:2482  payable(initialAddress).transfer */\n      0xffffffffffffffffffffffffffffffffffffffff\n      and\n        /* \"contracts/first_contract.sol\":2450:2491  payable(initialAddress).transfer(1 ether) */\n      0x08fc\n        /* \"contracts/first_contract.sol\":2483:2490  1 ether */\n      0x0de0b6b3a7640000\n        /* \"contracts/first_contract.sol\":2450:2491  payable(initialAddress).transfer(1 ether) */\n      swap1\n      dup2\n      iszero\n      mul\n      swap1\n      mload(0x40)\n      0x00\n      mload(0x40)\n      dup1\n      dup4\n      sub\n      dup2\n      dup6\n      dup9\n      dup9\n      call\n      swap4\n      pop\n      pop\n      pop\n      pop\n      iszero\n      dup1\n      iszero\n      tag_134\n      jumpi\n      returndatasize\n      0x00\n      dup1\n      returndatacopy\n      revert(0x00, returndatasize)\n    tag_134:\n      pop\n        /* \"contracts/first_contract.sol\":2535:2550  block.timestamp */\n      timestamp\n        /* \"contracts/first_contract.sol\":2504:2516  interestDate */\n      0x03\n        /* \"contracts/first_contract.sol\":2504:2532  interestDate[initialAddress] */\n      0x00\n        /* \"contracts/first_contract.sol\":2517:2531  initialAddress */\n      dup5\n        /* \"contracts/first_contract.sol\":2504:2532  interestDate[initialAddress] */\n      0xffffffffffffffffffffffffffffffffffffffff\n      and\n      0xffffffffffffffffffffffffffffffffffffffff\n      and\n      dup2\n      mstore\n      0x20\n      add\n      swap1\n      dup2\n      mstore\n      0x20\n      add\n      0x00\n      keccak256\n        /* \"contracts/first_contract.sol\":2504:2550  interestDate[initialAddress] = block.timestamp */\n      dup2\n      swap1\n      sstore\n      pop\n        /* \"contracts/first_contract.sol\":2168:2559  {\r... */\n      pop\n      pop\n        /* \"contracts/first_contract.sol\":2164:2167  i++ */\n      dup1\n      dup1\n      tag_135\n      swap1\n      tag_85\n      jump\t// in\n    tag_135:\n      swap2\n      pop\n      pop\n        /* \"contracts/first_contract.sol\":2134:2559  for(uint i=0;i<clients.length;i++){\r... */\n      jump(tag_122)\n    tag_123:\n      pop\n        /* \"contracts/first_contract.sol\":2076:2566  function sendInterest() public payable onlyManager{\r... */\n      jump\t// out\n        /* \"contracts/first_contract.sol\":1534:1764  function joinAsClient() public payable returns(string memory){\r... */\n    tag_41:\n        /* \"contracts/first_contract.sol\":1581:1594  string memory */\n      0x60\n        /* \"contracts/first_contract.sol\":1630:1645  block.timestamp */\n      timestamp\n        /* \"contracts/first_contract.sol\":1603:1615  interestDate */\n      0x03\n        /* \"contracts/first_contract.sol\":1603:1627  interestDate[msg.sender] */\n      0x00\n        /* \"contracts/first_contract.sol\":1616:1626  msg.sender */\n      caller\n        /* \"contracts/first_contract.sol\":1603:1627  interestDate[msg.sender] */\n      0xffffffffffffffffffffffffffffffffffffffff\n      and\n      0xffffffffffffffffffffffffffffffffffffffff\n      and\n      dup2\n      mstore\n      0x20\n      add\n      swap1\n      dup2\n      mstore\n      0x20\n      add\n      0x00\n      keccak256\n        /* \"contracts/first_contract.sol\":1603:1645  interestDate[msg.sender] = block.timestamp */\n      dup2\n      swap1\n      sstore\n      pop\n        /* \"contracts/first_contract.sol\":1653:1660  clients */\n      0x00\n        /* \"contracts/first_contract.sol\":1666:1738  client_account(clientCounter++, msg.sender, address(msg.sender).balance) */\n      mload(0x40)\n      dup1\n      0x60\n      add\n      0x40\n      mstore\n      dup1\n        /* \"contracts/first_contract.sol\":1681:1694  clientCounter */\n      0x01\n      0x00\n        /* \"contracts/first_contract.sol\":1681:1696  clientCounter++ */\n      dup2\n      sload\n      dup1\n      swap3\n      swap2\n      swap1\n      tag_137\n      swap1\n      tag_138\n      jump\t// in\n    tag_137:\n      swap2\n      swap1\n      pop\n      sstore\n        /* \"contracts/first_contract.sol\":1666:1738  client_account(clientCounter++, msg.sender, address(msg.sender).balance) */\n      dup2\n      mstore\n      0x20\n      add\n        /* \"contracts/first_contract.sol\":1698:1708  msg.sender */\n      caller\n        /* \"contracts/first_contract.sol\":1666:1738  client_account(clientCounter++, msg.sender, address(msg.sender).balance) */\n      0xffffffffffffffffffffffffffffffffffffffff\n      and\n      dup2\n      mstore\n      0x20\n      add\n        /* \"contracts/first_contract.sol\":1718:1728  msg.sender */\n      caller\n        /* \"contracts/first_contract.sol\":1710:1737  address(msg.sender).balance */\n      0xffffffffffffffffffffffffffffffffffffffff\n      and\n      balance\n        /* \"contracts/first_contract.sol\":1666:1738  client_account(clientCounter++, msg.sender, address(msg.sender).balance) */\n      dup2\n      mstore\n      pop\n        /* \"contracts/first_contract.sol\":1653:1739  clients.push(client_account(clientCounter++, msg.sender, address(msg.sender).balance)) */\n      swap1\n      dup1\n      0x01\n      dup2\n      sload\n      add\n      dup1\n      dup3\n      sstore\n      dup1\n      swap2\n      pop\n      pop\n      0x01\n      swap1\n      sub\n      swap1\n      0x00\n      mstore\n      keccak256(0x00, 0x20)\n      swap1\n      0x03\n      mul\n      add\n      0x00\n      swap1\n      swap2\n      swap1\n      swap2\n      swap1\n      swap2\n      pop\n      0x00\n      dup3\n      add\n      mload\n      dup2\n      0x00\n      add\n      sstore\n      0x20\n      dup3\n      add\n      mload\n      dup2\n      0x01\n      add\n      exp(0x0100, 0x00)\n      dup2\n      sload\n      dup2\n      0xffffffffffffffffffffffffffffffffffffffff\n      mul\n      not\n      and\n      swap1\n      dup4\n      0xffffffffffffffffffffffffffffffffffffffff\n      and\n      mul\n      or\n      swap1\n      sstore\n      pop\n      0x40\n      dup3\n      add\n      mload\n      dup2\n      0x02\n      add\n      sstore\n      pop\n      pop\n        /* \"contracts/first_contract.sol\":1747:1756  return \"\" */\n      mload(0x40)\n      dup1\n      0x20\n      add\n      0x40\n      mstore\n      dup1\n      0x00\n      dup2\n      mstore\n      pop\n      swap1\n      pop\n        /* \"contracts/first_contract.sol\":1534:1764  function joinAsClient() public payable returns(string memory){\r... */\n      swap1\n      jump\t// out\n        /* \"contracts/first_contract.sol\":1774:1877  function deposit() public payable onlyClients{\r... */\n    tag_45:\n        /* \"contracts/first_contract.sol\":1053:1066  bool isClient */\n      0x00\n        /* \"contracts/first_contract.sol\":1089:1095  uint i */\n      dup1\n        /* \"contracts/first_contract.sol\":1085:1262  for(uint i=0;i<clients.length;i++){\r... */\n    tag_141:\n        /* \"contracts/first_contract.sol\":1100:1107  clients */\n      0x00\n        /* \"contracts/first_contract.sol\":1100:1114  clients.length */\n      dup1\n      sload\n      swap1\n      pop\n        /* \"contracts/first_contract.sol\":1098:1099  i */\n      dup2\n        /* \"contracts/first_contract.sol\":1098:1114  i<clients.length */\n      lt\n        /* \"contracts/first_contract.sol\":1085:1262  for(uint i=0;i<clients.length;i++){\r... */\n      iszero\n      tag_142\n      jumpi\n        /* \"contracts/first_contract.sol\":1166:1176  msg.sender */\n      caller\n        /* \"contracts/first_contract.sol\":1137:1176  clients[i].client_address == msg.sender */\n      0xffffffffffffffffffffffffffffffffffffffff\n      and\n        /* \"contracts/first_contract.sol\":1137:1144  clients */\n      0x00\n        /* \"contracts/first_contract.sol\":1145:1146  i */\n      dup3\n        /* \"contracts/first_contract.sol\":1137:1147  clients[i] */\n      dup2\n      sload\n      dup2\n      lt\n      tag_144\n      jumpi\n      tag_145\n      tag_81\n      jump\t// in\n    tag_145:\n    tag_144:\n      swap1\n      0x00\n      mstore\n      keccak256(0x00, 0x20)\n      swap1\n      0x03\n      mul\n      add\n        /* \"contracts/first_contract.sol\":1137:1162  clients[i].client_address */\n      0x01\n      add\n      0x00\n      swap1\n      sload\n      swap1\n      0x0100\n      exp\n      swap1\n      div\n      0xffffffffffffffffffffffffffffffffffffffff\n      and\n        /* \"contracts/first_contract.sol\":1137:1176  clients[i].client_address == msg.sender */\n      0xffffffffffffffffffffffffffffffffffffffff\n      and\n      eq\n        /* \"contracts/first_contract.sol\":1134:1251  if(clients[i].client_address == msg.sender){\r... */\n      iszero\n      tag_147\n      jumpi\n        /* \"contracts/first_contract.sol\":1207:1211  true */\n      0x01\n        /* \"contracts/first_contract.sol\":1196:1211  isClient = true */\n      swap2\n      pop\n        /* \"contracts/first_contract.sol\":1230:1235  break */\n      jump(tag_142)\n        /* \"contracts/first_contract.sol\":1134:1251  if(clients[i].client_address == msg.sender){\r... */\n    tag_147:\n        /* \"contracts/first_contract.sol\":1115:1118  i++ */\n      dup1\n      dup1\n      tag_148\n      swap1\n      tag_85\n      jump\t// in\n    tag_148:\n      swap2\n      pop\n      pop\n        /* \"contracts/first_contract.sol\":1085:1262  for(uint i=0;i<clients.length;i++){\r... */\n      jump(tag_141)\n    tag_142:\n      pop\n        /* \"contracts/first_contract.sol\":1280:1288  isClient */\n      dup1\n        /* \"contracts/first_contract.sol\":1272:1315  require(isClient, \"Only clients can call!\") */\n      tag_149\n      jumpi\n      mload(0x40)\n      0x08c379a000000000000000000000000000000000000000000000000000000000\n      dup2\n      mstore\n      0x04\n      add\n      tag_150\n      swap1\n      tag_88\n      jump\t// in\n    tag_150:\n      mload(0x40)\n      dup1\n      swap2\n      sub\n      swap1\n      revert\n    tag_149:\n        /* \"contracts/first_contract.sol\":1843:1847  this */\n      address\n        /* \"contracts/first_contract.sol\":1827:1858  payable(address(this)).transfer */\n      0xffffffffffffffffffffffffffffffffffffffff\n      and\n        /* \"contracts/first_contract.sol\":1827:1869  payable(address(this)).transfer(msg.value) */\n      0x08fc\n        /* \"contracts/first_contract.sol\":1859:1868  msg.value */\n      callvalue\n        /* \"contracts/first_contract.sol\":1827:1869  payable(address(this)).transfer(msg.value) */\n      swap1\n      dup2\n      iszero\n      mul\n      swap1\n      mload(0x40)\n      0x00\n      mload(0x40)\n      dup1\n      dup4\n      sub\n      dup2\n      dup6\n      dup9\n      dup9\n      call\n      swap4\n      pop\n      pop\n      pop\n      pop\n      iszero\n      dup1\n      iszero\n      tag_153\n      jumpi\n      returndatasize\n      0x00\n      dup1\n      returndatacopy\n      revert(0x00, returndatasize)\n    tag_153:\n      pop\n        /* \"contracts/first_contract.sol\":1042:1335  {\r... */\n      pop\n        /* \"contracts/first_contract.sol\":1774:1877  function deposit() public payable onlyClients{\r... */\n      jump\t// out\n        /* \"contracts/first_contract.sol\":1387:1526  function setManager(address managerAddress) public returns(string memory){\r... */\n    tag_50:\n        /* \"contracts/first_contract.sol\":1446:1459  string memory */\n      0x60\n        /* \"contracts/first_contract.sol\":1486:1500  managerAddress */\n      dup2\n        /* \"contracts/first_contract.sol\":1468:1475  manager */\n      0x02\n      0x00\n        /* \"contracts/first_contract.sol\":1468:1501  manager = payable(managerAddress) */\n      0x0100\n      exp\n      dup2\n      sload\n      dup2\n      0xffffffffffffffffffffffffffffffffffffffff\n      mul\n      not\n      and\n      swap1\n      dup4\n      0xffffffffffffffffffffffffffffffffffffffff\n      and\n      mul\n      or\n      swap1\n      sstore\n      pop\n        /* \"contracts/first_contract.sol\":1509:1518  return \"\" */\n      mload(0x40)\n      dup1\n      0x20\n      add\n      0x40\n      mstore\n      dup1\n      0x00\n      dup2\n      mstore\n      pop\n      swap1\n      pop\n        /* \"contracts/first_contract.sol\":1387:1526  function setManager(address managerAddress) public returns(string memory){\r... */\n      swap2\n      swap1\n      pop\n      jump\t// out\n        /* \"contracts/first_contract.sol\":790:834  mapping(address => uint) public interestDate */\n    tag_55:\n      mstore(0x20, 0x03)\n      dup1\n      0x00\n      mstore\n      keccak256(0x00, 0x40)\n      0x00\n      swap2\n      pop\n      swap1\n      pop\n      sload\n      dup2\n      jump\t// out\n        /* \"contracts/first_contract.sol\":2582:2699  function getCountClient() public view returns(uint){\r... */\n    tag_59:\n        /* \"contracts/first_contract.sol\":2628:2632  uint */\n      0x00\n        /* \"contracts/first_contract.sol\":2644:2654  uint count */\n      dup1\n        /* \"contracts/first_contract.sol\":2657:2664  clients */\n      0x00\n        /* \"contracts/first_contract.sol\":2657:2671  clients.length */\n      dup1\n      sload\n      swap1\n      pop\n        /* \"contracts/first_contract.sol\":2644:2671  uint count = clients.length */\n      swap1\n      pop\n        /* \"contracts/first_contract.sol\":2686:2691  count */\n      dup1\n        /* \"contracts/first_contract.sol\":2679:2691  return count */\n      swap2\n      pop\n      pop\n        /* \"contracts/first_contract.sol\":2582:2699  function getCountClient() public view returns(uint){\r... */\n      swap1\n      jump\t// out\n        /* \"#utility.yul\":7:146   */\n    tag_157:\n        /* \"#utility.yul\":53:58   */\n      0x00\n        /* \"#utility.yul\":91:97   */\n      dup2\n        /* \"#utility.yul\":78:98   */\n      calldataload\n        /* \"#utility.yul\":69:98   */\n      swap1\n      pop\n        /* \"#utility.yul\":107:140   */\n      tag_159\n        /* \"#utility.yul\":134:139   */\n      dup2\n        /* \"#utility.yul\":107:140   */\n      tag_160\n      jump\t// in\n    tag_159:\n        /* \"#utility.yul\":7:146   */\n      swap3\n      swap2\n      pop\n      pop\n      jump\t// out\n        /* \"#utility.yul\":152:289   */\n    tag_161:\n        /* \"#utility.yul\":206:211   */\n      0x00\n        /* \"#utility.yul\":237:243   */\n      dup2\n        /* \"#utility.yul\":231:244   */\n      mload\n        /* \"#utility.yul\":222:244   */\n      swap1\n      pop\n        /* \"#utility.yul\":253:283   */\n      tag_163\n        /* \"#utility.yul\":277:282   */\n      dup2\n        /* \"#utility.yul\":253:283   */\n      tag_164\n      jump\t// in\n    tag_163:\n        /* \"#utility.yul\":152:289   */\n      swap3\n      swap2\n      pop\n      pop\n      jump\t// out\n        /* \"#utility.yul\":295:434   */\n    tag_165:\n        /* \"#utility.yul\":341:346   */\n      0x00\n        /* \"#utility.yul\":379:385   */\n      dup2\n        /* \"#utility.yul\":366:386   */\n      calldataload\n        /* \"#utility.yul\":357:386   */\n      swap1\n      pop\n        /* \"#utility.yul\":395:428   */\n      tag_167\n        /* \"#utility.yul\":422:427   */\n      dup2\n        /* \"#utility.yul\":395:428   */\n      tag_168\n      jump\t// in\n    tag_167:\n        /* \"#utility.yul\":295:434   */\n      swap3\n      swap2\n      pop\n      pop\n      jump\t// out\n        /* \"#utility.yul\":440:769   */\n    tag_49:\n        /* \"#utility.yul\":499:505   */\n      0x00\n        /* \"#utility.yul\":548:550   */\n      0x20\n        /* \"#utility.yul\":536:545   */\n      dup3\n        /* \"#utility.yul\":527:534   */\n      dup5\n        /* \"#utility.yul\":523:546   */\n      sub\n        /* \"#utility.yul\":519:551   */\n      slt\n        /* \"#utility.yul\":516:635   */\n      iszero\n      tag_170\n      jumpi\n        /* \"#utility.yul\":554:633   */\n      tag_171\n      tag_172\n      jump\t// in\n    tag_171:\n        /* \"#utility.yul\":516:635   */\n    tag_170:\n        /* \"#utility.yul\":674:675   */\n      0x00\n        /* \"#utility.yul\":699:752   */\n      tag_173\n        /* \"#utility.yul\":744:751   */\n      dup5\n        /* \"#utility.yul\":735:741   */\n      dup3\n        /* \"#utility.yul\":724:733   */\n      dup6\n        /* \"#utility.yul\":720:742   */\n      add\n        /* \"#utility.yul\":699:752   */\n      tag_157\n      jump\t// in\n    tag_173:\n        /* \"#utility.yul\":689:752   */\n      swap2\n      pop\n        /* \"#utility.yul\":645:762   */\n      pop\n        /* \"#utility.yul\":440:769   */\n      swap3\n      swap2\n      pop\n      pop\n      jump\t// out\n        /* \"#utility.yul\":775:1394   */\n    tag_20:\n        /* \"#utility.yul\":852:858   */\n      0x00\n        /* \"#utility.yul\":860:866   */\n      dup1\n        /* \"#utility.yul\":868:874   */\n      0x00\n        /* \"#utility.yul\":917:919   */\n      0x60\n        /* \"#utility.yul\":905:914   */\n      dup5\n        /* \"#utility.yul\":896:903   */\n      dup7\n        /* \"#utility.yul\":892:915   */\n      sub\n        /* \"#utility.yul\":888:920   */\n      slt\n        /* \"#utility.yul\":885:1004   */\n      iszero\n      tag_175\n      jumpi\n        /* \"#utility.yul\":923:1002   */\n      tag_176\n      tag_172\n      jump\t// in\n    tag_176:\n        /* \"#utility.yul\":885:1004   */\n    tag_175:\n        /* \"#utility.yul\":1043:1044   */\n      0x00\n        /* \"#utility.yul\":1068:1121   */\n      tag_177\n        /* \"#utility.yul\":1113:1120   */\n      dup7\n        /* \"#utility.yul\":1104:1110   */\n      dup3\n        /* \"#utility.yul\":1093:1102   */\n      dup8\n        /* \"#utility.yul\":1089:1111   */\n      add\n        /* \"#utility.yul\":1068:1121   */\n      tag_157\n      jump\t// in\n    tag_177:\n        /* \"#utility.yul\":1058:1121   */\n      swap4\n      pop\n        /* \"#utility.yul\":1014:1131   */\n      pop\n        /* \"#utility.yul\":1170:1172   */\n      0x20\n        /* \"#utility.yul\":1196:1249   */\n      tag_178\n        /* \"#utility.yul\":1241:1248   */\n      dup7\n        /* \"#utility.yul\":1232:1238   */\n      dup3\n        /* \"#utility.yul\":1221:1230   */\n      dup8\n        /* \"#utility.yul\":1217:1239   */\n      add\n        /* \"#utility.yul\":1196:1249   */\n      tag_157\n      jump\t// in\n    tag_178:\n        /* \"#utility.yul\":1186:1249   */\n      swap3\n      pop\n        /* \"#utility.yul\":1141:1259   */\n      pop\n        /* \"#utility.yul\":1298:1300   */\n      0x40\n        /* \"#utility.yul\":1324:1377   */\n      tag_179\n        /* \"#utility.yul\":1369:1376   */\n      dup7\n        /* \"#utility.yul\":1360:1366   */\n      dup3\n        /* \"#utility.yul\":1349:1358   */\n      dup8\n        /* \"#utility.yul\":1345:1367   */\n      add\n        /* \"#utility.yul\":1324:1377   */\n      tag_165\n      jump\t// in\n    tag_179:\n        /* \"#utility.yul\":1314:1377   */\n      swap2\n      pop\n        /* \"#utility.yul\":1269:1387   */\n      pop\n        /* \"#utility.yul\":775:1394   */\n      swap3\n      pop\n      swap3\n      pop\n      swap3\n      jump\t// out\n        /* \"#utility.yul\":1400:1745   */\n    tag_68:\n        /* \"#utility.yul\":1467:1473   */\n      0x00\n        /* \"#utility.yul\":1516:1518   */\n      0x20\n        /* \"#utility.yul\":1504:1513   */\n      dup3\n        /* \"#utility.yul\":1495:1502   */\n      dup5\n        /* \"#utility.yul\":1491:1514   */\n      sub\n        /* \"#utility.yul\":1487:1519   */\n      slt\n        /* \"#utility.yul\":1484:1603   */\n      iszero\n      tag_181\n      jumpi\n        /* \"#utility.yul\":1522:1601   */\n      tag_182\n      tag_172\n      jump\t// in\n    tag_182:\n        /* \"#utility.yul\":1484:1603   */\n    tag_181:\n        /* \"#utility.yul\":1642:1643   */\n      0x00\n        /* \"#utility.yul\":1667:1728   */\n      tag_183\n        /* \"#utility.yul\":1720:1727   */\n      dup5\n        /* \"#utility.yul\":1711:1717   */\n      dup3\n        /* \"#utility.yul\":1700:1709   */\n      dup6\n        /* \"#utility.yul\":1696:1718   */\n      add\n        /* \"#utility.yul\":1667:1728   */\n      tag_161\n      jump\t// in\n    tag_183:\n        /* \"#utility.yul\":1657:1728   */\n      swap2\n      pop\n        /* \"#utility.yul\":1613:1738   */\n      pop\n        /* \"#utility.yul\":1400:1745   */\n      swap3\n      swap2\n      pop\n      pop\n      jump\t// out\n        /* \"#utility.yul\":1751:2080   */\n    tag_26:\n        /* \"#utility.yul\":1810:1816   */\n      0x00\n        /* \"#utility.yul\":1859:1861   */\n      0x20\n        /* \"#utility.yul\":1847:1856   */\n      dup3\n        /* \"#utility.yul\":1838:1845   */\n      dup5\n        /* \"#utility.yul\":1834:1857   */\n      sub\n        /* \"#utility.yul\":1830:1862   */\n      slt\n        /* \"#utility.yul\":1827:1946   */\n      iszero\n      tag_185\n      jumpi\n        /* \"#utility.yul\":1865:1944   */\n      tag_186\n      tag_172\n      jump\t// in\n    tag_186:\n        /* \"#utility.yul\":1827:1946   */\n    tag_185:\n        /* \"#utility.yul\":1985:1986   */\n      0x00\n        /* \"#utility.yul\":2010:2063   */\n      tag_187\n        /* \"#utility.yul\":2055:2062   */\n      dup5\n        /* \"#utility.yul\":2046:2052   */\n      dup3\n        /* \"#utility.yul\":2035:2044   */\n      dup6\n        /* \"#utility.yul\":2031:2053   */\n      add\n        /* \"#utility.yul\":2010:2063   */\n      tag_165\n      jump\t// in\n    tag_187:\n        /* \"#utility.yul\":2000:2063   */\n      swap2\n      pop\n        /* \"#utility.yul\":1956:2073   */\n      pop\n        /* \"#utility.yul\":1751:2080   */\n      swap3\n      swap2\n      pop\n      pop\n      jump\t// out\n        /* \"#utility.yul\":2086:2265   */\n    tag_188:\n        /* \"#utility.yul\":2155:2165   */\n      0x00\n        /* \"#utility.yul\":2176:2222   */\n      tag_190\n        /* \"#utility.yul\":2218:2221   */\n      dup4\n        /* \"#utility.yul\":2210:2216   */\n      dup4\n        /* \"#utility.yul\":2176:2222   */\n      tag_191\n      jump\t// in\n    tag_190:\n        /* \"#utility.yul\":2254:2258   */\n      0x20\n        /* \"#utility.yul\":2249:2252   */\n      dup4\n        /* \"#utility.yul\":2245:2259   */\n      add\n        /* \"#utility.yul\":2231:2259   */\n      swap1\n      pop\n        /* \"#utility.yul\":2086:2265   */\n      swap3\n      swap2\n      pop\n      pop\n      jump\t// out\n        /* \"#utility.yul\":2271:2450   */\n    tag_192:\n        /* \"#utility.yul\":2340:2350   */\n      0x00\n        /* \"#utility.yul\":2361:2407   */\n      tag_194\n        /* \"#utility.yul\":2403:2406   */\n      dup4\n        /* \"#utility.yul\":2395:2401   */\n      dup4\n        /* \"#utility.yul\":2361:2407   */\n      tag_195\n      jump\t// in\n    tag_194:\n        /* \"#utility.yul\":2439:2443   */\n      0x20\n        /* \"#utility.yul\":2434:2437   */\n      dup4\n        /* \"#utility.yul\":2430:2444   */\n      add\n        /* \"#utility.yul\":2416:2444   */\n      swap1\n      pop\n        /* \"#utility.yul\":2271:2450   */\n      swap3\n      swap2\n      pop\n      pop\n      jump\t// out\n        /* \"#utility.yul\":2456:2564   */\n    tag_191:\n        /* \"#utility.yul\":2533:2557   */\n      tag_197\n        /* \"#utility.yul\":2551:2556   */\n      dup2\n        /* \"#utility.yul\":2533:2557   */\n      tag_198\n      jump\t// in\n    tag_197:\n        /* \"#utility.yul\":2528:2531   */\n      dup3\n        /* \"#utility.yul\":2521:2558   */\n      mstore\n        /* \"#utility.yul\":2456:2564   */\n      pop\n      pop\n      jump\t// out\n        /* \"#utility.yul\":2570:2688   */\n    tag_199:\n        /* \"#utility.yul\":2657:2681   */\n      tag_201\n        /* \"#utility.yul\":2675:2680   */\n      dup2\n        /* \"#utility.yul\":2657:2681   */\n      tag_198\n      jump\t// in\n    tag_201:\n        /* \"#utility.yul\":2652:2655   */\n      dup3\n        /* \"#utility.yul\":2645:2682   */\n      mstore\n        /* \"#utility.yul\":2570:2688   */\n      pop\n      pop\n      jump\t// out\n        /* \"#utility.yul\":2724:3456   */\n    tag_202:\n        /* \"#utility.yul\":2843:2846   */\n      0x00\n        /* \"#utility.yul\":2872:2926   */\n      tag_204\n        /* \"#utility.yul\":2920:2925   */\n      dup3\n        /* \"#utility.yul\":2872:2926   */\n      tag_205\n      jump\t// in\n    tag_204:\n        /* \"#utility.yul\":2942:3028   */\n      tag_206\n        /* \"#utility.yul\":3021:3027   */\n      dup2\n        /* \"#utility.yul\":3016:3019   */\n      dup6\n        /* \"#utility.yul\":2942:3028   */\n      tag_207\n      jump\t// in\n    tag_206:\n        /* \"#utility.yul\":2935:3028   */\n      swap4\n      pop\n        /* \"#utility.yul\":3052:3108   */\n      tag_208\n        /* \"#utility.yul\":3102:3107   */\n      dup4\n        /* \"#utility.yul\":3052:3108   */\n      tag_209\n      jump\t// in\n    tag_208:\n        /* \"#utility.yul\":3131:3138   */\n      dup1\n        /* \"#utility.yul\":3162:3163   */\n      0x00\n        /* \"#utility.yul\":3147:3431   */\n    tag_210:\n        /* \"#utility.yul\":3172:3178   */\n      dup4\n        /* \"#utility.yul\":3169:3170   */\n      dup2\n        /* \"#utility.yul\":3166:3179   */\n      lt\n        /* \"#utility.yul\":3147:3431   */\n      iszero\n      tag_212\n      jumpi\n        /* \"#utility.yul\":3248:3254   */\n      dup2\n        /* \"#utility.yul\":3242:3255   */\n      mload\n        /* \"#utility.yul\":3275:3338   */\n      tag_213\n        /* \"#utility.yul\":3334:3337   */\n      dup9\n        /* \"#utility.yul\":3319:3332   */\n      dup3\n        /* \"#utility.yul\":3275:3338   */\n      tag_188\n      jump\t// in\n    tag_213:\n        /* \"#utility.yul\":3268:3338   */\n      swap8\n      pop\n        /* \"#utility.yul\":3361:3421   */\n      tag_214\n        /* \"#utility.yul\":3414:3420   */\n      dup4\n        /* \"#utility.yul\":3361:3421   */\n      tag_215\n      jump\t// in\n    tag_214:\n        /* \"#utility.yul\":3351:3421   */\n      swap3\n      pop\n        /* \"#utility.yul\":3207:3431   */\n      pop\n        /* \"#utility.yul\":3194:3195   */\n      0x01\n        /* \"#utility.yul\":3191:3192   */\n      dup2\n        /* \"#utility.yul\":3187:3196   */\n      add\n        /* \"#utility.yul\":3182:3196   */\n      swap1\n      pop\n        /* \"#utility.yul\":3147:3431   */\n      jump(tag_210)\n    tag_212:\n        /* \"#utility.yul\":3151:3165   */\n      pop\n        /* \"#utility.yul\":3447:3450   */\n      dup6\n        /* \"#utility.yul\":3440:3450   */\n      swap4\n      pop\n        /* \"#utility.yul\":2848:3456   */\n      pop\n      pop\n      pop\n        /* \"#utility.yul\":2724:3456   */\n      swap3\n      swap2\n      pop\n      pop\n      jump\t// out\n        /* \"#utility.yul\":3492:4224   */\n    tag_216:\n        /* \"#utility.yul\":3611:3614   */\n      0x00\n        /* \"#utility.yul\":3640:3694   */\n      tag_218\n        /* \"#utility.yul\":3688:3693   */\n      dup3\n        /* \"#utility.yul\":3640:3694   */\n      tag_219\n      jump\t// in\n    tag_218:\n        /* \"#utility.yul\":3710:3796   */\n      tag_220\n        /* \"#utility.yul\":3789:3795   */\n      dup2\n        /* \"#utility.yul\":3784:3787   */\n      dup6\n        /* \"#utility.yul\":3710:3796   */\n      tag_221\n      jump\t// in\n    tag_220:\n        /* \"#utility.yul\":3703:3796   */\n      swap4\n      pop\n        /* \"#utility.yul\":3820:3876   */\n      tag_222\n        /* \"#utility.yul\":3870:3875   */\n      dup4\n        /* \"#utility.yul\":3820:3876   */\n      tag_223\n      jump\t// in\n    tag_222:\n        /* \"#utility.yul\":3899:3906   */\n      dup1\n        /* \"#utility.yul\":3930:3931   */\n      0x00\n        /* \"#utility.yul\":3915:4199   */\n    tag_224:\n        /* \"#utility.yul\":3940:3946   */\n      dup4\n        /* \"#utility.yul\":3937:3938   */\n      dup2\n        /* \"#utility.yul\":3934:3947   */\n      lt\n        /* \"#utility.yul\":3915:4199   */\n      iszero\n      tag_226\n      jumpi\n        /* \"#utility.yul\":4016:4022   */\n      dup2\n        /* \"#utility.yul\":4010:4023   */\n      mload\n        /* \"#utility.yul\":4043:4106   */\n      tag_227\n        /* \"#utility.yul\":4102:4105   */\n      dup9\n        /* \"#utility.yul\":4087:4100   */\n      dup3\n        /* \"#utility.yul\":4043:4106   */\n      tag_192\n      jump\t// in\n    tag_227:\n        /* \"#utility.yul\":4036:4106   */\n      swap8\n      pop\n        /* \"#utility.yul\":4129:4189   */\n      tag_228\n        /* \"#utility.yul\":4182:4188   */\n      dup4\n        /* \"#utility.yul\":4129:4189   */\n      tag_229\n      jump\t// in\n    tag_228:\n        /* \"#utility.yul\":4119:4189   */\n      swap3\n      pop\n        /* \"#utility.yul\":3975:4199   */\n      pop\n        /* \"#utility.yul\":3962:3963   */\n      0x01\n        /* \"#utility.yul\":3959:3960   */\n      dup2\n        /* \"#utility.yul\":3955:3964   */\n      add\n        /* \"#utility.yul\":3950:3964   */\n      swap1\n      pop\n        /* \"#utility.yul\":3915:4199   */\n      jump(tag_224)\n    tag_226:\n        /* \"#utility.yul\":3919:3933   */\n      pop\n        /* \"#utility.yul\":4215:4218   */\n      dup6\n        /* \"#utility.yul\":4208:4218   */\n      swap4\n      pop\n        /* \"#utility.yul\":3616:4224   */\n      pop\n      pop\n      pop\n        /* \"#utility.yul\":3492:4224   */\n      swap3\n      swap2\n      pop\n      pop\n      jump\t// out\n        /* \"#utility.yul\":4230:4377   */\n    tag_230:\n        /* \"#utility.yul\":4325:4370   */\n      tag_232\n        /* \"#utility.yul\":4364:4369   */\n      dup2\n        /* \"#utility.yul\":4325:4370   */\n      tag_233\n      jump\t// in\n    tag_232:\n        /* \"#utility.yul\":4320:4323   */\n      dup3\n        /* \"#utility.yul\":4313:4371   */\n      mstore\n        /* \"#utility.yul\":4230:4377   */\n      pop\n      pop\n      jump\t// out\n        /* \"#utility.yul\":4383:4747   */\n    tag_234:\n        /* \"#utility.yul\":4471:4474   */\n      0x00\n        /* \"#utility.yul\":4499:4538   */\n      tag_236\n        /* \"#utility.yul\":4532:4537   */\n      dup3\n        /* \"#utility.yul\":4499:4538   */\n      tag_237\n      jump\t// in\n    tag_236:\n        /* \"#utility.yul\":4554:4625   */\n      tag_238\n        /* \"#utility.yul\":4618:4624   */\n      dup2\n        /* \"#utility.yul\":4613:4616   */\n      dup6\n        /* \"#utility.yul\":4554:4625   */\n      tag_239\n      jump\t// in\n    tag_238:\n        /* \"#utility.yul\":4547:4625   */\n      swap4\n      pop\n        /* \"#utility.yul\":4634:4686   */\n      tag_240\n        /* \"#utility.yul\":4679:4685   */\n      dup2\n        /* \"#utility.yul\":4674:4677   */\n      dup6\n        /* \"#utility.yul\":4667:4671   */\n      0x20\n        /* \"#utility.yul\":4660:4665   */\n      dup7\n        /* \"#utility.yul\":4656:4672   */\n      add\n        /* \"#utility.yul\":4634:4686   */\n      tag_241\n      jump\t// in\n    tag_240:\n        /* \"#utility.yul\":4711:4740   */\n      tag_242\n        /* \"#utility.yul\":4733:4739   */\n      dup2\n        /* \"#utility.yul\":4711:4740   */\n      tag_243\n      jump\t// in\n    tag_242:\n        /* \"#utility.yul\":4706:4709   */\n      dup5\n        /* \"#utility.yul\":4702:4741   */\n      add\n        /* \"#utility.yul\":4695:4741   */\n      swap2\n      pop\n        /* \"#utility.yul\":4475:4747   */\n      pop\n        /* \"#utility.yul\":4383:4747   */\n      swap3\n      swap2\n      pop\n      pop\n      jump\t// out\n        /* \"#utility.yul\":4753:5119   */\n    tag_244:\n        /* \"#utility.yul\":4895:4898   */\n      0x00\n        /* \"#utility.yul\":4916:4983   */\n      tag_246\n        /* \"#utility.yul\":4980:4982   */\n      0x16\n        /* \"#utility.yul\":4975:4978   */\n      dup4\n        /* \"#utility.yul\":4916:4983   */\n      tag_239\n      jump\t// in\n    tag_246:\n        /* \"#utility.yul\":4909:4983   */\n      swap2\n      pop\n        /* \"#utility.yul\":4992:5085   */\n      tag_247\n        /* \"#utility.yul\":5081:5084   */\n      dup3\n        /* \"#utility.yul\":4992:5085   */\n      tag_248\n      jump\t// in\n    tag_247:\n        /* \"#utility.yul\":5110:5112   */\n      0x20\n        /* \"#utility.yul\":5105:5108   */\n      dup3\n        /* \"#utility.yul\":5101:5113   */\n      add\n        /* \"#utility.yul\":5094:5113   */\n      swap1\n      pop\n        /* \"#utility.yul\":4753:5119   */\n      swap2\n      swap1\n      pop\n      jump\t// out\n        /* \"#utility.yul\":5125:5491   */\n    tag_249:\n        /* \"#utility.yul\":5267:5270   */\n      0x00\n        /* \"#utility.yul\":5288:5355   */\n      tag_251\n        /* \"#utility.yul\":5352:5354   */\n      0x24\n        /* \"#utility.yul\":5347:5350   */\n      dup4\n        /* \"#utility.yul\":5288:5355   */\n      tag_239\n      jump\t// in\n    tag_251:\n        /* \"#utility.yul\":5281:5355   */\n      swap2\n      pop\n        /* \"#utility.yul\":5364:5457   */\n      tag_252\n        /* \"#utility.yul\":5453:5456   */\n      dup3\n        /* \"#utility.yul\":5364:5457   */\n      tag_253\n      jump\t// in\n    tag_252:\n        /* \"#utility.yul\":5482:5484   */\n      0x40\n        /* \"#utility.yul\":5477:5480   */\n      dup3\n        /* \"#utility.yul\":5473:5485   */\n      add\n        /* \"#utility.yul\":5466:5485   */\n      swap1\n      pop\n        /* \"#utility.yul\":5125:5491   */\n      swap2\n      swap1\n      pop\n      jump\t// out\n        /* \"#utility.yul\":5497:5863   */\n    tag_254:\n        /* \"#utility.yul\":5639:5642   */\n      0x00\n        /* \"#utility.yul\":5660:5727   */\n      tag_256\n        /* \"#utility.yul\":5724:5726   */\n      0x16\n        /* \"#utility.yul\":5719:5722   */\n      dup4\n        /* \"#utility.yul\":5660:5727   */\n      tag_239\n      jump\t// in\n    tag_256:\n        /* \"#utility.yul\":5653:5727   */\n      swap2\n      pop\n        /* \"#utility.yul\":5736:5829   */\n      tag_257\n        /* \"#utility.yul\":5825:5828   */\n      dup3\n        /* \"#utility.yul\":5736:5829   */\n      tag_258\n      jump\t// in\n    tag_257:\n        /* \"#utility.yul\":5854:5856   */\n      0x20\n        /* \"#utility.yul\":5849:5852   */\n      dup3\n        /* \"#utility.yul\":5845:5857   */\n      add\n        /* \"#utility.yul\":5838:5857   */\n      swap1\n      pop\n        /* \"#utility.yul\":5497:5863   */\n      swap2\n      swap1\n      pop\n      jump\t// out\n        /* \"#utility.yul\":5869:5977   */\n    tag_195:\n        /* \"#utility.yul\":5946:5970   */\n      tag_260\n        /* \"#utility.yul\":5964:5969   */\n      dup2\n        /* \"#utility.yul\":5946:5970   */\n      tag_261\n      jump\t// in\n    tag_260:\n        /* \"#utility.yul\":5941:5944   */\n      dup3\n        /* \"#utility.yul\":5934:5971   */\n      mstore\n        /* \"#utility.yul\":5869:5977   */\n      pop\n      pop\n      jump\t// out\n        /* \"#utility.yul\":5983:6101   */\n    tag_262:\n        /* \"#utility.yul\":6070:6094   */\n      tag_264\n        /* \"#utility.yul\":6088:6093   */\n      dup2\n        /* \"#utility.yul\":6070:6094   */\n      tag_261\n      jump\t// in\n    tag_264:\n        /* \"#utility.yul\":6065:6068   */\n      dup3\n        /* \"#utility.yul\":6058:6095   */\n      mstore\n        /* \"#utility.yul\":5983:6101   */\n      pop\n      pop\n      jump\t// out\n        /* \"#utility.yul\":6107:6549   */\n    tag_63:\n        /* \"#utility.yul\":6256:6260   */\n      0x00\n        /* \"#utility.yul\":6294:6296   */\n      0x60\n        /* \"#utility.yul\":6283:6292   */\n      dup3\n        /* \"#utility.yul\":6279:6297   */\n      add\n        /* \"#utility.yul\":6271:6297   */\n      swap1\n      pop\n        /* \"#utility.yul\":6307:6378   */\n      tag_266\n        /* \"#utility.yul\":6375:6376   */\n      0x00\n        /* \"#utility.yul\":6364:6373   */\n      dup4\n        /* \"#utility.yul\":6360:6377   */\n      add\n        /* \"#utility.yul\":6351:6357   */\n      dup7\n        /* \"#utility.yul\":6307:6378   */\n      tag_199\n      jump\t// in\n    tag_266:\n        /* \"#utility.yul\":6388:6460   */\n      tag_267\n        /* \"#utility.yul\":6456:6458   */\n      0x20\n        /* \"#utility.yul\":6445:6454   */\n      dup4\n        /* \"#utility.yul\":6441:6459   */\n      add\n        /* \"#utility.yul\":6432:6438   */\n      dup6\n        /* \"#utility.yul\":6388:6460   */\n      tag_199\n      jump\t// in\n    tag_267:\n        /* \"#utility.yul\":6470:6542   */\n      tag_268\n        /* \"#utility.yul\":6538:6540   */\n      0x40\n        /* \"#utility.yul\":6527:6536   */\n      dup4\n        /* \"#utility.yul\":6523:6541   */\n      add\n        /* \"#utility.yul\":6514:6520   */\n      dup5\n        /* \"#utility.yul\":6470:6542   */\n      tag_262\n      jump\t// in\n    tag_268:\n        /* \"#utility.yul\":6107:6549   */\n      swap5\n      swap4\n      pop\n      pop\n      pop\n      pop\n      jump\t// out\n        /* \"#utility.yul\":6555:7189   */\n    tag_32:\n        /* \"#utility.yul\":6776:6780   */\n      0x00\n        /* \"#utility.yul\":6814:6816   */\n      0x40\n        /* \"#utility.yul\":6803:6812   */\n      dup3\n        /* \"#utility.yul\":6799:6817   */\n      add\n        /* \"#utility.yul\":6791:6817   */\n      swap1\n      pop\n        /* \"#utility.yul\":6863:6872   */\n      dup2\n        /* \"#utility.yul\":6857:6861   */\n      dup2\n        /* \"#utility.yul\":6853:6873   */\n      sub\n        /* \"#utility.yul\":6849:6850   */\n      0x00\n        /* \"#utility.yul\":6838:6847   */\n      dup4\n        /* \"#utility.yul\":6834:6851   */\n      add\n        /* \"#utility.yul\":6827:6874   */\n      mstore\n        /* \"#utility.yul\":6891:6999   */\n      tag_270\n        /* \"#utility.yul\":6994:6998   */\n      dup2\n        /* \"#utility.yul\":6985:6991   */\n      dup6\n        /* \"#utility.yul\":6891:6999   */\n      tag_202\n      jump\t// in\n    tag_270:\n        /* \"#utility.yul\":6883:6999   */\n      swap1\n      pop\n        /* \"#utility.yul\":7046:7055   */\n      dup2\n        /* \"#utility.yul\":7040:7044   */\n      dup2\n        /* \"#utility.yul\":7036:7056   */\n      sub\n        /* \"#utility.yul\":7031:7033   */\n      0x20\n        /* \"#utility.yul\":7020:7029   */\n      dup4\n        /* \"#utility.yul\":7016:7034   */\n      add\n        /* \"#utility.yul\":7009:7057   */\n      mstore\n        /* \"#utility.yul\":7074:7182   */\n      tag_271\n        /* \"#utility.yul\":7177:7181   */\n      dup2\n        /* \"#utility.yul\":7168:7174   */\n      dup5\n        /* \"#utility.yul\":7074:7182   */\n      tag_216\n      jump\t// in\n    tag_271:\n        /* \"#utility.yul\":7066:7182   */\n      swap1\n      pop\n        /* \"#utility.yul\":6555:7189   */\n      swap4\n      swap3\n      pop\n      pop\n      pop\n      jump\t// out\n        /* \"#utility.yul\":7195:7543   */\n    tag_71:\n        /* \"#utility.yul\":7324:7328   */\n      0x00\n        /* \"#utility.yul\":7362:7364   */\n      0x40\n        /* \"#utility.yul\":7351:7360   */\n      dup3\n        /* \"#utility.yul\":7347:7365   */\n      add\n        /* \"#utility.yul\":7339:7365   */\n      swap1\n      pop\n        /* \"#utility.yul\":7375:7454   */\n      tag_273\n        /* \"#utility.yul\":7451:7452   */\n      0x00\n        /* \"#utility.yul\":7440:7449   */\n      dup4\n        /* \"#utility.yul\":7436:7453   */\n      add\n        /* \"#utility.yul\":7427:7433   */\n      dup6\n        /* \"#utility.yul\":7375:7454   */\n      tag_230\n      jump\t// in\n    tag_273:\n        /* \"#utility.yul\":7464:7536   */\n      tag_274\n        /* \"#utility.yul\":7532:7534   */\n      0x20\n        /* \"#utility.yul\":7521:7530   */\n      dup4\n        /* \"#utility.yul\":7517:7535   */\n      add\n        /* \"#utility.yul\":7508:7514   */\n      dup5\n        /* \"#utility.yul\":7464:7536   */\n      tag_199\n      jump\t// in\n    tag_274:\n        /* \"#utility.yul\":7195:7543   */\n      swap4\n      swap3\n      pop\n      pop\n      pop\n      jump\t// out\n        /* \"#utility.yul\":7549:7862   */\n    tag_43:\n        /* \"#utility.yul\":7662:7666   */\n      0x00\n        /* \"#utility.yul\":7700:7702   */\n      0x20\n        /* \"#utility.yul\":7689:7698   */\n      dup3\n        /* \"#utility.yul\":7685:7703   */\n      add\n        /* \"#utility.yul\":7677:7703   */\n      swap1\n      pop\n        /* \"#utility.yul\":7749:7758   */\n      dup2\n        /* \"#utility.yul\":7743:7747   */\n      dup2\n        /* \"#utility.yul\":7739:7759   */\n      sub\n        /* \"#utility.yul\":7735:7736   */\n      0x00\n        /* \"#utility.yul\":7724:7733   */\n      dup4\n        /* \"#utility.yul\":7720:7737   */\n      add\n        /* \"#utility.yul\":7713:7760   */\n      mstore\n        /* \"#utility.yul\":7777:7855   */\n      tag_276\n        /* \"#utility.yul\":7850:7854   */\n      dup2\n        /* \"#utility.yul\":7841:7847   */\n      dup5\n        /* \"#utility.yul\":7777:7855   */\n      tag_234\n      jump\t// in\n    tag_276:\n        /* \"#utility.yul\":7769:7855   */\n      swap1\n      pop\n        /* \"#utility.yul\":7549:7862   */\n      swap3\n      swap2\n      pop\n      pop\n      jump\t// out\n        /* \"#utility.yul\":7868:8287   */\n    tag_120:\n        /* \"#utility.yul\":8034:8038   */\n      0x00\n        /* \"#utility.yul\":8072:8074   */\n      0x20\n        /* \"#utility.yul\":8061:8070   */\n      dup3\n        /* \"#utility.yul\":8057:8075   */\n      add\n        /* \"#utility.yul\":8049:8075   */\n      swap1\n      pop\n        /* \"#utility.yul\":8121:8130   */\n      dup2\n        /* \"#utility.yul\":8115:8119   */\n      dup2\n        /* \"#utility.yul\":8111:8131   */\n      sub\n        /* \"#utility.yul\":8107:8108   */\n      0x00\n        /* \"#utility.yul\":8096:8105   */\n      dup4\n        /* \"#utility.yul\":8092:8109   */\n      add\n        /* \"#utility.yul\":8085:8132   */\n      mstore\n        /* \"#utility.yul\":8149:8280   */\n      tag_278\n        /* \"#utility.yul\":8275:8279   */\n      dup2\n        /* \"#utility.yul\":8149:8280   */\n      tag_244\n      jump\t// in\n    tag_278:\n        /* \"#utility.yul\":8141:8280   */\n      swap1\n      pop\n        /* \"#utility.yul\":7868:8287   */\n      swap2\n      swap1\n      pop\n      jump\t// out\n        /* \"#utility.yul\":8293:8712   */\n    tag_132:\n        /* \"#utility.yul\":8459:8463   */\n      0x00\n        /* \"#utility.yul\":8497:8499   */\n      0x20\n        /* \"#utility.yul\":8486:8495   */\n      dup3\n        /* \"#utility.yul\":8482:8500   */\n      add\n        /* \"#utility.yul\":8474:8500   */\n      swap1\n      pop\n        /* \"#utility.yul\":8546:8555   */\n      dup2\n        /* \"#utility.yul\":8540:8544   */\n      dup2\n        /* \"#utility.yul\":8536:8556   */\n      sub\n        /* \"#utility.yul\":8532:8533   */\n      0x00\n        /* \"#utility.yul\":8521:8530   */\n      dup4\n        /* \"#utility.yul\":8517:8534   */\n      add\n        /* \"#utility.yul\":8510:8557   */\n      mstore\n        /* \"#utility.yul\":8574:8705   */\n      tag_280\n        /* \"#utility.yul\":8700:8704   */\n      dup2\n        /* \"#utility.yul\":8574:8705   */\n      tag_249\n      jump\t// in\n    tag_280:\n        /* \"#utility.yul\":8566:8705   */\n      swap1\n      pop\n        /* \"#utility.yul\":8293:8712   */\n      swap2\n      swap1\n      pop\n      jump\t// out\n        /* \"#utility.yul\":8718:9137   */\n    tag_88:\n        /* \"#utility.yul\":8884:8888   */\n      0x00\n        /* \"#utility.yul\":8922:8924   */\n      0x20\n        /* \"#utility.yul\":8911:8920   */\n      dup3\n        /* \"#utility.yul\":8907:8925   */\n      add\n        /* \"#utility.yul\":8899:8925   */\n      swap1\n      pop\n        /* \"#utility.yul\":8971:8980   */\n      dup2\n        /* \"#utility.yul\":8965:8969   */\n      dup2\n        /* \"#utility.yul\":8961:8981   */\n      sub\n        /* \"#utility.yul\":8957:8958   */\n      0x00\n        /* \"#utility.yul\":8946:8955   */\n      dup4\n        /* \"#utility.yul\":8942:8959   */\n      add\n        /* \"#utility.yul\":8935:8982   */\n      mstore\n        /* \"#utility.yul\":8999:9130   */\n      tag_282\n        /* \"#utility.yul\":9125:9129   */\n      dup2\n        /* \"#utility.yul\":8999:9130   */\n      tag_254\n      jump\t// in\n    tag_282:\n        /* \"#utility.yul\":8991:9130   */\n      swap1\n      pop\n        /* \"#utility.yul\":8718:9137   */\n      swap2\n      swap1\n      pop\n      jump\t// out\n        /* \"#utility.yul\":9143:9365   */\n    tag_37:\n        /* \"#utility.yul\":9236:9240   */\n      0x00\n        /* \"#utility.yul\":9274:9276   */\n      0x20\n        /* \"#utility.yul\":9263:9272   */\n      dup3\n        /* \"#utility.yul\":9259:9277   */\n      add\n        /* \"#utility.yul\":9251:9277   */\n      swap1\n      pop\n        /* \"#utility.yul\":9287:9358   */\n      tag_284\n        /* \"#utility.yul\":9355:9356   */\n      0x00\n        /* \"#utility.yul\":9344:9353   */\n      dup4\n        /* \"#utility.yul\":9340:9357   */\n      add\n        /* \"#utility.yul\":9331:9337   */\n      dup5\n        /* \"#utility.yul\":9287:9358   */\n      tag_262\n      jump\t// in\n    tag_284:\n        /* \"#utility.yul\":9143:9365   */\n      swap3\n      swap2\n      pop\n      pop\n      jump\t// out\n        /* \"#utility.yul\":9452:9584   */\n    tag_209:\n        /* \"#utility.yul\":9519:9523   */\n      0x00\n        /* \"#utility.yul\":9542:9545   */\n      dup2\n        /* \"#utility.yul\":9534:9545   */\n      swap1\n      pop\n        /* \"#utility.yul\":9572:9576   */\n      0x20\n        /* \"#utility.yul\":9567:9570   */\n      dup3\n        /* \"#utility.yul\":9563:9577   */\n      add\n        /* \"#utility.yul\":9555:9577   */\n      swap1\n      pop\n        /* \"#utility.yul\":9452:9584   */\n      swap2\n      swap1\n      pop\n      jump\t// out\n        /* \"#utility.yul\":9590:9722   */\n    tag_223:\n        /* \"#utility.yul\":9657:9661   */\n      0x00\n        /* \"#utility.yul\":9680:9683   */\n      dup2\n        /* \"#utility.yul\":9672:9683   */\n      swap1\n      pop\n        /* \"#utility.yul\":9710:9714   */\n      0x20\n        /* \"#utility.yul\":9705:9708   */\n      dup3\n        /* \"#utility.yul\":9701:9715   */\n      add\n        /* \"#utility.yul\":9693:9715   */\n      swap1\n      pop\n        /* \"#utility.yul\":9590:9722   */\n      swap2\n      swap1\n      pop\n      jump\t// out\n        /* \"#utility.yul\":9728:9842   */\n    tag_205:\n        /* \"#utility.yul\":9795:9801   */\n      0x00\n        /* \"#utility.yul\":9829:9834   */\n      dup2\n        /* \"#utility.yul\":9823:9835   */\n      mload\n        /* \"#utility.yul\":9813:9835   */\n      swap1\n      pop\n        /* \"#utility.yul\":9728:9842   */\n      swap2\n      swap1\n      pop\n      jump\t// out\n        /* \"#utility.yul\":9848:9962   */\n    tag_219:\n        /* \"#utility.yul\":9915:9921   */\n      0x00\n        /* \"#utility.yul\":9949:9954   */\n      dup2\n        /* \"#utility.yul\":9943:9955   */\n      mload\n        /* \"#utility.yul\":9933:9955   */\n      swap1\n      pop\n        /* \"#utility.yul\":9848:9962   */\n      swap2\n      swap1\n      pop\n      jump\t// out\n        /* \"#utility.yul\":9968:10067   */\n    tag_237:\n        /* \"#utility.yul\":10020:10026   */\n      0x00\n        /* \"#utility.yul\":10054:10059   */\n      dup2\n        /* \"#utility.yul\":10048:10060   */\n      mload\n        /* \"#utility.yul\":10038:10060   */\n      swap1\n      pop\n        /* \"#utility.yul\":9968:10067   */\n      swap2\n      swap1\n      pop\n      jump\t// out\n        /* \"#utility.yul\":10073:10186   */\n    tag_215:\n        /* \"#utility.yul\":10143:10147   */\n      0x00\n        /* \"#utility.yul\":10175:10179   */\n      0x20\n        /* \"#utility.yul\":10170:10173   */\n      dup3\n        /* \"#utility.yul\":10166:10180   */\n      add\n        /* \"#utility.yul\":10158:10180   */\n      swap1\n      pop\n        /* \"#utility.yul\":10073:10186   */\n      swap2\n      swap1\n      pop\n      jump\t// out\n        /* \"#utility.yul\":10192:10305   */\n    tag_229:\n        /* \"#utility.yul\":10262:10266   */\n      0x00\n        /* \"#utility.yul\":10294:10298   */\n      0x20\n        /* \"#utility.yul\":10289:10292   */\n      dup3\n        /* \"#utility.yul\":10285:10299   */\n      add\n        /* \"#utility.yul\":10277:10299   */\n      swap1\n      pop\n        /* \"#utility.yul\":10192:10305   */\n      swap2\n      swap1\n      pop\n      jump\t// out\n        /* \"#utility.yul\":10311:10495   */\n    tag_207:\n        /* \"#utility.yul\":10410:10421   */\n      0x00\n        /* \"#utility.yul\":10444:10450   */\n      dup3\n        /* \"#utility.yul\":10439:10442   */\n      dup3\n        /* \"#utility.yul\":10432:10451   */\n      mstore\n        /* \"#utility.yul\":10484:10488   */\n      0x20\n        /* \"#utility.yul\":10479:10482   */\n      dup3\n        /* \"#utility.yul\":10475:10489   */\n      add\n        /* \"#utility.yul\":10460:10489   */\n      swap1\n      pop\n        /* \"#utility.yul\":10311:10495   */\n      swap3\n      swap2\n      pop\n      pop\n      jump\t// out\n        /* \"#utility.yul\":10501:10685   */\n    tag_221:\n        /* \"#utility.yul\":10600:10611   */\n      0x00\n        /* \"#utility.yul\":10634:10640   */\n      dup3\n        /* \"#utility.yul\":10629:10632   */\n      dup3\n        /* \"#utility.yul\":10622:10641   */\n      mstore\n        /* \"#utility.yul\":10674:10678   */\n      0x20\n        /* \"#utility.yul\":10669:10672   */\n      dup3\n        /* \"#utility.yul\":10665:10679   */\n      add\n        /* \"#utility.yul\":10650:10679   */\n      swap1\n      pop\n        /* \"#utility.yul\":10501:10685   */\n      swap3\n      swap2\n      pop\n      pop\n      jump\t// out\n        /* \"#utility.yul\":10691:10860   */\n    tag_239:\n        /* \"#utility.yul\":10775:10786   */\n      0x00\n        /* \"#utility.yul\":10809:10815   */\n      dup3\n        /* \"#utility.yul\":10804:10807   */\n      dup3\n        /* \"#utility.yul\":10797:10816   */\n      mstore\n        /* \"#utility.yul\":10849:10853   */\n      0x20\n        /* \"#utility.yul\":10844:10847   */\n      dup3\n        /* \"#utility.yul\":10840:10854   */\n      add\n        /* \"#utility.yul\":10825:10854   */\n      swap1\n      pop\n        /* \"#utility.yul\":10691:10860   */\n      swap3\n      swap2\n      pop\n      pop\n      jump\t// out\n        /* \"#utility.yul\":10866:11171   */\n    tag_129:\n        /* \"#utility.yul\":10906:10909   */\n      0x00\n        /* \"#utility.yul\":10925:10945   */\n      tag_298\n        /* \"#utility.yul\":10943:10944   */\n      dup3\n        /* \"#utility.yul\":10925:10945   */\n      tag_261\n      jump\t// in\n    tag_298:\n        /* \"#utility.yul\":10920:10945   */\n      swap2\n      pop\n        /* \"#utility.yul\":10959:10979   */\n      tag_299\n        /* \"#utility.yul\":10977:10978   */\n      dup4\n        /* \"#utility.yul\":10959:10979   */\n      tag_261\n      jump\t// in\n    tag_299:\n        /* \"#utility.yul\":10954:10979   */\n      swap3\n      pop\n        /* \"#utility.yul\":11113:11114   */\n      dup3\n        /* \"#utility.yul\":11045:11111   */\n      0xffffffffffffffffffffffffffffffffffffffffffffffffffffffffffffffff\n        /* \"#utility.yul\":11041:11115   */\n      sub\n        /* \"#utility.yul\":11038:11039   */\n      dup3\n        /* \"#utility.yul\":11035:11116   */\n      gt\n        /* \"#utility.yul\":11032:11139   */\n      iszero\n      tag_300\n      jumpi\n        /* \"#utility.yul\":11119:11137   */\n      tag_301\n      tag_302\n      jump\t// in\n    tag_301:\n        /* \"#utility.yul\":11032:11139   */\n    tag_300:\n        /* \"#utility.yul\":11163:11164   */\n      dup3\n        /* \"#utility.yul\":11160:11161   */\n      dup3\n        /* \"#utility.yul\":11156:11165   */\n      add\n        /* \"#utility.yul\":11149:11165   */\n      swap1\n      pop\n        /* \"#utility.yul\":10866:11171   */\n      swap3\n      swap2\n      pop\n      pop\n      jump\t// out\n        /* \"#utility.yul\":11177:11525   */\n    tag_91:\n        /* \"#utility.yul\":11217:11224   */\n      0x00\n        /* \"#utility.yul\":11240:11260   */\n      tag_304\n        /* \"#utility.yul\":11258:11259   */\n      dup3\n        /* \"#utility.yul\":11240:11260   */\n      tag_261\n      jump\t// in\n    tag_304:\n        /* \"#utility.yul\":11235:11260   */\n      swap2\n      pop\n        /* \"#utility.yul\":11274:11294   */\n      tag_305\n        /* \"#utility.yul\":11292:11293   */\n      dup4\n        /* \"#utility.yul\":11274:11294   */\n      tag_261\n      jump\t// in\n    tag_305:\n        /* \"#utility.yul\":11269:11294   */\n      swap3\n      pop\n        /* \"#utility.yul\":11462:11463   */\n      dup2\n        /* \"#utility.yul\":11394:11460   */\n      0xffffffffffffffffffffffffffffffffffffffffffffffffffffffffffffffff\n        /* \"#utility.yul\":11390:11464   */\n      div\n        /* \"#utility.yul\":11387:11388   */\n      dup4\n        /* \"#utility.yul\":11384:11465   */\n      gt\n        /* \"#utility.yul\":11379:11380   */\n      dup3\n        /* \"#utility.yul\":11372:11381   */\n      iszero\n        /* \"#utility.yul\":11365:11382   */\n      iszero\n        /* \"#utility.yul\":11361:11466   */\n      and\n        /* \"#utility.yul\":11358:11489   */\n      iszero\n      tag_306\n      jumpi\n        /* \"#utility.yul\":11469:11487   */\n      tag_307\n      tag_302\n      jump\t// in\n    tag_307:\n        /* \"#utility.yul\":11358:11489   */\n    tag_306:\n        /* \"#utility.yul\":11517:11518   */\n      dup3\n        /* \"#utility.yul\":11514:11515   */\n      dup3\n        /* \"#utility.yul\":11510:11519   */\n      mul\n        /* \"#utility.yul\":11499:11519   */\n      swap1\n      pop\n        /* \"#utility.yul\":11177:11525   */\n      swap3\n      swap2\n      pop\n      pop\n      jump\t// out\n        /* \"#utility.yul\":11531:11627   */\n    tag_198:\n        /* \"#utility.yul\":11568:11575   */\n      0x00\n        /* \"#utility.yul\":11597:11621   */\n      tag_309\n        /* \"#utility.yul\":11615:11620   */\n      dup3\n        /* \"#utility.yul\":11597:11621   */\n      tag_310\n      jump\t// in\n    tag_309:\n        /* \"#utility.yul\":11586:11621   */\n      swap1\n      pop\n        /* \"#utility.yul\":11531:11627   */\n      swap2\n      swap1\n      pop\n      jump\t// out\n        /* \"#utility.yul\":11633:11723   */\n    tag_311:\n        /* \"#utility.yul\":11667:11674   */\n      0x00\n        /* \"#utility.yul\":11710:11715   */\n      dup2\n        /* \"#utility.yul\":11703:11716   */\n      iszero\n        /* \"#utility.yul\":11696:11717   */\n      iszero\n        /* \"#utility.yul\":11685:11717   */\n      swap1\n      pop\n        /* \"#utility.yul\":11633:11723   */\n      swap2\n      swap1\n      pop\n      jump\t// out\n        /* \"#utility.yul\":11729:11805   */\n    tag_313:\n        /* \"#utility.yul\":11765:11772   */\n      0x00\n        /* \"#utility.yul\":11794:11799   */\n      dup2\n        /* \"#utility.yul\":11783:11799   */\n      swap1\n      pop\n        /* \"#utility.yul\":11729:11805   */\n      swap2\n      swap1\n      pop\n      jump\t// out\n        /* \"#utility.yul\":11811:11937   */\n    tag_310:\n        /* \"#utility.yul\":11848:11855   */\n      0x00\n        /* \"#utility.yul\":11888:11930   */\n      0xffffffffffffffffffffffffffffffffffffffff\n        /* \"#utility.yul\":11881:11886   */\n      dup3\n        /* \"#utility.yul\":11877:11931   */\n      and\n        /* \"#utility.yul\":11866:11931   */\n      swap1\n      pop\n        /* \"#utility.yul\":11811:11937   */\n      swap2\n      swap1\n      pop\n      jump\t// out\n        /* \"#utility.yul\":11943:12020   */\n    tag_261:\n        /* \"#utility.yul\":11980:11987   */\n      0x00\n        /* \"#utility.yul\":12009:12014   */\n      dup2\n        /* \"#utility.yul\":11998:12014   */\n      swap1\n      pop\n        /* \"#utility.yul\":11943:12020   */\n      swap2\n      swap1\n      pop\n      jump\t// out\n        /* \"#utility.yul\":12026:12147   */\n    tag_233:\n        /* \"#utility.yul\":12084:12093   */\n      0x00\n        /* \"#utility.yul\":12117:12141   */\n      tag_318\n        /* \"#utility.yul\":12135:12140   */\n      dup3\n        /* \"#utility.yul\":12117:12141   */\n      tag_261\n      jump\t// in\n    tag_318:\n        /* \"#utility.yul\":12104:12141   */\n      swap1\n      pop\n        /* \"#utility.yul\":12026:12147   */\n      swap2\n      swap1\n      pop\n      jump\t// out\n        /* \"#utility.yul\":12153:12460   */\n    tag_241:\n        /* \"#utility.yul\":12221:12222   */\n      0x00\n        /* \"#utility.yul\":12231:12344   */\n    tag_320:\n        /* \"#utility.yul\":12245:12251   */\n      dup4\n        /* \"#utility.yul\":12242:12243   */\n      dup2\n        /* \"#utility.yul\":12239:12252   */\n      lt\n        /* \"#utility.yul\":12231:12344   */\n      iszero\n      tag_322\n      jumpi\n        /* \"#utility.yul\":12330:12331   */\n      dup1\n        /* \"#utility.yul\":12325:12328   */\n      dup3\n        /* \"#utility.yul\":12321:12332   */\n      add\n        /* \"#utility.yul\":12315:12333   */\n      mload\n        /* \"#utility.yul\":12311:12312   */\n      dup2\n        /* \"#utility.yul\":12306:12309   */\n      dup5\n        /* \"#utility.yul\":12302:12313   */\n      add\n        /* \"#utility.yul\":12295:12334   */\n      mstore\n        /* \"#utility.yul\":12267:12269   */\n      0x20\n        /* \"#utility.yul\":12264:12265   */\n      dup2\n        /* \"#utility.yul\":12260:12270   */\n      add\n        /* \"#utility.yul\":12255:12270   */\n      swap1\n      pop\n        /* \"#utility.yul\":12231:12344   */\n      jump(tag_320)\n    tag_322:\n        /* \"#utility.yul\":12362:12368   */\n      dup4\n        /* \"#utility.yul\":12359:12360   */\n      dup2\n        /* \"#utility.yul\":12356:12369   */\n      gt\n        /* \"#utility.yul\":12353:12454   */\n      iszero\n      tag_323\n      jumpi\n        /* \"#utility.yul\":12442:12443   */\n      0x00\n        /* \"#utility.yul\":12433:12439   */\n      dup5\n        /* \"#utility.yul\":12428:12431   */\n      dup5\n        /* \"#utility.yul\":12424:12440   */\n      add\n        /* \"#utility.yul\":12417:12444   */\n      mstore\n        /* \"#utility.yul\":12353:12454   */\n    tag_323:\n        /* \"#utility.yul\":12202:12460   */\n      pop\n        /* \"#utility.yul\":12153:12460   */\n      pop\n      pop\n      pop\n      jump\t// out\n        /* \"#utility.yul\":12466:12697   */\n    tag_138:\n        /* \"#utility.yul\":12504:12507   */\n      0x00\n        /* \"#utility.yul\":12527:12550   */\n      tag_325\n        /* \"#utility.yul\":12544:12549   */\n      dup3\n        /* \"#utility.yul\":12527:12550   */\n      tag_313\n      jump\t// in\n    tag_325:\n        /* \"#utility.yul\":12518:12550   */\n      swap2\n      pop\n        /* \"#utility.yul\":12572:12638   */\n      0x7fffffffffffffffffffffffffffffffffffffffffffffffffffffffffffffff\n        /* \"#utility.yul\":12565:12570   */\n      dup3\n        /* \"#utility.yul\":12562:12639   */\n      eq\n        /* \"#utility.yul\":12559:12662   */\n      iszero\n      tag_326\n      jumpi\n        /* \"#utility.yul\":12642:12660   */\n      tag_327\n      tag_302\n      jump\t// in\n    tag_327:\n        /* \"#utility.yul\":12559:12662   */\n    tag_326:\n        /* \"#utility.yul\":12689:12690   */\n      0x01\n        /* \"#utility.yul\":12682:12687   */\n      dup3\n        /* \"#utility.yul\":12678:12691   */\n      add\n        /* \"#utility.yul\":12671:12691   */\n      swap1\n      pop\n        /* \"#utility.yul\":12466:12697   */\n      swap2\n      swap1\n      pop\n      jump\t// out\n        /* \"#utility.yul\":12703:12936   */\n    tag_85:\n        /* \"#utility.yul\":12742:12745   */\n      0x00\n        /* \"#utility.yul\":12765:12789   */\n      tag_329\n        /* \"#utility.yul\":12783:12788   */\n      dup3\n        /* \"#utility.yul\":12765:12789   */\n      tag_261\n      jump\t// in\n    tag_329:\n        /* \"#utility.yul\":12756:12789   */\n      swap2\n      pop\n        /* \"#utility.yul\":12811:12877   */\n      0xffffffffffffffffffffffffffffffffffffffffffffffffffffffffffffffff\n        /* \"#utility.yul\":12804:12809   */\n      dup3\n        /* \"#utility.yul\":12801:12878   */\n      eq\n        /* \"#utility.yul\":12798:12901   */\n      iszero\n      tag_330\n      jumpi\n        /* \"#utility.yul\":12881:12899   */\n      tag_331\n      tag_302\n      jump\t// in\n    tag_331:\n        /* \"#utility.yul\":12798:12901   */\n    tag_330:\n        /* \"#utility.yul\":12928:12929   */\n      0x01\n        /* \"#utility.yul\":12921:12926   */\n      dup3\n        /* \"#utility.yul\":12917:12930   */\n      add\n        /* \"#utility.yul\":12910:12930   */\n      swap1\n      pop\n        /* \"#utility.yul\":12703:12936   */\n      swap2\n      swap1\n      pop\n      jump\t// out\n        /* \"#utility.yul\":12942:13122   */\n    tag_302:\n        /* \"#utility.yul\":12990:13067   */\n      0x4e487b7100000000000000000000000000000000000000000000000000000000\n        /* \"#utility.yul\":12987:12988   */\n      0x00\n        /* \"#utility.yul\":12980:13068   */\n      mstore\n        /* \"#utility.yul\":13087:13091   */\n      0x11\n        /* \"#utility.yul\":13084:13085   */\n      0x04\n        /* \"#utility.yul\":13077:13092   */\n      mstore\n        /* \"#utility.yul\":13111:13115   */\n      0x24\n        /* \"#utility.yul\":13108:13109   */\n      0x00\n        /* \"#utility.yul\":13101:13116   */\n      revert\n        /* \"#utility.yul\":13128:13308   */\n    tag_81:\n        /* \"#utility.yul\":13176:13253   */\n      0x4e487b7100000000000000000000000000000000000000000000000000000000\n        /* \"#utility.yul\":13173:13174   */\n      0x00\n        /* \"#utility.yul\":13166:13254   */\n      mstore\n        /* \"#utility.yul\":13273:13277   */\n      0x32\n        /* \"#utility.yul\":13270:13271   */\n      0x04\n        /* \"#utility.yul\":13263:13278   */\n      mstore\n        /* \"#utility.yul\":13297:13301   */\n      0x24\n        /* \"#utility.yul\":13294:13295   */\n      0x00\n        /* \"#utility.yul\":13287:13302   */\n      revert\n        /* \"#utility.yul\":13314:13494   */\n    tag_97:\n        /* \"#utility.yul\":13362:13439   */\n      0x4e487b7100000000000000000000000000000000000000000000000000000000\n        /* \"#utility.yul\":13359:13360   */\n      0x00\n        /* \"#utility.yul\":13352:13440   */\n      mstore\n        /* \"#utility.yul\":13459:13463   */\n      0x41\n        /* \"#utility.yul\":13456:13457   */\n      0x04\n        /* \"#utility.yul\":13449:13464   */\n      mstore\n        /* \"#utility.yul\":13483:13487   */\n      0x24\n        /* \"#utility.yul\":13480:13481   */\n      0x00\n        /* \"#utility.yul\":13473:13488   */\n      revert\n        /* \"#utility.yul\":13623:13740   */\n    tag_172:\n        /* \"#utility.yul\":13732:13733   */\n      0x00\n        /* \"#utility.yul\":13729:13730   */\n      dup1\n        /* \"#utility.yul\":13722:13734   */\n      revert\n        /* \"#utility.yul\":13746:13848   */\n    tag_243:\n        /* \"#utility.yul\":13787:13793   */\n      0x00\n        /* \"#utility.yul\":13838:13840   */\n      0x1f\n        /* \"#utility.yul\":13834:13841   */\n      not\n        /* \"#utility.yul\":13829:13831   */\n      0x1f\n        /* \"#utility.yul\":13822:13827   */\n      dup4\n        /* \"#utility.yul\":13818:13832   */\n      add\n        /* \"#utility.yul\":13814:13842   */\n      and\n        /* \"#utility.yul\":13804:13842   */\n      swap1\n      pop\n        /* \"#utility.yul\":13746:13848   */\n      swap2\n      swap1\n      pop\n      jump\t// out\n        /* \"#utility.yul\":13854:14026   */\n    tag_248:\n        /* \"#utility.yul\":13994:14018   */\n      0x4f6e6c79206d616e616765722063616e2063616c6c2100000000000000000000\n        /* \"#utility.yul\":13990:13991   */\n      0x00\n        /* \"#utility.yul\":13982:13988   */\n      dup3\n        /* \"#utility.yul\":13978:13992   */\n      add\n        /* \"#utility.yul\":13971:14019   */\n      mstore\n        /* \"#utility.yul\":13854:14026   */\n      pop\n      jump\t// out\n        /* \"#utility.yul\":14032:14255   */\n    tag_253:\n        /* \"#utility.yul\":14172:14206   */\n      0x49742773206a757374206265656e206c657373207468616e203130207365636f\n        /* \"#utility.yul\":14168:14169   */\n      0x00\n        /* \"#utility.yul\":14160:14166   */\n      dup3\n        /* \"#utility.yul\":14156:14170   */\n      add\n        /* \"#utility.yul\":14149:14207   */\n      mstore\n        /* \"#utility.yul\":14241:14247   */\n      0x6e64732100000000000000000000000000000000000000000000000000000000\n        /* \"#utility.yul\":14236:14238   */\n      0x20\n        /* \"#utility.yul\":14228:14234   */\n      dup3\n        /* \"#utility.yul\":14224:14239   */\n      add\n        /* \"#utility.yul\":14217:14248   */\n      mstore\n        /* \"#utility.yul\":14032:14255   */\n      pop\n      jump\t// out\n        /* \"#utility.yul\":14261:14433   */\n    tag_258:\n        /* \"#utility.yul\":14401:14425   */\n      0x4f6e6c7920636c69656e74732063616e2063616c6c2100000000000000000000\n        /* \"#utility.yul\":14397:14398   */\n      0x00\n        /* \"#utility.yul\":14389:14395   */\n      dup3\n        /* \"#utility.yul\":14385:14399   */\n      add\n        /* \"#utility.yul\":14378:14426   */\n      mstore\n        /* \"#utility.yul\":14261:14433   */\n      pop\n      jump\t// out\n        /* \"#utility.yul\":14439:14561   */\n    tag_160:\n        /* \"#utility.yul\":14512:14536   */\n      tag_343\n        /* \"#utility.yul\":14530:14535   */\n      dup2\n        /* \"#utility.yul\":14512:14536   */\n      tag_198\n      jump\t// in\n    tag_343:\n        /* \"#utility.yul\":14505:14510   */\n      dup2\n        /* \"#utility.yul\":14502:14537   */\n      eq\n        /* \"#utility.yul\":14492:14555   */\n      tag_344\n      jumpi\n        /* \"#utility.yul\":14551:14552   */\n      0x00\n        /* \"#utility.yul\":14548:14549   */\n      dup1\n        /* \"#utility.yul\":14541:14553   */\n      revert\n        /* \"#utility.yul\":14492:14555   */\n    tag_344:\n        /* \"#utility.yul\":14439:14561   */\n      pop\n      jump\t// out\n        /* \"#utility.yul\":14567:14683   */\n    tag_164:\n        /* \"#utility.yul\":14637:14658   */\n      tag_346\n        /* \"#utility.yul\":14652:14657   */\n      dup2\n        /* \"#utility.yul\":14637:14658   */\n      tag_311\n      jump\t// in\n    tag_346:\n        /* \"#utility.yul\":14630:14635   */\n      dup2\n        /* \"#utility.yul\":14627:14659   */\n      eq\n        /* \"#utility.yul\":14617:14677   */\n      tag_347\n      jumpi\n        /* \"#utility.yul\":14673:14674   */\n      0x00\n        /* \"#utility.yul\":14670:14671   */\n      dup1\n        /* \"#utility.yul\":14663:14675   */\n      revert\n        /* \"#utility.yul\":14617:14677   */\n    tag_347:\n        /* \"#utility.yul\":14567:14683   */\n      pop\n      jump\t// out\n        /* \"#utility.yul\":14689:14811   */\n    tag_168:\n        /* \"#utility.yul\":14762:14786   */\n      tag_349\n        /* \"#utility.yul\":14780:14785   */\n      dup2\n        /* \"#utility.yul\":14762:14786   */\n      tag_261\n      jump\t// in\n    tag_349:\n        /* \"#utility.yul\":14755:14760   */\n      dup2\n        /* \"#utility.yul\":14752:14787   */\n      eq\n        /* \"#utility.yul\":14742:14805   */\n      tag_350\n      jumpi\n        /* \"#utility.yul\":14801:14802   */\n      0x00\n        /* \"#utility.yul\":14798:14799   */\n      dup1\n        /* \"#utility.yul\":14791:14803   */\n      revert\n        /* \"#utility.yul\":14742:14805   */\n    tag_350:\n        /* \"#utility.yul\":14689:14811   */\n      pop\n      jump\t// out\n\n    auxdata: 0xa26469706673582212201364af4daa69b63324e57cd7a64fd014a0e7b6f45248ce62ea16e8d3ec98a83464736f6c63430008070033\n}\n",
				"bytecode": {
					"linkReferences": {},
					"object": "608060405234801561001057600080fd5b5060006001819055506113c4806100286000396000f3fe6080604052600436106100a05760003560e01c80639e0a5d68116100645780639e0a5d6814610152578063a40921741461015c578063d0e30db01461017a578063d0ebdbe714610184578063d9dca6c5146101c1578063fef75470146101fe576100a7565b80632855bd92146100ac5780632bbc7cac146100d55780632e1a7d4d146100df5780636db80995146100fb5780636f9fb98a14610127576100a7565b366100a757005b600080fd5b3480156100b857600080fd5b506100d360048036038101906100ce9190610be4565b610229565b005b6100dd6102d8565b005b6100f960048036038101906100f49190610c64565b610362565b005b34801561010757600080fd5b506101106104a6565b60405161011e929190610ea1565b60405180910390f35b34801561013357600080fd5b5061013c610653565b6040516101499190610f83565b60405180910390f35b61015a61065b565b005b610164610882565b6040516101719190610f01565b60405180910390f35b6101826109c3565b005b34801561019057600080fd5b506101ab60048036038101906101a69190610bb7565b610af4565b6040516101b89190610f01565b60405180910390f35b3480156101cd57600080fd5b506101e860048036038101906101e39190610bb7565b610b4e565b6040516101f59190610f83565b60405180910390f35b34801561020a57600080fd5b50610213610b66565b6040516102209190610f83565b60405180910390f35b600073d9145cce52d386f254917e481eb44e9943f3913890508073ffffffffffffffffffffffffffffffffffffffff166323b872dd8585856040518463ffffffff1660e01b815260040161027f93929190610e6a565b602060405180830381600087803b15801561029957600080fd5b505af11580156102ad573d6000803e3d6000fd5b505050506040513d601f19601f820116820180604052508101906102d19190610c37565b5050505050565b6000734f7b4006d00f5e8ff0c91d22a379e8164ae7879f90508073ffffffffffffffffffffffffffffffffffffffff166394bf804d6001336040518363ffffffff1660e01b815260040161032d929190610ed8565b600060405180830381600087803b15801561034757600080fd5b505af115801561035b573d6000803e3d6000fd5b5050505050565b6000805b600080549050811015610408573373ffffffffffffffffffffffffffffffffffffffff166000828154811061039e5761039d611234565b5b906000526020600020906003020160010160009054906101000a900473ffffffffffffffffffffffffffffffffffffffff1673ffffffffffffffffffffffffffffffffffffffff1614156103f55760019150610408565b8080610400906111bc565b915050610366565b5080610449576040517f08c379a000000000000000000000000000000000000000000000000000000000815260040161044090610f63565b60405180910390fd5b60003390508073ffffffffffffffffffffffffffffffffffffffff166108fc6001856104759190611082565b9081150290604051600060405180830381858888f193505050501580156104a0573d6000803e3d6000fd5b50505050565b6060806000808054905067ffffffffffffffff8111156104c9576104c8611263565b5b6040519080825280602002602001820160405280156104f75781602001602082028036833780820191505090505b5090506000808054905067ffffffffffffffff81111561051a57610519611263565b5b6040519080825280602002602001820160405280156105485781602001602082028036833780820191505090505b50905060005b600080549050811015610646576000818154811061056f5761056e611234565b5b906000526020600020906003020160010160009054906101000a900473ffffffffffffffffffffffffffffffffffffffff168382815181106105b4576105b3611234565b5b602002602001019073ffffffffffffffffffffffffffffffffffffffff16908173ffffffffffffffffffffffffffffffffffffffff16815250506000818154811061060257610601611234565b5b90600052602060002090600302016002015482828151811061062757610626611234565b5b602002602001018181525050808061063e906111bc565b91505061054e565b5081819350935050509091565b600047905090565b600260009054906101000a900473ffffffffffffffffffffffffffffffffffffffff1673ffffffffffffffffffffffffffffffffffffffff163373ffffffffffffffffffffffffffffffffffffffff16146106eb576040517f08c379a00000000000000000000000000000000000000000000000000000000081526004016106e290610f23565b60405180910390fd5b60005b60008054905081101561087f5760008082815481106107105761070f611234565b5b906000526020600020906003020160010160009054906101000a900473ffffffffffffffffffffffffffffffffffffffff1690506000600360008373ffffffffffffffffffffffffffffffffffffffff1673ffffffffffffffffffffffffffffffffffffffff168152602001908152602001600020549050600a81610795919061102c565b4210156107d7576040517f08c379a00000000000000000000000000000000000000000000000000000000081526004016107ce90610f43565b60405180910390fd5b8173ffffffffffffffffffffffffffffffffffffffff166108fc670de0b6b3a76400009081150290604051600060405180830381858888f19350505050158015610825573d6000803e3d6000fd5b5042600360008473ffffffffffffffffffffffffffffffffffffffff1673ffffffffffffffffffffffffffffffffffffffff1681526020019081526020016000208190555050508080610877906111bc565b9150506106ee565b50565b606042600360003373ffffffffffffffffffffffffffffffffffffffff1673ffffffffffffffffffffffffffffffffffffffff1681526020019081526020016000208190555060006040518060600160405280600160008154809291906108e890611173565b9190505581526020013373ffffffffffffffffffffffffffffffffffffffff1681526020013373ffffffffffffffffffffffffffffffffffffffff163181525090806001815401808255809150506001900390600052602060002090600302016000909190919091506000820151816000015560208201518160010160006101000a81548173ffffffffffffffffffffffffffffffffffffffff021916908373ffffffffffffffffffffffffffffffffffffffff16021790555060408201518160020155505060405180602001604052806000815250905090565b6000805b600080549050811015610a69573373ffffffffffffffffffffffffffffffffffffffff16600082815481106109ff576109fe611234565b5b906000526020600020906003020160010160009054906101000a900473ffffffffffffffffffffffffffffffffffffffff1673ffffffffffffffffffffffffffffffffffffffff161415610a565760019150610a69565b8080610a61906111bc565b9150506109c7565b5080610aaa576040517f08c379a0000000000000000000000000000000000000000000000000000000008152600401610aa190610f63565b60405180910390fd5b3073ffffffffffffffffffffffffffffffffffffffff166108fc349081150290604051600060405180830381858888f19350505050158015610af0573d6000803e3d6000fd5b5050565b606081600260006101000a81548173ffffffffffffffffffffffffffffffffffffffff021916908373ffffffffffffffffffffffffffffffffffffffff160217905550604051806020016040528060008152509050919050565b60036020528060005260406000206000915090505481565b60008060008054905090508091505090565b600081359050610b8781611349565b92915050565b600081519050610b9c81611360565b92915050565b600081359050610bb181611377565b92915050565b600060208284031215610bcd57610bcc611292565b5b6000610bdb84828501610b78565b91505092915050565b600080600060608486031215610bfd57610bfc611292565b5b6000610c0b86828701610b78565b9350506020610c1c86828701610b78565b9250506040610c2d86828701610ba2565b9150509250925092565b600060208284031215610c4d57610c4c611292565b5b6000610c5b84828501610b8d565b91505092915050565b600060208284031215610c7a57610c79611292565b5b6000610c8884828501610ba2565b91505092915050565b6000610c9d8383610cc1565b60208301905092915050565b6000610cb58383610e4c565b60208301905092915050565b610cca816110dc565b82525050565b610cd9816110dc565b82525050565b6000610cea82610fbe565b610cf48185610ff9565b9350610cff83610f9e565b8060005b83811015610d30578151610d178882610c91565b9750610d2283610fdf565b925050600181019050610d03565b5085935050505092915050565b6000610d4882610fc9565b610d52818561100a565b9350610d5d83610fae565b8060005b83811015610d8e578151610d758882610ca9565b9750610d8083610fec565b925050600181019050610d61565b5085935050505092915050565b610da48161112e565b82525050565b6000610db582610fd4565b610dbf818561101b565b9350610dcf818560208601611140565b610dd881611297565b840191505092915050565b6000610df060168361101b565b9150610dfb826112a8565b602082019050919050565b6000610e1360248361101b565b9150610e1e826112d1565b604082019050919050565b6000610e3660168361101b565b9150610e4182611320565b602082019050919050565b610e5581611124565b82525050565b610e6481611124565b82525050565b6000606082019050610e7f6000830186610cd0565b610e8c6020830185610cd0565b610e996040830184610e5b565b949350505050565b60006040820190508181036000830152610ebb8185610cdf565b90508181036020830152610ecf8184610d3d565b90509392505050565b6000604082019050610eed6000830185610d9b565b610efa6020830184610cd0565b9392505050565b60006020820190508181036000830152610f1b8184610daa565b905092915050565b60006020820190508181036000830152610f3c81610de3565b9050919050565b60006020820190508181036000830152610f5c81610e06565b9050919050565b60006020820190508181036000830152610f7c81610e29565b9050919050565b6000602082019050610f986000830184610e5b565b92915050565b6000819050602082019050919050565b6000819050602082019050919050565b600081519050919050565b600081519050919050565b600081519050919050565b6000602082019050919050565b6000602082019050919050565b600082825260208201905092915050565b600082825260208201905092915050565b600082825260208201905092915050565b600061103782611124565b915061104283611124565b9250827fffffffffffffffffffffffffffffffffffffffffffffffffffffffffffffffff0382111561107757611076611205565b5b828201905092915050565b600061108d82611124565b915061109883611124565b9250817fffffffffffffffffffffffffffffffffffffffffffffffffffffffffffffffff04831182151516156110d1576110d0611205565b5b828202905092915050565b60006110e782611104565b9050919050565b60008115159050919050565b6000819050919050565b600073ffffffffffffffffffffffffffffffffffffffff82169050919050565b6000819050919050565b600061113982611124565b9050919050565b60005b8381101561115e578082015181840152602081019050611143565b8381111561116d576000848401525b50505050565b600061117e826110fa565b91507f7fffffffffffffffffffffffffffffffffffffffffffffffffffffffffffffff8214156111b1576111b0611205565b5b600182019050919050565b60006111c782611124565b91507fffffffffffffffffffffffffffffffffffffffffffffffffffffffffffffffff8214156111fa576111f9611205565b5b600182019050919050565b7f4e487b7100000000000000000000000000000000000000000000000000000000600052601160045260246000fd5b7f4e487b7100000000000000000000000000000000000000000000000000000000600052603260045260246000fd5b7f4e487b7100000000000000000000000000000000000000000000000000000000600052604160045260246000fd5b600080fd5b6000601f19601f8301169050919050565b7f4f6e6c79206d616e616765722063616e2063616c6c2100000000000000000000600082015250565b7f49742773206a757374206265656e206c657373207468616e203130207365636f60008201527f6e64732100000000000000000000000000000000000000000000000000000000602082015250565b7f4f6e6c7920636c69656e74732063616e2063616c6c2100000000000000000000600082015250565b611352816110dc565b811461135d57600080fd5b50565b611369816110ee565b811461137457600080fd5b50565b61138081611124565b811461138b57600080fd5b5056fea26469706673582212201364af4daa69b63324e57cd7a64fd014a0e7b6f45248ce62ea16e8d3ec98a83464736f6c63430008070033",
					"opcodes": "PUSH1 0x80 PUSH1 0x40 MSTORE CALLVALUE DUP1 ISZERO PUSH2 0x10 JUMPI PUSH1 0x0 DUP1 REVERT JUMPDEST POP PUSH1 0x0 PUSH1 0x1 DUP2 SWAP1 SSTORE POP PUSH2 0x13C4 DUP1 PUSH2 0x28 PUSH1 0x0 CODECOPY PUSH1 0x0 RETURN INVALID PUSH1 0x80 PUSH1 0x40 MSTORE PUSH1 0x4 CALLDATASIZE LT PUSH2 0xA0 JUMPI PUSH1 0x0 CALLDATALOAD PUSH1 0xE0 SHR DUP1 PUSH4 0x9E0A5D68 GT PUSH2 0x64 JUMPI DUP1 PUSH4 0x9E0A5D68 EQ PUSH2 0x152 JUMPI DUP1 PUSH4 0xA4092174 EQ PUSH2 0x15C JUMPI DUP1 PUSH4 0xD0E30DB0 EQ PUSH2 0x17A JUMPI DUP1 PUSH4 0xD0EBDBE7 EQ PUSH2 0x184 JUMPI DUP1 PUSH4 0xD9DCA6C5 EQ PUSH2 0x1C1 JUMPI DUP1 PUSH4 0xFEF75470 EQ PUSH2 0x1FE JUMPI PUSH2 0xA7 JUMP JUMPDEST DUP1 PUSH4 0x2855BD92 EQ PUSH2 0xAC JUMPI DUP1 PUSH4 0x2BBC7CAC EQ PUSH2 0xD5 JUMPI DUP1 PUSH4 0x2E1A7D4D EQ PUSH2 0xDF JUMPI DUP1 PUSH4 0x6DB80995 EQ PUSH2 0xFB JUMPI DUP1 PUSH4 0x6F9FB98A EQ PUSH2 0x127 JUMPI PUSH2 0xA7 JUMP JUMPDEST CALLDATASIZE PUSH2 0xA7 JUMPI STOP JUMPDEST PUSH1 0x0 DUP1 REVERT JUMPDEST CALLVALUE DUP1 ISZERO PUSH2 0xB8 JUMPI PUSH1 0x0 DUP1 REVERT JUMPDEST POP PUSH2 0xD3 PUSH1 0x4 DUP1 CALLDATASIZE SUB DUP2 ADD SWAP1 PUSH2 0xCE SWAP2 SWAP1 PUSH2 0xBE4 JUMP JUMPDEST PUSH2 0x229 JUMP JUMPDEST STOP JUMPDEST PUSH2 0xDD PUSH2 0x2D8 JUMP JUMPDEST STOP JUMPDEST PUSH2 0xF9 PUSH1 0x4 DUP1 CALLDATASIZE SUB DUP2 ADD SWAP1 PUSH2 0xF4 SWAP2 SWAP1 PUSH2 0xC64 JUMP JUMPDEST PUSH2 0x362 JUMP JUMPDEST STOP JUMPDEST CALLVALUE DUP1 ISZERO PUSH2 0x107 JUMPI PUSH1 0x0 DUP1 REVERT JUMPDEST POP PUSH2 0x110 PUSH2 0x4A6 JUMP JUMPDEST PUSH1 0x40 MLOAD PUSH2 0x11E SWAP3 SWAP2 SWAP1 PUSH2 0xEA1 JUMP JUMPDEST PUSH1 0x40 MLOAD DUP1 SWAP2 SUB SWAP1 RETURN JUMPDEST CALLVALUE DUP1 ISZERO PUSH2 0x133 JUMPI PUSH1 0x0 DUP1 REVERT JUMPDEST POP PUSH2 0x13C PUSH2 0x653 JUMP JUMPDEST PUSH1 0x40 MLOAD PUSH2 0x149 SWAP2 SWAP1 PUSH2 0xF83 JUMP JUMPDEST PUSH1 0x40 MLOAD DUP1 SWAP2 SUB SWAP1 RETURN JUMPDEST PUSH2 0x15A PUSH2 0x65B JUMP JUMPDEST STOP JUMPDEST PUSH2 0x164 PUSH2 0x882 JUMP JUMPDEST PUSH1 0x40 MLOAD PUSH2 0x171 SWAP2 SWAP1 PUSH2 0xF01 JUMP JUMPDEST PUSH1 0x40 MLOAD DUP1 SWAP2 SUB SWAP1 RETURN JUMPDEST PUSH2 0x182 PUSH2 0x9C3 JUMP JUMPDEST STOP JUMPDEST CALLVALUE DUP1 ISZERO PUSH2 0x190 JUMPI PUSH1 0x0 DUP1 REVERT JUMPDEST POP PUSH2 0x1AB PUSH1 0x4 DUP1 CALLDATASIZE SUB DUP2 ADD SWAP1 PUSH2 0x1A6 SWAP2 SWAP1 PUSH2 0xBB7 JUMP JUMPDEST PUSH2 0xAF4 JUMP JUMPDEST PUSH1 0x40 MLOAD PUSH2 0x1B8 SWAP2 SWAP1 PUSH2 0xF01 JUMP JUMPDEST PUSH1 0x40 MLOAD DUP1 SWAP2 SUB SWAP1 RETURN JUMPDEST CALLVALUE DUP1 ISZERO PUSH2 0x1CD JUMPI PUSH1 0x0 DUP1 REVERT JUMPDEST POP PUSH2 0x1E8 PUSH1 0x4 DUP1 CALLDATASIZE SUB DUP2 ADD SWAP1 PUSH2 0x1E3 SWAP2 SWAP1 PUSH2 0xBB7 JUMP JUMPDEST PUSH2 0xB4E JUMP JUMPDEST PUSH1 0x40 MLOAD PUSH2 0x1F5 SWAP2 SWAP1 PUSH2 0xF83 JUMP JUMPDEST PUSH1 0x40 MLOAD DUP1 SWAP2 SUB SWAP1 RETURN JUMPDEST CALLVALUE DUP1 ISZERO PUSH2 0x20A JUMPI PUSH1 0x0 DUP1 REVERT JUMPDEST POP PUSH2 0x213 PUSH2 0xB66 JUMP JUMPDEST PUSH1 0x40 MLOAD PUSH2 0x220 SWAP2 SWAP1 PUSH2 0xF83 JUMP JUMPDEST PUSH1 0x40 MLOAD DUP1 SWAP2 SUB SWAP1 RETURN JUMPDEST PUSH1 0x0 PUSH20 0xD9145CCE52D386F254917E481EB44E9943F39138 SWAP1 POP DUP1 PUSH20 0xFFFFFFFFFFFFFFFFFFFFFFFFFFFFFFFFFFFFFFFF AND PUSH4 0x23B872DD DUP6 DUP6 DUP6 PUSH1 0x40 MLOAD DUP5 PUSH4 0xFFFFFFFF AND PUSH1 0xE0 SHL DUP2 MSTORE PUSH1 0x4 ADD PUSH2 0x27F SWAP4 SWAP3 SWAP2 SWAP1 PUSH2 0xE6A JUMP JUMPDEST PUSH1 0x20 PUSH1 0x40 MLOAD DUP1 DUP4 SUB DUP2 PUSH1 0x0 DUP8 DUP1 EXTCODESIZE ISZERO DUP1 ISZERO PUSH2 0x299 JUMPI PUSH1 0x0 DUP1 REVERT JUMPDEST POP GAS CALL ISZERO DUP1 ISZERO PUSH2 0x2AD JUMPI RETURNDATASIZE PUSH1 0x0 DUP1 RETURNDATACOPY RETURNDATASIZE PUSH1 0x0 REVERT JUMPDEST POP POP POP POP PUSH1 0x40 MLOAD RETURNDATASIZE PUSH1 0x1F NOT PUSH1 0x1F DUP3 ADD AND DUP3 ADD DUP1 PUSH1 0x40 MSTORE POP DUP2 ADD SWAP1 PUSH2 0x2D1 SWAP2 SWAP1 PUSH2 0xC37 JUMP JUMPDEST POP POP POP POP POP JUMP JUMPDEST PUSH1 0x0 PUSH20 0x4F7B4006D00F5E8FF0C91D22A379E8164AE7879F SWAP1 POP DUP1 PUSH20 0xFFFFFFFFFFFFFFFFFFFFFFFFFFFFFFFFFFFFFFFF AND PUSH4 0x94BF804D PUSH1 0x1 CALLER PUSH1 0x40 MLOAD DUP4 PUSH4 0xFFFFFFFF AND PUSH1 0xE0 SHL DUP2 MSTORE PUSH1 0x4 ADD PUSH2 0x32D SWAP3 SWAP2 SWAP1 PUSH2 0xED8 JUMP JUMPDEST PUSH1 0x0 PUSH1 0x40 MLOAD DUP1 DUP4 SUB DUP2 PUSH1 0x0 DUP8 DUP1 EXTCODESIZE ISZERO DUP1 ISZERO PUSH2 0x347 JUMPI PUSH1 0x0 DUP1 REVERT JUMPDEST POP GAS CALL ISZERO DUP1 ISZERO PUSH2 0x35B JUMPI RETURNDATASIZE PUSH1 0x0 DUP1 RETURNDATACOPY RETURNDATASIZE PUSH1 0x0 REVERT JUMPDEST POP POP POP POP POP JUMP JUMPDEST PUSH1 0x0 DUP1 JUMPDEST PUSH1 0x0 DUP1 SLOAD SWAP1 POP DUP2 LT ISZERO PUSH2 0x408 JUMPI CALLER PUSH20 0xFFFFFFFFFFFFFFFFFFFFFFFFFFFFFFFFFFFFFFFF AND PUSH1 0x0 DUP3 DUP2 SLOAD DUP2 LT PUSH2 0x39E JUMPI PUSH2 0x39D PUSH2 0x1234 JUMP JUMPDEST JUMPDEST SWAP1 PUSH1 0x0 MSTORE PUSH1 0x20 PUSH1 0x0 KECCAK256 SWAP1 PUSH1 0x3 MUL ADD PUSH1 0x1 ADD PUSH1 0x0 SWAP1 SLOAD SWAP1 PUSH2 0x100 EXP SWAP1 DIV PUSH20 0xFFFFFFFFFFFFFFFFFFFFFFFFFFFFFFFFFFFFFFFF AND PUSH20 0xFFFFFFFFFFFFFFFFFFFFFFFFFFFFFFFFFFFFFFFF AND EQ ISZERO PUSH2 0x3F5 JUMPI PUSH1 0x1 SWAP2 POP PUSH2 0x408 JUMP JUMPDEST DUP1 DUP1 PUSH2 0x400 SWAP1 PUSH2 0x11BC JUMP JUMPDEST SWAP2 POP POP PUSH2 0x366 JUMP JUMPDEST POP DUP1 PUSH2 0x449 JUMPI PUSH1 0x40 MLOAD PUSH32 0x8C379A000000000000000000000000000000000000000000000000000000000 DUP2 MSTORE PUSH1 0x4 ADD PUSH2 0x440 SWAP1 PUSH2 0xF63 JUMP JUMPDEST PUSH1 0x40 MLOAD DUP1 SWAP2 SUB SWAP1 REVERT JUMPDEST PUSH1 0x0 CALLER SWAP1 POP DUP1 PUSH20 0xFFFFFFFFFFFFFFFFFFFFFFFFFFFFFFFFFFFFFFFF AND PUSH2 0x8FC PUSH1 0x1 DUP6 PUSH2 0x475 SWAP2 SWAP1 PUSH2 0x1082 JUMP JUMPDEST SWAP1 DUP2 ISZERO MUL SWAP1 PUSH1 0x40 MLOAD PUSH1 0x0 PUSH1 0x40 MLOAD DUP1 DUP4 SUB DUP2 DUP6 DUP9 DUP9 CALL SWAP4 POP POP POP POP ISZERO DUP1 ISZERO PUSH2 0x4A0 JUMPI RETURNDATASIZE PUSH1 0x0 DUP1 RETURNDATACOPY RETURNDATASIZE PUSH1 0x0 REVERT JUMPDEST POP POP POP POP JUMP JUMPDEST PUSH1 0x60 DUP1 PUSH1 0x0 DUP1 DUP1 SLOAD SWAP1 POP PUSH8 0xFFFFFFFFFFFFFFFF DUP2 GT ISZERO PUSH2 0x4C9 JUMPI PUSH2 0x4C8 PUSH2 0x1263 JUMP JUMPDEST JUMPDEST PUSH1 0x40 MLOAD SWAP1 DUP1 DUP3 MSTORE DUP1 PUSH1 0x20 MUL PUSH1 0x20 ADD DUP3 ADD PUSH1 0x40 MSTORE DUP1 ISZERO PUSH2 0x4F7 JUMPI DUP2 PUSH1 0x20 ADD PUSH1 0x20 DUP3 MUL DUP1 CALLDATASIZE DUP4 CALLDATACOPY DUP1 DUP3 ADD SWAP2 POP POP SWAP1 POP JUMPDEST POP SWAP1 POP PUSH1 0x0 DUP1 DUP1 SLOAD SWAP1 POP PUSH8 0xFFFFFFFFFFFFFFFF DUP2 GT ISZERO PUSH2 0x51A JUMPI PUSH2 0x519 PUSH2 0x1263 JUMP JUMPDEST JUMPDEST PUSH1 0x40 MLOAD SWAP1 DUP1 DUP3 MSTORE DUP1 PUSH1 0x20 MUL PUSH1 0x20 ADD DUP3 ADD PUSH1 0x40 MSTORE DUP1 ISZERO PUSH2 0x548 JUMPI DUP2 PUSH1 0x20 ADD PUSH1 0x20 DUP3 MUL DUP1 CALLDATASIZE DUP4 CALLDATACOPY DUP1 DUP3 ADD SWAP2 POP POP SWAP1 POP JUMPDEST POP SWAP1 POP PUSH1 0x0 JUMPDEST PUSH1 0x0 DUP1 SLOAD SWAP1 POP DUP2 LT ISZERO PUSH2 0x646 JUMPI PUSH1 0x0 DUP2 DUP2 SLOAD DUP2 LT PUSH2 0x56F JUMPI PUSH2 0x56E PUSH2 0x1234 JUMP JUMPDEST JUMPDEST SWAP1 PUSH1 0x0 MSTORE PUSH1 0x20 PUSH1 0x0 KECCAK256 SWAP1 PUSH1 0x3 MUL ADD PUSH1 0x1 ADD PUSH1 0x0 SWAP1 SLOAD SWAP1 PUSH2 0x100 EXP SWAP1 DIV PUSH20 0xFFFFFFFFFFFFFFFFFFFFFFFFFFFFFFFFFFFFFFFF AND DUP4 DUP3 DUP2 MLOAD DUP2 LT PUSH2 0x5B4 JUMPI PUSH2 0x5B3 PUSH2 0x1234 JUMP JUMPDEST JUMPDEST PUSH1 0x20 MUL PUSH1 0x20 ADD ADD SWAP1 PUSH20 0xFFFFFFFFFFFFFFFFFFFFFFFFFFFFFFFFFFFFFFFF AND SWAP1 DUP2 PUSH20 0xFFFFFFFFFFFFFFFFFFFFFFFFFFFFFFFFFFFFFFFF AND DUP2 MSTORE POP POP PUSH1 0x0 DUP2 DUP2 SLOAD DUP2 LT PUSH2 0x602 JUMPI PUSH2 0x601 PUSH2 0x1234 JUMP JUMPDEST JUMPDEST SWAP1 PUSH1 0x0 MSTORE PUSH1 0x20 PUSH1 0x0 KECCAK256 SWAP1 PUSH1 0x3 MUL ADD PUSH1 0x2 ADD SLOAD DUP3 DUP3 DUP2 MLOAD DUP2 LT PUSH2 0x627 JUMPI PUSH2 0x626 PUSH2 0x1234 JUMP JUMPDEST JUMPDEST PUSH1 0x20 MUL PUSH1 0x20 ADD ADD DUP2 DUP2 MSTORE POP POP DUP1 DUP1 PUSH2 0x63E SWAP1 PUSH2 0x11BC JUMP JUMPDEST SWAP2 POP POP PUSH2 0x54E JUMP JUMPDEST POP DUP2 DUP2 SWAP4 POP SWAP4 POP POP POP SWAP1 SWAP2 JUMP JUMPDEST PUSH1 0x0 SELFBALANCE SWAP1 POP SWAP1 JUMP JUMPDEST PUSH1 0x2 PUSH1 0x0 SWAP1 SLOAD SWAP1 PUSH2 0x100 EXP SWAP1 DIV PUSH20 0xFFFFFFFFFFFFFFFFFFFFFFFFFFFFFFFFFFFFFFFF AND PUSH20 0xFFFFFFFFFFFFFFFFFFFFFFFFFFFFFFFFFFFFFFFF AND CALLER PUSH20 0xFFFFFFFFFFFFFFFFFFFFFFFFFFFFFFFFFFFFFFFF AND EQ PUSH2 0x6EB JUMPI PUSH1 0x40 MLOAD PUSH32 0x8C379A000000000000000000000000000000000000000000000000000000000 DUP2 MSTORE PUSH1 0x4 ADD PUSH2 0x6E2 SWAP1 PUSH2 0xF23 JUMP JUMPDEST PUSH1 0x40 MLOAD DUP1 SWAP2 SUB SWAP1 REVERT JUMPDEST PUSH1 0x0 JUMPDEST PUSH1 0x0 DUP1 SLOAD SWAP1 POP DUP2 LT ISZERO PUSH2 0x87F JUMPI PUSH1 0x0 DUP1 DUP3 DUP2 SLOAD DUP2 LT PUSH2 0x710 JUMPI PUSH2 0x70F PUSH2 0x1234 JUMP JUMPDEST JUMPDEST SWAP1 PUSH1 0x0 MSTORE PUSH1 0x20 PUSH1 0x0 KECCAK256 SWAP1 PUSH1 0x3 MUL ADD PUSH1 0x1 ADD PUSH1 0x0 SWAP1 SLOAD SWAP1 PUSH2 0x100 EXP SWAP1 DIV PUSH20 0xFFFFFFFFFFFFFFFFFFFFFFFFFFFFFFFFFFFFFFFF AND SWAP1 POP PUSH1 0x0 PUSH1 0x3 PUSH1 0x0 DUP4 PUSH20 0xFFFFFFFFFFFFFFFFFFFFFFFFFFFFFFFFFFFFFFFF AND PUSH20 0xFFFFFFFFFFFFFFFFFFFFFFFFFFFFFFFFFFFFFFFF AND DUP2 MSTORE PUSH1 0x20 ADD SWAP1 DUP2 MSTORE PUSH1 0x20 ADD PUSH1 0x0 KECCAK256 SLOAD SWAP1 POP PUSH1 0xA DUP2 PUSH2 0x795 SWAP2 SWAP1 PUSH2 0x102C JUMP JUMPDEST TIMESTAMP LT ISZERO PUSH2 0x7D7 JUMPI PUSH1 0x40 MLOAD PUSH32 0x8C379A000000000000000000000000000000000000000000000000000000000 DUP2 MSTORE PUSH1 0x4 ADD PUSH2 0x7CE SWAP1 PUSH2 0xF43 JUMP JUMPDEST PUSH1 0x40 MLOAD DUP1 SWAP2 SUB SWAP1 REVERT JUMPDEST DUP2 PUSH20 0xFFFFFFFFFFFFFFFFFFFFFFFFFFFFFFFFFFFFFFFF AND PUSH2 0x8FC PUSH8 0xDE0B6B3A7640000 SWAP1 DUP2 ISZERO MUL SWAP1 PUSH1 0x40 MLOAD PUSH1 0x0 PUSH1 0x40 MLOAD DUP1 DUP4 SUB DUP2 DUP6 DUP9 DUP9 CALL SWAP4 POP POP POP POP ISZERO DUP1 ISZERO PUSH2 0x825 JUMPI RETURNDATASIZE PUSH1 0x0 DUP1 RETURNDATACOPY RETURNDATASIZE PUSH1 0x0 REVERT JUMPDEST POP TIMESTAMP PUSH1 0x3 PUSH1 0x0 DUP5 PUSH20 0xFFFFFFFFFFFFFFFFFFFFFFFFFFFFFFFFFFFFFFFF AND PUSH20 0xFFFFFFFFFFFFFFFFFFFFFFFFFFFFFFFFFFFFFFFF AND DUP2 MSTORE PUSH1 0x20 ADD SWAP1 DUP2 MSTORE PUSH1 0x20 ADD PUSH1 0x0 KECCAK256 DUP2 SWAP1 SSTORE POP POP POP DUP1 DUP1 PUSH2 0x877 SWAP1 PUSH2 0x11BC JUMP JUMPDEST SWAP2 POP POP PUSH2 0x6EE JUMP JUMPDEST POP JUMP JUMPDEST PUSH1 0x60 TIMESTAMP PUSH1 0x3 PUSH1 0x0 CALLER PUSH20 0xFFFFFFFFFFFFFFFFFFFFFFFFFFFFFFFFFFFFFFFF AND PUSH20 0xFFFFFFFFFFFFFFFFFFFFFFFFFFFFFFFFFFFFFFFF AND DUP2 MSTORE PUSH1 0x20 ADD SWAP1 DUP2 MSTORE PUSH1 0x20 ADD PUSH1 0x0 KECCAK256 DUP2 SWAP1 SSTORE POP PUSH1 0x0 PUSH1 0x40 MLOAD DUP1 PUSH1 0x60 ADD PUSH1 0x40 MSTORE DUP1 PUSH1 0x1 PUSH1 0x0 DUP2 SLOAD DUP1 SWAP3 SWAP2 SWAP1 PUSH2 0x8E8 SWAP1 PUSH2 0x1173 JUMP JUMPDEST SWAP2 SWAP1 POP SSTORE DUP2 MSTORE PUSH1 0x20 ADD CALLER PUSH20 0xFFFFFFFFFFFFFFFFFFFFFFFFFFFFFFFFFFFFFFFF AND DUP2 MSTORE PUSH1 0x20 ADD CALLER PUSH20 0xFFFFFFFFFFFFFFFFFFFFFFFFFFFFFFFFFFFFFFFF AND BALANCE DUP2 MSTORE POP SWAP1 DUP1 PUSH1 0x1 DUP2 SLOAD ADD DUP1 DUP3 SSTORE DUP1 SWAP2 POP POP PUSH1 0x1 SWAP1 SUB SWAP1 PUSH1 0x0 MSTORE PUSH1 0x20 PUSH1 0x0 KECCAK256 SWAP1 PUSH1 0x3 MUL ADD PUSH1 0x0 SWAP1 SWAP2 SWAP1 SWAP2 SWAP1 SWAP2 POP PUSH1 0x0 DUP3 ADD MLOAD DUP2 PUSH1 0x0 ADD SSTORE PUSH1 0x20 DUP3 ADD MLOAD DUP2 PUSH1 0x1 ADD PUSH1 0x0 PUSH2 0x100 EXP DUP2 SLOAD DUP2 PUSH20 0xFFFFFFFFFFFFFFFFFFFFFFFFFFFFFFFFFFFFFFFF MUL NOT AND SWAP1 DUP4 PUSH20 0xFFFFFFFFFFFFFFFFFFFFFFFFFFFFFFFFFFFFFFFF AND MUL OR SWAP1 SSTORE POP PUSH1 0x40 DUP3 ADD MLOAD DUP2 PUSH1 0x2 ADD SSTORE POP POP PUSH1 0x40 MLOAD DUP1 PUSH1 0x20 ADD PUSH1 0x40 MSTORE DUP1 PUSH1 0x0 DUP2 MSTORE POP SWAP1 POP SWAP1 JUMP JUMPDEST PUSH1 0x0 DUP1 JUMPDEST PUSH1 0x0 DUP1 SLOAD SWAP1 POP DUP2 LT ISZERO PUSH2 0xA69 JUMPI CALLER PUSH20 0xFFFFFFFFFFFFFFFFFFFFFFFFFFFFFFFFFFFFFFFF AND PUSH1 0x0 DUP3 DUP2 SLOAD DUP2 LT PUSH2 0x9FF JUMPI PUSH2 0x9FE PUSH2 0x1234 JUMP JUMPDEST JUMPDEST SWAP1 PUSH1 0x0 MSTORE PUSH1 0x20 PUSH1 0x0 KECCAK256 SWAP1 PUSH1 0x3 MUL ADD PUSH1 0x1 ADD PUSH1 0x0 SWAP1 SLOAD SWAP1 PUSH2 0x100 EXP SWAP1 DIV PUSH20 0xFFFFFFFFFFFFFFFFFFFFFFFFFFFFFFFFFFFFFFFF AND PUSH20 0xFFFFFFFFFFFFFFFFFFFFFFFFFFFFFFFFFFFFFFFF AND EQ ISZERO PUSH2 0xA56 JUMPI PUSH1 0x1 SWAP2 POP PUSH2 0xA69 JUMP JUMPDEST DUP1 DUP1 PUSH2 0xA61 SWAP1 PUSH2 0x11BC JUMP JUMPDEST SWAP2 POP POP PUSH2 0x9C7 JUMP JUMPDEST POP DUP1 PUSH2 0xAAA JUMPI PUSH1 0x40 MLOAD PUSH32 0x8C379A000000000000000000000000000000000000000000000000000000000 DUP2 MSTORE PUSH1 0x4 ADD PUSH2 0xAA1 SWAP1 PUSH2 0xF63 JUMP JUMPDEST PUSH1 0x40 MLOAD DUP1 SWAP2 SUB SWAP1 REVERT JUMPDEST ADDRESS PUSH20 0xFFFFFFFFFFFFFFFFFFFFFFFFFFFFFFFFFFFFFFFF AND PUSH2 0x8FC CALLVALUE SWAP1 DUP2 ISZERO MUL SWAP1 PUSH1 0x40 MLOAD PUSH1 0x0 PUSH1 0x40 MLOAD DUP1 DUP4 SUB DUP2 DUP6 DUP9 DUP9 CALL SWAP4 POP POP POP POP ISZERO DUP1 ISZERO PUSH2 0xAF0 JUMPI RETURNDATASIZE PUSH1 0x0 DUP1 RETURNDATACOPY RETURNDATASIZE PUSH1 0x0 REVERT JUMPDEST POP POP JUMP JUMPDEST PUSH1 0x60 DUP2 PUSH1 0x2 PUSH1 0x0 PUSH2 0x100 EXP DUP2 SLOAD DUP2 PUSH20 0xFFFFFFFFFFFFFFFFFFFFFFFFFFFFFFFFFFFFFFFF MUL NOT AND SWAP1 DUP4 PUSH20 0xFFFFFFFFFFFFFFFFFFFFFFFFFFFFFFFFFFFFFFFF AND MUL OR SWAP1 SSTORE POP PUSH1 0x40 MLOAD DUP1 PUSH1 0x20 ADD PUSH1 0x40 MSTORE DUP1 PUSH1 0x0 DUP2 MSTORE POP SWAP1 POP SWAP2 SWAP1 POP JUMP JUMPDEST PUSH1 0x3 PUSH1 0x20 MSTORE DUP1 PUSH1 0x0 MSTORE PUSH1 0x40 PUSH1 0x0 KECCAK256 PUSH1 0x0 SWAP2 POP SWAP1 POP SLOAD DUP2 JUMP JUMPDEST PUSH1 0x0 DUP1 PUSH1 0x0 DUP1 SLOAD SWAP1 POP SWAP1 POP DUP1 SWAP2 POP POP SWAP1 JUMP JUMPDEST PUSH1 0x0 DUP2 CALLDATALOAD SWAP1 POP PUSH2 0xB87 DUP2 PUSH2 0x1349 JUMP JUMPDEST SWAP3 SWAP2 POP POP JUMP JUMPDEST PUSH1 0x0 DUP2 MLOAD SWAP1 POP PUSH2 0xB9C DUP2 PUSH2 0x1360 JUMP JUMPDEST SWAP3 SWAP2 POP POP JUMP JUMPDEST PUSH1 0x0 DUP2 CALLDATALOAD SWAP1 POP PUSH2 0xBB1 DUP2 PUSH2 0x1377 JUMP JUMPDEST SWAP3 SWAP2 POP POP JUMP JUMPDEST PUSH1 0x0 PUSH1 0x20 DUP3 DUP5 SUB SLT ISZERO PUSH2 0xBCD JUMPI PUSH2 0xBCC PUSH2 0x1292 JUMP JUMPDEST JUMPDEST PUSH1 0x0 PUSH2 0xBDB DUP5 DUP3 DUP6 ADD PUSH2 0xB78 JUMP JUMPDEST SWAP2 POP POP SWAP3 SWAP2 POP POP JUMP JUMPDEST PUSH1 0x0 DUP1 PUSH1 0x0 PUSH1 0x60 DUP5 DUP7 SUB SLT ISZERO PUSH2 0xBFD JUMPI PUSH2 0xBFC PUSH2 0x1292 JUMP JUMPDEST JUMPDEST PUSH1 0x0 PUSH2 0xC0B DUP7 DUP3 DUP8 ADD PUSH2 0xB78 JUMP JUMPDEST SWAP4 POP POP PUSH1 0x20 PUSH2 0xC1C DUP7 DUP3 DUP8 ADD PUSH2 0xB78 JUMP JUMPDEST SWAP3 POP POP PUSH1 0x40 PUSH2 0xC2D DUP7 DUP3 DUP8 ADD PUSH2 0xBA2 JUMP JUMPDEST SWAP2 POP POP SWAP3 POP SWAP3 POP SWAP3 JUMP JUMPDEST PUSH1 0x0 PUSH1 0x20 DUP3 DUP5 SUB SLT ISZERO PUSH2 0xC4D JUMPI PUSH2 0xC4C PUSH2 0x1292 JUMP JUMPDEST JUMPDEST PUSH1 0x0 PUSH2 0xC5B DUP5 DUP3 DUP6 ADD PUSH2 0xB8D JUMP JUMPDEST SWAP2 POP POP SWAP3 SWAP2 POP POP JUMP JUMPDEST PUSH1 0x0 PUSH1 0x20 DUP3 DUP5 SUB SLT ISZERO PUSH2 0xC7A JUMPI PUSH2 0xC79 PUSH2 0x1292 JUMP JUMPDEST JUMPDEST PUSH1 0x0 PUSH2 0xC88 DUP5 DUP3 DUP6 ADD PUSH2 0xBA2 JUMP JUMPDEST SWAP2 POP POP SWAP3 SWAP2 POP POP JUMP JUMPDEST PUSH1 0x0 PUSH2 0xC9D DUP4 DUP4 PUSH2 0xCC1 JUMP JUMPDEST PUSH1 0x20 DUP4 ADD SWAP1 POP SWAP3 SWAP2 POP POP JUMP JUMPDEST PUSH1 0x0 PUSH2 0xCB5 DUP4 DUP4 PUSH2 0xE4C JUMP JUMPDEST PUSH1 0x20 DUP4 ADD SWAP1 POP SWAP3 SWAP2 POP POP JUMP JUMPDEST PUSH2 0xCCA DUP2 PUSH2 0x10DC JUMP JUMPDEST DUP3 MSTORE POP POP JUMP JUMPDEST PUSH2 0xCD9 DUP2 PUSH2 0x10DC JUMP JUMPDEST DUP3 MSTORE POP POP JUMP JUMPDEST PUSH1 0x0 PUSH2 0xCEA DUP3 PUSH2 0xFBE JUMP JUMPDEST PUSH2 0xCF4 DUP2 DUP6 PUSH2 0xFF9 JUMP JUMPDEST SWAP4 POP PUSH2 0xCFF DUP4 PUSH2 0xF9E JUMP JUMPDEST DUP1 PUSH1 0x0 JUMPDEST DUP4 DUP2 LT ISZERO PUSH2 0xD30 JUMPI DUP2 MLOAD PUSH2 0xD17 DUP9 DUP3 PUSH2 0xC91 JUMP JUMPDEST SWAP8 POP PUSH2 0xD22 DUP4 PUSH2 0xFDF JUMP JUMPDEST SWAP3 POP POP PUSH1 0x1 DUP2 ADD SWAP1 POP PUSH2 0xD03 JUMP JUMPDEST POP DUP6 SWAP4 POP POP POP POP SWAP3 SWAP2 POP POP JUMP JUMPDEST PUSH1 0x0 PUSH2 0xD48 DUP3 PUSH2 0xFC9 JUMP JUMPDEST PUSH2 0xD52 DUP2 DUP6 PUSH2 0x100A JUMP JUMPDEST SWAP4 POP PUSH2 0xD5D DUP4 PUSH2 0xFAE JUMP JUMPDEST DUP1 PUSH1 0x0 JUMPDEST DUP4 DUP2 LT ISZERO PUSH2 0xD8E JUMPI DUP2 MLOAD PUSH2 0xD75 DUP9 DUP3 PUSH2 0xCA9 JUMP JUMPDEST SWAP8 POP PUSH2 0xD80 DUP4 PUSH2 0xFEC JUMP JUMPDEST SWAP3 POP POP PUSH1 0x1 DUP2 ADD SWAP1 POP PUSH2 0xD61 JUMP JUMPDEST POP DUP6 SWAP4 POP POP POP POP SWAP3 SWAP2 POP POP JUMP JUMPDEST PUSH2 0xDA4 DUP2 PUSH2 0x112E JUMP JUMPDEST DUP3 MSTORE POP POP JUMP JUMPDEST PUSH1 0x0 PUSH2 0xDB5 DUP3 PUSH2 0xFD4 JUMP JUMPDEST PUSH2 0xDBF DUP2 DUP6 PUSH2 0x101B JUMP JUMPDEST SWAP4 POP PUSH2 0xDCF DUP2 DUP6 PUSH1 0x20 DUP7 ADD PUSH2 0x1140 JUMP JUMPDEST PUSH2 0xDD8 DUP2 PUSH2 0x1297 JUMP JUMPDEST DUP5 ADD SWAP2 POP POP SWAP3 SWAP2 POP POP JUMP JUMPDEST PUSH1 0x0 PUSH2 0xDF0 PUSH1 0x16 DUP4 PUSH2 0x101B JUMP JUMPDEST SWAP2 POP PUSH2 0xDFB DUP3 PUSH2 0x12A8 JUMP JUMPDEST PUSH1 0x20 DUP3 ADD SWAP1 POP SWAP2 SWAP1 POP JUMP JUMPDEST PUSH1 0x0 PUSH2 0xE13 PUSH1 0x24 DUP4 PUSH2 0x101B JUMP JUMPDEST SWAP2 POP PUSH2 0xE1E DUP3 PUSH2 0x12D1 JUMP JUMPDEST PUSH1 0x40 DUP3 ADD SWAP1 POP SWAP2 SWAP1 POP JUMP JUMPDEST PUSH1 0x0 PUSH2 0xE36 PUSH1 0x16 DUP4 PUSH2 0x101B JUMP JUMPDEST SWAP2 POP PUSH2 0xE41 DUP3 PUSH2 0x1320 JUMP JUMPDEST PUSH1 0x20 DUP3 ADD SWAP1 POP SWAP2 SWAP1 POP JUMP JUMPDEST PUSH2 0xE55 DUP2 PUSH2 0x1124 JUMP JUMPDEST DUP3 MSTORE POP POP JUMP JUMPDEST PUSH2 0xE64 DUP2 PUSH2 0x1124 JUMP JUMPDEST DUP3 MSTORE POP POP JUMP JUMPDEST PUSH1 0x0 PUSH1 0x60 DUP3 ADD SWAP1 POP PUSH2 0xE7F PUSH1 0x0 DUP4 ADD DUP7 PUSH2 0xCD0 JUMP JUMPDEST PUSH2 0xE8C PUSH1 0x20 DUP4 ADD DUP6 PUSH2 0xCD0 JUMP JUMPDEST PUSH2 0xE99 PUSH1 0x40 DUP4 ADD DUP5 PUSH2 0xE5B JUMP JUMPDEST SWAP5 SWAP4 POP POP POP POP JUMP JUMPDEST PUSH1 0x0 PUSH1 0x40 DUP3 ADD SWAP1 POP DUP2 DUP2 SUB PUSH1 0x0 DUP4 ADD MSTORE PUSH2 0xEBB DUP2 DUP6 PUSH2 0xCDF JUMP JUMPDEST SWAP1 POP DUP2 DUP2 SUB PUSH1 0x20 DUP4 ADD MSTORE PUSH2 0xECF DUP2 DUP5 PUSH2 0xD3D JUMP JUMPDEST SWAP1 POP SWAP4 SWAP3 POP POP POP JUMP JUMPDEST PUSH1 0x0 PUSH1 0x40 DUP3 ADD SWAP1 POP PUSH2 0xEED PUSH1 0x0 DUP4 ADD DUP6 PUSH2 0xD9B JUMP JUMPDEST PUSH2 0xEFA PUSH1 0x20 DUP4 ADD DUP5 PUSH2 0xCD0 JUMP JUMPDEST SWAP4 SWAP3 POP POP POP JUMP JUMPDEST PUSH1 0x0 PUSH1 0x20 DUP3 ADD SWAP1 POP DUP2 DUP2 SUB PUSH1 0x0 DUP4 ADD MSTORE PUSH2 0xF1B DUP2 DUP5 PUSH2 0xDAA JUMP JUMPDEST SWAP1 POP SWAP3 SWAP2 POP POP JUMP JUMPDEST PUSH1 0x0 PUSH1 0x20 DUP3 ADD SWAP1 POP DUP2 DUP2 SUB PUSH1 0x0 DUP4 ADD MSTORE PUSH2 0xF3C DUP2 PUSH2 0xDE3 JUMP JUMPDEST SWAP1 POP SWAP2 SWAP1 POP JUMP JUMPDEST PUSH1 0x0 PUSH1 0x20 DUP3 ADD SWAP1 POP DUP2 DUP2 SUB PUSH1 0x0 DUP4 ADD MSTORE PUSH2 0xF5C DUP2 PUSH2 0xE06 JUMP JUMPDEST SWAP1 POP SWAP2 SWAP1 POP JUMP JUMPDEST PUSH1 0x0 PUSH1 0x20 DUP3 ADD SWAP1 POP DUP2 DUP2 SUB PUSH1 0x0 DUP4 ADD MSTORE PUSH2 0xF7C DUP2 PUSH2 0xE29 JUMP JUMPDEST SWAP1 POP SWAP2 SWAP1 POP JUMP JUMPDEST PUSH1 0x0 PUSH1 0x20 DUP3 ADD SWAP1 POP PUSH2 0xF98 PUSH1 0x0 DUP4 ADD DUP5 PUSH2 0xE5B JUMP JUMPDEST SWAP3 SWAP2 POP POP JUMP JUMPDEST PUSH1 0x0 DUP2 SWAP1 POP PUSH1 0x20 DUP3 ADD SWAP1 POP SWAP2 SWAP1 POP JUMP JUMPDEST PUSH1 0x0 DUP2 SWAP1 POP PUSH1 0x20 DUP3 ADD SWAP1 POP SWAP2 SWAP1 POP JUMP JUMPDEST PUSH1 0x0 DUP2 MLOAD SWAP1 POP SWAP2 SWAP1 POP JUMP JUMPDEST PUSH1 0x0 DUP2 MLOAD SWAP1 POP SWAP2 SWAP1 POP JUMP JUMPDEST PUSH1 0x0 DUP2 MLOAD SWAP1 POP SWAP2 SWAP1 POP JUMP JUMPDEST PUSH1 0x0 PUSH1 0x20 DUP3 ADD SWAP1 POP SWAP2 SWAP1 POP JUMP JUMPDEST PUSH1 0x0 PUSH1 0x20 DUP3 ADD SWAP1 POP SWAP2 SWAP1 POP JUMP JUMPDEST PUSH1 0x0 DUP3 DUP3 MSTORE PUSH1 0x20 DUP3 ADD SWAP1 POP SWAP3 SWAP2 POP POP JUMP JUMPDEST PUSH1 0x0 DUP3 DUP3 MSTORE PUSH1 0x20 DUP3 ADD SWAP1 POP SWAP3 SWAP2 POP POP JUMP JUMPDEST PUSH1 0x0 DUP3 DUP3 MSTORE PUSH1 0x20 DUP3 ADD SWAP1 POP SWAP3 SWAP2 POP POP JUMP JUMPDEST PUSH1 0x0 PUSH2 0x1037 DUP3 PUSH2 0x1124 JUMP JUMPDEST SWAP2 POP PUSH2 0x1042 DUP4 PUSH2 0x1124 JUMP JUMPDEST SWAP3 POP DUP3 PUSH32 0xFFFFFFFFFFFFFFFFFFFFFFFFFFFFFFFFFFFFFFFFFFFFFFFFFFFFFFFFFFFFFFFF SUB DUP3 GT ISZERO PUSH2 0x1077 JUMPI PUSH2 0x1076 PUSH2 0x1205 JUMP JUMPDEST JUMPDEST DUP3 DUP3 ADD SWAP1 POP SWAP3 SWAP2 POP POP JUMP JUMPDEST PUSH1 0x0 PUSH2 0x108D DUP3 PUSH2 0x1124 JUMP JUMPDEST SWAP2 POP PUSH2 0x1098 DUP4 PUSH2 0x1124 JUMP JUMPDEST SWAP3 POP DUP2 PUSH32 0xFFFFFFFFFFFFFFFFFFFFFFFFFFFFFFFFFFFFFFFFFFFFFFFFFFFFFFFFFFFFFFFF DIV DUP4 GT DUP3 ISZERO ISZERO AND ISZERO PUSH2 0x10D1 JUMPI PUSH2 0x10D0 PUSH2 0x1205 JUMP JUMPDEST JUMPDEST DUP3 DUP3 MUL SWAP1 POP SWAP3 SWAP2 POP POP JUMP JUMPDEST PUSH1 0x0 PUSH2 0x10E7 DUP3 PUSH2 0x1104 JUMP JUMPDEST SWAP1 POP SWAP2 SWAP1 POP JUMP JUMPDEST PUSH1 0x0 DUP2 ISZERO ISZERO SWAP1 POP SWAP2 SWAP1 POP JUMP JUMPDEST PUSH1 0x0 DUP2 SWAP1 POP SWAP2 SWAP1 POP JUMP JUMPDEST PUSH1 0x0 PUSH20 0xFFFFFFFFFFFFFFFFFFFFFFFFFFFFFFFFFFFFFFFF DUP3 AND SWAP1 POP SWAP2 SWAP1 POP JUMP JUMPDEST PUSH1 0x0 DUP2 SWAP1 POP SWAP2 SWAP1 POP JUMP JUMPDEST PUSH1 0x0 PUSH2 0x1139 DUP3 PUSH2 0x1124 JUMP JUMPDEST SWAP1 POP SWAP2 SWAP1 POP JUMP JUMPDEST PUSH1 0x0 JUMPDEST DUP4 DUP2 LT ISZERO PUSH2 0x115E JUMPI DUP1 DUP3 ADD MLOAD DUP2 DUP5 ADD MSTORE PUSH1 0x20 DUP2 ADD SWAP1 POP PUSH2 0x1143 JUMP JUMPDEST DUP4 DUP2 GT ISZERO PUSH2 0x116D JUMPI PUSH1 0x0 DUP5 DUP5 ADD MSTORE JUMPDEST POP POP POP POP JUMP JUMPDEST PUSH1 0x0 PUSH2 0x117E DUP3 PUSH2 0x10FA JUMP JUMPDEST SWAP2 POP PUSH32 0x7FFFFFFFFFFFFFFFFFFFFFFFFFFFFFFFFFFFFFFFFFFFFFFFFFFFFFFFFFFFFFFF DUP3 EQ ISZERO PUSH2 0x11B1 JUMPI PUSH2 0x11B0 PUSH2 0x1205 JUMP JUMPDEST JUMPDEST PUSH1 0x1 DUP3 ADD SWAP1 POP SWAP2 SWAP1 POP JUMP JUMPDEST PUSH1 0x0 PUSH2 0x11C7 DUP3 PUSH2 0x1124 JUMP JUMPDEST SWAP2 POP PUSH32 0xFFFFFFFFFFFFFFFFFFFFFFFFFFFFFFFFFFFFFFFFFFFFFFFFFFFFFFFFFFFFFFFF DUP3 EQ ISZERO PUSH2 0x11FA JUMPI PUSH2 0x11F9 PUSH2 0x1205 JUMP JUMPDEST JUMPDEST PUSH1 0x1 DUP3 ADD SWAP1 POP SWAP2 SWAP1 POP JUMP JUMPDEST PUSH32 0x4E487B7100000000000000000000000000000000000000000000000000000000 PUSH1 0x0 MSTORE PUSH1 0x11 PUSH1 0x4 MSTORE PUSH1 0x24 PUSH1 0x0 REVERT JUMPDEST PUSH32 0x4E487B7100000000000000000000000000000000000000000000000000000000 PUSH1 0x0 MSTORE PUSH1 0x32 PUSH1 0x4 MSTORE PUSH1 0x24 PUSH1 0x0 REVERT JUMPDEST PUSH32 0x4E487B7100000000000000000000000000000000000000000000000000000000 PUSH1 0x0 MSTORE PUSH1 0x41 PUSH1 0x4 MSTORE PUSH1 0x24 PUSH1 0x0 REVERT JUMPDEST PUSH1 0x0 DUP1 REVERT JUMPDEST PUSH1 0x0 PUSH1 0x1F NOT PUSH1 0x1F DUP4 ADD AND SWAP1 POP SWAP2 SWAP1 POP JUMP JUMPDEST PUSH32 0x4F6E6C79206D616E616765722063616E2063616C6C2100000000000000000000 PUSH1 0x0 DUP3 ADD MSTORE POP JUMP JUMPDEST PUSH32 0x49742773206A757374206265656E206C657373207468616E203130207365636F PUSH1 0x0 DUP3 ADD MSTORE PUSH32 0x6E64732100000000000000000000000000000000000000000000000000000000 PUSH1 0x20 DUP3 ADD MSTORE POP JUMP JUMPDEST PUSH32 0x4F6E6C7920636C69656E74732063616E2063616C6C2100000000000000000000 PUSH1 0x0 DUP3 ADD MSTORE POP JUMP JUMPDEST PUSH2 0x1352 DUP2 PUSH2 0x10DC JUMP JUMPDEST DUP2 EQ PUSH2 0x135D JUMPI PUSH1 0x0 DUP1 REVERT JUMPDEST POP JUMP JUMPDEST PUSH2 0x1369 DUP2 PUSH2 0x10EE JUMP JUMPDEST DUP2 EQ PUSH2 0x1374 JUMPI PUSH1 0x0 DUP1 REVERT JUMPDEST POP JUMP JUMPDEST PUSH2 0x1380 DUP2 PUSH2 0x1124 JUMP JUMPDEST DUP2 EQ PUSH2 0x138B JUMPI PUSH1 0x0 DUP1 REVERT JUMPDEST POP JUMP INVALID LOG2 PUSH5 0x6970667358 0x22 SLT KECCAK256 SGT PUSH5 0xAF4DAA69B6 CALLER 0x24 0xE5 PUSH29 0xD7A64FD014A0E7B6F45248CE62EA16E8D3EC98A83464736F6C63430008 SMOD STOP CALLER "
				},
				"gasEstimates": {
					"creation": {
						"codeDepositCost": "1012000",
						"executionCost": "6068",
						"totalCost": "1018068"
					},
					"external": {
						"deposit()": "infinite",
						"getClients()": "infinite",
						"getContractBalance()": "428",
						"getCountClient()": "2568",
						"interestDate(address)": "2902",
						"joinAsClient()": "142747",
						"mintcoke()": "infinite",
						"sendCoke(address,address,uint256)": "infinite",
						"sendInterest()": "infinite",
						"setManager(address)": "25296",
						"withdraw(uint256)": "infinite"
					}
				},
				"methodIdentifiers": {
					"deposit()": "d0e30db0",
					"getClients()": "6db80995",
					"getContractBalance()": "6f9fb98a",
					"getCountClient()": "fef75470",
					"interestDate(address)": "d9dca6c5",
					"joinAsClient()": "a4092174",
					"mintcoke()": "2bbc7cac",
					"sendCoke(address,address,uint256)": "2855bd92",
					"sendInterest()": "9e0a5d68",
					"setManager(address)": "d0ebdbe7",
					"withdraw(uint256)": "2e1a7d4d"
				}
			},
			"storageLayout": {
				"storage": [
					{
						"astId": 41,
						"contract": "contracts/first_contract.sol:BankContract",
						"label": "clients",
						"offset": 0,
						"slot": "0",
						"type": "t_array(t_struct(client_account)37_storage)dyn_storage"
					},
					{
						"astId": 43,
						"contract": "contracts/first_contract.sol:BankContract",
						"label": "clientCounter",
						"offset": 0,
						"slot": "1",
						"type": "t_int256"
					},
					{
						"astId": 45,
						"contract": "contracts/first_contract.sol:BankContract",
						"label": "manager",
						"offset": 0,
						"slot": "2",
						"type": "t_address_payable"
					},
					{
						"astId": 49,
						"contract": "contracts/first_contract.sol:BankContract",
						"label": "interestDate",
						"offset": 0,
						"slot": "3",
						"type": "t_mapping(t_address,t_uint256)"
					}
				],
				"types": {
					"t_address": {
						"encoding": "inplace",
						"label": "address",
						"numberOfBytes": "20"
					},
					"t_address_payable": {
						"encoding": "inplace",
						"label": "address payable",
						"numberOfBytes": "20"
					},
					"t_array(t_struct(client_account)37_storage)dyn_storage": {
						"base": "t_struct(client_account)37_storage",
						"encoding": "dynamic_array",
						"label": "struct BankContract.client_account[]",
						"numberOfBytes": "32"
					},
					"t_int256": {
						"encoding": "inplace",
						"label": "int256",
						"numberOfBytes": "32"
					},
					"t_mapping(t_address,t_uint256)": {
						"encoding": "mapping",
						"key": "t_address",
						"label": "mapping(address => uint256)",
						"numberOfBytes": "32",
						"value": "t_uint256"
					},
					"t_struct(client_account)37_storage": {
						"encoding": "inplace",
						"label": "struct BankContract.client_account",
						"members": [
							{
								"astId": 32,
								"contract": "contracts/first_contract.sol:BankContract",
								"label": "client_id",
								"offset": 0,
								"slot": "0",
								"type": "t_int256"
							},
							{
								"astId": 34,
								"contract": "contracts/first_contract.sol:BankContract",
								"label": "client_address",
								"offset": 0,
								"slot": "1",
								"type": "t_address"
							},
							{
								"astId": 36,
								"contract": "contracts/first_contract.sol:BankContract",
								"label": "client_balance_in_ether",
								"offset": 0,
								"slot": "2",
								"type": "t_uint256"
							}
						],
						"numberOfBytes": "96"
					},
					"t_uint256": {
						"encoding": "inplace",
						"label": "uint256",
						"numberOfBytes": "32"
					}
				}
			},
			"userdoc": {
				"kind": "user",
				"methods": {},
				"version": 1
			}
		}
	}
}