{
	"contracts/first_contract.sol": {
		"BankContract": {
			"abi": [
				{
					"inputs": [],
					"stateMutability": "nonpayable",
					"type": "constructor"
				},
				{
					"inputs": [],
					"name": "deposit",
					"outputs": [],
					"stateMutability": "payable",
					"type": "function"
				},
				{
					"inputs": [],
					"name": "getClients",
					"outputs": [
						{
							"internalType": "address[]",
							"name": "",
							"type": "address[]"
						},
						{
							"internalType": "uint256[]",
							"name": "",
							"type": "uint256[]"
						}
					],
					"stateMutability": "view",
					"type": "function"
				},
				{
					"inputs": [],
					"name": "getContractBalance",
					"outputs": [
						{
							"internalType": "uint256",
							"name": "",
							"type": "uint256"
						}
					],
					"stateMutability": "view",
					"type": "function"
				},
				{
					"inputs": [],
					"name": "getCountClient",
					"outputs": [
						{
							"components": [
								{
									"internalType": "int256",
									"name": "client_id",
									"type": "int256"
								},
								{
									"internalType": "address",
									"name": "client_address",
									"type": "address"
								},
								{
									"internalType": "uint256",
									"name": "client_balance_in_ether",
									"type": "uint256"
								}
							],
							"internalType": "struct BankContract.client_account[]",
							"name": "",
							"type": "tuple[]"
						}
					],
					"stateMutability": "view",
					"type": "function"
				},
				{
					"inputs": [
						{
							"internalType": "address",
							"name": "",
							"type": "address"
						}
					],
					"name": "interestDate",
					"outputs": [
						{
							"internalType": "uint256",
							"name": "",
							"type": "uint256"
						}
					],
					"stateMutability": "view",
					"type": "function"
				},
				{
					"inputs": [],
					"name": "joinAsClient",
					"outputs": [
						{
							"internalType": "string",
							"name": "",
							"type": "string"
						}
					],
					"stateMutability": "payable",
					"type": "function"
				},
				{
					"inputs": [],
					"name": "sendInterest",
					"outputs": [],
					"stateMutability": "payable",
					"type": "function"
				},
				{
					"inputs": [
						{
							"internalType": "address",
							"name": "managerAddress",
							"type": "address"
						}
					],
					"name": "setManager",
					"outputs": [
						{
							"internalType": "string",
							"name": "",
							"type": "string"
						}
					],
					"stateMutability": "nonpayable",
					"type": "function"
				},
				{
					"inputs": [
						{
							"internalType": "uint256",
							"name": "amount",
							"type": "uint256"
						}
					],
					"name": "withdraw",
					"outputs": [],
					"stateMutability": "payable",
					"type": "function"
				},
				{
					"stateMutability": "payable",
					"type": "receive"
				}
			],
			"devdoc": {
				"kind": "dev",
				"methods": {},
				"version": 1
			},
			"evm": {
				"assembly": "    /* \"contracts/first_contract.sol\":35:2871  contract BankContract { \r... */\n  mstore(0x40, 0x80)\n    /* \"contracts/first_contract.sol\":342:398  constructor() public{\r... */\n  callvalue\n  dup1\n  iszero\n  tag_1\n  jumpi\n  0x00\n  dup1\n  revert\ntag_1:\n  pop\n    /* \"contracts/first_contract.sol\":389:390  0 */\n  0x00\n    /* \"contracts/first_contract.sol\":373:386  clientCounter */\n  0x01\n    /* \"contracts/first_contract.sol\":373:390  clientCounter = 0 */\n  dup2\n  swap1\n  sstore\n  pop\n    /* \"contracts/first_contract.sol\":35:2871  contract BankContract { \r... */\n  dataSize(sub_0)\n  dup1\n  dataOffset(sub_0)\n  0x00\n  codecopy\n  0x00\n  return\nstop\n\nsub_0: assembly {\n        /* \"contracts/first_contract.sol\":35:2871  contract BankContract { \r... */\n      mstore(0x40, 0x80)\n      jumpi(tag_1, lt(calldatasize, 0x04))\n      shr(0xe0, calldataload(0x00))\n      dup1\n      0xa4092174\n      gt\n      tag_12\n      jumpi\n      dup1\n      0xa4092174\n      eq\n      tag_7\n      jumpi\n      dup1\n      0xd0e30db0\n      eq\n      tag_8\n      jumpi\n      dup1\n      0xd0ebdbe7\n      eq\n      tag_9\n      jumpi\n      dup1\n      0xd9dca6c5\n      eq\n      tag_10\n      jumpi\n      dup1\n      0xfef75470\n      eq\n      tag_11\n      jumpi\n      jump(tag_2)\n    tag_12:\n      dup1\n      0x2e1a7d4d\n      eq\n      tag_3\n      jumpi\n      dup1\n      0x6db80995\n      eq\n      tag_4\n      jumpi\n      dup1\n      0x6f9fb98a\n      eq\n      tag_5\n      jumpi\n      dup1\n      0x9e0a5d68\n      eq\n      tag_6\n      jumpi\n      jump(tag_2)\n    tag_1:\n      jumpi(tag_2, calldatasize)\n      stop\n    tag_2:\n      0x00\n      dup1\n      revert\n        /* \"contracts/first_contract.sol\":1390:1575  function withdraw(uint amount) public payable onlyClients{\r... */\n    tag_3:\n      tag_15\n      0x04\n      dup1\n      calldatasize\n      sub\n      dup2\n      add\n      swap1\n      tag_16\n      swap2\n      swap1\n      tag_17\n      jump\t// in\n    tag_16:\n      tag_18\n      jump\t// in\n    tag_15:\n      stop\n        /* \"contracts/first_contract.sol\":2298:2868  function getClients() public view returns (address[] memory,uint[] memory) {\r... */\n    tag_4:\n      callvalue\n      dup1\n      iszero\n      tag_19\n      jumpi\n      0x00\n      dup1\n      revert\n    tag_19:\n      pop\n      tag_20\n      tag_21\n      jump\t// in\n    tag_20:\n      mload(0x40)\n      tag_22\n      swap3\n      swap2\n      swap1\n      tag_23\n      jump\t// in\n    tag_22:\n      mload(0x40)\n      dup1\n      swap2\n      sub\n      swap1\n      return\n        /* \"contracts/first_contract.sol\":2083:2182  function getContractBalance() public view returns(uint){\r... */\n    tag_5:\n      callvalue\n      dup1\n      iszero\n      tag_24\n      jumpi\n      0x00\n      dup1\n      revert\n    tag_24:\n      pop\n      tag_25\n      tag_26\n      jump\t// in\n    tag_25:\n      mload(0x40)\n      tag_27\n      swap2\n      swap1\n      tag_28\n      jump\t// in\n    tag_27:\n      mload(0x40)\n      dup1\n      swap2\n      sub\n      swap1\n      return\n        /* \"contracts/first_contract.sol\":1583:2073  function sendInterest() public payable onlyManager{\r... */\n    tag_6:\n      tag_29\n      tag_30\n      jump\t// in\n    tag_29:\n      stop\n        /* \"contracts/first_contract.sol\":1039:1269  function joinAsClient() public payable returns(string memory){\r... */\n    tag_7:\n      tag_31\n      tag_32\n      jump\t// in\n    tag_31:\n      mload(0x40)\n      tag_33\n      swap2\n      swap1\n      tag_34\n      jump\t// in\n    tag_33:\n      mload(0x40)\n      dup1\n      swap2\n      sub\n      swap1\n      return\n        /* \"contracts/first_contract.sol\":1279:1382  function deposit() public payable onlyClients{\r... */\n    tag_8:\n      tag_35\n      tag_36\n      jump\t// in\n    tag_35:\n      stop\n        /* \"contracts/first_contract.sol\":892:1031  function setManager(address managerAddress) public returns(string memory){\r... */\n    tag_9:\n      callvalue\n      dup1\n      iszero\n      tag_37\n      jumpi\n      0x00\n      dup1\n      revert\n    tag_37:\n      pop\n      tag_38\n      0x04\n      dup1\n      calldatasize\n      sub\n      dup2\n      add\n      swap1\n      tag_39\n      swap2\n      swap1\n      tag_40\n      jump\t// in\n    tag_39:\n      tag_41\n      jump\t// in\n    tag_38:\n      mload(0x40)\n      tag_42\n      swap2\n      swap1\n      tag_34\n      jump\t// in\n    tag_42:\n      mload(0x40)\n      dup1\n      swap2\n      sub\n      swap1\n      return\n        /* \"contracts/first_contract.sol\":289:333  mapping(address => uint) public interestDate */\n    tag_10:\n      callvalue\n      dup1\n      iszero\n      tag_43\n      jumpi\n      0x00\n      dup1\n      revert\n    tag_43:\n      pop\n      tag_44\n      0x04\n      dup1\n      calldatasize\n      sub\n      dup2\n      add\n      swap1\n      tag_45\n      swap2\n      swap1\n      tag_40\n      jump\t// in\n    tag_45:\n      tag_46\n      jump\t// in\n    tag_44:\n      mload(0x40)\n      tag_47\n      swap2\n      swap1\n      tag_28\n      jump\t// in\n    tag_47:\n      mload(0x40)\n      dup1\n      swap2\n      sub\n      swap1\n      return\n        /* \"contracts/first_contract.sol\":2190:2290  function getCountClient() public view returns(client_account[] memory){\r... */\n    tag_11:\n      callvalue\n      dup1\n      iszero\n      tag_48\n      jumpi\n      0x00\n      dup1\n      revert\n    tag_48:\n      pop\n      tag_49\n      tag_50\n      jump\t// in\n    tag_49:\n      mload(0x40)\n      tag_51\n      swap2\n      swap1\n      tag_52\n      jump\t// in\n    tag_51:\n      mload(0x40)\n      dup1\n      swap2\n      sub\n      swap1\n      return\n        /* \"contracts/first_contract.sol\":1390:1575  function withdraw(uint amount) public payable onlyClients{\r... */\n    tag_18:\n        /* \"contracts/first_contract.sol\":558:571  bool isClient */\n      0x00\n        /* \"contracts/first_contract.sol\":594:600  uint i */\n      dup1\n        /* \"contracts/first_contract.sol\":590:767  for(uint i=0;i<clients.length;i++){\r... */\n    tag_54:\n        /* \"contracts/first_contract.sol\":605:612  clients */\n      0x00\n        /* \"contracts/first_contract.sol\":605:619  clients.length */\n      dup1\n      sload\n      swap1\n      pop\n        /* \"contracts/first_contract.sol\":603:604  i */\n      dup2\n        /* \"contracts/first_contract.sol\":603:619  i<clients.length */\n      lt\n        /* \"contracts/first_contract.sol\":590:767  for(uint i=0;i<clients.length;i++){\r... */\n      iszero\n      tag_55\n      jumpi\n        /* \"contracts/first_contract.sol\":671:681  msg.sender */\n      caller\n        /* \"contracts/first_contract.sol\":642:681  clients[i].client_address == msg.sender */\n      0xffffffffffffffffffffffffffffffffffffffff\n      and\n        /* \"contracts/first_contract.sol\":642:649  clients */\n      0x00\n        /* \"contracts/first_contract.sol\":650:651  i */\n      dup3\n        /* \"contracts/first_contract.sol\":642:652  clients[i] */\n      dup2\n      sload\n      dup2\n      lt\n      tag_57\n      jumpi\n      tag_58\n      tag_59\n      jump\t// in\n    tag_58:\n    tag_57:\n      swap1\n      0x00\n      mstore\n      keccak256(0x00, 0x20)\n      swap1\n      0x03\n      mul\n      add\n        /* \"contracts/first_contract.sol\":642:667  clients[i].client_address */\n      0x01\n      add\n      0x00\n      swap1\n      sload\n      swap1\n      0x0100\n      exp\n      swap1\n      div\n      0xffffffffffffffffffffffffffffffffffffffff\n      and\n        /* \"contracts/first_contract.sol\":642:681  clients[i].client_address == msg.sender */\n      0xffffffffffffffffffffffffffffffffffffffff\n      and\n      eq\n        /* \"contracts/first_contract.sol\":639:756  if(clients[i].client_address == msg.sender){\r... */\n      iszero\n      tag_61\n      jumpi\n        /* \"contracts/first_contract.sol\":712:716  true */\n      0x01\n        /* \"contracts/first_contract.sol\":701:716  isClient = true */\n      swap2\n      pop\n        /* \"contracts/first_contract.sol\":735:740  break */\n      jump(tag_55)\n        /* \"contracts/first_contract.sol\":639:756  if(clients[i].client_address == msg.sender){\r... */\n    tag_61:\n        /* \"contracts/first_contract.sol\":620:623  i++ */\n      dup1\n      dup1\n      tag_62\n      swap1\n      tag_63\n      jump\t// in\n    tag_62:\n      swap2\n      pop\n      pop\n        /* \"contracts/first_contract.sol\":590:767  for(uint i=0;i<clients.length;i++){\r... */\n      jump(tag_54)\n    tag_55:\n      pop\n        /* \"contracts/first_contract.sol\":785:793  isClient */\n      dup1\n        /* \"contracts/first_contract.sol\":777:820  require(isClient, \"Only clients can call!\") */\n      tag_64\n      jumpi\n      mload(0x40)\n      0x08c379a000000000000000000000000000000000000000000000000000000000\n      dup2\n      mstore\n      0x04\n      add\n      tag_65\n      swap1\n      tag_66\n      jump\t// in\n    tag_65:\n      mload(0x40)\n      dup1\n      swap2\n      sub\n      swap1\n      revert\n    tag_64:\n        /* \"contracts/first_contract.sol\":1458:1477  address sender_temp */\n      0x00\n        /* \"contracts/first_contract.sol\":1502:1512  msg.sender */\n      caller\n        /* \"contracts/first_contract.sol\":1488:1512  sender_temp = msg.sender */\n      swap1\n      pop\n        /* \"contracts/first_contract.sol\":1528:1539  sender_temp */\n      dup1\n        /* \"contracts/first_contract.sol\":1520:1549  payable(sender_temp).transfer */\n      0xffffffffffffffffffffffffffffffffffffffff\n      and\n        /* \"contracts/first_contract.sol\":1520:1567  payable(sender_temp).transfer(amount * 1 ether) */\n      0x08fc\n        /* \"contracts/first_contract.sol\":1559:1566  1 ether */\n      0x0de0b6b3a7640000\n        /* \"contracts/first_contract.sol\":1550:1556  amount */\n      dup6\n        /* \"contracts/first_contract.sol\":1550:1566  amount * 1 ether */\n      tag_68\n      swap2\n      swap1\n      tag_69\n      jump\t// in\n    tag_68:\n        /* \"contracts/first_contract.sol\":1520:1567  payable(sender_temp).transfer(amount * 1 ether) */\n      swap1\n      dup2\n      iszero\n      mul\n      swap1\n      mload(0x40)\n      0x00\n      mload(0x40)\n      dup1\n      dup4\n      sub\n      dup2\n      dup6\n      dup9\n      dup9\n      call\n      swap4\n      pop\n      pop\n      pop\n      pop\n      iszero\n      dup1\n      iszero\n      tag_71\n      jumpi\n      returndatasize\n      0x00\n      dup1\n      returndatacopy\n      revert(0x00, returndatasize)\n    tag_71:\n      pop\n        /* \"contracts/first_contract.sol\":1447:1575  {\r... */\n      pop\n        /* \"contracts/first_contract.sol\":547:840  {\r... */\n      pop\n        /* \"contracts/first_contract.sol\":1390:1575  function withdraw(uint amount) public payable onlyClients{\r... */\n      pop\n      jump\t// out\n        /* \"contracts/first_contract.sol\":2298:2868  function getClients() public view returns (address[] memory,uint[] memory) {\r... */\n    tag_21:\n        /* \"contracts/first_contract.sol\":2341:2357  address[] memory */\n      0x60\n        /* \"contracts/first_contract.sol\":2358:2371  uint[] memory */\n      dup1\n        /* \"contracts/first_contract.sol\":2386:2417  address[] memory client_address */\n      0x00\n        /* \"contracts/first_contract.sol\":2434:2441  clients */\n      dup1\n        /* \"contracts/first_contract.sol\":2434:2448  clients.length */\n      dup1\n      sload\n      swap1\n      pop\n        /* \"contracts/first_contract.sol\":2420:2449  new address[](clients.length) */\n      0xffffffffffffffff\n      dup2\n      gt\n      iszero\n      tag_73\n      jumpi\n      tag_74\n      tag_75\n      jump\t// in\n    tag_74:\n    tag_73:\n      mload(0x40)\n      swap1\n      dup1\n      dup3\n      mstore\n      dup1\n      0x20\n      mul\n      0x20\n      add\n      dup3\n      add\n      0x40\n      mstore\n      dup1\n      iszero\n      tag_76\n      jumpi\n      dup2\n      0x20\n      add\n      0x20\n      dup3\n      mul\n      dup1\n      calldatasize\n      dup4\n      calldatacopy\n      dup1\n      dup3\n      add\n      swap2\n      pop\n      pop\n      swap1\n      pop\n    tag_76:\n      pop\n        /* \"contracts/first_contract.sol\":2386:2449  address[] memory client_address = new address[](clients.length) */\n      swap1\n      pop\n        /* \"contracts/first_contract.sol\":2458:2498  uint[]    memory client_balance_in_ether */\n      0x00\n        /* \"contracts/first_contract.sol\":2512:2519  clients */\n      dup1\n        /* \"contracts/first_contract.sol\":2512:2526  clients.length */\n      dup1\n      sload\n      swap1\n      pop\n        /* \"contracts/first_contract.sol\":2501:2527  new uint[](clients.length) */\n      0xffffffffffffffff\n      dup2\n      gt\n      iszero\n      tag_77\n      jumpi\n      tag_78\n      tag_75\n      jump\t// in\n    tag_78:\n    tag_77:\n      mload(0x40)\n      swap1\n      dup1\n      dup3\n      mstore\n      dup1\n      0x20\n      mul\n      0x20\n      add\n      dup3\n      add\n      0x40\n      mstore\n      dup1\n      iszero\n      tag_79\n      jumpi\n      dup2\n      0x20\n      add\n      0x20\n      dup3\n      mul\n      dup1\n      calldatasize\n      dup4\n      calldatacopy\n      dup1\n      dup3\n      add\n      swap2\n      pop\n      pop\n      swap1\n      pop\n    tag_79:\n      pop\n        /* \"contracts/first_contract.sol\":2458:2527  uint[]    memory client_balance_in_ether = new uint[](clients.length) */\n      swap1\n      pop\n        /* \"contracts/first_contract.sol\":2545:2551  uint i */\n      0x00\n        /* \"contracts/first_contract.sol\":2540:2791  for (uint i = 0; i < clients.length; i++) {\r... */\n    tag_80:\n        /* \"contracts/first_contract.sol\":2561:2568  clients */\n      0x00\n        /* \"contracts/first_contract.sol\":2561:2575  clients.length */\n      dup1\n      sload\n      swap1\n      pop\n        /* \"contracts/first_contract.sol\":2557:2558  i */\n      dup2\n        /* \"contracts/first_contract.sol\":2557:2575  i < clients.length */\n      lt\n        /* \"contracts/first_contract.sol\":2540:2791  for (uint i = 0; i < clients.length; i++) {\r... */\n      iszero\n      tag_81\n      jumpi\n        /* \"contracts/first_contract.sol\":2676:2683  clients */\n      0x00\n        /* \"contracts/first_contract.sol\":2684:2685  i */\n      dup2\n        /* \"contracts/first_contract.sol\":2676:2686  clients[i] */\n      dup2\n      sload\n      dup2\n      lt\n      tag_83\n      jumpi\n      tag_84\n      tag_59\n      jump\t// in\n    tag_84:\n    tag_83:\n      swap1\n      0x00\n      mstore\n      keccak256(0x00, 0x20)\n      swap1\n      0x03\n      mul\n      add\n        /* \"contracts/first_contract.sol\":2676:2701  clients[i].client_address */\n      0x01\n      add\n      0x00\n      swap1\n      sload\n      swap1\n      0x0100\n      exp\n      swap1\n      div\n      0xffffffffffffffffffffffffffffffffffffffff\n      and\n        /* \"contracts/first_contract.sol\":2656:2670  client_address */\n      dup4\n        /* \"contracts/first_contract.sol\":2671:2672  i */\n      dup3\n        /* \"contracts/first_contract.sol\":2656:2673  client_address[i] */\n      dup2\n      mload\n      dup2\n      lt\n      tag_86\n      jumpi\n      tag_87\n      tag_59\n      jump\t// in\n    tag_87:\n    tag_86:\n      0x20\n      mul\n      0x20\n      add\n      add\n        /* \"contracts/first_contract.sol\":2656:2701  client_address[i] = clients[i].client_address */\n      swap1\n      0xffffffffffffffffffffffffffffffffffffffff\n      and\n      swap1\n      dup2\n      0xffffffffffffffffffffffffffffffffffffffff\n      and\n      dup2\n      mstore\n      pop\n      pop\n        /* \"contracts/first_contract.sol\":2745:2752  clients */\n      0x00\n        /* \"contracts/first_contract.sol\":2753:2754  i */\n      dup2\n        /* \"contracts/first_contract.sol\":2745:2755  clients[i] */\n      dup2\n      sload\n      dup2\n      lt\n      tag_88\n      jumpi\n      tag_89\n      tag_59\n      jump\t// in\n    tag_89:\n    tag_88:\n      swap1\n      0x00\n      mstore\n      keccak256(0x00, 0x20)\n      swap1\n      0x03\n      mul\n      add\n        /* \"contracts/first_contract.sol\":2745:2779  clients[i].client_balance_in_ether */\n      0x02\n      add\n      sload\n        /* \"contracts/first_contract.sol\":2716:2739  client_balance_in_ether */\n      dup3\n        /* \"contracts/first_contract.sol\":2740:2741  i */\n      dup3\n        /* \"contracts/first_contract.sol\":2716:2742  client_balance_in_ether[i] */\n      dup2\n      mload\n      dup2\n      lt\n      tag_91\n      jumpi\n      tag_92\n      tag_59\n      jump\t// in\n    tag_92:\n    tag_91:\n      0x20\n      mul\n      0x20\n      add\n      add\n        /* \"contracts/first_contract.sol\":2716:2779  client_balance_in_ether[i] = clients[i].client_balance_in_ether */\n      dup2\n      dup2\n      mstore\n      pop\n      pop\n        /* \"contracts/first_contract.sol\":2577:2580  i++ */\n      dup1\n      dup1\n      tag_93\n      swap1\n      tag_63\n      jump\t// in\n    tag_93:\n      swap2\n      pop\n      pop\n        /* \"contracts/first_contract.sol\":2540:2791  for (uint i = 0; i < clients.length; i++) {\r... */\n      jump(tag_80)\n    tag_81:\n      pop\n        /* \"contracts/first_contract.sol\":2819:2833  client_address */\n      dup2\n        /* \"contracts/first_contract.sol\":2835:2858  client_balance_in_ether */\n      dup2\n        /* \"contracts/first_contract.sol\":2811:2859  return (client_address, client_balance_in_ether) */\n      swap4\n      pop\n      swap4\n      pop\n      pop\n      pop\n        /* \"contracts/first_contract.sol\":2298:2868  function getClients() public view returns (address[] memory,uint[] memory) {\r... */\n      swap1\n      swap2\n      jump\t// out\n        /* \"contracts/first_contract.sol\":2083:2182  function getContractBalance() public view returns(uint){\r... */\n    tag_26:\n        /* \"contracts/first_contract.sol\":2133:2137  uint */\n      0x00\n        /* \"contracts/first_contract.sol\":2153:2174  address(this).balance */\n      selfbalance\n        /* \"contracts/first_contract.sol\":2146:2174  return address(this).balance */\n      swap1\n      pop\n        /* \"contracts/first_contract.sol\":2083:2182  function getContractBalance() public view returns(uint){\r... */\n      swap1\n      jump\t// out\n        /* \"contracts/first_contract.sol\":1583:2073  function sendInterest() public payable onlyManager{\r... */\n    tag_30:\n        /* \"contracts/first_contract.sol\":464:471  manager */\n      0x02\n      0x00\n      swap1\n      sload\n      swap1\n      0x0100\n      exp\n      swap1\n      div\n      0xffffffffffffffffffffffffffffffffffffffff\n      and\n        /* \"contracts/first_contract.sol\":450:471  msg.sender == manager */\n      0xffffffffffffffffffffffffffffffffffffffff\n      and\n        /* \"contracts/first_contract.sol\":450:460  msg.sender */\n      caller\n        /* \"contracts/first_contract.sol\":450:471  msg.sender == manager */\n      0xffffffffffffffffffffffffffffffffffffffff\n      and\n      eq\n        /* \"contracts/first_contract.sol\":442:498  require(msg.sender == manager, \"Only manager can call!\") */\n      tag_96\n      jumpi\n      mload(0x40)\n      0x08c379a000000000000000000000000000000000000000000000000000000000\n      dup2\n      mstore\n      0x04\n      add\n      tag_97\n      swap1\n      tag_98\n      jump\t// in\n    tag_97:\n      mload(0x40)\n      dup1\n      swap2\n      sub\n      swap1\n      revert\n    tag_96:\n        /* \"contracts/first_contract.sol\":1645:1651  uint i */\n      0x00\n        /* \"contracts/first_contract.sol\":1641:2066  for(uint i=0;i<clients.length;i++){\r... */\n    tag_100:\n        /* \"contracts/first_contract.sol\":1656:1663  clients */\n      0x00\n        /* \"contracts/first_contract.sol\":1656:1670  clients.length */\n      dup1\n      sload\n      swap1\n      pop\n        /* \"contracts/first_contract.sol\":1654:1655  i */\n      dup2\n        /* \"contracts/first_contract.sol\":1654:1670  i<clients.length */\n      lt\n        /* \"contracts/first_contract.sol\":1641:2066  for(uint i=0;i<clients.length;i++){\r... */\n      iszero\n      tag_101\n      jumpi\n        /* \"contracts/first_contract.sol\":1688:1710  address initialAddress */\n      0x00\n        /* \"contracts/first_contract.sol\":1713:1720  clients */\n      dup1\n        /* \"contracts/first_contract.sol\":1721:1722  i */\n      dup3\n        /* \"contracts/first_contract.sol\":1713:1723  clients[i] */\n      dup2\n      sload\n      dup2\n      lt\n      tag_103\n      jumpi\n      tag_104\n      tag_59\n      jump\t// in\n    tag_104:\n    tag_103:\n      swap1\n      0x00\n      mstore\n      keccak256(0x00, 0x20)\n      swap1\n      0x03\n      mul\n      add\n        /* \"contracts/first_contract.sol\":1713:1738  clients[i].client_address */\n      0x01\n      add\n      0x00\n      swap1\n      sload\n      swap1\n      0x0100\n      exp\n      swap1\n      div\n      0xffffffffffffffffffffffffffffffffffffffff\n      and\n        /* \"contracts/first_contract.sol\":1688:1738  address initialAddress = clients[i].client_address */\n      swap1\n      pop\n        /* \"contracts/first_contract.sol\":1751:1772  uint lastInterestDate */\n      0x00\n        /* \"contracts/first_contract.sol\":1775:1787  interestDate */\n      0x03\n        /* \"contracts/first_contract.sol\":1775:1803  interestDate[initialAddress] */\n      0x00\n        /* \"contracts/first_contract.sol\":1788:1802  initialAddress */\n      dup4\n        /* \"contracts/first_contract.sol\":1775:1803  interestDate[initialAddress] */\n      0xffffffffffffffffffffffffffffffffffffffff\n      and\n      0xffffffffffffffffffffffffffffffffffffffff\n      and\n      dup2\n      mstore\n      0x20\n      add\n      swap1\n      dup2\n      mstore\n      0x20\n      add\n      0x00\n      keccak256\n      sload\n        /* \"contracts/first_contract.sol\":1751:1803  uint lastInterestDate = interestDate[initialAddress] */\n      swap1\n      pop\n        /* \"contracts/first_contract.sol\":1856:1866  10 seconds */\n      0x0a\n        /* \"contracts/first_contract.sol\":1837:1853  lastInterestDate */\n      dup2\n        /* \"contracts/first_contract.sol\":1837:1866  lastInterestDate + 10 seconds */\n      tag_106\n      swap2\n      swap1\n      tag_107\n      jump\t// in\n    tag_106:\n        /* \"contracts/first_contract.sol\":1819:1834  block.timestamp */\n      timestamp\n        /* \"contracts/first_contract.sol\":1819:1866  block.timestamp < lastInterestDate + 10 seconds */\n      lt\n        /* \"contracts/first_contract.sol\":1816:1945  if(block.timestamp < lastInterestDate + 10 seconds){\r... */\n      iszero\n      tag_108\n      jumpi\n        /* \"contracts/first_contract.sol\":1885:1931  revert(\"It's just been less than 10 seconds!\") */\n      mload(0x40)\n      0x08c379a000000000000000000000000000000000000000000000000000000000\n      dup2\n      mstore\n      0x04\n      add\n      tag_109\n      swap1\n      tag_110\n      jump\t// in\n    tag_109:\n      mload(0x40)\n      dup1\n      swap2\n      sub\n      swap1\n      revert\n        /* \"contracts/first_contract.sol\":1816:1945  if(block.timestamp < lastInterestDate + 10 seconds){\r... */\n    tag_108:\n        /* \"contracts/first_contract.sol\":1965:1979  initialAddress */\n      dup2\n        /* \"contracts/first_contract.sol\":1957:1989  payable(initialAddress).transfer */\n      0xffffffffffffffffffffffffffffffffffffffff\n      and\n        /* \"contracts/first_contract.sol\":1957:1998  payable(initialAddress).transfer(1 ether) */\n      0x08fc\n        /* \"contracts/first_contract.sol\":1990:1997  1 ether */\n      0x0de0b6b3a7640000\n        /* \"contracts/first_contract.sol\":1957:1998  payable(initialAddress).transfer(1 ether) */\n      swap1\n      dup2\n      iszero\n      mul\n      swap1\n      mload(0x40)\n      0x00\n      mload(0x40)\n      dup1\n      dup4\n      sub\n      dup2\n      dup6\n      dup9\n      dup9\n      call\n      swap4\n      pop\n      pop\n      pop\n      pop\n      iszero\n      dup1\n      iszero\n      tag_112\n      jumpi\n      returndatasize\n      0x00\n      dup1\n      returndatacopy\n      revert(0x00, returndatasize)\n    tag_112:\n      pop\n        /* \"contracts/first_contract.sol\":2042:2057  block.timestamp */\n      timestamp\n        /* \"contracts/first_contract.sol\":2011:2023  interestDate */\n      0x03\n        /* \"contracts/first_contract.sol\":2011:2039  interestDate[initialAddress] */\n      0x00\n        /* \"contracts/first_contract.sol\":2024:2038  initialAddress */\n      dup5\n        /* \"contracts/first_contract.sol\":2011:2039  interestDate[initialAddress] */\n      0xffffffffffffffffffffffffffffffffffffffff\n      and\n      0xffffffffffffffffffffffffffffffffffffffff\n      and\n      dup2\n      mstore\n      0x20\n      add\n      swap1\n      dup2\n      mstore\n      0x20\n      add\n      0x00\n      keccak256\n        /* \"contracts/first_contract.sol\":2011:2057  interestDate[initialAddress] = block.timestamp */\n      dup2\n      swap1\n      sstore\n      pop\n        /* \"contracts/first_contract.sol\":1675:2066  {\r... */\n      pop\n      pop\n        /* \"contracts/first_contract.sol\":1671:1674  i++ */\n      dup1\n      dup1\n      tag_113\n      swap1\n      tag_63\n      jump\t// in\n    tag_113:\n      swap2\n      pop\n      pop\n        /* \"contracts/first_contract.sol\":1641:2066  for(uint i=0;i<clients.length;i++){\r... */\n      jump(tag_100)\n    tag_101:\n      pop\n        /* \"contracts/first_contract.sol\":1583:2073  function sendInterest() public payable onlyManager{\r... */\n      jump\t// out\n        /* \"contracts/first_contract.sol\":1039:1269  function joinAsClient() public payable returns(string memory){\r... */\n    tag_32:\n        /* \"contracts/first_contract.sol\":1086:1099  string memory */\n      0x60\n        /* \"contracts/first_contract.sol\":1135:1150  block.timestamp */\n      timestamp\n        /* \"contracts/first_contract.sol\":1108:1120  interestDate */\n      0x03\n        /* \"contracts/first_contract.sol\":1108:1132  interestDate[msg.sender] */\n      0x00\n        /* \"contracts/first_contract.sol\":1121:1131  msg.sender */\n      caller\n        /* \"contracts/first_contract.sol\":1108:1132  interestDate[msg.sender] */\n      0xffffffffffffffffffffffffffffffffffffffff\n      and\n      0xffffffffffffffffffffffffffffffffffffffff\n      and\n      dup2\n      mstore\n      0x20\n      add\n      swap1\n      dup2\n      mstore\n      0x20\n      add\n      0x00\n      keccak256\n        /* \"contracts/first_contract.sol\":1108:1150  interestDate[msg.sender] = block.timestamp */\n      dup2\n      swap1\n      sstore\n      pop\n        /* \"contracts/first_contract.sol\":1158:1165  clients */\n      0x00\n        /* \"contracts/first_contract.sol\":1171:1243  client_account(clientCounter++, msg.sender, address(msg.sender).balance) */\n      mload(0x40)\n      dup1\n      0x60\n      add\n      0x40\n      mstore\n      dup1\n        /* \"contracts/first_contract.sol\":1186:1199  clientCounter */\n      0x01\n      0x00\n        /* \"contracts/first_contract.sol\":1186:1201  clientCounter++ */\n      dup2\n      sload\n      dup1\n      swap3\n      swap2\n      swap1\n      tag_115\n      swap1\n      tag_116\n      jump\t// in\n    tag_115:\n      swap2\n      swap1\n      pop\n      sstore\n        /* \"contracts/first_contract.sol\":1171:1243  client_account(clientCounter++, msg.sender, address(msg.sender).balance) */\n      dup2\n      mstore\n      0x20\n      add\n        /* \"contracts/first_contract.sol\":1203:1213  msg.sender */\n      caller\n        /* \"contracts/first_contract.sol\":1171:1243  client_account(clientCounter++, msg.sender, address(msg.sender).balance) */\n      0xffffffffffffffffffffffffffffffffffffffff\n      and\n      dup2\n      mstore\n      0x20\n      add\n        /* \"contracts/first_contract.sol\":1223:1233  msg.sender */\n      caller\n        /* \"contracts/first_contract.sol\":1215:1242  address(msg.sender).balance */\n      0xffffffffffffffffffffffffffffffffffffffff\n      and\n      balance\n        /* \"contracts/first_contract.sol\":1171:1243  client_account(clientCounter++, msg.sender, address(msg.sender).balance) */\n      dup2\n      mstore\n      pop\n        /* \"contracts/first_contract.sol\":1158:1244  clients.push(client_account(clientCounter++, msg.sender, address(msg.sender).balance)) */\n      swap1\n      dup1\n      0x01\n      dup2\n      sload\n      add\n      dup1\n      dup3\n      sstore\n      dup1\n      swap2\n      pop\n      pop\n      0x01\n      swap1\n      sub\n      swap1\n      0x00\n      mstore\n      keccak256(0x00, 0x20)\n      swap1\n      0x03\n      mul\n      add\n      0x00\n      swap1\n      swap2\n      swap1\n      swap2\n      swap1\n      swap2\n      pop\n      0x00\n      dup3\n      add\n      mload\n      dup2\n      0x00\n      add\n      sstore\n      0x20\n      dup3\n      add\n      mload\n      dup2\n      0x01\n      add\n      exp(0x0100, 0x00)\n      dup2\n      sload\n      dup2\n      0xffffffffffffffffffffffffffffffffffffffff\n      mul\n      not\n      and\n      swap1\n      dup4\n      0xffffffffffffffffffffffffffffffffffffffff\n      and\n      mul\n      or\n      swap1\n      sstore\n      pop\n      0x40\n      dup3\n      add\n      mload\n      dup2\n      0x02\n      add\n      sstore\n      pop\n      pop\n        /* \"contracts/first_contract.sol\":1252:1261  return \"\" */\n      mload(0x40)\n      dup1\n      0x20\n      add\n      0x40\n      mstore\n      dup1\n      0x00\n      dup2\n      mstore\n      pop\n      swap1\n      pop\n        /* \"contracts/first_contract.sol\":1039:1269  function joinAsClient() public payable returns(string memory){\r... */\n      swap1\n      jump\t// out\n        /* \"contracts/first_contract.sol\":1279:1382  function deposit() public payable onlyClients{\r... */\n    tag_36:\n        /* \"contracts/first_contract.sol\":558:571  bool isClient */\n      0x00\n        /* \"contracts/first_contract.sol\":594:600  uint i */\n      dup1\n        /* \"contracts/first_contract.sol\":590:767  for(uint i=0;i<clients.length;i++){\r... */\n    tag_119:\n        /* \"contracts/first_contract.sol\":605:612  clients */\n      0x00\n        /* \"contracts/first_contract.sol\":605:619  clients.length */\n      dup1\n      sload\n      swap1\n      pop\n        /* \"contracts/first_contract.sol\":603:604  i */\n      dup2\n        /* \"contracts/first_contract.sol\":603:619  i<clients.length */\n      lt\n        /* \"contracts/first_contract.sol\":590:767  for(uint i=0;i<clients.length;i++){\r... */\n      iszero\n      tag_120\n      jumpi\n        /* \"contracts/first_contract.sol\":671:681  msg.sender */\n      caller\n        /* \"contracts/first_contract.sol\":642:681  clients[i].client_address == msg.sender */\n      0xffffffffffffffffffffffffffffffffffffffff\n      and\n        /* \"contracts/first_contract.sol\":642:649  clients */\n      0x00\n        /* \"contracts/first_contract.sol\":650:651  i */\n      dup3\n        /* \"contracts/first_contract.sol\":642:652  clients[i] */\n      dup2\n      sload\n      dup2\n      lt\n      tag_122\n      jumpi\n      tag_123\n      tag_59\n      jump\t// in\n    tag_123:\n    tag_122:\n      swap1\n      0x00\n      mstore\n      keccak256(0x00, 0x20)\n      swap1\n      0x03\n      mul\n      add\n        /* \"contracts/first_contract.sol\":642:667  clients[i].client_address */\n      0x01\n      add\n      0x00\n      swap1\n      sload\n      swap1\n      0x0100\n      exp\n      swap1\n      div\n      0xffffffffffffffffffffffffffffffffffffffff\n      and\n        /* \"contracts/first_contract.sol\":642:681  clients[i].client_address == msg.sender */\n      0xffffffffffffffffffffffffffffffffffffffff\n      and\n      eq\n        /* \"contracts/first_contract.sol\":639:756  if(clients[i].client_address == msg.sender){\r... */\n      iszero\n      tag_125\n      jumpi\n        /* \"contracts/first_contract.sol\":712:716  true */\n      0x01\n        /* \"contracts/first_contract.sol\":701:716  isClient = true */\n      swap2\n      pop\n        /* \"contracts/first_contract.sol\":735:740  break */\n      jump(tag_120)\n        /* \"contracts/first_contract.sol\":639:756  if(clients[i].client_address == msg.sender){\r... */\n    tag_125:\n        /* \"contracts/first_contract.sol\":620:623  i++ */\n      dup1\n      dup1\n      tag_126\n      swap1\n      tag_63\n      jump\t// in\n    tag_126:\n      swap2\n      pop\n      pop\n        /* \"contracts/first_contract.sol\":590:767  for(uint i=0;i<clients.length;i++){\r... */\n      jump(tag_119)\n    tag_120:\n      pop\n        /* \"contracts/first_contract.sol\":785:793  isClient */\n      dup1\n        /* \"contracts/first_contract.sol\":777:820  require(isClient, \"Only clients can call!\") */\n      tag_127\n      jumpi\n      mload(0x40)\n      0x08c379a000000000000000000000000000000000000000000000000000000000\n      dup2\n      mstore\n      0x04\n      add\n      tag_128\n      swap1\n      tag_66\n      jump\t// in\n    tag_128:\n      mload(0x40)\n      dup1\n      swap2\n      sub\n      swap1\n      revert\n    tag_127:\n        /* \"contracts/first_contract.sol\":1348:1352  this */\n      address\n        /* \"contracts/first_contract.sol\":1332:1363  payable(address(this)).transfer */\n      0xffffffffffffffffffffffffffffffffffffffff\n      and\n        /* \"contracts/first_contract.sol\":1332:1374  payable(address(this)).transfer(msg.value) */\n      0x08fc\n        /* \"contracts/first_contract.sol\":1364:1373  msg.value */\n      callvalue\n        /* \"contracts/first_contract.sol\":1332:1374  payable(address(this)).transfer(msg.value) */\n      swap1\n      dup2\n      iszero\n      mul\n      swap1\n      mload(0x40)\n      0x00\n      mload(0x40)\n      dup1\n      dup4\n      sub\n      dup2\n      dup6\n      dup9\n      dup9\n      call\n      swap4\n      pop\n      pop\n      pop\n      pop\n      iszero\n      dup1\n      iszero\n      tag_131\n      jumpi\n      returndatasize\n      0x00\n      dup1\n      returndatacopy\n      revert(0x00, returndatasize)\n    tag_131:\n      pop\n        /* \"contracts/first_contract.sol\":547:840  {\r... */\n      pop\n        /* \"contracts/first_contract.sol\":1279:1382  function deposit() public payable onlyClients{\r... */\n      jump\t// out\n        /* \"contracts/first_contract.sol\":892:1031  function setManager(address managerAddress) public returns(string memory){\r... */\n    tag_41:\n        /* \"contracts/first_contract.sol\":951:964  string memory */\n      0x60\n        /* \"contracts/first_contract.sol\":991:1005  managerAddress */\n      dup2\n        /* \"contracts/first_contract.sol\":973:980  manager */\n      0x02\n      0x00\n        /* \"contracts/first_contract.sol\":973:1006  manager = payable(managerAddress) */\n      0x0100\n      exp\n      dup2\n      sload\n      dup2\n      0xffffffffffffffffffffffffffffffffffffffff\n      mul\n      not\n      and\n      swap1\n      dup4\n      0xffffffffffffffffffffffffffffffffffffffff\n      and\n      mul\n      or\n      swap1\n      sstore\n      pop\n        /* \"contracts/first_contract.sol\":1014:1023  return \"\" */\n      mload(0x40)\n      dup1\n      0x20\n      add\n      0x40\n      mstore\n      dup1\n      0x00\n      dup2\n      mstore\n      pop\n      swap1\n      pop\n        /* \"contracts/first_contract.sol\":892:1031  function setManager(address managerAddress) public returns(string memory){\r... */\n      swap2\n      swap1\n      pop\n      jump\t// out\n        /* \"contracts/first_contract.sol\":289:333  mapping(address => uint) public interestDate */\n    tag_46:\n      mstore(0x20, 0x03)\n      dup1\n      0x00\n      mstore\n      keccak256(0x00, 0x40)\n      0x00\n      swap2\n      pop\n      swap1\n      pop\n      sload\n      dup2\n      jump\t// out\n        /* \"contracts/first_contract.sol\":2190:2290  function getCountClient() public view returns(client_account[] memory){\r... */\n    tag_50:\n        /* \"contracts/first_contract.sol\":2236:2259  client_account[] memory */\n      0x60\n        /* \"contracts/first_contract.sol\":2275:2282  clients */\n      0x00\n        /* \"contracts/first_contract.sol\":2268:2282  return clients */\n      dup1\n      sload\n      dup1\n      0x20\n      mul\n      0x20\n      add\n      mload(0x40)\n      swap1\n      dup2\n      add\n      0x40\n      mstore\n      dup1\n      swap3\n      swap2\n      swap1\n      dup2\n      dup2\n      mstore\n      0x20\n      add\n      0x00\n      swap1\n    tag_134:\n      dup3\n      dup3\n      lt\n      iszero\n      tag_135\n      jumpi\n      dup4\n      dup3\n      swap1\n      0x00\n      mstore\n      keccak256(0x00, 0x20)\n      swap1\n      0x03\n      mul\n      add\n      mload(0x40)\n      dup1\n      0x60\n      add\n      0x40\n      mstore\n      swap1\n      dup2\n      0x00\n      dup3\n      add\n      sload\n      dup2\n      mstore\n      0x20\n      add\n      0x01\n      dup3\n      add\n      0x00\n      swap1\n      sload\n      swap1\n      0x0100\n      exp\n      swap1\n      div\n      0xffffffffffffffffffffffffffffffffffffffff\n      and\n      0xffffffffffffffffffffffffffffffffffffffff\n      and\n      0xffffffffffffffffffffffffffffffffffffffff\n      and\n      dup2\n      mstore\n      0x20\n      add\n      0x02\n      dup3\n      add\n      sload\n      dup2\n      mstore\n      pop\n      pop\n      dup2\n      mstore\n      0x20\n      add\n      swap1\n      0x01\n      add\n      swap1\n      jump(tag_134)\n    tag_135:\n      pop\n      pop\n      pop\n      pop\n      swap1\n      pop\n        /* \"contracts/first_contract.sol\":2190:2290  function getCountClient() public view returns(client_account[] memory){\r... */\n      swap1\n      jump\t// out\n        /* \"#utility.yul\":7:146   */\n    tag_138:\n        /* \"#utility.yul\":53:58   */\n      0x00\n        /* \"#utility.yul\":91:97   */\n      dup2\n        /* \"#utility.yul\":78:98   */\n      calldataload\n        /* \"#utility.yul\":69:98   */\n      swap1\n      pop\n        /* \"#utility.yul\":107:140   */\n      tag_140\n        /* \"#utility.yul\":134:139   */\n      dup2\n        /* \"#utility.yul\":107:140   */\n      tag_141\n      jump\t// in\n    tag_140:\n        /* \"#utility.yul\":7:146   */\n      swap3\n      swap2\n      pop\n      pop\n      jump\t// out\n        /* \"#utility.yul\":152:291   */\n    tag_142:\n        /* \"#utility.yul\":198:203   */\n      0x00\n        /* \"#utility.yul\":236:242   */\n      dup2\n        /* \"#utility.yul\":223:243   */\n      calldataload\n        /* \"#utility.yul\":214:243   */\n      swap1\n      pop\n        /* \"#utility.yul\":252:285   */\n      tag_144\n        /* \"#utility.yul\":279:284   */\n      dup2\n        /* \"#utility.yul\":252:285   */\n      tag_145\n      jump\t// in\n    tag_144:\n        /* \"#utility.yul\":152:291   */\n      swap3\n      swap2\n      pop\n      pop\n      jump\t// out\n        /* \"#utility.yul\":297:626   */\n    tag_40:\n        /* \"#utility.yul\":356:362   */\n      0x00\n        /* \"#utility.yul\":405:407   */\n      0x20\n        /* \"#utility.yul\":393:402   */\n      dup3\n        /* \"#utility.yul\":384:391   */\n      dup5\n        /* \"#utility.yul\":380:403   */\n      sub\n        /* \"#utility.yul\":376:408   */\n      slt\n        /* \"#utility.yul\":373:492   */\n      iszero\n      tag_147\n      jumpi\n        /* \"#utility.yul\":411:490   */\n      tag_148\n      tag_149\n      jump\t// in\n    tag_148:\n        /* \"#utility.yul\":373:492   */\n    tag_147:\n        /* \"#utility.yul\":531:532   */\n      0x00\n        /* \"#utility.yul\":556:609   */\n      tag_150\n        /* \"#utility.yul\":601:608   */\n      dup5\n        /* \"#utility.yul\":592:598   */\n      dup3\n        /* \"#utility.yul\":581:590   */\n      dup6\n        /* \"#utility.yul\":577:599   */\n      add\n        /* \"#utility.yul\":556:609   */\n      tag_138\n      jump\t// in\n    tag_150:\n        /* \"#utility.yul\":546:609   */\n      swap2\n      pop\n        /* \"#utility.yul\":502:619   */\n      pop\n        /* \"#utility.yul\":297:626   */\n      swap3\n      swap2\n      pop\n      pop\n      jump\t// out\n        /* \"#utility.yul\":632:961   */\n    tag_17:\n        /* \"#utility.yul\":691:697   */\n      0x00\n        /* \"#utility.yul\":740:742   */\n      0x20\n        /* \"#utility.yul\":728:737   */\n      dup3\n        /* \"#utility.yul\":719:726   */\n      dup5\n        /* \"#utility.yul\":715:738   */\n      sub\n        /* \"#utility.yul\":711:743   */\n      slt\n        /* \"#utility.yul\":708:827   */\n      iszero\n      tag_152\n      jumpi\n        /* \"#utility.yul\":746:825   */\n      tag_153\n      tag_149\n      jump\t// in\n    tag_153:\n        /* \"#utility.yul\":708:827   */\n    tag_152:\n        /* \"#utility.yul\":866:867   */\n      0x00\n        /* \"#utility.yul\":891:944   */\n      tag_154\n        /* \"#utility.yul\":936:943   */\n      dup5\n        /* \"#utility.yul\":927:933   */\n      dup3\n        /* \"#utility.yul\":916:925   */\n      dup6\n        /* \"#utility.yul\":912:934   */\n      add\n        /* \"#utility.yul\":891:944   */\n      tag_142\n      jump\t// in\n    tag_154:\n        /* \"#utility.yul\":881:944   */\n      swap2\n      pop\n        /* \"#utility.yul\":837:954   */\n      pop\n        /* \"#utility.yul\":632:961   */\n      swap3\n      swap2\n      pop\n      pop\n      jump\t// out\n        /* \"#utility.yul\":967:1146   */\n    tag_155:\n        /* \"#utility.yul\":1036:1046   */\n      0x00\n        /* \"#utility.yul\":1057:1103   */\n      tag_157\n        /* \"#utility.yul\":1099:1102   */\n      dup4\n        /* \"#utility.yul\":1091:1097   */\n      dup4\n        /* \"#utility.yul\":1057:1103   */\n      tag_158\n      jump\t// in\n    tag_157:\n        /* \"#utility.yul\":1135:1139   */\n      0x20\n        /* \"#utility.yul\":1130:1133   */\n      dup4\n        /* \"#utility.yul\":1126:1140   */\n      add\n        /* \"#utility.yul\":1112:1140   */\n      swap1\n      pop\n        /* \"#utility.yul\":967:1146   */\n      swap3\n      swap2\n      pop\n      pop\n      jump\t// out\n        /* \"#utility.yul\":1152:1447   */\n    tag_159:\n        /* \"#utility.yul\":1279:1289   */\n      0x00\n        /* \"#utility.yul\":1300:1404   */\n      tag_161\n        /* \"#utility.yul\":1400:1403   */\n      dup4\n        /* \"#utility.yul\":1392:1398   */\n      dup4\n        /* \"#utility.yul\":1300:1404   */\n      tag_162\n      jump\t// in\n    tag_161:\n        /* \"#utility.yul\":1436:1440   */\n      0x60\n        /* \"#utility.yul\":1431:1434   */\n      dup4\n        /* \"#utility.yul\":1427:1441   */\n      add\n        /* \"#utility.yul\":1413:1441   */\n      swap1\n      pop\n        /* \"#utility.yul\":1152:1447   */\n      swap3\n      swap2\n      pop\n      pop\n      jump\t// out\n        /* \"#utility.yul\":1453:1632   */\n    tag_163:\n        /* \"#utility.yul\":1522:1532   */\n      0x00\n        /* \"#utility.yul\":1543:1589   */\n      tag_165\n        /* \"#utility.yul\":1585:1588   */\n      dup4\n        /* \"#utility.yul\":1577:1583   */\n      dup4\n        /* \"#utility.yul\":1543:1589   */\n      tag_166\n      jump\t// in\n    tag_165:\n        /* \"#utility.yul\":1621:1625   */\n      0x20\n        /* \"#utility.yul\":1616:1619   */\n      dup4\n        /* \"#utility.yul\":1612:1626   */\n      add\n        /* \"#utility.yul\":1598:1626   */\n      swap1\n      pop\n        /* \"#utility.yul\":1453:1632   */\n      swap3\n      swap2\n      pop\n      pop\n      jump\t// out\n        /* \"#utility.yul\":1638:1746   */\n    tag_158:\n        /* \"#utility.yul\":1715:1739   */\n      tag_168\n        /* \"#utility.yul\":1733:1738   */\n      dup2\n        /* \"#utility.yul\":1715:1739   */\n      tag_169\n      jump\t// in\n    tag_168:\n        /* \"#utility.yul\":1710:1713   */\n      dup3\n        /* \"#utility.yul\":1703:1740   */\n      mstore\n        /* \"#utility.yul\":1638:1746   */\n      pop\n      pop\n      jump\t// out\n        /* \"#utility.yul\":1782:2514   */\n    tag_170:\n        /* \"#utility.yul\":1901:1904   */\n      0x00\n        /* \"#utility.yul\":1930:1984   */\n      tag_172\n        /* \"#utility.yul\":1978:1983   */\n      dup3\n        /* \"#utility.yul\":1930:1984   */\n      tag_173\n      jump\t// in\n    tag_172:\n        /* \"#utility.yul\":2000:2086   */\n      tag_174\n        /* \"#utility.yul\":2079:2085   */\n      dup2\n        /* \"#utility.yul\":2074:2077   */\n      dup6\n        /* \"#utility.yul\":2000:2086   */\n      tag_175\n      jump\t// in\n    tag_174:\n        /* \"#utility.yul\":1993:2086   */\n      swap4\n      pop\n        /* \"#utility.yul\":2110:2166   */\n      tag_176\n        /* \"#utility.yul\":2160:2165   */\n      dup4\n        /* \"#utility.yul\":2110:2166   */\n      tag_177\n      jump\t// in\n    tag_176:\n        /* \"#utility.yul\":2189:2196   */\n      dup1\n        /* \"#utility.yul\":2220:2221   */\n      0x00\n        /* \"#utility.yul\":2205:2489   */\n    tag_178:\n        /* \"#utility.yul\":2230:2236   */\n      dup4\n        /* \"#utility.yul\":2227:2228   */\n      dup2\n        /* \"#utility.yul\":2224:2237   */\n      lt\n        /* \"#utility.yul\":2205:2489   */\n      iszero\n      tag_180\n      jumpi\n        /* \"#utility.yul\":2306:2312   */\n      dup2\n        /* \"#utility.yul\":2300:2313   */\n      mload\n        /* \"#utility.yul\":2333:2396   */\n      tag_181\n        /* \"#utility.yul\":2392:2395   */\n      dup9\n        /* \"#utility.yul\":2377:2390   */\n      dup3\n        /* \"#utility.yul\":2333:2396   */\n      tag_155\n      jump\t// in\n    tag_181:\n        /* \"#utility.yul\":2326:2396   */\n      swap8\n      pop\n        /* \"#utility.yul\":2419:2479   */\n      tag_182\n        /* \"#utility.yul\":2472:2478   */\n      dup4\n        /* \"#utility.yul\":2419:2479   */\n      tag_183\n      jump\t// in\n    tag_182:\n        /* \"#utility.yul\":2409:2479   */\n      swap3\n      pop\n        /* \"#utility.yul\":2265:2489   */\n      pop\n        /* \"#utility.yul\":2252:2253   */\n      0x01\n        /* \"#utility.yul\":2249:2250   */\n      dup2\n        /* \"#utility.yul\":2245:2254   */\n      add\n        /* \"#utility.yul\":2240:2254   */\n      swap1\n      pop\n        /* \"#utility.yul\":2205:2489   */\n      jump(tag_178)\n    tag_180:\n        /* \"#utility.yul\":2209:2223   */\n      pop\n        /* \"#utility.yul\":2505:2508   */\n      dup6\n        /* \"#utility.yul\":2498:2508   */\n      swap4\n      pop\n        /* \"#utility.yul\":1906:2514   */\n      pop\n      pop\n      pop\n        /* \"#utility.yul\":1782:2514   */\n      swap3\n      swap2\n      pop\n      pop\n      jump\t// out\n        /* \"#utility.yul\":2604:3568   */\n    tag_184:\n        /* \"#utility.yul\":2781:2784   */\n      0x00\n        /* \"#utility.yul\":2810:2893   */\n      tag_186\n        /* \"#utility.yul\":2887:2892   */\n      dup3\n        /* \"#utility.yul\":2810:2893   */\n      tag_187\n      jump\t// in\n    tag_186:\n        /* \"#utility.yul\":2909:3024   */\n      tag_188\n        /* \"#utility.yul\":3017:3023   */\n      dup2\n        /* \"#utility.yul\":3012:3015   */\n      dup6\n        /* \"#utility.yul\":2909:3024   */\n      tag_189\n      jump\t// in\n    tag_188:\n        /* \"#utility.yul\":2902:3024   */\n      swap4\n      pop\n        /* \"#utility.yul\":3048:3133   */\n      tag_190\n        /* \"#utility.yul\":3127:3132   */\n      dup4\n        /* \"#utility.yul\":3048:3133   */\n      tag_191\n      jump\t// in\n    tag_190:\n        /* \"#utility.yul\":3156:3163   */\n      dup1\n        /* \"#utility.yul\":3187:3188   */\n      0x00\n        /* \"#utility.yul\":3172:3543   */\n    tag_192:\n        /* \"#utility.yul\":3197:3203   */\n      dup4\n        /* \"#utility.yul\":3194:3195   */\n      dup2\n        /* \"#utility.yul\":3191:3204   */\n      lt\n        /* \"#utility.yul\":3172:3543   */\n      iszero\n      tag_194\n      jumpi\n        /* \"#utility.yul\":3273:3279   */\n      dup2\n        /* \"#utility.yul\":3267:3280   */\n      mload\n        /* \"#utility.yul\":3300:3421   */\n      tag_195\n        /* \"#utility.yul\":3417:3420   */\n      dup9\n        /* \"#utility.yul\":3402:3415   */\n      dup3\n        /* \"#utility.yul\":3300:3421   */\n      tag_159\n      jump\t// in\n    tag_195:\n        /* \"#utility.yul\":3293:3421   */\n      swap8\n      pop\n        /* \"#utility.yul\":3444:3533   */\n      tag_196\n        /* \"#utility.yul\":3526:3532   */\n      dup4\n        /* \"#utility.yul\":3444:3533   */\n      tag_197\n      jump\t// in\n    tag_196:\n        /* \"#utility.yul\":3434:3533   */\n      swap3\n      pop\n        /* \"#utility.yul\":3232:3543   */\n      pop\n        /* \"#utility.yul\":3219:3220   */\n      0x01\n        /* \"#utility.yul\":3216:3217   */\n      dup2\n        /* \"#utility.yul\":3212:3221   */\n      add\n        /* \"#utility.yul\":3207:3221   */\n      swap1\n      pop\n        /* \"#utility.yul\":3172:3543   */\n      jump(tag_192)\n    tag_194:\n        /* \"#utility.yul\":3176:3190   */\n      pop\n        /* \"#utility.yul\":3559:3562   */\n      dup6\n        /* \"#utility.yul\":3552:3562   */\n      swap4\n      pop\n        /* \"#utility.yul\":2786:3568   */\n      pop\n      pop\n      pop\n        /* \"#utility.yul\":2604:3568   */\n      swap3\n      swap2\n      pop\n      pop\n      jump\t// out\n        /* \"#utility.yul\":3604:4336   */\n    tag_198:\n        /* \"#utility.yul\":3723:3726   */\n      0x00\n        /* \"#utility.yul\":3752:3806   */\n      tag_200\n        /* \"#utility.yul\":3800:3805   */\n      dup3\n        /* \"#utility.yul\":3752:3806   */\n      tag_201\n      jump\t// in\n    tag_200:\n        /* \"#utility.yul\":3822:3908   */\n      tag_202\n        /* \"#utility.yul\":3901:3907   */\n      dup2\n        /* \"#utility.yul\":3896:3899   */\n      dup6\n        /* \"#utility.yul\":3822:3908   */\n      tag_203\n      jump\t// in\n    tag_202:\n        /* \"#utility.yul\":3815:3908   */\n      swap4\n      pop\n        /* \"#utility.yul\":3932:3988   */\n      tag_204\n        /* \"#utility.yul\":3982:3987   */\n      dup4\n        /* \"#utility.yul\":3932:3988   */\n      tag_205\n      jump\t// in\n    tag_204:\n        /* \"#utility.yul\":4011:4018   */\n      dup1\n        /* \"#utility.yul\":4042:4043   */\n      0x00\n        /* \"#utility.yul\":4027:4311   */\n    tag_206:\n        /* \"#utility.yul\":4052:4058   */\n      dup4\n        /* \"#utility.yul\":4049:4050   */\n      dup2\n        /* \"#utility.yul\":4046:4059   */\n      lt\n        /* \"#utility.yul\":4027:4311   */\n      iszero\n      tag_208\n      jumpi\n        /* \"#utility.yul\":4128:4134   */\n      dup2\n        /* \"#utility.yul\":4122:4135   */\n      mload\n        /* \"#utility.yul\":4155:4218   */\n      tag_209\n        /* \"#utility.yul\":4214:4217   */\n      dup9\n        /* \"#utility.yul\":4199:4212   */\n      dup3\n        /* \"#utility.yul\":4155:4218   */\n      tag_163\n      jump\t// in\n    tag_209:\n        /* \"#utility.yul\":4148:4218   */\n      swap8\n      pop\n        /* \"#utility.yul\":4241:4301   */\n      tag_210\n        /* \"#utility.yul\":4294:4300   */\n      dup4\n        /* \"#utility.yul\":4241:4301   */\n      tag_211\n      jump\t// in\n    tag_210:\n        /* \"#utility.yul\":4231:4301   */\n      swap3\n      pop\n        /* \"#utility.yul\":4087:4311   */\n      pop\n        /* \"#utility.yul\":4074:4075   */\n      0x01\n        /* \"#utility.yul\":4071:4072   */\n      dup2\n        /* \"#utility.yul\":4067:4076   */\n      add\n        /* \"#utility.yul\":4062:4076   */\n      swap1\n      pop\n        /* \"#utility.yul\":4027:4311   */\n      jump(tag_206)\n    tag_208:\n        /* \"#utility.yul\":4031:4045   */\n      pop\n        /* \"#utility.yul\":4327:4330   */\n      dup6\n        /* \"#utility.yul\":4320:4330   */\n      swap4\n      pop\n        /* \"#utility.yul\":3728:4336   */\n      pop\n      pop\n      pop\n        /* \"#utility.yul\":3604:4336   */\n      swap3\n      swap2\n      pop\n      pop\n      jump\t// out\n        /* \"#utility.yul\":4342:4447   */\n    tag_212:\n        /* \"#utility.yul\":4417:4440   */\n      tag_214\n        /* \"#utility.yul\":4434:4439   */\n      dup2\n        /* \"#utility.yul\":4417:4440   */\n      tag_215\n      jump\t// in\n    tag_214:\n        /* \"#utility.yul\":4412:4415   */\n      dup3\n        /* \"#utility.yul\":4405:4441   */\n      mstore\n        /* \"#utility.yul\":4342:4447   */\n      pop\n      pop\n      jump\t// out\n        /* \"#utility.yul\":4453:4817   */\n    tag_216:\n        /* \"#utility.yul\":4541:4544   */\n      0x00\n        /* \"#utility.yul\":4569:4608   */\n      tag_218\n        /* \"#utility.yul\":4602:4607   */\n      dup3\n        /* \"#utility.yul\":4569:4608   */\n      tag_219\n      jump\t// in\n    tag_218:\n        /* \"#utility.yul\":4624:4695   */\n      tag_220\n        /* \"#utility.yul\":4688:4694   */\n      dup2\n        /* \"#utility.yul\":4683:4686   */\n      dup6\n        /* \"#utility.yul\":4624:4695   */\n      tag_221\n      jump\t// in\n    tag_220:\n        /* \"#utility.yul\":4617:4695   */\n      swap4\n      pop\n        /* \"#utility.yul\":4704:4756   */\n      tag_222\n        /* \"#utility.yul\":4749:4755   */\n      dup2\n        /* \"#utility.yul\":4744:4747   */\n      dup6\n        /* \"#utility.yul\":4737:4741   */\n      0x20\n        /* \"#utility.yul\":4730:4735   */\n      dup7\n        /* \"#utility.yul\":4726:4742   */\n      add\n        /* \"#utility.yul\":4704:4756   */\n      tag_223\n      jump\t// in\n    tag_222:\n        /* \"#utility.yul\":4781:4810   */\n      tag_224\n        /* \"#utility.yul\":4803:4809   */\n      dup2\n        /* \"#utility.yul\":4781:4810   */\n      tag_225\n      jump\t// in\n    tag_224:\n        /* \"#utility.yul\":4776:4779   */\n      dup5\n        /* \"#utility.yul\":4772:4811   */\n      add\n        /* \"#utility.yul\":4765:4811   */\n      swap2\n      pop\n        /* \"#utility.yul\":4545:4817   */\n      pop\n        /* \"#utility.yul\":4453:4817   */\n      swap3\n      swap2\n      pop\n      pop\n      jump\t// out\n        /* \"#utility.yul\":4823:5189   */\n    tag_226:\n        /* \"#utility.yul\":4965:4968   */\n      0x00\n        /* \"#utility.yul\":4986:5053   */\n      tag_228\n        /* \"#utility.yul\":5050:5052   */\n      0x16\n        /* \"#utility.yul\":5045:5048   */\n      dup4\n        /* \"#utility.yul\":4986:5053   */\n      tag_221\n      jump\t// in\n    tag_228:\n        /* \"#utility.yul\":4979:5053   */\n      swap2\n      pop\n        /* \"#utility.yul\":5062:5155   */\n      tag_229\n        /* \"#utility.yul\":5151:5154   */\n      dup3\n        /* \"#utility.yul\":5062:5155   */\n      tag_230\n      jump\t// in\n    tag_229:\n        /* \"#utility.yul\":5180:5182   */\n      0x20\n        /* \"#utility.yul\":5175:5178   */\n      dup3\n        /* \"#utility.yul\":5171:5183   */\n      add\n        /* \"#utility.yul\":5164:5183   */\n      swap1\n      pop\n        /* \"#utility.yul\":4823:5189   */\n      swap2\n      swap1\n      pop\n      jump\t// out\n        /* \"#utility.yul\":5195:5561   */\n    tag_231:\n        /* \"#utility.yul\":5337:5340   */\n      0x00\n        /* \"#utility.yul\":5358:5425   */\n      tag_233\n        /* \"#utility.yul\":5422:5424   */\n      0x24\n        /* \"#utility.yul\":5417:5420   */\n      dup4\n        /* \"#utility.yul\":5358:5425   */\n      tag_221\n      jump\t// in\n    tag_233:\n        /* \"#utility.yul\":5351:5425   */\n      swap2\n      pop\n        /* \"#utility.yul\":5434:5527   */\n      tag_234\n        /* \"#utility.yul\":5523:5526   */\n      dup3\n        /* \"#utility.yul\":5434:5527   */\n      tag_235\n      jump\t// in\n    tag_234:\n        /* \"#utility.yul\":5552:5554   */\n      0x40\n        /* \"#utility.yul\":5547:5550   */\n      dup3\n        /* \"#utility.yul\":5543:5555   */\n      add\n        /* \"#utility.yul\":5536:5555   */\n      swap1\n      pop\n        /* \"#utility.yul\":5195:5561   */\n      swap2\n      swap1\n      pop\n      jump\t// out\n        /* \"#utility.yul\":5567:5933   */\n    tag_236:\n        /* \"#utility.yul\":5709:5712   */\n      0x00\n        /* \"#utility.yul\":5730:5797   */\n      tag_238\n        /* \"#utility.yul\":5794:5796   */\n      0x16\n        /* \"#utility.yul\":5789:5792   */\n      dup4\n        /* \"#utility.yul\":5730:5797   */\n      tag_221\n      jump\t// in\n    tag_238:\n        /* \"#utility.yul\":5723:5797   */\n      swap2\n      pop\n        /* \"#utility.yul\":5806:5899   */\n      tag_239\n        /* \"#utility.yul\":5895:5898   */\n      dup3\n        /* \"#utility.yul\":5806:5899   */\n      tag_240\n      jump\t// in\n    tag_239:\n        /* \"#utility.yul\":5924:5926   */\n      0x20\n        /* \"#utility.yul\":5919:5922   */\n      dup3\n        /* \"#utility.yul\":5915:5927   */\n      add\n        /* \"#utility.yul\":5908:5927   */\n      swap1\n      pop\n        /* \"#utility.yul\":5567:5933   */\n      swap2\n      swap1\n      pop\n      jump\t// out\n        /* \"#utility.yul\":6019:6730   */\n    tag_162:\n        /* \"#utility.yul\":6164:6168   */\n      0x60\n        /* \"#utility.yul\":6159:6162   */\n      dup3\n        /* \"#utility.yul\":6155:6169   */\n      add\n        /* \"#utility.yul\":6256:6260   */\n      0x00\n        /* \"#utility.yul\":6249:6254   */\n      dup3\n        /* \"#utility.yul\":6245:6261   */\n      add\n        /* \"#utility.yul\":6239:6262   */\n      mload\n        /* \"#utility.yul\":6275:6336   */\n      tag_242\n        /* \"#utility.yul\":6330:6334   */\n      0x00\n        /* \"#utility.yul\":6325:6328   */\n      dup6\n        /* \"#utility.yul\":6321:6335   */\n      add\n        /* \"#utility.yul\":6307:6319   */\n      dup3\n        /* \"#utility.yul\":6275:6336   */\n      tag_212\n      jump\t// in\n    tag_242:\n        /* \"#utility.yul\":6179:6346   */\n      pop\n        /* \"#utility.yul\":6438:6442   */\n      0x20\n        /* \"#utility.yul\":6431:6436   */\n      dup3\n        /* \"#utility.yul\":6427:6443   */\n      add\n        /* \"#utility.yul\":6421:6444   */\n      mload\n        /* \"#utility.yul\":6457:6520   */\n      tag_243\n        /* \"#utility.yul\":6514:6518   */\n      0x20\n        /* \"#utility.yul\":6509:6512   */\n      dup6\n        /* \"#utility.yul\":6505:6519   */\n      add\n        /* \"#utility.yul\":6491:6503   */\n      dup3\n        /* \"#utility.yul\":6457:6520   */\n      tag_158\n      jump\t// in\n    tag_243:\n        /* \"#utility.yul\":6356:6530   */\n      pop\n        /* \"#utility.yul\":6631:6635   */\n      0x40\n        /* \"#utility.yul\":6624:6629   */\n      dup3\n        /* \"#utility.yul\":6620:6636   */\n      add\n        /* \"#utility.yul\":6614:6637   */\n      mload\n        /* \"#utility.yul\":6650:6713   */\n      tag_244\n        /* \"#utility.yul\":6707:6711   */\n      0x40\n        /* \"#utility.yul\":6702:6705   */\n      dup6\n        /* \"#utility.yul\":6698:6712   */\n      add\n        /* \"#utility.yul\":6684:6696   */\n      dup3\n        /* \"#utility.yul\":6650:6713   */\n      tag_166\n      jump\t// in\n    tag_244:\n        /* \"#utility.yul\":6540:6723   */\n      pop\n        /* \"#utility.yul\":6133:6730   */\n      pop\n        /* \"#utility.yul\":6019:6730   */\n      pop\n      pop\n      jump\t// out\n        /* \"#utility.yul\":6736:6844   */\n    tag_166:\n        /* \"#utility.yul\":6813:6837   */\n      tag_246\n        /* \"#utility.yul\":6831:6836   */\n      dup2\n        /* \"#utility.yul\":6813:6837   */\n      tag_247\n      jump\t// in\n    tag_246:\n        /* \"#utility.yul\":6808:6811   */\n      dup3\n        /* \"#utility.yul\":6801:6838   */\n      mstore\n        /* \"#utility.yul\":6736:6844   */\n      pop\n      pop\n      jump\t// out\n        /* \"#utility.yul\":6850:6968   */\n    tag_248:\n        /* \"#utility.yul\":6937:6961   */\n      tag_250\n        /* \"#utility.yul\":6955:6960   */\n      dup2\n        /* \"#utility.yul\":6937:6961   */\n      tag_247\n      jump\t// in\n    tag_250:\n        /* \"#utility.yul\":6932:6935   */\n      dup3\n        /* \"#utility.yul\":6925:6962   */\n      mstore\n        /* \"#utility.yul\":6850:6968   */\n      pop\n      pop\n      jump\t// out\n        /* \"#utility.yul\":6974:7608   */\n    tag_23:\n        /* \"#utility.yul\":7195:7199   */\n      0x00\n        /* \"#utility.yul\":7233:7235   */\n      0x40\n        /* \"#utility.yul\":7222:7231   */\n      dup3\n        /* \"#utility.yul\":7218:7236   */\n      add\n        /* \"#utility.yul\":7210:7236   */\n      swap1\n      pop\n        /* \"#utility.yul\":7282:7291   */\n      dup2\n        /* \"#utility.yul\":7276:7280   */\n      dup2\n        /* \"#utility.yul\":7272:7292   */\n      sub\n        /* \"#utility.yul\":7268:7269   */\n      0x00\n        /* \"#utility.yul\":7257:7266   */\n      dup4\n        /* \"#utility.yul\":7253:7270   */\n      add\n        /* \"#utility.yul\":7246:7293   */\n      mstore\n        /* \"#utility.yul\":7310:7418   */\n      tag_252\n        /* \"#utility.yul\":7413:7417   */\n      dup2\n        /* \"#utility.yul\":7404:7410   */\n      dup6\n        /* \"#utility.yul\":7310:7418   */\n      tag_170\n      jump\t// in\n    tag_252:\n        /* \"#utility.yul\":7302:7418   */\n      swap1\n      pop\n        /* \"#utility.yul\":7465:7474   */\n      dup2\n        /* \"#utility.yul\":7459:7463   */\n      dup2\n        /* \"#utility.yul\":7455:7475   */\n      sub\n        /* \"#utility.yul\":7450:7452   */\n      0x20\n        /* \"#utility.yul\":7439:7448   */\n      dup4\n        /* \"#utility.yul\":7435:7453   */\n      add\n        /* \"#utility.yul\":7428:7476   */\n      mstore\n        /* \"#utility.yul\":7493:7601   */\n      tag_253\n        /* \"#utility.yul\":7596:7600   */\n      dup2\n        /* \"#utility.yul\":7587:7593   */\n      dup5\n        /* \"#utility.yul\":7493:7601   */\n      tag_198\n      jump\t// in\n    tag_253:\n        /* \"#utility.yul\":7485:7601   */\n      swap1\n      pop\n        /* \"#utility.yul\":6974:7608   */\n      swap4\n      swap3\n      pop\n      pop\n      pop\n      jump\t// out\n        /* \"#utility.yul\":7614:8103   */\n    tag_52:\n        /* \"#utility.yul\":7815:7819   */\n      0x00\n        /* \"#utility.yul\":7853:7855   */\n      0x20\n        /* \"#utility.yul\":7842:7851   */\n      dup3\n        /* \"#utility.yul\":7838:7856   */\n      add\n        /* \"#utility.yul\":7830:7856   */\n      swap1\n      pop\n        /* \"#utility.yul\":7902:7911   */\n      dup2\n        /* \"#utility.yul\":7896:7900   */\n      dup2\n        /* \"#utility.yul\":7892:7912   */\n      sub\n        /* \"#utility.yul\":7888:7889   */\n      0x00\n        /* \"#utility.yul\":7877:7886   */\n      dup4\n        /* \"#utility.yul\":7873:7890   */\n      add\n        /* \"#utility.yul\":7866:7913   */\n      mstore\n        /* \"#utility.yul\":7930:8096   */\n      tag_255\n        /* \"#utility.yul\":8091:8095   */\n      dup2\n        /* \"#utility.yul\":8082:8088   */\n      dup5\n        /* \"#utility.yul\":7930:8096   */\n      tag_184\n      jump\t// in\n    tag_255:\n        /* \"#utility.yul\":7922:8096   */\n      swap1\n      pop\n        /* \"#utility.yul\":7614:8103   */\n      swap3\n      swap2\n      pop\n      pop\n      jump\t// out\n        /* \"#utility.yul\":8109:8422   */\n    tag_34:\n        /* \"#utility.yul\":8222:8226   */\n      0x00\n        /* \"#utility.yul\":8260:8262   */\n      0x20\n        /* \"#utility.yul\":8249:8258   */\n      dup3\n        /* \"#utility.yul\":8245:8263   */\n      add\n        /* \"#utility.yul\":8237:8263   */\n      swap1\n      pop\n        /* \"#utility.yul\":8309:8318   */\n      dup2\n        /* \"#utility.yul\":8303:8307   */\n      dup2\n        /* \"#utility.yul\":8299:8319   */\n      sub\n        /* \"#utility.yul\":8295:8296   */\n      0x00\n        /* \"#utility.yul\":8284:8293   */\n      dup4\n        /* \"#utility.yul\":8280:8297   */\n      add\n        /* \"#utility.yul\":8273:8320   */\n      mstore\n        /* \"#utility.yul\":8337:8415   */\n      tag_257\n        /* \"#utility.yul\":8410:8414   */\n      dup2\n        /* \"#utility.yul\":8401:8407   */\n      dup5\n        /* \"#utility.yul\":8337:8415   */\n      tag_216\n      jump\t// in\n    tag_257:\n        /* \"#utility.yul\":8329:8415   */\n      swap1\n      pop\n        /* \"#utility.yul\":8109:8422   */\n      swap3\n      swap2\n      pop\n      pop\n      jump\t// out\n        /* \"#utility.yul\":8428:8847   */\n    tag_98:\n        /* \"#utility.yul\":8594:8598   */\n      0x00\n        /* \"#utility.yul\":8632:8634   */\n      0x20\n        /* \"#utility.yul\":8621:8630   */\n      dup3\n        /* \"#utility.yul\":8617:8635   */\n      add\n        /* \"#utility.yul\":8609:8635   */\n      swap1\n      pop\n        /* \"#utility.yul\":8681:8690   */\n      dup2\n        /* \"#utility.yul\":8675:8679   */\n      dup2\n        /* \"#utility.yul\":8671:8691   */\n      sub\n        /* \"#utility.yul\":8667:8668   */\n      0x00\n        /* \"#utility.yul\":8656:8665   */\n      dup4\n        /* \"#utility.yul\":8652:8669   */\n      add\n        /* \"#utility.yul\":8645:8692   */\n      mstore\n        /* \"#utility.yul\":8709:8840   */\n      tag_259\n        /* \"#utility.yul\":8835:8839   */\n      dup2\n        /* \"#utility.yul\":8709:8840   */\n      tag_226\n      jump\t// in\n    tag_259:\n        /* \"#utility.yul\":8701:8840   */\n      swap1\n      pop\n        /* \"#utility.yul\":8428:8847   */\n      swap2\n      swap1\n      pop\n      jump\t// out\n        /* \"#utility.yul\":8853:9272   */\n    tag_110:\n        /* \"#utility.yul\":9019:9023   */\n      0x00\n        /* \"#utility.yul\":9057:9059   */\n      0x20\n        /* \"#utility.yul\":9046:9055   */\n      dup3\n        /* \"#utility.yul\":9042:9060   */\n      add\n        /* \"#utility.yul\":9034:9060   */\n      swap1\n      pop\n        /* \"#utility.yul\":9106:9115   */\n      dup2\n        /* \"#utility.yul\":9100:9104   */\n      dup2\n        /* \"#utility.yul\":9096:9116   */\n      sub\n        /* \"#utility.yul\":9092:9093   */\n      0x00\n        /* \"#utility.yul\":9081:9090   */\n      dup4\n        /* \"#utility.yul\":9077:9094   */\n      add\n        /* \"#utility.yul\":9070:9117   */\n      mstore\n        /* \"#utility.yul\":9134:9265   */\n      tag_261\n        /* \"#utility.yul\":9260:9264   */\n      dup2\n        /* \"#utility.yul\":9134:9265   */\n      tag_231\n      jump\t// in\n    tag_261:\n        /* \"#utility.yul\":9126:9265   */\n      swap1\n      pop\n        /* \"#utility.yul\":8853:9272   */\n      swap2\n      swap1\n      pop\n      jump\t// out\n        /* \"#utility.yul\":9278:9697   */\n    tag_66:\n        /* \"#utility.yul\":9444:9448   */\n      0x00\n        /* \"#utility.yul\":9482:9484   */\n      0x20\n        /* \"#utility.yul\":9471:9480   */\n      dup3\n        /* \"#utility.yul\":9467:9485   */\n      add\n        /* \"#utility.yul\":9459:9485   */\n      swap1\n      pop\n        /* \"#utility.yul\":9531:9540   */\n      dup2\n        /* \"#utility.yul\":9525:9529   */\n      dup2\n        /* \"#utility.yul\":9521:9541   */\n      sub\n        /* \"#utility.yul\":9517:9518   */\n      0x00\n        /* \"#utility.yul\":9506:9515   */\n      dup4\n        /* \"#utility.yul\":9502:9519   */\n      add\n        /* \"#utility.yul\":9495:9542   */\n      mstore\n        /* \"#utility.yul\":9559:9690   */\n      tag_263\n        /* \"#utility.yul\":9685:9689   */\n      dup2\n        /* \"#utility.yul\":9559:9690   */\n      tag_236\n      jump\t// in\n    tag_263:\n        /* \"#utility.yul\":9551:9690   */\n      swap1\n      pop\n        /* \"#utility.yul\":9278:9697   */\n      swap2\n      swap1\n      pop\n      jump\t// out\n        /* \"#utility.yul\":9703:9925   */\n    tag_28:\n        /* \"#utility.yul\":9796:9800   */\n      0x00\n        /* \"#utility.yul\":9834:9836   */\n      0x20\n        /* \"#utility.yul\":9823:9832   */\n      dup3\n        /* \"#utility.yul\":9819:9837   */\n      add\n        /* \"#utility.yul\":9811:9837   */\n      swap1\n      pop\n        /* \"#utility.yul\":9847:9918   */\n      tag_265\n        /* \"#utility.yul\":9915:9916   */\n      0x00\n        /* \"#utility.yul\":9904:9913   */\n      dup4\n        /* \"#utility.yul\":9900:9917   */\n      add\n        /* \"#utility.yul\":9891:9897   */\n      dup5\n        /* \"#utility.yul\":9847:9918   */\n      tag_248\n      jump\t// in\n    tag_265:\n        /* \"#utility.yul\":9703:9925   */\n      swap3\n      swap2\n      pop\n      pop\n      jump\t// out\n        /* \"#utility.yul\":10012:10144   */\n    tag_177:\n        /* \"#utility.yul\":10079:10083   */\n      0x00\n        /* \"#utility.yul\":10102:10105   */\n      dup2\n        /* \"#utility.yul\":10094:10105   */\n      swap1\n      pop\n        /* \"#utility.yul\":10132:10136   */\n      0x20\n        /* \"#utility.yul\":10127:10130   */\n      dup3\n        /* \"#utility.yul\":10123:10137   */\n      add\n        /* \"#utility.yul\":10115:10137   */\n      swap1\n      pop\n        /* \"#utility.yul\":10012:10144   */\n      swap2\n      swap1\n      pop\n      jump\t// out\n        /* \"#utility.yul\":10150:10311   */\n    tag_191:\n        /* \"#utility.yul\":10246:10250   */\n      0x00\n        /* \"#utility.yul\":10269:10272   */\n      dup2\n        /* \"#utility.yul\":10261:10272   */\n      swap1\n      pop\n        /* \"#utility.yul\":10299:10303   */\n      0x20\n        /* \"#utility.yul\":10294:10297   */\n      dup3\n        /* \"#utility.yul\":10290:10304   */\n      add\n        /* \"#utility.yul\":10282:10304   */\n      swap1\n      pop\n        /* \"#utility.yul\":10150:10311   */\n      swap2\n      swap1\n      pop\n      jump\t// out\n        /* \"#utility.yul\":10317:10449   */\n    tag_205:\n        /* \"#utility.yul\":10384:10388   */\n      0x00\n        /* \"#utility.yul\":10407:10410   */\n      dup2\n        /* \"#utility.yul\":10399:10410   */\n      swap1\n      pop\n        /* \"#utility.yul\":10437:10441   */\n      0x20\n        /* \"#utility.yul\":10432:10435   */\n      dup3\n        /* \"#utility.yul\":10428:10442   */\n      add\n        /* \"#utility.yul\":10420:10442   */\n      swap1\n      pop\n        /* \"#utility.yul\":10317:10449   */\n      swap2\n      swap1\n      pop\n      jump\t// out\n        /* \"#utility.yul\":10455:10569   */\n    tag_173:\n        /* \"#utility.yul\":10522:10528   */\n      0x00\n        /* \"#utility.yul\":10556:10561   */\n      dup2\n        /* \"#utility.yul\":10550:10562   */\n      mload\n        /* \"#utility.yul\":10540:10562   */\n      swap1\n      pop\n        /* \"#utility.yul\":10455:10569   */\n      swap2\n      swap1\n      pop\n      jump\t// out\n        /* \"#utility.yul\":10575:10718   */\n    tag_187:\n        /* \"#utility.yul\":10671:10677   */\n      0x00\n        /* \"#utility.yul\":10705:10710   */\n      dup2\n        /* \"#utility.yul\":10699:10711   */\n      mload\n        /* \"#utility.yul\":10689:10711   */\n      swap1\n      pop\n        /* \"#utility.yul\":10575:10718   */\n      swap2\n      swap1\n      pop\n      jump\t// out\n        /* \"#utility.yul\":10724:10838   */\n    tag_201:\n        /* \"#utility.yul\":10791:10797   */\n      0x00\n        /* \"#utility.yul\":10825:10830   */\n      dup2\n        /* \"#utility.yul\":10819:10831   */\n      mload\n        /* \"#utility.yul\":10809:10831   */\n      swap1\n      pop\n        /* \"#utility.yul\":10724:10838   */\n      swap2\n      swap1\n      pop\n      jump\t// out\n        /* \"#utility.yul\":10844:10943   */\n    tag_219:\n        /* \"#utility.yul\":10896:10902   */\n      0x00\n        /* \"#utility.yul\":10930:10935   */\n      dup2\n        /* \"#utility.yul\":10924:10936   */\n      mload\n        /* \"#utility.yul\":10914:10936   */\n      swap1\n      pop\n        /* \"#utility.yul\":10844:10943   */\n      swap2\n      swap1\n      pop\n      jump\t// out\n        /* \"#utility.yul\":10949:11062   */\n    tag_183:\n        /* \"#utility.yul\":11019:11023   */\n      0x00\n        /* \"#utility.yul\":11051:11055   */\n      0x20\n        /* \"#utility.yul\":11046:11049   */\n      dup3\n        /* \"#utility.yul\":11042:11056   */\n      add\n        /* \"#utility.yul\":11034:11056   */\n      swap1\n      pop\n        /* \"#utility.yul\":10949:11062   */\n      swap2\n      swap1\n      pop\n      jump\t// out\n        /* \"#utility.yul\":11068:11210   */\n    tag_197:\n        /* \"#utility.yul\":11167:11171   */\n      0x00\n        /* \"#utility.yul\":11199:11203   */\n      0x20\n        /* \"#utility.yul\":11194:11197   */\n      dup3\n        /* \"#utility.yul\":11190:11204   */\n      add\n        /* \"#utility.yul\":11182:11204   */\n      swap1\n      pop\n        /* \"#utility.yul\":11068:11210   */\n      swap2\n      swap1\n      pop\n      jump\t// out\n        /* \"#utility.yul\":11216:11329   */\n    tag_211:\n        /* \"#utility.yul\":11286:11290   */\n      0x00\n        /* \"#utility.yul\":11318:11322   */\n      0x20\n        /* \"#utility.yul\":11313:11316   */\n      dup3\n        /* \"#utility.yul\":11309:11323   */\n      add\n        /* \"#utility.yul\":11301:11323   */\n      swap1\n      pop\n        /* \"#utility.yul\":11216:11329   */\n      swap2\n      swap1\n      pop\n      jump\t// out\n        /* \"#utility.yul\":11335:11519   */\n    tag_175:\n        /* \"#utility.yul\":11434:11445   */\n      0x00\n        /* \"#utility.yul\":11468:11474   */\n      dup3\n        /* \"#utility.yul\":11463:11466   */\n      dup3\n        /* \"#utility.yul\":11456:11475   */\n      mstore\n        /* \"#utility.yul\":11508:11512   */\n      0x20\n        /* \"#utility.yul\":11503:11506   */\n      dup3\n        /* \"#utility.yul\":11499:11513   */\n      add\n        /* \"#utility.yul\":11484:11513   */\n      swap1\n      pop\n        /* \"#utility.yul\":11335:11519   */\n      swap3\n      swap2\n      pop\n      pop\n      jump\t// out\n        /* \"#utility.yul\":11525:11738   */\n    tag_189:\n        /* \"#utility.yul\":11653:11664   */\n      0x00\n        /* \"#utility.yul\":11687:11693   */\n      dup3\n        /* \"#utility.yul\":11682:11685   */\n      dup3\n        /* \"#utility.yul\":11675:11694   */\n      mstore\n        /* \"#utility.yul\":11727:11731   */\n      0x20\n        /* \"#utility.yul\":11722:11725   */\n      dup3\n        /* \"#utility.yul\":11718:11732   */\n      add\n        /* \"#utility.yul\":11703:11732   */\n      swap1\n      pop\n        /* \"#utility.yul\":11525:11738   */\n      swap3\n      swap2\n      pop\n      pop\n      jump\t// out\n        /* \"#utility.yul\":11744:11928   */\n    tag_203:\n        /* \"#utility.yul\":11843:11854   */\n      0x00\n        /* \"#utility.yul\":11877:11883   */\n      dup3\n        /* \"#utility.yul\":11872:11875   */\n      dup3\n        /* \"#utility.yul\":11865:11884   */\n      mstore\n        /* \"#utility.yul\":11917:11921   */\n      0x20\n        /* \"#utility.yul\":11912:11915   */\n      dup3\n        /* \"#utility.yul\":11908:11922   */\n      add\n        /* \"#utility.yul\":11893:11922   */\n      swap1\n      pop\n        /* \"#utility.yul\":11744:11928   */\n      swap3\n      swap2\n      pop\n      pop\n      jump\t// out\n        /* \"#utility.yul\":11934:12103   */\n    tag_221:\n        /* \"#utility.yul\":12018:12029   */\n      0x00\n        /* \"#utility.yul\":12052:12058   */\n      dup3\n        /* \"#utility.yul\":12047:12050   */\n      dup3\n        /* \"#utility.yul\":12040:12059   */\n      mstore\n        /* \"#utility.yul\":12092:12096   */\n      0x20\n        /* \"#utility.yul\":12087:12090   */\n      dup3\n        /* \"#utility.yul\":12083:12097   */\n      add\n        /* \"#utility.yul\":12068:12097   */\n      swap1\n      pop\n        /* \"#utility.yul\":11934:12103   */\n      swap3\n      swap2\n      pop\n      pop\n      jump\t// out\n        /* \"#utility.yul\":12109:12414   */\n    tag_107:\n        /* \"#utility.yul\":12149:12152   */\n      0x00\n        /* \"#utility.yul\":12168:12188   */\n      tag_283\n        /* \"#utility.yul\":12186:12187   */\n      dup3\n        /* \"#utility.yul\":12168:12188   */\n      tag_247\n      jump\t// in\n    tag_283:\n        /* \"#utility.yul\":12163:12188   */\n      swap2\n      pop\n        /* \"#utility.yul\":12202:12222   */\n      tag_284\n        /* \"#utility.yul\":12220:12221   */\n      dup4\n        /* \"#utility.yul\":12202:12222   */\n      tag_247\n      jump\t// in\n    tag_284:\n        /* \"#utility.yul\":12197:12222   */\n      swap3\n      pop\n        /* \"#utility.yul\":12356:12357   */\n      dup3\n        /* \"#utility.yul\":12288:12354   */\n      0xffffffffffffffffffffffffffffffffffffffffffffffffffffffffffffffff\n        /* \"#utility.yul\":12284:12358   */\n      sub\n        /* \"#utility.yul\":12281:12282   */\n      dup3\n        /* \"#utility.yul\":12278:12359   */\n      gt\n        /* \"#utility.yul\":12275:12382   */\n      iszero\n      tag_285\n      jumpi\n        /* \"#utility.yul\":12362:12380   */\n      tag_286\n      tag_287\n      jump\t// in\n    tag_286:\n        /* \"#utility.yul\":12275:12382   */\n    tag_285:\n        /* \"#utility.yul\":12406:12407   */\n      dup3\n        /* \"#utility.yul\":12403:12404   */\n      dup3\n        /* \"#utility.yul\":12399:12408   */\n      add\n        /* \"#utility.yul\":12392:12408   */\n      swap1\n      pop\n        /* \"#utility.yul\":12109:12414   */\n      swap3\n      swap2\n      pop\n      pop\n      jump\t// out\n        /* \"#utility.yul\":12420:12768   */\n    tag_69:\n        /* \"#utility.yul\":12460:12467   */\n      0x00\n        /* \"#utility.yul\":12483:12503   */\n      tag_289\n        /* \"#utility.yul\":12501:12502   */\n      dup3\n        /* \"#utility.yul\":12483:12503   */\n      tag_247\n      jump\t// in\n    tag_289:\n        /* \"#utility.yul\":12478:12503   */\n      swap2\n      pop\n        /* \"#utility.yul\":12517:12537   */\n      tag_290\n        /* \"#utility.yul\":12535:12536   */\n      dup4\n        /* \"#utility.yul\":12517:12537   */\n      tag_247\n      jump\t// in\n    tag_290:\n        /* \"#utility.yul\":12512:12537   */\n      swap3\n      pop\n        /* \"#utility.yul\":12705:12706   */\n      dup2\n        /* \"#utility.yul\":12637:12703   */\n      0xffffffffffffffffffffffffffffffffffffffffffffffffffffffffffffffff\n        /* \"#utility.yul\":12633:12707   */\n      div\n        /* \"#utility.yul\":12630:12631   */\n      dup4\n        /* \"#utility.yul\":12627:12708   */\n      gt\n        /* \"#utility.yul\":12622:12623   */\n      dup3\n        /* \"#utility.yul\":12615:12624   */\n      iszero\n        /* \"#utility.yul\":12608:12625   */\n      iszero\n        /* \"#utility.yul\":12604:12709   */\n      and\n        /* \"#utility.yul\":12601:12732   */\n      iszero\n      tag_291\n      jumpi\n        /* \"#utility.yul\":12712:12730   */\n      tag_292\n      tag_287\n      jump\t// in\n    tag_292:\n        /* \"#utility.yul\":12601:12732   */\n    tag_291:\n        /* \"#utility.yul\":12760:12761   */\n      dup3\n        /* \"#utility.yul\":12757:12758   */\n      dup3\n        /* \"#utility.yul\":12753:12762   */\n      mul\n        /* \"#utility.yul\":12742:12762   */\n      swap1\n      pop\n        /* \"#utility.yul\":12420:12768   */\n      swap3\n      swap2\n      pop\n      pop\n      jump\t// out\n        /* \"#utility.yul\":12774:12870   */\n    tag_169:\n        /* \"#utility.yul\":12811:12818   */\n      0x00\n        /* \"#utility.yul\":12840:12864   */\n      tag_294\n        /* \"#utility.yul\":12858:12863   */\n      dup3\n        /* \"#utility.yul\":12840:12864   */\n      tag_295\n      jump\t// in\n    tag_294:\n        /* \"#utility.yul\":12829:12864   */\n      swap1\n      pop\n        /* \"#utility.yul\":12774:12870   */\n      swap2\n      swap1\n      pop\n      jump\t// out\n        /* \"#utility.yul\":12876:12952   */\n    tag_215:\n        /* \"#utility.yul\":12912:12919   */\n      0x00\n        /* \"#utility.yul\":12941:12946   */\n      dup2\n        /* \"#utility.yul\":12930:12946   */\n      swap1\n      pop\n        /* \"#utility.yul\":12876:12952   */\n      swap2\n      swap1\n      pop\n      jump\t// out\n        /* \"#utility.yul\":12958:13084   */\n    tag_295:\n        /* \"#utility.yul\":12995:13002   */\n      0x00\n        /* \"#utility.yul\":13035:13077   */\n      0xffffffffffffffffffffffffffffffffffffffff\n        /* \"#utility.yul\":13028:13033   */\n      dup3\n        /* \"#utility.yul\":13024:13078   */\n      and\n        /* \"#utility.yul\":13013:13078   */\n      swap1\n      pop\n        /* \"#utility.yul\":12958:13084   */\n      swap2\n      swap1\n      pop\n      jump\t// out\n        /* \"#utility.yul\":13090:13167   */\n    tag_247:\n        /* \"#utility.yul\":13127:13134   */\n      0x00\n        /* \"#utility.yul\":13156:13161   */\n      dup2\n        /* \"#utility.yul\":13145:13161   */\n      swap1\n      pop\n        /* \"#utility.yul\":13090:13167   */\n      swap2\n      swap1\n      pop\n      jump\t// out\n        /* \"#utility.yul\":13173:13480   */\n    tag_223:\n        /* \"#utility.yul\":13241:13242   */\n      0x00\n        /* \"#utility.yul\":13251:13364   */\n    tag_300:\n        /* \"#utility.yul\":13265:13271   */\n      dup4\n        /* \"#utility.yul\":13262:13263   */\n      dup2\n        /* \"#utility.yul\":13259:13272   */\n      lt\n        /* \"#utility.yul\":13251:13364   */\n      iszero\n      tag_302\n      jumpi\n        /* \"#utility.yul\":13350:13351   */\n      dup1\n        /* \"#utility.yul\":13345:13348   */\n      dup3\n        /* \"#utility.yul\":13341:13352   */\n      add\n        /* \"#utility.yul\":13335:13353   */\n      mload\n        /* \"#utility.yul\":13331:13332   */\n      dup2\n        /* \"#utility.yul\":13326:13329   */\n      dup5\n        /* \"#utility.yul\":13322:13333   */\n      add\n        /* \"#utility.yul\":13315:13354   */\n      mstore\n        /* \"#utility.yul\":13287:13289   */\n      0x20\n        /* \"#utility.yul\":13284:13285   */\n      dup2\n        /* \"#utility.yul\":13280:13290   */\n      add\n        /* \"#utility.yul\":13275:13290   */\n      swap1\n      pop\n        /* \"#utility.yul\":13251:13364   */\n      jump(tag_300)\n    tag_302:\n        /* \"#utility.yul\":13382:13388   */\n      dup4\n        /* \"#utility.yul\":13379:13380   */\n      dup2\n        /* \"#utility.yul\":13376:13389   */\n      gt\n        /* \"#utility.yul\":13373:13474   */\n      iszero\n      tag_303\n      jumpi\n        /* \"#utility.yul\":13462:13463   */\n      0x00\n        /* \"#utility.yul\":13453:13459   */\n      dup5\n        /* \"#utility.yul\":13448:13451   */\n      dup5\n        /* \"#utility.yul\":13444:13460   */\n      add\n        /* \"#utility.yul\":13437:13464   */\n      mstore\n        /* \"#utility.yul\":13373:13474   */\n    tag_303:\n        /* \"#utility.yul\":13222:13480   */\n      pop\n        /* \"#utility.yul\":13173:13480   */\n      pop\n      pop\n      pop\n      jump\t// out\n        /* \"#utility.yul\":13486:13717   */\n    tag_116:\n        /* \"#utility.yul\":13524:13527   */\n      0x00\n        /* \"#utility.yul\":13547:13570   */\n      tag_305\n        /* \"#utility.yul\":13564:13569   */\n      dup3\n        /* \"#utility.yul\":13547:13570   */\n      tag_215\n      jump\t// in\n    tag_305:\n        /* \"#utility.yul\":13538:13570   */\n      swap2\n      pop\n        /* \"#utility.yul\":13592:13658   */\n      0x7fffffffffffffffffffffffffffffffffffffffffffffffffffffffffffffff\n        /* \"#utility.yul\":13585:13590   */\n      dup3\n        /* \"#utility.yul\":13582:13659   */\n      eq\n        /* \"#utility.yul\":13579:13682   */\n      iszero\n      tag_306\n      jumpi\n        /* \"#utility.yul\":13662:13680   */\n      tag_307\n      tag_287\n      jump\t// in\n    tag_307:\n        /* \"#utility.yul\":13579:13682   */\n    tag_306:\n        /* \"#utility.yul\":13709:13710   */\n      0x01\n        /* \"#utility.yul\":13702:13707   */\n      dup3\n        /* \"#utility.yul\":13698:13711   */\n      add\n        /* \"#utility.yul\":13691:13711   */\n      swap1\n      pop\n        /* \"#utility.yul\":13486:13717   */\n      swap2\n      swap1\n      pop\n      jump\t// out\n        /* \"#utility.yul\":13723:13956   */\n    tag_63:\n        /* \"#utility.yul\":13762:13765   */\n      0x00\n        /* \"#utility.yul\":13785:13809   */\n      tag_309\n        /* \"#utility.yul\":13803:13808   */\n      dup3\n        /* \"#utility.yul\":13785:13809   */\n      tag_247\n      jump\t// in\n    tag_309:\n        /* \"#utility.yul\":13776:13809   */\n      swap2\n      pop\n        /* \"#utility.yul\":13831:13897   */\n      0xffffffffffffffffffffffffffffffffffffffffffffffffffffffffffffffff\n        /* \"#utility.yul\":13824:13829   */\n      dup3\n        /* \"#utility.yul\":13821:13898   */\n      eq\n        /* \"#utility.yul\":13818:13921   */\n      iszero\n      tag_310\n      jumpi\n        /* \"#utility.yul\":13901:13919   */\n      tag_311\n      tag_287\n      jump\t// in\n    tag_311:\n        /* \"#utility.yul\":13818:13921   */\n    tag_310:\n        /* \"#utility.yul\":13948:13949   */\n      0x01\n        /* \"#utility.yul\":13941:13946   */\n      dup3\n        /* \"#utility.yul\":13937:13950   */\n      add\n        /* \"#utility.yul\":13930:13950   */\n      swap1\n      pop\n        /* \"#utility.yul\":13723:13956   */\n      swap2\n      swap1\n      pop\n      jump\t// out\n        /* \"#utility.yul\":13962:14142   */\n    tag_287:\n        /* \"#utility.yul\":14010:14087   */\n      0x4e487b7100000000000000000000000000000000000000000000000000000000\n        /* \"#utility.yul\":14007:14008   */\n      0x00\n        /* \"#utility.yul\":14000:14088   */\n      mstore\n        /* \"#utility.yul\":14107:14111   */\n      0x11\n        /* \"#utility.yul\":14104:14105   */\n      0x04\n        /* \"#utility.yul\":14097:14112   */\n      mstore\n        /* \"#utility.yul\":14131:14135   */\n      0x24\n        /* \"#utility.yul\":14128:14129   */\n      0x00\n        /* \"#utility.yul\":14121:14136   */\n      revert\n        /* \"#utility.yul\":14148:14328   */\n    tag_59:\n        /* \"#utility.yul\":14196:14273   */\n      0x4e487b7100000000000000000000000000000000000000000000000000000000\n        /* \"#utility.yul\":14193:14194   */\n      0x00\n        /* \"#utility.yul\":14186:14274   */\n      mstore\n        /* \"#utility.yul\":14293:14297   */\n      0x32\n        /* \"#utility.yul\":14290:14291   */\n      0x04\n        /* \"#utility.yul\":14283:14298   */\n      mstore\n        /* \"#utility.yul\":14317:14321   */\n      0x24\n        /* \"#utility.yul\":14314:14315   */\n      0x00\n        /* \"#utility.yul\":14307:14322   */\n      revert\n        /* \"#utility.yul\":14334:14514   */\n    tag_75:\n        /* \"#utility.yul\":14382:14459   */\n      0x4e487b7100000000000000000000000000000000000000000000000000000000\n        /* \"#utility.yul\":14379:14380   */\n      0x00\n        /* \"#utility.yul\":14372:14460   */\n      mstore\n        /* \"#utility.yul\":14479:14483   */\n      0x41\n        /* \"#utility.yul\":14476:14477   */\n      0x04\n        /* \"#utility.yul\":14469:14484   */\n      mstore\n        /* \"#utility.yul\":14503:14507   */\n      0x24\n        /* \"#utility.yul\":14500:14501   */\n      0x00\n        /* \"#utility.yul\":14493:14508   */\n      revert\n        /* \"#utility.yul\":14643:14760   */\n    tag_149:\n        /* \"#utility.yul\":14752:14753   */\n      0x00\n        /* \"#utility.yul\":14749:14750   */\n      dup1\n        /* \"#utility.yul\":14742:14754   */\n      revert\n        /* \"#utility.yul\":14766:14868   */\n    tag_225:\n        /* \"#utility.yul\":14807:14813   */\n      0x00\n        /* \"#utility.yul\":14858:14860   */\n      0x1f\n        /* \"#utility.yul\":14854:14861   */\n      not\n        /* \"#utility.yul\":14849:14851   */\n      0x1f\n        /* \"#utility.yul\":14842:14847   */\n      dup4\n        /* \"#utility.yul\":14838:14852   */\n      add\n        /* \"#utility.yul\":14834:14862   */\n      and\n        /* \"#utility.yul\":14824:14862   */\n      swap1\n      pop\n        /* \"#utility.yul\":14766:14868   */\n      swap2\n      swap1\n      pop\n      jump\t// out\n        /* \"#utility.yul\":14874:15046   */\n    tag_230:\n        /* \"#utility.yul\":15014:15038   */\n      0x4f6e6c79206d616e616765722063616e2063616c6c2100000000000000000000\n        /* \"#utility.yul\":15010:15011   */\n      0x00\n        /* \"#utility.yul\":15002:15008   */\n      dup3\n        /* \"#utility.yul\":14998:15012   */\n      add\n        /* \"#utility.yul\":14991:15039   */\n      mstore\n        /* \"#utility.yul\":14874:15046   */\n      pop\n      jump\t// out\n        /* \"#utility.yul\":15052:15275   */\n    tag_235:\n        /* \"#utility.yul\":15192:15226   */\n      0x49742773206a757374206265656e206c657373207468616e203130207365636f\n        /* \"#utility.yul\":15188:15189   */\n      0x00\n        /* \"#utility.yul\":15180:15186   */\n      dup3\n        /* \"#utility.yul\":15176:15190   */\n      add\n        /* \"#utility.yul\":15169:15227   */\n      mstore\n        /* \"#utility.yul\":15261:15267   */\n      0x6e64732100000000000000000000000000000000000000000000000000000000\n        /* \"#utility.yul\":15256:15258   */\n      0x20\n        /* \"#utility.yul\":15248:15254   */\n      dup3\n        /* \"#utility.yul\":15244:15259   */\n      add\n        /* \"#utility.yul\":15237:15268   */\n      mstore\n        /* \"#utility.yul\":15052:15275   */\n      pop\n      jump\t// out\n        /* \"#utility.yul\":15281:15453   */\n    tag_240:\n        /* \"#utility.yul\":15421:15445   */\n      0x4f6e6c7920636c69656e74732063616e2063616c6c2100000000000000000000\n        /* \"#utility.yul\":15417:15418   */\n      0x00\n        /* \"#utility.yul\":15409:15415   */\n      dup3\n        /* \"#utility.yul\":15405:15419   */\n      add\n        /* \"#utility.yul\":15398:15446   */\n      mstore\n        /* \"#utility.yul\":15281:15453   */\n      pop\n      jump\t// out\n        /* \"#utility.yul\":15459:15581   */\n    tag_141:\n        /* \"#utility.yul\":15532:15556   */\n      tag_323\n        /* \"#utility.yul\":15550:15555   */\n      dup2\n        /* \"#utility.yul\":15532:15556   */\n      tag_169\n      jump\t// in\n    tag_323:\n        /* \"#utility.yul\":15525:15530   */\n      dup2\n        /* \"#utility.yul\":15522:15557   */\n      eq\n        /* \"#utility.yul\":15512:15575   */\n      tag_324\n      jumpi\n        /* \"#utility.yul\":15571:15572   */\n      0x00\n        /* \"#utility.yul\":15568:15569   */\n      dup1\n        /* \"#utility.yul\":15561:15573   */\n      revert\n        /* \"#utility.yul\":15512:15575   */\n    tag_324:\n        /* \"#utility.yul\":15459:15581   */\n      pop\n      jump\t// out\n        /* \"#utility.yul\":15587:15709   */\n    tag_145:\n        /* \"#utility.yul\":15660:15684   */\n      tag_326\n        /* \"#utility.yul\":15678:15683   */\n      dup2\n        /* \"#utility.yul\":15660:15684   */\n      tag_247\n      jump\t// in\n    tag_326:\n        /* \"#utility.yul\":15653:15658   */\n      dup2\n        /* \"#utility.yul\":15650:15685   */\n      eq\n        /* \"#utility.yul\":15640:15703   */\n      tag_327\n      jumpi\n        /* \"#utility.yul\":15699:15700   */\n      0x00\n        /* \"#utility.yul\":15696:15697   */\n      dup1\n        /* \"#utility.yul\":15689:15701   */\n      revert\n        /* \"#utility.yul\":15640:15703   */\n    tag_327:\n        /* \"#utility.yul\":15587:15709   */\n      pop\n      jump\t// out\n\n    auxdata: 0xa2646970667358221220b2d322db3cb9060fe5282e435624d4be9a28374c50b15bc6464777cc7befe1d164736f6c63430008070033\n}\n",
				"bytecode": {
					"linkReferences": {},
					"object": "608060405234801561001057600080fd5b5060006001819055506112da806100286000396000f3fe60806040526004361061008a5760003560e01c8063a409217411610059578063a409217414610113578063d0e30db014610131578063d0ebdbe71461013b578063d9dca6c514610178578063fef75470146101b557610091565b80632e1a7d4d146100965780636db80995146100b25780636f9fb98a146100de5780639e0a5d681461010957610091565b3661009157005b600080fd5b6100b060048036038101906100ab9190610b0b565b6101e0565b005b3480156100be57600080fd5b506100c761032b565b6040516100d5929190610dba565b60405180910390f35b3480156100ea57600080fd5b506100f36104d8565b6040516101009190610e95565b60405180910390f35b6101116104e0565b005b61011b610707565b6040516101289190610e13565b60405180910390f35b610139610848565b005b34801561014757600080fd5b50610162600480360381019061015d9190610ade565b610979565b60405161016f9190610e13565b60405180910390f35b34801561018457600080fd5b5061019f600480360381019061019a9190610ade565b6109d3565b6040516101ac9190610e95565b60405180910390f35b3480156101c157600080fd5b506101ca6109eb565b6040516101d79190610df1565b60405180910390f35b6000805b600080549050811015610286573373ffffffffffffffffffffffffffffffffffffffff166000828154811061021c5761021b611161565b5b906000526020600020906003020160010160009054906101000a900473ffffffffffffffffffffffffffffffffffffffff1673ffffffffffffffffffffffffffffffffffffffff1614156102735760019150610286565b808061027e906110e9565b9150506101e4565b50806102c7576040517f08c379a00000000000000000000000000000000000000000000000000000000081526004016102be90610e75565b60405180910390fd5b60003390508073ffffffffffffffffffffffffffffffffffffffff166108fc670de0b6b3a7640000856102fa9190610fcd565b9081150290604051600060405180830381858888f19350505050158015610325573d6000803e3d6000fd5b50505050565b6060806000808054905067ffffffffffffffff81111561034e5761034d611190565b5b60405190808252806020026020018201604052801561037c5781602001602082028036833780820191505090505b5090506000808054905067ffffffffffffffff81111561039f5761039e611190565b5b6040519080825280602002602001820160405280156103cd5781602001602082028036833780820191505090505b50905060005b6000805490508110156104cb57600081815481106103f4576103f3611161565b5b906000526020600020906003020160010160009054906101000a900473ffffffffffffffffffffffffffffffffffffffff1683828151811061043957610438611161565b5b602002602001019073ffffffffffffffffffffffffffffffffffffffff16908173ffffffffffffffffffffffffffffffffffffffff16815250506000818154811061048757610486611161565b5b9060005260206000209060030201600201548282815181106104ac576104ab611161565b5b60200260200101818152505080806104c3906110e9565b9150506103d3565b5081819350935050509091565b600047905090565b600260009054906101000a900473ffffffffffffffffffffffffffffffffffffffff1673ffffffffffffffffffffffffffffffffffffffff163373ffffffffffffffffffffffffffffffffffffffff1614610570576040517f08c379a000000000000000000000000000000000000000000000000000000000815260040161056790610e35565b60405180910390fd5b60005b60008054905081101561070457600080828154811061059557610594611161565b5b906000526020600020906003020160010160009054906101000a900473ffffffffffffffffffffffffffffffffffffffff1690506000600360008373ffffffffffffffffffffffffffffffffffffffff1673ffffffffffffffffffffffffffffffffffffffff168152602001908152602001600020549050600a8161061a9190610f77565b42101561065c576040517f08c379a000000000000000000000000000000000000000000000000000000000815260040161065390610e55565b60405180910390fd5b8173ffffffffffffffffffffffffffffffffffffffff166108fc670de0b6b3a76400009081150290604051600060405180830381858888f193505050501580156106aa573d6000803e3d6000fd5b5042600360008473ffffffffffffffffffffffffffffffffffffffff1673ffffffffffffffffffffffffffffffffffffffff16815260200190815260200160002081905550505080806106fc906110e9565b915050610573565b50565b606042600360003373ffffffffffffffffffffffffffffffffffffffff1673ffffffffffffffffffffffffffffffffffffffff16815260200190815260200160002081905550600060405180606001604052806001600081548092919061076d906110a0565b9190505581526020013373ffffffffffffffffffffffffffffffffffffffff1681526020013373ffffffffffffffffffffffffffffffffffffffff163181525090806001815401808255809150506001900390600052602060002090600302016000909190919091506000820151816000015560208201518160010160006101000a81548173ffffffffffffffffffffffffffffffffffffffff021916908373ffffffffffffffffffffffffffffffffffffffff16021790555060408201518160020155505060405180602001604052806000815250905090565b6000805b6000805490508110156108ee573373ffffffffffffffffffffffffffffffffffffffff166000828154811061088457610883611161565b5b906000526020600020906003020160010160009054906101000a900473ffffffffffffffffffffffffffffffffffffffff1673ffffffffffffffffffffffffffffffffffffffff1614156108db57600191506108ee565b80806108e6906110e9565b91505061084c565b508061092f576040517f08c379a000000000000000000000000000000000000000000000000000000000815260040161092690610e75565b60405180910390fd5b3073ffffffffffffffffffffffffffffffffffffffff166108fc349081150290604051600060405180830381858888f19350505050158015610975573d6000803e3d6000fd5b5050565b606081600260006101000a81548173ffffffffffffffffffffffffffffffffffffffff021916908373ffffffffffffffffffffffffffffffffffffffff160217905550604051806020016040528060008152509050919050565b60036020528060005260406000206000915090505481565b60606000805480602002602001604051908101604052809291908181526020016000905b82821015610aab5783829060005260206000209060030201604051806060016040529081600082015481526020016001820160009054906101000a900473ffffffffffffffffffffffffffffffffffffffff1673ffffffffffffffffffffffffffffffffffffffff1673ffffffffffffffffffffffffffffffffffffffff16815260200160028201548152505081526020019060010190610a0f565b50505050905090565b600081359050610ac381611276565b92915050565b600081359050610ad88161128d565b92915050565b600060208284031215610af457610af36111bf565b5b6000610b0284828501610ab4565b91505092915050565b600060208284031215610b2157610b206111bf565b5b6000610b2f84828501610ac9565b91505092915050565b6000610b448383610b80565b60208301905092915050565b6000610b5c8383610d5a565b60608301905092915050565b6000610b748383610d9c565b60208301905092915050565b610b8981611027565b82525050565b6000610b9a82610ee0565b610ba48185610f33565b9350610baf83610eb0565b8060005b83811015610be0578151610bc78882610b38565b9750610bd283610f0c565b925050600181019050610bb3565b5085935050505092915050565b6000610bf882610eeb565b610c028185610f44565b9350610c0d83610ec0565b8060005b83811015610c3e578151610c258882610b50565b9750610c3083610f19565b925050600181019050610c11565b5085935050505092915050565b6000610c5682610ef6565b610c608185610f55565b9350610c6b83610ed0565b8060005b83811015610c9c578151610c838882610b68565b9750610c8e83610f26565b925050600181019050610c6f565b5085935050505092915050565b610cb281611039565b82525050565b6000610cc382610f01565b610ccd8185610f66565b9350610cdd81856020860161106d565b610ce6816111c4565b840191505092915050565b6000610cfe601683610f66565b9150610d09826111d5565b602082019050919050565b6000610d21602483610f66565b9150610d2c826111fe565b604082019050919050565b6000610d44601683610f66565b9150610d4f8261124d565b602082019050919050565b606082016000820151610d706000850182610ca9565b506020820151610d836020850182610b80565b506040820151610d966040850182610d9c565b50505050565b610da581611063565b82525050565b610db481611063565b82525050565b60006040820190508181036000830152610dd48185610b8f565b90508181036020830152610de88184610c4b565b90509392505050565b60006020820190508181036000830152610e0b8184610bed565b905092915050565b60006020820190508181036000830152610e2d8184610cb8565b905092915050565b60006020820190508181036000830152610e4e81610cf1565b9050919050565b60006020820190508181036000830152610e6e81610d14565b9050919050565b60006020820190508181036000830152610e8e81610d37565b9050919050565b6000602082019050610eaa6000830184610dab565b92915050565b6000819050602082019050919050565b6000819050602082019050919050565b6000819050602082019050919050565b600081519050919050565b600081519050919050565b600081519050919050565b600081519050919050565b6000602082019050919050565b6000602082019050919050565b6000602082019050919050565b600082825260208201905092915050565b600082825260208201905092915050565b600082825260208201905092915050565b600082825260208201905092915050565b6000610f8282611063565b9150610f8d83611063565b9250827fffffffffffffffffffffffffffffffffffffffffffffffffffffffffffffffff03821115610fc257610fc1611132565b5b828201905092915050565b6000610fd882611063565b9150610fe383611063565b9250817fffffffffffffffffffffffffffffffffffffffffffffffffffffffffffffffff048311821515161561101c5761101b611132565b5b828202905092915050565b600061103282611043565b9050919050565b6000819050919050565b600073ffffffffffffffffffffffffffffffffffffffff82169050919050565b6000819050919050565b60005b8381101561108b578082015181840152602081019050611070565b8381111561109a576000848401525b50505050565b60006110ab82611039565b91507f7fffffffffffffffffffffffffffffffffffffffffffffffffffffffffffffff8214156110de576110dd611132565b5b600182019050919050565b60006110f482611063565b91507fffffffffffffffffffffffffffffffffffffffffffffffffffffffffffffffff82141561112757611126611132565b5b600182019050919050565b7f4e487b7100000000000000000000000000000000000000000000000000000000600052601160045260246000fd5b7f4e487b7100000000000000000000000000000000000000000000000000000000600052603260045260246000fd5b7f4e487b7100000000000000000000000000000000000000000000000000000000600052604160045260246000fd5b600080fd5b6000601f19601f8301169050919050565b7f4f6e6c79206d616e616765722063616e2063616c6c2100000000000000000000600082015250565b7f49742773206a757374206265656e206c657373207468616e203130207365636f60008201527f6e64732100000000000000000000000000000000000000000000000000000000602082015250565b7f4f6e6c7920636c69656e74732063616e2063616c6c2100000000000000000000600082015250565b61127f81611027565b811461128a57600080fd5b50565b61129681611063565b81146112a157600080fd5b5056fea2646970667358221220b2d322db3cb9060fe5282e435624d4be9a28374c50b15bc6464777cc7befe1d164736f6c63430008070033",
					"opcodes": "PUSH1 0x80 PUSH1 0x40 MSTORE CALLVALUE DUP1 ISZERO PUSH2 0x10 JUMPI PUSH1 0x0 DUP1 REVERT JUMPDEST POP PUSH1 0x0 PUSH1 0x1 DUP2 SWAP1 SSTORE POP PUSH2 0x12DA DUP1 PUSH2 0x28 PUSH1 0x0 CODECOPY PUSH1 0x0 RETURN INVALID PUSH1 0x80 PUSH1 0x40 MSTORE PUSH1 0x4 CALLDATASIZE LT PUSH2 0x8A JUMPI PUSH1 0x0 CALLDATALOAD PUSH1 0xE0 SHR DUP1 PUSH4 0xA4092174 GT PUSH2 0x59 JUMPI DUP1 PUSH4 0xA4092174 EQ PUSH2 0x113 JUMPI DUP1 PUSH4 0xD0E30DB0 EQ PUSH2 0x131 JUMPI DUP1 PUSH4 0xD0EBDBE7 EQ PUSH2 0x13B JUMPI DUP1 PUSH4 0xD9DCA6C5 EQ PUSH2 0x178 JUMPI DUP1 PUSH4 0xFEF75470 EQ PUSH2 0x1B5 JUMPI PUSH2 0x91 JUMP JUMPDEST DUP1 PUSH4 0x2E1A7D4D EQ PUSH2 0x96 JUMPI DUP1 PUSH4 0x6DB80995 EQ PUSH2 0xB2 JUMPI DUP1 PUSH4 0x6F9FB98A EQ PUSH2 0xDE JUMPI DUP1 PUSH4 0x9E0A5D68 EQ PUSH2 0x109 JUMPI PUSH2 0x91 JUMP JUMPDEST CALLDATASIZE PUSH2 0x91 JUMPI STOP JUMPDEST PUSH1 0x0 DUP1 REVERT JUMPDEST PUSH2 0xB0 PUSH1 0x4 DUP1 CALLDATASIZE SUB DUP2 ADD SWAP1 PUSH2 0xAB SWAP2 SWAP1 PUSH2 0xB0B JUMP JUMPDEST PUSH2 0x1E0 JUMP JUMPDEST STOP JUMPDEST CALLVALUE DUP1 ISZERO PUSH2 0xBE JUMPI PUSH1 0x0 DUP1 REVERT JUMPDEST POP PUSH2 0xC7 PUSH2 0x32B JUMP JUMPDEST PUSH1 0x40 MLOAD PUSH2 0xD5 SWAP3 SWAP2 SWAP1 PUSH2 0xDBA JUMP JUMPDEST PUSH1 0x40 MLOAD DUP1 SWAP2 SUB SWAP1 RETURN JUMPDEST CALLVALUE DUP1 ISZERO PUSH2 0xEA JUMPI PUSH1 0x0 DUP1 REVERT JUMPDEST POP PUSH2 0xF3 PUSH2 0x4D8 JUMP JUMPDEST PUSH1 0x40 MLOAD PUSH2 0x100 SWAP2 SWAP1 PUSH2 0xE95 JUMP JUMPDEST PUSH1 0x40 MLOAD DUP1 SWAP2 SUB SWAP1 RETURN JUMPDEST PUSH2 0x111 PUSH2 0x4E0 JUMP JUMPDEST STOP JUMPDEST PUSH2 0x11B PUSH2 0x707 JUMP JUMPDEST PUSH1 0x40 MLOAD PUSH2 0x128 SWAP2 SWAP1 PUSH2 0xE13 JUMP JUMPDEST PUSH1 0x40 MLOAD DUP1 SWAP2 SUB SWAP1 RETURN JUMPDEST PUSH2 0x139 PUSH2 0x848 JUMP JUMPDEST STOP JUMPDEST CALLVALUE DUP1 ISZERO PUSH2 0x147 JUMPI PUSH1 0x0 DUP1 REVERT JUMPDEST POP PUSH2 0x162 PUSH1 0x4 DUP1 CALLDATASIZE SUB DUP2 ADD SWAP1 PUSH2 0x15D SWAP2 SWAP1 PUSH2 0xADE JUMP JUMPDEST PUSH2 0x979 JUMP JUMPDEST PUSH1 0x40 MLOAD PUSH2 0x16F SWAP2 SWAP1 PUSH2 0xE13 JUMP JUMPDEST PUSH1 0x40 MLOAD DUP1 SWAP2 SUB SWAP1 RETURN JUMPDEST CALLVALUE DUP1 ISZERO PUSH2 0x184 JUMPI PUSH1 0x0 DUP1 REVERT JUMPDEST POP PUSH2 0x19F PUSH1 0x4 DUP1 CALLDATASIZE SUB DUP2 ADD SWAP1 PUSH2 0x19A SWAP2 SWAP1 PUSH2 0xADE JUMP JUMPDEST PUSH2 0x9D3 JUMP JUMPDEST PUSH1 0x40 MLOAD PUSH2 0x1AC SWAP2 SWAP1 PUSH2 0xE95 JUMP JUMPDEST PUSH1 0x40 MLOAD DUP1 SWAP2 SUB SWAP1 RETURN JUMPDEST CALLVALUE DUP1 ISZERO PUSH2 0x1C1 JUMPI PUSH1 0x0 DUP1 REVERT JUMPDEST POP PUSH2 0x1CA PUSH2 0x9EB JUMP JUMPDEST PUSH1 0x40 MLOAD PUSH2 0x1D7 SWAP2 SWAP1 PUSH2 0xDF1 JUMP JUMPDEST PUSH1 0x40 MLOAD DUP1 SWAP2 SUB SWAP1 RETURN JUMPDEST PUSH1 0x0 DUP1 JUMPDEST PUSH1 0x0 DUP1 SLOAD SWAP1 POP DUP2 LT ISZERO PUSH2 0x286 JUMPI CALLER PUSH20 0xFFFFFFFFFFFFFFFFFFFFFFFFFFFFFFFFFFFFFFFF AND PUSH1 0x0 DUP3 DUP2 SLOAD DUP2 LT PUSH2 0x21C JUMPI PUSH2 0x21B PUSH2 0x1161 JUMP JUMPDEST JUMPDEST SWAP1 PUSH1 0x0 MSTORE PUSH1 0x20 PUSH1 0x0 KECCAK256 SWAP1 PUSH1 0x3 MUL ADD PUSH1 0x1 ADD PUSH1 0x0 SWAP1 SLOAD SWAP1 PUSH2 0x100 EXP SWAP1 DIV PUSH20 0xFFFFFFFFFFFFFFFFFFFFFFFFFFFFFFFFFFFFFFFF AND PUSH20 0xFFFFFFFFFFFFFFFFFFFFFFFFFFFFFFFFFFFFFFFF AND EQ ISZERO PUSH2 0x273 JUMPI PUSH1 0x1 SWAP2 POP PUSH2 0x286 JUMP JUMPDEST DUP1 DUP1 PUSH2 0x27E SWAP1 PUSH2 0x10E9 JUMP JUMPDEST SWAP2 POP POP PUSH2 0x1E4 JUMP JUMPDEST POP DUP1 PUSH2 0x2C7 JUMPI PUSH1 0x40 MLOAD PUSH32 0x8C379A000000000000000000000000000000000000000000000000000000000 DUP2 MSTORE PUSH1 0x4 ADD PUSH2 0x2BE SWAP1 PUSH2 0xE75 JUMP JUMPDEST PUSH1 0x40 MLOAD DUP1 SWAP2 SUB SWAP1 REVERT JUMPDEST PUSH1 0x0 CALLER SWAP1 POP DUP1 PUSH20 0xFFFFFFFFFFFFFFFFFFFFFFFFFFFFFFFFFFFFFFFF AND PUSH2 0x8FC PUSH8 0xDE0B6B3A7640000 DUP6 PUSH2 0x2FA SWAP2 SWAP1 PUSH2 0xFCD JUMP JUMPDEST SWAP1 DUP2 ISZERO MUL SWAP1 PUSH1 0x40 MLOAD PUSH1 0x0 PUSH1 0x40 MLOAD DUP1 DUP4 SUB DUP2 DUP6 DUP9 DUP9 CALL SWAP4 POP POP POP POP ISZERO DUP1 ISZERO PUSH2 0x325 JUMPI RETURNDATASIZE PUSH1 0x0 DUP1 RETURNDATACOPY RETURNDATASIZE PUSH1 0x0 REVERT JUMPDEST POP POP POP POP JUMP JUMPDEST PUSH1 0x60 DUP1 PUSH1 0x0 DUP1 DUP1 SLOAD SWAP1 POP PUSH8 0xFFFFFFFFFFFFFFFF DUP2 GT ISZERO PUSH2 0x34E JUMPI PUSH2 0x34D PUSH2 0x1190 JUMP JUMPDEST JUMPDEST PUSH1 0x40 MLOAD SWAP1 DUP1 DUP3 MSTORE DUP1 PUSH1 0x20 MUL PUSH1 0x20 ADD DUP3 ADD PUSH1 0x40 MSTORE DUP1 ISZERO PUSH2 0x37C JUMPI DUP2 PUSH1 0x20 ADD PUSH1 0x20 DUP3 MUL DUP1 CALLDATASIZE DUP4 CALLDATACOPY DUP1 DUP3 ADD SWAP2 POP POP SWAP1 POP JUMPDEST POP SWAP1 POP PUSH1 0x0 DUP1 DUP1 SLOAD SWAP1 POP PUSH8 0xFFFFFFFFFFFFFFFF DUP2 GT ISZERO PUSH2 0x39F JUMPI PUSH2 0x39E PUSH2 0x1190 JUMP JUMPDEST JUMPDEST PUSH1 0x40 MLOAD SWAP1 DUP1 DUP3 MSTORE DUP1 PUSH1 0x20 MUL PUSH1 0x20 ADD DUP3 ADD PUSH1 0x40 MSTORE DUP1 ISZERO PUSH2 0x3CD JUMPI DUP2 PUSH1 0x20 ADD PUSH1 0x20 DUP3 MUL DUP1 CALLDATASIZE DUP4 CALLDATACOPY DUP1 DUP3 ADD SWAP2 POP POP SWAP1 POP JUMPDEST POP SWAP1 POP PUSH1 0x0 JUMPDEST PUSH1 0x0 DUP1 SLOAD SWAP1 POP DUP2 LT ISZERO PUSH2 0x4CB JUMPI PUSH1 0x0 DUP2 DUP2 SLOAD DUP2 LT PUSH2 0x3F4 JUMPI PUSH2 0x3F3 PUSH2 0x1161 JUMP JUMPDEST JUMPDEST SWAP1 PUSH1 0x0 MSTORE PUSH1 0x20 PUSH1 0x0 KECCAK256 SWAP1 PUSH1 0x3 MUL ADD PUSH1 0x1 ADD PUSH1 0x0 SWAP1 SLOAD SWAP1 PUSH2 0x100 EXP SWAP1 DIV PUSH20 0xFFFFFFFFFFFFFFFFFFFFFFFFFFFFFFFFFFFFFFFF AND DUP4 DUP3 DUP2 MLOAD DUP2 LT PUSH2 0x439 JUMPI PUSH2 0x438 PUSH2 0x1161 JUMP JUMPDEST JUMPDEST PUSH1 0x20 MUL PUSH1 0x20 ADD ADD SWAP1 PUSH20 0xFFFFFFFFFFFFFFFFFFFFFFFFFFFFFFFFFFFFFFFF AND SWAP1 DUP2 PUSH20 0xFFFFFFFFFFFFFFFFFFFFFFFFFFFFFFFFFFFFFFFF AND DUP2 MSTORE POP POP PUSH1 0x0 DUP2 DUP2 SLOAD DUP2 LT PUSH2 0x487 JUMPI PUSH2 0x486 PUSH2 0x1161 JUMP JUMPDEST JUMPDEST SWAP1 PUSH1 0x0 MSTORE PUSH1 0x20 PUSH1 0x0 KECCAK256 SWAP1 PUSH1 0x3 MUL ADD PUSH1 0x2 ADD SLOAD DUP3 DUP3 DUP2 MLOAD DUP2 LT PUSH2 0x4AC JUMPI PUSH2 0x4AB PUSH2 0x1161 JUMP JUMPDEST JUMPDEST PUSH1 0x20 MUL PUSH1 0x20 ADD ADD DUP2 DUP2 MSTORE POP POP DUP1 DUP1 PUSH2 0x4C3 SWAP1 PUSH2 0x10E9 JUMP JUMPDEST SWAP2 POP POP PUSH2 0x3D3 JUMP JUMPDEST POP DUP2 DUP2 SWAP4 POP SWAP4 POP POP POP SWAP1 SWAP2 JUMP JUMPDEST PUSH1 0x0 SELFBALANCE SWAP1 POP SWAP1 JUMP JUMPDEST PUSH1 0x2 PUSH1 0x0 SWAP1 SLOAD SWAP1 PUSH2 0x100 EXP SWAP1 DIV PUSH20 0xFFFFFFFFFFFFFFFFFFFFFFFFFFFFFFFFFFFFFFFF AND PUSH20 0xFFFFFFFFFFFFFFFFFFFFFFFFFFFFFFFFFFFFFFFF AND CALLER PUSH20 0xFFFFFFFFFFFFFFFFFFFFFFFFFFFFFFFFFFFFFFFF AND EQ PUSH2 0x570 JUMPI PUSH1 0x40 MLOAD PUSH32 0x8C379A000000000000000000000000000000000000000000000000000000000 DUP2 MSTORE PUSH1 0x4 ADD PUSH2 0x567 SWAP1 PUSH2 0xE35 JUMP JUMPDEST PUSH1 0x40 MLOAD DUP1 SWAP2 SUB SWAP1 REVERT JUMPDEST PUSH1 0x0 JUMPDEST PUSH1 0x0 DUP1 SLOAD SWAP1 POP DUP2 LT ISZERO PUSH2 0x704 JUMPI PUSH1 0x0 DUP1 DUP3 DUP2 SLOAD DUP2 LT PUSH2 0x595 JUMPI PUSH2 0x594 PUSH2 0x1161 JUMP JUMPDEST JUMPDEST SWAP1 PUSH1 0x0 MSTORE PUSH1 0x20 PUSH1 0x0 KECCAK256 SWAP1 PUSH1 0x3 MUL ADD PUSH1 0x1 ADD PUSH1 0x0 SWAP1 SLOAD SWAP1 PUSH2 0x100 EXP SWAP1 DIV PUSH20 0xFFFFFFFFFFFFFFFFFFFFFFFFFFFFFFFFFFFFFFFF AND SWAP1 POP PUSH1 0x0 PUSH1 0x3 PUSH1 0x0 DUP4 PUSH20 0xFFFFFFFFFFFFFFFFFFFFFFFFFFFFFFFFFFFFFFFF AND PUSH20 0xFFFFFFFFFFFFFFFFFFFFFFFFFFFFFFFFFFFFFFFF AND DUP2 MSTORE PUSH1 0x20 ADD SWAP1 DUP2 MSTORE PUSH1 0x20 ADD PUSH1 0x0 KECCAK256 SLOAD SWAP1 POP PUSH1 0xA DUP2 PUSH2 0x61A SWAP2 SWAP1 PUSH2 0xF77 JUMP JUMPDEST TIMESTAMP LT ISZERO PUSH2 0x65C JUMPI PUSH1 0x40 MLOAD PUSH32 0x8C379A000000000000000000000000000000000000000000000000000000000 DUP2 MSTORE PUSH1 0x4 ADD PUSH2 0x653 SWAP1 PUSH2 0xE55 JUMP JUMPDEST PUSH1 0x40 MLOAD DUP1 SWAP2 SUB SWAP1 REVERT JUMPDEST DUP2 PUSH20 0xFFFFFFFFFFFFFFFFFFFFFFFFFFFFFFFFFFFFFFFF AND PUSH2 0x8FC PUSH8 0xDE0B6B3A7640000 SWAP1 DUP2 ISZERO MUL SWAP1 PUSH1 0x40 MLOAD PUSH1 0x0 PUSH1 0x40 MLOAD DUP1 DUP4 SUB DUP2 DUP6 DUP9 DUP9 CALL SWAP4 POP POP POP POP ISZERO DUP1 ISZERO PUSH2 0x6AA JUMPI RETURNDATASIZE PUSH1 0x0 DUP1 RETURNDATACOPY RETURNDATASIZE PUSH1 0x0 REVERT JUMPDEST POP TIMESTAMP PUSH1 0x3 PUSH1 0x0 DUP5 PUSH20 0xFFFFFFFFFFFFFFFFFFFFFFFFFFFFFFFFFFFFFFFF AND PUSH20 0xFFFFFFFFFFFFFFFFFFFFFFFFFFFFFFFFFFFFFFFF AND DUP2 MSTORE PUSH1 0x20 ADD SWAP1 DUP2 MSTORE PUSH1 0x20 ADD PUSH1 0x0 KECCAK256 DUP2 SWAP1 SSTORE POP POP POP DUP1 DUP1 PUSH2 0x6FC SWAP1 PUSH2 0x10E9 JUMP JUMPDEST SWAP2 POP POP PUSH2 0x573 JUMP JUMPDEST POP JUMP JUMPDEST PUSH1 0x60 TIMESTAMP PUSH1 0x3 PUSH1 0x0 CALLER PUSH20 0xFFFFFFFFFFFFFFFFFFFFFFFFFFFFFFFFFFFFFFFF AND PUSH20 0xFFFFFFFFFFFFFFFFFFFFFFFFFFFFFFFFFFFFFFFF AND DUP2 MSTORE PUSH1 0x20 ADD SWAP1 DUP2 MSTORE PUSH1 0x20 ADD PUSH1 0x0 KECCAK256 DUP2 SWAP1 SSTORE POP PUSH1 0x0 PUSH1 0x40 MLOAD DUP1 PUSH1 0x60 ADD PUSH1 0x40 MSTORE DUP1 PUSH1 0x1 PUSH1 0x0 DUP2 SLOAD DUP1 SWAP3 SWAP2 SWAP1 PUSH2 0x76D SWAP1 PUSH2 0x10A0 JUMP JUMPDEST SWAP2 SWAP1 POP SSTORE DUP2 MSTORE PUSH1 0x20 ADD CALLER PUSH20 0xFFFFFFFFFFFFFFFFFFFFFFFFFFFFFFFFFFFFFFFF AND DUP2 MSTORE PUSH1 0x20 ADD CALLER PUSH20 0xFFFFFFFFFFFFFFFFFFFFFFFFFFFFFFFFFFFFFFFF AND BALANCE DUP2 MSTORE POP SWAP1 DUP1 PUSH1 0x1 DUP2 SLOAD ADD DUP1 DUP3 SSTORE DUP1 SWAP2 POP POP PUSH1 0x1 SWAP1 SUB SWAP1 PUSH1 0x0 MSTORE PUSH1 0x20 PUSH1 0x0 KECCAK256 SWAP1 PUSH1 0x3 MUL ADD PUSH1 0x0 SWAP1 SWAP2 SWAP1 SWAP2 SWAP1 SWAP2 POP PUSH1 0x0 DUP3 ADD MLOAD DUP2 PUSH1 0x0 ADD SSTORE PUSH1 0x20 DUP3 ADD MLOAD DUP2 PUSH1 0x1 ADD PUSH1 0x0 PUSH2 0x100 EXP DUP2 SLOAD DUP2 PUSH20 0xFFFFFFFFFFFFFFFFFFFFFFFFFFFFFFFFFFFFFFFF MUL NOT AND SWAP1 DUP4 PUSH20 0xFFFFFFFFFFFFFFFFFFFFFFFFFFFFFFFFFFFFFFFF AND MUL OR SWAP1 SSTORE POP PUSH1 0x40 DUP3 ADD MLOAD DUP2 PUSH1 0x2 ADD SSTORE POP POP PUSH1 0x40 MLOAD DUP1 PUSH1 0x20 ADD PUSH1 0x40 MSTORE DUP1 PUSH1 0x0 DUP2 MSTORE POP SWAP1 POP SWAP1 JUMP JUMPDEST PUSH1 0x0 DUP1 JUMPDEST PUSH1 0x0 DUP1 SLOAD SWAP1 POP DUP2 LT ISZERO PUSH2 0x8EE JUMPI CALLER PUSH20 0xFFFFFFFFFFFFFFFFFFFFFFFFFFFFFFFFFFFFFFFF AND PUSH1 0x0 DUP3 DUP2 SLOAD DUP2 LT PUSH2 0x884 JUMPI PUSH2 0x883 PUSH2 0x1161 JUMP JUMPDEST JUMPDEST SWAP1 PUSH1 0x0 MSTORE PUSH1 0x20 PUSH1 0x0 KECCAK256 SWAP1 PUSH1 0x3 MUL ADD PUSH1 0x1 ADD PUSH1 0x0 SWAP1 SLOAD SWAP1 PUSH2 0x100 EXP SWAP1 DIV PUSH20 0xFFFFFFFFFFFFFFFFFFFFFFFFFFFFFFFFFFFFFFFF AND PUSH20 0xFFFFFFFFFFFFFFFFFFFFFFFFFFFFFFFFFFFFFFFF AND EQ ISZERO PUSH2 0x8DB JUMPI PUSH1 0x1 SWAP2 POP PUSH2 0x8EE JUMP JUMPDEST DUP1 DUP1 PUSH2 0x8E6 SWAP1 PUSH2 0x10E9 JUMP JUMPDEST SWAP2 POP POP PUSH2 0x84C JUMP JUMPDEST POP DUP1 PUSH2 0x92F JUMPI PUSH1 0x40 MLOAD PUSH32 0x8C379A000000000000000000000000000000000000000000000000000000000 DUP2 MSTORE PUSH1 0x4 ADD PUSH2 0x926 SWAP1 PUSH2 0xE75 JUMP JUMPDEST PUSH1 0x40 MLOAD DUP1 SWAP2 SUB SWAP1 REVERT JUMPDEST ADDRESS PUSH20 0xFFFFFFFFFFFFFFFFFFFFFFFFFFFFFFFFFFFFFFFF AND PUSH2 0x8FC CALLVALUE SWAP1 DUP2 ISZERO MUL SWAP1 PUSH1 0x40 MLOAD PUSH1 0x0 PUSH1 0x40 MLOAD DUP1 DUP4 SUB DUP2 DUP6 DUP9 DUP9 CALL SWAP4 POP POP POP POP ISZERO DUP1 ISZERO PUSH2 0x975 JUMPI RETURNDATASIZE PUSH1 0x0 DUP1 RETURNDATACOPY RETURNDATASIZE PUSH1 0x0 REVERT JUMPDEST POP POP JUMP JUMPDEST PUSH1 0x60 DUP2 PUSH1 0x2 PUSH1 0x0 PUSH2 0x100 EXP DUP2 SLOAD DUP2 PUSH20 0xFFFFFFFFFFFFFFFFFFFFFFFFFFFFFFFFFFFFFFFF MUL NOT AND SWAP1 DUP4 PUSH20 0xFFFFFFFFFFFFFFFFFFFFFFFFFFFFFFFFFFFFFFFF AND MUL OR SWAP1 SSTORE POP PUSH1 0x40 MLOAD DUP1 PUSH1 0x20 ADD PUSH1 0x40 MSTORE DUP1 PUSH1 0x0 DUP2 MSTORE POP SWAP1 POP SWAP2 SWAP1 POP JUMP JUMPDEST PUSH1 0x3 PUSH1 0x20 MSTORE DUP1 PUSH1 0x0 MSTORE PUSH1 0x40 PUSH1 0x0 KECCAK256 PUSH1 0x0 SWAP2 POP SWAP1 POP SLOAD DUP2 JUMP JUMPDEST PUSH1 0x60 PUSH1 0x0 DUP1 SLOAD DUP1 PUSH1 0x20 MUL PUSH1 0x20 ADD PUSH1 0x40 MLOAD SWAP1 DUP2 ADD PUSH1 0x40 MSTORE DUP1 SWAP3 SWAP2 SWAP1 DUP2 DUP2 MSTORE PUSH1 0x20 ADD PUSH1 0x0 SWAP1 JUMPDEST DUP3 DUP3 LT ISZERO PUSH2 0xAAB JUMPI DUP4 DUP3 SWAP1 PUSH1 0x0 MSTORE PUSH1 0x20 PUSH1 0x0 KECCAK256 SWAP1 PUSH1 0x3 MUL ADD PUSH1 0x40 MLOAD DUP1 PUSH1 0x60 ADD PUSH1 0x40 MSTORE SWAP1 DUP2 PUSH1 0x0 DUP3 ADD SLOAD DUP2 MSTORE PUSH1 0x20 ADD PUSH1 0x1 DUP3 ADD PUSH1 0x0 SWAP1 SLOAD SWAP1 PUSH2 0x100 EXP SWAP1 DIV PUSH20 0xFFFFFFFFFFFFFFFFFFFFFFFFFFFFFFFFFFFFFFFF AND PUSH20 0xFFFFFFFFFFFFFFFFFFFFFFFFFFFFFFFFFFFFFFFF AND PUSH20 0xFFFFFFFFFFFFFFFFFFFFFFFFFFFFFFFFFFFFFFFF AND DUP2 MSTORE PUSH1 0x20 ADD PUSH1 0x2 DUP3 ADD SLOAD DUP2 MSTORE POP POP DUP2 MSTORE PUSH1 0x20 ADD SWAP1 PUSH1 0x1 ADD SWAP1 PUSH2 0xA0F JUMP JUMPDEST POP POP POP POP SWAP1 POP SWAP1 JUMP JUMPDEST PUSH1 0x0 DUP2 CALLDATALOAD SWAP1 POP PUSH2 0xAC3 DUP2 PUSH2 0x1276 JUMP JUMPDEST SWAP3 SWAP2 POP POP JUMP JUMPDEST PUSH1 0x0 DUP2 CALLDATALOAD SWAP1 POP PUSH2 0xAD8 DUP2 PUSH2 0x128D JUMP JUMPDEST SWAP3 SWAP2 POP POP JUMP JUMPDEST PUSH1 0x0 PUSH1 0x20 DUP3 DUP5 SUB SLT ISZERO PUSH2 0xAF4 JUMPI PUSH2 0xAF3 PUSH2 0x11BF JUMP JUMPDEST JUMPDEST PUSH1 0x0 PUSH2 0xB02 DUP5 DUP3 DUP6 ADD PUSH2 0xAB4 JUMP JUMPDEST SWAP2 POP POP SWAP3 SWAP2 POP POP JUMP JUMPDEST PUSH1 0x0 PUSH1 0x20 DUP3 DUP5 SUB SLT ISZERO PUSH2 0xB21 JUMPI PUSH2 0xB20 PUSH2 0x11BF JUMP JUMPDEST JUMPDEST PUSH1 0x0 PUSH2 0xB2F DUP5 DUP3 DUP6 ADD PUSH2 0xAC9 JUMP JUMPDEST SWAP2 POP POP SWAP3 SWAP2 POP POP JUMP JUMPDEST PUSH1 0x0 PUSH2 0xB44 DUP4 DUP4 PUSH2 0xB80 JUMP JUMPDEST PUSH1 0x20 DUP4 ADD SWAP1 POP SWAP3 SWAP2 POP POP JUMP JUMPDEST PUSH1 0x0 PUSH2 0xB5C DUP4 DUP4 PUSH2 0xD5A JUMP JUMPDEST PUSH1 0x60 DUP4 ADD SWAP1 POP SWAP3 SWAP2 POP POP JUMP JUMPDEST PUSH1 0x0 PUSH2 0xB74 DUP4 DUP4 PUSH2 0xD9C JUMP JUMPDEST PUSH1 0x20 DUP4 ADD SWAP1 POP SWAP3 SWAP2 POP POP JUMP JUMPDEST PUSH2 0xB89 DUP2 PUSH2 0x1027 JUMP JUMPDEST DUP3 MSTORE POP POP JUMP JUMPDEST PUSH1 0x0 PUSH2 0xB9A DUP3 PUSH2 0xEE0 JUMP JUMPDEST PUSH2 0xBA4 DUP2 DUP6 PUSH2 0xF33 JUMP JUMPDEST SWAP4 POP PUSH2 0xBAF DUP4 PUSH2 0xEB0 JUMP JUMPDEST DUP1 PUSH1 0x0 JUMPDEST DUP4 DUP2 LT ISZERO PUSH2 0xBE0 JUMPI DUP2 MLOAD PUSH2 0xBC7 DUP9 DUP3 PUSH2 0xB38 JUMP JUMPDEST SWAP8 POP PUSH2 0xBD2 DUP4 PUSH2 0xF0C JUMP JUMPDEST SWAP3 POP POP PUSH1 0x1 DUP2 ADD SWAP1 POP PUSH2 0xBB3 JUMP JUMPDEST POP DUP6 SWAP4 POP POP POP POP SWAP3 SWAP2 POP POP JUMP JUMPDEST PUSH1 0x0 PUSH2 0xBF8 DUP3 PUSH2 0xEEB JUMP JUMPDEST PUSH2 0xC02 DUP2 DUP6 PUSH2 0xF44 JUMP JUMPDEST SWAP4 POP PUSH2 0xC0D DUP4 PUSH2 0xEC0 JUMP JUMPDEST DUP1 PUSH1 0x0 JUMPDEST DUP4 DUP2 LT ISZERO PUSH2 0xC3E JUMPI DUP2 MLOAD PUSH2 0xC25 DUP9 DUP3 PUSH2 0xB50 JUMP JUMPDEST SWAP8 POP PUSH2 0xC30 DUP4 PUSH2 0xF19 JUMP JUMPDEST SWAP3 POP POP PUSH1 0x1 DUP2 ADD SWAP1 POP PUSH2 0xC11 JUMP JUMPDEST POP DUP6 SWAP4 POP POP POP POP SWAP3 SWAP2 POP POP JUMP JUMPDEST PUSH1 0x0 PUSH2 0xC56 DUP3 PUSH2 0xEF6 JUMP JUMPDEST PUSH2 0xC60 DUP2 DUP6 PUSH2 0xF55 JUMP JUMPDEST SWAP4 POP PUSH2 0xC6B DUP4 PUSH2 0xED0 JUMP JUMPDEST DUP1 PUSH1 0x0 JUMPDEST DUP4 DUP2 LT ISZERO PUSH2 0xC9C JUMPI DUP2 MLOAD PUSH2 0xC83 DUP9 DUP3 PUSH2 0xB68 JUMP JUMPDEST SWAP8 POP PUSH2 0xC8E DUP4 PUSH2 0xF26 JUMP JUMPDEST SWAP3 POP POP PUSH1 0x1 DUP2 ADD SWAP1 POP PUSH2 0xC6F JUMP JUMPDEST POP DUP6 SWAP4 POP POP POP POP SWAP3 SWAP2 POP POP JUMP JUMPDEST PUSH2 0xCB2 DUP2 PUSH2 0x1039 JUMP JUMPDEST DUP3 MSTORE POP POP JUMP JUMPDEST PUSH1 0x0 PUSH2 0xCC3 DUP3 PUSH2 0xF01 JUMP JUMPDEST PUSH2 0xCCD DUP2 DUP6 PUSH2 0xF66 JUMP JUMPDEST SWAP4 POP PUSH2 0xCDD DUP2 DUP6 PUSH1 0x20 DUP7 ADD PUSH2 0x106D JUMP JUMPDEST PUSH2 0xCE6 DUP2 PUSH2 0x11C4 JUMP JUMPDEST DUP5 ADD SWAP2 POP POP SWAP3 SWAP2 POP POP JUMP JUMPDEST PUSH1 0x0 PUSH2 0xCFE PUSH1 0x16 DUP4 PUSH2 0xF66 JUMP JUMPDEST SWAP2 POP PUSH2 0xD09 DUP3 PUSH2 0x11D5 JUMP JUMPDEST PUSH1 0x20 DUP3 ADD SWAP1 POP SWAP2 SWAP1 POP JUMP JUMPDEST PUSH1 0x0 PUSH2 0xD21 PUSH1 0x24 DUP4 PUSH2 0xF66 JUMP JUMPDEST SWAP2 POP PUSH2 0xD2C DUP3 PUSH2 0x11FE JUMP JUMPDEST PUSH1 0x40 DUP3 ADD SWAP1 POP SWAP2 SWAP1 POP JUMP JUMPDEST PUSH1 0x0 PUSH2 0xD44 PUSH1 0x16 DUP4 PUSH2 0xF66 JUMP JUMPDEST SWAP2 POP PUSH2 0xD4F DUP3 PUSH2 0x124D JUMP JUMPDEST PUSH1 0x20 DUP3 ADD SWAP1 POP SWAP2 SWAP1 POP JUMP JUMPDEST PUSH1 0x60 DUP3 ADD PUSH1 0x0 DUP3 ADD MLOAD PUSH2 0xD70 PUSH1 0x0 DUP6 ADD DUP3 PUSH2 0xCA9 JUMP JUMPDEST POP PUSH1 0x20 DUP3 ADD MLOAD PUSH2 0xD83 PUSH1 0x20 DUP6 ADD DUP3 PUSH2 0xB80 JUMP JUMPDEST POP PUSH1 0x40 DUP3 ADD MLOAD PUSH2 0xD96 PUSH1 0x40 DUP6 ADD DUP3 PUSH2 0xD9C JUMP JUMPDEST POP POP POP POP JUMP JUMPDEST PUSH2 0xDA5 DUP2 PUSH2 0x1063 JUMP JUMPDEST DUP3 MSTORE POP POP JUMP JUMPDEST PUSH2 0xDB4 DUP2 PUSH2 0x1063 JUMP JUMPDEST DUP3 MSTORE POP POP JUMP JUMPDEST PUSH1 0x0 PUSH1 0x40 DUP3 ADD SWAP1 POP DUP2 DUP2 SUB PUSH1 0x0 DUP4 ADD MSTORE PUSH2 0xDD4 DUP2 DUP6 PUSH2 0xB8F JUMP JUMPDEST SWAP1 POP DUP2 DUP2 SUB PUSH1 0x20 DUP4 ADD MSTORE PUSH2 0xDE8 DUP2 DUP5 PUSH2 0xC4B JUMP JUMPDEST SWAP1 POP SWAP4 SWAP3 POP POP POP JUMP JUMPDEST PUSH1 0x0 PUSH1 0x20 DUP3 ADD SWAP1 POP DUP2 DUP2 SUB PUSH1 0x0 DUP4 ADD MSTORE PUSH2 0xE0B DUP2 DUP5 PUSH2 0xBED JUMP JUMPDEST SWAP1 POP SWAP3 SWAP2 POP POP JUMP JUMPDEST PUSH1 0x0 PUSH1 0x20 DUP3 ADD SWAP1 POP DUP2 DUP2 SUB PUSH1 0x0 DUP4 ADD MSTORE PUSH2 0xE2D DUP2 DUP5 PUSH2 0xCB8 JUMP JUMPDEST SWAP1 POP SWAP3 SWAP2 POP POP JUMP JUMPDEST PUSH1 0x0 PUSH1 0x20 DUP3 ADD SWAP1 POP DUP2 DUP2 SUB PUSH1 0x0 DUP4 ADD MSTORE PUSH2 0xE4E DUP2 PUSH2 0xCF1 JUMP JUMPDEST SWAP1 POP SWAP2 SWAP1 POP JUMP JUMPDEST PUSH1 0x0 PUSH1 0x20 DUP3 ADD SWAP1 POP DUP2 DUP2 SUB PUSH1 0x0 DUP4 ADD MSTORE PUSH2 0xE6E DUP2 PUSH2 0xD14 JUMP JUMPDEST SWAP1 POP SWAP2 SWAP1 POP JUMP JUMPDEST PUSH1 0x0 PUSH1 0x20 DUP3 ADD SWAP1 POP DUP2 DUP2 SUB PUSH1 0x0 DUP4 ADD MSTORE PUSH2 0xE8E DUP2 PUSH2 0xD37 JUMP JUMPDEST SWAP1 POP SWAP2 SWAP1 POP JUMP JUMPDEST PUSH1 0x0 PUSH1 0x20 DUP3 ADD SWAP1 POP PUSH2 0xEAA PUSH1 0x0 DUP4 ADD DUP5 PUSH2 0xDAB JUMP JUMPDEST SWAP3 SWAP2 POP POP JUMP JUMPDEST PUSH1 0x0 DUP2 SWAP1 POP PUSH1 0x20 DUP3 ADD SWAP1 POP SWAP2 SWAP1 POP JUMP JUMPDEST PUSH1 0x0 DUP2 SWAP1 POP PUSH1 0x20 DUP3 ADD SWAP1 POP SWAP2 SWAP1 POP JUMP JUMPDEST PUSH1 0x0 DUP2 SWAP1 POP PUSH1 0x20 DUP3 ADD SWAP1 POP SWAP2 SWAP1 POP JUMP JUMPDEST PUSH1 0x0 DUP2 MLOAD SWAP1 POP SWAP2 SWAP1 POP JUMP JUMPDEST PUSH1 0x0 DUP2 MLOAD SWAP1 POP SWAP2 SWAP1 POP JUMP JUMPDEST PUSH1 0x0 DUP2 MLOAD SWAP1 POP SWAP2 SWAP1 POP JUMP JUMPDEST PUSH1 0x0 DUP2 MLOAD SWAP1 POP SWAP2 SWAP1 POP JUMP JUMPDEST PUSH1 0x0 PUSH1 0x20 DUP3 ADD SWAP1 POP SWAP2 SWAP1 POP JUMP JUMPDEST PUSH1 0x0 PUSH1 0x20 DUP3 ADD SWAP1 POP SWAP2 SWAP1 POP JUMP JUMPDEST PUSH1 0x0 PUSH1 0x20 DUP3 ADD SWAP1 POP SWAP2 SWAP1 POP JUMP JUMPDEST PUSH1 0x0 DUP3 DUP3 MSTORE PUSH1 0x20 DUP3 ADD SWAP1 POP SWAP3 SWAP2 POP POP JUMP JUMPDEST PUSH1 0x0 DUP3 DUP3 MSTORE PUSH1 0x20 DUP3 ADD SWAP1 POP SWAP3 SWAP2 POP POP JUMP JUMPDEST PUSH1 0x0 DUP3 DUP3 MSTORE PUSH1 0x20 DUP3 ADD SWAP1 POP SWAP3 SWAP2 POP POP JUMP JUMPDEST PUSH1 0x0 DUP3 DUP3 MSTORE PUSH1 0x20 DUP3 ADD SWAP1 POP SWAP3 SWAP2 POP POP JUMP JUMPDEST PUSH1 0x0 PUSH2 0xF82 DUP3 PUSH2 0x1063 JUMP JUMPDEST SWAP2 POP PUSH2 0xF8D DUP4 PUSH2 0x1063 JUMP JUMPDEST SWAP3 POP DUP3 PUSH32 0xFFFFFFFFFFFFFFFFFFFFFFFFFFFFFFFFFFFFFFFFFFFFFFFFFFFFFFFFFFFFFFFF SUB DUP3 GT ISZERO PUSH2 0xFC2 JUMPI PUSH2 0xFC1 PUSH2 0x1132 JUMP JUMPDEST JUMPDEST DUP3 DUP3 ADD SWAP1 POP SWAP3 SWAP2 POP POP JUMP JUMPDEST PUSH1 0x0 PUSH2 0xFD8 DUP3 PUSH2 0x1063 JUMP JUMPDEST SWAP2 POP PUSH2 0xFE3 DUP4 PUSH2 0x1063 JUMP JUMPDEST SWAP3 POP DUP2 PUSH32 0xFFFFFFFFFFFFFFFFFFFFFFFFFFFFFFFFFFFFFFFFFFFFFFFFFFFFFFFFFFFFFFFF DIV DUP4 GT DUP3 ISZERO ISZERO AND ISZERO PUSH2 0x101C JUMPI PUSH2 0x101B PUSH2 0x1132 JUMP JUMPDEST JUMPDEST DUP3 DUP3 MUL SWAP1 POP SWAP3 SWAP2 POP POP JUMP JUMPDEST PUSH1 0x0 PUSH2 0x1032 DUP3 PUSH2 0x1043 JUMP JUMPDEST SWAP1 POP SWAP2 SWAP1 POP JUMP JUMPDEST PUSH1 0x0 DUP2 SWAP1 POP SWAP2 SWAP1 POP JUMP JUMPDEST PUSH1 0x0 PUSH20 0xFFFFFFFFFFFFFFFFFFFFFFFFFFFFFFFFFFFFFFFF DUP3 AND SWAP1 POP SWAP2 SWAP1 POP JUMP JUMPDEST PUSH1 0x0 DUP2 SWAP1 POP SWAP2 SWAP1 POP JUMP JUMPDEST PUSH1 0x0 JUMPDEST DUP4 DUP2 LT ISZERO PUSH2 0x108B JUMPI DUP1 DUP3 ADD MLOAD DUP2 DUP5 ADD MSTORE PUSH1 0x20 DUP2 ADD SWAP1 POP PUSH2 0x1070 JUMP JUMPDEST DUP4 DUP2 GT ISZERO PUSH2 0x109A JUMPI PUSH1 0x0 DUP5 DUP5 ADD MSTORE JUMPDEST POP POP POP POP JUMP JUMPDEST PUSH1 0x0 PUSH2 0x10AB DUP3 PUSH2 0x1039 JUMP JUMPDEST SWAP2 POP PUSH32 0x7FFFFFFFFFFFFFFFFFFFFFFFFFFFFFFFFFFFFFFFFFFFFFFFFFFFFFFFFFFFFFFF DUP3 EQ ISZERO PUSH2 0x10DE JUMPI PUSH2 0x10DD PUSH2 0x1132 JUMP JUMPDEST JUMPDEST PUSH1 0x1 DUP3 ADD SWAP1 POP SWAP2 SWAP1 POP JUMP JUMPDEST PUSH1 0x0 PUSH2 0x10F4 DUP3 PUSH2 0x1063 JUMP JUMPDEST SWAP2 POP PUSH32 0xFFFFFFFFFFFFFFFFFFFFFFFFFFFFFFFFFFFFFFFFFFFFFFFFFFFFFFFFFFFFFFFF DUP3 EQ ISZERO PUSH2 0x1127 JUMPI PUSH2 0x1126 PUSH2 0x1132 JUMP JUMPDEST JUMPDEST PUSH1 0x1 DUP3 ADD SWAP1 POP SWAP2 SWAP1 POP JUMP JUMPDEST PUSH32 0x4E487B7100000000000000000000000000000000000000000000000000000000 PUSH1 0x0 MSTORE PUSH1 0x11 PUSH1 0x4 MSTORE PUSH1 0x24 PUSH1 0x0 REVERT JUMPDEST PUSH32 0x4E487B7100000000000000000000000000000000000000000000000000000000 PUSH1 0x0 MSTORE PUSH1 0x32 PUSH1 0x4 MSTORE PUSH1 0x24 PUSH1 0x0 REVERT JUMPDEST PUSH32 0x4E487B7100000000000000000000000000000000000000000000000000000000 PUSH1 0x0 MSTORE PUSH1 0x41 PUSH1 0x4 MSTORE PUSH1 0x24 PUSH1 0x0 REVERT JUMPDEST PUSH1 0x0 DUP1 REVERT JUMPDEST PUSH1 0x0 PUSH1 0x1F NOT PUSH1 0x1F DUP4 ADD AND SWAP1 POP SWAP2 SWAP1 POP JUMP JUMPDEST PUSH32 0x4F6E6C79206D616E616765722063616E2063616C6C2100000000000000000000 PUSH1 0x0 DUP3 ADD MSTORE POP JUMP JUMPDEST PUSH32 0x49742773206A757374206265656E206C657373207468616E203130207365636F PUSH1 0x0 DUP3 ADD MSTORE PUSH32 0x6E64732100000000000000000000000000000000000000000000000000000000 PUSH1 0x20 DUP3 ADD MSTORE POP JUMP JUMPDEST PUSH32 0x4F6E6C7920636C69656E74732063616E2063616C6C2100000000000000000000 PUSH1 0x0 DUP3 ADD MSTORE POP JUMP JUMPDEST PUSH2 0x127F DUP2 PUSH2 0x1027 JUMP JUMPDEST DUP2 EQ PUSH2 0x128A JUMPI PUSH1 0x0 DUP1 REVERT JUMPDEST POP JUMP JUMPDEST PUSH2 0x1296 DUP2 PUSH2 0x1063 JUMP JUMPDEST DUP2 EQ PUSH2 0x12A1 JUMPI PUSH1 0x0 DUP1 REVERT JUMPDEST POP JUMP INVALID LOG2 PUSH5 0x6970667358 0x22 SLT KECCAK256 0xB2 0xD3 0x22 0xDB EXTCODECOPY 0xB9 MOD 0xF 0xE5 0x28 0x2E NUMBER JUMP 0x24 0xD4 0xBE SWAP11 0x28 CALLDATACOPY 0x4C POP 0xB1 JUMPDEST 0xC6 CHAINID SELFBALANCE PUSH24 0xCC7BEFE1D164736F6C634300080700330000000000000000 "
				},
				"gasEstimates": {
					"creation": {
						"codeDepositCost": "965200",
						"executionCost": "6015",
						"totalCost": "971215"
					},
					"external": {
						"deposit()": "infinite",
						"getClients()": "infinite",
						"getContractBalance()": "384",
						"getCountClient()": "infinite",
						"interestDate(address)": "2880",
						"joinAsClient()": "142725",
						"sendInterest()": "infinite",
						"setManager(address)": "25274",
						"withdraw(uint256)": "infinite"
					}
				},
				"methodIdentifiers": {
					"deposit()": "d0e30db0",
					"getClients()": "6db80995",
					"getContractBalance()": "6f9fb98a",
					"getCountClient()": "fef75470",
					"interestDate(address)": "d9dca6c5",
					"joinAsClient()": "a4092174",
					"sendInterest()": "9e0a5d68",
					"setManager(address)": "d0ebdbe7",
					"withdraw(uint256)": "2e1a7d4d"
				}
			},
			"storageLayout": {
				"storage": [
					{
						"astId": 12,
						"contract": "contracts/first_contract.sol:BankContract",
						"label": "clients",
						"offset": 0,
						"slot": "0",
						"type": "t_array(t_struct(client_account)8_storage)dyn_storage"
					},
					{
						"astId": 14,
						"contract": "contracts/first_contract.sol:BankContract",
						"label": "clientCounter",
						"offset": 0,
						"slot": "1",
						"type": "t_int256"
					},
					{
						"astId": 16,
						"contract": "contracts/first_contract.sol:BankContract",
						"label": "manager",
						"offset": 0,
						"slot": "2",
						"type": "t_address_payable"
					},
					{
						"astId": 20,
						"contract": "contracts/first_contract.sol:BankContract",
						"label": "interestDate",
						"offset": 0,
						"slot": "3",
						"type": "t_mapping(t_address,t_uint256)"
					}
				],
				"types": {
					"t_address": {
						"encoding": "inplace",
						"label": "address",
						"numberOfBytes": "20"
					},
					"t_address_payable": {
						"encoding": "inplace",
						"label": "address payable",
						"numberOfBytes": "20"
					},
					"t_array(t_struct(client_account)8_storage)dyn_storage": {
						"base": "t_struct(client_account)8_storage",
						"encoding": "dynamic_array",
						"label": "struct BankContract.client_account[]",
						"numberOfBytes": "32"
					},
					"t_int256": {
						"encoding": "inplace",
						"label": "int256",
						"numberOfBytes": "32"
					},
					"t_mapping(t_address,t_uint256)": {
						"encoding": "mapping",
						"key": "t_address",
						"label": "mapping(address => uint256)",
						"numberOfBytes": "32",
						"value": "t_uint256"
					},
					"t_struct(client_account)8_storage": {
						"encoding": "inplace",
						"label": "struct BankContract.client_account",
						"members": [
							{
								"astId": 3,
								"contract": "contracts/first_contract.sol:BankContract",
								"label": "client_id",
								"offset": 0,
								"slot": "0",
								"type": "t_int256"
							},
							{
								"astId": 5,
								"contract": "contracts/first_contract.sol:BankContract",
								"label": "client_address",
								"offset": 0,
								"slot": "1",
								"type": "t_address"
							},
							{
								"astId": 7,
								"contract": "contracts/first_contract.sol:BankContract",
								"label": "client_balance_in_ether",
								"offset": 0,
								"slot": "2",
								"type": "t_uint256"
							}
						],
						"numberOfBytes": "96"
					},
					"t_uint256": {
						"encoding": "inplace",
						"label": "uint256",
						"numberOfBytes": "32"
					}
				}
			},
			"userdoc": {
				"kind": "user",
				"methods": {},
				"version": 1
			}
		}
	}
}